{
  "_format": "hh-sol-artifact-1",
  "contractName": "Mark2Market",
  "sourceName": "contracts/Mark2Market.sol",
  "abi": [
    {
      "inputs": [],
      "stateMutability": "nonpayable",
      "type": "constructor"
    },
    {
      "anonymous": false,
      "inputs": [
        {
          "indexed": false,
          "internalType": "address",
          "name": "previousAdmin",
          "type": "address"
        },
        {
          "indexed": false,
          "internalType": "address",
          "name": "newAdmin",
          "type": "address"
        }
      ],
      "name": "AdminChanged",
      "type": "event"
    },
    {
      "anonymous": false,
      "inputs": [
        {
          "indexed": true,
          "internalType": "address",
          "name": "beacon",
          "type": "address"
        }
      ],
      "name": "BeaconUpgraded",
      "type": "event"
    },
    {
      "anonymous": false,
      "inputs": [
        {
          "indexed": false,
          "internalType": "uint8",
          "name": "version",
          "type": "uint8"
        }
      ],
      "name": "Initialized",
      "type": "event"
    },
    {
      "anonymous": false,
      "inputs": [
        {
          "indexed": false,
          "internalType": "address",
          "name": "portfolio",
          "type": "address"
        }
      ],
      "name": "PortfolioManagerUpdated",
      "type": "event"
    },
    {
      "anonymous": false,
      "inputs": [
        {
          "indexed": true,
          "internalType": "bytes32",
          "name": "role",
          "type": "bytes32"
        },
        {
          "indexed": true,
          "internalType": "bytes32",
          "name": "previousAdminRole",
          "type": "bytes32"
        },
        {
          "indexed": true,
          "internalType": "bytes32",
          "name": "newAdminRole",
          "type": "bytes32"
        }
      ],
      "name": "RoleAdminChanged",
      "type": "event"
    },
    {
      "anonymous": false,
      "inputs": [
        {
          "indexed": true,
          "internalType": "bytes32",
          "name": "role",
          "type": "bytes32"
        },
        {
          "indexed": true,
          "internalType": "address",
          "name": "account",
          "type": "address"
        },
        {
          "indexed": true,
          "internalType": "address",
          "name": "sender",
          "type": "address"
        }
      ],
      "name": "RoleGranted",
      "type": "event"
    },
    {
      "anonymous": false,
      "inputs": [
        {
          "indexed": true,
          "internalType": "bytes32",
          "name": "role",
          "type": "bytes32"
        },
        {
          "indexed": true,
          "internalType": "address",
          "name": "account",
          "type": "address"
        },
        {
          "indexed": true,
          "internalType": "address",
          "name": "sender",
          "type": "address"
        }
      ],
      "name": "RoleRevoked",
      "type": "event"
    },
    {
      "anonymous": false,
      "inputs": [
        {
          "indexed": true,
          "internalType": "address",
          "name": "implementation",
          "type": "address"
        }
      ],
      "name": "Upgraded",
      "type": "event"
    },
    {
      "inputs": [],
      "name": "DEFAULT_ADMIN_ROLE",
      "outputs": [
        {
          "internalType": "bytes32",
          "name": "",
          "type": "bytes32"
        }
      ],
      "stateMutability": "view",
      "type": "function"
    },
    {
      "inputs": [
        {
          "internalType": "bytes32",
          "name": "role",
          "type": "bytes32"
        }
      ],
      "name": "getRoleAdmin",
      "outputs": [
        {
          "internalType": "bytes32",
          "name": "",
          "type": "bytes32"
        }
      ],
      "stateMutability": "view",
      "type": "function"
    },
    {
      "inputs": [
        {
          "internalType": "bytes32",
          "name": "role",
          "type": "bytes32"
        },
        {
          "internalType": "address",
          "name": "account",
          "type": "address"
        }
      ],
      "name": "grantRole",
      "outputs": [],
      "stateMutability": "nonpayable",
      "type": "function"
    },
    {
      "inputs": [
        {
          "internalType": "bytes32",
          "name": "role",
          "type": "bytes32"
        },
        {
          "internalType": "address",
          "name": "account",
          "type": "address"
        }
      ],
      "name": "hasRole",
      "outputs": [
        {
          "internalType": "bool",
          "name": "",
          "type": "bool"
        }
      ],
      "stateMutability": "view",
      "type": "function"
    },
    {
      "inputs": [],
      "name": "initialize",
      "outputs": [],
      "stateMutability": "nonpayable",
      "type": "function"
    },
    {
      "inputs": [],
      "name": "portfolioManager",
      "outputs": [
        {
          "internalType": "contract IPortfolioManager",
          "name": "",
          "type": "address"
        }
      ],
      "stateMutability": "view",
      "type": "function"
    },
    {
      "inputs": [],
      "name": "proxiableUUID",
      "outputs": [
        {
          "internalType": "bytes32",
          "name": "",
          "type": "bytes32"
        }
      ],
      "stateMutability": "view",
      "type": "function"
    },
    {
      "inputs": [
        {
          "internalType": "bytes32",
          "name": "role",
          "type": "bytes32"
        },
        {
          "internalType": "address",
          "name": "account",
          "type": "address"
        }
      ],
      "name": "renounceRole",
      "outputs": [],
      "stateMutability": "nonpayable",
      "type": "function"
    },
    {
      "inputs": [
        {
          "internalType": "bytes32",
          "name": "role",
          "type": "bytes32"
        },
        {
          "internalType": "address",
          "name": "account",
          "type": "address"
        }
      ],
      "name": "revokeRole",
      "outputs": [],
      "stateMutability": "nonpayable",
      "type": "function"
    },
    {
      "inputs": [
        {
          "internalType": "address",
          "name": "_value",
          "type": "address"
        }
      ],
      "name": "setPortfolioManager",
      "outputs": [],
      "stateMutability": "nonpayable",
      "type": "function"
    },
    {
      "inputs": [],
      "name": "strategyAssets",
      "outputs": [
        {
          "components": [
            {
              "internalType": "address",
              "name": "strategy",
              "type": "address"
            },
            {
              "internalType": "uint256",
              "name": "netAssetValue",
              "type": "uint256"
            },
            {
              "internalType": "uint256",
              "name": "liquidationValue",
              "type": "uint256"
            }
          ],
          "internalType": "struct IMark2Market.StrategyAsset[]",
          "name": "",
          "type": "tuple[]"
        }
      ],
      "stateMutability": "view",
      "type": "function"
    },
    {
      "inputs": [
        {
          "internalType": "bytes4",
          "name": "interfaceId",
          "type": "bytes4"
        }
      ],
      "name": "supportsInterface",
      "outputs": [
        {
          "internalType": "bool",
          "name": "",
          "type": "bool"
        }
      ],
      "stateMutability": "view",
      "type": "function"
    },
    {
      "inputs": [],
      "name": "totalLiquidationAssets",
      "outputs": [
        {
          "internalType": "uint256",
          "name": "",
          "type": "uint256"
        }
      ],
      "stateMutability": "view",
      "type": "function"
    },
    {
      "inputs": [],
      "name": "totalNetAssets",
      "outputs": [
        {
          "internalType": "uint256",
          "name": "",
          "type": "uint256"
        }
      ],
      "stateMutability": "view",
      "type": "function"
    },
    {
      "inputs": [
        {
          "internalType": "address",
          "name": "newImplementation",
          "type": "address"
        }
      ],
      "name": "upgradeTo",
      "outputs": [],
      "stateMutability": "nonpayable",
      "type": "function"
    },
    {
      "inputs": [
        {
          "internalType": "address",
          "name": "newImplementation",
          "type": "address"
        },
        {
          "internalType": "bytes",
          "name": "data",
          "type": "bytes"
        }
      ],
      "name": "upgradeToAndCall",
      "outputs": [],
      "stateMutability": "payable",
      "type": "function"
    }
  ],
  "bytecode": "0x60a0604052306080523480156200001557600080fd5b50600054610100900460ff1615808015620000375750600054600160ff909116105b8062000067575062000054306200010860201b620009e51760201c565b15801562000067575060005460ff166001145b6200008f5760405162461bcd60e51b8152600401620000869062000117565b60405180910390fd5b6000805460ff191660011790558015620000b3576000805461ff0019166101001790555b801562000101576000805461ff00191690556040517f7f26b83ff96e1f2b6a682f133852f6798a09c465da95921460cefb384740249890620000f8906001906200018d565b60405180910390a15b506200019d565b6001600160a01b03163b151590565b602080825281016200016a81602e81527f496e697469616c697a61626c653a20636f6e747261637420697320616c72656160208201526d191e481a5b9a5d1a585b1a5e995960921b604082015260600190565b92915050565b600060ff82166200016a565b620001878162000170565b82525050565b602081016200016a82846200017c565b608051611cf6620001d5600039600081816103a2015281816103e201528181610481015281816104c101526105500152611cf66000f3fe6080604052600436106100f35760003560e01c80638129fc1c1161008a578063a217fddf11610059578063a217fddf14610281578063a440b21a14610296578063b4d0c36b146102b6578063d547741f146102d857600080fd5b80638129fc1c14610222578063890a8c4f146102375780638e99426b1461024c57806391d148541461026157600080fd5b80633659cfe6116100c65780633659cfe6146101ad5780634f1ef286146101cd57806352d1902d146101e0578063620b75df146101f557600080fd5b806301ffc9a7146100f8578063248a9ca31461012e5780632f2ff15d1461016b57806336568abe1461018d575b600080fd5b34801561010457600080fd5b50610118610113366004611193565b6102f8565b60405161012591906111be565b60405180910390f35b34801561013a57600080fd5b5061015e6101493660046111dd565b60009081526065602052604090206001015490565b6040516101259190611204565b34801561017757600080fd5b5061018b610186366004611237565b61032f565b005b34801561019957600080fd5b5061018b6101a8366004611237565b610359565b3480156101b957600080fd5b5061018b6101c8366004611274565b610398565b61018b6101db366004611388565b610477565b3480156101ec57600080fd5b5061015e610543565b34801561020157600080fd5b5060fb54610215906001600160a01b031681565b60405161012591906113f5565b34801561022e57600080fd5b5061018b6105a0565b34801561024357600080fd5b5061015e610681565b34801561025857600080fd5b5061015e610692565b34801561026d57600080fd5b5061011861027c366004611237565b61069e565b34801561028d57600080fd5b5061015e600081565b3480156102a257600080fd5b5061018b6102b1366004611274565b6106c9565b3480156102c257600080fd5b506102cb610761565b60405161012591906114a0565b3480156102e457600080fd5b5061018b6102f3366004611237565b6109c0565b60006001600160e01b03198216637965db0b60e01b148061032957506301ffc9a760e01b6001600160e01b03198316145b92915050565b60008281526065602052604090206001015461034a816109f4565b61035483836109fe565b505050565b6001600160a01b038116331461038a5760405162461bcd60e51b815260040161038190611500565b60405180910390fd5b6103948282610a84565b5050565b6001600160a01b037f00000000000000000000000000000000000000000000000000000000000000001630036103e05760405162461bcd60e51b815260040161038190611559565b7f00000000000000000000000000000000000000000000000000000000000000006001600160a01b0316610429600080516020611c7a833981519152546001600160a01b031690565b6001600160a01b03161461044f5760405162461bcd60e51b8152600401610381906115b2565b61045881610aeb565b6040805160008082526020820190925261047491839190610af6565b50565b6001600160a01b037f00000000000000000000000000000000000000000000000000000000000000001630036104bf5760405162461bcd60e51b815260040161038190611559565b7f00000000000000000000000000000000000000000000000000000000000000006001600160a01b0316610508600080516020611c7a833981519152546001600160a01b031690565b6001600160a01b03161461052e5760405162461bcd60e51b8152600401610381906115b2565b61053782610aeb565b61039482826001610af6565b6000306001600160a01b037f0000000000000000000000000000000000000000000000000000000000000000161461058d5760405162461bcd60e51b81526004016103819061161c565b50600080516020611c7a83398151915290565b600054610100900460ff16158080156105c05750600054600160ff909116105b806105da5750303b1580156105da575060005460ff166001145b6105f65760405162461bcd60e51b815260040161038190611677565b6000805460ff191660011790558015610619576000805461ff0019166101001790555b610621610bd8565b610629610bd8565b6106346000336109fe565b8015610474576000805461ff00191690556040517f7f26b83ff96e1f2b6a682f133852f6798a09c465da95921460cefb3847402498906106769060019061169b565b60405180910390a150565b600061068d6000610c01565b905090565b600061068d6001610c01565b60009182526065602090815260408084206001600160a01b0393909316845291905290205460ff1690565b6106d460003361069e565b6106f05760405162461bcd60e51b8152600401610381906116d7565b6001600160a01b0381166107165760405162461bcd60e51b81526004016103819061171b565b60fb80546001600160a01b0319166001600160a01b0383161790556040517ff7b449fcd5cfb7379dcd34cb69428dd9f882033b15be33d83b42d91daa28eeb79061067690839061172b565b6060600060fb60009054906101000a90046001600160a01b03166001600160a01b031663f281d4386040518163ffffffff1660e01b8152600401600060405180830381865afa1580156107b8573d6000803e3d6000fd5b505050506040513d6000823e601f3d908101601f191682016040526107e091908101906118b5565b805190915060008167ffffffffffffffff81111561080057610800611295565b60405190808252806020026020018201604052801561085e57816020015b61084b604051806060016040528060006001600160a01b0316815260200160008152602001600081525090565b81526020019060019003908161081e5790505b50905060005b828160ff1610156109b8576000848260ff1681518110610886576108866118f0565b60200260200101519050600081600001519050604051806060016040528083600001516001600160a01b03168152602001826001600160a01b031663a3673b386040518163ffffffff1660e01b8152600401602060405180830381865afa1580156108f5573d6000803e3d6000fd5b505050506040513d601f19601f820116820180604052508101906109199190611906565b8152602001826001600160a01b0316632576e65a6040518163ffffffff1660e01b8152600401602060405180830381865afa15801561095c573d6000803e3d6000fd5b505050506040513d601f19601f820116820180604052508101906109809190611906565b815250848460ff1681518110610998576109986118f0565b6020026020010181905250505080806109b09061193d565b915050610864565b509392505050565b6000828152606560205260409020600101546109db816109f4565b6103548383610a84565b6001600160a01b03163b151590565b6104748133610dbf565b610a08828261069e565b6103945760008281526065602090815260408083206001600160a01b03851684529091529020805460ff19166001179055610a403390565b6001600160a01b0316816001600160a01b0316837f2f8788117e7eff1d82e926ec794901d17c78024a50270940304540a733656f0d60405160405180910390a45050565b610a8e828261069e565b156103945760008281526065602090815260408083206001600160a01b0385168085529252808320805460ff1916905551339285917ff6391f5c32d9c69d2a47ea670b442974b53935d1edc7fd64eb21e047a839171b9190a45050565b6000610394816109f4565b7f4910fdfa16fed3260ed0e7147f7cc6da11a60208b5b9406d12a635614ffd91435460ff1615610b295761035483610e18565b826001600160a01b03166352d1902d6040518163ffffffff1660e01b8152600401602060405180830381865afa925050508015610b83575060408051601f3d908101601f19168201909252610b8091810190611906565b60015b610b9f5760405162461bcd60e51b8152600401610381906119a5565b600080516020611c7a8339815191528114610bcc5760405162461bcd60e51b8152600401610381906119fb565b50610354838383610e6e565b600054610100900460ff16610bff5760405162461bcd60e51b815260040161038190611a53565b565b60008060009050600060fb60009054906101000a90046001600160a01b03166001600160a01b031663f281d4386040518163ffffffff1660e01b8152600401600060405180830381865afa158015610c5d573d6000803e3d6000fd5b505050506040513d6000823e601f3d908101601f19168201604052610c8591908101906118b5565b905060005b81518160ff161015610db6576000828260ff1681518110610cad57610cad6118f0565b60200260200101516000015190508515610d3457806001600160a01b0316632576e65a6040518163ffffffff1660e01b8152600401602060405180830381865afa158015610cff573d6000803e3d6000fd5b505050506040513d601f19601f82011682018060405250810190610d239190611906565b610d2d9085611a63565b9350610da3565b806001600160a01b031663a3673b386040518163ffffffff1660e01b8152600401602060405180830381865afa158015610d72573d6000803e3d6000fd5b505050506040513d601f19601f82011682018060405250810190610d969190611906565b610da09085611a63565b93505b5080610dae8161193d565b915050610c8a565b50909392505050565b610dc9828261069e565b61039457610dd681610e99565b610de1836020610eab565b604051602001610df2929190611abc565b60408051601f198184030181529082905262461bcd60e51b825261038191600401611b46565b6001600160a01b0381163b610e3f5760405162461bcd60e51b815260040161038190611ba1565b600080516020611c7a83398151915280546001600160a01b0319166001600160a01b0392909216919091179055565b610e778361101e565b600082511180610e845750805b1561035457610e93838361105e565b50505050565b60606103296001600160a01b03831660145b60606000610eba836002611bb1565b610ec5906002611a63565b67ffffffffffffffff811115610edd57610edd611295565b6040519080825280601f01601f191660200182016040528015610f07576020820181803683370190505b509050600360fc1b81600081518110610f2257610f226118f0565b60200101906001600160f81b031916908160001a905350600f60fb1b81600181518110610f5157610f516118f0565b60200101906001600160f81b031916908160001a9053506000610f75846002611bb1565b610f80906001611a63565b90505b6001811115610ff8576f181899199a1a9b1b9c1cb0b131b232b360811b85600f1660108110610fb457610fb46118f0565b1a60f81b828281518110610fca57610fca6118f0565b60200101906001600160f81b031916908160001a90535060049490941c93610ff181611bd0565b9050610f83565b5083156110175760405162461bcd60e51b815260040161038190611c19565b9392505050565b61102781610e18565b6040516001600160a01b038216907fbc7cd75a20ee27fd9adebab32041f755214dbc6bffa90cc0225b39da2e5c2d3b90600090a250565b60606110178383604051806060016040528060278152602001611c9a602791396060600080856001600160a01b03168560405161109b9190611c29565b600060405180830381855af49150503d80600081146110d6576040519150601f19603f3d011682016040523d82523d6000602084013e6110db565b606091505b50915091506110ec868383876110f6565b9695505050505050565b6060831561113557825160000361112e576001600160a01b0385163b61112e5760405162461bcd60e51b815260040161038190611c69565b508161113f565b61113f8383611147565b949350505050565b8151156111575781518083602001fd5b8060405162461bcd60e51b81526004016103819190611b46565b6001600160e01b031981165b811461047457600080fd5b803561032981611171565b6000602082840312156111a8576111a8600080fd5b600061113f8484611188565b8015155b82525050565b6020810161032982846111b4565b8061117d565b8035610329816111cc565b6000602082840312156111f2576111f2600080fd5b600061113f84846111d2565b806111b8565b6020810161032982846111fe565b60006001600160a01b038216610329565b61117d81611212565b803561032981611223565b6000806040838503121561124d5761124d600080fd5b600061125985856111d2565b925050602061126a8582860161122c565b9150509250929050565b60006020828403121561128957611289600080fd5b600061113f848461122c565b634e487b7160e01b600052604160045260246000fd5b601f19601f830116810181811067ffffffffffffffff821117156112d1576112d1611295565b6040525050565b60006112e360405190565b90506112ef82826112ab565b919050565b600067ffffffffffffffff82111561130e5761130e611295565b601f19601f83011660200192915050565b82818337506000910152565b600061133e611339846112f4565b6112d8565b90508281526020810184848401111561135957611359600080fd5b6109b884828561131f565b600082601f83011261137857611378600080fd5b813561113f84826020860161132b565b6000806040838503121561139e5761139e600080fd5b60006113aa858561122c565b925050602083013567ffffffffffffffff8111156113ca576113ca600080fd5b61126a85828601611364565b600061032982611212565b6000610329826113d6565b6111b8816113e1565b6020810161032982846113ec565b6111b881611212565b8051606083019061141d8482611403565b50602082015161143060208501826111fe565b506040820151610e9360408501826111fe565b600061144f838361140c565b505060600190565b6000611461825190565b80845260209384019383018060005b838110156114955781516114848882611443565b975060208301925050600101611470565b509495945050505050565b602080825281016110178184611457565b602f81526000602082017f416363657373436f6e74726f6c3a2063616e206f6e6c792072656e6f756e636581526e103937b632b9903337b91039b2b63360891b602082015291505b5060400190565b60208082528101610329816114b1565b602c81526000602082017f46756e6374696f6e206d7573742062652063616c6c6564207468726f7567682081526b19195b1959d85d1958d85b1b60a21b602082015291506114f9565b6020808252810161032981611510565b602c81526000602082017f46756e6374696f6e206d7573742062652063616c6c6564207468726f7567682081526b6163746976652070726f787960a01b602082015291506114f9565b6020808252810161032981611569565b603881526000602082017f555550535570677261646561626c653a206d757374206e6f742062652063616c81527f6c6564207468726f7567682064656c656761746563616c6c0000000000000000602082015291506114f9565b60208082528101610329816115c2565b602e81526000602082017f496e697469616c697a61626c653a20636f6e747261637420697320616c72656181526d191e481a5b9a5d1a585b1a5e995960921b602082015291506114f9565b602080825281016103298161162c565b600060ff8216610329565b6111b881611687565b602081016103298284611692565b60148152600060208201735265737472696374656420746f2061646d696e7360601b815291505b5060200190565b60208082528101610329816116a9565b601881526000602082017f5a65726f2061646472657373206e6f7420616c6c6f7765640000000000000000815291506116d0565b60208082528101610329816116e7565b602081016103298284611403565b600067ffffffffffffffff82111561175357611753611295565b5060209081020190565b805161032981611223565b8051610329816111cc565b80151561117d565b805161032981611773565b600060e0828403121561179b5761179b600080fd5b6117a560e06112d8565b905060006117b3848461175d565b82525060206117c484848301611768565b60208301525060406117d884828501611768565b60408301525060606117ec84828501611768565b606083015250608061180084828501611768565b60808301525060a06118148482850161177b565b60a08301525060c06118288482850161177b565b60c08301525092915050565b600061184261133984611739565b83815290506020810160e0840283018581111561186157611861600080fd5b835b8181101561188757806118768882611786565b84525060209092019160e001611863565b5050509392505050565b600082601f8301126118a5576118a5600080fd5b815161113f848260208601611834565b6000602082840312156118ca576118ca600080fd5b815167ffffffffffffffff8111156118e4576118e4600080fd5b61113f84828501611891565b634e487b7160e01b600052603260045260246000fd5b60006020828403121561191b5761191b600080fd5b600061113f8484611768565b634e487b7160e01b600052601160045260246000fd5b60ff16600060fe19820161195357611953611927565b5060010190565b602e81526000602082017f45524331393637557067726164653a206e657720696d706c656d656e7461746981526d6f6e206973206e6f74205555505360901b602082015291506114f9565b602080825281016103298161195a565b602981526000602082017f45524331393637557067726164653a20756e737570706f727465642070726f788152681a58589b195555525160ba1b602082015291506114f9565b60208082528101610329816119b5565b602b81526000602082017f496e697469616c697a61626c653a20636f6e7472616374206973206e6f74206981526a6e697469616c697a696e6760a81b602082015291506114f9565b6020808252810161032981611a0b565b8082018082111561032957610329611927565b60005b83811015611a91578181015183820152602001611a79565b50506000910152565b6000611aa4825190565b611ab2818560208601611a76565b9290920192915050565b7f416363657373436f6e74726f6c3a206163636f756e742000000000000000000081526017016000611aee8285611a9a565b7001034b99036b4b9b9b4b733903937b6329607d1b8152601101915061113f8284611a9a565b6000611b1e825190565b808452602084019350611b35818560208601611a76565b601f01601f19169290920192915050565b602080825281016110178184611b14565b602d81526000602082017f455243313936373a206e657720696d706c656d656e746174696f6e206973206e81526c1bdd08184818dbdb9d1c9858dd609a1b602082015291506114f9565b6020808252810161032981611b57565b818102808215838204851417611bc957611bc9611927565b5092915050565b600081611bdf57611bdf611927565b506000190190565b60208082527f537472696e67733a20686578206c656e67746820696e73756666696369656e74910190815260006116d0565b6020808252810161032981611be7565b60006110178284611a9a565b601d81526000602082017f416464726573733a2063616c6c20746f206e6f6e2d636f6e7472616374000000815291506116d0565b6020808252810161032981611c3556fe360894a13ba1a3210667c828492db98dca3e2076cc3735a920a3ca505d382bbc416464726573733a206c6f772d6c6576656c2064656c65676174652063616c6c206661696c6564a2646970667358221220e02350b89611b2c4dae0d8cf1af35bd3822d30a3ebc8a725ca39e56a6f5e2cf864736f6c63430008110033",
  "linkReferences": {},
  "deployedLinkReferences": {}
}