{
  "_format": "hh-sol-artifact-1",
  "contractName": "StrategyWombexUsdtPlus",
  "sourceName": "contracts/strategies/StrategyWombexUsdt+.sol",
  "abi": [
    {
      "inputs": [],
      "stateMutability": "nonpayable",
      "type": "constructor"
    },
    {
      "anonymous": false,
      "inputs": [
        {
          "indexed": false,
          "internalType": "address",
          "name": "previousAdmin",
          "type": "address"
        },
        {
          "indexed": false,
          "internalType": "address",
          "name": "newAdmin",
          "type": "address"
        }
      ],
      "name": "AdminChanged",
      "type": "event"
    },
    {
      "anonymous": false,
      "inputs": [
        {
          "indexed": true,
          "internalType": "address",
          "name": "beacon",
          "type": "address"
        }
      ],
      "name": "BeaconUpgraded",
      "type": "event"
    },
    {
      "anonymous": false,
      "inputs": [
        {
          "indexed": false,
          "internalType": "uint8",
          "name": "version",
          "type": "uint8"
        }
      ],
      "name": "Initialized",
      "type": "event"
    },
    {
      "anonymous": false,
      "inputs": [
        {
          "indexed": false,
          "internalType": "address",
          "name": "value",
          "type": "address"
        }
      ],
      "name": "PortfolioManagerUpdated",
      "type": "event"
    },
    {
      "anonymous": false,
      "inputs": [
        {
          "indexed": false,
          "internalType": "uint256",
          "name": "amount",
          "type": "uint256"
        }
      ],
      "name": "Reward",
      "type": "event"
    },
    {
      "anonymous": false,
      "inputs": [
        {
          "indexed": true,
          "internalType": "bytes32",
          "name": "role",
          "type": "bytes32"
        },
        {
          "indexed": true,
          "internalType": "bytes32",
          "name": "previousAdminRole",
          "type": "bytes32"
        },
        {
          "indexed": true,
          "internalType": "bytes32",
          "name": "newAdminRole",
          "type": "bytes32"
        }
      ],
      "name": "RoleAdminChanged",
      "type": "event"
    },
    {
      "anonymous": false,
      "inputs": [
        {
          "indexed": true,
          "internalType": "bytes32",
          "name": "role",
          "type": "bytes32"
        },
        {
          "indexed": true,
          "internalType": "address",
          "name": "account",
          "type": "address"
        },
        {
          "indexed": true,
          "internalType": "address",
          "name": "sender",
          "type": "address"
        }
      ],
      "name": "RoleGranted",
      "type": "event"
    },
    {
      "anonymous": false,
      "inputs": [
        {
          "indexed": true,
          "internalType": "bytes32",
          "name": "role",
          "type": "bytes32"
        },
        {
          "indexed": true,
          "internalType": "address",
          "name": "account",
          "type": "address"
        },
        {
          "indexed": true,
          "internalType": "address",
          "name": "sender",
          "type": "address"
        }
      ],
      "name": "RoleRevoked",
      "type": "event"
    },
    {
      "anonymous": false,
      "inputs": [
        {
          "indexed": false,
          "internalType": "uint256",
          "name": "swapSlippageBP",
          "type": "uint256"
        },
        {
          "indexed": false,
          "internalType": "uint256",
          "name": "navSlippageBP",
          "type": "uint256"
        },
        {
          "indexed": false,
          "internalType": "uint256",
          "name": "stakeSlippageBP",
          "type": "uint256"
        }
      ],
      "name": "SlippagesUpdated",
      "type": "event"
    },
    {
      "anonymous": false,
      "inputs": [
        {
          "indexed": false,
          "internalType": "uint256",
          "name": "amount",
          "type": "uint256"
        }
      ],
      "name": "Stake",
      "type": "event"
    },
    {
      "anonymous": false,
      "inputs": [],
      "name": "StrategyUpdatedParams",
      "type": "event"
    },
    {
      "anonymous": false,
      "inputs": [
        {
          "indexed": false,
          "internalType": "uint256",
          "name": "amount",
          "type": "uint256"
        },
        {
          "indexed": false,
          "internalType": "uint256",
          "name": "amountReceived",
          "type": "uint256"
        }
      ],
      "name": "Unstake",
      "type": "event"
    },
    {
      "anonymous": false,
      "inputs": [
        {
          "indexed": true,
          "internalType": "address",
          "name": "implementation",
          "type": "address"
        }
      ],
      "name": "Upgraded",
      "type": "event"
    },
    {
      "inputs": [],
      "name": "DEFAULT_ADMIN_ROLE",
      "outputs": [
        {
          "internalType": "bytes32",
          "name": "",
          "type": "bytes32"
        }
      ],
      "stateMutability": "view",
      "type": "function"
    },
    {
      "inputs": [],
      "name": "PORTFOLIO_AGENT_ROLE",
      "outputs": [
        {
          "internalType": "bytes32",
          "name": "",
          "type": "bytes32"
        }
      ],
      "stateMutability": "view",
      "type": "function"
    },
    {
      "inputs": [],
      "name": "PORTFOLIO_MANAGER",
      "outputs": [
        {
          "internalType": "bytes32",
          "name": "",
          "type": "bytes32"
        }
      ],
      "stateMutability": "view",
      "type": "function"
    },
    {
      "inputs": [
        {
          "internalType": "address",
          "name": "_to",
          "type": "address"
        }
      ],
      "name": "claimRewards",
      "outputs": [
        {
          "internalType": "uint256",
          "name": "",
          "type": "uint256"
        }
      ],
      "stateMutability": "nonpayable",
      "type": "function"
    },
    {
      "inputs": [
        {
          "internalType": "bytes32",
          "name": "role",
          "type": "bytes32"
        }
      ],
      "name": "getRoleAdmin",
      "outputs": [
        {
          "internalType": "bytes32",
          "name": "",
          "type": "bytes32"
        }
      ],
      "stateMutability": "view",
      "type": "function"
    },
    {
      "inputs": [
        {
          "internalType": "bytes32",
          "name": "role",
          "type": "bytes32"
        },
        {
          "internalType": "address",
          "name": "account",
          "type": "address"
        }
      ],
      "name": "grantRole",
      "outputs": [],
      "stateMutability": "nonpayable",
      "type": "function"
    },
    {
      "inputs": [
        {
          "internalType": "bytes32",
          "name": "role",
          "type": "bytes32"
        },
        {
          "internalType": "address",
          "name": "account",
          "type": "address"
        }
      ],
      "name": "hasRole",
      "outputs": [
        {
          "internalType": "bool",
          "name": "",
          "type": "bool"
        }
      ],
      "stateMutability": "view",
      "type": "function"
    },
    {
      "inputs": [],
      "name": "initialize",
      "outputs": [],
      "stateMutability": "nonpayable",
      "type": "function"
    },
    {
      "inputs": [],
      "name": "liquidationValue",
      "outputs": [
        {
          "internalType": "uint256",
          "name": "",
          "type": "uint256"
        }
      ],
      "stateMutability": "view",
      "type": "function"
    },
    {
      "inputs": [],
      "name": "lpUsdtDm",
      "outputs": [
        {
          "internalType": "uint256",
          "name": "",
          "type": "uint256"
        }
      ],
      "stateMutability": "view",
      "type": "function"
    },
    {
      "inputs": [],
      "name": "lpUsdtPlus",
      "outputs": [
        {
          "internalType": "contract IWombatAsset",
          "name": "",
          "type": "address"
        }
      ],
      "stateMutability": "view",
      "type": "function"
    },
    {
      "inputs": [],
      "name": "lpUsdtPlusDm",
      "outputs": [
        {
          "internalType": "uint256",
          "name": "",
          "type": "uint256"
        }
      ],
      "stateMutability": "view",
      "type": "function"
    },
    {
      "inputs": [],
      "name": "name",
      "outputs": [
        {
          "internalType": "string",
          "name": "",
          "type": "string"
        }
      ],
      "stateMutability": "view",
      "type": "function"
    },
    {
      "inputs": [],
      "name": "navSlippageBP",
      "outputs": [
        {
          "internalType": "uint256",
          "name": "",
          "type": "uint256"
        }
      ],
      "stateMutability": "view",
      "type": "function"
    },
    {
      "inputs": [],
      "name": "netAssetValue",
      "outputs": [
        {
          "internalType": "uint256",
          "name": "",
          "type": "uint256"
        }
      ],
      "stateMutability": "view",
      "type": "function"
    },
    {
      "inputs": [],
      "name": "oracleUsdt",
      "outputs": [
        {
          "internalType": "contract IPriceFeed",
          "name": "",
          "type": "address"
        }
      ],
      "stateMutability": "view",
      "type": "function"
    },
    {
      "inputs": [],
      "name": "pancakeRouter",
      "outputs": [
        {
          "internalType": "contract IPancakeRouter02",
          "name": "",
          "type": "address"
        }
      ],
      "stateMutability": "view",
      "type": "function"
    },
    {
      "inputs": [],
      "name": "pool",
      "outputs": [
        {
          "internalType": "address",
          "name": "",
          "type": "address"
        }
      ],
      "stateMutability": "view",
      "type": "function"
    },
    {
      "inputs": [],
      "name": "poolDepositor",
      "outputs": [
        {
          "internalType": "contract IWombexPoolDepositor",
          "name": "",
          "type": "address"
        }
      ],
      "stateMutability": "view",
      "type": "function"
    },
    {
      "inputs": [],
      "name": "portfolioManager",
      "outputs": [
        {
          "internalType": "address",
          "name": "",
          "type": "address"
        }
      ],
      "stateMutability": "view",
      "type": "function"
    },
    {
      "inputs": [],
      "name": "proxiableUUID",
      "outputs": [
        {
          "internalType": "bytes32",
          "name": "",
          "type": "bytes32"
        }
      ],
      "stateMutability": "view",
      "type": "function"
    },
    {
      "inputs": [
        {
          "internalType": "bytes32",
          "name": "role",
          "type": "bytes32"
        },
        {
          "internalType": "address",
          "name": "account",
          "type": "address"
        }
      ],
      "name": "renounceRole",
      "outputs": [],
      "stateMutability": "nonpayable",
      "type": "function"
    },
    {
      "inputs": [
        {
          "internalType": "bytes32",
          "name": "role",
          "type": "bytes32"
        },
        {
          "internalType": "address",
          "name": "account",
          "type": "address"
        }
      ],
      "name": "revokeRole",
      "outputs": [],
      "stateMutability": "nonpayable",
      "type": "function"
    },
    {
      "inputs": [
        {
          "components": [
            {
              "internalType": "address",
              "name": "usdtPlus",
              "type": "address"
            },
            {
              "internalType": "address",
              "name": "usdt",
              "type": "address"
            },
            {
              "internalType": "address",
              "name": "usdc",
              "type": "address"
            },
            {
              "internalType": "address",
              "name": "wom",
              "type": "address"
            },
            {
              "internalType": "address",
              "name": "wmx",
              "type": "address"
            },
            {
              "internalType": "address",
              "name": "lpUsdtPlus",
              "type": "address"
            },
            {
              "internalType": "address",
              "name": "wmxLpUsdtPlus",
              "type": "address"
            },
            {
              "internalType": "address",
              "name": "poolDepositor",
              "type": "address"
            },
            {
              "internalType": "address",
              "name": "pool",
              "type": "address"
            },
            {
              "internalType": "address",
              "name": "pancakeRouter",
              "type": "address"
            },
            {
              "internalType": "address",
              "name": "wombatRouter",
              "type": "address"
            },
            {
              "internalType": "address",
              "name": "oracleUsdt",
              "type": "address"
            },
            {
              "internalType": "string",
              "name": "name",
              "type": "string"
            }
          ],
          "internalType": "struct StrategyWombexUsdtPlus.StrategyParams",
          "name": "params",
          "type": "tuple"
        }
      ],
      "name": "setParams",
      "outputs": [],
      "stateMutability": "nonpayable",
      "type": "function"
    },
    {
      "inputs": [
        {
          "internalType": "address",
          "name": "_value",
          "type": "address"
        }
      ],
      "name": "setPortfolioManager",
      "outputs": [],
      "stateMutability": "nonpayable",
      "type": "function"
    },
    {
      "inputs": [
        {
          "internalType": "uint256",
          "name": "_swapSlippageBP",
          "type": "uint256"
        },
        {
          "internalType": "uint256",
          "name": "_navSlippageBP",
          "type": "uint256"
        },
        {
          "internalType": "uint256",
          "name": "_stakeSlippageBP",
          "type": "uint256"
        }
      ],
      "name": "setSlippages",
      "outputs": [],
      "stateMutability": "nonpayable",
      "type": "function"
    },
    {
      "inputs": [
        {
          "internalType": "address",
          "name": "_asset",
          "type": "address"
        },
        {
          "internalType": "uint256",
          "name": "_amount",
          "type": "uint256"
        }
      ],
      "name": "stake",
      "outputs": [],
      "stateMutability": "nonpayable",
      "type": "function"
    },
    {
      "inputs": [],
      "name": "stakeSlippageBP",
      "outputs": [
        {
          "internalType": "uint256",
          "name": "",
          "type": "uint256"
        }
      ],
      "stateMutability": "view",
      "type": "function"
    },
    {
      "inputs": [
        {
          "internalType": "bytes4",
          "name": "interfaceId",
          "type": "bytes4"
        }
      ],
      "name": "supportsInterface",
      "outputs": [
        {
          "internalType": "bool",
          "name": "",
          "type": "bool"
        }
      ],
      "stateMutability": "view",
      "type": "function"
    },
    {
      "inputs": [],
      "name": "swapSlippageBP",
      "outputs": [
        {
          "internalType": "uint256",
          "name": "",
          "type": "uint256"
        }
      ],
      "stateMutability": "view",
      "type": "function"
    },
    {
      "inputs": [
        {
          "internalType": "address",
          "name": "_asset",
          "type": "address"
        },
        {
          "internalType": "uint256",
          "name": "_amount",
          "type": "uint256"
        },
        {
          "internalType": "address",
          "name": "_beneficiary",
          "type": "address"
        },
        {
          "internalType": "bool",
          "name": "_targetIsZero",
          "type": "bool"
        }
      ],
      "name": "unstake",
      "outputs": [
        {
          "internalType": "uint256",
          "name": "",
          "type": "uint256"
        }
      ],
      "stateMutability": "nonpayable",
      "type": "function"
    },
    {
      "inputs": [
        {
          "internalType": "address",
          "name": "newImplementation",
          "type": "address"
        }
      ],
      "name": "upgradeTo",
      "outputs": [],
      "stateMutability": "nonpayable",
      "type": "function"
    },
    {
      "inputs": [
        {
          "internalType": "address",
          "name": "newImplementation",
          "type": "address"
        },
        {
          "internalType": "bytes",
          "name": "data",
          "type": "bytes"
        }
      ],
      "name": "upgradeToAndCall",
      "outputs": [],
      "stateMutability": "payable",
      "type": "function"
    },
    {
      "inputs": [],
      "name": "usdc",
      "outputs": [
        {
          "internalType": "contract IERC20",
          "name": "",
          "type": "address"
        }
      ],
      "stateMutability": "view",
      "type": "function"
    },
    {
      "inputs": [],
      "name": "usdt",
      "outputs": [
        {
          "internalType": "contract IERC20",
          "name": "",
          "type": "address"
        }
      ],
      "stateMutability": "view",
      "type": "function"
    },
    {
      "inputs": [],
      "name": "usdtDm",
      "outputs": [
        {
          "internalType": "uint256",
          "name": "",
          "type": "uint256"
        }
      ],
      "stateMutability": "view",
      "type": "function"
    },
    {
      "inputs": [],
      "name": "usdtPlus",
      "outputs": [
        {
          "internalType": "contract IERC20",
          "name": "",
          "type": "address"
        }
      ],
      "stateMutability": "view",
      "type": "function"
    },
    {
      "inputs": [],
      "name": "usdtPlusDm",
      "outputs": [
        {
          "internalType": "uint256",
          "name": "",
          "type": "uint256"
        }
      ],
      "stateMutability": "view",
      "type": "function"
    },
    {
      "inputs": [],
      "name": "wmx",
      "outputs": [
        {
          "internalType": "contract IERC20",
          "name": "",
          "type": "address"
        }
      ],
      "stateMutability": "view",
      "type": "function"
    },
    {
      "inputs": [],
      "name": "wmxLpUsdtPlus",
      "outputs": [
        {
          "internalType": "contract IWombexBaseRewardPool",
          "name": "",
          "type": "address"
        }
      ],
      "stateMutability": "view",
      "type": "function"
    },
    {
      "inputs": [],
      "name": "wom",
      "outputs": [
        {
          "internalType": "contract IERC20",
          "name": "",
          "type": "address"
        }
      ],
      "stateMutability": "view",
      "type": "function"
    },
    {
      "inputs": [],
      "name": "wombatRouter",
      "outputs": [
        {
          "internalType": "contract IWombatRouter",
          "name": "",
          "type": "address"
        }
      ],
      "stateMutability": "view",
      "type": "function"
    }
  ],
  "bytecode": "0x60a0604052306080523480156200001557600080fd5b50600054610100900460ff1615808015620000375750600054600160ff909116105b8062000067575062000054306200010860201b620015cf1760201c565b15801562000067575060005460ff166001145b6200008f5760405162461bcd60e51b8152600401620000869062000117565b60405180910390fd5b6000805460ff191660011790558015620000b3576000805461ff0019166101001790555b801562000101576000805461ff00191690556040517f7f26b83ff96e1f2b6a682f133852f6798a09c465da95921460cefb384740249890620000f8906001906200018d565b60405180910390a15b506200019d565b6001600160a01b03163b151590565b602080825281016200016a81602e81527f496e697469616c697a61626c653a20636f6e747261637420697320616c72656160208201526d191e481a5b9a5d1a585b1a5e995960921b604082015260600190565b92915050565b600060ff82166200016a565b620001878162000170565b82525050565b602081016200016a82846200017c565b608051615228620001d560003960008181610d0d01528181610d4d01528181610dec01528181610e2c0152610ebb01526152286000f3fe6080604052600436106102515760003560e01c8063620b75df11610139578063af8d9ca8116100b6578063c21ebd071161007a578063c21ebd07146106c0578063c5a6222e146106e1578063cc6522c314610702578063d547741f14610723578063ef5cfb8c14610743578063f6f6b8811461076357600080fd5b8063af8d9ca814610630578063b498ffd414610647578063b7b5b1d414610668578063bd25c6db14610689578063bf52e080146106aa57600080fd5b8063a217fddf116100fd578063a217fddf146105a6578063a3673b38146105bb578063a440b21a146105d0578063adc9772e146105f0578063ae30c1101461061057600080fd5b8063620b75df1461050e5780637d5f58021461052e5780637eb21846146105505780638129fc1c1461057157806391d148541461058657600080fd5b80632f48ab7d116101d25780634f1ef286116101965780634f1ef2861461046457806350c438f71461047757806352d1902d1461048e5780635ca558f8146104a35780635dbd733a146104b9578063612c87df146104ed57600080fd5b80632f48ab7d146103cb57806334df87e7146103ec57806336568abe146104035780633659cfe6146104235780633e413bee1461044357600080fd5b806316f0115b1161021957806316f0115b146103165780631d29739914610344578063248a9ca3146103665780632576e65a146103965780632f2ff15d146103ab57600080fd5b806301ffc9a71461025657806306fdde031461028c578063083975d4146102ae5780630f9033f7146102dc578063119cd87914610300575b600080fd5b34801561026257600080fd5b50610276610271366004613e02565b610783565b6040516102839190613e2d565b60405180910390f35b34801561029857600080fd5b506102a16107ba565b6040516102839190613e91565b3480156102ba57600080fd5b50610131546102cf906001600160a01b031681565b6040516102839190613ee4565b3480156102e857600080fd5b506102f361013a5481565b6040516102839190613ef8565b34801561030c57600080fd5b506102f360fd5481565b34801561032257600080fd5b5061013554610337906001600160a01b031681565b6040516102839190613f20565b34801561035057600080fd5b5061036461035f366004613f4a565b610849565b005b34801561037257600080fd5b506102f3610381366004613f96565b60009081526065602052604090206001015490565b3480156103a257600080fd5b506102f3610c92565b3480156103b757600080fd5b506103646103c6366004613fcb565b610ca3565b3480156103d757600080fd5b5061012d546102cf906001600160a01b031681565b3480156103f857600080fd5b506102f36101375481565b34801561040f57600080fd5b5061036461041e366004613fcb565b610ccd565b34801561042f57600080fd5b5061036461043e366004614008565b610d03565b34801561044f57600080fd5b5061012e546102cf906001600160a01b031681565b61036461047236600461411f565b610de2565b34801561048357600080fd5b506102f361013b5481565b34801561049a57600080fd5b506102f3610eae565b3480156104af57600080fd5b506102f360fe5481565b3480156104c557600080fd5b506102f37fd67ad422505496469a1adf6cdf9e5ee92ac5d33992843c9ecc4b2f6d6cde913781565b3480156104f957600080fd5b50610138546102cf906001600160a01b031681565b34801561051a57600080fd5b5060fb54610337906001600160a01b031681565b34801561053a57600080fd5b506102f360008051602061513c83398151915281565b34801561055c57600080fd5b50610132546102cf906001600160a01b031681565b34801561057d57600080fd5b50610364610f0b565b34801561059257600080fd5b506102766105a1366004613fcb565b610fd9565b3480156105b257600080fd5b506102f3600081565b3480156105c757600080fd5b506102f3611004565b3480156105dc57600080fd5b506103646105eb366004614008565b611010565b3480156105fc57600080fd5b5061036461060b36600461416d565b6110e5565b34801561061c57600080fd5b5061036461062b3660046141a0565b61123c565b34801561063c57600080fd5b506102f361013c5481565b34801561065357600080fd5b50610133546102cf906001600160a01b031681565b34801561067457600080fd5b5061012f546102cf906001600160a01b031681565b34801561069557600080fd5b50610134546102cf906001600160a01b031681565b3480156106b657600080fd5b506102f360fc5481565b3480156106cc57600080fd5b50610136546102cf906001600160a01b031681565b3480156106ed57600080fd5b50610130546102cf906001600160a01b031681565b34801561070e57600080fd5b50610139546102cf906001600160a01b031681565b34801561072f57600080fd5b5061036461073e366004613fcb565b61135e565b34801561074f57600080fd5b506102f361075e366004614008565b611383565b34801561076f57600080fd5b506102f361077e366004614203565b61140c565b60006001600160e01b03198216637965db0b60e01b14806107b457506301ffc9a760e01b6001600160e01b03198316145b92915050565b61013d80546107c89061427d565b80601f01602080910402602001604051908101604052809291908181526020018280546107f49061427d565b80156108415780601f1061081657610100808354040283529160200191610841565b820191906000526020600020905b81548152906001019060200180831161082457829003601f168201915b505050505081565b610854600033610fd9565b6108795760405162461bcd60e51b8152600401610870906142d1565b60405180910390fd5b6108896040820160208301614008565b61012d80546001600160a01b0319166001600160a01b03929092169190911790556108ba6060820160408301614008565b61012e80546001600160a01b0319166001600160a01b03929092169190911790556108e86020820182614008565b61012f80546001600160a01b0319166001600160a01b03929092169190911790556109196080820160608301614008565b61013080546001600160a01b0319166001600160a01b039290921691909117905561094a60a0820160808301614008565b61013180546001600160a01b0319166001600160a01b039290921691909117905561097b60c0820160a08301614008565b61013280546001600160a01b0319166001600160a01b03929092169190911790556109ac60e0820160c08301614008565b61013380546001600160a01b0319166001600160a01b03929092169190911790556109de610100820160e08301614008565b61013480546001600160a01b0319166001600160a01b0392909216919091179055610a1161012082016101008301614008565b61013580546001600160a01b0319166001600160a01b0392909216919091179055610a4461014082016101208301614008565b61013680546001600160a01b0319166001600160a01b0392909216919091179055610a7761016082016101408301614008565b61013880546001600160a01b0319166001600160a01b0392909216919091179055610aaa61018082016101608301614008565b61013980546001600160a01b0319166001600160a01b0392909216919091179055610ad86020820182614008565b6001600160a01b031663313ce5676040518163ffffffff1660e01b8152600401602060405180830381865afa158015610b15573d6000803e3d6000fd5b505050506040513d601f19601f82011682018060405250810190610b3991906142f5565b610b4490600a61443a565b61013a55610b586040820160208301614008565b6001600160a01b031663313ce5676040518163ffffffff1660e01b8152600401602060405180830381865afa158015610b95573d6000803e3d6000fd5b505050506040513d601f19601f82011682018060405250810190610bb991906142f5565b610bc490600a61443a565b61013b55610bd860c0820160a08301614008565b6001600160a01b031663313ce5676040518163ffffffff1660e01b8152600401602060405180830381865afa158015610c15573d6000803e3d6000fd5b505050506040513d601f19601f82011682018060405250810190610c3991906142f5565b610c4490600a61443a565b61013c55610c5661018082018261444f565b61013d91610c6591908361454b565b506040517fea5646eb3528e525944447a4a97de700dd472298626e5c0481d1c82c3da86ea590600090a150565b6000610c9e60006115de565b905090565b600082815260656020526040902060010154610cbe8161198d565b610cc88383611997565b505050565b6001600160a01b0381163314610cf55760405162461bcd60e51b81526004016108709061465e565b610cff8282611a1d565b5050565b6001600160a01b037f0000000000000000000000000000000000000000000000000000000000000000163003610d4b5760405162461bcd60e51b8152600401610870906146b7565b7f00000000000000000000000000000000000000000000000000000000000000006001600160a01b0316610d9460008051602061515c833981519152546001600160a01b031690565b6001600160a01b031614610dba5760405162461bcd60e51b815260040161087090614710565b610dc381611a84565b60408051600080825260208201909252610ddf91839190611a8f565b50565b6001600160a01b037f0000000000000000000000000000000000000000000000000000000000000000163003610e2a5760405162461bcd60e51b8152600401610870906146b7565b7f00000000000000000000000000000000000000000000000000000000000000006001600160a01b0316610e7360008051602061515c833981519152546001600160a01b031690565b6001600160a01b031614610e995760405162461bcd60e51b815260040161087090614710565b610ea282611a84565b610cff82826001611a8f565b6000306001600160a01b037f00000000000000000000000000000000000000000000000000000000000000001614610ef85760405162461bcd60e51b81526004016108709061477a565b5060008051602061515c83398151915290565b600054610100900460ff1615808015610f2b5750600054600160ff909116105b80610f455750303b158015610f45575060005460ff166001145b610f615760405162461bcd60e51b8152600401610870906147d5565b6000805460ff191660011790558015610f84576000805461ff0019166101001790555b610f8c611b71565b8015610ddf576000805461ff00191690556040517f7f26b83ff96e1f2b6a682f133852f6798a09c465da95921460cefb384740249890610fce906001906147f9565b60405180910390a150565b60009182526065602090815260408084206001600160a01b0393909316845291905290205460ff1690565b6000610c9e60016115de565b61101b600033610fd9565b6110375760405162461bcd60e51b8152600401610870906142d1565b6001600160a01b03811661105d5760405162461bcd60e51b81526004016108709061483b565b60fb546110829060008051602061513c833981519152906001600160a01b031661135e565b61109a60008051602061513c83398151915282610ca3565b60fb80546001600160a01b0319166001600160a01b0383161790556040517ff7b449fcd5cfb7379dcd34cb69428dd9f882033b15be33d83b42d91daa28eeb790610fce908390613f20565b6110fd60008051602061513c83398151915233610fd9565b6111195760405162461bcd60e51b81526004016108709061487f565b6000611188306001600160a01b031663a3673b386040518163ffffffff1660e01b8152600401602060405180830381865afa15801561115c573d6000803e3d6000fd5b505050506040513d601f19601f82011682018060405250810190611180919061489a565b60fd54611c56565b905061120083846001600160a01b03166370a08231306040518263ffffffff1660e01b81526004016111ba9190613f20565b602060405180830381865afa1580156111d7573d6000803e3d6000fd5b505050506040513d601f19601f820116820180604052508101906111fb919061489a565b611c80565b7f227a473b70d2f893cc7659219575c030a63b5743024fe1e0c1a680e708b1525a8260405161122f9190613ef8565b60405180910390a1505050565b6112667fd67ad422505496469a1adf6cdf9e5ee92ac5d33992843c9ecc4b2f6d6cde913733610fd9565b806112ff575060fb54604051632474521560e21b81526001600160a01b03909116906391d14854906112be907fd67ad422505496469a1adf6cdf9e5ee92ac5d33992843c9ecc4b2f6d6cde91379033906004016148bb565b602060405180830381865afa1580156112db573d6000803e3d6000fd5b505050506040513d601f19601f820116820180604052508101906112ff91906148e1565b61131b5760405162461bcd60e51b815260040161087090614941565b60fc83905560fd82905560fe8190556040517f116fbf1e97a2be629ad98abfb6c332733c8996c2dfb174dd2efe8440df381d1a9061122f90859085908590614951565b6000828152606560205260409020600101546113798161198d565b610cc88383611a1d565b600061139d60008051602061513c83398151915233610fd9565b6113b95760405162461bcd60e51b81526004016108709061487f565b60006113c4836122b4565b90508015611404577f3ac0594a85a20354f9dc74f33728416d19ce00d04a406c108cc2dcf2cecea134816040516113fb9190613ef8565b60405180910390a15b90505b919050565b600061142660008051602061513c83398151915233610fd9565b6114425760405162461bcd60e51b81526004016108709061487f565b6000611485306001600160a01b031663a3673b386040518163ffffffff1660e01b8152600401602060405180830381865afa15801561115c573d6000803e3d6000fd5b905060008084156114ac57611499866122b4565b90506114a5888761263f565b91506114d9565b6114b7888888612bd8565b9150868210156114d95760405162461bcd60e51b8152600401610870906149bf565b60405163a9059cbb60e01b81526001600160a01b0389169063a9059cbb9061150790899086906004016149cf565b6020604051808303816000875af1158015611526573d6000803e3d6000fd5b505050506040513d601f19601f8201168201806040525081019061154a91906148e1565b507f9045c2ac9b2026de8075f2701bbdde882cd5e830b3b1ead9a15b22f2b5b93742878360405161157c9291906149ea565b60405180910390a180156115c2577f3ac0594a85a20354f9dc74f33728416d19ce00d04a406c108cc2dcf2cecea134816040516115b99190613ef8565b60405180910390a15b509150505b949350505050565b6001600160a01b03163b151590565b61012d546040516370a0823160e01b815260009182916001600160a01b03909116906370a0823190611614903090600401613f20565b602060405180830381865afa158015611631573d6000803e3d6000fd5b505050506040513d601f19601f82011682018060405250810190611655919061489a565b61012f546040516370a0823160e01b81529192506000916001600160a01b03909116906370a082319061168c903090600401613f20565b602060405180830381865afa1580156116a9573d6000803e3d6000fd5b505050506040513d601f19601f820116820180604052508101906116cd919061489a565b604080516003808252608082019092529192506000919060208201606080368337505061012d5482519293506001600160a01b031691839150600090611715576117156149f8565b6001600160a01b03928316602091820292909201015261012e54825191169082906001908110611747576117476149f8565b6001600160a01b03928316602091820292909201015261012f54825191169082906002908110611779576117796149f8565b6001600160a01b0392909216602092830291909101820152604080516002808252606082018352600093919290918301908036833750506101355482519293506001600160a01b0316918391506000906117d5576117d56149f8565b60200260200101906001600160a01b031690816001600160a01b031681525050739498563e47d7cfdfa22b818bb8112781036c201c8160018151811061181d5761181d6149f8565b6001600160a01b039283166020918202929092010152610133546040516370a0823160e01b815260009291909116906370a0823190611860903090600401613f20565b602060405180830381865afa15801561187d573d6000803e3d6000fd5b505050506040513d601f19601f820116820180604052508101906118a1919061489a565b9050801561193657610134546101325460405163135dbd1360e01b81526000926001600160a01b039081169263135dbd13926118e5929091169086906004016149cf565b6040805180830381865afa158015611901573d6000803e3d6000fd5b505050506040513d601f19601f820116820180604052508101906119259190614a0e565b5090506119328186614a41565b9450505b831561198257861561195c5761194b84613214565b6119559086614a41565b9450611982565b61013854611975906001600160a01b0316848487613320565b61197f9086614a41565b94505b509295945050505050565b610ddf8133613398565b6119a18282610fd9565b610cff5760008281526065602090815260408083206001600160a01b03851684529091529020805460ff191660011790556119d93390565b6001600160a01b0316816001600160a01b0316837f2f8788117e7eff1d82e926ec794901d17c78024a50270940304540a733656f0d60405160405180910390a45050565b611a278282610fd9565b15610cff5760008281526065602090815260408083206001600160a01b0385168085529252808320805460ff1916905551339285917ff6391f5c32d9c69d2a47ea670b442974b53935d1edc7fd64eb21e047a839171b9190a45050565b6000610cff8161198d565b7f4910fdfa16fed3260ed0e7147f7cc6da11a60208b5b9406d12a635614ffd91435460ff1615611ac257610cc8836133f1565b826001600160a01b03166352d1902d6040518163ffffffff1660e01b8152600401602060405180830381865afa925050508015611b1c575060408051601f3d908101601f19168201909252611b199181019061489a565b60015b611b385760405162461bcd60e51b815260040161087090614a9f565b60008051602061515c8339815191528114611b655760405162461bcd60e51b815260040161087090614af5565b50610cc8838383613447565b600054610100900460ff1615808015611b915750600054600160ff909116105b80611bab5750303b158015611bab575060005460ff166001145b611bc75760405162461bcd60e51b8152600401610870906147d5565b6000805460ff191660011790558015611bea576000805461ff0019166101001790555b611bf2613472565b611bfa613472565b611c05600033611997565b601960fc55602360fd55600460fe558015610ddf576000805461ff00191690556040517f7f26b83ff96e1f2b6a682f133852f6798a09c465da95921460cefb384740249890610fce906001906147f9565b6000612710611c658382614b05565b611c6f9085614b18565b611c799190614b4d565b9392505050565b61012d546001600160a01b03838116911614611cae5760405162461bcd60e51b815260040161087090614b95565b61012d546040516370a0823160e01b81526000916001600160a01b0316906370a0823190611ce0903090600401613f20565b602060405180830381865afa158015611cfd573d6000803e3d6000fd5b505050506040513d601f19601f82011682018060405250810190611d21919061489a565b6040805180820190915260198152787377617070696e672025732066726f6d20257320746f20257360381b602082015261012d5461012f54929350611d749284916001600160a01b03908116911661349b565b6040805160038082526080820190925260009160208201606080368337505061012d5482519293506001600160a01b031691839150600090611db857611db86149f8565b6001600160a01b03928316602091820292909201015261012e54825191169082906001908110611dea57611dea6149f8565b6001600160a01b03928316602091820292909201015261012f54825191169082906002908110611e1c57611e1c6149f8565b6001600160a01b0392909216602092830291909101820152604080516002808252606082018352600093919290918301908036833750506101355482519293506001600160a01b031691839150600090611e7857611e786149f8565b60200260200101906001600160a01b031690816001600160a01b031681525050739498563e47d7cfdfa22b818bb8112781036c201c81600181518110611ec057611ec06149f8565b6001600160a01b03928316602091820292909201015261013854600091611eea9116848487613320565b9050611f2b6040518060400160405280601981526020017f2a2a75736474506c75732042616c616e6365206f757420257300000000000000815250826134e4565b8015611fad5760408051808201909152601e81527f776f6d62617420526f757465723a202573207472616e736665723a2025730000602082015261013854611f7d91906001600160a01b031683613529565b61013854611fab906001600160a01b0316848487611fa5611f9d82613570565b60fc54611c56565b3061367c565b505b611fdf604051806040016040528060118152602001705377617070656420666f7220555344542b60781b815250613790565b61012f546040516370a0823160e01b81526000916001600160a01b0316906370a0823190612011903090600401613f20565b602060405180830381865afa15801561202e573d6000803e3d6000fd5b505050506040513d601f19601f82011682018060405250810190612052919061489a565b90506120826040518060400160405280600c81526020016b55534454506c75733a20257360a01b815250826134e4565b6101345461013254604051630650739d60e41b81526000926001600160a01b039081169263650739d0926120be929091169086906004016149cf565b6040805180830381865afa1580156120da573d6000803e3d6000fd5b505050506040513d601f19601f820116820180604052508101906120fe9190614a0e565b509050600061210f8260fe54611c56565b90506121506040518060400160405280601981526020017f67657474696e67204c5020616d6f756e74206d696e3a20257300000000000000815250826134e4565b61012f546101345460405163095ea7b360e01b81526001600160a01b039283169263095ea7b3926121889291169087906004016149cf565b6020604051808303816000875af11580156121a7573d6000803e3d6000fd5b505050506040513d601f19601f820116820180604052508101906121cb91906148e1565b506121fc6040518060600160405280602b815260200161517c602b9139610132546001600160a01b031685846137d3565b6101345461013254604051633f90794960e21b81526001600160a01b039283169263fe41e524926122399291169087908690600190600401614ba5565b600060405180830381600087803b15801561225357600080fd5b505af1158015612267573d6000803e3d6000fd5b505050506122a96040518060400160405280601981526020017f7374616b656420616e642066696e697368656420757364742b00000000000000815250613790565b505050505050505050565b610133546040516370a0823160e01b815260009182916001600160a01b03909116906370a08231906122ea903090600401613f20565b602060405180830381865afa158015612307573d6000803e3d6000fd5b505050506040513d601f19601f8201168201806040525081019061232b919061489a565b905080156123ac5761013354604051637050ccd960e01b81526001600160a01b0390911690637050ccd990612367903090600090600401614be3565b6020604051808303816000875af1158015612386573d6000803e3d6000fd5b505050506040513d601f19601f820116820180604052508101906123aa91906148e1565b505b610130546040516370a0823160e01b8152600091829182916001600160a01b0316906370a08231906123e2903090600401613f20565b602060405180830381865afa1580156123ff573d6000803e3d6000fd5b505050506040513d601f19601f82011682018060405250810190612423919061489a565b905080156124aa57610136546101305461012d54600092612455926001600160a01b039182169290821691168561381c565b905080156124a857610136546101305461012d5461249b926001600160a01b03908116928116911685606461248b876063614b18565b6124959190614b4d565b30613936565b6124a59085614a41565b93505b505b610131546040516370a0823160e01b81526000916001600160a01b0316906370a08231906124dc903090600401613f20565b602060405180830381865afa1580156124f9573d6000803e3d6000fd5b505050506040513d601f19601f8201168201806040525081019061251d919061489a565b9050801561259457610136546101315461012d5460009261254f926001600160a01b039182169290821691168561381c565b9050801561259257610136546101315461012d54612585926001600160a01b03908116928116911685606461248b876063614b18565b61258f9086614a41565b94505b505b83156126125761012d5460405163a9059cbb60e01b81526001600160a01b039091169063a9059cbb906125cd908a9088906004016149cf565b6020604051808303816000875af11580156125ec573d6000803e3d6000fd5b505050506040513d601f19601f8201168201806040525081019061261091906148e1565b505b6126346040518060600160405280602581526020016151ce60259139856134e4565b509195945050505050565b61012d546000906001600160a01b038481169116146126705760405162461bcd60e51b815260040161087090614b95565b6126ae6040518060400160405280601b81526020017f756e7374616b696e6720776f6d62657874757364742b2066756c6c0000000000815250613790565b6040805160038082526080820190925260009160208201606080368337505061012f5482519293506001600160a01b0316918391506000906126f2576126f26149f8565b60200260200101906001600160a01b031690816001600160a01b031681525050730782b6d8c4551b9760e74c0545a9bcd90bdc41e58160018151811061273a5761273a6149f8565b6001600160a01b03928316602091820292909201015261012d5482519116908290600290811061276c5761276c6149f8565b6001600160a01b03929092166020928302919091018201526040805160028082526060820183526000939192909183019080368337019050509050739498563e47d7cfdfa22b818bb8112781036c201c816000815181106127cf576127cf6149f8565b60200260200101906001600160a01b031690816001600160a01b03168152505073a61dccc6c6e34c8fbf14527386ca35589e9b8c2781600181518110612817576128176149f8565b6001600160a01b039283166020918202929092010152610133546040516370a0823160e01b815260009291909116906370a082319061285a903090600401613f20565b602060405180830381865afa158015612877573d6000803e3d6000fd5b505050506040513d601f19601f8201168201806040525081019061289b919061489a565b9050806000036129215761012f546040516370a0823160e01b81526001600160a01b03909116906370a08231906128d6903090600401613f20565b602060405180830381865afa1580156128f3573d6000803e3d6000fd5b505050506040513d601f19601f82011682018060405250810190612917919061489a565b93505050506107b4565b610134546101325460405163135dbd1360e01b81526000926001600160a01b039081169263135dbd139261295d929091169086906004016149cf565b6040805180830381865afa158015612979573d6000803e3d6000fd5b505050506040513d601f19601f8201168201806040525081019061299d9190614a0e565b50905060006129ae8260fe54611c56565b610133546101345460405163095ea7b360e01b81529293506001600160a01b039182169263095ea7b3926129e892169087906004016149cf565b6020604051808303816000875af1158015612a07573d6000803e3d6000fd5b505050506040513d601f19601f82011682018060405250810190612a2b91906148e1565b5061013454610132546040516316762eed60e01b81526001600160a01b03928316926316762eed92612a6892911690879086903090600401614bfe565b600060405180830381600087803b158015612a8257600080fd5b505af1158015612a96573d6000803e3d6000fd5b505061012f546040516370a0823160e01b8152600093506001600160a01b0390911691506370a0823190612ace903090600401613f20565b602060405180830381865afa158015612aeb573d6000803e3d6000fd5b505050506040513d601f19601f82011682018060405250810190612b0f919061489a565b61013854909150600090612b2e906001600160a01b0316888885613320565b90508015612b585761013854612b56906001600160a01b0316888885611fa5611f9d82613570565b505b61012d546040516370a0823160e01b81526001600160a01b03909116906370a0823190612b89903090600401613f20565b602060405180830381865afa158015612ba6573d6000803e3d6000fd5b505050506040513d601f19601f82011682018060405250810190612bca919061489a565b9a9950505050505050505050565b61012d546000906001600160a01b03858116911614612c095760405162461bcd60e51b815260040161087090614b95565b612c486040518060400160405280601a81526020017f756e7374616b696e6720776f6d62657874757364742b20257320000000000000815250846134e4565b6040805160038082526080820190925260009160208201606080368337505061012f5482519293506001600160a01b031691839150600090612c8c57612c8c6149f8565b60200260200101906001600160a01b031690816001600160a01b031681525050730782b6d8c4551b9760e74c0545a9bcd90bdc41e581600181518110612cd457612cd46149f8565b6001600160a01b03928316602091820292909201015261012d54825191169082906002908110612d0657612d066149f8565b6001600160a01b03929092166020928302919091018201526040805160028082526060820183526000939192909183019080368337019050509050739498563e47d7cfdfa22b818bb8112781036c201c81600081518110612d6957612d696149f8565b60200260200101906001600160a01b031690816001600160a01b03168152505073a61dccc6c6e34c8fbf14527386ca35589e9b8c2781600181518110612db157612db16149f8565b60200260200101906001600160a01b031690816001600160a01b031681525050612e006040518060400160405280600d81526020016c03ab739ba30b5b4b7339012b99609d1b815250866134e4565b610134546101325461013c5460405163135dbd1360e01b815288936000936001600160a01b039182169363135dbd1393612e4093909216916004016149cf565b6040805180830381865afa158015612e5c573d6000803e3d6000fd5b505050506040513d601f19601f82011682018060405250810190612e809190614a0e565b509050612eba6040518060400160405280601581526020017475736474416d6f756e744f6e65417373657420257360581b815250826134e4565b60008161013c54612ecd8560fe54613acb565b612ed79190614b18565b612ee19190614b4d565b9050612f18604051806040016040528060138152602001726c7055736474506c7573416d6f756e7420257360681b815250826134e4565b610133546101345460405163095ea7b360e01b81526001600160a01b039283169263095ea7b392612f509291169085906004016149cf565b6020604051808303816000875af1158015612f6f573d6000803e3d6000fd5b505050506040513d601f19601f82011682018060405250810190612f9391906148e1565b5061013454610132546040516316762eed60e01b81526001600160a01b03928316926316762eed92612fd092911690859088903090600401614bfe565b600060405180830381600087803b158015612fea57600080fd5b505af1158015612ffe573d6000803e3d6000fd5b505061012f546040516370a0823160e01b8152600093506001600160a01b0390911691506370a0823190613036903090600401613f20565b602060405180830381865afa158015613053573d6000803e3d6000fd5b505050506040513d601f19601f82011682018060405250810190613077919061489a565b6040805180820190915260198152787377617070696e672025732066726f6d20257320746f20257360381b602082015261012f5461012d549293506130ca9284916001600160a01b03908116911661349b565b610138546000906130e6906001600160a01b0316888885613320565b905061311f604051806040016040528060158152602001742a2a757364742042616c616e6365206f757420257360581b815250826134e4565b80156131935760408051808201909152601e81527f776f6d62617420526f757465723a202573207472616e736665723a202573000060208201526101385461317191906001600160a01b031683613529565b61013854613191906001600160a01b0316888885611fa5611f9d82613570565b505b61012d546040516370a0823160e01b81526001600160a01b03909116906370a08231906131c4903090600401613f20565b602060405180830381865afa1580156131e1573d6000803e3d6000fd5b505050506040513d601f19601f82011682018060405250810190613205919061489a565b9b9a5050505050505050505050565b60008061013960009054906101000a90046001600160a01b03166001600160a01b03166350d25bcd6040518163ffffffff1660e01b8152600401602060405180830381865afa15801561326b573d6000803e3d6000fd5b505050506040513d601f19601f8201168201806040525081019061328f919061489a565b9050600061013960009054906101000a90046001600160a01b03166001600160a01b03166350d25bcd6040518163ffffffff1660e01b8152600401602060405180830381865afa1580156132e7573d6000803e3d6000fd5b505050506040513d601f19601f8201168201806040525081019061330b919061489a565b90506115c78461013b5461013a548585613ada565b600080856001600160a01b031663b9e598c18686866040518463ffffffff1660e01b815260040161335393929190614c90565b600060405180830381865afa158015613370573d6000803e3d6000fd5b505050506040513d6000823e601f3d908101601f191682016040526115c29190810190614d67565b6133a28282610fd9565b610cff576133af81613b05565b6133ba836020613b17565b6040516020016133cb929190614dd7565b60408051601f198184030181529082905262461bcd60e51b825261087091600401613e91565b6001600160a01b0381163b6134185760405162461bcd60e51b815260040161087090614e79565b60008051602061515c83398151915280546001600160a01b0319166001600160a01b0392909216919091179055565b61345083613c83565b60008251118061345d5750805b15610cc85761346c8383613cc3565b50505050565b600054610100900460ff166134995760405162461bcd60e51b815260040161087090614ed1565b565b61346c848484846040516024016134b59493929190614ee1565b60408051601f198184030181529190526020810180516001600160e01b0316632f515bd760e11b179052613ce8565b610cff82826040516024016134fa929190614f0e565b60408051601f198184030181529190526020810180516001600160e01b0316632d839cb360e21b179052613ce8565b610cc883838360405160240161354193929190614f2e565b60408051601f198184030181529190526020810180516001600160e01b0316630d26b92560e01b179052613ce8565b60008061013960009054906101000a90046001600160a01b03166001600160a01b03166350d25bcd6040518163ffffffff1660e01b8152600401602060405180830381865afa1580156135c7573d6000803e3d6000fd5b505050506040513d601f19601f820116820180604052508101906135eb919061489a565b9050600061013960009054906101000a90046001600160a01b03166001600160a01b03166350d25bcd6040518163ffffffff1660e01b8152600401602060405180830381865afa158015613643573d6000803e3d6000fd5b505050506040513d601f19601f82011682018060405250810190613667919061489a565b90506115c78461013a5461013b548486613ada565b600085600081518110613691576136916149f8565b60200260200101516001600160a01b031663095ea7b388866040518363ffffffff1660e01b81526004016136c69291906149cf565b6020604051808303816000875af11580156136e5573d6000803e3d6000fd5b505050506040513d601f19601f8201168201806040525081019061370991906148e1565b5060405163351041e960e21b81526001600160a01b0388169063d44107a49061374090899089908990899089904290600401614f4e565b6020604051808303816000875af115801561375f573d6000803e3d6000fd5b505050506040513d601f19601f82011682018060405250810190613783919061489a565b90505b9695505050505050565b610ddf816040516024016137a49190613e91565b60408051601f198184030181529190526020810180516001600160e01b031663104c13eb60e21b179052613ce8565b61346c848484846040516024016137ed9493929190614fb4565b60408051601f198184030181529190526020810180516001600160e01b0316637c7a8d8f60e11b179052613ce8565b604080516002808252606082018352600092839291906020830190803683370190505090508481600081518110613855576138556149f8565b60200260200101906001600160a01b031690816001600160a01b0316815250508381600181518110613889576138896149f8565b6001600160a01b03928316602091820292909201015260405163d06ca61f60e01b815260009188169063d06ca61f906138c89087908690600401614fee565b600060405180830381865afa1580156138e5573d6000803e3d6000fd5b505050506040513d6000823e601f3d908101601f1916820160405261390d919081019061500e565b905080600181518110613922576139226149f8565b602002602001015192505050949350505050565b60405163095ea7b360e01b81526000906001600160a01b0387169063095ea7b390613967908a9088906004016149cf565b6020604051808303816000875af1158015613986573d6000803e3d6000fd5b505050506040513d601f19601f820116820180604052508101906139aa91906148e1565b5060408051600280825260608201835260009260208301908036833701905050905086816000815181106139e0576139e06149f8565b60200260200101906001600160a01b031690816001600160a01b0316815250508581600181518110613a1457613a146149f8565b6001600160a01b0392831660209182029290920101526040516338ed173960e01b81526000918a16906338ed173990613a59908990899087908a904290600401615049565b6000604051808303816000875af1158015613a78573d6000803e3d6000fd5b505050506040513d6000823e601f3d908101601f19168201604052613aa0919081019061500e565b905080600181518110613ab557613ab56149f8565b6020026020010151925050509695505050505050565b6000612710611c658382614a41565b6000613ae68286614b18565b83613af18689614b18565b613afb9190614b18565b6137869190614b4d565b60606107b46001600160a01b03831660145b60606000613b26836002614b18565b613b31906002614a41565b67ffffffffffffffff811115613b4957613b49614029565b6040519080825280601f01601f191660200182016040528015613b73576020820181803683370190505b509050600360fc1b81600081518110613b8e57613b8e6149f8565b60200101906001600160f81b031916908160001a905350600f60fb1b81600181518110613bbd57613bbd6149f8565b60200101906001600160f81b031916908160001a9053506000613be1846002614b18565b613bec906001614a41565b90505b6001811115613c64576f181899199a1a9b1b9c1cb0b131b232b360811b85600f1660108110613c2057613c206149f8565b1a60f81b828281518110613c3657613c366149f8565b60200101906001600160f81b031916908160001a90535060049490941c93613c5d81615092565b9050613bef565b508315611c795760405162461bcd60e51b8152600401610870906150db565b613c8c816133f1565b6040516001600160a01b038216907fbc7cd75a20ee27fd9adebab32041f755214dbc6bffa90cc0225b39da2e5c2d3b90600090a250565b6060611c7983836040518060600160405280602781526020016151a760279139613d09565b80516a636f6e736f6c652e6c6f67602083016000808483855afa5050505050565b6060600080856001600160a01b031685604051613d2691906150eb565b600060405180830381855af49150503d8060008114613d61576040519150601f19603f3d011682016040523d82523d6000602084013e613d66565b606091505b50915091506137868683838760608315613db1578251600003613daa576001600160a01b0385163b613daa5760405162461bcd60e51b81526004016108709061512b565b50816115c7565b6115c78383815115613dc65781518083602001fd5b8060405162461bcd60e51b81526004016108709190613e91565b6001600160e01b031981165b8114610ddf57600080fd5b80356107b481613de0565b600060208284031215613e1757613e17600080fd5b60006115c78484613df7565b8015155b82525050565b602081016107b48284613e23565b60005b83811015613e56578181015183820152602001613e3e565b50506000910152565b6000613e69825190565b808452602084019350613e80818560208601613e3b565b601f01601f19169290920192915050565b60208082528101611c798184613e5f565b60006107b46001600160a01b038316613eb9565b90565b6001600160a01b031690565b60006107b482613ea2565b60006107b482613ec5565b613e2781613ed0565b602081016107b48284613edb565b80613e27565b602081016107b48284613ef2565b60006001600160a01b0382166107b4565b613e2781613f06565b602081016107b48284613f17565b60006101a08284031215613f4457613f44600080fd5b50919050565b600060208284031215613f5f57613f5f600080fd5b813567ffffffffffffffff811115613f7957613f79600080fd5b6115c784828501613f2e565b80613dec565b80356107b481613f85565b600060208284031215613fab57613fab600080fd5b60006115c78484613f8b565b613dec81613f06565b80356107b481613fb7565b60008060408385031215613fe157613fe1600080fd5b6000613fed8585613f8b565b9250506020613ffe85828601613fc0565b9150509250929050565b60006020828403121561401d5761401d600080fd5b60006115c78484613fc0565b634e487b7160e01b600052604160045260246000fd5b601f19601f830116810181811067ffffffffffffffff8211171561406557614065614029565b6040525050565b600061407760405190565b9050611407828261403f565b600067ffffffffffffffff82111561409d5761409d614029565b601f19601f83011660200192915050565b82818337506000910152565b60006140cd6140c884614083565b61406c565b9050828152602081018484840111156140e8576140e8600080fd5b6140f38482856140ae565b509392505050565b600082601f83011261410f5761410f600080fd5b81356115c78482602086016140ba565b6000806040838503121561413557614135600080fd5b60006141418585613fc0565b925050602083013567ffffffffffffffff81111561416157614161600080fd5b613ffe858286016140fb565b6000806040838503121561418357614183600080fd5b600061418f8585613fc0565b9250506020613ffe85828601613f8b565b6000806000606084860312156141b8576141b8600080fd5b60006141c48686613f8b565b93505060206141d586828701613f8b565b92505060406141e686828701613f8b565b9150509250925092565b801515613dec565b80356107b4816141f0565b6000806000806080858703121561421c5761421c600080fd5b60006142288787613fc0565b945050602061423987828801613f8b565b935050604061424a87828801613fc0565b925050606061425b878288016141f8565b91505092959194509250565b634e487b7160e01b600052602260045260246000fd5b60028104600182168061429157607f821691505b602082108103613f4457613f44614267565b60148152600060208201735265737472696374656420746f2061646d696e7360601b815291505b5060200190565b602080825281016107b4816142a3565b60ff8116613dec565b80516107b4816142e1565b60006020828403121561430a5761430a600080fd5b60006115c784846142ea565b634e487b7160e01b600052601160045260246000fd5b80825b600185111561436b5780860481111561434a5761434a614316565b600185161561435857908102905b80026143648560011c90565b945061432f565b94509492505050565b60008261438357506001611c79565b8161439057506000611c79565b81600181146143a657600281146143b0576143dd565b6001915050611c79565b60ff8411156143c1576143c1614316565b8360020a9150848211156143d7576143d7614316565b50611c79565b5060208310610133831016604e8410600b8410161715614410575081810a8381111561440b5761440b614316565b611c79565b61441d848484600161432c565b9250905081840481111561443357614433614316565b0292915050565b600060ff83169250611c796000198484614374565b6000808335601e193685900301811261446a5761446a600080fd5b80840192508235915067ffffffffffffffff82111561448b5761448b600080fd5b6020830192506001820236038313156144a6576144a6600080fd5b509250929050565b60006107b4613eb68381565b6144c3836144ae565b81546008840282811b60001990911b908116901990911617825550505050565b6000610cc88184846144ba565b81811015610cff576145036000826144e3565b6001016144f0565b601f821115610cc8576000818152602090206020601f850104810160208510156145325750805b6145446020601f8601048301826144f0565b5050505050565b8267ffffffffffffffff81111561456457614564614029565b61456e825461427d565b61457982828561450b565b6000601f8311600181146145ad57600084156145955750858201355b600019600886021c1981166002860217865550614606565b600085815260208120601f198616915b828110156145dd57888501358255602094850194600190920191016145bd565b868310156145f957600019601f88166008021c19858a01351682555b6001600288020188555050505b50505050505050565b602f81526000602082017f416363657373436f6e74726f6c3a2063616e206f6e6c792072656e6f756e636581526e103937b632b9903337b91039b2b63360891b602082015291505b5060400190565b602080825281016107b48161460f565b602c81526000602082017f46756e6374696f6e206d7573742062652063616c6c6564207468726f7567682081526b19195b1959d85d1958d85b1b60a21b60208201529150614657565b602080825281016107b48161466e565b602c81526000602082017f46756e6374696f6e206d7573742062652063616c6c6564207468726f7567682081526b6163746976652070726f787960a01b60208201529150614657565b602080825281016107b4816146c7565b603881526000602082017f555550535570677261646561626c653a206d757374206e6f742062652063616c81527f6c6564207468726f7567682064656c656761746563616c6c000000000000000060208201529150614657565b602080825281016107b481614720565b602e81526000602082017f496e697469616c697a61626c653a20636f6e747261637420697320616c72656181526d191e481a5b9a5d1a585b1a5e995960921b60208201529150614657565b602080825281016107b48161478a565b600060ff82166107b4565b613e27816147e5565b602081016107b482846147f0565b601881526000602082017f5a65726f2061646472657373206e6f7420616c6c6f7765640000000000000000815291506142ca565b602080825281016107b481614807565b601f81526000602082017f5265737472696374656420746f20504f5254464f4c494f5f4d414e4147455200815291506142ca565b602080825281016107b48161484b565b80516107b481613f85565b6000602082840312156148af576148af600080fd5b60006115c7848461488f565b604081016148c98285613ef2565b611c796020830184613f17565b80516107b4816141f0565b6000602082840312156148f6576148f6600080fd5b60006115c784846148d6565b602281526000602082017f5265737472696374656420746f20504f5254464f4c494f5f4147454e545f524f8152614c4560f01b60208201529150614657565b602080825281016107b481614902565b6060810161495f8286613ef2565b61496c6020830185613ef2565b6115c76040830184613ef2565b602981526000602082017f52657475726e65642076616c7565206c657373207468616e2072657175657374815268195908185b5bdd5b9d60ba1b60208201529150614657565b602080825281016107b481614979565b604081016149dd8285613f17565b611c796020830184613ef2565b604081016149dd8285613ef2565b634e487b7160e01b600052603260045260246000fd5b60008060408385031215614a2457614a24600080fd5b6000614a30858561488f565b9250506020613ffe8582860161488f565b808201808211156107b4576107b4614316565b602e81526000602082017f45524331393637557067726164653a206e657720696d706c656d656e7461746981526d6f6e206973206e6f74205555505360901b60208201529150614657565b602080825281016107b481614a54565b602981526000602082017f45524331393637557067726164653a20756e737570706f727465642070726f788152681a58589b195555525160ba1b60208201529150614657565b602080825281016107b481614aaf565b818103818111156107b4576107b4614316565b818102808215838204851417614b3057614b30614316565b5092915050565b634e487b7160e01b600052601260045260246000fd5b600082614b5c57614b5c614b37565b500490565b601981526000602082017f536f6d6520746f6b656e206e6f7420636f6d70617469626c6500000000000000815291506142ca565b602080825281016107b481614b61565b60808101614bb38287613f17565b614bc06020830186613ef2565b614bcd6040830185613ef2565b614bda6060830184613e23565b95945050505050565b60408101614bf18285613f17565b611c796020830184613e23565b60808101614c0c8287613f17565b614c196020830186613ef2565b614c266040830185613ef2565b614bda6060830184613f17565b6000614c3f8383613f17565b505060200190565b6000614c51825190565b80845260209384019383018060005b83811015614c85578151614c748882614c33565b975060208301925050600101614c60565b509495945050505050565b60608082528101614ca18186614c47565b90508181036020830152614cb58185614c47565b90506115c76040830184613ef2565b600067ffffffffffffffff821115614cde57614cde614029565b5060209081020190565b6000614cf66140c884614cc4565b83815290506020808201908402830185811115614d1557614d15600080fd5b835b81811015614d395780614d2a888261488f565b84525060209283019201614d17565b5050509392505050565b600082601f830112614d5757614d57600080fd5b81516115c7848260208601614ce8565b60008060408385031215614d7d57614d7d600080fd5b6000614d89858561488f565b925050602083015167ffffffffffffffff811115614da957614da9600080fd5b613ffe85828601614d43565b6000614dbf825190565b614dcd818560208601613e3b565b9290920192915050565b7f416363657373436f6e74726f6c3a206163636f756e742000000000000000000081526017016000614e098285614db5565b7001034b99036b4b9b9b4b733903937b6329607d1b815260110191506115c78284614db5565b602d81526000602082017f455243313936373a206e657720696d706c656d656e746174696f6e206973206e81526c1bdd08184818dbdb9d1c9858dd609a1b60208201529150614657565b602080825281016107b481614e2f565b602b81526000602082017f496e697469616c697a61626c653a20636f6e7472616374206973206e6f74206981526a6e697469616c697a696e6760a81b60208201529150614657565b602080825281016107b481614e89565b60808082528101614ef28187613e5f565b9050614f016020830186613ef2565b614c266040830185613f17565b60408082528101614f1f8185613e5f565b9050611c796020830184613ef2565b60608082528101614f3f8186613e5f565b905061496c6020830185613f17565b60c08082528101614f5f8189614c47565b90508181036020830152614f738188614c47565b9050614f826040830187613ef2565b614f8f6060830186613ef2565b614f9c6080830185613f17565b614fa960a0830184613ef2565b979650505050505050565b60808082528101614fc58187613e5f565b9050614fd46020830186613f17565b614fe16040830185613ef2565b614bda6060830184613ef2565b60408101614ffc8285613ef2565b81810360208301526115c78184614c47565b60006020828403121561502357615023600080fd5b815167ffffffffffffffff81111561503d5761503d600080fd5b6115c784828501614d43565b60a081016150578288613ef2565b6150646020830187613ef2565b81810360408301526150768186614c47565b90506150856060830185613f17565b6137866080830184613ef2565b6000816150a1576150a1614316565b506000190190565b60208082527f537472696e67733a20686578206c656e67746820696e73756666696369656e74910190815260006142ca565b602080825281016107b4816150a9565b6000611c798284614db5565b601d81526000602082017f416464726573733a2063616c6c20746f206e6f6e2d636f6e7472616374000000815291506142ca565b602080825281016107b4816150f756fe90c2aa7471c04182221f68e80c07ab1e5946e4c63f8693e14ca40385d529f051360894a13ba1a3210667c828492db98dca3e2076cc3735a920a3ca505d382bbc6465706f736974696e6720757364742b20746f20706f6f6c206465706f7369746f72202573202573202573416464726573733a206c6f772d6c6576656c2064656c65676174652063616c6c206661696c65647265776172647320636c61696d65642066726f6d20576f6d62657820555344542b3a202573a2646970667358221220f0fe619aee8dec858ad2fde2ea801435bd755a872535848edd9fbdc671d3412064736f6c63430008110033",
  "linkReferences": {},
  "deployedLinkReferences": {}
}