{
  "_format": "hh-sol-artifact-1",
  "contractName": "StrategyVenusBusd",
  "sourceName": "contracts/strategies/StrategyVenusBusd.sol",
  "abi": [
    {
      "inputs": [],
      "stateMutability": "nonpayable",
      "type": "constructor"
    },
    {
      "anonymous": false,
      "inputs": [
        {
          "indexed": false,
          "internalType": "address",
          "name": "previousAdmin",
          "type": "address"
        },
        {
          "indexed": false,
          "internalType": "address",
          "name": "newAdmin",
          "type": "address"
        }
      ],
      "name": "AdminChanged",
      "type": "event"
    },
    {
      "anonymous": false,
      "inputs": [
        {
          "indexed": true,
          "internalType": "address",
          "name": "beacon",
          "type": "address"
        }
      ],
      "name": "BeaconUpgraded",
      "type": "event"
    },
    {
      "anonymous": false,
      "inputs": [
        {
          "indexed": false,
          "internalType": "uint8",
          "name": "version",
          "type": "uint8"
        }
      ],
      "name": "Initialized",
      "type": "event"
    },
    {
      "anonymous": false,
      "inputs": [
        {
          "indexed": false,
          "internalType": "address",
          "name": "value",
          "type": "address"
        }
      ],
      "name": "PortfolioManagerUpdated",
      "type": "event"
    },
    {
      "anonymous": false,
      "inputs": [
        {
          "indexed": false,
          "internalType": "uint256",
          "name": "amount",
          "type": "uint256"
        }
      ],
      "name": "Reward",
      "type": "event"
    },
    {
      "anonymous": false,
      "inputs": [
        {
          "indexed": true,
          "internalType": "bytes32",
          "name": "role",
          "type": "bytes32"
        },
        {
          "indexed": true,
          "internalType": "bytes32",
          "name": "previousAdminRole",
          "type": "bytes32"
        },
        {
          "indexed": true,
          "internalType": "bytes32",
          "name": "newAdminRole",
          "type": "bytes32"
        }
      ],
      "name": "RoleAdminChanged",
      "type": "event"
    },
    {
      "anonymous": false,
      "inputs": [
        {
          "indexed": true,
          "internalType": "bytes32",
          "name": "role",
          "type": "bytes32"
        },
        {
          "indexed": true,
          "internalType": "address",
          "name": "account",
          "type": "address"
        },
        {
          "indexed": true,
          "internalType": "address",
          "name": "sender",
          "type": "address"
        }
      ],
      "name": "RoleGranted",
      "type": "event"
    },
    {
      "anonymous": false,
      "inputs": [
        {
          "indexed": true,
          "internalType": "bytes32",
          "name": "role",
          "type": "bytes32"
        },
        {
          "indexed": true,
          "internalType": "address",
          "name": "account",
          "type": "address"
        },
        {
          "indexed": true,
          "internalType": "address",
          "name": "sender",
          "type": "address"
        }
      ],
      "name": "RoleRevoked",
      "type": "event"
    },
    {
      "anonymous": false,
      "inputs": [
        {
          "indexed": false,
          "internalType": "uint256",
          "name": "swapSlippageBP",
          "type": "uint256"
        },
        {
          "indexed": false,
          "internalType": "uint256",
          "name": "navSlippageBP",
          "type": "uint256"
        },
        {
          "indexed": false,
          "internalType": "uint256",
          "name": "stakeSlippageBP",
          "type": "uint256"
        }
      ],
      "name": "SlippagesUpdated",
      "type": "event"
    },
    {
      "anonymous": false,
      "inputs": [
        {
          "indexed": false,
          "internalType": "uint256",
          "name": "amount",
          "type": "uint256"
        }
      ],
      "name": "Stake",
      "type": "event"
    },
    {
      "anonymous": false,
      "inputs": [],
      "name": "StrategyUpdatedParams",
      "type": "event"
    },
    {
      "anonymous": false,
      "inputs": [
        {
          "indexed": false,
          "internalType": "uint256",
          "name": "amount",
          "type": "uint256"
        },
        {
          "indexed": false,
          "internalType": "uint256",
          "name": "amountReceived",
          "type": "uint256"
        }
      ],
      "name": "Unstake",
      "type": "event"
    },
    {
      "anonymous": false,
      "inputs": [
        {
          "indexed": true,
          "internalType": "address",
          "name": "implementation",
          "type": "address"
        }
      ],
      "name": "Upgraded",
      "type": "event"
    },
    {
      "inputs": [],
      "name": "DEFAULT_ADMIN_ROLE",
      "outputs": [
        {
          "internalType": "bytes32",
          "name": "",
          "type": "bytes32"
        }
      ],
      "stateMutability": "view",
      "type": "function"
    },
    {
      "inputs": [],
      "name": "PORTFOLIO_AGENT_ROLE",
      "outputs": [
        {
          "internalType": "bytes32",
          "name": "",
          "type": "bytes32"
        }
      ],
      "stateMutability": "view",
      "type": "function"
    },
    {
      "inputs": [],
      "name": "PORTFOLIO_MANAGER",
      "outputs": [
        {
          "internalType": "bytes32",
          "name": "",
          "type": "bytes32"
        }
      ],
      "stateMutability": "view",
      "type": "function"
    },
    {
      "inputs": [],
      "name": "busdToken",
      "outputs": [
        {
          "internalType": "contract IERC20",
          "name": "",
          "type": "address"
        }
      ],
      "stateMutability": "view",
      "type": "function"
    },
    {
      "inputs": [
        {
          "internalType": "address",
          "name": "_to",
          "type": "address"
        }
      ],
      "name": "claimRewards",
      "outputs": [
        {
          "internalType": "uint256",
          "name": "",
          "type": "uint256"
        }
      ],
      "stateMutability": "nonpayable",
      "type": "function"
    },
    {
      "inputs": [
        {
          "internalType": "bytes32",
          "name": "role",
          "type": "bytes32"
        }
      ],
      "name": "getRoleAdmin",
      "outputs": [
        {
          "internalType": "bytes32",
          "name": "",
          "type": "bytes32"
        }
      ],
      "stateMutability": "view",
      "type": "function"
    },
    {
      "inputs": [
        {
          "internalType": "bytes32",
          "name": "role",
          "type": "bytes32"
        },
        {
          "internalType": "address",
          "name": "account",
          "type": "address"
        }
      ],
      "name": "grantRole",
      "outputs": [],
      "stateMutability": "nonpayable",
      "type": "function"
    },
    {
      "inputs": [
        {
          "internalType": "bytes32",
          "name": "role",
          "type": "bytes32"
        },
        {
          "internalType": "address",
          "name": "account",
          "type": "address"
        }
      ],
      "name": "hasRole",
      "outputs": [
        {
          "internalType": "bool",
          "name": "",
          "type": "bool"
        }
      ],
      "stateMutability": "view",
      "type": "function"
    },
    {
      "inputs": [],
      "name": "initialize",
      "outputs": [],
      "stateMutability": "nonpayable",
      "type": "function"
    },
    {
      "inputs": [],
      "name": "liquidationValue",
      "outputs": [
        {
          "internalType": "uint256",
          "name": "",
          "type": "uint256"
        }
      ],
      "stateMutability": "view",
      "type": "function"
    },
    {
      "inputs": [],
      "name": "navSlippageBP",
      "outputs": [
        {
          "internalType": "uint256",
          "name": "",
          "type": "uint256"
        }
      ],
      "stateMutability": "view",
      "type": "function"
    },
    {
      "inputs": [],
      "name": "netAssetValue",
      "outputs": [
        {
          "internalType": "uint256",
          "name": "",
          "type": "uint256"
        }
      ],
      "stateMutability": "view",
      "type": "function"
    },
    {
      "inputs": [],
      "name": "pancakeRouter",
      "outputs": [
        {
          "internalType": "contract IPancakeRouter02",
          "name": "",
          "type": "address"
        }
      ],
      "stateMutability": "view",
      "type": "function"
    },
    {
      "inputs": [],
      "name": "portfolioManager",
      "outputs": [
        {
          "internalType": "address",
          "name": "",
          "type": "address"
        }
      ],
      "stateMutability": "view",
      "type": "function"
    },
    {
      "inputs": [],
      "name": "proxiableUUID",
      "outputs": [
        {
          "internalType": "bytes32",
          "name": "",
          "type": "bytes32"
        }
      ],
      "stateMutability": "view",
      "type": "function"
    },
    {
      "inputs": [
        {
          "internalType": "bytes32",
          "name": "role",
          "type": "bytes32"
        },
        {
          "internalType": "address",
          "name": "account",
          "type": "address"
        }
      ],
      "name": "renounceRole",
      "outputs": [],
      "stateMutability": "nonpayable",
      "type": "function"
    },
    {
      "inputs": [
        {
          "internalType": "bytes32",
          "name": "role",
          "type": "bytes32"
        },
        {
          "internalType": "address",
          "name": "account",
          "type": "address"
        }
      ],
      "name": "revokeRole",
      "outputs": [],
      "stateMutability": "nonpayable",
      "type": "function"
    },
    {
      "inputs": [
        {
          "components": [
            {
              "internalType": "address",
              "name": "busdToken",
              "type": "address"
            },
            {
              "internalType": "address",
              "name": "vBusdToken",
              "type": "address"
            },
            {
              "internalType": "address",
              "name": "unitroller",
              "type": "address"
            },
            {
              "internalType": "address",
              "name": "pancakeRouter",
              "type": "address"
            },
            {
              "internalType": "address",
              "name": "xvsToken",
              "type": "address"
            },
            {
              "internalType": "address",
              "name": "wbnbToken",
              "type": "address"
            }
          ],
          "internalType": "struct StrategyVenusBusd.StrategyParams",
          "name": "params",
          "type": "tuple"
        }
      ],
      "name": "setParams",
      "outputs": [],
      "stateMutability": "nonpayable",
      "type": "function"
    },
    {
      "inputs": [
        {
          "internalType": "address",
          "name": "_value",
          "type": "address"
        }
      ],
      "name": "setPortfolioManager",
      "outputs": [],
      "stateMutability": "nonpayable",
      "type": "function"
    },
    {
      "inputs": [
        {
          "internalType": "uint256",
          "name": "_swapSlippageBP",
          "type": "uint256"
        },
        {
          "internalType": "uint256",
          "name": "_navSlippageBP",
          "type": "uint256"
        },
        {
          "internalType": "uint256",
          "name": "_stakeSlippageBP",
          "type": "uint256"
        }
      ],
      "name": "setSlippages",
      "outputs": [],
      "stateMutability": "nonpayable",
      "type": "function"
    },
    {
      "inputs": [
        {
          "internalType": "address",
          "name": "_asset",
          "type": "address"
        },
        {
          "internalType": "uint256",
          "name": "_amount",
          "type": "uint256"
        }
      ],
      "name": "stake",
      "outputs": [],
      "stateMutability": "nonpayable",
      "type": "function"
    },
    {
      "inputs": [],
      "name": "stakeSlippageBP",
      "outputs": [
        {
          "internalType": "uint256",
          "name": "",
          "type": "uint256"
        }
      ],
      "stateMutability": "view",
      "type": "function"
    },
    {
      "inputs": [
        {
          "internalType": "bytes4",
          "name": "interfaceId",
          "type": "bytes4"
        }
      ],
      "name": "supportsInterface",
      "outputs": [
        {
          "internalType": "bool",
          "name": "",
          "type": "bool"
        }
      ],
      "stateMutability": "view",
      "type": "function"
    },
    {
      "inputs": [],
      "name": "swapSlippageBP",
      "outputs": [
        {
          "internalType": "uint256",
          "name": "",
          "type": "uint256"
        }
      ],
      "stateMutability": "view",
      "type": "function"
    },
    {
      "inputs": [],
      "name": "unitroller",
      "outputs": [
        {
          "internalType": "contract Unitroller",
          "name": "",
          "type": "address"
        }
      ],
      "stateMutability": "view",
      "type": "function"
    },
    {
      "inputs": [
        {
          "internalType": "address",
          "name": "_asset",
          "type": "address"
        },
        {
          "internalType": "uint256",
          "name": "_amount",
          "type": "uint256"
        },
        {
          "internalType": "address",
          "name": "_beneficiary",
          "type": "address"
        },
        {
          "internalType": "bool",
          "name": "_targetIsZero",
          "type": "bool"
        }
      ],
      "name": "unstake",
      "outputs": [
        {
          "internalType": "uint256",
          "name": "",
          "type": "uint256"
        }
      ],
      "stateMutability": "nonpayable",
      "type": "function"
    },
    {
      "inputs": [
        {
          "internalType": "address",
          "name": "newImplementation",
          "type": "address"
        }
      ],
      "name": "upgradeTo",
      "outputs": [],
      "stateMutability": "nonpayable",
      "type": "function"
    },
    {
      "inputs": [
        {
          "internalType": "address",
          "name": "newImplementation",
          "type": "address"
        },
        {
          "internalType": "bytes",
          "name": "data",
          "type": "bytes"
        }
      ],
      "name": "upgradeToAndCall",
      "outputs": [],
      "stateMutability": "payable",
      "type": "function"
    },
    {
      "inputs": [],
      "name": "vBusdToken",
      "outputs": [
        {
          "internalType": "contract VenusInterface",
          "name": "",
          "type": "address"
        }
      ],
      "stateMutability": "view",
      "type": "function"
    },
    {
      "inputs": [],
      "name": "wbnbToken",
      "outputs": [
        {
          "internalType": "contract IERC20",
          "name": "",
          "type": "address"
        }
      ],
      "stateMutability": "view",
      "type": "function"
    },
    {
      "inputs": [],
      "name": "xvsToken",
      "outputs": [
        {
          "internalType": "contract IERC20",
          "name": "",
          "type": "address"
        }
      ],
      "stateMutability": "view",
      "type": "function"
    }
  ],
  "bytecode": "0x60a0604052306080523480156200001557600080fd5b50600054610100900460ff1615808015620000375750600054600160ff909116105b8062000067575062000054306200010860201b620010961760201c565b15801562000067575060005460ff166001145b6200008f5760405162461bcd60e51b8152600401620000869062000117565b60405180910390fd5b6000805460ff191660011790558015620000b3576000805461ff0019166101001790555b801562000101576000805461ff00191690556040517f7f26b83ff96e1f2b6a682f133852f6798a09c465da95921460cefb384740249890620000f8906001906200018d565b60405180910390a15b506200019d565b6001600160a01b03163b151590565b602080825281016200016a81602e81527f496e697469616c697a61626c653a20636f6e747261637420697320616c72656160208201526d191e481a5b9a5d1a585b1a5e995960921b604082015260600190565b92915050565b600060ff82166200016a565b620001878162000170565b82525050565b602081016200016a82846200017c565b6080516133b1620001d56000396000818161066a015281816106aa0152818161074901528181610789015261081801526133b16000f3fe6080604052600436106101d85760003560e01c806391d1485411610102578063c21ebd0711610095578063ef5cfb8c11610064578063ef5cfb8c1461052f578063f3d5bec91461054f578063f6f6b88114610570578063fb200baf1461059057600080fd5b8063c21ebd07146104ac578063cc545bec146104cd578063d547741f146104ee578063de0e70141461050e57600080fd5b8063adc9772e116100d1578063adc9772e14610428578063ae30c11014610448578063bad1d3da14610468578063bf52e0801461049657600080fd5b806391d14854146103d3578063a217fddf146103f3578063a3673b3814610266578063a440b21a1461040857600080fd5b80634f1ef2861161017a578063620b75df11610149578063620b75df1461034f5780637d5f58021461037c578063806b94051461039e5780638129fc1c146103be57600080fd5b80634f1ef286146102dd57806352d1902d146102f05780635ca558f8146103055780635dbd733a1461031b57600080fd5b80632576e65a116101b65780632576e65a146102665780632f2ff15d1461027b57806336568abe1461029d5780633659cfe6146102bd57600080fd5b806301ffc9a7146101dd578063119cd87914610213578063248a9ca314610236575b600080fd5b3480156101e957600080fd5b506101fd6101f83660046125b6565b6105b1565b60405161020a91906125e1565b60405180910390f35b34801561021f57600080fd5b5061022960fd5481565b60405161020a91906125f5565b34801561024257600080fd5b50610229610251366004612614565b60009081526065602052604090206001015490565b34801561027257600080fd5b506102296105e8565b34801561028757600080fd5b5061029b61029636600461265a565b6105f7565b005b3480156102a957600080fd5b5061029b6102b836600461265a565b610621565b3480156102c957600080fd5b5061029b6102d8366004612697565b610660565b61029b6102eb3660046127ae565b61073f565b3480156102fc57600080fd5b5061022961080b565b34801561031157600080fd5b5061022960fe5481565b34801561032757600080fd5b506102297fd67ad422505496469a1adf6cdf9e5ee92ac5d33992843c9ecc4b2f6d6cde913781565b34801561035b57600080fd5b5060fb5461036f906001600160a01b031681565b60405161020a9190612805565b34801561038857600080fd5b5061022960008051602061331583398151915281565b3480156103aa57600080fd5b5061029b6103b936600461282e565b610868565b3480156103ca57600080fd5b5061029b6109de565b3480156103df57600080fd5b506101fd6103ee36600461265a565b610aac565b3480156103ff57600080fd5b50610229600081565b34801561041457600080fd5b5061029b610423366004612697565b610ad7565b34801561043457600080fd5b5061029b61044336600461284f565b610bac565b34801561045457600080fd5b5061029b610463366004612882565b610d03565b34801561047457600080fd5b5061012f54610489906001600160a01b031681565b60405161020a91906128f1565b3480156104a257600080fd5b5061022960fc5481565b3480156104b857600080fd5b5061013054610489906001600160a01b031681565b3480156104d957600080fd5b5061012e54610489906001600160a01b031681565b3480156104fa57600080fd5b5061029b61050936600461265a565b610e25565b34801561051a57600080fd5b5061012d54610489906001600160a01b031681565b34801561053b57600080fd5b5061022961054a366004612697565b610e4a565b34801561055b57600080fd5b5061013254610489906001600160a01b031681565b34801561057c57600080fd5b5061022961058b366004612912565b610ed3565b34801561059c57600080fd5b5061013154610489906001600160a01b031681565b60006001600160e01b03198216637965db0b60e01b14806105e257506301ffc9a760e01b6001600160e01b03198316145b92915050565b60006105f26110a5565b905090565b600082815260656020526040902060010154610612816113d5565b61061c83836113df565b505050565b6001600160a01b03811633146106525760405162461bcd60e51b8152600401610649906129c5565b60405180910390fd5b61065c8282611465565b5050565b6001600160a01b037f00000000000000000000000000000000000000000000000000000000000000001630036106a85760405162461bcd60e51b815260040161064990612a1e565b7f00000000000000000000000000000000000000000000000000000000000000006001600160a01b03166106f1600080516020613335833981519152546001600160a01b031690565b6001600160a01b0316146107175760405162461bcd60e51b815260040161064990612a77565b610720816114cc565b6040805160008082526020820190925261073c918391906114d7565b50565b6001600160a01b037f00000000000000000000000000000000000000000000000000000000000000001630036107875760405162461bcd60e51b815260040161064990612a1e565b7f00000000000000000000000000000000000000000000000000000000000000006001600160a01b03166107d0600080516020613335833981519152546001600160a01b031690565b6001600160a01b0316146107f65760405162461bcd60e51b815260040161064990612a77565b6107ff826114cc565b61065c828260016114d7565b6000306001600160a01b037f000000000000000000000000000000000000000000000000000000000000000016146108555760405162461bcd60e51b815260040161064990612ae1565b5060008051602061333583398151915290565b610873600033610aac565b61088f5760405162461bcd60e51b815260040161064990612b1f565b61089c6020820182612697565b61012d80546001600160a01b0319166001600160a01b03929092169190911790556108cd6040820160208301612697565b61012e80546001600160a01b0319166001600160a01b03929092169190911790556108fe6060820160408301612697565b61012f80546001600160a01b0319166001600160a01b039290921691909117905561092f6080820160608301612697565b61013080546001600160a01b0319166001600160a01b039290921691909117905561096060a0820160808301612697565b61013180546001600160a01b0319166001600160a01b039290921691909117905561099160c0820160a08301612697565b61013280546001600160a01b0319166001600160a01b03929092169190911790556040517fea5646eb3528e525944447a4a97de700dd472298626e5c0481d1c82c3da86ea590600090a150565b600054610100900460ff16158080156109fe5750600054600160ff909116105b80610a185750303b158015610a18575060005460ff166001145b610a345760405162461bcd60e51b815260040161064990612b7a565b6000805460ff191660011790558015610a57576000805461ff0019166101001790555b610a5f6115b9565b801561073c576000805461ff00191690556040517f7f26b83ff96e1f2b6a682f133852f6798a09c465da95921460cefb384740249890610aa190600190612b9e565b60405180910390a150565b60009182526065602090815260408084206001600160a01b0393909316845291905290205460ff1690565b610ae2600033610aac565b610afe5760405162461bcd60e51b815260040161064990612b1f565b6001600160a01b038116610b245760405162461bcd60e51b815260040161064990612be0565b60fb54610b4990600080516020613315833981519152906001600160a01b0316610e25565b610b61600080516020613315833981519152826105f7565b60fb80546001600160a01b0319166001600160a01b0383161790556040517ff7b449fcd5cfb7379dcd34cb69428dd9f882033b15be33d83b42d91daa28eeb790610aa1908390612805565b610bc460008051602061331583398151915233610aac565b610be05760405162461bcd60e51b815260040161064990612c24565b6000610c4f306001600160a01b031663a3673b386040518163ffffffff1660e01b8152600401602060405180830381865afa158015610c23573d6000803e3d6000fd5b505050506040513d601f19601f82011682018060405250810190610c479190612c3f565b60fd5461169e565b9050610cc783846001600160a01b03166370a08231306040518263ffffffff1660e01b8152600401610c819190612805565b602060405180830381865afa158015610c9e573d6000803e3d6000fd5b505050506040513d601f19601f82011682018060405250810190610cc29190612c3f565b6116c8565b7f227a473b70d2f893cc7659219575c030a63b5743024fe1e0c1a680e708b1525a82604051610cf691906125f5565b60405180910390a1505050565b610d2d7fd67ad422505496469a1adf6cdf9e5ee92ac5d33992843c9ecc4b2f6d6cde913733610aac565b80610dc6575060fb54604051632474521560e21b81526001600160a01b03909116906391d1485490610d85907fd67ad422505496469a1adf6cdf9e5ee92ac5d33992843c9ecc4b2f6d6cde9137903390600401612c60565b602060405180830381865afa158015610da2573d6000803e3d6000fd5b505050506040513d601f19601f82011682018060405250810190610dc69190612c86565b610de25760405162461bcd60e51b815260040161064990612ce6565b60fc83905560fd82905560fe8190556040517f116fbf1e97a2be629ad98abfb6c332733c8996c2dfb174dd2efe8440df381d1a90610cf690859085908590612cf6565b600082815260656020526040902060010154610e40816113d5565b61061c8383611465565b6000610e6460008051602061331583398151915233610aac565b610e805760405162461bcd60e51b815260040161064990612c24565b6000610e8b83611850565b90508015610ecb577f3ac0594a85a20354f9dc74f33728416d19ce00d04a406c108cc2dcf2cecea13481604051610ec291906125f5565b60405180910390a15b90505b919050565b6000610eed60008051602061331583398151915233610aac565b610f095760405162461bcd60e51b815260040161064990612c24565b6000610f4c306001600160a01b031663a3673b386040518163ffffffff1660e01b8152600401602060405180830381865afa158015610c23573d6000803e3d6000fd5b90506000808415610f7357610f6086611850565b9050610f6c8887611b16565b9150610fa0565b610f7e888888611cc5565b915086821015610fa05760405162461bcd60e51b815260040161064990612d64565b60405163a9059cbb60e01b81526001600160a01b0389169063a9059cbb90610fce9089908690600401612d74565b6020604051808303816000875af1158015610fed573d6000803e3d6000fd5b505050506040513d601f19601f820116820180604052508101906110119190612c86565b507f9045c2ac9b2026de8075f2701bbdde882cd5e830b3b1ead9a15b22f2b5b937428783604051611043929190612d8f565b60405180910390a18015611089577f3ac0594a85a20354f9dc74f33728416d19ce00d04a406c108cc2dcf2cecea1348160405161108091906125f5565b60405180910390a15b509150505b949350505050565b6001600160a01b03163b151590565b60006110de60405180604001604052806016815260200175544f54414c2056414c55452046524f4d2056454e555360501b815250611e0a565b61012d546040516370a0823160e01b815261125d916001600160a01b0316906370a0823190611111903090600401612805565b602060405180830381865afa15801561112e573d6000803e3d6000fd5b505050506040513d601f19601f820116820180604052508101906111529190612c3f565b61012e546040805163182df0f560e01b81529051670de0b6b3a7640000926001600160a01b03169163182df0f59160048083019260209291908290030181865afa1580156111a4573d6000803e3d6000fd5b505050506040513d601f19601f820116820180604052508101906111c89190612c3f565b61012e546040516370a0823160e01b81526001600160a01b03909116906370a08231906111f9903090600401612805565b602060405180830381865afa158015611216573d6000803e3d6000fd5b505050506040513d601f19601f8201168201806040525081019061123a9190612c3f565b6112449190612db3565b61124e9190612de1565b6112589190612df5565b611e4d565b61012d546040516370a0823160e01b81526001600160a01b03909116906370a082319061128e903090600401612805565b602060405180830381865afa1580156112ab573d6000803e3d6000fd5b505050506040513d601f19601f820116820180604052508101906112cf9190612c3f565b61012e546040805163182df0f560e01b81529051670de0b6b3a7640000926001600160a01b03169163182df0f59160048083019260209291908290030181865afa158015611321573d6000803e3d6000fd5b505050506040513d601f19601f820116820180604052508101906113459190612c3f565b61012e546040516370a0823160e01b81526001600160a01b03909116906370a0823190611376903090600401612805565b602060405180830381865afa158015611393573d6000803e3d6000fd5b505050506040513d601f19601f820116820180604052508101906113b79190612c3f565b6113c19190612db3565b6113cb9190612de1565b6105f29190612df5565b61073c8133611e90565b6113e98282610aac565b61065c5760008281526065602090815260408083206001600160a01b03851684529091529020805460ff191660011790556114213390565b6001600160a01b0316816001600160a01b0316837f2f8788117e7eff1d82e926ec794901d17c78024a50270940304540a733656f0d60405160405180910390a45050565b61146f8282610aac565b1561065c5760008281526065602090815260408083206001600160a01b0385168085529252808320805460ff1916905551339285917ff6391f5c32d9c69d2a47ea670b442974b53935d1edc7fd64eb21e047a839171b9190a45050565b600061065c816113d5565b7f4910fdfa16fed3260ed0e7147f7cc6da11a60208b5b9406d12a635614ffd91435460ff161561150a5761061c83611ee9565b826001600160a01b03166352d1902d6040518163ffffffff1660e01b8152600401602060405180830381865afa925050508015611564575060408051601f3d908101601f1916820190925261156191810190612c3f565b60015b6115805760405162461bcd60e51b815260040161064990612e53565b60008051602061333583398151915281146115ad5760405162461bcd60e51b815260040161064990612ea9565b5061061c838383611f3f565b600054610100900460ff16158080156115d95750600054600160ff909116105b806115f35750303b1580156115f3575060005460ff166001145b61160f5760405162461bcd60e51b815260040161064990612b7a565b6000805460ff191660011790558015611632576000805461ff0019166101001790555b61163a611f6a565b611642611f6a565b61164d6000336113df565b601960fc55602360fd55600460fe55801561073c576000805461ff00191690556040517f7f26b83ff96e1f2b6a682f133852f6798a09c465da95921460cefb384740249890610aa190600190612b9e565b60006127106116ad8382612eb9565b6116b79085612db3565b6116c19190612de1565b9392505050565b6116f46040518060400160405280600b81526020016a76656e7573207374616b6560a81b815250611e0a565b61012d546001600160a01b038381169116146117225760405162461bcd60e51b815260040161064990612f00565b61012d5461012e5460405163095ea7b360e01b81526001600160a01b039283169263095ea7b39261175a929116908590600401612d74565b6020604051808303816000875af1158015611779573d6000803e3d6000fd5b505050506040513d601f19601f8201168201806040525081019061179d9190612c86565b506117dc6040518060400160405280601781526020017f63616c6c696e67207642757364546f6b656e2e6d696e74000000000000000000815250611e0a565b61012e5460405163140e25ad60e31b81526001600160a01b039091169063a0712d689061180d9084906004016125f5565b6020604051808303816000875af115801561182c573d6000803e3d6000fd5b505050506040513d601f19601f8201168201806040525081019061061c9190612c3f565b61012e546040516370a0823160e01b815260009182916001600160a01b03909116906370a0823190611886903090600401612805565b602060405180830381865afa1580156118a3573d6000803e3d6000fd5b505050506040513d601f19601f820116820180604052508101906118c79190612c3f565b11156119845760408051600180825281830190925260009160208083019080368337505061012e5482519293506001600160a01b03169183915060009061191057611910612f10565b6001600160a01b03928316602091820292909201015261012f5460405163436f98f760e11b81529116906386df31ee906119509030908590600401612f83565b600060405180830381600087803b15801561196a57600080fd5b505af115801561197e573d6000803e3d6000fd5b50505050505b610131546040516370a0823160e01b815260009182916001600160a01b03909116906370a08231906119ba903090600401612805565b602060405180830381865afa1580156119d7573d6000803e3d6000fd5b505050506040513d601f19601f820116820180604052508101906119fb9190612c3f565b90508015611a915761013054610131546101325461012d54600093611a35936001600160a01b039182169390821692908216911686611f93565b90508015611a8f5761013054610131546101325461012d54611a82936001600160a01b039081169381169281169116866064611a72886063612db3565b611a7c9190612de1565b306120e3565b611a8c9084612df5565b92505b505b8115611b0f5761012d5460405163a9059cbb60e01b81526001600160a01b039091169063a9059cbb90611aca9087908690600401612d74565b6020604051808303816000875af1158015611ae9573d6000803e3d6000fd5b505050506040513d601f19601f82011682018060405250810190611b0d9190612c86565b505b5092915050565b6000611b4b604051806040016040528060128152602001711d995b9d5cc81d5b9cdd185ad948199d5b1b60721b815250611e0a565b61012d546001600160a01b03848116911614611b795760405162461bcd60e51b815260040161064990612f00565b61012e546040516370a0823160e01b81526001600160a01b039091169063db006a759082906370a0823190611bb2903090600401612805565b602060405180830381865afa158015611bcf573d6000803e3d6000fd5b505050506040513d601f19601f82011682018060405250810190611bf39190612c3f565b6040518263ffffffff1660e01b8152600401611c0f91906125f5565b6020604051808303816000875af1158015611c2e573d6000803e3d6000fd5b505050506040513d601f19601f82011682018060405250810190611c529190612c3f565b5061012d546040516370a0823160e01b81526001600160a01b03909116906370a0823190611c84903090600401612805565b602060405180830381865afa158015611ca1573d6000803e3d6000fd5b505050506040513d601f19601f820116820180604052508101906116c19190612c3f565b6000611cf56040518060400160405280600d81526020016c76656e757320756e7374616b6560981b815250611e0a565b61012d546001600160a01b03858116911614611d235760405162461bcd60e51b815260040161064990612f00565b61012e5460405163852a12e360e01b81526001600160a01b039091169063852a12e390611d549086906004016125f5565b6020604051808303816000875af1158015611d73573d6000803e3d6000fd5b505050506040513d601f19601f82011682018060405250810190611d979190612c3f565b5061012d546040516370a0823160e01b81526001600160a01b03909116906370a0823190611dc9903090600401612805565b602060405180830381865afa158015611de6573d6000803e3d6000fd5b505050506040513d601f19601f8201168201806040525081019061108e9190612c3f565b61073c81604051602401611e1e9190612ff9565b60408051601f198184030181529190526020810180516001600160e01b031663104c13eb60e21b1790526122af565b61073c81604051602401611e6191906125f5565b60408051601f198184030181529190526020810180516001600160e01b031663f82c50f160e01b1790526122af565b611e9a8282610aac565b61065c57611ea7816122d0565b611eb28360206122e2565b604051602001611ec392919061302c565b60408051601f198184030181529082905262461bcd60e51b825261064991600401612ff9565b6001600160a01b0381163b611f105760405162461bcd60e51b8152600401610649906130ce565b60008051602061333583398151915280546001600160a01b0319166001600160a01b0392909216919091179055565b611f488361244e565b600082511180611f555750805b1561061c57611f64838361248e565b50505050565b600054610100900460ff16611f915760405162461bcd60e51b815260040161064990613126565b565b60408051600380825260808201909252600091829190602082016060803683370190505090508581600081518110611fcd57611fcd612f10565b60200260200101906001600160a01b031690816001600160a01b031681525050848160018151811061200157612001612f10565b60200260200101906001600160a01b031690816001600160a01b031681525050838160028151811061203557612035612f10565b6001600160a01b03928316602091820292909201015260405163d06ca61f60e01b815260009189169063d06ca61f906120749087908690600401613136565b600060405180830381865afa158015612091573d6000803e3d6000fd5b505050506040513d6000823e601f3d908101601f191682016040526120b991908101906131e7565b9050806002815181106120ce576120ce612f10565b60200260200101519250505095945050505050565b60405163095ea7b360e01b81526000906001600160a01b0388169063095ea7b390612114908b908890600401612d74565b6020604051808303816000875af1158015612133573d6000803e3d6000fd5b505050506040513d601f19601f820116820180604052508101906121579190612c86565b506040805160038082526080820190925260009160208201606080368337019050509050878160008151811061218f5761218f612f10565b60200260200101906001600160a01b031690816001600160a01b03168152505086816001815181106121c3576121c3612f10565b60200260200101906001600160a01b031690816001600160a01b03168152505085816002815181106121f7576121f7612f10565b6001600160a01b0392831660209182029290920101526040516338ed173960e01b81526000918b16906338ed17399061223c908990899087908a904290600401613222565b6000604051808303816000875af115801561225b573d6000803e3d6000fd5b505050506040513d6000823e601f3d908101601f1916820160405261228391908101906131e7565b90508060028151811061229857612298612f10565b602002602001015192505050979650505050505050565b80516a636f6e736f6c652e6c6f67602083016000808483855afa5050505050565b60606105e26001600160a01b03831660145b606060006122f1836002612db3565b6122fc906002612df5565b67ffffffffffffffff811115612314576123146126b8565b6040519080825280601f01601f19166020018201604052801561233e576020820181803683370190505b509050600360fc1b8160008151811061235957612359612f10565b60200101906001600160f81b031916908160001a905350600f60fb1b8160018151811061238857612388612f10565b60200101906001600160f81b031916908160001a90535060006123ac846002612db3565b6123b7906001612df5565b90505b600181111561242f576f181899199a1a9b1b9c1cb0b131b232b360811b85600f16601081106123eb576123eb612f10565b1a60f81b82828151811061240157612401612f10565b60200101906001600160f81b031916908160001a90535060049490941c936124288161326b565b90506123ba565b5083156116c15760405162461bcd60e51b8152600401610649906132b4565b61245781611ee9565b6040516001600160a01b038216907fbc7cd75a20ee27fd9adebab32041f755214dbc6bffa90cc0225b39da2e5c2d3b90600090a250565b60606116c18383604051806060016040528060278152602001613355602791396060600080856001600160a01b0316856040516124cb91906132c4565b600060405180830381855af49150503d8060008114612506576040519150601f19603f3d011682016040523d82523d6000602084013e61250b565b606091505b509150915061251c86838387612526565b9695505050505050565b6060831561256557825160000361255e576001600160a01b0385163b61255e5760405162461bcd60e51b815260040161064990613304565b508161108e565b61108e838381511561257a5781518083602001fd5b8060405162461bcd60e51b81526004016106499190612ff9565b6001600160e01b031981165b811461073c57600080fd5b80356105e281612594565b6000602082840312156125cb576125cb600080fd5b600061108e84846125ab565b8015155b82525050565b602081016105e282846125d7565b806125db565b602081016105e282846125ef565b806125a0565b80356105e281612603565b60006020828403121561262957612629600080fd5b600061108e8484612609565b60006001600160a01b0382166105e2565b6125a081612635565b80356105e281612646565b6000806040838503121561267057612670600080fd5b600061267c8585612609565b925050602061268d8582860161264f565b9150509250929050565b6000602082840312156126ac576126ac600080fd5b600061108e848461264f565b634e487b7160e01b600052604160045260246000fd5b601f19601f830116810181811067ffffffffffffffff821117156126f4576126f46126b8565b6040525050565b600061270660405190565b9050610ece82826126ce565b600067ffffffffffffffff82111561272c5761272c6126b8565b601f19601f83011660200192915050565b82818337506000910152565b600061275c61275784612712565b6126fb565b90508281526020810184848401111561277757612777600080fd5b61278284828561273d565b509392505050565b600082601f83011261279e5761279e600080fd5b813561108e848260208601612749565b600080604083850312156127c4576127c4600080fd5b60006127d0858561264f565b925050602083013567ffffffffffffffff8111156127f0576127f0600080fd5b61268d8582860161278a565b6125db81612635565b602081016105e282846127fc565b600060c0828403121561282857612828600080fd5b50919050565b600060c0828403121561284357612843600080fd5b600061108e8484612813565b6000806040838503121561286557612865600080fd5b6000612871858561264f565b925050602061268d85828601612609565b60008060006060848603121561289a5761289a600080fd5b60006128a68686612609565b93505060206128b786828701612609565b92505060406128c886828701612609565b9150509250925092565b60006105e282612635565b60006105e2826128d2565b6125db816128dd565b602081016105e282846128e8565b8015156125a0565b80356105e2816128ff565b6000806000806080858703121561292b5761292b600080fd5b6000612937878761264f565b945050602061294887828801612609565b93505060406129598782880161264f565b925050606061296a87828801612907565b91505092959194509250565b602f81526000602082017f416363657373436f6e74726f6c3a2063616e206f6e6c792072656e6f756e636581526e103937b632b9903337b91039b2b63360891b602082015291505b5060400190565b602080825281016105e281612976565b602c81526000602082017f46756e6374696f6e206d7573742062652063616c6c6564207468726f7567682081526b19195b1959d85d1958d85b1b60a21b602082015291506129be565b602080825281016105e2816129d5565b602c81526000602082017f46756e6374696f6e206d7573742062652063616c6c6564207468726f7567682081526b6163746976652070726f787960a01b602082015291506129be565b602080825281016105e281612a2e565b603881526000602082017f555550535570677261646561626c653a206d757374206e6f742062652063616c81527f6c6564207468726f7567682064656c656761746563616c6c0000000000000000602082015291506129be565b602080825281016105e281612a87565b60148152600060208201735265737472696374656420746f2061646d696e7360601b815291505b5060200190565b602080825281016105e281612af1565b602e81526000602082017f496e697469616c697a61626c653a20636f6e747261637420697320616c72656181526d191e481a5b9a5d1a585b1a5e995960921b602082015291506129be565b602080825281016105e281612b2f565b600060ff82166105e2565b6125db81612b8a565b602081016105e28284612b95565b601881526000602082017f5a65726f2061646472657373206e6f7420616c6c6f776564000000000000000081529150612b18565b602080825281016105e281612bac565b601f81526000602082017f5265737472696374656420746f20504f5254464f4c494f5f4d414e414745520081529150612b18565b602080825281016105e281612bf0565b80516105e281612603565b600060208284031215612c5457612c54600080fd5b600061108e8484612c34565b60408101612c6e82856125ef565b6116c160208301846127fc565b80516105e2816128ff565b600060208284031215612c9b57612c9b600080fd5b600061108e8484612c7b565b602281526000602082017f5265737472696374656420746f20504f5254464f4c494f5f4147454e545f524f8152614c4560f01b602082015291506129be565b602080825281016105e281612ca7565b60608101612d0482866125ef565b612d1160208301856125ef565b61108e60408301846125ef565b602981526000602082017f52657475726e65642076616c7565206c657373207468616e2072657175657374815268195908185b5bdd5b9d60ba1b602082015291506129be565b602080825281016105e281612d1e565b60408101612d8282856127fc565b6116c160208301846125ef565b60408101612d8282856125ef565b634e487b7160e01b600052601160045260246000fd5b818102808215838204851417611b0f57611b0f612d9d565b634e487b7160e01b600052601260045260246000fd5b600082612df057612df0612dcb565b500490565b808201808211156105e2576105e2612d9d565b602e81526000602082017f45524331393637557067726164653a206e657720696d706c656d656e7461746981526d6f6e206973206e6f74205555505360901b602082015291506129be565b602080825281016105e281612e08565b602981526000602082017f45524331393637557067726164653a20756e737570706f727465642070726f788152681a58589b195555525160ba1b602082015291506129be565b602080825281016105e281612e63565b818103818111156105e2576105e2612d9d565b601981526000602082017f536f6d6520746f6b656e206e6f7420636f6d70617469626c650000000000000081529150612b18565b602080825281016105e281612ecc565b634e487b7160e01b600052603260045260246000fd5b6000612f3283836127fc565b505060200190565b6000612f44825190565b80845260209384019383018060005b83811015612f78578151612f678882612f26565b975060208301925050600101612f53565b509495945050505050565b60408101612f9182856127fc565b818103602083015261108e8184612f3a565b60005b83811015612fbe578181015183820152602001612fa6565b50506000910152565b6000612fd1825190565b808452602084019350612fe8818560208601612fa3565b601f01601f19169290920192915050565b602080825281016116c18184612fc7565b6000613014825190565b613022818560208601612fa3565b9290920192915050565b7f416363657373436f6e74726f6c3a206163636f756e74200000000000000000008152601701600061305e828561300a565b7001034b99036b4b9b9b4b733903937b6329607d1b8152601101915061108e828461300a565b602d81526000602082017f455243313936373a206e657720696d706c656d656e746174696f6e206973206e81526c1bdd08184818dbdb9d1c9858dd609a1b602082015291506129be565b602080825281016105e281613084565b602b81526000602082017f496e697469616c697a61626c653a20636f6e7472616374206973206e6f74206981526a6e697469616c697a696e6760a81b602082015291506129be565b602080825281016105e2816130de565b60408101612f9182856125ef565b600067ffffffffffffffff82111561315e5761315e6126b8565b5060209081020190565b600061317661275784613144565b8381529050602080820190840283018581111561319557613195600080fd5b835b818110156131b957806131aa8882612c34565b84525060209283019201613197565b5050509392505050565b600082601f8301126131d7576131d7600080fd5b815161108e848260208601613168565b6000602082840312156131fc576131fc600080fd5b815167ffffffffffffffff81111561321657613216600080fd5b61108e848285016131c3565b60a0810161323082886125ef565b61323d60208301876125ef565b818103604083015261324f8186612f3a565b905061325e60608301856127fc565b61251c60808301846125ef565b60008161327a5761327a612d9d565b506000190190565b60208082527f537472696e67733a20686578206c656e67746820696e73756666696369656e7491019081526000612b18565b602080825281016105e281613282565b60006116c1828461300a565b601d81526000602082017f416464726573733a2063616c6c20746f206e6f6e2d636f6e747261637400000081529150612b18565b602080825281016105e2816132d056fe90c2aa7471c04182221f68e80c07ab1e5946e4c63f8693e14ca40385d529f051360894a13ba1a3210667c828492db98dca3e2076cc3735a920a3ca505d382bbc416464726573733a206c6f772d6c6576656c2064656c65676174652063616c6c206661696c6564a26469706673582212205cf17bed5a641284db573bf4d9a3e7db6c387175773a76b152a57a0f74e4d24064736f6c63430008110033",
  "linkReferences": {},
  "deployedLinkReferences": {}
}