{
  "address": "0xf268720C1186bD348dE829FdDC64B07480054Dde",
  "abi": [
    {
      "inputs": [],
      "stateMutability": "nonpayable",
      "type": "constructor"
    },
    {
      "anonymous": false,
      "inputs": [
        {
          "indexed": false,
          "internalType": "address",
          "name": "previousAdmin",
          "type": "address"
        },
        {
          "indexed": false,
          "internalType": "address",
          "name": "newAdmin",
          "type": "address"
        }
      ],
      "name": "AdminChanged",
      "type": "event"
    },
    {
      "anonymous": false,
      "inputs": [
        {
          "indexed": true,
          "internalType": "address",
          "name": "beacon",
          "type": "address"
        }
      ],
      "name": "BeaconUpgraded",
      "type": "event"
    },
    {
      "anonymous": false,
      "inputs": [
        {
          "indexed": false,
          "internalType": "uint8",
          "name": "version",
          "type": "uint8"
        }
      ],
      "name": "Initialized",
      "type": "event"
    },
    {
      "anonymous": false,
      "inputs": [
        {
          "indexed": false,
          "internalType": "address",
          "name": "value",
          "type": "address"
        }
      ],
      "name": "PortfolioManagerUpdated",
      "type": "event"
    },
    {
      "anonymous": false,
      "inputs": [
        {
          "indexed": false,
          "internalType": "uint256",
          "name": "amount",
          "type": "uint256"
        }
      ],
      "name": "Reward",
      "type": "event"
    },
    {
      "anonymous": false,
      "inputs": [
        {
          "indexed": true,
          "internalType": "bytes32",
          "name": "role",
          "type": "bytes32"
        },
        {
          "indexed": true,
          "internalType": "bytes32",
          "name": "previousAdminRole",
          "type": "bytes32"
        },
        {
          "indexed": true,
          "internalType": "bytes32",
          "name": "newAdminRole",
          "type": "bytes32"
        }
      ],
      "name": "RoleAdminChanged",
      "type": "event"
    },
    {
      "anonymous": false,
      "inputs": [
        {
          "indexed": true,
          "internalType": "bytes32",
          "name": "role",
          "type": "bytes32"
        },
        {
          "indexed": true,
          "internalType": "address",
          "name": "account",
          "type": "address"
        },
        {
          "indexed": true,
          "internalType": "address",
          "name": "sender",
          "type": "address"
        }
      ],
      "name": "RoleGranted",
      "type": "event"
    },
    {
      "anonymous": false,
      "inputs": [
        {
          "indexed": true,
          "internalType": "bytes32",
          "name": "role",
          "type": "bytes32"
        },
        {
          "indexed": true,
          "internalType": "address",
          "name": "account",
          "type": "address"
        },
        {
          "indexed": true,
          "internalType": "address",
          "name": "sender",
          "type": "address"
        }
      ],
      "name": "RoleRevoked",
      "type": "event"
    },
    {
      "anonymous": false,
      "inputs": [
        {
          "indexed": false,
          "internalType": "uint256",
          "name": "swapSlippageBP",
          "type": "uint256"
        },
        {
          "indexed": false,
          "internalType": "uint256",
          "name": "navSlippageBP",
          "type": "uint256"
        },
        {
          "indexed": false,
          "internalType": "uint256",
          "name": "stakeSlippageBP",
          "type": "uint256"
        }
      ],
      "name": "SlippagesUpdated",
      "type": "event"
    },
    {
      "anonymous": false,
      "inputs": [
        {
          "indexed": false,
          "internalType": "uint256",
          "name": "amount",
          "type": "uint256"
        }
      ],
      "name": "Stake",
      "type": "event"
    },
    {
      "anonymous": false,
      "inputs": [],
      "name": "StrategyUpdatedParams",
      "type": "event"
    },
    {
      "anonymous": false,
      "inputs": [
        {
          "indexed": false,
          "internalType": "uint256",
          "name": "amount",
          "type": "uint256"
        },
        {
          "indexed": false,
          "internalType": "uint256",
          "name": "amountReceived",
          "type": "uint256"
        }
      ],
      "name": "Unstake",
      "type": "event"
    },
    {
      "anonymous": false,
      "inputs": [
        {
          "indexed": true,
          "internalType": "address",
          "name": "implementation",
          "type": "address"
        }
      ],
      "name": "Upgraded",
      "type": "event"
    },
    {
      "inputs": [],
      "name": "DEFAULT_ADMIN_ROLE",
      "outputs": [
        {
          "internalType": "bytes32",
          "name": "",
          "type": "bytes32"
        }
      ],
      "stateMutability": "view",
      "type": "function"
    },
    {
      "inputs": [],
      "name": "PORTFOLIO_AGENT_ROLE",
      "outputs": [
        {
          "internalType": "bytes32",
          "name": "",
          "type": "bytes32"
        }
      ],
      "stateMutability": "view",
      "type": "function"
    },
    {
      "inputs": [],
      "name": "PORTFOLIO_MANAGER",
      "outputs": [
        {
          "internalType": "bytes32",
          "name": "",
          "type": "bytes32"
        }
      ],
      "stateMutability": "view",
      "type": "function"
    },
    {
      "inputs": [],
      "name": "busd",
      "outputs": [
        {
          "internalType": "contract IERC20",
          "name": "",
          "type": "address"
        }
      ],
      "stateMutability": "view",
      "type": "function"
    },
    {
      "inputs": [],
      "name": "busdDm",
      "outputs": [
        {
          "internalType": "uint256",
          "name": "",
          "type": "uint256"
        }
      ],
      "stateMutability": "view",
      "type": "function"
    },
    {
      "inputs": [
        {
          "internalType": "address",
          "name": "_to",
          "type": "address"
        }
      ],
      "name": "claimRewards",
      "outputs": [
        {
          "internalType": "uint256",
          "name": "",
          "type": "uint256"
        }
      ],
      "stateMutability": "nonpayable",
      "type": "function"
    },
    {
      "inputs": [
        {
          "internalType": "bytes32",
          "name": "role",
          "type": "bytes32"
        }
      ],
      "name": "getRoleAdmin",
      "outputs": [
        {
          "internalType": "bytes32",
          "name": "",
          "type": "bytes32"
        }
      ],
      "stateMutability": "view",
      "type": "function"
    },
    {
      "inputs": [
        {
          "internalType": "bytes32",
          "name": "role",
          "type": "bytes32"
        },
        {
          "internalType": "address",
          "name": "account",
          "type": "address"
        }
      ],
      "name": "grantRole",
      "outputs": [],
      "stateMutability": "nonpayable",
      "type": "function"
    },
    {
      "inputs": [
        {
          "internalType": "bytes32",
          "name": "role",
          "type": "bytes32"
        },
        {
          "internalType": "address",
          "name": "account",
          "type": "address"
        }
      ],
      "name": "hasRole",
      "outputs": [
        {
          "internalType": "bool",
          "name": "",
          "type": "bool"
        }
      ],
      "stateMutability": "view",
      "type": "function"
    },
    {
      "inputs": [],
      "name": "initialize",
      "outputs": [],
      "stateMutability": "nonpayable",
      "type": "function"
    },
    {
      "inputs": [],
      "name": "liquidationValue",
      "outputs": [
        {
          "internalType": "uint256",
          "name": "",
          "type": "uint256"
        }
      ],
      "stateMutability": "view",
      "type": "function"
    },
    {
      "inputs": [],
      "name": "lpBusd",
      "outputs": [
        {
          "internalType": "contract IAsset",
          "name": "",
          "type": "address"
        }
      ],
      "stateMutability": "view",
      "type": "function"
    },
    {
      "inputs": [],
      "name": "lpBusdDm",
      "outputs": [
        {
          "internalType": "uint256",
          "name": "",
          "type": "uint256"
        }
      ],
      "stateMutability": "view",
      "type": "function"
    },
    {
      "inputs": [],
      "name": "navSlippageBP",
      "outputs": [
        {
          "internalType": "uint256",
          "name": "",
          "type": "uint256"
        }
      ],
      "stateMutability": "view",
      "type": "function"
    },
    {
      "inputs": [],
      "name": "netAssetValue",
      "outputs": [
        {
          "internalType": "uint256",
          "name": "",
          "type": "uint256"
        }
      ],
      "stateMutability": "view",
      "type": "function"
    },
    {
      "inputs": [],
      "name": "oracleBusd",
      "outputs": [
        {
          "internalType": "contract IPriceFeed",
          "name": "",
          "type": "address"
        }
      ],
      "stateMutability": "view",
      "type": "function"
    },
    {
      "inputs": [],
      "name": "oracleUsdc",
      "outputs": [
        {
          "internalType": "contract IPriceFeed",
          "name": "",
          "type": "address"
        }
      ],
      "stateMutability": "view",
      "type": "function"
    },
    {
      "inputs": [],
      "name": "pancakeRouter",
      "outputs": [
        {
          "internalType": "contract IPancakeRouter02",
          "name": "",
          "type": "address"
        }
      ],
      "stateMutability": "view",
      "type": "function"
    },
    {
      "inputs": [],
      "name": "pool",
      "outputs": [
        {
          "internalType": "address",
          "name": "",
          "type": "address"
        }
      ],
      "stateMutability": "view",
      "type": "function"
    },
    {
      "inputs": [],
      "name": "poolDepositor",
      "outputs": [
        {
          "internalType": "contract IPoolDepositor",
          "name": "",
          "type": "address"
        }
      ],
      "stateMutability": "view",
      "type": "function"
    },
    {
      "inputs": [],
      "name": "portfolioManager",
      "outputs": [
        {
          "internalType": "address",
          "name": "",
          "type": "address"
        }
      ],
      "stateMutability": "view",
      "type": "function"
    },
    {
      "inputs": [],
      "name": "proxiableUUID",
      "outputs": [
        {
          "internalType": "bytes32",
          "name": "",
          "type": "bytes32"
        }
      ],
      "stateMutability": "view",
      "type": "function"
    },
    {
      "inputs": [
        {
          "internalType": "bytes32",
          "name": "role",
          "type": "bytes32"
        },
        {
          "internalType": "address",
          "name": "account",
          "type": "address"
        }
      ],
      "name": "renounceRole",
      "outputs": [],
      "stateMutability": "nonpayable",
      "type": "function"
    },
    {
      "inputs": [
        {
          "internalType": "bytes32",
          "name": "role",
          "type": "bytes32"
        },
        {
          "internalType": "address",
          "name": "account",
          "type": "address"
        }
      ],
      "name": "revokeRole",
      "outputs": [],
      "stateMutability": "nonpayable",
      "type": "function"
    },
    {
      "inputs": [
        {
          "components": [
            {
              "internalType": "address",
              "name": "busd",
              "type": "address"
            },
            {
              "internalType": "address",
              "name": "usdc",
              "type": "address"
            },
            {
              "internalType": "address",
              "name": "wom",
              "type": "address"
            },
            {
              "internalType": "address",
              "name": "wmx",
              "type": "address"
            },
            {
              "internalType": "address",
              "name": "lpBusd",
              "type": "address"
            },
            {
              "internalType": "address",
              "name": "wmxLpBusd",
              "type": "address"
            },
            {
              "internalType": "address",
              "name": "poolDepositor",
              "type": "address"
            },
            {
              "internalType": "address",
              "name": "pool",
              "type": "address"
            },
            {
              "internalType": "address",
              "name": "pancakeRouter",
              "type": "address"
            },
            {
              "internalType": "address",
              "name": "wombatRouter",
              "type": "address"
            },
            {
              "internalType": "address",
              "name": "oracleBusd",
              "type": "address"
            },
            {
              "internalType": "address",
              "name": "oracleUsdc",
              "type": "address"
            },
            {
              "internalType": "address",
              "name": "usdt",
              "type": "address"
            }
          ],
          "internalType": "struct StrategyWombexBusd.StrategyParams",
          "name": "params",
          "type": "tuple"
        }
      ],
      "name": "setParams",
      "outputs": [],
      "stateMutability": "nonpayable",
      "type": "function"
    },
    {
      "inputs": [
        {
          "internalType": "address",
          "name": "_value",
          "type": "address"
        }
      ],
      "name": "setPortfolioManager",
      "outputs": [],
      "stateMutability": "nonpayable",
      "type": "function"
    },
    {
      "inputs": [
        {
          "internalType": "uint256",
          "name": "_swapSlippageBP",
          "type": "uint256"
        },
        {
          "internalType": "uint256",
          "name": "_navSlippageBP",
          "type": "uint256"
        },
        {
          "internalType": "uint256",
          "name": "_stakeSlippageBP",
          "type": "uint256"
        }
      ],
      "name": "setSlippages",
      "outputs": [],
      "stateMutability": "nonpayable",
      "type": "function"
    },
    {
      "inputs": [
        {
          "internalType": "address",
          "name": "_asset",
          "type": "address"
        },
        {
          "internalType": "uint256",
          "name": "_amount",
          "type": "uint256"
        }
      ],
      "name": "stake",
      "outputs": [],
      "stateMutability": "nonpayable",
      "type": "function"
    },
    {
      "inputs": [],
      "name": "stakeSlippageBP",
      "outputs": [
        {
          "internalType": "uint256",
          "name": "",
          "type": "uint256"
        }
      ],
      "stateMutability": "view",
      "type": "function"
    },
    {
      "inputs": [
        {
          "internalType": "bytes4",
          "name": "interfaceId",
          "type": "bytes4"
        }
      ],
      "name": "supportsInterface",
      "outputs": [
        {
          "internalType": "bool",
          "name": "",
          "type": "bool"
        }
      ],
      "stateMutability": "view",
      "type": "function"
    },
    {
      "inputs": [],
      "name": "swapSlippageBP",
      "outputs": [
        {
          "internalType": "uint256",
          "name": "",
          "type": "uint256"
        }
      ],
      "stateMutability": "view",
      "type": "function"
    },
    {
      "inputs": [
        {
          "internalType": "address",
          "name": "_asset",
          "type": "address"
        },
        {
          "internalType": "uint256",
          "name": "_amount",
          "type": "uint256"
        },
        {
          "internalType": "address",
          "name": "_beneficiary",
          "type": "address"
        },
        {
          "internalType": "bool",
          "name": "_targetIsZero",
          "type": "bool"
        }
      ],
      "name": "unstake",
      "outputs": [
        {
          "internalType": "uint256",
          "name": "",
          "type": "uint256"
        }
      ],
      "stateMutability": "nonpayable",
      "type": "function"
    },
    {
      "inputs": [
        {
          "internalType": "address",
          "name": "newImplementation",
          "type": "address"
        }
      ],
      "name": "upgradeTo",
      "outputs": [],
      "stateMutability": "nonpayable",
      "type": "function"
    },
    {
      "inputs": [
        {
          "internalType": "address",
          "name": "newImplementation",
          "type": "address"
        },
        {
          "internalType": "bytes",
          "name": "data",
          "type": "bytes"
        }
      ],
      "name": "upgradeToAndCall",
      "outputs": [],
      "stateMutability": "payable",
      "type": "function"
    },
    {
      "inputs": [],
      "name": "usdc",
      "outputs": [
        {
          "internalType": "contract IERC20",
          "name": "",
          "type": "address"
        }
      ],
      "stateMutability": "view",
      "type": "function"
    },
    {
      "inputs": [],
      "name": "usdcDm",
      "outputs": [
        {
          "internalType": "uint256",
          "name": "",
          "type": "uint256"
        }
      ],
      "stateMutability": "view",
      "type": "function"
    },
    {
      "inputs": [],
      "name": "usdt",
      "outputs": [
        {
          "internalType": "contract IERC20",
          "name": "",
          "type": "address"
        }
      ],
      "stateMutability": "view",
      "type": "function"
    },
    {
      "inputs": [],
      "name": "usdtDm",
      "outputs": [
        {
          "internalType": "uint256",
          "name": "",
          "type": "uint256"
        }
      ],
      "stateMutability": "view",
      "type": "function"
    },
    {
      "inputs": [],
      "name": "wmx",
      "outputs": [
        {
          "internalType": "contract IERC20",
          "name": "",
          "type": "address"
        }
      ],
      "stateMutability": "view",
      "type": "function"
    },
    {
      "inputs": [],
      "name": "wmxLpBusd",
      "outputs": [
        {
          "internalType": "contract IBaseRewardPool",
          "name": "",
          "type": "address"
        }
      ],
      "stateMutability": "view",
      "type": "function"
    },
    {
      "inputs": [],
      "name": "wom",
      "outputs": [
        {
          "internalType": "contract IERC20",
          "name": "",
          "type": "address"
        }
      ],
      "stateMutability": "view",
      "type": "function"
    },
    {
      "inputs": [],
      "name": "wombatRouter",
      "outputs": [
        {
          "internalType": "contract IWombatRouter",
          "name": "",
          "type": "address"
        }
      ],
      "stateMutability": "view",
      "type": "function"
    }
  ],
  "numDeployments": 4,
  "solcInputHash": "601d6cbf64003f595febadba50e3250e",
  "bytecode": "0x60a0604052306080523480156200001557600080fd5b50600054610100900460ff1615808015620000375750600054600160ff909116105b8062000067575062000054306200010860201b6200160c1760201c565b15801562000067575060005460ff166001145b6200008f5760405162461bcd60e51b8152600401620000869062000117565b60405180910390fd5b6000805460ff191660011790558015620000b3576000805461ff0019166101001790555b801562000101576000805461ff00191690556040517f7f26b83ff96e1f2b6a682f133852f6798a09c465da95921460cefb384740249890620000f8906001906200018d565b60405180910390a15b506200019d565b6001600160a01b03163b151590565b602080825281016200016a81602e81527f496e697469616c697a61626c653a20636f6e747261637420697320616c72656160208201526d191e481a5b9a5d1a585b1a5e995960921b604082015260600190565b92915050565b600060ff82166200016a565b620001878162000170565b82525050565b602081016200016a82846200017c565b608051614542620001d56000396000818161084f0152818161088f0152818161092e0152818161096e01526109fd01526145426000f3fe6080604052600436106102515760003560e01c8063620b75df11610139578063ae30c110116100b6578063c5a6222e1161007a578063c5a6222e146106dc578063d547741f146106fd578063dc19d6431461071d578063df313cc714610734578063ef5cfb8c14610754578063f6f6b8811461077457600080fd5b8063ae30c1101461064d578063bd25c6db1461066d578063bf52e0801461068e578063c21ebd07146106a4578063c4e064d1146106c557600080fd5b8063a217fddf116100fd578063a217fddf146105c2578063a3673b38146105d7578063a440b21a146105ec578063a66b57131461060c578063adc9772e1461062d57600080fd5b8063620b75df146105185780637d5f5802146105385780638129fc1c1461056c578063901368701461058157806391d14854146105a257600080fd5b80632f48ab7d116101d25780634f1ef286116101965780634f1ef2861461046457806352d1902d146104775780635ca558f81461048c5780635dbd733a146104a25780635fea9cbb146104d6578063612c87df146104f757600080fd5b80632f48ab7d146103c157806336568abe146103e25780633659cfe6146104025780633ca5b234146104225780633e413bee1461044357600080fd5b80631b1e7ddc116102195780631b1e7ddc146103225780631be43d0514610339578063248a9ca31461035a5780632576e65a1461038a5780632f2ff15d1461039f57600080fd5b806301ffc9a714610256578063083975d41461028c5780630f9033f7146102ba578063119cd879146102de57806316f0115b146102f4575b600080fd5b34801561026257600080fd5b5061027661027136600461346f565b610794565b604051610283919061349a565b60405180910390f35b34801561029857600080fd5b5061012f546102ad906001600160a01b031681565b60405161028391906134d8565b3480156102c657600080fd5b506102d161013c5481565b60405161028391906134ec565b3480156102ea57600080fd5b506102d160fd5481565b34801561030057600080fd5b5061013354610315906001600160a01b031681565b6040516102839190613503565b34801561032e57600080fd5b506102d161013a5481565b34801561034557600080fd5b50610130546102ad906001600160a01b031681565b34801561036657600080fd5b506102d1610375366004613522565b60009081526065602052604090206001015490565b34801561039657600080fd5b506102d16107cb565b3480156103ab57600080fd5b506103bf6103ba366004613557565b6107dc565b005b3480156103cd57600080fd5b5061013d546102ad906001600160a01b031681565b3480156103ee57600080fd5b506103bf6103fd366004613557565b610806565b34801561040e57600080fd5b506103bf61041d366004613594565b610845565b34801561042e57600080fd5b5061012d546102ad906001600160a01b031681565b34801561044f57600080fd5b50610136546102ad906001600160a01b031681565b6103bf6104723660046136b0565b610924565b34801561048357600080fd5b506102d16109f0565b34801561049857600080fd5b506102d160fe5481565b3480156104ae57600080fd5b506102d17fd67ad422505496469a1adf6cdf9e5ee92ac5d33992843c9ecc4b2f6d6cde913781565b3480156104e257600080fd5b50610138546102ad906001600160a01b031681565b34801561050357600080fd5b50610137546102ad906001600160a01b031681565b34801561052457600080fd5b5060fb54610315906001600160a01b031681565b34801561054457600080fd5b506102d17f90c2aa7471c04182221f68e80c07ab1e5946e4c63f8693e14ca40385d529f05181565b34801561057857600080fd5b506103bf610a4d565b34801561058d57600080fd5b50610131546102ad906001600160a01b031681565b3480156105ae57600080fd5b506102766105bd366004613557565b610b1b565b3480156105ce57600080fd5b506102d1600081565b3480156105e357600080fd5b506102d1610b46565b3480156105f857600080fd5b506103bf610607366004613594565b610b52565b34801561061857600080fd5b50610139546102ad906001600160a01b031681565b34801561063957600080fd5b506103bf6106483660046136fe565b610c4b565b34801561065957600080fd5b506103bf610668366004613731565b610d6e565b34801561067957600080fd5b50610132546102ad906001600160a01b031681565b34801561069a57600080fd5b506102d160fc5481565b3480156106b057600080fd5b50610134546102ad906001600160a01b031681565b3480156106d157600080fd5b506102d16101355481565b3480156106e857600080fd5b5061012e546102ad906001600160a01b031681565b34801561070957600080fd5b506103bf610718366004613557565b610e90565b34801561072957600080fd5b506102d161013b5481565b34801561074057600080fd5b506103bf61074f36600461379d565b610eb5565b34801561076057600080fd5b506102d161076f366004613594565b61138c565b34801561078057600080fd5b506102d161078f3660046137d2565b6113dd565b60006001600160e01b03198216637965db0b60e01b14806107c557506301ffc9a760e01b6001600160e01b03198316145b92915050565b60006107d7600061161b565b905090565b6000828152606560205260409020600101546107f781611880565b610801838361188a565b505050565b6001600160a01b03811633146108375760405162461bcd60e51b815260040161082e90613885565b60405180910390fd5b6108418282611910565b5050565b6001600160a01b037f000000000000000000000000000000000000000000000000000000000000000016300361088d5760405162461bcd60e51b815260040161082e906138de565b7f00000000000000000000000000000000000000000000000000000000000000006001600160a01b03166108d66000805160206144c6833981519152546001600160a01b031690565b6001600160a01b0316146108fc5760405162461bcd60e51b815260040161082e90613937565b61090581611977565b6040805160008082526020820190925261092191839190611982565b50565b6001600160a01b037f000000000000000000000000000000000000000000000000000000000000000016300361096c5760405162461bcd60e51b815260040161082e906138de565b7f00000000000000000000000000000000000000000000000000000000000000006001600160a01b03166109b56000805160206144c6833981519152546001600160a01b031690565b6001600160a01b0316146109db5760405162461bcd60e51b815260040161082e90613937565b6109e482611977565b61084182826001611982565b6000306001600160a01b037f00000000000000000000000000000000000000000000000000000000000000001614610a3a5760405162461bcd60e51b815260040161082e906139a1565b506000805160206144c683398151915290565b600054610100900460ff1615808015610a6d5750600054600160ff909116105b80610a875750303b158015610a87575060005460ff166001145b610aa35760405162461bcd60e51b815260040161082e906139fc565b6000805460ff191660011790558015610ac6576000805461ff0019166101001790555b610ace611a64565b8015610921576000805461ff00191690556040517f7f26b83ff96e1f2b6a682f133852f6798a09c465da95921460cefb384740249890610b1090600190613a20565b60405180910390a150565b60009182526065602090815260408084206001600160a01b0393909316845291905290205460ff1690565b60006107d7600161161b565b610b5d600033610b1b565b610b795760405162461bcd60e51b815260040161082e90613a5c565b6001600160a01b038116610b9f5760405162461bcd60e51b815260040161082e90613aa0565b60fb54610bd6907f90c2aa7471c04182221f68e80c07ab1e5946e4c63f8693e14ca40385d529f051906001600160a01b0316610e90565b610c007f90c2aa7471c04182221f68e80c07ab1e5946e4c63f8693e14ca40385d529f051826107dc565b60fb80546001600160a01b0319166001600160a01b0383161790556040517ff7b449fcd5cfb7379dcd34cb69428dd9f882033b15be33d83b42d91daa28eeb790610b10908390613503565b6000610cba306001600160a01b031663a3673b386040518163ffffffff1660e01b8152600401602060405180830381865afa158015610c8e573d6000803e3d6000fd5b505050506040513d601f19601f82011682018060405250810190610cb29190613abb565b60fd54611b49565b9050610d3283846001600160a01b03166370a08231306040518263ffffffff1660e01b8152600401610cec9190613503565b602060405180830381865afa158015610d09573d6000803e3d6000fd5b505050506040513d601f19601f82011682018060405250810190610d2d9190613abb565b611b73565b7f227a473b70d2f893cc7659219575c030a63b5743024fe1e0c1a680e708b1525a82604051610d6191906134ec565b60405180910390a1505050565b610d987fd67ad422505496469a1adf6cdf9e5ee92ac5d33992843c9ecc4b2f6d6cde913733610b1b565b80610e31575060fb54604051632474521560e21b81526001600160a01b03909116906391d1485490610df0907fd67ad422505496469a1adf6cdf9e5ee92ac5d33992843c9ecc4b2f6d6cde9137903390600401613adc565b602060405180830381865afa158015610e0d573d6000803e3d6000fd5b505050506040513d601f19601f82011682018060405250810190610e319190613b02565b610e4d5760405162461bcd60e51b815260040161082e90613b62565b60fc83905560fd82905560fe8190556040517f116fbf1e97a2be629ad98abfb6c332733c8996c2dfb174dd2efe8440df381d1a90610d6190859085908590613b72565b600082815260656020526040902060010154610eab81611880565b6108018383611910565b610ec0600033610b1b565b610edc5760405162461bcd60e51b815260040161082e90613a5c565b610ee96020820182613594565b61012d80546001600160a01b0319166001600160a01b0392909216919091179055610f1a6040820160208301613594565b61013680546001600160a01b0319166001600160a01b0392909216919091179055610f4b6060820160408301613594565b61012e80546001600160a01b0319166001600160a01b0392909216919091179055610f7c6080820160608301613594565b61012f80546001600160a01b0319166001600160a01b0392909216919091179055610faf6101a082016101808301613594565b61013d80546001600160a01b0319166001600160a01b0392909216919091179055610fe060a0820160808301613594565b61013080546001600160a01b0319166001600160a01b039290921691909117905561101160c0820160a08301613594565b61013180546001600160a01b0319166001600160a01b039290921691909117905561104260e0820160c08301613594565b61013280546001600160a01b0319166001600160a01b0392909216919091179055611074610100820160e08301613594565b61013380546001600160a01b0319166001600160a01b03929092169190911790556110a761012082016101008301613594565b61013480546001600160a01b0319166001600160a01b03929092169190911790556110da61014082016101208301613594565b61013780546001600160a01b0319166001600160a01b039290921691909117905561110d61016082016101408301613594565b61013980546001600160a01b0319166001600160a01b039290921691909117905561114061018082016101608301613594565b61013880546001600160a01b0319166001600160a01b039290921691909117905561116e6020820182613594565b6001600160a01b031663313ce5676040518163ffffffff1660e01b8152600401602060405180830381865afa1580156111ab573d6000803e3d6000fd5b505050506040513d601f19601f820116820180604052508101906111cf9190613bae565b6111da90600a613cf3565b61013b556111ee6040820160208301613594565b6001600160a01b031663313ce5676040518163ffffffff1660e01b8152600401602060405180830381865afa15801561122b573d6000803e3d6000fd5b505050506040513d601f19601f8201168201806040525081019061124f9190613bae565b61125a90600a613cf3565b61013a556112706101a082016101808301613594565b6001600160a01b031663313ce5676040518163ffffffff1660e01b8152600401602060405180830381865afa1580156112ad573d6000803e3d6000fd5b505050506040513d601f19601f820116820180604052508101906112d19190613bae565b6112dc90600a613cf3565b61013c556112f060a0820160808301613594565b6001600160a01b031663313ce5676040518163ffffffff1660e01b8152600401602060405180830381865afa15801561132d573d6000803e3d6000fd5b505050506040513d601f19601f820116820180604052508101906113519190613bae565b61135c90600a613cf3565b610135556040517fea5646eb3528e525944447a4a97de700dd472298626e5c0481d1c82c3da86ea590600090a150565b60008061139883611d97565b905080156107c5577f3ac0594a85a20354f9dc74f33728416d19ce00d04a406c108cc2dcf2cecea134816040516113cf91906134ec565b60405180910390a192915050565b600080611421306001600160a01b031663a3673b386040518163ffffffff1660e01b8152600401602060405180830381865afa158015610c8e573d6000803e3d6000fd5b905060008084156114485761143586611d97565b9050611441888761215d565b9150611475565b611453888888612543565b9150868210156114755760405162461bcd60e51b815260040161082e90613d4e565b6115166040518060400160405280601a81526020017f6e61763a202573206d696e4e617645787065637465643a202573000000000000815250306001600160a01b031663a3673b386040518163ffffffff1660e01b8152600401602060405180830381865afa1580156114ec573d6000803e3d6000fd5b505050506040513d601f19601f820116820180604052508101906115109190613abb565b856128a6565b60405163a9059cbb60e01b81526001600160a01b0389169063a9059cbb906115449089908690600401613d5e565b6020604051808303816000875af1158015611563573d6000803e3d6000fd5b505050506040513d601f19601f820116820180604052508101906115879190613b02565b507f9045c2ac9b2026de8075f2701bbdde882cd5e830b3b1ead9a15b22f2b5b9374287836040516115b9929190613d79565b60405180910390a180156115ff577f3ac0594a85a20354f9dc74f33728416d19ce00d04a406c108cc2dcf2cecea134816040516115f691906134ec565b60405180910390a15b509150505b949350505050565b6001600160a01b03163b151590565b610136546040516370a0823160e01b815260009182916001600160a01b03909116906370a0823190611651903090600401613503565b602060405180830381865afa15801561166e573d6000803e3d6000fd5b505050506040513d601f19601f820116820180604052508101906116929190613abb565b61012d546040516370a0823160e01b81529192506000916001600160a01b03909116906370a08231906116c9903090600401613503565b602060405180830381865afa1580156116e6573d6000803e3d6000fd5b505050506040513d601f19601f8201168201806040525081019061170a9190613abb565b610131546040516370a0823160e01b81529192506000916001600160a01b03909116906370a0823190611741903090600401613503565b602060405180830381865afa15801561175e573d6000803e3d6000fd5b505050506040513d601f19601f820116820180604052508101906117829190613abb565b9050801561181757610132546101305460405163135dbd1360e01b81526000926001600160a01b039081169263135dbd13926117c692909116908690600401613d5e565b6040805180830381865afa1580156117e2573d6000803e3d6000fd5b505050506040513d601f19601f820116820180604052508101906118069190613d87565b5090506118138184613dba565b9250505b811561187757841561183d5761182c826128ed565b6118369084613dba565b9250611877565b6101375461012d5461013d546101335461186a936001600160a01b039081169381169281169116866129f9565b6118749084613dba565b92505b50909392505050565b6109218133612b4d565b6118948282610b1b565b6108415760008281526065602090815260408083206001600160a01b03851684529091529020805460ff191660011790556118cc3390565b6001600160a01b0316816001600160a01b0316837f2f8788117e7eff1d82e926ec794901d17c78024a50270940304540a733656f0d60405160405180910390a45050565b61191a8282610b1b565b156108415760008281526065602090815260408083206001600160a01b0385168085529252808320805460ff1916905551339285917ff6391f5c32d9c69d2a47ea670b442974b53935d1edc7fd64eb21e047a839171b9190a45050565b600061084181611880565b7f4910fdfa16fed3260ed0e7147f7cc6da11a60208b5b9406d12a635614ffd91435460ff16156119b55761080183612ba6565b826001600160a01b03166352d1902d6040518163ffffffff1660e01b8152600401602060405180830381865afa925050508015611a0f575060408051601f3d908101601f19168201909252611a0c91810190613abb565b60015b611a2b5760405162461bcd60e51b815260040161082e90613e18565b6000805160206144c68339815191528114611a585760405162461bcd60e51b815260040161082e90613e6e565b50610801838383612bfc565b600054610100900460ff1615808015611a845750600054600160ff909116105b80611a9e5750303b158015611a9e575060005460ff166001145b611aba5760405162461bcd60e51b815260040161082e906139fc565b6000805460ff191660011790558015611add576000805461ff0019166101001790555b611ae5612c27565b611aed612c27565b611af860003361188a565b601960fc55602360fd55600460fe558015610921576000805461ff00191690556040517f7f26b83ff96e1f2b6a682f133852f6798a09c465da95921460cefb384740249890610b1090600190613a20565b6000612710611b588382613e7e565b611b629085613e91565b611b6c9190613ec6565b9392505050565b61012d546001600160a01b03838116911614611ba15760405162461bcd60e51b815260040161082e90613f0e565b61012d546040516370a0823160e01b81526000916001600160a01b0316906370a0823190611bd3903090600401613503565b602060405180830381865afa158015611bf0573d6000803e3d6000fd5b505050506040513d601f19601f82011682018060405250810190611c149190613abb565b6101325461013054604051630650739d60e41b81529293506000926001600160a01b039283169263650739d092611c52929116908690600401613d5e565b6040805180830381865afa158015611c6e573d6000803e3d6000fd5b505050506040513d601f19601f82011682018060405250810190611c929190613d87565b5090506000611ca38260fe54611b49565b61012d546101325460405163095ea7b360e01b81529293506001600160a01b039182169263095ea7b392611cdd9216908790600401613d5e565b6020604051808303816000875af1158015611cfc573d6000803e3d6000fd5b505050506040513d601f19601f82011682018060405250810190611d209190613b02565b506101325461013054604051633f90794960e21b81526001600160a01b039283169263fe41e52492611d5e9291169087908690600190600401613f1e565b600060405180830381600087803b158015611d7857600080fd5b505af1158015611d8c573d6000803e3d6000fd5b505050505050505050565b610131546040516370a0823160e01b815260009182916001600160a01b03909116906370a0823190611dcd903090600401613503565b602060405180830381865afa158015611dea573d6000803e3d6000fd5b505050506040513d601f19601f82011682018060405250810190611e0e9190613abb565b90508015611e8f5761013154604051637050ccd960e01b81526001600160a01b0390911690637050ccd990611e4a903090600090600401613f53565b6020604051808303816000875af1158015611e69573d6000803e3d6000fd5b505050506040513d601f19601f82011682018060405250810190611e8d9190613b02565b505b61012e546040516370a0823160e01b8152600091829182916001600160a01b0316906370a0823190611ec5903090600401613503565b602060405180830381865afa158015611ee2573d6000803e3d6000fd5b505050506040513d601f19601f82011682018060405250810190611f069190613abb565b90508015611f9c576101345461012e5461012d5461013d54600093611f40936001600160a01b039182169390821692908216911686612c50565b90508015611f9a576101345461012e5461012d5461013d54611f8d936001600160a01b039081169381169281169116866064611f7d886063613e91565b611f879190613ec6565b30612da0565b611f979084613dba565b92505b505b61012f546040516370a0823160e01b81526000916001600160a01b0316906370a0823190611fce903090600401613503565b602060405180830381865afa158015611feb573d6000803e3d6000fd5b505050506040513d601f19601f8201168201806040525081019061200f9190613abb565b90508015612095576101345461012f5461012d5461013d54600093612049936001600160a01b039182169390821692908216911686612c50565b90508015612093576101345461012f5461012d5461013d54612086936001600160a01b039081169381169281169116866064611f7d886063613e91565b6120909085613dba565b93505b505b82156121135761013d5460405163a9059cbb60e01b81526001600160a01b039091169063a9059cbb906120ce908a908790600401613d5e565b6020604051808303816000875af11580156120ed573d6000803e3d6000fd5b505050506040513d601f19601f820116820180604052508101906121119190613b02565b505b6121526040518060400160405280601f81526020017f7265776172647320636c61696d65642066726f6d20576f6d6265783a2025730081525084612f6d565b509095945050505050565b610131546040516370a0823160e01b815260009182916001600160a01b03909116906370a0823190612193903090600401613503565b602060405180830381865afa1580156121b0573d6000803e3d6000fd5b505050506040513d601f19601f820116820180604052508101906121d49190613abb565b9050806000036122585761012d546040516370a0823160e01b81526001600160a01b03909116906370a082319061220f903090600401613503565b602060405180830381865afa15801561222c573d6000803e3d6000fd5b505050506040513d601f19601f820116820180604052508101906122509190613abb565b9150506107c5565b610132546101305460405163135dbd1360e01b81526000926001600160a01b039081169263135dbd139261229492909116908690600401613d5e565b6040805180830381865afa1580156122b0573d6000803e3d6000fd5b505050506040513d601f19601f820116820180604052508101906122d49190613d87565b50905060006122e58260fe54611b49565b610131546101325460405163095ea7b360e01b81529293506001600160a01b039182169263095ea7b39261231f9216908790600401613d5e565b6020604051808303816000875af115801561233e573d6000803e3d6000fd5b505050506040513d601f19601f820116820180604052508101906123629190613b02565b5061013254610130546040516316762eed60e01b81526001600160a01b03928316926316762eed9261239f92911690879086903090600401613f6e565b600060405180830381600087803b1580156123b957600080fd5b505af11580156123cd573d6000803e3d6000fd5b505061012d546040516370a0823160e01b8152600093506001600160a01b0390911691506370a0823190612405903090600401613503565b602060405180830381865afa158015612422573d6000803e3d6000fd5b505050506040513d601f19601f820116820180604052508101906124469190613abb565b6101375461012d5461013d5461013354939450600093612479936001600160a01b039081169381169281169116866129f9565b905080156124c5576101375461012d5461013d54610133546124c3936001600160a01b039081169381169281169116866124bd6124b5826128ed565b60fc54611b49565b30612fb2565b505b61013d546040516370a0823160e01b81526001600160a01b03909116906370a08231906124f6903090600401613503565b602060405180830381865afa158015612513573d6000803e3d6000fd5b505050506040513d601f19601f820116820180604052508101906125379190613abb565b98975050505050505050565b61013d546000906001600160a01b038581169116146125745760405162461bcd60e51b815260040161082e90613f0e565b6101375461012d5461013d54610133546000936125a6936001600160a01b0391821693908216929082169116886129f9565b61013254610130546101355460405163135dbd1360e01b815293945087936000936001600160a01b039081169363135dbd13936125ea939290911691600401613d5e565b6040805180830381865afa158015612606573d6000803e3d6000fd5b505050506040513d601f19601f8201168201806040525081019061262a9190613d87565b509050600081610135546126408560fe54613145565b61264a9190613e91565b6126549190613ec6565b610131546101325460405163095ea7b360e01b81529293506001600160a01b039182169263095ea7b39261268e9216908590600401613d5e565b6020604051808303816000875af11580156126ad573d6000803e3d6000fd5b505050506040513d601f19601f820116820180604052508101906126d19190613b02565b5061013254610130546040516316762eed60e01b81526001600160a01b03928316926316762eed9261270e92911690859088903090600401613f6e565b600060405180830381600087803b15801561272857600080fd5b505af115801561273c573d6000803e3d6000fd5b505061012d546040516370a0823160e01b8152600093506001600160a01b0390911691506370a0823190612774903090600401613503565b602060405180830381865afa158015612791573d6000803e3d6000fd5b505050506040513d601f19601f820116820180604052508101906127b59190613abb565b6101375461012d5461013d54610133549394506000936127e8936001600160a01b039081169381169281169116866129f9565b90508015612826576101375461012d5461013d5461013354612824936001600160a01b039081169381169281169116866124bd6124b5826128ed565b505b61013d546040516370a0823160e01b81526001600160a01b03909116906370a0823190612857903090600401613503565b602060405180830381865afa158015612874573d6000803e3d6000fd5b505050506040513d601f19601f820116820180604052508101906128989190613abb565b9a9950505050505050505050565b6108018383836040516024016128be93929190613ff9565b60408051601f198184030181529190526020810180516001600160e01b031663ca47c4eb60e01b179052613154565b60008061013960009054906101000a90046001600160a01b03166001600160a01b03166350d25bcd6040518163ffffffff1660e01b8152600401602060405180830381865afa158015612944573d6000803e3d6000fd5b505050506040513d601f19601f820116820180604052508101906129689190613abb565b9050600061013860009054906101000a90046001600160a01b03166001600160a01b03166350d25bcd6040518163ffffffff1660e01b8152600401602060405180830381865afa1580156129c0573d6000803e3d6000fd5b505050506040513d601f19601f820116820180604052508101906129e49190613abb565b90506116048461013b5461013a548585613175565b604080516002808252606082018352600092839291906020830190803683370190505090508581600081518110612a3257612a32614019565b60200260200101906001600160a01b031690816001600160a01b0316815250508481600181518110612a6657612a66614019565b6001600160a01b0392909216602092830291909101909101526040805160018082528183019092526000918160200160208202803683370190505090508481600081518110612ab757612ab7614019565b6001600160a01b03928316602091820292909201015260405163b9e598c160e01b81526000918a169063b9e598c190612af890869086908a9060040161408c565b600060405180830381865afa158015612b15573d6000803e3d6000fd5b505050506040513d6000823e601f3d908101601f19168201604052612b3d9190810190614163565b5093505050505b95945050505050565b612b578282610b1b565b61084157612b64816131aa565b612b6f8360206131bc565b604051602001612b809291906141d3565b60408051601f198184030181529082905262461bcd60e51b825261082e9160040161422b565b6001600160a01b0381163b612bcd5760405162461bcd60e51b815260040161082e90614286565b6000805160206144c683398151915280546001600160a01b0319166001600160a01b0392909216919091179055565b612c0583613328565b600082511180612c125750805b1561080157612c218383613368565b50505050565b600054610100900460ff16612c4e5760405162461bcd60e51b815260040161082e906142de565b565b60408051600380825260808201909252600091829190602082016060803683370190505090508581600081518110612c8a57612c8a614019565b60200260200101906001600160a01b031690816001600160a01b0316815250508481600181518110612cbe57612cbe614019565b60200260200101906001600160a01b031690816001600160a01b0316815250508381600281518110612cf257612cf2614019565b6001600160a01b03928316602091820292909201015260405163d06ca61f60e01b815260009189169063d06ca61f90612d3190879086906004016142ee565b600060405180830381865afa158015612d4e573d6000803e3d6000fd5b505050506040513d6000823e601f3d908101601f19168201604052612d76919081019061430e565b905080600281518110612d8b57612d8b614019565b60200260200101519250505095945050505050565b60405163095ea7b360e01b81526000906001600160a01b0388169063095ea7b390612dd1908b908890600401613d5e565b6020604051808303816000875af1158015612df0573d6000803e3d6000fd5b505050506040513d601f19601f82011682018060405250810190612e149190613b02565b5060408051600380825260808201909252600091602082016060803683370190505090508781600081518110612e4c57612e4c614019565b60200260200101906001600160a01b031690816001600160a01b0316815250508681600181518110612e8057612e80614019565b60200260200101906001600160a01b031690816001600160a01b0316815250508581600281518110612eb457612eb4614019565b6001600160a01b0392831660209182029290920101526040516338ed173960e01b81526000918b16906338ed173990612ef9908990899087908a904290600401614349565b6000604051808303816000875af1158015612f18573d6000803e3d6000fd5b505050506040513d6000823e601f3d908101601f19168201604052612f40919081019061430e565b905080600281518110612f5557612f55614019565b6020026020010151925050505b979650505050505050565b6108418282604051602401612f83929190614392565b60408051601f198184030181529190526020810180516001600160e01b0316632d839cb360e21b179052613154565b60405163095ea7b360e01b81526000906001600160a01b0388169063095ea7b390612fe3908b908890600401613d5e565b6020604051808303816000875af1158015613002573d6000803e3d6000fd5b505050506040513d601f19601f820116820180604052508101906130269190613b02565b50604080516002808252606082018352600092602083019080368337019050509050878160008151811061305c5761305c614019565b60200260200101906001600160a01b031690816001600160a01b031681525050868160018151811061309057613090614019565b6001600160a01b03929092166020928302919091019091015260408051600180825281830190925260009181602001602082028036833701905050905086816000815181106130e1576130e1614019565b6001600160a01b03928316602091820292909201015260405163351041e960e21b8152908b169063d44107a49061312690859085908b908b908b9042906004016143b2565b6020604051808303816000875af1158015612874573d6000803e3d6000fd5b6000612710611b588382613dba565b80516a636f6e736f6c652e6c6f67602083016000808483855afa5050505050565b60006131818286613e91565b8361318c8689613e91565b6131969190613e91565b6131a09190613ec6565b9695505050505050565b60606107c56001600160a01b03831660145b606060006131cb836002613e91565b6131d6906002613dba565b67ffffffffffffffff8111156131ee576131ee6135b5565b6040519080825280601f01601f191660200182016040528015613218576020820181803683370190505b509050600360fc1b8160008151811061323357613233614019565b60200101906001600160f81b031916908160001a905350600f60fb1b8160018151811061326257613262614019565b60200101906001600160f81b031916908160001a9053506000613286846002613e91565b613291906001613dba565b90505b6001811115613309576f181899199a1a9b1b9c1cb0b131b232b360811b85600f16601081106132c5576132c5614019565b1a60f81b8282815181106132db576132db614019565b60200101906001600160f81b031916908160001a90535060049490941c936133028161440d565b9050613294565b508315611b6c5760405162461bcd60e51b815260040161082e90614456565b61333181612ba6565b6040516001600160a01b038216907fbc7cd75a20ee27fd9adebab32041f755214dbc6bffa90cc0225b39da2e5c2d3b90600090a250565b60606001600160a01b0383163b6133915760405162461bcd60e51b815260040161082e906144a9565b600080846001600160a01b0316846040516133ac91906144b9565b600060405180830381855af49150503d80600081146133e7576040519150601f19603f3d011682016040523d82523d6000602084013e6133ec565b606091505b5091509150612b4482826040518060600160405280602781526020016144e6602791396060831561341e575081611b6c565b611b6c83838151156134335781518083602001fd5b8060405162461bcd60e51b815260040161082e919061422b565b6001600160e01b031981165b811461092157600080fd5b80356107c58161344d565b60006020828403121561348457613484600080fd5b60006116048484613464565b8015155b82525050565b602081016107c58284613490565b60006001600160a01b0382166107c5565b60006107c5826134a8565b60006107c5826134b9565b613494816134c4565b602081016107c582846134cf565b80613494565b602081016107c582846134e6565b613494816134a8565b602081016107c582846134fa565b80613459565b80356107c581613511565b60006020828403121561353757613537600080fd5b60006116048484613517565b613459816134a8565b80356107c581613543565b6000806040838503121561356d5761356d600080fd5b60006135798585613517565b925050602061358a8582860161354c565b9150509250929050565b6000602082840312156135a9576135a9600080fd5b6000611604848461354c565b634e487b7160e01b600052604160045260246000fd5b601f19601f830116810181811067ffffffffffffffff821117156135f1576135f16135b5565b6040525050565b600061360360405190565b905061360f82826135cb565b919050565b600067ffffffffffffffff82111561362e5761362e6135b5565b601f19601f83011660200192915050565b82818337506000910152565b600061365e61365984613614565b6135f8565b90508281526020810184848401111561367957613679600080fd5b61368484828561363f565b509392505050565b600082601f8301126136a0576136a0600080fd5b813561160484826020860161364b565b600080604083850312156136c6576136c6600080fd5b60006136d2858561354c565b925050602083013567ffffffffffffffff8111156136f2576136f2600080fd5b61358a8582860161368c565b6000806040838503121561371457613714600080fd5b6000613720858561354c565b925050602061358a85828601613517565b60008060006060848603121561374957613749600080fd5b60006137558686613517565b935050602061376686828701613517565b925050604061377786828701613517565b9150509250925092565b60006101a0828403121561379757613797600080fd5b50919050565b60006101a082840312156137b3576137b3600080fd5b60006116048484613781565b801515613459565b80356107c5816137bf565b600080600080608085870312156137eb576137eb600080fd5b60006137f7878761354c565b945050602061380887828801613517565b93505060406138198782880161354c565b925050606061382a878288016137c7565b91505092959194509250565b602f81526000602082017f416363657373436f6e74726f6c3a2063616e206f6e6c792072656e6f756e636581526e103937b632b9903337b91039b2b63360891b602082015291505b5060400190565b602080825281016107c581613836565b602c81526000602082017f46756e6374696f6e206d7573742062652063616c6c6564207468726f7567682081526b19195b1959d85d1958d85b1b60a21b6020820152915061387e565b602080825281016107c581613895565b602c81526000602082017f46756e6374696f6e206d7573742062652063616c6c6564207468726f7567682081526b6163746976652070726f787960a01b6020820152915061387e565b602080825281016107c5816138ee565b603881526000602082017f555550535570677261646561626c653a206d757374206e6f742062652063616c81527f6c6564207468726f7567682064656c656761746563616c6c00000000000000006020820152915061387e565b602080825281016107c581613947565b602e81526000602082017f496e697469616c697a61626c653a20636f6e747261637420697320616c72656181526d191e481a5b9a5d1a585b1a5e995960921b6020820152915061387e565b602080825281016107c5816139b1565b600060ff82166107c5565b61349481613a0c565b602081016107c58284613a17565b60148152600060208201735265737472696374656420746f2061646d696e7360601b815291505b5060200190565b602080825281016107c581613a2e565b601881526000602082017f5a65726f2061646472657373206e6f7420616c6c6f776564000000000000000081529150613a55565b602080825281016107c581613a6c565b80516107c581613511565b600060208284031215613ad057613ad0600080fd5b60006116048484613ab0565b60408101613aea82856134e6565b611b6c60208301846134fa565b80516107c5816137bf565b600060208284031215613b1757613b17600080fd5b60006116048484613af7565b602281526000602082017f5265737472696374656420746f20504f5254464f4c494f5f4147454e545f524f8152614c4560f01b6020820152915061387e565b602080825281016107c581613b23565b60608101613b8082866134e6565b613b8d60208301856134e6565b61160460408301846134e6565b60ff8116613459565b80516107c581613b9a565b600060208284031215613bc357613bc3600080fd5b60006116048484613ba3565b634e487b7160e01b600052601160045260246000fd5b80825b6001851115613c2457808604811115613c0357613c03613bcf565b6001851615613c1157908102905b8002613c1d8560011c90565b9450613be8565b94509492505050565b600082613c3c57506001611b6c565b81613c4957506000611b6c565b8160018114613c5f5760028114613c6957613c96565b6001915050611b6c565b60ff841115613c7a57613c7a613bcf565b8360020a915084821115613c9057613c90613bcf565b50611b6c565b5060208310610133831016604e8410600b8410161715613cc9575081810a83811115613cc457613cc4613bcf565b611b6c565b613cd68484846001613be5565b92509050818404811115613cec57613cec613bcf565b0292915050565b600060ff83169250611b6c6000198484613c2d565b602981526000602082017f52657475726e65642076616c7565206c657373207468616e2072657175657374815268195908185b5bdd5b9d60ba1b6020820152915061387e565b602080825281016107c581613d08565b60408101613d6c82856134fa565b611b6c60208301846134e6565b60408101613d6c82856134e6565b60008060408385031215613d9d57613d9d600080fd5b6000613da98585613ab0565b925050602061358a85828601613ab0565b808201808211156107c5576107c5613bcf565b602e81526000602082017f45524331393637557067726164653a206e657720696d706c656d656e7461746981526d6f6e206973206e6f74205555505360901b6020820152915061387e565b602080825281016107c581613dcd565b602981526000602082017f45524331393637557067726164653a20756e737570706f727465642070726f788152681a58589b195555525160ba1b6020820152915061387e565b602080825281016107c581613e28565b818103818111156107c5576107c5613bcf565b818102808215838204851417613ea957613ea9613bcf565b5092915050565b634e487b7160e01b600052601260045260246000fd5b600082613ed557613ed5613eb0565b500490565b601981526000602082017f536f6d6520746f6b656e206e6f7420636f6d70617469626c650000000000000081529150613a55565b602080825281016107c581613eda565b60808101613f2c82876134fa565b613f3960208301866134e6565b613f4660408301856134e6565b612b446060830184613490565b60408101613f6182856134fa565b611b6c6020830184613490565b60808101613f7c82876134fa565b613f8960208301866134e6565b613f9660408301856134e6565b612b4460608301846134fa565b60005b83811015613fbe578181015183820152602001613fa6565b50506000910152565b6000613fd1825190565b808452602084019350613fe8818560208601613fa3565b601f01601f19169290920192915050565b6060808252810161400a8186613fc7565b9050613b8d60208301856134e6565b634e487b7160e01b600052603260045260246000fd5b600061403b83836134fa565b505060200190565b600061404d825190565b80845260209384019383018060005b83811015614081578151614070888261402f565b97506020830192505060010161405c565b509495945050505050565b6060808252810161409d8186614043565b905081810360208301526140b18185614043565b905061160460408301846134e6565b600067ffffffffffffffff8211156140da576140da6135b5565b5060209081020190565b60006140f2613659846140c0565b8381529050602080820190840283018581111561411157614111600080fd5b835b8181101561413557806141268882613ab0565b84525060209283019201614113565b5050509392505050565b600082601f83011261415357614153600080fd5b81516116048482602086016140e4565b6000806040838503121561417957614179600080fd5b60006141858585613ab0565b925050602083015167ffffffffffffffff8111156141a5576141a5600080fd5b61358a8582860161413f565b60006141bb825190565b6141c9818560208601613fa3565b9290920192915050565b7f416363657373436f6e74726f6c3a206163636f756e74200000000000000000008152601701600061420582856141b1565b7001034b99036b4b9b9b4b733903937b6329607d1b8152601101915061160482846141b1565b60208082528101611b6c8184613fc7565b602d81526000602082017f455243313936373a206e657720696d706c656d656e746174696f6e206973206e81526c1bdd08184818dbdb9d1c9858dd609a1b6020820152915061387e565b602080825281016107c58161423c565b602b81526000602082017f496e697469616c697a61626c653a20636f6e7472616374206973206e6f74206981526a6e697469616c697a696e6760a81b6020820152915061387e565b602080825281016107c581614296565b604081016142fc82856134e6565b81810360208301526116048184614043565b60006020828403121561432357614323600080fd5b815167ffffffffffffffff81111561433d5761433d600080fd5b6116048482850161413f565b60a0810161435782886134e6565b61436460208301876134e6565b81810360408301526143768186614043565b905061438560608301856134fa565b6131a060808301846134e6565b604080825281016143a38185613fc7565b9050611b6c60208301846134e6565b60c080825281016143c38189614043565b905081810360208301526143d78188614043565b90506143e660408301876134e6565b6143f360608301866134e6565b61440060808301856134fa565b612f6260a08301846134e6565b60008161441c5761441c613bcf565b506000190190565b60208082527f537472696e67733a20686578206c656e67746820696e73756666696369656e7491019081526000613a55565b602080825281016107c581614424565b602681526000602082017f416464726573733a2064656c65676174652063616c6c20746f206e6f6e2d636f8152651b9d1c9858dd60d21b6020820152915061387e565b602080825281016107c581614466565b6000611b6c82846141b156fe360894a13ba1a3210667c828492db98dca3e2076cc3735a920a3ca505d382bbc416464726573733a206c6f772d6c6576656c2064656c65676174652063616c6c206661696c6564a2646970667358221220fa2c0d9547052523853dcd2b2e14ab76d9413eaa65a8e8ffd1dee8196ae6844764736f6c63430008110033",
  "implementation": "0x23D49290274B9E8fb49688B24FE796C586155bd8",
  "devdoc": {
    "kind": "dev",
    "methods": {
      "constructor": {
        "custom:oz-upgrades-unsafe-allow": "constructor"
      },
      "getRoleAdmin(bytes32)": {
        "details": "Returns the admin role that controls `role`. See {grantRole} and {revokeRole}. To change a role's admin, use {_setRoleAdmin}."
      },
      "grantRole(bytes32,address)": {
        "details": "Grants `role` to `account`. If `account` had not been already granted `role`, emits a {RoleGranted} event. Requirements: - the caller must have ``role``'s admin role. May emit a {RoleGranted} event."
      },
      "hasRole(bytes32,address)": {
        "details": "Returns `true` if `account` has been granted `role`."
      },
      "proxiableUUID()": {
        "details": "Implementation of the ERC1822 {proxiableUUID} function. This returns the storage slot used by the implementation. It is used to validate the implementation's compatibility when performing an upgrade. IMPORTANT: A proxy pointing at a proxiable contract should not be considered proxiable itself, because this risks bricking a proxy that upgrades to it, by delegating to itself until out of gas. Thus it is critical that this function revert if invoked through a proxy. This is guaranteed by the `notDelegated` modifier."
      },
      "renounceRole(bytes32,address)": {
        "details": "Revokes `role` from the calling account. Roles are often managed via {grantRole} and {revokeRole}: this function's purpose is to provide a mechanism for accounts to lose their privileges if they are compromised (such as when a trusted device is misplaced). If the calling account had been revoked `role`, emits a {RoleRevoked} event. Requirements: - the caller must be `account`. May emit a {RoleRevoked} event."
      },
      "revokeRole(bytes32,address)": {
        "details": "Revokes `role` from `account`. If `account` had been granted `role`, emits a {RoleRevoked} event. Requirements: - the caller must have ``role``'s admin role. May emit a {RoleRevoked} event."
      },
      "supportsInterface(bytes4)": {
        "details": "See {IERC165-supportsInterface}."
      },
      "upgradeTo(address)": {
        "details": "Upgrade the implementation of the proxy to `newImplementation`. Calls {_authorizeUpgrade}. Emits an {Upgraded} event."
      },
      "upgradeToAndCall(address,bytes)": {
        "details": "Upgrade the implementation of the proxy to `newImplementation`, and subsequently execute the function call encoded in `data`. Calls {_authorizeUpgrade}. Emits an {Upgraded} event."
      }
    },
    "version": 1
  },
  "userdoc": {
    "kind": "user",
    "methods": {},
    "version": 1
  },
  "storageLayout": {
    "storage": [
      {
        "astId": 804,
        "contract": "contracts/strategies/StrategyWombexBusd.sol:StrategyWombexBusd",
        "label": "_initialized",
        "offset": 0,
        "slot": "0",
        "type": "t_uint8"
      },
      {
        "astId": 807,
        "contract": "contracts/strategies/StrategyWombexBusd.sol:StrategyWombexBusd",
        "label": "_initializing",
        "offset": 1,
        "slot": "0",
        "type": "t_bool"
      },
      {
        "astId": 1427,
        "contract": "contracts/strategies/StrategyWombexBusd.sol:StrategyWombexBusd",
        "label": "__gap",
        "offset": 0,
        "slot": "1",
        "type": "t_array(t_uint256)50_storage"
      },
      {
        "astId": 1706,
        "contract": "contracts/strategies/StrategyWombexBusd.sol:StrategyWombexBusd",
        "label": "__gap",
        "offset": 0,
        "slot": "51",
        "type": "t_array(t_uint256)50_storage"
      },
      {
        "astId": 39,
        "contract": "contracts/strategies/StrategyWombexBusd.sol:StrategyWombexBusd",
        "label": "_roles",
        "offset": 0,
        "slot": "101",
        "type": "t_mapping(t_bytes32,t_struct(RoleData)34_storage)"
      },
      {
        "astId": 334,
        "contract": "contracts/strategies/StrategyWombexBusd.sol:StrategyWombexBusd",
        "label": "__gap",
        "offset": 0,
        "slot": "102",
        "type": "t_array(t_uint256)49_storage"
      },
      {
        "astId": 786,
        "contract": "contracts/strategies/StrategyWombexBusd.sol:StrategyWombexBusd",
        "label": "__gap",
        "offset": 0,
        "slot": "151",
        "type": "t_array(t_uint256)50_storage"
      },
      {
        "astId": 1101,
        "contract": "contracts/strategies/StrategyWombexBusd.sol:StrategyWombexBusd",
        "label": "__gap",
        "offset": 0,
        "slot": "201",
        "type": "t_array(t_uint256)50_storage"
      },
      {
        "astId": 2717,
        "contract": "contracts/strategies/StrategyWombexBusd.sol:StrategyWombexBusd",
        "label": "portfolioManager",
        "offset": 0,
        "slot": "251",
        "type": "t_address"
      },
      {
        "astId": 2719,
        "contract": "contracts/strategies/StrategyWombexBusd.sol:StrategyWombexBusd",
        "label": "swapSlippageBP",
        "offset": 0,
        "slot": "252",
        "type": "t_uint256"
      },
      {
        "astId": 2721,
        "contract": "contracts/strategies/StrategyWombexBusd.sol:StrategyWombexBusd",
        "label": "navSlippageBP",
        "offset": 0,
        "slot": "253",
        "type": "t_uint256"
      },
      {
        "astId": 2723,
        "contract": "contracts/strategies/StrategyWombexBusd.sol:StrategyWombexBusd",
        "label": "stakeSlippageBP",
        "offset": 0,
        "slot": "254",
        "type": "t_uint256"
      },
      {
        "astId": 3094,
        "contract": "contracts/strategies/StrategyWombexBusd.sol:StrategyWombexBusd",
        "label": "__gap",
        "offset": 0,
        "slot": "255",
        "type": "t_array(t_uint256)46_storage"
      },
      {
        "astId": 6251,
        "contract": "contracts/strategies/StrategyWombexBusd.sol:StrategyWombexBusd",
        "label": "busd",
        "offset": 0,
        "slot": "301",
        "type": "t_contract(IERC20)2662"
      },
      {
        "astId": 6254,
        "contract": "contracts/strategies/StrategyWombexBusd.sol:StrategyWombexBusd",
        "label": "wom",
        "offset": 0,
        "slot": "302",
        "type": "t_contract(IERC20)2662"
      },
      {
        "astId": 6257,
        "contract": "contracts/strategies/StrategyWombexBusd.sol:StrategyWombexBusd",
        "label": "wmx",
        "offset": 0,
        "slot": "303",
        "type": "t_contract(IERC20)2662"
      },
      {
        "astId": 6260,
        "contract": "contracts/strategies/StrategyWombexBusd.sol:StrategyWombexBusd",
        "label": "lpBusd",
        "offset": 0,
        "slot": "304",
        "type": "t_contract(IAsset)5591"
      },
      {
        "astId": 6263,
        "contract": "contracts/strategies/StrategyWombexBusd.sol:StrategyWombexBusd",
        "label": "wmxLpBusd",
        "offset": 0,
        "slot": "305",
        "type": "t_contract(IBaseRewardPool)5848"
      },
      {
        "astId": 6266,
        "contract": "contracts/strategies/StrategyWombexBusd.sol:StrategyWombexBusd",
        "label": "poolDepositor",
        "offset": 0,
        "slot": "306",
        "type": "t_contract(IPoolDepositor)5893"
      },
      {
        "astId": 6268,
        "contract": "contracts/strategies/StrategyWombexBusd.sol:StrategyWombexBusd",
        "label": "pool",
        "offset": 0,
        "slot": "307",
        "type": "t_address"
      },
      {
        "astId": 6271,
        "contract": "contracts/strategies/StrategyWombexBusd.sol:StrategyWombexBusd",
        "label": "pancakeRouter",
        "offset": 0,
        "slot": "308",
        "type": "t_contract(IPancakeRouter02)4382"
      },
      {
        "astId": 6273,
        "contract": "contracts/strategies/StrategyWombexBusd.sol:StrategyWombexBusd",
        "label": "lpBusdDm",
        "offset": 0,
        "slot": "309",
        "type": "t_uint256"
      },
      {
        "astId": 6276,
        "contract": "contracts/strategies/StrategyWombexBusd.sol:StrategyWombexBusd",
        "label": "usdc",
        "offset": 0,
        "slot": "310",
        "type": "t_contract(IERC20)2662"
      },
      {
        "astId": 6279,
        "contract": "contracts/strategies/StrategyWombexBusd.sol:StrategyWombexBusd",
        "label": "wombatRouter",
        "offset": 0,
        "slot": "311",
        "type": "t_contract(IWombatRouter)4871"
      },
      {
        "astId": 6282,
        "contract": "contracts/strategies/StrategyWombexBusd.sol:StrategyWombexBusd",
        "label": "oracleUsdc",
        "offset": 0,
        "slot": "312",
        "type": "t_contract(IPriceFeed)3170"
      },
      {
        "astId": 6285,
        "contract": "contracts/strategies/StrategyWombexBusd.sol:StrategyWombexBusd",
        "label": "oracleBusd",
        "offset": 0,
        "slot": "313",
        "type": "t_contract(IPriceFeed)3170"
      },
      {
        "astId": 6287,
        "contract": "contracts/strategies/StrategyWombexBusd.sol:StrategyWombexBusd",
        "label": "usdcDm",
        "offset": 0,
        "slot": "314",
        "type": "t_uint256"
      },
      {
        "astId": 6289,
        "contract": "contracts/strategies/StrategyWombexBusd.sol:StrategyWombexBusd",
        "label": "busdDm",
        "offset": 0,
        "slot": "315",
        "type": "t_uint256"
      },
      {
        "astId": 6291,
        "contract": "contracts/strategies/StrategyWombexBusd.sol:StrategyWombexBusd",
        "label": "usdtDm",
        "offset": 0,
        "slot": "316",
        "type": "t_uint256"
      },
      {
        "astId": 6294,
        "contract": "contracts/strategies/StrategyWombexBusd.sol:StrategyWombexBusd",
        "label": "usdt",
        "offset": 0,
        "slot": "317",
        "type": "t_contract(IERC20)2662"
      }
    ],
    "types": {
      "t_address": {
        "encoding": "inplace",
        "label": "address",
        "numberOfBytes": "20"
      },
      "t_array(t_uint256)46_storage": {
        "base": "t_uint256",
        "encoding": "inplace",
        "label": "uint256[46]",
        "numberOfBytes": "1472"
      },
      "t_array(t_uint256)49_storage": {
        "base": "t_uint256",
        "encoding": "inplace",
        "label": "uint256[49]",
        "numberOfBytes": "1568"
      },
      "t_array(t_uint256)50_storage": {
        "base": "t_uint256",
        "encoding": "inplace",
        "label": "uint256[50]",
        "numberOfBytes": "1600"
      },
      "t_bool": {
        "encoding": "inplace",
        "label": "bool",
        "numberOfBytes": "1"
      },
      "t_bytes32": {
        "encoding": "inplace",
        "label": "bytes32",
        "numberOfBytes": "32"
      },
      "t_contract(IAsset)5591": {
        "encoding": "inplace",
        "label": "contract IAsset",
        "numberOfBytes": "20"
      },
      "t_contract(IBaseRewardPool)5848": {
        "encoding": "inplace",
        "label": "contract IBaseRewardPool",
        "numberOfBytes": "20"
      },
      "t_contract(IERC20)2662": {
        "encoding": "inplace",
        "label": "contract IERC20",
        "numberOfBytes": "20"
      },
      "t_contract(IPancakeRouter02)4382": {
        "encoding": "inplace",
        "label": "contract IPancakeRouter02",
        "numberOfBytes": "20"
      },
      "t_contract(IPoolDepositor)5893": {
        "encoding": "inplace",
        "label": "contract IPoolDepositor",
        "numberOfBytes": "20"
      },
      "t_contract(IPriceFeed)3170": {
        "encoding": "inplace",
        "label": "contract IPriceFeed",
        "numberOfBytes": "20"
      },
      "t_contract(IWombatRouter)4871": {
        "encoding": "inplace",
        "label": "contract IWombatRouter",
        "numberOfBytes": "20"
      },
      "t_mapping(t_address,t_bool)": {
        "encoding": "mapping",
        "key": "t_address",
        "label": "mapping(address => bool)",
        "numberOfBytes": "32",
        "value": "t_bool"
      },
      "t_mapping(t_bytes32,t_struct(RoleData)34_storage)": {
        "encoding": "mapping",
        "key": "t_bytes32",
        "label": "mapping(bytes32 => struct AccessControlUpgradeable.RoleData)",
        "numberOfBytes": "32",
        "value": "t_struct(RoleData)34_storage"
      },
      "t_struct(RoleData)34_storage": {
        "encoding": "inplace",
        "label": "struct AccessControlUpgradeable.RoleData",
        "members": [
          {
            "astId": 31,
            "contract": "contracts/strategies/StrategyWombexBusd.sol:StrategyWombexBusd",
            "label": "members",
            "offset": 0,
            "slot": "0",
            "type": "t_mapping(t_address,t_bool)"
          },
          {
            "astId": 33,
            "contract": "contracts/strategies/StrategyWombexBusd.sol:StrategyWombexBusd",
            "label": "adminRole",
            "offset": 0,
            "slot": "1",
            "type": "t_bytes32"
          }
        ],
        "numberOfBytes": "64"
      },
      "t_uint256": {
        "encoding": "inplace",
        "label": "uint256",
        "numberOfBytes": "32"
      },
      "t_uint8": {
        "encoding": "inplace",
        "label": "uint8",
        "numberOfBytes": "1"
      }
    }
  }
}