{
  "address": "0xc0d9ab42e6CC8d441775FBD5187235E619Dc65eD",
  "abi": [
    {
      "inputs": [],
      "stateMutability": "nonpayable",
      "type": "constructor"
    },
    {
      "anonymous": false,
      "inputs": [
        {
          "indexed": false,
          "internalType": "address",
          "name": "previousAdmin",
          "type": "address"
        },
        {
          "indexed": false,
          "internalType": "address",
          "name": "newAdmin",
          "type": "address"
        }
      ],
      "name": "AdminChanged",
      "type": "event"
    },
    {
      "anonymous": false,
      "inputs": [
        {
          "indexed": true,
          "internalType": "address",
          "name": "beacon",
          "type": "address"
        }
      ],
      "name": "BeaconUpgraded",
      "type": "event"
    },
    {
      "anonymous": false,
      "inputs": [
        {
          "indexed": false,
          "internalType": "uint8",
          "name": "version",
          "type": "uint8"
        }
      ],
      "name": "Initialized",
      "type": "event"
    },
    {
      "anonymous": false,
      "inputs": [
        {
          "indexed": false,
          "internalType": "address",
          "name": "value",
          "type": "address"
        }
      ],
      "name": "PortfolioManagerUpdated",
      "type": "event"
    },
    {
      "anonymous": false,
      "inputs": [
        {
          "indexed": false,
          "internalType": "uint256",
          "name": "amount",
          "type": "uint256"
        }
      ],
      "name": "Reward",
      "type": "event"
    },
    {
      "anonymous": false,
      "inputs": [
        {
          "indexed": true,
          "internalType": "bytes32",
          "name": "role",
          "type": "bytes32"
        },
        {
          "indexed": true,
          "internalType": "bytes32",
          "name": "previousAdminRole",
          "type": "bytes32"
        },
        {
          "indexed": true,
          "internalType": "bytes32",
          "name": "newAdminRole",
          "type": "bytes32"
        }
      ],
      "name": "RoleAdminChanged",
      "type": "event"
    },
    {
      "anonymous": false,
      "inputs": [
        {
          "indexed": true,
          "internalType": "bytes32",
          "name": "role",
          "type": "bytes32"
        },
        {
          "indexed": true,
          "internalType": "address",
          "name": "account",
          "type": "address"
        },
        {
          "indexed": true,
          "internalType": "address",
          "name": "sender",
          "type": "address"
        }
      ],
      "name": "RoleGranted",
      "type": "event"
    },
    {
      "anonymous": false,
      "inputs": [
        {
          "indexed": true,
          "internalType": "bytes32",
          "name": "role",
          "type": "bytes32"
        },
        {
          "indexed": true,
          "internalType": "address",
          "name": "account",
          "type": "address"
        },
        {
          "indexed": true,
          "internalType": "address",
          "name": "sender",
          "type": "address"
        }
      ],
      "name": "RoleRevoked",
      "type": "event"
    },
    {
      "anonymous": false,
      "inputs": [
        {
          "indexed": false,
          "internalType": "uint256",
          "name": "swapSlippageBP",
          "type": "uint256"
        },
        {
          "indexed": false,
          "internalType": "uint256",
          "name": "navSlippageBP",
          "type": "uint256"
        },
        {
          "indexed": false,
          "internalType": "uint256",
          "name": "stakeSlippageBP",
          "type": "uint256"
        }
      ],
      "name": "SlippagesUpdated",
      "type": "event"
    },
    {
      "anonymous": false,
      "inputs": [
        {
          "indexed": false,
          "internalType": "uint256",
          "name": "amount",
          "type": "uint256"
        }
      ],
      "name": "Stake",
      "type": "event"
    },
    {
      "anonymous": false,
      "inputs": [],
      "name": "StrategyUpdatedParams",
      "type": "event"
    },
    {
      "anonymous": false,
      "inputs": [
        {
          "indexed": false,
          "internalType": "uint256",
          "name": "amount",
          "type": "uint256"
        },
        {
          "indexed": false,
          "internalType": "uint256",
          "name": "amountReceived",
          "type": "uint256"
        }
      ],
      "name": "Unstake",
      "type": "event"
    },
    {
      "anonymous": false,
      "inputs": [
        {
          "indexed": true,
          "internalType": "address",
          "name": "implementation",
          "type": "address"
        }
      ],
      "name": "Upgraded",
      "type": "event"
    },
    {
      "inputs": [],
      "name": "DEFAULT_ADMIN_ROLE",
      "outputs": [
        {
          "internalType": "bytes32",
          "name": "",
          "type": "bytes32"
        }
      ],
      "stateMutability": "view",
      "type": "function"
    },
    {
      "inputs": [],
      "name": "PORTFOLIO_AGENT_ROLE",
      "outputs": [
        {
          "internalType": "bytes32",
          "name": "",
          "type": "bytes32"
        }
      ],
      "stateMutability": "view",
      "type": "function"
    },
    {
      "inputs": [],
      "name": "PORTFOLIO_MANAGER",
      "outputs": [
        {
          "internalType": "bytes32",
          "name": "",
          "type": "bytes32"
        }
      ],
      "stateMutability": "view",
      "type": "function"
    },
    {
      "inputs": [],
      "name": "busd",
      "outputs": [
        {
          "internalType": "contract IERC20",
          "name": "",
          "type": "address"
        }
      ],
      "stateMutability": "view",
      "type": "function"
    },
    {
      "inputs": [
        {
          "internalType": "address",
          "name": "_to",
          "type": "address"
        }
      ],
      "name": "claimRewards",
      "outputs": [
        {
          "internalType": "uint256",
          "name": "",
          "type": "uint256"
        }
      ],
      "stateMutability": "nonpayable",
      "type": "function"
    },
    {
      "inputs": [
        {
          "internalType": "bytes32",
          "name": "role",
          "type": "bytes32"
        }
      ],
      "name": "getRoleAdmin",
      "outputs": [
        {
          "internalType": "bytes32",
          "name": "",
          "type": "bytes32"
        }
      ],
      "stateMutability": "view",
      "type": "function"
    },
    {
      "inputs": [
        {
          "internalType": "bytes32",
          "name": "role",
          "type": "bytes32"
        },
        {
          "internalType": "address",
          "name": "account",
          "type": "address"
        }
      ],
      "name": "grantRole",
      "outputs": [],
      "stateMutability": "nonpayable",
      "type": "function"
    },
    {
      "inputs": [
        {
          "internalType": "bytes32",
          "name": "role",
          "type": "bytes32"
        },
        {
          "internalType": "address",
          "name": "account",
          "type": "address"
        }
      ],
      "name": "hasRole",
      "outputs": [
        {
          "internalType": "bool",
          "name": "",
          "type": "bool"
        }
      ],
      "stateMutability": "view",
      "type": "function"
    },
    {
      "inputs": [],
      "name": "initialize",
      "outputs": [],
      "stateMutability": "nonpayable",
      "type": "function"
    },
    {
      "inputs": [],
      "name": "liquidationValue",
      "outputs": [
        {
          "internalType": "uint256",
          "name": "",
          "type": "uint256"
        }
      ],
      "stateMutability": "view",
      "type": "function"
    },
    {
      "inputs": [],
      "name": "lpUsdt",
      "outputs": [
        {
          "internalType": "contract IWombatAsset",
          "name": "",
          "type": "address"
        }
      ],
      "stateMutability": "view",
      "type": "function"
    },
    {
      "inputs": [],
      "name": "lpUsdtDm",
      "outputs": [
        {
          "internalType": "uint256",
          "name": "",
          "type": "uint256"
        }
      ],
      "stateMutability": "view",
      "type": "function"
    },
    {
      "inputs": [],
      "name": "name",
      "outputs": [
        {
          "internalType": "string",
          "name": "",
          "type": "string"
        }
      ],
      "stateMutability": "view",
      "type": "function"
    },
    {
      "inputs": [],
      "name": "navSlippageBP",
      "outputs": [
        {
          "internalType": "uint256",
          "name": "",
          "type": "uint256"
        }
      ],
      "stateMutability": "view",
      "type": "function"
    },
    {
      "inputs": [],
      "name": "netAssetValue",
      "outputs": [
        {
          "internalType": "uint256",
          "name": "",
          "type": "uint256"
        }
      ],
      "stateMutability": "view",
      "type": "function"
    },
    {
      "inputs": [],
      "name": "oracleBusd",
      "outputs": [
        {
          "internalType": "contract IPriceFeed",
          "name": "",
          "type": "address"
        }
      ],
      "stateMutability": "view",
      "type": "function"
    },
    {
      "inputs": [],
      "name": "oracleUsdt",
      "outputs": [
        {
          "internalType": "contract IPriceFeed",
          "name": "",
          "type": "address"
        }
      ],
      "stateMutability": "view",
      "type": "function"
    },
    {
      "inputs": [],
      "name": "pancakeRouter",
      "outputs": [
        {
          "internalType": "contract IPancakeRouter02",
          "name": "",
          "type": "address"
        }
      ],
      "stateMutability": "view",
      "type": "function"
    },
    {
      "inputs": [],
      "name": "pool",
      "outputs": [
        {
          "internalType": "address",
          "name": "",
          "type": "address"
        }
      ],
      "stateMutability": "view",
      "type": "function"
    },
    {
      "inputs": [],
      "name": "poolDepositor",
      "outputs": [
        {
          "internalType": "contract IWombexPoolDepositor",
          "name": "",
          "type": "address"
        }
      ],
      "stateMutability": "view",
      "type": "function"
    },
    {
      "inputs": [],
      "name": "portfolioManager",
      "outputs": [
        {
          "internalType": "address",
          "name": "",
          "type": "address"
        }
      ],
      "stateMutability": "view",
      "type": "function"
    },
    {
      "inputs": [],
      "name": "proxiableUUID",
      "outputs": [
        {
          "internalType": "bytes32",
          "name": "",
          "type": "bytes32"
        }
      ],
      "stateMutability": "view",
      "type": "function"
    },
    {
      "inputs": [
        {
          "internalType": "bytes32",
          "name": "role",
          "type": "bytes32"
        },
        {
          "internalType": "address",
          "name": "account",
          "type": "address"
        }
      ],
      "name": "renounceRole",
      "outputs": [],
      "stateMutability": "nonpayable",
      "type": "function"
    },
    {
      "inputs": [
        {
          "internalType": "bytes32",
          "name": "role",
          "type": "bytes32"
        },
        {
          "internalType": "address",
          "name": "account",
          "type": "address"
        }
      ],
      "name": "revokeRole",
      "outputs": [],
      "stateMutability": "nonpayable",
      "type": "function"
    },
    {
      "inputs": [
        {
          "components": [
            {
              "internalType": "address",
              "name": "usdt",
              "type": "address"
            },
            {
              "internalType": "address",
              "name": "busd",
              "type": "address"
            },
            {
              "internalType": "address",
              "name": "wom",
              "type": "address"
            },
            {
              "internalType": "address",
              "name": "wmx",
              "type": "address"
            },
            {
              "internalType": "address",
              "name": "lpUsdt",
              "type": "address"
            },
            {
              "internalType": "address",
              "name": "wmxLpUsdt",
              "type": "address"
            },
            {
              "internalType": "address",
              "name": "poolDepositor",
              "type": "address"
            },
            {
              "internalType": "address",
              "name": "pool",
              "type": "address"
            },
            {
              "internalType": "address",
              "name": "pancakeRouter",
              "type": "address"
            },
            {
              "internalType": "address",
              "name": "wombatRouter",
              "type": "address"
            },
            {
              "internalType": "address",
              "name": "oracleUsdt",
              "type": "address"
            },
            {
              "internalType": "string",
              "name": "name",
              "type": "string"
            }
          ],
          "internalType": "struct StrategyWombexUsdt.StrategyParams",
          "name": "params",
          "type": "tuple"
        }
      ],
      "name": "setParams",
      "outputs": [],
      "stateMutability": "nonpayable",
      "type": "function"
    },
    {
      "inputs": [
        {
          "internalType": "address",
          "name": "_value",
          "type": "address"
        }
      ],
      "name": "setPortfolioManager",
      "outputs": [],
      "stateMutability": "nonpayable",
      "type": "function"
    },
    {
      "inputs": [
        {
          "internalType": "uint256",
          "name": "_swapSlippageBP",
          "type": "uint256"
        },
        {
          "internalType": "uint256",
          "name": "_navSlippageBP",
          "type": "uint256"
        },
        {
          "internalType": "uint256",
          "name": "_stakeSlippageBP",
          "type": "uint256"
        }
      ],
      "name": "setSlippages",
      "outputs": [],
      "stateMutability": "nonpayable",
      "type": "function"
    },
    {
      "inputs": [
        {
          "internalType": "address",
          "name": "_asset",
          "type": "address"
        },
        {
          "internalType": "uint256",
          "name": "_amount",
          "type": "uint256"
        }
      ],
      "name": "stake",
      "outputs": [],
      "stateMutability": "nonpayable",
      "type": "function"
    },
    {
      "inputs": [],
      "name": "stakeSlippageBP",
      "outputs": [
        {
          "internalType": "uint256",
          "name": "",
          "type": "uint256"
        }
      ],
      "stateMutability": "view",
      "type": "function"
    },
    {
      "inputs": [
        {
          "internalType": "bytes4",
          "name": "interfaceId",
          "type": "bytes4"
        }
      ],
      "name": "supportsInterface",
      "outputs": [
        {
          "internalType": "bool",
          "name": "",
          "type": "bool"
        }
      ],
      "stateMutability": "view",
      "type": "function"
    },
    {
      "inputs": [],
      "name": "swapSlippageBP",
      "outputs": [
        {
          "internalType": "uint256",
          "name": "",
          "type": "uint256"
        }
      ],
      "stateMutability": "view",
      "type": "function"
    },
    {
      "inputs": [
        {
          "internalType": "address",
          "name": "_asset",
          "type": "address"
        },
        {
          "internalType": "uint256",
          "name": "_amount",
          "type": "uint256"
        },
        {
          "internalType": "address",
          "name": "_beneficiary",
          "type": "address"
        },
        {
          "internalType": "bool",
          "name": "_targetIsZero",
          "type": "bool"
        }
      ],
      "name": "unstake",
      "outputs": [
        {
          "internalType": "uint256",
          "name": "",
          "type": "uint256"
        }
      ],
      "stateMutability": "nonpayable",
      "type": "function"
    },
    {
      "inputs": [
        {
          "internalType": "address",
          "name": "newImplementation",
          "type": "address"
        }
      ],
      "name": "upgradeTo",
      "outputs": [],
      "stateMutability": "nonpayable",
      "type": "function"
    },
    {
      "inputs": [
        {
          "internalType": "address",
          "name": "newImplementation",
          "type": "address"
        },
        {
          "internalType": "bytes",
          "name": "data",
          "type": "bytes"
        }
      ],
      "name": "upgradeToAndCall",
      "outputs": [],
      "stateMutability": "payable",
      "type": "function"
    },
    {
      "inputs": [],
      "name": "usdt",
      "outputs": [
        {
          "internalType": "contract IERC20",
          "name": "",
          "type": "address"
        }
      ],
      "stateMutability": "view",
      "type": "function"
    },
    {
      "inputs": [],
      "name": "usdtDm",
      "outputs": [
        {
          "internalType": "uint256",
          "name": "",
          "type": "uint256"
        }
      ],
      "stateMutability": "view",
      "type": "function"
    },
    {
      "inputs": [],
      "name": "wmx",
      "outputs": [
        {
          "internalType": "contract IERC20",
          "name": "",
          "type": "address"
        }
      ],
      "stateMutability": "view",
      "type": "function"
    },
    {
      "inputs": [],
      "name": "wmxLpUsdt",
      "outputs": [
        {
          "internalType": "contract IWombexBaseRewardPool",
          "name": "",
          "type": "address"
        }
      ],
      "stateMutability": "view",
      "type": "function"
    },
    {
      "inputs": [],
      "name": "wom",
      "outputs": [
        {
          "internalType": "contract IERC20",
          "name": "",
          "type": "address"
        }
      ],
      "stateMutability": "view",
      "type": "function"
    },
    {
      "inputs": [],
      "name": "wombatRouter",
      "outputs": [
        {
          "internalType": "contract IWombatRouter",
          "name": "",
          "type": "address"
        }
      ],
      "stateMutability": "view",
      "type": "function"
    }
  ],
  "numDeployments": 6,
  "solcInputHash": "4b3f3f28e6459e8be010cdc6675e5294",
  "bytecode": "0x60a0604052306080523480156200001557600080fd5b50600054610100900460ff1615808015620000375750600054600160ff909116105b8062000067575062000054306200010860201b620013d21760201c565b15801562000067575060005460ff166001145b6200008f5760405162461bcd60e51b8152600401620000869062000117565b60405180910390fd5b6000805460ff191660011790558015620000b3576000805461ff0019166101001790555b801562000101576000805461ff00191690556040517f7f26b83ff96e1f2b6a682f133852f6798a09c465da95921460cefb384740249890620000f8906001906200018d565b60405180910390a15b506200019d565b6001600160a01b03163b151590565b602080825281016200016a81602e81527f496e697469616c697a61626c653a20636f6e747261637420697320616c72656160208201526d191e481a5b9a5d1a585b1a5e995960921b604082015260600190565b92915050565b600060ff82166200016a565b620001878162000170565b82525050565b602081016200016a82846200017c565b608051613bf4620001d560003960008181610872015281816108b201528181610951015281816109910152610a200152613bf46000f3fe60806040526004361061023b5760003560e01c80637d5f58021161012e578063bd25c6db116100ab578063ce8383361161006f578063ce83833614610689578063d192610b146106aa578063d547741f146106ca578063ef5cfb8c146106ea578063f6f6b8811461070a57600080fd5b8063bd25c6db146105ef578063bf52e08014610610578063c21ebd0714610626578063c5a6222e14610647578063cc6522c31461066857600080fd5b8063a440b21a116100f2578063a440b21a1461054d578063a66b57131461056d578063adc9772e1461058e578063ae30c110146105ae578063b57075a5146105ce57600080fd5b80637d5f5802146104e15780638129fc1c1461050357806391d1485414610518578063a217fddf14610538578063a3673b381461035e57600080fd5b806334df87e7116101bc57806352d1902d1161018057806352d1902d146104415780635ca558f8146104565780635dbd733a1461046c578063612c87df146104a0578063620b75df146104c157600080fd5b806334df87e7146103b657806336568abe146103cd5780633659cfe6146103ed5780633ca5b2341461040d5780634f1ef2861461042e57600080fd5b806316f0115b1161020357806316f0115b14610300578063248a9ca31461032e5780632576e65a1461035e5780632f2ff15d146103735780632f48ab7d1461039557600080fd5b806301ffc9a71461024057806306fdde0314610276578063083975d4146102985780630f9033f7146102c6578063119cd879146102ea575b600080fd5b34801561024c57600080fd5b5061026061025b3660046129ad565b61072a565b60405161026d91906129d8565b60405180910390f35b34801561028257600080fd5b5061028b610761565b60405161026d9190612a3c565b3480156102a457600080fd5b5061012f546102b9906001600160a01b031681565b60405161026d9190612a8f565b3480156102d257600080fd5b506102dd6101385481565b60405161026d9190612aa3565b3480156102f657600080fd5b506102dd60fd5481565b34801561030c57600080fd5b5061013354610321906001600160a01b031681565b60405161026d9190612acb565b34801561033a57600080fd5b506102dd610349366004612aea565b60009081526065602052604090206001015490565b34801561036a57600080fd5b506102dd6107f0565b34801561037f57600080fd5b5061039361038e366004612b1f565b6107ff565b005b3480156103a157600080fd5b5061012d546102b9906001600160a01b031681565b3480156103c257600080fd5b506102dd6101395481565b3480156103d957600080fd5b506103936103e8366004612b1f565b610829565b3480156103f957600080fd5b50610393610408366004612b5c565b610868565b34801561041957600080fd5b5061013a546102b9906001600160a01b031681565b61039361043c366004612c73565b610947565b34801561044d57600080fd5b506102dd610a13565b34801561046257600080fd5b506102dd60fe5481565b34801561047857600080fd5b506102dd7fd67ad422505496469a1adf6cdf9e5ee92ac5d33992843c9ecc4b2f6d6cde913781565b3480156104ac57600080fd5b50610135546102b9906001600160a01b031681565b3480156104cd57600080fd5b5060fb54610321906001600160a01b031681565b3480156104ed57600080fd5b506102dd600080516020613b5883398151915281565b34801561050f57600080fd5b50610393610a70565b34801561052457600080fd5b50610260610533366004612b1f565b610b3e565b34801561054457600080fd5b506102dd600081565b34801561055957600080fd5b50610393610568366004612b5c565b610b69565b34801561057957600080fd5b50610136546102b9906001600160a01b031681565b34801561059a57600080fd5b506103936105a9366004612cc1565b610c3e565b3480156105ba57600080fd5b506103936105c9366004612cf4565b610d95565b3480156105da57600080fd5b50610131546102b9906001600160a01b031681565b3480156105fb57600080fd5b50610132546102b9906001600160a01b031681565b34801561061c57600080fd5b506102dd60fc5481565b34801561063257600080fd5b50610134546102b9906001600160a01b031681565b34801561065357600080fd5b5061012e546102b9906001600160a01b031681565b34801561067457600080fd5b50610137546102b9906001600160a01b031681565b34801561069557600080fd5b50610130546102b9906001600160a01b031681565b3480156106b657600080fd5b506103936106c5366004612d5a565b610eb7565b3480156106d657600080fd5b506103936106e5366004612b1f565b611161565b3480156106f657600080fd5b506102dd610705366004612b5c565b611186565b34801561071657600080fd5b506102dd610725366004612da8565b61120f565b60006001600160e01b03198216637965db0b60e01b148061075b57506301ffc9a760e01b6001600160e01b03198316145b92915050565b61013b805461076f90612e22565b80601f016020809104026020016040519081016040528092919081815260200182805461079b90612e22565b80156107e85780601f106107bd576101008083540402835291602001916107e8565b820191906000526020600020905b8154815290600101906020018083116107cb57829003601f168201915b505050505081565b60006107fa6113e1565b905090565b60008281526065602052604090206001015461081a8161156b565b6108248383611575565b505050565b6001600160a01b038116331461085a5760405162461bcd60e51b815260040161085190612e97565b60405180910390fd5b61086482826115fb565b5050565b6001600160a01b037f00000000000000000000000000000000000000000000000000000000000000001630036108b05760405162461bcd60e51b815260040161085190612ef0565b7f00000000000000000000000000000000000000000000000000000000000000006001600160a01b03166108f9600080516020613b78833981519152546001600160a01b031690565b6001600160a01b03161461091f5760405162461bcd60e51b815260040161085190612f49565b61092881611662565b604080516000808252602082019092526109449183919061166d565b50565b6001600160a01b037f000000000000000000000000000000000000000000000000000000000000000016300361098f5760405162461bcd60e51b815260040161085190612ef0565b7f00000000000000000000000000000000000000000000000000000000000000006001600160a01b03166109d8600080516020613b78833981519152546001600160a01b031690565b6001600160a01b0316146109fe5760405162461bcd60e51b815260040161085190612f49565b610a0782611662565b6108648282600161166d565b6000306001600160a01b037f00000000000000000000000000000000000000000000000000000000000000001614610a5d5760405162461bcd60e51b815260040161085190612fb3565b50600080516020613b7883398151915290565b600054610100900460ff1615808015610a905750600054600160ff909116105b80610aaa5750303b158015610aaa575060005460ff166001145b610ac65760405162461bcd60e51b81526004016108519061300e565b6000805460ff191660011790558015610ae9576000805461ff0019166101001790555b610af161174f565b8015610944576000805461ff00191690556040517f7f26b83ff96e1f2b6a682f133852f6798a09c465da95921460cefb384740249890610b3390600190613032565b60405180910390a150565b60009182526065602090815260408084206001600160a01b0393909316845291905290205460ff1690565b610b74600033610b3e565b610b905760405162461bcd60e51b81526004016108519061306e565b6001600160a01b038116610bb65760405162461bcd60e51b8152600401610851906130b2565b60fb54610bdb90600080516020613b58833981519152906001600160a01b0316611161565b610bf3600080516020613b58833981519152826107ff565b60fb80546001600160a01b0319166001600160a01b0383161790556040517ff7b449fcd5cfb7379dcd34cb69428dd9f882033b15be33d83b42d91daa28eeb790610b33908390612acb565b610c56600080516020613b5883398151915233610b3e565b610c725760405162461bcd60e51b8152600401610851906130f6565b6000610ce1306001600160a01b031663a3673b386040518163ffffffff1660e01b8152600401602060405180830381865afa158015610cb5573d6000803e3d6000fd5b505050506040513d601f19601f82011682018060405250810190610cd99190613111565b60fd54611834565b9050610d5983846001600160a01b03166370a08231306040518263ffffffff1660e01b8152600401610d139190612acb565b602060405180830381865afa158015610d30573d6000803e3d6000fd5b505050506040513d601f19601f82011682018060405250810190610d549190613111565b61185e565b7f227a473b70d2f893cc7659219575c030a63b5743024fe1e0c1a680e708b1525a82604051610d889190612aa3565b60405180910390a1505050565b610dbf7fd67ad422505496469a1adf6cdf9e5ee92ac5d33992843c9ecc4b2f6d6cde913733610b3e565b80610e58575060fb54604051632474521560e21b81526001600160a01b03909116906391d1485490610e17907fd67ad422505496469a1adf6cdf9e5ee92ac5d33992843c9ecc4b2f6d6cde9137903390600401613132565b602060405180830381865afa158015610e34573d6000803e3d6000fd5b505050506040513d601f19601f82011682018060405250810190610e589190613158565b610e745760405162461bcd60e51b8152600401610851906131b8565b60fc83905560fd82905560fe8190556040517f116fbf1e97a2be629ad98abfb6c332733c8996c2dfb174dd2efe8440df381d1a90610d88908590859085906131c8565b610ec2600033610b3e565b610ede5760405162461bcd60e51b81526004016108519061306e565b610eeb6020820182612b5c565b61012d80546001600160a01b0319166001600160a01b0392909216919091179055610f1c6040820160208301612b5c565b61013a80546001600160a01b0319166001600160a01b0392909216919091179055610f4d6060820160408301612b5c565b61012e80546001600160a01b0319166001600160a01b0392909216919091179055610f7e6080820160608301612b5c565b61012f80546001600160a01b0319166001600160a01b0392909216919091179055610faf60a0820160808301612b5c565b61013080546001600160a01b0319166001600160a01b0392909216919091179055610fe060c0820160a08301612b5c565b61013180546001600160a01b0319166001600160a01b039290921691909117905561101160e0820160c08301612b5c565b61013280546001600160a01b0319166001600160a01b0392909216919091179055611043610100820160e08301612b5c565b61013380546001600160a01b0319166001600160a01b039290921691909117905561107661012082016101008301612b5c565b61013480546001600160a01b0319166001600160a01b03929092169190911790556110a760a0820160808301612b5c565b6001600160a01b031663313ce5676040518163ffffffff1660e01b8152600401602060405180830381865afa1580156110e4573d6000803e3d6000fd5b505050506040513d601f19601f820116820180604052508101906111089190613204565b61111390600a613349565b6101395561112561016082018261335e565b61013b9161113491908361345a565b506040517fea5646eb3528e525944447a4a97de700dd472298626e5c0481d1c82c3da86ea590600090a150565b60008281526065602052604090206001015461117c8161156b565b61082483836115fb565b60006111a0600080516020613b5883398151915233610b3e565b6111bc5760405162461bcd60e51b8152600401610851906130f6565b60006111c783611a82565b90508015611207577f3ac0594a85a20354f9dc74f33728416d19ce00d04a406c108cc2dcf2cecea134816040516111fe9190612aa3565b60405180910390a15b90505b919050565b6000611229600080516020613b5883398151915233610b3e565b6112455760405162461bcd60e51b8152600401610851906130f6565b6000611288306001600160a01b031663a3673b386040518163ffffffff1660e01b8152600401602060405180830381865afa158015610cb5573d6000803e3d6000fd5b905060008084156112af5761129c86611a82565b90506112a88887611e08565b91506112dc565b6112ba888888612125565b9150868210156112dc5760405162461bcd60e51b815260040161085190613564565b60405163a9059cbb60e01b81526001600160a01b0389169063a9059cbb9061130a9089908690600401613574565b6020604051808303816000875af1158015611329573d6000803e3d6000fd5b505050506040513d601f19601f8201168201806040525081019061134d9190613158565b507f9045c2ac9b2026de8075f2701bbdde882cd5e830b3b1ead9a15b22f2b5b93742878360405161137f92919061358f565b60405180910390a180156113c5577f3ac0594a85a20354f9dc74f33728416d19ce00d04a406c108cc2dcf2cecea134816040516113bc9190612aa3565b60405180910390a15b509150505b949350505050565b6001600160a01b03163b151590565b61012d546040516370a0823160e01b815260009182916001600160a01b03909116906370a0823190611417903090600401612acb565b602060405180830381865afa158015611434573d6000803e3d6000fd5b505050506040513d601f19601f820116820180604052508101906114589190613111565b610131546040516370a0823160e01b81529192506000916001600160a01b03909116906370a082319061148f903090600401612acb565b602060405180830381865afa1580156114ac573d6000803e3d6000fd5b505050506040513d601f19601f820116820180604052508101906114d09190613111565b9050801561156557610132546101305460405163135dbd1360e01b81526000926001600160a01b039081169263135dbd139261151492909116908690600401613574565b6040805180830381865afa158015611530573d6000803e3d6000fd5b505050506040513d601f19601f82011682018060405250810190611554919061359d565b50905061156181846135d0565b9250505b50919050565b61094481336122b9565b61157f8282610b3e565b6108645760008281526065602090815260408083206001600160a01b03851684529091529020805460ff191660011790556115b73390565b6001600160a01b0316816001600160a01b0316837f2f8788117e7eff1d82e926ec794901d17c78024a50270940304540a733656f0d60405160405180910390a45050565b6116058282610b3e565b156108645760008281526065602090815260408083206001600160a01b0385168085529252808320805460ff1916905551339285917ff6391f5c32d9c69d2a47ea670b442974b53935d1edc7fd64eb21e047a839171b9190a45050565b60006108648161156b565b7f4910fdfa16fed3260ed0e7147f7cc6da11a60208b5b9406d12a635614ffd91435460ff16156116a05761082483612312565b826001600160a01b03166352d1902d6040518163ffffffff1660e01b8152600401602060405180830381865afa9250505080156116fa575060408051601f3d908101601f191682019092526116f791810190613111565b60015b6117165760405162461bcd60e51b81526004016108519061362e565b600080516020613b7883398151915281146117435760405162461bcd60e51b815260040161085190613684565b50610824838383612368565b600054610100900460ff161580801561176f5750600054600160ff909116105b806117895750303b158015611789575060005460ff166001145b6117a55760405162461bcd60e51b81526004016108519061300e565b6000805460ff1916600117905580156117c8576000805461ff0019166101001790555b6117d0612393565b6117d8612393565b6117e3600033611575565b601960fc55602360fd55600460fe558015610944576000805461ff00191690556040517f7f26b83ff96e1f2b6a682f133852f6798a09c465da95921460cefb384740249890610b3390600190613032565b60006127106118438382613694565b61184d90856136a7565b61185791906136dc565b9392505050565b61012d546001600160a01b0383811691161461188c5760405162461bcd60e51b815260040161085190613724565b61012d546040516370a0823160e01b81526000916001600160a01b0316906370a08231906118be903090600401612acb565b602060405180830381865afa1580156118db573d6000803e3d6000fd5b505050506040513d601f19601f820116820180604052508101906118ff9190613111565b6101325461013054604051630650739d60e41b81529293506000926001600160a01b039283169263650739d09261193d929116908690600401613574565b6040805180830381865afa158015611959573d6000803e3d6000fd5b505050506040513d601f19601f8201168201806040525081019061197d919061359d565b509050600061198e8260fe54611834565b61012d546101325460405163095ea7b360e01b81529293506001600160a01b039182169263095ea7b3926119c89216908790600401613574565b6020604051808303816000875af11580156119e7573d6000803e3d6000fd5b505050506040513d601f19601f82011682018060405250810190611a0b9190613158565b506101325461013054604051633f90794960e21b81526001600160a01b039283169263fe41e52492611a499291169087908690600190600401613734565b600060405180830381600087803b158015611a6357600080fd5b505af1158015611a77573d6000803e3d6000fd5b505050505050505050565b610131546040516370a0823160e01b815260009182916001600160a01b03909116906370a0823190611ab8903090600401612acb565b602060405180830381865afa158015611ad5573d6000803e3d6000fd5b505050506040513d601f19601f82011682018060405250810190611af99190613111565b90508015611b7a5761013154604051637050ccd960e01b81526001600160a01b0390911690637050ccd990611b35903090600090600401613769565b6020604051808303816000875af1158015611b54573d6000803e3d6000fd5b505050506040513d601f19601f82011682018060405250810190611b789190613158565b505b61012e546040516370a0823160e01b815260009182916001600160a01b03909116906370a0823190611bb0903090600401612acb565b602060405180830381865afa158015611bcd573d6000803e3d6000fd5b505050506040513d601f19601f82011682018060405250810190611bf19190613111565b90508015611c87576101345461012e5461013a5461012d54600093611c2b936001600160a01b0391821693908216929082169116866123bc565b90508015611c85576101345461012e5461013a5461012d54611c78936001600160a01b039081169381169281169116866064611c688860636136a7565b611c7291906136dc565b3061250d565b611c8290846135d0565b92505b505b61012f546040516370a0823160e01b81526000916001600160a01b0316906370a0823190611cb9903090600401612acb565b602060405180830381865afa158015611cd6573d6000803e3d6000fd5b505050506040513d601f19601f82011682018060405250810190611cfa9190613111565b90508015611d80576101345461012f5461013a5461012d54600093611d34936001600160a01b0391821693908216929082169116866123bc565b90508015611d7e576101345461012f5461013a5461012d54611d71936001600160a01b039081169381169281169116866064611c688860636136a7565b611d7b90856135d0565b93505b505b8215611dfe5761012d5460405163a9059cbb60e01b81526001600160a01b039091169063a9059cbb90611db99089908790600401613574565b6020604051808303816000875af1158015611dd8573d6000803e3d6000fd5b505050506040513d601f19601f82011682018060405250810190611dfc9190613158565b505b5090949350505050565b61012d546000906001600160a01b03848116911614611e395760405162461bcd60e51b815260040161085190613724565b610131546040516370a0823160e01b81526000916001600160a01b0316906370a0823190611e6b903090600401612acb565b602060405180830381865afa158015611e88573d6000803e3d6000fd5b505050506040513d601f19601f82011682018060405250810190611eac9190613111565b905080600003611f305761012d546040516370a0823160e01b81526001600160a01b03909116906370a0823190611ee7903090600401612acb565b602060405180830381865afa158015611f04573d6000803e3d6000fd5b505050506040513d601f19601f82011682018060405250810190611f289190613111565b91505061075b565b610132546101305460405163135dbd1360e01b81526000926001600160a01b039081169263135dbd1392611f6c92909116908690600401613574565b6040805180830381865afa158015611f88573d6000803e3d6000fd5b505050506040513d601f19601f82011682018060405250810190611fac919061359d565b5090506000611fbd8260fe54611834565b610131546101325460405163095ea7b360e01b81529293506001600160a01b039182169263095ea7b392611ff79216908790600401613574565b6020604051808303816000875af1158015612016573d6000803e3d6000fd5b505050506040513d601f19601f8201168201806040525081019061203a9190613158565b5061013254610130546040516316762eed60e01b81526001600160a01b03928316926316762eed9261207792911690879086903090600401613784565b600060405180830381600087803b15801561209157600080fd5b505af11580156120a5573d6000803e3d6000fd5b505061012d546040516370a0823160e01b81526001600160a01b0390911692506370a0823191506120da903090600401612acb565b602060405180830381865afa1580156120f7573d6000803e3d6000fd5b505050506040513d601f19601f8201168201806040525081019061211b9190613111565b9695505050505050565b61012d546000906001600160a01b038581169116146121565760405162461bcd60e51b815260040161085190613724565b61013254610130546101395460405163135dbd1360e01b81526000936001600160a01b039081169363135dbd1393612195939290911691600401613574565b6040805180830381865afa1580156121b1573d6000803e3d6000fd5b505050506040513d601f19601f820116820180604052508101906121d5919061359d565b509050600081610139546121eb8760fe546126d9565b6121f591906136a7565b6121ff91906136dc565b610131546101325460405163095ea7b360e01b81529293506001600160a01b039182169263095ea7b3926122399216908590600401613574565b6020604051808303816000875af1158015612258573d6000803e3d6000fd5b505050506040513d601f19601f8201168201806040525081019061227c9190613158565b5061013254610130546040516316762eed60e01b81526001600160a01b03928316926316762eed926120779291169085908a903090600401613784565b6122c38282610b3e565b610864576122d0816126e8565b6122db8360206126fa565b6040516020016122ec9291906137db565b60408051601f198184030181529082905262461bcd60e51b825261085191600401612a3c565b6001600160a01b0381163b6123395760405162461bcd60e51b81526004016108519061387d565b600080516020613b7883398151915280546001600160a01b0319166001600160a01b0392909216919091179055565b61237183612866565b60008251118061237e5750805b156108245761238d83836128a6565b50505050565b600054610100900460ff166123ba5760405162461bcd60e51b8152600401610851906138d5565b565b604080516003808252608082019092526000918291906020820160608036833701905050905085816000815181106123f6576123f66138e5565b60200260200101906001600160a01b031690816001600160a01b031681525050848160018151811061242a5761242a6138e5565b60200260200101906001600160a01b031690816001600160a01b031681525050838160028151811061245e5761245e6138e5565b6001600160a01b03928316602091820292909201015260405163d06ca61f60e01b815260009189169063d06ca61f9061249d9087908690600401613958565b600060405180830381865afa1580156124ba573d6000803e3d6000fd5b505050506040513d6000823e601f3d908101601f191682016040526124e29190810190613a1b565b9050806002815181106124f7576124f76138e5565b6020026020010151925050505b95945050505050565b60405163095ea7b360e01b81526000906001600160a01b0388169063095ea7b39061253e908b908890600401613574565b6020604051808303816000875af115801561255d573d6000803e3d6000fd5b505050506040513d601f19601f820116820180604052508101906125819190613158565b50604080516003808252608082019092526000916020820160608036833701905050905087816000815181106125b9576125b96138e5565b60200260200101906001600160a01b031690816001600160a01b03168152505086816001815181106125ed576125ed6138e5565b60200260200101906001600160a01b031690816001600160a01b0316815250508581600281518110612621576126216138e5565b6001600160a01b0392831660209182029290920101526040516338ed173960e01b81526000918b16906338ed173990612666908990899087908a904290600401613a56565b6000604051808303816000875af1158015612685573d6000803e3d6000fd5b505050506040513d6000823e601f3d908101601f191682016040526126ad9190810190613a1b565b9050806002815181106126c2576126c26138e5565b602002602001015192505050979650505050505050565b600061271061184383826135d0565b606061075b6001600160a01b03831660145b606060006127098360026136a7565b6127149060026135d0565b67ffffffffffffffff81111561272c5761272c612b7d565b6040519080825280601f01601f191660200182016040528015612756576020820181803683370190505b509050600360fc1b81600081518110612771576127716138e5565b60200101906001600160f81b031916908160001a905350600f60fb1b816001815181106127a0576127a06138e5565b60200101906001600160f81b031916908160001a90535060006127c48460026136a7565b6127cf9060016135d0565b90505b6001811115612847576f181899199a1a9b1b9c1cb0b131b232b360811b85600f1660108110612803576128036138e5565b1a60f81b828281518110612819576128196138e5565b60200101906001600160f81b031916908160001a90535060049490941c9361284081613a9f565b90506127d2565b5083156118575760405162461bcd60e51b815260040161085190613ae8565b61286f81612312565b6040516001600160a01b038216907fbc7cd75a20ee27fd9adebab32041f755214dbc6bffa90cc0225b39da2e5c2d3b90600090a250565b60606001600160a01b0383163b6128cf5760405162461bcd60e51b815260040161085190613b3b565b600080846001600160a01b0316846040516128ea9190613b4b565b600060405180830381855af49150503d8060008114612925576040519150601f19603f3d011682016040523d82523d6000602084013e61292a565b606091505b50915091506125048282604051806060016040528060278152602001613b98602791396060831561295c575081611857565b61185783838151156129715781518083602001fd5b8060405162461bcd60e51b81526004016108519190612a3c565b6001600160e01b031981165b811461094457600080fd5b803561075b8161298b565b6000602082840312156129c2576129c2600080fd5b60006113ca84846129a2565b8015155b82525050565b6020810161075b82846129ce565b60005b83811015612a015781810151838201526020016129e9565b50506000910152565b6000612a14825190565b808452602084019350612a2b8185602086016129e6565b601f01601f19169290920192915050565b602080825281016118578184612a0a565b600061075b6001600160a01b038316612a64565b90565b6001600160a01b031690565b600061075b82612a4d565b600061075b82612a70565b6129d281612a7b565b6020810161075b8284612a86565b806129d2565b6020810161075b8284612a9d565b60006001600160a01b03821661075b565b6129d281612ab1565b6020810161075b8284612ac2565b80612997565b803561075b81612ad9565b600060208284031215612aff57612aff600080fd5b60006113ca8484612adf565b61299781612ab1565b803561075b81612b0b565b60008060408385031215612b3557612b35600080fd5b6000612b418585612adf565b9250506020612b5285828601612b14565b9150509250929050565b600060208284031215612b7157612b71600080fd5b60006113ca8484612b14565b634e487b7160e01b600052604160045260246000fd5b601f19601f830116810181811067ffffffffffffffff82111715612bb957612bb9612b7d565b6040525050565b6000612bcb60405190565b905061120a8282612b93565b600067ffffffffffffffff821115612bf157612bf1612b7d565b601f19601f83011660200192915050565b82818337506000910152565b6000612c21612c1c84612bd7565b612bc0565b905082815260208101848484011115612c3c57612c3c600080fd5b612c47848285612c02565b509392505050565b600082601f830112612c6357612c63600080fd5b81356113ca848260208601612c0e565b60008060408385031215612c8957612c89600080fd5b6000612c958585612b14565b925050602083013567ffffffffffffffff811115612cb557612cb5600080fd5b612b5285828601612c4f565b60008060408385031215612cd757612cd7600080fd5b6000612ce38585612b14565b9250506020612b5285828601612adf565b600080600060608486031215612d0c57612d0c600080fd5b6000612d188686612adf565b9350506020612d2986828701612adf565b9250506040612d3a86828701612adf565b9150509250925092565b6000610180828403121561156557611565600080fd5b600060208284031215612d6f57612d6f600080fd5b813567ffffffffffffffff811115612d8957612d89600080fd5b6113ca84828501612d44565b801515612997565b803561075b81612d95565b60008060008060808587031215612dc157612dc1600080fd5b6000612dcd8787612b14565b9450506020612dde87828801612adf565b9350506040612def87828801612b14565b9250506060612e0087828801612d9d565b91505092959194509250565b634e487b7160e01b600052602260045260246000fd5b600281046001821680612e3657607f821691505b60208210810361156557611565612e0c565b602f81526000602082017f416363657373436f6e74726f6c3a2063616e206f6e6c792072656e6f756e636581526e103937b632b9903337b91039b2b63360891b602082015291505b5060400190565b6020808252810161075b81612e48565b602c81526000602082017f46756e6374696f6e206d7573742062652063616c6c6564207468726f7567682081526b19195b1959d85d1958d85b1b60a21b60208201529150612e90565b6020808252810161075b81612ea7565b602c81526000602082017f46756e6374696f6e206d7573742062652063616c6c6564207468726f7567682081526b6163746976652070726f787960a01b60208201529150612e90565b6020808252810161075b81612f00565b603881526000602082017f555550535570677261646561626c653a206d757374206e6f742062652063616c81527f6c6564207468726f7567682064656c656761746563616c6c000000000000000060208201529150612e90565b6020808252810161075b81612f59565b602e81526000602082017f496e697469616c697a61626c653a20636f6e747261637420697320616c72656181526d191e481a5b9a5d1a585b1a5e995960921b60208201529150612e90565b6020808252810161075b81612fc3565b600060ff821661075b565b6129d28161301e565b6020810161075b8284613029565b60148152600060208201735265737472696374656420746f2061646d696e7360601b815291505b5060200190565b6020808252810161075b81613040565b601881526000602082017f5a65726f2061646472657373206e6f7420616c6c6f776564000000000000000081529150613067565b6020808252810161075b8161307e565b601f81526000602082017f5265737472696374656420746f20504f5254464f4c494f5f4d414e414745520081529150613067565b6020808252810161075b816130c2565b805161075b81612ad9565b60006020828403121561312657613126600080fd5b60006113ca8484613106565b604081016131408285612a9d565b6118576020830184612ac2565b805161075b81612d95565b60006020828403121561316d5761316d600080fd5b60006113ca848461314d565b602281526000602082017f5265737472696374656420746f20504f5254464f4c494f5f4147454e545f524f8152614c4560f01b60208201529150612e90565b6020808252810161075b81613179565b606081016131d68286612a9d565b6131e36020830185612a9d565b6113ca6040830184612a9d565b60ff8116612997565b805161075b816131f0565b60006020828403121561321957613219600080fd5b60006113ca84846131f9565b634e487b7160e01b600052601160045260246000fd5b80825b600185111561327a5780860481111561325957613259613225565b600185161561326757908102905b80026132738560011c90565b945061323e565b94509492505050565b60008261329257506001611857565b8161329f57506000611857565b81600181146132b557600281146132bf576132ec565b6001915050611857565b60ff8411156132d0576132d0613225565b8360020a9150848211156132e6576132e6613225565b50611857565b5060208310610133831016604e8410600b841016171561331f575081810a8381111561331a5761331a613225565b611857565b61332c848484600161323b565b9250905081840481111561334257613342613225565b0292915050565b600060ff831692506118576000198484613283565b6000808335601e193685900301811261337957613379600080fd5b80840192508235915067ffffffffffffffff82111561339a5761339a600080fd5b6020830192506001820236038313156133b5576133b5600080fd5b509250929050565b600061075b612a618381565b6133d2836133bd565b81546008840282811b60001990911b908116901990911617825550505050565b60006108248184846133c9565b81811015610864576134126000826133f2565b6001016133ff565b601f821115610824576000818152602090206020601f850104810160208510156134415750805b6134536020601f8601048301826133ff565b5050505050565b8267ffffffffffffffff81111561347357613473612b7d565b61347d8254612e22565b61348882828561341a565b6000601f8311600181146134bc57600084156134a45750858201355b600019600886021c1981166002860217865550613515565b600085815260208120601f198616915b828110156134ec57888501358255602094850194600190920191016134cc565b8683101561350857600019601f88166008021c19858a01351682555b6001600288020188555050505b50505050505050565b602981526000602082017f52657475726e65642076616c7565206c657373207468616e2072657175657374815268195908185b5bdd5b9d60ba1b60208201529150612e90565b6020808252810161075b8161351e565b604081016135828285612ac2565b6118576020830184612a9d565b604081016135828285612a9d565b600080604083850312156135b3576135b3600080fd5b60006135bf8585613106565b9250506020612b5285828601613106565b8082018082111561075b5761075b613225565b602e81526000602082017f45524331393637557067726164653a206e657720696d706c656d656e7461746981526d6f6e206973206e6f74205555505360901b60208201529150612e90565b6020808252810161075b816135e3565b602981526000602082017f45524331393637557067726164653a20756e737570706f727465642070726f788152681a58589b195555525160ba1b60208201529150612e90565b6020808252810161075b8161363e565b8181038181111561075b5761075b613225565b8181028082158382048514176136bf576136bf613225565b5092915050565b634e487b7160e01b600052601260045260246000fd5b6000826136eb576136eb6136c6565b500490565b601981526000602082017f536f6d6520746f6b656e206e6f7420636f6d70617469626c650000000000000081529150613067565b6020808252810161075b816136f0565b608081016137428287612ac2565b61374f6020830186612a9d565b61375c6040830185612a9d565b61250460608301846129ce565b604081016137778285612ac2565b61185760208301846129ce565b608081016137928287612ac2565b61379f6020830186612a9d565b6137ac6040830185612a9d565b6125046060830184612ac2565b60006137c3825190565b6137d18185602086016129e6565b9290920192915050565b7f416363657373436f6e74726f6c3a206163636f756e74200000000000000000008152601701600061380d82856137b9565b7001034b99036b4b9b9b4b733903937b6329607d1b815260110191506113ca82846137b9565b602d81526000602082017f455243313936373a206e657720696d706c656d656e746174696f6e206973206e81526c1bdd08184818dbdb9d1c9858dd609a1b60208201529150612e90565b6020808252810161075b81613833565b602b81526000602082017f496e697469616c697a61626c653a20636f6e7472616374206973206e6f74206981526a6e697469616c697a696e6760a81b60208201529150612e90565b6020808252810161075b8161388d565b634e487b7160e01b600052603260045260246000fd5b60006139078383612ac2565b505060200190565b6000613919825190565b80845260209384019383018060005b8381101561394d57815161393c88826138fb565b975060208301925050600101613928565b509495945050505050565b604081016139668285612a9d565b81810360208301526113ca818461390f565b600067ffffffffffffffff82111561399257613992612b7d565b5060209081020190565b60006139aa612c1c84613978565b838152905060208082019084028301858111156139c9576139c9600080fd5b835b818110156139ed57806139de8882613106565b845250602092830192016139cb565b5050509392505050565b600082601f830112613a0b57613a0b600080fd5b81516113ca84826020860161399c565b600060208284031215613a3057613a30600080fd5b815167ffffffffffffffff811115613a4a57613a4a600080fd5b6113ca848285016139f7565b60a08101613a648288612a9d565b613a716020830187612a9d565b8181036040830152613a83818661390f565b9050613a926060830185612ac2565b61211b6080830184612a9d565b600081613aae57613aae613225565b506000190190565b60208082527f537472696e67733a20686578206c656e67746820696e73756666696369656e7491019081526000613067565b6020808252810161075b81613ab6565b602681526000602082017f416464726573733a2064656c65676174652063616c6c20746f206e6f6e2d636f8152651b9d1c9858dd60d21b60208201529150612e90565b6020808252810161075b81613af8565b600061185782846137b956fe90c2aa7471c04182221f68e80c07ab1e5946e4c63f8693e14ca40385d529f051360894a13ba1a3210667c828492db98dca3e2076cc3735a920a3ca505d382bbc416464726573733a206c6f772d6c6576656c2064656c65676174652063616c6c206661696c6564a264697066735822122039cde4f0eb2720008464b073c897d19f39493e5d247aed109f408adc52dbbda764736f6c63430008110033",
  "implementation": "0x8CAbfc26A8390B131c1c42bdA4abf53240660b54",
  "devdoc": {
    "kind": "dev",
    "methods": {
      "constructor": {
        "custom:oz-upgrades-unsafe-allow": "constructor"
      },
      "getRoleAdmin(bytes32)": {
        "details": "Returns the admin role that controls `role`. See {grantRole} and {revokeRole}. To change a role's admin, use {_setRoleAdmin}."
      },
      "grantRole(bytes32,address)": {
        "details": "Grants `role` to `account`. If `account` had not been already granted `role`, emits a {RoleGranted} event. Requirements: - the caller must have ``role``'s admin role. May emit a {RoleGranted} event."
      },
      "hasRole(bytes32,address)": {
        "details": "Returns `true` if `account` has been granted `role`."
      },
      "proxiableUUID()": {
        "details": "Implementation of the ERC1822 {proxiableUUID} function. This returns the storage slot used by the implementation. It is used to validate the implementation's compatibility when performing an upgrade. IMPORTANT: A proxy pointing at a proxiable contract should not be considered proxiable itself, because this risks bricking a proxy that upgrades to it, by delegating to itself until out of gas. Thus it is critical that this function revert if invoked through a proxy. This is guaranteed by the `notDelegated` modifier."
      },
      "renounceRole(bytes32,address)": {
        "details": "Revokes `role` from the calling account. Roles are often managed via {grantRole} and {revokeRole}: this function's purpose is to provide a mechanism for accounts to lose their privileges if they are compromised (such as when a trusted device is misplaced). If the calling account had been revoked `role`, emits a {RoleRevoked} event. Requirements: - the caller must be `account`. May emit a {RoleRevoked} event."
      },
      "revokeRole(bytes32,address)": {
        "details": "Revokes `role` from `account`. If `account` had been granted `role`, emits a {RoleRevoked} event. Requirements: - the caller must have ``role``'s admin role. May emit a {RoleRevoked} event."
      },
      "supportsInterface(bytes4)": {
        "details": "See {IERC165-supportsInterface}."
      },
      "upgradeTo(address)": {
        "details": "Upgrade the implementation of the proxy to `newImplementation`. Calls {_authorizeUpgrade}. Emits an {Upgraded} event."
      },
      "upgradeToAndCall(address,bytes)": {
        "details": "Upgrade the implementation of the proxy to `newImplementation`, and subsequently execute the function call encoded in `data`. Calls {_authorizeUpgrade}. Emits an {Upgraded} event."
      }
    },
    "version": 1
  },
  "userdoc": {
    "kind": "user",
    "methods": {},
    "version": 1
  },
  "storageLayout": {
    "storage": [
      {
        "astId": 804,
        "contract": "contracts/strategies/StrategyWombexUsdt.sol:StrategyWombexUsdt",
        "label": "_initialized",
        "offset": 0,
        "slot": "0",
        "type": "t_uint8"
      },
      {
        "astId": 807,
        "contract": "contracts/strategies/StrategyWombexUsdt.sol:StrategyWombexUsdt",
        "label": "_initializing",
        "offset": 1,
        "slot": "0",
        "type": "t_bool"
      },
      {
        "astId": 1657,
        "contract": "contracts/strategies/StrategyWombexUsdt.sol:StrategyWombexUsdt",
        "label": "__gap",
        "offset": 0,
        "slot": "1",
        "type": "t_array(t_uint256)50_storage"
      },
      {
        "astId": 1936,
        "contract": "contracts/strategies/StrategyWombexUsdt.sol:StrategyWombexUsdt",
        "label": "__gap",
        "offset": 0,
        "slot": "51",
        "type": "t_array(t_uint256)50_storage"
      },
      {
        "astId": 39,
        "contract": "contracts/strategies/StrategyWombexUsdt.sol:StrategyWombexUsdt",
        "label": "_roles",
        "offset": 0,
        "slot": "101",
        "type": "t_mapping(t_bytes32,t_struct(RoleData)34_storage)"
      },
      {
        "astId": 334,
        "contract": "contracts/strategies/StrategyWombexUsdt.sol:StrategyWombexUsdt",
        "label": "__gap",
        "offset": 0,
        "slot": "102",
        "type": "t_array(t_uint256)49_storage"
      },
      {
        "astId": 786,
        "contract": "contracts/strategies/StrategyWombexUsdt.sol:StrategyWombexUsdt",
        "label": "__gap",
        "offset": 0,
        "slot": "151",
        "type": "t_array(t_uint256)50_storage"
      },
      {
        "astId": 1101,
        "contract": "contracts/strategies/StrategyWombexUsdt.sol:StrategyWombexUsdt",
        "label": "__gap",
        "offset": 0,
        "slot": "201",
        "type": "t_array(t_uint256)50_storage"
      },
      {
        "astId": 8550,
        "contract": "contracts/strategies/StrategyWombexUsdt.sol:StrategyWombexUsdt",
        "label": "portfolioManager",
        "offset": 0,
        "slot": "251",
        "type": "t_address"
      },
      {
        "astId": 8552,
        "contract": "contracts/strategies/StrategyWombexUsdt.sol:StrategyWombexUsdt",
        "label": "swapSlippageBP",
        "offset": 0,
        "slot": "252",
        "type": "t_uint256"
      },
      {
        "astId": 8554,
        "contract": "contracts/strategies/StrategyWombexUsdt.sol:StrategyWombexUsdt",
        "label": "navSlippageBP",
        "offset": 0,
        "slot": "253",
        "type": "t_uint256"
      },
      {
        "astId": 8556,
        "contract": "contracts/strategies/StrategyWombexUsdt.sol:StrategyWombexUsdt",
        "label": "stakeSlippageBP",
        "offset": 0,
        "slot": "254",
        "type": "t_uint256"
      },
      {
        "astId": 8923,
        "contract": "contracts/strategies/StrategyWombexUsdt.sol:StrategyWombexUsdt",
        "label": "__gap",
        "offset": 0,
        "slot": "255",
        "type": "t_array(t_uint256)46_storage"
      },
      {
        "astId": 20104,
        "contract": "contracts/strategies/StrategyWombexUsdt.sol:StrategyWombexUsdt",
        "label": "usdt",
        "offset": 0,
        "slot": "301",
        "type": "t_contract(IERC20)2892"
      },
      {
        "astId": 20107,
        "contract": "contracts/strategies/StrategyWombexUsdt.sol:StrategyWombexUsdt",
        "label": "wom",
        "offset": 0,
        "slot": "302",
        "type": "t_contract(IERC20)2892"
      },
      {
        "astId": 20110,
        "contract": "contracts/strategies/StrategyWombexUsdt.sol:StrategyWombexUsdt",
        "label": "wmx",
        "offset": 0,
        "slot": "303",
        "type": "t_contract(IERC20)2892"
      },
      {
        "astId": 20113,
        "contract": "contracts/strategies/StrategyWombexUsdt.sol:StrategyWombexUsdt",
        "label": "lpUsdt",
        "offset": 0,
        "slot": "304",
        "type": "t_contract(IWombatAsset)12146"
      },
      {
        "astId": 20116,
        "contract": "contracts/strategies/StrategyWombexUsdt.sol:StrategyWombexUsdt",
        "label": "wmxLpUsdt",
        "offset": 0,
        "slot": "305",
        "type": "t_contract(IWombexBaseRewardPool)13285"
      },
      {
        "astId": 20119,
        "contract": "contracts/strategies/StrategyWombexUsdt.sol:StrategyWombexUsdt",
        "label": "poolDepositor",
        "offset": 0,
        "slot": "306",
        "type": "t_contract(IWombexPoolDepositor)13330"
      },
      {
        "astId": 20121,
        "contract": "contracts/strategies/StrategyWombexUsdt.sol:StrategyWombexUsdt",
        "label": "pool",
        "offset": 0,
        "slot": "307",
        "type": "t_address"
      },
      {
        "astId": 20124,
        "contract": "contracts/strategies/StrategyWombexUsdt.sol:StrategyWombexUsdt",
        "label": "pancakeRouter",
        "offset": 0,
        "slot": "308",
        "type": "t_contract(IPancakeRouter02)10211"
      },
      {
        "astId": 20127,
        "contract": "contracts/strategies/StrategyWombexUsdt.sol:StrategyWombexUsdt",
        "label": "wombatRouter",
        "offset": 0,
        "slot": "309",
        "type": "t_contract(IWombatRouter)12418"
      },
      {
        "astId": 20130,
        "contract": "contracts/strategies/StrategyWombexUsdt.sol:StrategyWombexUsdt",
        "label": "oracleBusd",
        "offset": 0,
        "slot": "310",
        "type": "t_contract(IPriceFeed)8999"
      },
      {
        "astId": 20133,
        "contract": "contracts/strategies/StrategyWombexUsdt.sol:StrategyWombexUsdt",
        "label": "oracleUsdt",
        "offset": 0,
        "slot": "311",
        "type": "t_contract(IPriceFeed)8999"
      },
      {
        "astId": 20135,
        "contract": "contracts/strategies/StrategyWombexUsdt.sol:StrategyWombexUsdt",
        "label": "usdtDm",
        "offset": 0,
        "slot": "312",
        "type": "t_uint256"
      },
      {
        "astId": 20137,
        "contract": "contracts/strategies/StrategyWombexUsdt.sol:StrategyWombexUsdt",
        "label": "lpUsdtDm",
        "offset": 0,
        "slot": "313",
        "type": "t_uint256"
      },
      {
        "astId": 20140,
        "contract": "contracts/strategies/StrategyWombexUsdt.sol:StrategyWombexUsdt",
        "label": "busd",
        "offset": 0,
        "slot": "314",
        "type": "t_contract(IERC20)2892"
      },
      {
        "astId": 20142,
        "contract": "contracts/strategies/StrategyWombexUsdt.sol:StrategyWombexUsdt",
        "label": "name",
        "offset": 0,
        "slot": "315",
        "type": "t_string_storage"
      }
    ],
    "types": {
      "t_address": {
        "encoding": "inplace",
        "label": "address",
        "numberOfBytes": "20"
      },
      "t_array(t_uint256)46_storage": {
        "base": "t_uint256",
        "encoding": "inplace",
        "label": "uint256[46]",
        "numberOfBytes": "1472"
      },
      "t_array(t_uint256)49_storage": {
        "base": "t_uint256",
        "encoding": "inplace",
        "label": "uint256[49]",
        "numberOfBytes": "1568"
      },
      "t_array(t_uint256)50_storage": {
        "base": "t_uint256",
        "encoding": "inplace",
        "label": "uint256[50]",
        "numberOfBytes": "1600"
      },
      "t_bool": {
        "encoding": "inplace",
        "label": "bool",
        "numberOfBytes": "1"
      },
      "t_bytes32": {
        "encoding": "inplace",
        "label": "bytes32",
        "numberOfBytes": "32"
      },
      "t_contract(IERC20)2892": {
        "encoding": "inplace",
        "label": "contract IERC20",
        "numberOfBytes": "20"
      },
      "t_contract(IPancakeRouter02)10211": {
        "encoding": "inplace",
        "label": "contract IPancakeRouter02",
        "numberOfBytes": "20"
      },
      "t_contract(IPriceFeed)8999": {
        "encoding": "inplace",
        "label": "contract IPriceFeed",
        "numberOfBytes": "20"
      },
      "t_contract(IWombatAsset)12146": {
        "encoding": "inplace",
        "label": "contract IWombatAsset",
        "numberOfBytes": "20"
      },
      "t_contract(IWombatRouter)12418": {
        "encoding": "inplace",
        "label": "contract IWombatRouter",
        "numberOfBytes": "20"
      },
      "t_contract(IWombexBaseRewardPool)13285": {
        "encoding": "inplace",
        "label": "contract IWombexBaseRewardPool",
        "numberOfBytes": "20"
      },
      "t_contract(IWombexPoolDepositor)13330": {
        "encoding": "inplace",
        "label": "contract IWombexPoolDepositor",
        "numberOfBytes": "20"
      },
      "t_mapping(t_address,t_bool)": {
        "encoding": "mapping",
        "key": "t_address",
        "label": "mapping(address => bool)",
        "numberOfBytes": "32",
        "value": "t_bool"
      },
      "t_mapping(t_bytes32,t_struct(RoleData)34_storage)": {
        "encoding": "mapping",
        "key": "t_bytes32",
        "label": "mapping(bytes32 => struct AccessControlUpgradeable.RoleData)",
        "numberOfBytes": "32",
        "value": "t_struct(RoleData)34_storage"
      },
      "t_string_storage": {
        "encoding": "bytes",
        "label": "string",
        "numberOfBytes": "32"
      },
      "t_struct(RoleData)34_storage": {
        "encoding": "inplace",
        "label": "struct AccessControlUpgradeable.RoleData",
        "members": [
          {
            "astId": 31,
            "contract": "contracts/strategies/StrategyWombexUsdt.sol:StrategyWombexUsdt",
            "label": "members",
            "offset": 0,
            "slot": "0",
            "type": "t_mapping(t_address,t_bool)"
          },
          {
            "astId": 33,
            "contract": "contracts/strategies/StrategyWombexUsdt.sol:StrategyWombexUsdt",
            "label": "adminRole",
            "offset": 0,
            "slot": "1",
            "type": "t_bytes32"
          }
        ],
        "numberOfBytes": "64"
      },
      "t_uint256": {
        "encoding": "inplace",
        "label": "uint256",
        "numberOfBytes": "32"
      },
      "t_uint8": {
        "encoding": "inplace",
        "label": "uint8",
        "numberOfBytes": "1"
      }
    }
  }
}