{
  "address": "0x39E29f4FB13AeC505EF32Ee6Ff7cc16e2225B11F",
  "abi": [
    {
      "inputs": [],
      "stateMutability": "nonpayable",
      "type": "constructor"
    },
    {
      "anonymous": false,
      "inputs": [
        {
          "indexed": false,
          "internalType": "address",
          "name": "previousAdmin",
          "type": "address"
        },
        {
          "indexed": false,
          "internalType": "address",
          "name": "newAdmin",
          "type": "address"
        }
      ],
      "name": "AdminChanged",
      "type": "event"
    },
    {
      "anonymous": false,
      "inputs": [
        {
          "indexed": true,
          "internalType": "address",
          "name": "beacon",
          "type": "address"
        }
      ],
      "name": "BeaconUpgraded",
      "type": "event"
    },
    {
      "anonymous": false,
      "inputs": [
        {
          "indexed": false,
          "internalType": "uint8",
          "name": "version",
          "type": "uint8"
        }
      ],
      "name": "Initialized",
      "type": "event"
    },
    {
      "anonymous": false,
      "inputs": [
        {
          "indexed": false,
          "internalType": "address",
          "name": "value",
          "type": "address"
        }
      ],
      "name": "PortfolioManagerUpdated",
      "type": "event"
    },
    {
      "anonymous": false,
      "inputs": [
        {
          "indexed": false,
          "internalType": "uint256",
          "name": "amount",
          "type": "uint256"
        }
      ],
      "name": "Reward",
      "type": "event"
    },
    {
      "anonymous": false,
      "inputs": [
        {
          "indexed": true,
          "internalType": "bytes32",
          "name": "role",
          "type": "bytes32"
        },
        {
          "indexed": true,
          "internalType": "bytes32",
          "name": "previousAdminRole",
          "type": "bytes32"
        },
        {
          "indexed": true,
          "internalType": "bytes32",
          "name": "newAdminRole",
          "type": "bytes32"
        }
      ],
      "name": "RoleAdminChanged",
      "type": "event"
    },
    {
      "anonymous": false,
      "inputs": [
        {
          "indexed": true,
          "internalType": "bytes32",
          "name": "role",
          "type": "bytes32"
        },
        {
          "indexed": true,
          "internalType": "address",
          "name": "account",
          "type": "address"
        },
        {
          "indexed": true,
          "internalType": "address",
          "name": "sender",
          "type": "address"
        }
      ],
      "name": "RoleGranted",
      "type": "event"
    },
    {
      "anonymous": false,
      "inputs": [
        {
          "indexed": true,
          "internalType": "bytes32",
          "name": "role",
          "type": "bytes32"
        },
        {
          "indexed": true,
          "internalType": "address",
          "name": "account",
          "type": "address"
        },
        {
          "indexed": true,
          "internalType": "address",
          "name": "sender",
          "type": "address"
        }
      ],
      "name": "RoleRevoked",
      "type": "event"
    },
    {
      "anonymous": false,
      "inputs": [
        {
          "indexed": false,
          "internalType": "uint256",
          "name": "swapSlippageBP",
          "type": "uint256"
        },
        {
          "indexed": false,
          "internalType": "uint256",
          "name": "navSlippageBP",
          "type": "uint256"
        },
        {
          "indexed": false,
          "internalType": "uint256",
          "name": "stakeSlippageBP",
          "type": "uint256"
        }
      ],
      "name": "SlippagesUpdated",
      "type": "event"
    },
    {
      "anonymous": false,
      "inputs": [
        {
          "indexed": false,
          "internalType": "uint256",
          "name": "amount",
          "type": "uint256"
        }
      ],
      "name": "Stake",
      "type": "event"
    },
    {
      "anonymous": false,
      "inputs": [],
      "name": "StrategyUpdatedParams",
      "type": "event"
    },
    {
      "anonymous": false,
      "inputs": [
        {
          "indexed": false,
          "internalType": "uint256",
          "name": "amount",
          "type": "uint256"
        },
        {
          "indexed": false,
          "internalType": "uint256",
          "name": "amountReceived",
          "type": "uint256"
        }
      ],
      "name": "Unstake",
      "type": "event"
    },
    {
      "anonymous": false,
      "inputs": [
        {
          "indexed": true,
          "internalType": "address",
          "name": "implementation",
          "type": "address"
        }
      ],
      "name": "Upgraded",
      "type": "event"
    },
    {
      "inputs": [],
      "name": "DEFAULT_ADMIN_ROLE",
      "outputs": [
        {
          "internalType": "bytes32",
          "name": "",
          "type": "bytes32"
        }
      ],
      "stateMutability": "view",
      "type": "function"
    },
    {
      "inputs": [],
      "name": "PORTFOLIO_AGENT_ROLE",
      "outputs": [
        {
          "internalType": "bytes32",
          "name": "",
          "type": "bytes32"
        }
      ],
      "stateMutability": "view",
      "type": "function"
    },
    {
      "inputs": [],
      "name": "PORTFOLIO_MANAGER",
      "outputs": [
        {
          "internalType": "bytes32",
          "name": "",
          "type": "bytes32"
        }
      ],
      "stateMutability": "view",
      "type": "function"
    },
    {
      "inputs": [],
      "name": "busd",
      "outputs": [
        {
          "internalType": "contract IERC20",
          "name": "",
          "type": "address"
        }
      ],
      "stateMutability": "view",
      "type": "function"
    },
    {
      "inputs": [],
      "name": "busdDm",
      "outputs": [
        {
          "internalType": "uint256",
          "name": "",
          "type": "uint256"
        }
      ],
      "stateMutability": "view",
      "type": "function"
    },
    {
      "inputs": [
        {
          "internalType": "address",
          "name": "_to",
          "type": "address"
        }
      ],
      "name": "claimRewards",
      "outputs": [
        {
          "internalType": "uint256",
          "name": "",
          "type": "uint256"
        }
      ],
      "stateMutability": "nonpayable",
      "type": "function"
    },
    {
      "inputs": [],
      "name": "gauge",
      "outputs": [
        {
          "internalType": "contract IGaugeV2",
          "name": "",
          "type": "address"
        }
      ],
      "stateMutability": "view",
      "type": "function"
    },
    {
      "inputs": [
        {
          "internalType": "bytes32",
          "name": "role",
          "type": "bytes32"
        }
      ],
      "name": "getRoleAdmin",
      "outputs": [
        {
          "internalType": "bytes32",
          "name": "",
          "type": "bytes32"
        }
      ],
      "stateMutability": "view",
      "type": "function"
    },
    {
      "inputs": [
        {
          "internalType": "bytes32",
          "name": "role",
          "type": "bytes32"
        },
        {
          "internalType": "address",
          "name": "account",
          "type": "address"
        }
      ],
      "name": "grantRole",
      "outputs": [],
      "stateMutability": "nonpayable",
      "type": "function"
    },
    {
      "inputs": [
        {
          "internalType": "bytes32",
          "name": "role",
          "type": "bytes32"
        },
        {
          "internalType": "address",
          "name": "account",
          "type": "address"
        }
      ],
      "name": "hasRole",
      "outputs": [
        {
          "internalType": "bool",
          "name": "",
          "type": "bool"
        }
      ],
      "stateMutability": "view",
      "type": "function"
    },
    {
      "inputs": [],
      "name": "initialize",
      "outputs": [],
      "stateMutability": "nonpayable",
      "type": "function"
    },
    {
      "inputs": [],
      "name": "liquidationValue",
      "outputs": [
        {
          "internalType": "uint256",
          "name": "",
          "type": "uint256"
        }
      ],
      "stateMutability": "view",
      "type": "function"
    },
    {
      "inputs": [],
      "name": "navSlippageBP",
      "outputs": [
        {
          "internalType": "uint256",
          "name": "",
          "type": "uint256"
        }
      ],
      "stateMutability": "view",
      "type": "function"
    },
    {
      "inputs": [],
      "name": "netAssetValue",
      "outputs": [
        {
          "internalType": "uint256",
          "name": "",
          "type": "uint256"
        }
      ],
      "stateMutability": "view",
      "type": "function"
    },
    {
      "inputs": [],
      "name": "oracleBusd",
      "outputs": [
        {
          "internalType": "contract IPriceFeed",
          "name": "",
          "type": "address"
        }
      ],
      "stateMutability": "view",
      "type": "function"
    },
    {
      "inputs": [],
      "name": "oracleUsdc",
      "outputs": [
        {
          "internalType": "contract IPriceFeed",
          "name": "",
          "type": "address"
        }
      ],
      "stateMutability": "view",
      "type": "function"
    },
    {
      "inputs": [],
      "name": "pair",
      "outputs": [
        {
          "internalType": "contract IPair",
          "name": "",
          "type": "address"
        }
      ],
      "stateMutability": "view",
      "type": "function"
    },
    {
      "inputs": [],
      "name": "portfolioManager",
      "outputs": [
        {
          "internalType": "address",
          "name": "",
          "type": "address"
        }
      ],
      "stateMutability": "view",
      "type": "function"
    },
    {
      "inputs": [],
      "name": "proxiableUUID",
      "outputs": [
        {
          "internalType": "bytes32",
          "name": "",
          "type": "bytes32"
        }
      ],
      "stateMutability": "view",
      "type": "function"
    },
    {
      "inputs": [
        {
          "internalType": "bytes32",
          "name": "role",
          "type": "bytes32"
        },
        {
          "internalType": "address",
          "name": "account",
          "type": "address"
        }
      ],
      "name": "renounceRole",
      "outputs": [],
      "stateMutability": "nonpayable",
      "type": "function"
    },
    {
      "inputs": [
        {
          "internalType": "bytes32",
          "name": "role",
          "type": "bytes32"
        },
        {
          "internalType": "address",
          "name": "account",
          "type": "address"
        }
      ],
      "name": "revokeRole",
      "outputs": [],
      "stateMutability": "nonpayable",
      "type": "function"
    },
    {
      "inputs": [],
      "name": "router",
      "outputs": [
        {
          "internalType": "contract IRouter",
          "name": "",
          "type": "address"
        }
      ],
      "stateMutability": "view",
      "type": "function"
    },
    {
      "inputs": [
        {
          "components": [
            {
              "internalType": "address",
              "name": "busdToken",
              "type": "address"
            },
            {
              "internalType": "address",
              "name": "usdcToken",
              "type": "address"
            },
            {
              "internalType": "address",
              "name": "wUsdr",
              "type": "address"
            },
            {
              "internalType": "address",
              "name": "the",
              "type": "address"
            },
            {
              "internalType": "address",
              "name": "pair",
              "type": "address"
            },
            {
              "internalType": "address",
              "name": "router",
              "type": "address"
            },
            {
              "internalType": "address",
              "name": "gauge",
              "type": "address"
            },
            {
              "internalType": "address",
              "name": "wombatPool",
              "type": "address"
            },
            {
              "internalType": "address",
              "name": "wombatRouter",
              "type": "address"
            },
            {
              "internalType": "address",
              "name": "oracleBusd",
              "type": "address"
            },
            {
              "internalType": "address",
              "name": "oracleUsdc",
              "type": "address"
            }
          ],
          "internalType": "struct StrategyThenawUsdrUsdc.StrategyParams",
          "name": "params",
          "type": "tuple"
        }
      ],
      "name": "setParams",
      "outputs": [],
      "stateMutability": "nonpayable",
      "type": "function"
    },
    {
      "inputs": [
        {
          "internalType": "address",
          "name": "_value",
          "type": "address"
        }
      ],
      "name": "setPortfolioManager",
      "outputs": [],
      "stateMutability": "nonpayable",
      "type": "function"
    },
    {
      "inputs": [
        {
          "internalType": "uint256",
          "name": "_swapSlippageBP",
          "type": "uint256"
        },
        {
          "internalType": "uint256",
          "name": "_navSlippageBP",
          "type": "uint256"
        },
        {
          "internalType": "uint256",
          "name": "_stakeSlippageBP",
          "type": "uint256"
        }
      ],
      "name": "setSlippages",
      "outputs": [],
      "stateMutability": "nonpayable",
      "type": "function"
    },
    {
      "inputs": [
        {
          "internalType": "address",
          "name": "_asset",
          "type": "address"
        },
        {
          "internalType": "uint256",
          "name": "_amount",
          "type": "uint256"
        }
      ],
      "name": "stake",
      "outputs": [],
      "stateMutability": "nonpayable",
      "type": "function"
    },
    {
      "inputs": [],
      "name": "stakeSlippageBP",
      "outputs": [
        {
          "internalType": "uint256",
          "name": "",
          "type": "uint256"
        }
      ],
      "stateMutability": "view",
      "type": "function"
    },
    {
      "inputs": [
        {
          "internalType": "bytes4",
          "name": "interfaceId",
          "type": "bytes4"
        }
      ],
      "name": "supportsInterface",
      "outputs": [
        {
          "internalType": "bool",
          "name": "",
          "type": "bool"
        }
      ],
      "stateMutability": "view",
      "type": "function"
    },
    {
      "inputs": [],
      "name": "swapSlippageBP",
      "outputs": [
        {
          "internalType": "uint256",
          "name": "",
          "type": "uint256"
        }
      ],
      "stateMutability": "view",
      "type": "function"
    },
    {
      "inputs": [],
      "name": "the",
      "outputs": [
        {
          "internalType": "contract IERC20",
          "name": "",
          "type": "address"
        }
      ],
      "stateMutability": "view",
      "type": "function"
    },
    {
      "inputs": [
        {
          "internalType": "address",
          "name": "_asset",
          "type": "address"
        },
        {
          "internalType": "uint256",
          "name": "_amount",
          "type": "uint256"
        },
        {
          "internalType": "address",
          "name": "_beneficiary",
          "type": "address"
        },
        {
          "internalType": "bool",
          "name": "_targetIsZero",
          "type": "bool"
        }
      ],
      "name": "unstake",
      "outputs": [
        {
          "internalType": "uint256",
          "name": "",
          "type": "uint256"
        }
      ],
      "stateMutability": "nonpayable",
      "type": "function"
    },
    {
      "inputs": [
        {
          "internalType": "address",
          "name": "newImplementation",
          "type": "address"
        }
      ],
      "name": "upgradeTo",
      "outputs": [],
      "stateMutability": "nonpayable",
      "type": "function"
    },
    {
      "inputs": [
        {
          "internalType": "address",
          "name": "newImplementation",
          "type": "address"
        },
        {
          "internalType": "bytes",
          "name": "data",
          "type": "bytes"
        }
      ],
      "name": "upgradeToAndCall",
      "outputs": [],
      "stateMutability": "payable",
      "type": "function"
    },
    {
      "inputs": [],
      "name": "usdc",
      "outputs": [
        {
          "internalType": "contract IERC20",
          "name": "",
          "type": "address"
        }
      ],
      "stateMutability": "view",
      "type": "function"
    },
    {
      "inputs": [],
      "name": "usdcDm",
      "outputs": [
        {
          "internalType": "uint256",
          "name": "",
          "type": "uint256"
        }
      ],
      "stateMutability": "view",
      "type": "function"
    },
    {
      "inputs": [],
      "name": "wUsdr",
      "outputs": [
        {
          "internalType": "contract IERC20",
          "name": "",
          "type": "address"
        }
      ],
      "stateMutability": "view",
      "type": "function"
    },
    {
      "inputs": [],
      "name": "wUsdrDm",
      "outputs": [
        {
          "internalType": "uint256",
          "name": "",
          "type": "uint256"
        }
      ],
      "stateMutability": "view",
      "type": "function"
    },
    {
      "inputs": [],
      "name": "wombatPool",
      "outputs": [
        {
          "internalType": "contract IPool",
          "name": "",
          "type": "address"
        }
      ],
      "stateMutability": "view",
      "type": "function"
    },
    {
      "inputs": [],
      "name": "wombatRouter",
      "outputs": [
        {
          "internalType": "contract IWombatRouter",
          "name": "",
          "type": "address"
        }
      ],
      "stateMutability": "view",
      "type": "function"
    }
  ],
  "numDeployments": 2,
  "solcInputHash": "adeb6ac4d18712241ae5cb619e677e87",
  "bytecode": "0x60a0604052306080523480156200001557600080fd5b50600054610100900460ff1615808015620000375750600054600160ff909116105b8062000067575062000054306200010860201b620014ad1760201c565b15801562000067575060005460ff166001145b6200008f5760405162461bcd60e51b8152600401620000869062000117565b60405180910390fd5b6000805460ff191660011790558015620000b3576000805461ff0019166101001790555b801562000101576000805461ff00191690556040517f7f26b83ff96e1f2b6a682f133852f6798a09c465da95921460cefb384740249890620000f8906001906200018d565b60405180910390a15b506200019d565b6001600160a01b03163b151590565b602080825281016200016a81602e81527f496e697469616c697a61626c653a20636f6e747261637420697320616c72656160208201526d191e481a5b9a5d1a585b1a5e995960921b604082015260600190565b92915050565b600060ff82166200016a565b620001878162000170565b82525050565b602081016200016a82846200017c565b608051615ec3620001d5600039600081816107d50152818161081501528181610ca301528181610ce30152610d720152615ec36000f3fe6080604052600436106102305760003560e01c80637d5f58021161012e578063adc9772e116100ab578063ddefa4ab1161006f578063ddefa4ab14610677578063eb23e48314610698578063ef5cfb8c146106b9578063f6f6b881146106d9578063f887ea40146106f957600080fd5b8063adc9772e146105ea578063ae30c1101461060a578063bf52e0801461062a578063d547741f14610640578063dc19d6431461066057600080fd5b8063a440b21a116100f2578063a440b21a14610550578063a66b571314610570578063a6f19c8414610591578063a8a69576146105b2578063a8aa1b31146105c957600080fd5b80637d5f5802146104bd5780638129fc1c146104f157806391d1485414610506578063a217fddf14610526578063a3673b381461053b57600080fd5b80633ca5b234116101bc5780635ca558f8116101805780635ca558f8146104045780635dbd733a1461041a5780635fea9cbb1461044e578063612c87df1461046f578063620b75df1461049057600080fd5b80633ca5b2341461037a5780633e413bee1461039b578063431ac739146103bc5780634f1ef286146103dc57806352d1902d146103ef57600080fd5b8063248a9ca311610203578063248a9ca3146102d35780632576e65a146103035780632f2ff15d1461031857806336568abe1461033a5780633659cfe61461035a57600080fd5b8063012ee9281461023557806301ffc9a71461026c578063119cd879146102995780631b1e7ddc146102bc575b600080fd5b34801561024157600080fd5b5061013454610256906001600160a01b031681565b6040516102639190614999565b60405180910390f35b34801561027857600080fd5b5061028c6102873660046149c9565b61071a565b60405161026391906149f2565b3480156102a557600080fd5b506102af60fd5481565b6040516102639190614a06565b3480156102c857600080fd5b506102af6101395481565b3480156102df57600080fd5b506102af6102ee366004614a25565b60009081526065602052604090206001015490565b34801561030f57600080fd5b506102af610751565b34801561032457600080fd5b50610338610333366004614a6b565b610762565b005b34801561034657600080fd5b50610338610355366004614a6b565b61078c565b34801561036657600080fd5b50610338610375366004614aa8565b6107cb565b34801561038657600080fd5b5061012d54610256906001600160a01b031681565b3480156103a757600080fd5b5061012e54610256906001600160a01b031681565b3480156103c857600080fd5b506103386103d7366004614ae5565b6108aa565b6103386103ea366004614bfa565b610c99565b3480156103fb57600080fd5b506102af610d65565b34801561041057600080fd5b506102af60fe5481565b34801561042657600080fd5b506102af7fd67ad422505496469a1adf6cdf9e5ee92ac5d33992843c9ecc4b2f6d6cde913781565b34801561045a57600080fd5b5061013754610256906001600160a01b031681565b34801561047b57600080fd5b5061013554610256906001600160a01b031681565b34801561049c57600080fd5b5060fb546104b0906001600160a01b031681565b6040516102639190614c51565b3480156104c957600080fd5b506102af7f90c2aa7471c04182221f68e80c07ab1e5946e4c63f8693e14ca40385d529f05181565b3480156104fd57600080fd5b50610338610dc2565b34801561051257600080fd5b5061028c610521366004614a6b565b610e90565b34801561053257600080fd5b506102af600081565b34801561054757600080fd5b506102af610ebb565b34801561055c57600080fd5b5061033861056b366004614aa8565b610ec7565b34801561057c57600080fd5b5061013654610256906001600160a01b031681565b34801561059d57600080fd5b5061013354610256906001600160a01b031681565b3480156105be57600080fd5b506102af61013a5481565b3480156105d557600080fd5b5061013154610256906001600160a01b031681565b3480156105f657600080fd5b50610338610605366004614c5f565b610fc0565b34801561061657600080fd5b50610338610625366004614c92565b6110e3565b34801561063657600080fd5b506102af60fc5481565b34801561064c57600080fd5b5061033861065b366004614a6b565b611205565b34801561066c57600080fd5b506102af6101385481565b34801561068357600080fd5b5061013054610256906001600160a01b031681565b3480156106a457600080fd5b5061012f54610256906001600160a01b031681565b3480156106c557600080fd5b506102af6106d4366004614aa8565b61122a565b3480156106e557600080fd5b506102af6106f4366004614cf5565b61127b565b34801561070557600080fd5b5061013254610256906001600160a01b031681565b60006001600160e01b03198216637965db0b60e01b148061074b57506301ffc9a760e01b6001600160e01b03198316145b92915050565b600061075d60006114bc565b905090565b60008281526065602052604090206001015461077d8161191b565b6107878383611925565b505050565b6001600160a01b03811633146107bd5760405162461bcd60e51b81526004016107b490614da8565b60405180910390fd5b6107c782826119ab565b5050565b6001600160a01b037f00000000000000000000000000000000000000000000000000000000000000001630036108135760405162461bcd60e51b81526004016107b490614e01565b7f00000000000000000000000000000000000000000000000000000000000000006001600160a01b031661085c600080516020615e18833981519152546001600160a01b031690565b6001600160a01b0316146108825760405162461bcd60e51b81526004016107b490614e5a565b61088b81611a12565b604080516000808252602082019092526108a791839190611a1d565b50565b6108b5600033610e90565b6108d15760405162461bcd60e51b81526004016107b490614e98565b6108de6020820182614aa8565b61012d80546001600160a01b0319166001600160a01b039290921691909117905561090f6040820160208301614aa8565b61012e80546001600160a01b0319166001600160a01b03929092169190911790556109406060820160408301614aa8565b61012f80546001600160a01b0319166001600160a01b03929092169190911790556109716080820160608301614aa8565b61013080546001600160a01b0319166001600160a01b03929092169190911790556109a260a0820160808301614aa8565b61013180546001600160a01b0319166001600160a01b03929092169190911790556109d360c0820160a08301614aa8565b61013280546001600160a01b0319166001600160a01b0392909216919091179055610a0460e0820160c08301614aa8565b61013380546001600160a01b0319166001600160a01b0392909216919091179055610a36610100820160e08301614aa8565b61013480546001600160a01b0319166001600160a01b0392909216919091179055610a6961012082016101008301614aa8565b61013580546001600160a01b0319166001600160a01b0392909216919091179055610a9c61014082016101208301614aa8565b61013680546001600160a01b0319166001600160a01b0392909216919091179055610acf61016082016101408301614aa8565b61013780546001600160a01b0319166001600160a01b0392909216919091179055610afd6020820182614aa8565b6001600160a01b031663313ce5676040518163ffffffff1660e01b8152600401602060405180830381865afa158015610b3a573d6000803e3d6000fd5b505050506040513d601f19601f82011682018060405250810190610b5e9190614ebc565b610b6990600a615001565b61013855610b7d6040820160208301614aa8565b6001600160a01b031663313ce5676040518163ffffffff1660e01b8152600401602060405180830381865afa158015610bba573d6000803e3d6000fd5b505050506040513d601f19601f82011682018060405250810190610bde9190614ebc565b610be990600a615001565b61013955610bfd6060820160408301614aa8565b6001600160a01b031663313ce5676040518163ffffffff1660e01b8152600401602060405180830381865afa158015610c3a573d6000803e3d6000fd5b505050506040513d601f19601f82011682018060405250810190610c5e9190614ebc565b610c6990600a615001565b61013a556040517fea5646eb3528e525944447a4a97de700dd472298626e5c0481d1c82c3da86ea590600090a150565b6001600160a01b037f0000000000000000000000000000000000000000000000000000000000000000163003610ce15760405162461bcd60e51b81526004016107b490614e01565b7f00000000000000000000000000000000000000000000000000000000000000006001600160a01b0316610d2a600080516020615e18833981519152546001600160a01b031690565b6001600160a01b031614610d505760405162461bcd60e51b81526004016107b490614e5a565b610d5982611a12565b6107c782826001611a1d565b6000306001600160a01b037f00000000000000000000000000000000000000000000000000000000000000001614610daf5760405162461bcd60e51b81526004016107b490615070565b50600080516020615e1883398151915290565b600054610100900460ff1615808015610de25750600054600160ff909116105b80610dfc5750303b158015610dfc575060005460ff166001145b610e185760405162461bcd60e51b81526004016107b4906150cb565b6000805460ff191660011790558015610e3b576000805461ff0019166101001790555b610e43611aff565b80156108a7576000805461ff00191690556040517f7f26b83ff96e1f2b6a682f133852f6798a09c465da95921460cefb384740249890610e85906001906150ef565b60405180910390a150565b60009182526065602090815260408084206001600160a01b0393909316845291905290205460ff1690565b600061075d60016114bc565b610ed2600033610e90565b610eee5760405162461bcd60e51b81526004016107b490614e98565b6001600160a01b038116610f145760405162461bcd60e51b81526004016107b490615131565b60fb54610f4b907f90c2aa7471c04182221f68e80c07ab1e5946e4c63f8693e14ca40385d529f051906001600160a01b0316611205565b610f757f90c2aa7471c04182221f68e80c07ab1e5946e4c63f8693e14ca40385d529f05182610762565b60fb80546001600160a01b0319166001600160a01b0383161790556040517ff7b449fcd5cfb7379dcd34cb69428dd9f882033b15be33d83b42d91daa28eeb790610e85908390614c51565b600061102f306001600160a01b031663a3673b386040518163ffffffff1660e01b8152600401602060405180830381865afa158015611003573d6000803e3d6000fd5b505050506040513d601f19601f82011682018060405250810190611027919061514c565b60fd54611be4565b90506110a783846001600160a01b03166370a08231306040518263ffffffff1660e01b81526004016110619190614c51565b602060405180830381865afa15801561107e573d6000803e3d6000fd5b505050506040513d601f19601f820116820180604052508101906110a2919061514c565b611c0e565b7f227a473b70d2f893cc7659219575c030a63b5743024fe1e0c1a680e708b1525a826040516110d69190614a06565b60405180910390a1505050565b61110d7fd67ad422505496469a1adf6cdf9e5ee92ac5d33992843c9ecc4b2f6d6cde913733610e90565b806111a6575060fb54604051632474521560e21b81526001600160a01b03909116906391d1485490611165907fd67ad422505496469a1adf6cdf9e5ee92ac5d33992843c9ecc4b2f6d6cde913790339060040161516d565b602060405180830381865afa158015611182573d6000803e3d6000fd5b505050506040513d601f19601f820116820180604052508101906111a69190615193565b6111c25760405162461bcd60e51b81526004016107b4906151f3565b60fc83905560fd82905560fe8190556040517f116fbf1e97a2be629ad98abfb6c332733c8996c2dfb174dd2efe8440df381d1a906110d690859085908590615203565b6000828152606560205260409020600101546112208161191b565b61078783836119ab565b600080611236836125eb565b9050801561074b577f3ac0594a85a20354f9dc74f33728416d19ce00d04a406c108cc2dcf2cecea1348160405161126d9190614a06565b60405180910390a192915050565b6000806112bf306001600160a01b031663a3673b386040518163ffffffff1660e01b8152600401602060405180830381865afa158015611003573d6000803e3d6000fd5b905060008084156112e6576112d3866125eb565b90506112df8887612849565b9150611336565b6112f1888888612d66565b9150611316604051806060016040528060258152602001615d8a6025913983896136fe565b868210156113365760405162461bcd60e51b81526004016107b490615271565b82306001600160a01b031663a3673b386040518163ffffffff1660e01b8152600401602060405180830381865afa158015611375573d6000803e3d6000fd5b505050506040513d601f19601f82011682018060405250810190611399919061514c565b10156113b75760405162461bcd60e51b81526004016107b4906152b5565b60405163a9059cbb60e01b81526001600160a01b0389169063a9059cbb906113e590899086906004016152c5565b6020604051808303816000875af1158015611404573d6000803e3d6000fd5b505050506040513d601f19601f820116820180604052508101906114289190615193565b507f9045c2ac9b2026de8075f2701bbdde882cd5e830b3b1ead9a15b22f2b5b93742878360405161145a9291906152e0565b60405180910390a180156114a0577f3ac0594a85a20354f9dc74f33728416d19ce00d04a406c108cc2dcf2cecea134816040516114979190614a06565b60405180910390a15b509150505b949350505050565b6001600160a01b03163b151590565b61012d546040516370a0823160e01b815260009182916001600160a01b03909116906370a08231906114f2903090600401614c51565b602060405180830381865afa15801561150f573d6000803e3d6000fd5b505050506040513d601f19601f82011682018060405250810190611533919061514c565b61012e546040516370a0823160e01b81529192506000916001600160a01b03909116906370a082319061156a903090600401614c51565b602060405180830381865afa158015611587573d6000803e3d6000fd5b505050506040513d601f19601f820116820180604052508101906115ab919061514c565b61012f546040516370a0823160e01b81529192506000916001600160a01b03909116906370a08231906115e2903090600401614c51565b602060405180830381865afa1580156115ff573d6000803e3d6000fd5b505050506040513d601f19601f82011682018060405250810190611623919061514c565b610133546040516370a0823160e01b81529192506000916001600160a01b03909116906370a082319061165a903090600401614c51565b602060405180830381865afa158015611677573d6000803e3d6000fd5b505050506040513d601f19601f8201168201806040525081019061169b919061514c565b905080156117b5576101325461012e5461012f5461013154604080516309047bdd60e01b8152905160009586956001600160a01b0391821695634386e63c95918316949083169391909216916309047bdd9160048083019260209291908290030181865afa158015611711573d6000803e3d6000fd5b505050506040513d601f19601f820116820180604052508101906117359190615193565b876040518563ffffffff1660e01b815260040161175594939291906152ee565b6040805180830381865afa158015611771573d6000803e3d6000fd5b505050506040513d601f19601f820116820180604052508101906117959190615323565b90925090506117a48286615356565b94506117b08185615356565b935050505b82156118385785156117fe57610139546101385461013754610136546117ed938793909290916001600160a01b039182169116613745565b6117f79085615356565b9350611838565b6101355461012e5461012d546101345461182b936001600160a01b03908116938116928116911687613789565b6118359085615356565b93505b8115611911576101325461012f5461012e5461013154604080516309047bdd60e01b815290516000956118d1956001600160a01b039182169590821694908216939116916309047bdd916004808201926020929091908290030181865afa1580156118a7573d6000803e3d6000fd5b505050506040513d601f19601f820116820180604052508101906118cb9190615193565b876138dd565b6101355461012e5461012d5461013454939450611903936001600160a01b039384169392831692918216911685613789565b61190d9086615356565b9450505b5091949350505050565b6108a78133613a55565b61192f8282610e90565b6107c75760008281526065602090815260408083206001600160a01b03851684529091529020805460ff191660011790556119673390565b6001600160a01b0316816001600160a01b0316837f2f8788117e7eff1d82e926ec794901d17c78024a50270940304540a733656f0d60405160405180910390a45050565b6119b58282610e90565b156107c75760008281526065602090815260408083206001600160a01b0385168085529252808320805460ff1916905551339285917ff6391f5c32d9c69d2a47ea670b442974b53935d1edc7fd64eb21e047a839171b9190a45050565b60006107c78161191b565b7f4910fdfa16fed3260ed0e7147f7cc6da11a60208b5b9406d12a635614ffd91435460ff1615611a505761078783613aae565b826001600160a01b03166352d1902d6040518163ffffffff1660e01b8152600401602060405180830381865afa925050508015611aaa575060408051601f3d908101601f19168201909252611aa79181019061514c565b60015b611ac65760405162461bcd60e51b81526004016107b4906153b4565b600080516020615e188339815191528114611af35760405162461bcd60e51b81526004016107b49061540a565b50610787838383613b04565b600054610100900460ff1615808015611b1f5750600054600160ff909116105b80611b395750303b158015611b39575060005460ff166001145b611b555760405162461bcd60e51b81526004016107b4906150cb565b6000805460ff191660011790558015611b78576000805461ff0019166101001790555b611b80613b2f565b611b88613b2f565b611b93600033611925565b601460fc81905560fd55600460fe5580156108a7576000805461ff00191690556040517f7f26b83ff96e1f2b6a682f133852f6798a09c465da95921460cefb384740249890610e85906001906150ef565b6000612710611bf3838261541a565b611bfd908561542d565b611c079190615462565b9392505050565b61012d546001600160a01b03838116911614611c3c5760405162461bcd60e51b81526004016107b4906154a1565b60008061013160009054906101000a90046001600160a01b03166001600160a01b0316630902f1ac6040518163ffffffff1660e01b8152600401606060405180830381865afa158015611c93573d6000803e3d6000fd5b505050506040513d601f19601f82011682018060405250810190611cb791906154b1565b5061012d546040516370a0823160e01b81529294509092506000916001600160a01b03909116906370a0823190611cf2903090600401614c51565b602060405180830381865afa158015611d0f573d6000803e3d6000fd5b505050506040513d601f19601f82011682018060405250810190611d33919061514c565b61013854610139546101365461013754939450600093611d65938693909290916001600160a01b039182169116613745565b6101355461012d5461012e546101345460fc54949550611daa946001600160a01b03948516949384169392831692909116908790611da4908890611be4565b30613b58565b5061012e546040516370a0823160e01b81526000916001600160a01b0316906370a0823190611ddd903090600401614c51565b602060405180830381865afa158015611dfa573d6000803e3d6000fd5b505050506040513d601f19601f82011682018060405250810190611e1e919061514c565b6101325461012e5461012f5461013154604080516309047bdd60e01b81529051959650600095611eba956001600160a01b039081169581169481169316916309047bdd9160048083019260209291908290030181865afa158015611e86573d6000803e3d6000fd5b505050506040513d601f19601f82011682018060405250810190611eaa9190615193565b868a8c6101395461013a54613d1f565b6101325461012e5461012f5461013154604080516309047bdd60e01b81529051959650600095611f66956001600160a01b039081169581169481169316916309047bdd9160048083019260209291908290030181865afa158015611f22573d6000803e3d6000fd5b505050506040513d601f19601f82011682018060405250810190611f469190615193565b86611f60611f58633b9aca0083615462565b61030c611be4565b30613dab565b61012f546040516370a0823160e01b81529192506000916001600160a01b03909116906370a0823190611f9d903090600401614c51565b602060405180830381865afa158015611fba573d6000803e3d6000fd5b505050506040513d601f19601f82011682018060405250810190611fde919061514c565b61012e546040516370a0823160e01b81529192506001600160a01b0316906370a0823190612010903090600401614c51565b602060405180830381865afa15801561202d573d6000803e3d6000fd5b505050506040513d601f19601f82011682018060405250810190612051919061514c565b61012e546101325460405163095ea7b360e01b81529296506001600160a01b039182169263095ea7b39261208b92169088906004016152c5565b6020604051808303816000875af11580156120aa573d6000803e3d6000fd5b505050506040513d601f19601f820116820180604052508101906120ce9190615193565b5061012f546101325460405163095ea7b360e01b81526001600160a01b039283169263095ea7b3926121079291169085906004016152c5565b6020604051808303816000875af1158015612126573d6000803e3d6000fd5b505050506040513d601f19601f8201168201806040525081019061214a9190615193565b506101325461012e5461012f5461013154604080516309047bdd60e01b815290516000956121de956001600160a01b039182169590821694908216939116916309047bdd916004808201926020929091908290030181865afa1580156121b4573d6000803e3d6000fd5b505050506040513d601f19601f820116820180604052508101906121d89190615193565b896138dd565b90508181111561238f576101325461012f5461012e5461013154604080516309047bdd60e01b81529051612274956001600160a01b039081169581169481169316916309047bdd9160048083019260209291908290030181865afa15801561224a573d6000803e3d6000fd5b505050506040513d601f19601f8201168201806040525081019061226e9190615193565b866138dd565b6101325461012e5461012f5461013154604080516309047bdd60e01b815290519596506001600160a01b0394851695635a47ddc3959485169493841693909216916309047bdd916004808201926020929091908290030181865afa1580156122e0573d6000803e3d6000fd5b505050506040513d601f19601f820116820180604052508101906123049190615193565b85876123128860fc54611be4565b61231e8a60fc54611be4565b30426040518a63ffffffff1660e01b8152600401612344999897969594939291906154f7565b6060604051808303816000875af1158015612363573d6000803e3d6000fd5b505050506040513d601f19601f8201168201806040525081019061238791906154b1565b505050612489565b6101325461012e5461012f5461013154604080516309047bdd60e01b815290516001600160a01b0395861695635a47ddc39581169481169316916309047bdd9160048083019260209291908290030181865afa1580156123f3573d6000803e3d6000fd5b505050506040513d601f19601f820116820180604052508101906124179190615193565b898760008030426040518a63ffffffff1660e01b815260040161244299989796959493929190615592565b6060604051808303816000875af1158015612461573d6000803e3d6000fd5b505050506040513d601f19601f8201168201806040525081019061248591906154b1565b5050505b610131546040516370a0823160e01b81526000916001600160a01b0316906370a08231906124bb903090600401614c51565b602060405180830381865afa1580156124d8573d6000803e3d6000fd5b505050506040513d601f19601f820116820180604052508101906124fc919061514c565b610131546101335460405163095ea7b360e01b81529293506001600160a01b039182169263095ea7b39261253692169085906004016152c5565b6020604051808303816000875af1158015612555573d6000803e3d6000fd5b505050506040513d601f19601f820116820180604052508101906125799190615193565b506101335460405163b6b55f2560e01b81526001600160a01b039091169063b6b55f25906125ab908490600401614a06565b600060405180830381600087803b1580156125c557600080fd5b505af11580156125d9573d6000803e3d6000fd5b50505050505050505050505050505050565b610133546040516370a0823160e01b815260009182916001600160a01b03909116906370a0823190612621903090600401614c51565b602060405180830381865afa15801561263e573d6000803e3d6000fd5b505050506040513d601f19601f82011682018060405250810190612662919061514c565b905080156126d45761013360009054906101000a90046001600160a01b03166001600160a01b0316633d18b9126040518163ffffffff1660e01b8152600401600060405180830381600087803b1580156126bb57600080fd5b505af11580156126cf573d6000803e3d6000fd5b505050505b610130546040516370a0823160e01b815260009182916001600160a01b03909116906370a082319061270a903090600401614c51565b602060405180830381865afa158015612727573d6000803e3d6000fd5b505050506040513d601f19601f8201168201806040525081019061274b919061514c565b905080156127c357610132546101305461012d5460009261277e926001600160a01b0391821692908216911684866138dd565b905080156127c157610132546101305461012d546127b4926001600160a01b039081169281169116600086611f6087600a611be4565b6127be9084615356565b92505b505b81156128415761012d5460405163a9059cbb60e01b81526001600160a01b039091169063a9059cbb906127fc90889086906004016152c5565b6020604051808303816000875af115801561281b573d6000803e3d6000fd5b505050506040513d601f19601f8201168201806040525081019061283f9190615193565b505b509392505050565b61012d546000906001600160a01b0384811691161461287a5760405162461bcd60e51b81526004016107b490615623565b610133546040516370a0823160e01b81526000916001600160a01b0316906370a08231906128ac903090600401614c51565b602060405180830381865afa1580156128c9573d6000803e3d6000fd5b505050506040513d601f19601f820116820180604052508101906128ed919061514c565b61013354604051632e1a7d4d60e01b81529192506001600160a01b031690632e1a7d4d9061291f908490600401614a06565b600060405180830381600087803b15801561293957600080fd5b505af115801561294d573d6000803e3d6000fd5b50506101325461012e5461012d5461013154604080516309047bdd60e01b81529051600097508796506001600160a01b0395861695634386e63c9581169481169316916309047bdd9160048083019260209291908290030181865afa1580156129ba573d6000803e3d6000fd5b505050506040513d601f19601f820116820180604052508101906129de9190615193565b876040518563ffffffff1660e01b81526004016129fe94939291906152ee565b6040805180830381865afa158015612a1a573d6000803e3d6000fd5b505050506040513d601f19601f82011682018060405250810190612a3e9190615323565b610131546101325460405163095ea7b360e01b81529395509193506001600160a01b039081169263095ea7b392612a7b92169087906004016152c5565b6020604051808303816000875af1158015612a9a573d6000803e3d6000fd5b505050506040513d601f19601f82011682018060405250810190612abe9190615193565b506101325461012e5461012d5461013154604080516309047bdd60e01b815290516001600160a01b0395861695630dede6c49581169481169316916309047bdd9160048083019260209291908290030181865afa158015612b23573d6000803e3d6000fd5b505050506040513d601f19601f82011682018060405250810190612b479190615193565b87612b548860fc54611be4565b612b608860fc54611be4565b30426040518963ffffffff1660e01b8152600401612b85989796959493929190615633565b60408051808303816000875af1158015612ba3573d6000803e3d6000fd5b505050506040513d601f19601f82011682018060405250810190612bc79190615323565b505061012e546040516370a0823160e01b81526000916001600160a01b0316906370a0823190612bfb903090600401614c51565b602060405180830381865afa158015612c18573d6000803e3d6000fd5b505050506040513d601f19601f82011682018060405250810190612c3c919061514c565b6101355461012e5461012d5461013454939450600093612c6f936001600160a01b03908116938116928116911686613789565b90508015612ce85761013954610138546101375461013654600093612ca6938793919290916001600160a01b039081169116613745565b6101355461012e5461012d546101345460fc54949550612ce5946001600160a01b03948516949384169392831692909116908890611da4908890611be4565b50505b61012d546040516370a0823160e01b81526001600160a01b03909116906370a0823190612d19903090600401614c51565b602060405180830381865afa158015612d36573d6000803e3d6000fd5b505050506040513d601f19601f82011682018060405250810190612d5a919061514c565b98975050505050505050565b61012d546000906001600160a01b03858116911614612d975760405162461bcd60e51b81526004016107b490615623565b61013154604080516318160ddd60e01b815290516000926001600160a01b0316916318160ddd9160048083019260209291908290030181865afa158015612de2573d6000803e3d6000fd5b505050506040513d601f19601f82011682018060405250810190612e06919061514c565b905060008061013160009054906101000a90046001600160a01b03166001600160a01b0316630902f1ac6040518163ffffffff1660e01b8152600401606060405180830381865afa158015612e5f573d6000803e3d6000fd5b505050506040513d601f19601f82011682018060405250810190612e8391906154b1565b506101325461012f5461012e5461013154604080516309047bdd60e01b81529051969850949650600095612f37956001600160a01b03958616959485169493841693909216916309047bdd9160048083019260209291908290030181865afa158015612ef3573d6000803e3d6000fd5b505050506040513d601f19601f82011682018060405250810190612f179190615193565b612f278c6509184e72a000615356565b89888a61013a5461013954613f9f565b610133546040516370a0823160e01b81529192506000916001600160a01b03909116906370a0823190612f6e903090600401614c51565b602060405180830381865afa158015612f8b573d6000803e3d6000fd5b505050506040513d601f19601f82011682018060405250810190612faf919061514c565b905080821115612fbd578091505b61013354604051632e1a7d4d60e01b81526001600160a01b0390911690632e1a7d4d90612fee908590600401614a06565b600060405180830381600087803b15801561300857600080fd5b505af115801561301c573d6000803e3d6000fd5b50506101325461012e5461012f5461013154604080516309047bdd60e01b81529051600097508796506001600160a01b0395861695634386e63c9581169481169316916309047bdd9160048083019260209291908290030181865afa158015613089573d6000803e3d6000fd5b505050506040513d601f19601f820116820180604052508101906130ad9190615193565b886040518563ffffffff1660e01b81526004016130cd94939291906152ee565b6040805180830381865afa1580156130e9573d6000803e3d6000fd5b505050506040513d601f19601f8201168201806040525081019061310d9190615323565b610131546101325460405163095ea7b360e01b81529395509193506001600160a01b039081169263095ea7b39261314a92169088906004016152c5565b6020604051808303816000875af1158015613169573d6000803e3d6000fd5b505050506040513d601f19601f8201168201806040525081019061318d9190615193565b506101325461012e5461012f5461013154604080516309047bdd60e01b815290516001600160a01b0395861695630dede6c49581169481169316916309047bdd9160048083019260209291908290030181865afa1580156131f2573d6000803e3d6000fd5b505050506040513d601f19601f820116820180604052508101906132169190615193565b886132238860fc54611be4565b61322f8860fc54611be4565b30426040518963ffffffff1660e01b8152600401613254989796959493929190615633565b60408051808303816000875af1158015613272573d6000803e3d6000fd5b505050506040513d601f19601f820116820180604052508101906132969190615323565b505061012e546040516370a0823160e01b81526000916001600160a01b0316906370a08231906132ca903090600401614c51565b602060405180830381865afa1580156132e7573d6000803e3d6000fd5b505050506040513d601f19601f8201168201806040525081019061330b919061514c565b905061332f6040518060600160405280602f8152602001615e38602f913982614058565b6101355461012e5461012d5461013454600093613361936001600160a01b039182169390821692908216911686613789565b905080156133da5761013954610138546101375461013654600093613398938793919290916001600160a01b039081169116613745565b6101355461012e5461012d546101345460fc549495506133d7946001600160a01b03948516949384169392831692909116908890611da4908890611be4565b50505b61012f546040516370a0823160e01b81526000916001600160a01b0316906370a082319061340c903090600401614c51565b602060405180830381865afa158015613429573d6000803e3d6000fd5b505050506040513d601f19601f8201168201806040525081019061344d919061514c565b9050613471604051806060016040528060308152602001615daf6030913982614058565b6101325461012f5461012e5461012d5461013154604080516309047bdd60e01b81529051613506966001600160a01b039081169681169581169481169316916309047bdd9160048083019260209291908290030181865afa1580156134da573d6000803e3d6000fd5b505050506040513d601f19601f820116820180604052508101906134fe9190615193565b60018761409d565b9150613535604051806060016040528060398152602001615ddf60399139826135308560b4611be4565b6136fe565b81156135de576101325461012f5461012e5461012d5461013154604080516309047bdd60e01b815290516135dc966001600160a01b039081169681169581169481169316916309047bdd9160048083019260209291908290030181865afa1580156135a4573d6000803e3d6000fd5b505050506040513d601f19601f820116820180604052508101906135c89190615193565b6001876135d68a60b4611be4565b3061429c565b505b604080518082018252600e81526d7377617070656420666f7220257360901b602082015261012d5491516370a0823160e01b815261367a926001600160a01b0316906370a0823190613634903090600401614c51565b602060405180830381865afa158015613651573d6000803e3d6000fd5b505050506040513d601f19601f82011682018060405250810190613675919061514c565b614058565b61012d546040516370a0823160e01b81526001600160a01b03909116906370a08231906136ab903090600401614c51565b602060405180830381865afa1580156136c8573d6000803e3d6000fd5b505050506040513d601f19601f820116820180604052508101906136ec919061514c565b9e9d5050505050505050505050505050565b610787838383604051602401613716939291906156f3565b60408051601f198184030181529190526020810180516001600160e01b031663ca47c4eb60e01b17905261456a565b6000806137518461458b565b9050600061375e8461458b565b905061376a818861542d565b82613775888b61542d565b61377f919061542d565b612d5a9190615462565b6040805160028082526060820183526000928392919060208301908036833701905050905085816000815181106137c2576137c2615713565b60200260200101906001600160a01b031690816001600160a01b03168152505084816001815181106137f6576137f6615713565b6001600160a01b039290921660209283029190910190910152604080516001808252818301909252600091816020016020820280368337019050509050848160008151811061384757613847615713565b6001600160a01b03928316602091820292909201015260405163b9e598c160e01b81526000918a169063b9e598c19061388890869086908a90600401615786565b600060405180830381865afa1580156138a5573d6000803e3d6000fd5b505050506040513d6000823e601f3d908101601f191682016040526138cd919081019061585d565b5093505050505b95945050505050565b604080516001808252818301909252600091829190816020015b60408051606081018252600080825260208083018290529282015282526000199092019101816138f7579050509050858160008151811061393a5761393a615713565b6020026020010151600001906001600160a01b031690816001600160a01b031681525050848160008151811061397257613972615713565b6020026020010151602001906001600160a01b031690816001600160a01b03168152505083816000815181106139aa576139aa615713565b6020908102919091010151901515604091820152516326207f2d60e21b81526001600160a01b03881690639881fcb4906139ea9086908590600401615934565b600060405180830381865afa158015613a07573d6000803e3d6000fd5b505050506040513d6000823e601f3d908101601f19168201604052613a2f9190810190615954565b600181518110613a4157613a41615713565b602002602001015191505095945050505050565b613a5f8282610e90565b6107c757613a6c81614660565b613a77836020614672565b604051602001613a889291906159b1565b60408051601f198184030181529082905262461bcd60e51b82526107b491600401615a09565b6001600160a01b0381163b613ad55760405162461bcd60e51b81526004016107b490615a64565b600080516020615e1883398151915280546001600160a01b0319166001600160a01b0392909216919091179055565b613b0d836147de565b600082511180613b1a5750805b1561078757613b29838361481e565b50505050565b600054610100900460ff16613b565760405162461bcd60e51b81526004016107b490615abc565b565b60405163095ea7b360e01b81526000906001600160a01b0388169063095ea7b390613b89908b9088906004016152c5565b6020604051808303816000875af1158015613ba8573d6000803e3d6000fd5b505050506040513d601f19601f82011682018060405250810190613bcc9190615193565b506040805160028082526060820183526000926020830190803683370190505090508781600081518110613c0257613c02615713565b60200260200101906001600160a01b031690816001600160a01b0316815250508681600181518110613c3657613c36615713565b6001600160a01b0392909216602092830291909101909101526040805160018082528183019092526000918160200160208202803683370190505090508681600081518110613c8757613c87615713565b6001600160a01b03928316602091820292909201015260405163351041e960e21b8152908b169063d44107a490613ccc90859085908b908b908b904290600401615acc565b6020604051808303816000875af1158015613ceb573d6000803e3d6000fd5b505050506040513d601f19601f82011682018060405250810190613d0f919061514c565b925050505b979650505050505050565b60008383613d2d848861542d565b613d379190615462565b613d419190615356565b613d4b858861542d565b613d559190615462565b90506000613d668b8b8b8b866138dd565b90508482613d74838961542d565b613d7e9190615462565b613d889190615356565b613d92868961542d565b613d9c9190615462565b9b9a5050505050505050505050565b60405163095ea7b360e01b81526000906001600160a01b0388169063095ea7b390613ddc908b9088906004016152c5565b6020604051808303816000875af1158015613dfb573d6000803e3d6000fd5b505050506040513d601f19601f82011682018060405250810190613e1f9190615193565b50604080516001808252818301909252600091816020015b6040805160608101825260008082526020808301829052928201528252600019909201910181613e375790505090508781600081518110613e7a57613e7a615713565b6020026020010151600001906001600160a01b031690816001600160a01b0316815250508681600081518110613eb257613eb2615713565b6020026020010151602001906001600160a01b031690816001600160a01b0316815250508581600081518110613eea57613eea615713565b602090810291909101015190151560409182015251631e82ecdb60e31b81526001600160a01b038a169063f41766d890613f309088908890869089904290600401615b27565b6000604051808303816000875af1158015613f4f573d6000803e3d6000fd5b505050506040513d6000823e601f3d908101601f19168201604052613f779190810190615954565b600181518110613f8957613f89615713565b6020026020010151915050979650505050505050565b6000613fab838561542d565b613fb5838761542d565b613fbf9190615356565b82613fca898961542d565b613fd4919061542d565b613fde9190615462565b9050600086613fed838761542d565b613ff79190615462565b905060006140088d8c8e8d866138dd565b9050614014818761542d565b61401e838961542d565b6140289190615356565b826140338b8b61542d565b61403d919061542d565b6140479190615462565b9d9c50505050505050505050505050565b6107c7828260405160240161406e929190615b7a565b60408051601f198184030181529190526020810180516001600160e01b0316632d839cb360e21b17905261456a565b60408051600280825260608201909252600091829190816020015b60408051606081018252600080825260208083018290529282015282526000199092019101816140b857905050905087816000815181106140fb576140fb615713565b6020026020010151600001906001600160a01b031690816001600160a01b031681525050868160008151811061413357614133615713565b6020026020010151602001906001600160a01b031690816001600160a01b031681525050848160008151811061416b5761416b615713565b60200260200101516040019015159081151581525050868160018151811061419557614195615713565b6020026020010151600001906001600160a01b031690816001600160a01b03168152505085816001815181106141cd576141cd615713565b6020026020010151602001906001600160a01b031690816001600160a01b031681525050838160018151811061420557614205615713565b6020908102919091010151901515604091820152516326207f2d60e21b81526001600160a01b038a1690639881fcb4906142459086908590600401615934565b600060405180830381865afa158015614262573d6000803e3d6000fd5b505050506040513d6000823e601f3d908101601f1916820160405261428a9190810190615954565b600281518110613f8957613f89615713565b60405163095ea7b360e01b81526000906001600160a01b038a169063095ea7b3906142cd908d9088906004016152c5565b6020604051808303816000875af11580156142ec573d6000803e3d6000fd5b505050506040513d601f19601f820116820180604052508101906143109190615193565b5060408051600280825260608201909252600091816020015b6040805160608101825260008082526020808301829052928201528252600019909201910181614329579050509050898160008151811061436c5761436c615713565b6020026020010151600001906001600160a01b031690816001600160a01b03168152505088816000815181106143a4576143a4615713565b6020026020010151602001906001600160a01b031690816001600160a01b03168152505086816000815181106143dc576143dc615713565b60200260200101516040019015159081151581525050888160018151811061440657614406615713565b6020026020010151600001906001600160a01b031690816001600160a01b031681525050878160018151811061443e5761443e615713565b6020026020010151602001906001600160a01b031690816001600160a01b031681525050858160018151811061447657614476615713565b602002602001015160400190151590811515815250506144c460405180604001604052806014815260200173726f75746520257320746f20257320746f20257360601b8152508b8b8b6148ca565b604051631e82ecdb60e31b81526001600160a01b038c169063f41766d8906144f89088908890869089904290600401615b27565b6000604051808303816000875af1158015614517573d6000803e3d6000fd5b505050506040513d6000823e601f3d908101601f1916820160405261453f9190810190615954565b60028151811061455157614551615713565b60200260200101519150505b9998505050505050505050565b80516a636f6e736f6c652e6c6f67602083016000808483855afa5050505050565b6000806000806000856001600160a01b031663feaf968c6040518163ffffffff1660e01b815260040160a060405180830381865afa1580156145d1573d6000803e3d6000fd5b505050506040513d601f19601f820116820180604052508101906145f59190615bb7565b9450945050935093508369ffffffffffffffffffff168169ffffffffffffffffffff1610156146365760405162461bcd60e51b81526004016107b490615c4e565b600082116146565760405162461bcd60e51b81526004016107b490615c87565b5090949350505050565b606061074b6001600160a01b03831660145b6060600061468183600261542d565b61468c906002615356565b67ffffffffffffffff8111156146a4576146a4614b07565b6040519080825280601f01601f1916602001820160405280156146ce576020820181803683370190505b509050600360fc1b816000815181106146e9576146e9615713565b60200101906001600160f81b031916908160001a905350600f60fb1b8160018151811061471857614718615713565b60200101906001600160f81b031916908160001a905350600061473c84600261542d565b614747906001615356565b90505b60018111156147bf576f181899199a1a9b1b9c1cb0b131b232b360811b85600f166010811061477b5761477b615713565b1a60f81b82828151811061479157614791615713565b60200101906001600160f81b031916908160001a90535060049490941c936147b881615c97565b905061474a565b508315611c075760405162461bcd60e51b81526004016107b490615ce0565b6147e781613aae565b6040516001600160a01b038216907fbc7cd75a20ee27fd9adebab32041f755214dbc6bffa90cc0225b39da2e5c2d3b90600090a250565b60606001600160a01b0383163b6148475760405162461bcd60e51b81526004016107b490615d33565b600080846001600160a01b0316846040516148629190615d43565b600060405180830381855af49150503d806000811461489d576040519150601f19603f3d011682016040523d82523d6000602084013e6148a2565b606091505b50915091506138d48282604051806060016040528060278152602001615e6760279139614913565b613b29848484846040516024016148e49493929190615d4f565b60408051601f198184030181529190526020810180516001600160e01b03166376c7947b60e11b17905261456a565b60608315614922575081611c07565b611c0783838151156149375781518083602001fd5b8060405162461bcd60e51b81526004016107b49190615a09565b600061074b6001600160a01b038316614968565b90565b6001600160a01b031690565b600061074b82614951565b600061074b82614974565b6149938161497f565b82525050565b6020810161074b828461498a565b6001600160e01b031981165b81146108a757600080fd5b803561074b816149a7565b6000602082840312156149de576149de600080fd5b60006114a584846149be565b801515614993565b6020810161074b82846149ea565b80614993565b6020810161074b8284614a00565b806149b3565b803561074b81614a14565b600060208284031215614a3a57614a3a600080fd5b60006114a58484614a1a565b60006001600160a01b03821661074b565b6149b381614a46565b803561074b81614a57565b60008060408385031215614a8157614a81600080fd5b6000614a8d8585614a1a565b9250506020614a9e85828601614a60565b9150509250929050565b600060208284031215614abd57614abd600080fd5b60006114a58484614a60565b60006101608284031215614adf57614adf600080fd5b50919050565b60006101608284031215614afb57614afb600080fd5b60006114a58484614ac9565b634e487b7160e01b600052604160045260246000fd5b601f19601f830116810181811067ffffffffffffffff82111715614b4357614b43614b07565b6040525050565b6000614b5560405190565b9050614b618282614b1d565b919050565b600067ffffffffffffffff821115614b8057614b80614b07565b601f19601f83011660200192915050565b82818337506000910152565b6000614bb0614bab84614b66565b614b4a565b905082815260208101848484011115614bcb57614bcb600080fd5b612841848285614b91565b600082601f830112614bea57614bea600080fd5b81356114a5848260208601614b9d565b60008060408385031215614c1057614c10600080fd5b6000614c1c8585614a60565b925050602083013567ffffffffffffffff811115614c3c57614c3c600080fd5b614a9e85828601614bd6565b61499381614a46565b6020810161074b8284614c48565b60008060408385031215614c7557614c75600080fd5b6000614c818585614a60565b9250506020614a9e85828601614a1a565b600080600060608486031215614caa57614caa600080fd5b6000614cb68686614a1a565b9350506020614cc786828701614a1a565b9250506040614cd886828701614a1a565b9150509250925092565b8015156149b3565b803561074b81614ce2565b60008060008060808587031215614d0e57614d0e600080fd5b6000614d1a8787614a60565b9450506020614d2b87828801614a1a565b9350506040614d3c87828801614a60565b9250506060614d4d87828801614cea565b91505092959194509250565b602f81526000602082017f416363657373436f6e74726f6c3a2063616e206f6e6c792072656e6f756e636581526e103937b632b9903337b91039b2b63360891b602082015291505b5060400190565b6020808252810161074b81614d59565b602c81526000602082017f46756e6374696f6e206d7573742062652063616c6c6564207468726f7567682081526b19195b1959d85d1958d85b1b60a21b60208201529150614da1565b6020808252810161074b81614db8565b602c81526000602082017f46756e6374696f6e206d7573742062652063616c6c6564207468726f7567682081526b6163746976652070726f787960a01b60208201529150614da1565b6020808252810161074b81614e11565b60148152600060208201735265737472696374656420746f2061646d696e7360601b815291505b5060200190565b6020808252810161074b81614e6a565b60ff81166149b3565b805161074b81614ea8565b600060208284031215614ed157614ed1600080fd5b60006114a58484614eb1565b634e487b7160e01b600052601160045260246000fd5b80825b6001851115614f3257808604811115614f1157614f11614edd565b6001851615614f1f57908102905b8002614f2b8560011c90565b9450614ef6565b94509492505050565b600082614f4a57506001611c07565b81614f5757506000611c07565b8160018114614f6d5760028114614f7757614fa4565b6001915050611c07565b60ff841115614f8857614f88614edd565b8360020a915084821115614f9e57614f9e614edd565b50611c07565b5060208310610133831016604e8410600b8410161715614fd7575081810a83811115614fd257614fd2614edd565b611c07565b614fe48484846001614ef3565b92509050818404811115614ffa57614ffa614edd565b0292915050565b600060ff83169250611c076000198484614f3b565b603881526000602082017f555550535570677261646561626c653a206d757374206e6f742062652063616c81527f6c6564207468726f7567682064656c656761746563616c6c000000000000000060208201529150614da1565b6020808252810161074b81615016565b602e81526000602082017f496e697469616c697a61626c653a20636f6e747261637420697320616c72656181526d191e481a5b9a5d1a585b1a5e995960921b60208201529150614da1565b6020808252810161074b81615080565b600060ff821661074b565b614993816150db565b6020810161074b82846150e6565b601881526000602082017f5a65726f2061646472657373206e6f7420616c6c6f776564000000000000000081529150614e91565b6020808252810161074b816150fd565b805161074b81614a14565b60006020828403121561516157615161600080fd5b60006114a58484615141565b6040810161517b8285614a00565b611c076020830184614c48565b805161074b81614ce2565b6000602082840312156151a8576151a8600080fd5b60006114a58484615188565b602281526000602082017f5265737472696374656420746f20504f5254464f4c494f5f4147454e545f524f8152614c4560f01b60208201529150614da1565b6020808252810161074b816151b4565b606081016152118286614a00565b61521e6020830185614a00565b6114a56040830184614a00565b602981526000602082017f52657475726e65642076616c7565206c657373207468616e2072657175657374815268195908185b5bdd5b9d60ba1b60208201529150614da1565b6020808252810161074b8161522b565b601f81526000602082017f5374726174656779204e4156206c657373207468616e2065787065637465640081529150614e91565b6020808252810161074b81615281565b604081016152d38285614c48565b611c076020830184614a00565b604081016152d38285614a00565b608081016152fc8287614c48565b6153096020830186614c48565b61531660408301856149ea565b6138d46060830184614a00565b6000806040838503121561533957615339600080fd5b60006153458585615141565b9250506020614a9e85828601615141565b8082018082111561074b5761074b614edd565b602e81526000602082017f45524331393637557067726164653a206e657720696d706c656d656e7461746981526d6f6e206973206e6f74205555505360901b60208201529150614da1565b6020808252810161074b81615369565b602981526000602082017f45524331393637557067726164653a20756e737570706f727465642070726f788152681a58589b195555525160ba1b60208201529150614da1565b6020808252810161074b816153c4565b8181038181111561074b5761074b614edd565b81810280821583820485141761544557615445614edd565b5092915050565b634e487b7160e01b600052601260045260246000fd5b6000826154715761547161544c565b500490565b60148152600060208201732737b716b1b7b6b830ba34b13632903a37b5b2b760611b81529150614e91565b6020808252810161074b81615476565b6000806000606084860312156154c9576154c9600080fd5b60006154d58686615141565b93505060206154e686828701615141565b9250506040614cd886828701615141565b6101208101615506828c614c48565b615513602083018b614c48565b615520604083018a6149ea565b61552d6060830189614a00565b61553a6080830188614a00565b61554760a0830187614a00565b61555460c0830186614a00565b61556160e0830185614c48565b61556f610100830184614a00565b9a9950505050505050505050565b600061074b6149658381565b6149938161557d565b61012081016155a1828c614c48565b6155ae602083018b614c48565b6155bb604083018a6149ea565b6155c86060830189614a00565b6155d56080830188614a00565b6155e260a0830187615589565b61555460c0830186615589565b601981526000602082017f536f6d6520746f6b656e206e6f7420636f6d70617469626c650000000000000081529150614e91565b6020808252810161074b816155ef565b6101008101615642828b614c48565b61564f602083018a614c48565b61565c60408301896149ea565b6156696060830188614a00565b6156766080830187614a00565b61568360a0830186614a00565b61569060c0830185614c48565b61455d60e0830184614a00565b60005b838110156156b85781810151838201526020016156a0565b50506000910152565b60006156cb825190565b8084526020840193506156e281856020860161569d565b601f01601f19169290920192915050565b6060808252810161570481866156c1565b905061521e6020830185614a00565b634e487b7160e01b600052603260045260246000fd5b60006157358383614c48565b505060200190565b6000615747825190565b80845260209384019383018060005b8381101561577b57815161576a8882615729565b975060208301925050600101615756565b509495945050505050565b60608082528101615797818661573d565b905081810360208301526157ab818561573d565b90506114a56040830184614a00565b600067ffffffffffffffff8211156157d4576157d4614b07565b5060209081020190565b60006157ec614bab846157ba565b8381529050602080820190840283018581111561580b5761580b600080fd5b835b8181101561582f57806158208882615141565b8452506020928301920161580d565b5050509392505050565b600082601f83011261584d5761584d600080fd5b81516114a58482602086016157de565b6000806040838503121561587357615873600080fd5b600061587f8585615141565b925050602083015167ffffffffffffffff81111561589f5761589f600080fd5b614a9e85828601615839565b805160608301906158bc8482614c48565b5060208201516158cf6020850182614c48565b506040820151613b2960408501826149ea565b60006158ee83836158ab565b505060600190565b6000615900825190565b80845260209384019383018060005b8381101561577b57815161592388826158e2565b97506020830192505060010161590f565b604081016159428285614a00565b81810360208301526114a581846158f6565b60006020828403121561596957615969600080fd5b815167ffffffffffffffff81111561598357615983600080fd5b6114a584828501615839565b6000615999825190565b6159a781856020860161569d565b9290920192915050565b7f416363657373436f6e74726f6c3a206163636f756e7420000000000000000000815260170160006159e3828561598f565b7001034b99036b4b9b9b4b733903937b6329607d1b815260110191506114a5828461598f565b60208082528101611c0781846156c1565b602d81526000602082017f455243313936373a206e657720696d706c656d656e746174696f6e206973206e81526c1bdd08184818dbdb9d1c9858dd609a1b60208201529150614da1565b6020808252810161074b81615a1a565b602b81526000602082017f496e697469616c697a61626c653a20636f6e7472616374206973206e6f74206981526a6e697469616c697a696e6760a81b60208201529150614da1565b6020808252810161074b81615a74565b60c08082528101615add818961573d565b90508181036020830152615af1818861573d565b9050615b006040830187614a00565b615b0d6060830186614a00565b615b1a6080830185614c48565b613d1460a0830184614a00565b60a08101615b358288614a00565b615b426020830187614a00565b8181036040830152615b5481866158f6565b9050615b636060830185614c48565b615b706080830184614a00565b9695505050505050565b60408082528101615b8b81856156c1565b9050611c076020830184614a00565b69ffffffffffffffffffff81166149b3565b805161074b81615b9a565b600080600080600060a08688031215615bd257615bd2600080fd5b6000615bde8888615bac565b9550506020615bef88828901615141565b9450506040615c0088828901615141565b9350506060615c1188828901615141565b9250506080615c2288828901615bac565b9150509295509295909350565b60088152600060208201674f6c64206461746160c01b81529150614e91565b6020808252810161074b81615c2f565b6012815260006020820171526f756e64206e6f7420636f6d706c65746560701b81529150614e91565b6020808252810161074b81615c5e565b600081615ca657615ca6614edd565b506000190190565b60208082527f537472696e67733a20686578206c656e67746820696e73756666696369656e7491019081526000614e91565b6020808252810161074b81615cae565b602681526000602082017f416464726573733a2064656c65676174652063616c6c20746f206e6f6e2d636f8152651b9d1c9858dd60d21b60208201529150614da1565b6020808252810161074b81615cf0565b6000611c07828461598f565b60808082528101615d6081876156c1565b9050615d6f6020830186614c48565b615d7c6040830185614c48565b6138d46060830184614c4856fe7769746864726177416d6f756e74206f6620257320616e6420616d6f756e74206f662025736c69717569646974792072656d6f7665642077557364722e202042616c616e6365206f66207755736472206973202573747279696e6720746f207377617020666f7220627573642e20207377617070696e6720257320666f722061206d696e696d756d206f66202573360894a13ba1a3210667c828492db98dca3e2076cc3735a920a3ca505d382bbc6c69717569646974792072656d6f7665642077557364722e202042616c616e6365206f662075736463206973202573416464726573733a206c6f772d6c6576656c2064656c65676174652063616c6c206661696c6564a264697066735822122095ac10e952ab7e06d2b51b6e3206eccffa0fe0244182dc174ac8ae33bce5b4b164736f6c63430008110033",
  "implementation": "0x0B9bF9968b6E8558c81FEa12a3E80A4B86f476f5",
  "devdoc": {
    "kind": "dev",
    "methods": {
      "constructor": {
        "custom:oz-upgrades-unsafe-allow": "constructor"
      },
      "getRoleAdmin(bytes32)": {
        "details": "Returns the admin role that controls `role`. See {grantRole} and {revokeRole}. To change a role's admin, use {_setRoleAdmin}."
      },
      "grantRole(bytes32,address)": {
        "details": "Grants `role` to `account`. If `account` had not been already granted `role`, emits a {RoleGranted} event. Requirements: - the caller must have ``role``'s admin role. May emit a {RoleGranted} event."
      },
      "hasRole(bytes32,address)": {
        "details": "Returns `true` if `account` has been granted `role`."
      },
      "proxiableUUID()": {
        "details": "Implementation of the ERC1822 {proxiableUUID} function. This returns the storage slot used by the implementation. It is used to validate the implementation's compatibility when performing an upgrade. IMPORTANT: A proxy pointing at a proxiable contract should not be considered proxiable itself, because this risks bricking a proxy that upgrades to it, by delegating to itself until out of gas. Thus it is critical that this function revert if invoked through a proxy. This is guaranteed by the `notDelegated` modifier."
      },
      "renounceRole(bytes32,address)": {
        "details": "Revokes `role` from the calling account. Roles are often managed via {grantRole} and {revokeRole}: this function's purpose is to provide a mechanism for accounts to lose their privileges if they are compromised (such as when a trusted device is misplaced). If the calling account had been revoked `role`, emits a {RoleRevoked} event. Requirements: - the caller must be `account`. May emit a {RoleRevoked} event."
      },
      "revokeRole(bytes32,address)": {
        "details": "Revokes `role` from `account`. If `account` had been granted `role`, emits a {RoleRevoked} event. Requirements: - the caller must have ``role``'s admin role. May emit a {RoleRevoked} event."
      },
      "supportsInterface(bytes4)": {
        "details": "See {IERC165-supportsInterface}."
      },
      "upgradeTo(address)": {
        "details": "Upgrade the implementation of the proxy to `newImplementation`. Calls {_authorizeUpgrade}. Emits an {Upgraded} event."
      },
      "upgradeToAndCall(address,bytes)": {
        "details": "Upgrade the implementation of the proxy to `newImplementation`, and subsequently execute the function call encoded in `data`. Calls {_authorizeUpgrade}. Emits an {Upgraded} event."
      }
    },
    "version": 1
  },
  "userdoc": {
    "kind": "user",
    "methods": {},
    "version": 1
  },
  "storageLayout": {
    "storage": [
      {
        "astId": 804,
        "contract": "contracts/strategies/StrategyThenawUsdrUsdc.sol:StrategyThenawUsdrUsdc",
        "label": "_initialized",
        "offset": 0,
        "slot": "0",
        "type": "t_uint8"
      },
      {
        "astId": 807,
        "contract": "contracts/strategies/StrategyThenawUsdrUsdc.sol:StrategyThenawUsdrUsdc",
        "label": "_initializing",
        "offset": 1,
        "slot": "0",
        "type": "t_bool"
      },
      {
        "astId": 1427,
        "contract": "contracts/strategies/StrategyThenawUsdrUsdc.sol:StrategyThenawUsdrUsdc",
        "label": "__gap",
        "offset": 0,
        "slot": "1",
        "type": "t_array(t_uint256)50_storage"
      },
      {
        "astId": 1706,
        "contract": "contracts/strategies/StrategyThenawUsdrUsdc.sol:StrategyThenawUsdrUsdc",
        "label": "__gap",
        "offset": 0,
        "slot": "51",
        "type": "t_array(t_uint256)50_storage"
      },
      {
        "astId": 39,
        "contract": "contracts/strategies/StrategyThenawUsdrUsdc.sol:StrategyThenawUsdrUsdc",
        "label": "_roles",
        "offset": 0,
        "slot": "101",
        "type": "t_mapping(t_bytes32,t_struct(RoleData)34_storage)"
      },
      {
        "astId": 334,
        "contract": "contracts/strategies/StrategyThenawUsdrUsdc.sol:StrategyThenawUsdrUsdc",
        "label": "__gap",
        "offset": 0,
        "slot": "102",
        "type": "t_array(t_uint256)49_storage"
      },
      {
        "astId": 786,
        "contract": "contracts/strategies/StrategyThenawUsdrUsdc.sol:StrategyThenawUsdrUsdc",
        "label": "__gap",
        "offset": 0,
        "slot": "151",
        "type": "t_array(t_uint256)50_storage"
      },
      {
        "astId": 1101,
        "contract": "contracts/strategies/StrategyThenawUsdrUsdc.sol:StrategyThenawUsdrUsdc",
        "label": "__gap",
        "offset": 0,
        "slot": "201",
        "type": "t_array(t_uint256)50_storage"
      },
      {
        "astId": 2717,
        "contract": "contracts/strategies/StrategyThenawUsdrUsdc.sol:StrategyThenawUsdrUsdc",
        "label": "portfolioManager",
        "offset": 0,
        "slot": "251",
        "type": "t_address"
      },
      {
        "astId": 2719,
        "contract": "contracts/strategies/StrategyThenawUsdrUsdc.sol:StrategyThenawUsdrUsdc",
        "label": "swapSlippageBP",
        "offset": 0,
        "slot": "252",
        "type": "t_uint256"
      },
      {
        "astId": 2721,
        "contract": "contracts/strategies/StrategyThenawUsdrUsdc.sol:StrategyThenawUsdrUsdc",
        "label": "navSlippageBP",
        "offset": 0,
        "slot": "253",
        "type": "t_uint256"
      },
      {
        "astId": 2723,
        "contract": "contracts/strategies/StrategyThenawUsdrUsdc.sol:StrategyThenawUsdrUsdc",
        "label": "stakeSlippageBP",
        "offset": 0,
        "slot": "254",
        "type": "t_uint256"
      },
      {
        "astId": 3101,
        "contract": "contracts/strategies/StrategyThenawUsdrUsdc.sol:StrategyThenawUsdrUsdc",
        "label": "__gap",
        "offset": 0,
        "slot": "255",
        "type": "t_array(t_uint256)46_storage"
      },
      {
        "astId": 7502,
        "contract": "contracts/strategies/StrategyThenawUsdrUsdc.sol:StrategyThenawUsdrUsdc",
        "label": "busd",
        "offset": 0,
        "slot": "301",
        "type": "t_contract(IERC20)2662"
      },
      {
        "astId": 7505,
        "contract": "contracts/strategies/StrategyThenawUsdrUsdc.sol:StrategyThenawUsdrUsdc",
        "label": "usdc",
        "offset": 0,
        "slot": "302",
        "type": "t_contract(IERC20)2662"
      },
      {
        "astId": 7508,
        "contract": "contracts/strategies/StrategyThenawUsdrUsdc.sol:StrategyThenawUsdrUsdc",
        "label": "wUsdr",
        "offset": 0,
        "slot": "303",
        "type": "t_contract(IERC20)2662"
      },
      {
        "astId": 7511,
        "contract": "contracts/strategies/StrategyThenawUsdrUsdc.sol:StrategyThenawUsdrUsdc",
        "label": "the",
        "offset": 0,
        "slot": "304",
        "type": "t_contract(IERC20)2662"
      },
      {
        "astId": 7514,
        "contract": "contracts/strategies/StrategyThenawUsdrUsdc.sol:StrategyThenawUsdrUsdc",
        "label": "pair",
        "offset": 0,
        "slot": "305",
        "type": "t_contract(IPair)3697"
      },
      {
        "astId": 7517,
        "contract": "contracts/strategies/StrategyThenawUsdrUsdc.sol:StrategyThenawUsdrUsdc",
        "label": "router",
        "offset": 0,
        "slot": "306",
        "type": "t_contract(IRouter)4047"
      },
      {
        "astId": 7520,
        "contract": "contracts/strategies/StrategyThenawUsdrUsdc.sol:StrategyThenawUsdrUsdc",
        "label": "gauge",
        "offset": 0,
        "slot": "307",
        "type": "t_contract(IGaugeV2)4234"
      },
      {
        "astId": 7523,
        "contract": "contracts/strategies/StrategyThenawUsdrUsdc.sol:StrategyThenawUsdrUsdc",
        "label": "wombatPool",
        "offset": 0,
        "slot": "308",
        "type": "t_contract(IPool)4887"
      },
      {
        "astId": 7526,
        "contract": "contracts/strategies/StrategyThenawUsdrUsdc.sol:StrategyThenawUsdrUsdc",
        "label": "wombatRouter",
        "offset": 0,
        "slot": "309",
        "type": "t_contract(IWombatRouter)5243"
      },
      {
        "astId": 7529,
        "contract": "contracts/strategies/StrategyThenawUsdrUsdc.sol:StrategyThenawUsdrUsdc",
        "label": "oracleBusd",
        "offset": 0,
        "slot": "310",
        "type": "t_contract(IPriceFeed)3177"
      },
      {
        "astId": 7532,
        "contract": "contracts/strategies/StrategyThenawUsdrUsdc.sol:StrategyThenawUsdrUsdc",
        "label": "oracleUsdc",
        "offset": 0,
        "slot": "311",
        "type": "t_contract(IPriceFeed)3177"
      },
      {
        "astId": 7534,
        "contract": "contracts/strategies/StrategyThenawUsdrUsdc.sol:StrategyThenawUsdrUsdc",
        "label": "busdDm",
        "offset": 0,
        "slot": "312",
        "type": "t_uint256"
      },
      {
        "astId": 7536,
        "contract": "contracts/strategies/StrategyThenawUsdrUsdc.sol:StrategyThenawUsdrUsdc",
        "label": "usdcDm",
        "offset": 0,
        "slot": "313",
        "type": "t_uint256"
      },
      {
        "astId": 7538,
        "contract": "contracts/strategies/StrategyThenawUsdrUsdc.sol:StrategyThenawUsdrUsdc",
        "label": "wUsdrDm",
        "offset": 0,
        "slot": "314",
        "type": "t_uint256"
      }
    ],
    "types": {
      "t_address": {
        "encoding": "inplace",
        "label": "address",
        "numberOfBytes": "20"
      },
      "t_array(t_uint256)46_storage": {
        "base": "t_uint256",
        "encoding": "inplace",
        "label": "uint256[46]",
        "numberOfBytes": "1472"
      },
      "t_array(t_uint256)49_storage": {
        "base": "t_uint256",
        "encoding": "inplace",
        "label": "uint256[49]",
        "numberOfBytes": "1568"
      },
      "t_array(t_uint256)50_storage": {
        "base": "t_uint256",
        "encoding": "inplace",
        "label": "uint256[50]",
        "numberOfBytes": "1600"
      },
      "t_bool": {
        "encoding": "inplace",
        "label": "bool",
        "numberOfBytes": "1"
      },
      "t_bytes32": {
        "encoding": "inplace",
        "label": "bytes32",
        "numberOfBytes": "32"
      },
      "t_contract(IERC20)2662": {
        "encoding": "inplace",
        "label": "contract IERC20",
        "numberOfBytes": "20"
      },
      "t_contract(IGaugeV2)4234": {
        "encoding": "inplace",
        "label": "contract IGaugeV2",
        "numberOfBytes": "20"
      },
      "t_contract(IPair)3697": {
        "encoding": "inplace",
        "label": "contract IPair",
        "numberOfBytes": "20"
      },
      "t_contract(IPool)4887": {
        "encoding": "inplace",
        "label": "contract IPool",
        "numberOfBytes": "20"
      },
      "t_contract(IPriceFeed)3177": {
        "encoding": "inplace",
        "label": "contract IPriceFeed",
        "numberOfBytes": "20"
      },
      "t_contract(IRouter)4047": {
        "encoding": "inplace",
        "label": "contract IRouter",
        "numberOfBytes": "20"
      },
      "t_contract(IWombatRouter)5243": {
        "encoding": "inplace",
        "label": "contract IWombatRouter",
        "numberOfBytes": "20"
      },
      "t_mapping(t_address,t_bool)": {
        "encoding": "mapping",
        "key": "t_address",
        "label": "mapping(address => bool)",
        "numberOfBytes": "32",
        "value": "t_bool"
      },
      "t_mapping(t_bytes32,t_struct(RoleData)34_storage)": {
        "encoding": "mapping",
        "key": "t_bytes32",
        "label": "mapping(bytes32 => struct AccessControlUpgradeable.RoleData)",
        "numberOfBytes": "32",
        "value": "t_struct(RoleData)34_storage"
      },
      "t_struct(RoleData)34_storage": {
        "encoding": "inplace",
        "label": "struct AccessControlUpgradeable.RoleData",
        "members": [
          {
            "astId": 31,
            "contract": "contracts/strategies/StrategyThenawUsdrUsdc.sol:StrategyThenawUsdrUsdc",
            "label": "members",
            "offset": 0,
            "slot": "0",
            "type": "t_mapping(t_address,t_bool)"
          },
          {
            "astId": 33,
            "contract": "contracts/strategies/StrategyThenawUsdrUsdc.sol:StrategyThenawUsdrUsdc",
            "label": "adminRole",
            "offset": 0,
            "slot": "1",
            "type": "t_bytes32"
          }
        ],
        "numberOfBytes": "64"
      },
      "t_uint256": {
        "encoding": "inplace",
        "label": "uint256",
        "numberOfBytes": "32"
      },
      "t_uint8": {
        "encoding": "inplace",
        "label": "uint8",
        "numberOfBytes": "1"
      }
    }
  }
}