{
  "address": "0x39E29f4FB13AeC505EF32Ee6Ff7cc16e2225B11F",
  "abi": [
    {
      "inputs": [],
      "stateMutability": "nonpayable",
      "type": "constructor"
    },
    {
      "anonymous": false,
      "inputs": [
        {
          "indexed": false,
          "internalType": "address",
          "name": "previousAdmin",
          "type": "address"
        },
        {
          "indexed": false,
          "internalType": "address",
          "name": "newAdmin",
          "type": "address"
        }
      ],
      "name": "AdminChanged",
      "type": "event"
    },
    {
      "anonymous": false,
      "inputs": [
        {
          "indexed": true,
          "internalType": "address",
          "name": "beacon",
          "type": "address"
        }
      ],
      "name": "BeaconUpgraded",
      "type": "event"
    },
    {
      "anonymous": false,
      "inputs": [
        {
          "indexed": false,
          "internalType": "uint8",
          "name": "version",
          "type": "uint8"
        }
      ],
      "name": "Initialized",
      "type": "event"
    },
    {
      "anonymous": false,
      "inputs": [
        {
          "indexed": false,
          "internalType": "address",
          "name": "value",
          "type": "address"
        }
      ],
      "name": "PortfolioManagerUpdated",
      "type": "event"
    },
    {
      "anonymous": false,
      "inputs": [
        {
          "indexed": false,
          "internalType": "uint256",
          "name": "amount",
          "type": "uint256"
        }
      ],
      "name": "Reward",
      "type": "event"
    },
    {
      "anonymous": false,
      "inputs": [
        {
          "indexed": true,
          "internalType": "bytes32",
          "name": "role",
          "type": "bytes32"
        },
        {
          "indexed": true,
          "internalType": "bytes32",
          "name": "previousAdminRole",
          "type": "bytes32"
        },
        {
          "indexed": true,
          "internalType": "bytes32",
          "name": "newAdminRole",
          "type": "bytes32"
        }
      ],
      "name": "RoleAdminChanged",
      "type": "event"
    },
    {
      "anonymous": false,
      "inputs": [
        {
          "indexed": true,
          "internalType": "bytes32",
          "name": "role",
          "type": "bytes32"
        },
        {
          "indexed": true,
          "internalType": "address",
          "name": "account",
          "type": "address"
        },
        {
          "indexed": true,
          "internalType": "address",
          "name": "sender",
          "type": "address"
        }
      ],
      "name": "RoleGranted",
      "type": "event"
    },
    {
      "anonymous": false,
      "inputs": [
        {
          "indexed": true,
          "internalType": "bytes32",
          "name": "role",
          "type": "bytes32"
        },
        {
          "indexed": true,
          "internalType": "address",
          "name": "account",
          "type": "address"
        },
        {
          "indexed": true,
          "internalType": "address",
          "name": "sender",
          "type": "address"
        }
      ],
      "name": "RoleRevoked",
      "type": "event"
    },
    {
      "anonymous": false,
      "inputs": [
        {
          "indexed": false,
          "internalType": "uint256",
          "name": "swapSlippageBP",
          "type": "uint256"
        },
        {
          "indexed": false,
          "internalType": "uint256",
          "name": "navSlippageBP",
          "type": "uint256"
        },
        {
          "indexed": false,
          "internalType": "uint256",
          "name": "stakeSlippageBP",
          "type": "uint256"
        }
      ],
      "name": "SlippagesUpdated",
      "type": "event"
    },
    {
      "anonymous": false,
      "inputs": [
        {
          "indexed": false,
          "internalType": "uint256",
          "name": "amount",
          "type": "uint256"
        }
      ],
      "name": "Stake",
      "type": "event"
    },
    {
      "anonymous": false,
      "inputs": [],
      "name": "StrategyUpdatedParams",
      "type": "event"
    },
    {
      "anonymous": false,
      "inputs": [
        {
          "indexed": false,
          "internalType": "uint256",
          "name": "amount",
          "type": "uint256"
        },
        {
          "indexed": false,
          "internalType": "uint256",
          "name": "amountReceived",
          "type": "uint256"
        }
      ],
      "name": "Unstake",
      "type": "event"
    },
    {
      "anonymous": false,
      "inputs": [
        {
          "indexed": true,
          "internalType": "address",
          "name": "implementation",
          "type": "address"
        }
      ],
      "name": "Upgraded",
      "type": "event"
    },
    {
      "inputs": [],
      "name": "DEFAULT_ADMIN_ROLE",
      "outputs": [
        {
          "internalType": "bytes32",
          "name": "",
          "type": "bytes32"
        }
      ],
      "stateMutability": "view",
      "type": "function"
    },
    {
      "inputs": [],
      "name": "PORTFOLIO_AGENT_ROLE",
      "outputs": [
        {
          "internalType": "bytes32",
          "name": "",
          "type": "bytes32"
        }
      ],
      "stateMutability": "view",
      "type": "function"
    },
    {
      "inputs": [],
      "name": "PORTFOLIO_MANAGER",
      "outputs": [
        {
          "internalType": "bytes32",
          "name": "",
          "type": "bytes32"
        }
      ],
      "stateMutability": "view",
      "type": "function"
    },
    {
      "inputs": [],
      "name": "busd",
      "outputs": [
        {
          "internalType": "contract IERC20",
          "name": "",
          "type": "address"
        }
      ],
      "stateMutability": "view",
      "type": "function"
    },
    {
      "inputs": [],
      "name": "busdDm",
      "outputs": [
        {
          "internalType": "uint256",
          "name": "",
          "type": "uint256"
        }
      ],
      "stateMutability": "view",
      "type": "function"
    },
    {
      "inputs": [
        {
          "internalType": "address",
          "name": "_to",
          "type": "address"
        }
      ],
      "name": "claimRewards",
      "outputs": [
        {
          "internalType": "uint256",
          "name": "",
          "type": "uint256"
        }
      ],
      "stateMutability": "nonpayable",
      "type": "function"
    },
    {
      "inputs": [],
      "name": "gauge",
      "outputs": [
        {
          "internalType": "contract IGaugeV2",
          "name": "",
          "type": "address"
        }
      ],
      "stateMutability": "view",
      "type": "function"
    },
    {
      "inputs": [
        {
          "internalType": "bytes32",
          "name": "role",
          "type": "bytes32"
        }
      ],
      "name": "getRoleAdmin",
      "outputs": [
        {
          "internalType": "bytes32",
          "name": "",
          "type": "bytes32"
        }
      ],
      "stateMutability": "view",
      "type": "function"
    },
    {
      "inputs": [
        {
          "internalType": "bytes32",
          "name": "role",
          "type": "bytes32"
        },
        {
          "internalType": "address",
          "name": "account",
          "type": "address"
        }
      ],
      "name": "grantRole",
      "outputs": [],
      "stateMutability": "nonpayable",
      "type": "function"
    },
    {
      "inputs": [
        {
          "internalType": "bytes32",
          "name": "role",
          "type": "bytes32"
        },
        {
          "internalType": "address",
          "name": "account",
          "type": "address"
        }
      ],
      "name": "hasRole",
      "outputs": [
        {
          "internalType": "bool",
          "name": "",
          "type": "bool"
        }
      ],
      "stateMutability": "view",
      "type": "function"
    },
    {
      "inputs": [],
      "name": "initialize",
      "outputs": [],
      "stateMutability": "nonpayable",
      "type": "function"
    },
    {
      "inputs": [],
      "name": "liquidationValue",
      "outputs": [
        {
          "internalType": "uint256",
          "name": "",
          "type": "uint256"
        }
      ],
      "stateMutability": "view",
      "type": "function"
    },
    {
      "inputs": [],
      "name": "navSlippageBP",
      "outputs": [
        {
          "internalType": "uint256",
          "name": "",
          "type": "uint256"
        }
      ],
      "stateMutability": "view",
      "type": "function"
    },
    {
      "inputs": [],
      "name": "netAssetValue",
      "outputs": [
        {
          "internalType": "uint256",
          "name": "",
          "type": "uint256"
        }
      ],
      "stateMutability": "view",
      "type": "function"
    },
    {
      "inputs": [],
      "name": "oracleBusd",
      "outputs": [
        {
          "internalType": "contract IPriceFeed",
          "name": "",
          "type": "address"
        }
      ],
      "stateMutability": "view",
      "type": "function"
    },
    {
      "inputs": [],
      "name": "oracleUsdc",
      "outputs": [
        {
          "internalType": "contract IPriceFeed",
          "name": "",
          "type": "address"
        }
      ],
      "stateMutability": "view",
      "type": "function"
    },
    {
      "inputs": [],
      "name": "oracleUsdt",
      "outputs": [
        {
          "internalType": "contract IPriceFeed",
          "name": "",
          "type": "address"
        }
      ],
      "stateMutability": "view",
      "type": "function"
    },
    {
      "inputs": [],
      "name": "pair",
      "outputs": [
        {
          "internalType": "contract IPair",
          "name": "",
          "type": "address"
        }
      ],
      "stateMutability": "view",
      "type": "function"
    },
    {
      "inputs": [],
      "name": "portfolioManager",
      "outputs": [
        {
          "internalType": "address",
          "name": "",
          "type": "address"
        }
      ],
      "stateMutability": "view",
      "type": "function"
    },
    {
      "inputs": [],
      "name": "proxiableUUID",
      "outputs": [
        {
          "internalType": "bytes32",
          "name": "",
          "type": "bytes32"
        }
      ],
      "stateMutability": "view",
      "type": "function"
    },
    {
      "inputs": [
        {
          "internalType": "bytes32",
          "name": "role",
          "type": "bytes32"
        },
        {
          "internalType": "address",
          "name": "account",
          "type": "address"
        }
      ],
      "name": "renounceRole",
      "outputs": [],
      "stateMutability": "nonpayable",
      "type": "function"
    },
    {
      "inputs": [
        {
          "internalType": "bytes32",
          "name": "role",
          "type": "bytes32"
        },
        {
          "internalType": "address",
          "name": "account",
          "type": "address"
        }
      ],
      "name": "revokeRole",
      "outputs": [],
      "stateMutability": "nonpayable",
      "type": "function"
    },
    {
      "inputs": [],
      "name": "router",
      "outputs": [
        {
          "internalType": "contract IRouter",
          "name": "",
          "type": "address"
        }
      ],
      "stateMutability": "view",
      "type": "function"
    },
    {
      "inputs": [
        {
          "components": [
            {
              "internalType": "address",
              "name": "busdToken",
              "type": "address"
            },
            {
              "internalType": "address",
              "name": "usdcToken",
              "type": "address"
            },
            {
              "internalType": "address",
              "name": "wUsdr",
              "type": "address"
            },
            {
              "internalType": "address",
              "name": "the",
              "type": "address"
            },
            {
              "internalType": "address",
              "name": "pair",
              "type": "address"
            },
            {
              "internalType": "address",
              "name": "router",
              "type": "address"
            },
            {
              "internalType": "address",
              "name": "gauge",
              "type": "address"
            },
            {
              "internalType": "address",
              "name": "wombatPool",
              "type": "address"
            },
            {
              "internalType": "address",
              "name": "wombatRouter",
              "type": "address"
            },
            {
              "internalType": "address",
              "name": "oracleBusd",
              "type": "address"
            },
            {
              "internalType": "address",
              "name": "oracleUsdc",
              "type": "address"
            },
            {
              "internalType": "address",
              "name": "usdtToken",
              "type": "address"
            },
            {
              "internalType": "address",
              "name": "oracleUsdt",
              "type": "address"
            }
          ],
          "internalType": "struct StrategyThenawUsdrUsdc.StrategyParams",
          "name": "params",
          "type": "tuple"
        }
      ],
      "name": "setParams",
      "outputs": [],
      "stateMutability": "nonpayable",
      "type": "function"
    },
    {
      "inputs": [
        {
          "internalType": "address",
          "name": "_value",
          "type": "address"
        }
      ],
      "name": "setPortfolioManager",
      "outputs": [],
      "stateMutability": "nonpayable",
      "type": "function"
    },
    {
      "inputs": [
        {
          "internalType": "uint256",
          "name": "_swapSlippageBP",
          "type": "uint256"
        },
        {
          "internalType": "uint256",
          "name": "_navSlippageBP",
          "type": "uint256"
        },
        {
          "internalType": "uint256",
          "name": "_stakeSlippageBP",
          "type": "uint256"
        }
      ],
      "name": "setSlippages",
      "outputs": [],
      "stateMutability": "nonpayable",
      "type": "function"
    },
    {
      "inputs": [
        {
          "internalType": "address",
          "name": "_asset",
          "type": "address"
        },
        {
          "internalType": "uint256",
          "name": "_amount",
          "type": "uint256"
        }
      ],
      "name": "stake",
      "outputs": [],
      "stateMutability": "nonpayable",
      "type": "function"
    },
    {
      "inputs": [],
      "name": "stakeSlippageBP",
      "outputs": [
        {
          "internalType": "uint256",
          "name": "",
          "type": "uint256"
        }
      ],
      "stateMutability": "view",
      "type": "function"
    },
    {
      "inputs": [
        {
          "internalType": "bytes4",
          "name": "interfaceId",
          "type": "bytes4"
        }
      ],
      "name": "supportsInterface",
      "outputs": [
        {
          "internalType": "bool",
          "name": "",
          "type": "bool"
        }
      ],
      "stateMutability": "view",
      "type": "function"
    },
    {
      "inputs": [],
      "name": "swapSlippageBP",
      "outputs": [
        {
          "internalType": "uint256",
          "name": "",
          "type": "uint256"
        }
      ],
      "stateMutability": "view",
      "type": "function"
    },
    {
      "inputs": [],
      "name": "the",
      "outputs": [
        {
          "internalType": "contract IERC20",
          "name": "",
          "type": "address"
        }
      ],
      "stateMutability": "view",
      "type": "function"
    },
    {
      "inputs": [
        {
          "internalType": "address",
          "name": "_asset",
          "type": "address"
        },
        {
          "internalType": "uint256",
          "name": "_amount",
          "type": "uint256"
        },
        {
          "internalType": "address",
          "name": "_beneficiary",
          "type": "address"
        },
        {
          "internalType": "bool",
          "name": "_targetIsZero",
          "type": "bool"
        }
      ],
      "name": "unstake",
      "outputs": [
        {
          "internalType": "uint256",
          "name": "",
          "type": "uint256"
        }
      ],
      "stateMutability": "nonpayable",
      "type": "function"
    },
    {
      "inputs": [
        {
          "internalType": "address",
          "name": "newImplementation",
          "type": "address"
        }
      ],
      "name": "upgradeTo",
      "outputs": [],
      "stateMutability": "nonpayable",
      "type": "function"
    },
    {
      "inputs": [
        {
          "internalType": "address",
          "name": "newImplementation",
          "type": "address"
        },
        {
          "internalType": "bytes",
          "name": "data",
          "type": "bytes"
        }
      ],
      "name": "upgradeToAndCall",
      "outputs": [],
      "stateMutability": "payable",
      "type": "function"
    },
    {
      "inputs": [],
      "name": "usdc",
      "outputs": [
        {
          "internalType": "contract IERC20",
          "name": "",
          "type": "address"
        }
      ],
      "stateMutability": "view",
      "type": "function"
    },
    {
      "inputs": [],
      "name": "usdcDm",
      "outputs": [
        {
          "internalType": "uint256",
          "name": "",
          "type": "uint256"
        }
      ],
      "stateMutability": "view",
      "type": "function"
    },
    {
      "inputs": [],
      "name": "usdt",
      "outputs": [
        {
          "internalType": "contract IERC20",
          "name": "",
          "type": "address"
        }
      ],
      "stateMutability": "view",
      "type": "function"
    },
    {
      "inputs": [],
      "name": "usdtDm",
      "outputs": [
        {
          "internalType": "uint256",
          "name": "",
          "type": "uint256"
        }
      ],
      "stateMutability": "view",
      "type": "function"
    },
    {
      "inputs": [],
      "name": "wUsdr",
      "outputs": [
        {
          "internalType": "contract IERC20",
          "name": "",
          "type": "address"
        }
      ],
      "stateMutability": "view",
      "type": "function"
    },
    {
      "inputs": [],
      "name": "wUsdrDm",
      "outputs": [
        {
          "internalType": "uint256",
          "name": "",
          "type": "uint256"
        }
      ],
      "stateMutability": "view",
      "type": "function"
    },
    {
      "inputs": [],
      "name": "wombatPool",
      "outputs": [
        {
          "internalType": "address",
          "name": "",
          "type": "address"
        }
      ],
      "stateMutability": "view",
      "type": "function"
    },
    {
      "inputs": [],
      "name": "wombatRouter",
      "outputs": [
        {
          "internalType": "contract IWombatRouter",
          "name": "",
          "type": "address"
        }
      ],
      "stateMutability": "view",
      "type": "function"
    }
  ],
  "numDeployments": 7,
  "solcInputHash": "ed2e51615956533b612b75d3cd2ce214",
  "bytecode": "0x60a0604052306080523480156200001557600080fd5b50600054610100900460ff1615808015620000375750600054600160ff909116105b8062000067575062000054306200010860201b620015d41760201c565b15801562000067575060005460ff166001145b6200008f5760405162461bcd60e51b8152600401620000869062000117565b60405180910390fd5b6000805460ff191660011790558015620000b3576000805461ff0019166101001790555b801562000101576000805461ff00191690556040517f7f26b83ff96e1f2b6a682f133852f6798a09c465da95921460cefb384740249890620000f8906001906200018d565b60405180910390a15b506200019d565b6001600160a01b03163b151590565b602080825281016200016a81602e81527f496e697469616c697a61626c653a20636f6e747261637420697320616c72656160208201526d191e481a5b9a5d1a585b1a5e995960921b604082015260600190565b92915050565b600060ff82166200016a565b620001878162000170565b82525050565b602081016200016a82846200017c565b6080516159d2620001d56000396000818161083d0152818161087d0152818161091c0152818161095c01526109eb01526159d26000f3fe6080604052600436106102515760003560e01c80638129fc1c11610139578063ae30c110116100b6578063ddefa4ab1161007a578063ddefa4ab146106bf578063df313cc7146106e0578063eb23e48314610700578063ef5cfb8c14610721578063f6f6b88114610741578063f887ea401461076157600080fd5b8063ae30c11014610631578063bf52e08014610651578063cc6522c314610667578063d547741f14610688578063dc19d643146106a857600080fd5b8063a66b5713116100fd578063a66b571314610597578063a6f19c84146105b8578063a8a69576146105d9578063a8aa1b31146105f0578063adc9772e1461061157600080fd5b80638129fc1c1461051857806391d148541461052d578063a217fddf1461054d578063a3673b3814610562578063a440b21a1461057757600080fd5b80633659cfe6116101d25780635ca558f8116101965780635ca558f81461044a5780635dbd733a146104605780635fea9cbb14610494578063612c87df146104b5578063620b75df146104d65780637d5f5802146104f657600080fd5b80633659cfe6146103c05780633ca5b234146103e05780633e413bee146104015780634f1ef2861461042257806352d1902d1461043557600080fd5b8063248a9ca311610219578063248a9ca31461030b5780632576e65a1461033b5780632f2ff15d146103505780632f48ab7d1461037257806336568abe146103a057600080fd5b8063012ee9281461025657806301ffc9a71461028d5780630f9033f7146102ba578063119cd879146102de5780631b1e7ddc146102f4575b600080fd5b34801561026257600080fd5b5061013454610277906001600160a01b031681565b60405161028491906145af565b60405180910390f35b34801561029957600080fd5b506102ad6102a83660046145df565b610782565b6040516102849190614608565b3480156102c657600080fd5b506102d161013b5481565b604051610284919061461c565b3480156102ea57600080fd5b506102d160fd5481565b34801561030057600080fd5b506102d16101395481565b34801561031757600080fd5b506102d161032636600461463b565b60009081526065602052604090206001015490565b34801561034757600080fd5b506102d16107b9565b34801561035c57600080fd5b5061037061036b366004614670565b6107ca565b005b34801561037e57600080fd5b5061013d54610393906001600160a01b031681565b60405161028491906146ef565b3480156103ac57600080fd5b506103706103bb366004614670565b6107f4565b3480156103cc57600080fd5b506103706103db3660046146fd565b610833565b3480156103ec57600080fd5b5061012d54610393906001600160a01b031681565b34801561040d57600080fd5b5061012e54610393906001600160a01b031681565b61037061043036600461480c565b610912565b34801561044157600080fd5b506102d16109de565b34801561045657600080fd5b506102d160fe5481565b34801561046c57600080fd5b506102d17fd67ad422505496469a1adf6cdf9e5ee92ac5d33992843c9ecc4b2f6d6cde913781565b3480156104a057600080fd5b5061013754610393906001600160a01b031681565b3480156104c157600080fd5b5061013554610393906001600160a01b031681565b3480156104e257600080fd5b5060fb54610277906001600160a01b031681565b34801561050257600080fd5b506102d160008051602061593683398151915281565b34801561052457600080fd5b50610370610a3b565b34801561053957600080fd5b506102ad610548366004614670565b610b09565b34801561055957600080fd5b506102d1600081565b34801561056e57600080fd5b506102d1610b34565b34801561058357600080fd5b506103706105923660046146fd565b610b40565b3480156105a357600080fd5b5061013654610393906001600160a01b031681565b3480156105c457600080fd5b5061013354610393906001600160a01b031681565b3480156105e557600080fd5b506102d161013a5481565b3480156105fc57600080fd5b5061013154610393906001600160a01b031681565b34801561061d57600080fd5b5061037061062c36600461485a565b610c15565b34801561063d57600080fd5b5061037061064c36600461488d565b610d6c565b34801561065d57600080fd5b506102d160fc5481565b34801561067357600080fd5b5061013c54610393906001600160a01b031681565b34801561069457600080fd5b506103706106a3366004614670565b610e8e565b3480156106b457600080fd5b506102d16101385481565b3480156106cb57600080fd5b5061013054610393906001600160a01b031681565b3480156106ec57600080fd5b506103706106fb3660046148f9565b610eb3565b34801561070c57600080fd5b5061012f54610393906001600160a01b031681565b34801561072d57600080fd5b506102d161073c3660046146fd565b611388565b34801561074d57600080fd5b506102d161075c36600461492e565b611411565b34801561076d57600080fd5b5061013254610393906001600160a01b031681565b60006001600160e01b03198216637965db0b60e01b14806107b357506301ffc9a760e01b6001600160e01b03198316145b92915050565b60006107c560006115e3565b905090565b6000828152606560205260409020600101546107e581611a37565b6107ef8383611a41565b505050565b6001600160a01b03811633146108255760405162461bcd60e51b815260040161081c906149e1565b60405180910390fd5b61082f8282611ac7565b5050565b6001600160a01b037f000000000000000000000000000000000000000000000000000000000000000016300361087b5760405162461bcd60e51b815260040161081c90614a3a565b7f00000000000000000000000000000000000000000000000000000000000000006001600160a01b03166108c4600080516020615956833981519152546001600160a01b031690565b6001600160a01b0316146108ea5760405162461bcd60e51b815260040161081c90614a93565b6108f381611b2e565b6040805160008082526020820190925261090f91839190611b39565b50565b6001600160a01b037f000000000000000000000000000000000000000000000000000000000000000016300361095a5760405162461bcd60e51b815260040161081c90614a3a565b7f00000000000000000000000000000000000000000000000000000000000000006001600160a01b03166109a3600080516020615956833981519152546001600160a01b031690565b6001600160a01b0316146109c95760405162461bcd60e51b815260040161081c90614a93565b6109d282611b2e565b61082f82826001611b39565b6000306001600160a01b037f00000000000000000000000000000000000000000000000000000000000000001614610a285760405162461bcd60e51b815260040161081c90614afd565b5060008051602061595683398151915290565b600054610100900460ff1615808015610a5b5750600054600160ff909116105b80610a755750303b158015610a75575060005460ff166001145b610a915760405162461bcd60e51b815260040161081c90614b58565b6000805460ff191660011790558015610ab4576000805461ff0019166101001790555b610abc611c1b565b801561090f576000805461ff00191690556040517f7f26b83ff96e1f2b6a682f133852f6798a09c465da95921460cefb384740249890610afe90600190614b7c565b60405180910390a150565b60009182526065602090815260408084206001600160a01b0393909316845291905290205460ff1690565b60006107c560016115e3565b610b4b600033610b09565b610b675760405162461bcd60e51b815260040161081c90614bb8565b6001600160a01b038116610b8d5760405162461bcd60e51b815260040161081c90614bfc565b60fb54610bb290600080516020615936833981519152906001600160a01b0316610e8e565b610bca600080516020615936833981519152826107ca565b60fb80546001600160a01b0319166001600160a01b0383161790556040517ff7b449fcd5cfb7379dcd34cb69428dd9f882033b15be33d83b42d91daa28eeb790610afe9083906145af565b610c2d60008051602061593683398151915233610b09565b610c495760405162461bcd60e51b815260040161081c90614c40565b6000610cb8306001600160a01b031663a3673b386040518163ffffffff1660e01b8152600401602060405180830381865afa158015610c8c573d6000803e3d6000fd5b505050506040513d601f19601f82011682018060405250810190610cb09190614c5b565b60fd54611d00565b9050610d3083846001600160a01b03166370a08231306040518263ffffffff1660e01b8152600401610cea91906145af565b602060405180830381865afa158015610d07573d6000803e3d6000fd5b505050506040513d601f19601f82011682018060405250810190610d2b9190614c5b565b611d2a565b7f227a473b70d2f893cc7659219575c030a63b5743024fe1e0c1a680e708b1525a82604051610d5f919061461c565b60405180910390a1505050565b610d967fd67ad422505496469a1adf6cdf9e5ee92ac5d33992843c9ecc4b2f6d6cde913733610b09565b80610e2f575060fb54604051632474521560e21b81526001600160a01b03909116906391d1485490610dee907fd67ad422505496469a1adf6cdf9e5ee92ac5d33992843c9ecc4b2f6d6cde9137903390600401614c7c565b602060405180830381865afa158015610e0b573d6000803e3d6000fd5b505050506040513d601f19601f82011682018060405250810190610e2f9190614ca2565b610e4b5760405162461bcd60e51b815260040161081c90614d02565b60fc83905560fd82905560fe8190556040517f116fbf1e97a2be629ad98abfb6c332733c8996c2dfb174dd2efe8440df381d1a90610d5f90859085908590614d12565b600082815260656020526040902060010154610ea981611a37565b6107ef8383611ac7565b610ebe600033610b09565b610eda5760405162461bcd60e51b815260040161081c90614bb8565b610ee760208201826146fd565b61012d80546001600160a01b0319166001600160a01b0392909216919091179055610f1860408201602083016146fd565b61012e80546001600160a01b0319166001600160a01b0392909216919091179055610f4960608201604083016146fd565b61012f80546001600160a01b0319166001600160a01b0392909216919091179055610f7a60808201606083016146fd565b61013080546001600160a01b0319166001600160a01b0392909216919091179055610fab60a08201608083016146fd565b61013180546001600160a01b0319166001600160a01b0392909216919091179055610fdc60c0820160a083016146fd565b61013280546001600160a01b0319166001600160a01b039290921691909117905561100d60e0820160c083016146fd565b61013380546001600160a01b0319166001600160a01b039290921691909117905561103f610100820160e083016146fd565b61013480546001600160a01b0319166001600160a01b0392909216919091179055611072610120820161010083016146fd565b61013580546001600160a01b0319166001600160a01b03929092169190911790556110a5610140820161012083016146fd565b61013680546001600160a01b0319166001600160a01b03929092169190911790556110d8610160820161014083016146fd565b61013780546001600160a01b0319166001600160a01b039290921691909117905561110b610180820161016083016146fd565b61013d80546001600160a01b0319166001600160a01b039290921691909117905561113e6101a0820161018083016146fd565b61013c80546001600160a01b0319166001600160a01b039290921691909117905561116c60208201826146fd565b6001600160a01b031663313ce5676040518163ffffffff1660e01b8152600401602060405180830381865afa1580156111a9573d6000803e3d6000fd5b505050506040513d601f19601f820116820180604052508101906111cd9190614d4e565b6111d890600a614e93565b610138556111ec60408201602083016146fd565b6001600160a01b031663313ce5676040518163ffffffff1660e01b8152600401602060405180830381865afa158015611229573d6000803e3d6000fd5b505050506040513d601f19601f8201168201806040525081019061124d9190614d4e565b61125890600a614e93565b6101395561126c60608201604083016146fd565b6001600160a01b031663313ce5676040518163ffffffff1660e01b8152600401602060405180830381865afa1580156112a9573d6000803e3d6000fd5b505050506040513d601f19601f820116820180604052508101906112cd9190614d4e565b6112d890600a614e93565b61013a556112ec60408201602083016146fd565b6001600160a01b031663313ce5676040518163ffffffff1660e01b8152600401602060405180830381865afa158015611329573d6000803e3d6000fd5b505050506040513d601f19601f8201168201806040525081019061134d9190614d4e565b61135890600a614e93565b61013b556040517fea5646eb3528e525944447a4a97de700dd472298626e5c0481d1c82c3da86ea590600090a150565b60006113a260008051602061593683398151915233610b09565b6113be5760405162461bcd60e51b815260040161081c90614c40565b60006113c9836126f0565b90508015611409577f3ac0594a85a20354f9dc74f33728416d19ce00d04a406c108cc2dcf2cecea13481604051611400919061461c565b60405180910390a15b90505b919050565b600061142b60008051602061593683398151915233610b09565b6114475760405162461bcd60e51b815260040161081c90614c40565b600061148a306001600160a01b031663a3673b386040518163ffffffff1660e01b8152600401602060405180830381865afa158015610c8c573d6000803e3d6000fd5b905060008084156114b15761149e866126f0565b90506114aa8887612b22565b91506114de565b6114bc8888886131dd565b9150868210156114de5760405162461bcd60e51b815260040161081c90614eee565b60405163a9059cbb60e01b81526001600160a01b0389169063a9059cbb9061150c9089908690600401614efe565b6020604051808303816000875af115801561152b573d6000803e3d6000fd5b505050506040513d601f19601f8201168201806040525081019061154f9190614ca2565b507f9045c2ac9b2026de8075f2701bbdde882cd5e830b3b1ead9a15b22f2b5b937428783604051611581929190614f19565b60405180910390a180156115c7577f3ac0594a85a20354f9dc74f33728416d19ce00d04a406c108cc2dcf2cecea134816040516115be919061461c565b60405180910390a15b509150505b949350505050565b6001600160a01b03163b151590565b61013d546040516370a0823160e01b815260009182916001600160a01b03909116906370a08231906116199030906004016145af565b602060405180830381865afa158015611636573d6000803e3d6000fd5b505050506040513d601f19601f8201168201806040525081019061165a9190614c5b565b61012e546040516370a0823160e01b81529192506000916001600160a01b03909116906370a08231906116919030906004016145af565b602060405180830381865afa1580156116ae573d6000803e3d6000fd5b505050506040513d601f19601f820116820180604052508101906116d29190614c5b565b61012f546040516370a0823160e01b81529192506000916001600160a01b03909116906370a08231906117099030906004016145af565b602060405180830381865afa158015611726573d6000803e3d6000fd5b505050506040513d601f19601f8201168201806040525081019061174a9190614c5b565b610133546040516370a0823160e01b81529192506000916001600160a01b03909116906370a08231906117819030906004016145af565b602060405180830381865afa15801561179e573d6000803e3d6000fd5b505050506040513d601f19601f820116820180604052508101906117c29190614c5b565b905080156118dc576101325461012e5461012f5461013154604080516309047bdd60e01b8152905160009586956001600160a01b0391821695634386e63c95918316949083169391909216916309047bdd9160048083019260209291908290030181865afa158015611838573d6000803e3d6000fd5b505050506040513d601f19601f8201168201806040525081019061185c9190614ca2565b876040518563ffffffff1660e01b815260040161187c9493929190614f27565b6040805180830381865afa158015611898573d6000803e3d6000fd5b505050506040513d601f19601f820116820180604052508101906118bc9190614f5c565b90925090506118cb8286614f8f565b94506118d78185614f8f565b935050505b821561195a578515611925576101395461013b546101375461013c54611914938793909290916001600160a01b03918216911661399e565b61191e9085614f8f565b935061195a565b6101325461012e5461013d5461194d926001600160a01b0390811692811691166001876139ee565b6119579085614f8f565b93505b8115611a2d576101325461012f5461012e5461013154604080516309047bdd60e01b815290516000956119f3956001600160a01b039182169590821694908216939116916309047bdd916004808201926020929091908290030181865afa1580156119c9573d6000803e3d6000fd5b505050506040513d601f19601f820116820180604052508101906119ed9190614ca2565b876139ee565b6101325461012e5461013d54929350611a1f926001600160a01b039283169291821691166001856139ee565b611a299086614f8f565b9450505b5091949350505050565b61090f8133613b67565b611a4b8282610b09565b61082f5760008281526065602090815260408083206001600160a01b03851684529091529020805460ff19166001179055611a833390565b6001600160a01b0316816001600160a01b0316837f2f8788117e7eff1d82e926ec794901d17c78024a50270940304540a733656f0d60405160405180910390a45050565b611ad18282610b09565b1561082f5760008281526065602090815260408083206001600160a01b0385168085529252808320805460ff1916905551339285917ff6391f5c32d9c69d2a47ea670b442974b53935d1edc7fd64eb21e047a839171b9190a45050565b600061082f81611a37565b7f4910fdfa16fed3260ed0e7147f7cc6da11a60208b5b9406d12a635614ffd91435460ff1615611b6c576107ef83613bc0565b826001600160a01b03166352d1902d6040518163ffffffff1660e01b8152600401602060405180830381865afa925050508015611bc6575060408051601f3d908101601f19168201909252611bc391810190614c5b565b60015b611be25760405162461bcd60e51b815260040161081c90614fed565b6000805160206159568339815191528114611c0f5760405162461bcd60e51b815260040161081c90615043565b506107ef838383613c16565b600054610100900460ff1615808015611c3b5750600054600160ff909116105b80611c555750303b158015611c55575060005460ff166001145b611c715760405162461bcd60e51b815260040161081c90614b58565b6000805460ff191660011790558015611c94576000805461ff0019166101001790555b611c9c613c41565b611ca4613c41565b611caf600033611a41565b601960fc55602360fd55600460fe55801561090f576000805461ff00191690556040517f7f26b83ff96e1f2b6a682f133852f6798a09c465da95921460cefb384740249890610afe90600190614b7c565b6000612710611d0f8382615053565b611d199085615066565b611d23919061509b565b9392505050565b61013d546001600160a01b03838116911614611d585760405162461bcd60e51b815260040161081c906150da565b60008061013160009054906101000a90046001600160a01b03166001600160a01b0316630902f1ac6040518163ffffffff1660e01b8152600401606060405180830381865afa158015611daf573d6000803e3d6000fd5b505050506040513d601f19601f82011682018060405250810190611dd391906150ea565b5061013d546040516370a0823160e01b81529294509092506000916001600160a01b03909116906370a0823190611e0e9030906004016145af565b602060405180830381865afa158015611e2b573d6000803e3d6000fd5b505050506040513d601f19601f82011682018060405250810190611e4f9190614c5b565b61013b546101395461013c5461013754939450600093611e81938693909290916001600160a01b03918216911661399e565b6101355461013d5461012e546101345460fc54949550611ec6946001600160a01b03948516949384169392831692909116908790611ec0908890611d00565b30613c6a565b5061012e546040516370a0823160e01b81526000916001600160a01b0316906370a0823190611ef99030906004016145af565b602060405180830381865afa158015611f16573d6000803e3d6000fd5b505050506040513d601f19601f82011682018060405250810190611f3a9190614c5b565b6101325461012e5461012f5461013154604080516309047bdd60e01b81529051959650600095611fd6956001600160a01b039081169581169481169316916309047bdd9160048083019260209291908290030181865afa158015611fa2573d6000803e3d6000fd5b505050506040513d601f19601f82011682018060405250810190611fc69190614ca2565b868a8c6101395461013a54613e31565b6101325461012e5461012f5461013154604080516309047bdd60e01b8152905195965060009561206b956001600160a01b039081169581169481169316916309047bdd9160048083019260209291908290030181865afa15801561203e573d6000803e3d6000fd5b505050506040513d601f19601f820116820180604052508101906120629190614ca2565b86600030613ebd565b61012f546040516370a0823160e01b81529192506000916001600160a01b03909116906370a08231906120a29030906004016145af565b602060405180830381865afa1580156120bf573d6000803e3d6000fd5b505050506040513d601f19601f820116820180604052508101906120e39190614c5b565b61012e546040516370a0823160e01b81529192506001600160a01b0316906370a08231906121159030906004016145af565b602060405180830381865afa158015612132573d6000803e3d6000fd5b505050506040513d601f19601f820116820180604052508101906121569190614c5b565b61012e546101325460405163095ea7b360e01b81529296506001600160a01b039182169263095ea7b3926121909216908890600401614efe565b6020604051808303816000875af11580156121af573d6000803e3d6000fd5b505050506040513d601f19601f820116820180604052508101906121d39190614ca2565b5061012f546101325460405163095ea7b360e01b81526001600160a01b039283169263095ea7b39261220c929116908590600401614efe565b6020604051808303816000875af115801561222b573d6000803e3d6000fd5b505050506040513d601f19601f8201168201806040525081019061224f9190614ca2565b506101325461012e5461012f5461013154604080516309047bdd60e01b815290516000956122e3956001600160a01b039182169590821694908216939116916309047bdd916004808201926020929091908290030181865afa1580156122b9573d6000803e3d6000fd5b505050506040513d601f19601f820116820180604052508101906122dd9190614ca2565b896139ee565b905081811115612494576101325461012f5461012e5461013154604080516309047bdd60e01b81529051612379956001600160a01b039081169581169481169316916309047bdd9160048083019260209291908290030181865afa15801561234f573d6000803e3d6000fd5b505050506040513d601f19601f820116820180604052508101906123739190614ca2565b866139ee565b6101325461012e5461012f5461013154604080516309047bdd60e01b815290519596506001600160a01b0394851695635a47ddc3959485169493841693909216916309047bdd916004808201926020929091908290030181865afa1580156123e5573d6000803e3d6000fd5b505050506040513d601f19601f820116820180604052508101906124099190614ca2565b85876124178860fc54611d00565b6124238a60fc54611d00565b30426040518a63ffffffff1660e01b815260040161244999989796959493929190615130565b6060604051808303816000875af1158015612468573d6000803e3d6000fd5b505050506040513d601f19601f8201168201806040525081019061248c91906150ea565b50505061258e565b6101325461012e5461012f5461013154604080516309047bdd60e01b815290516001600160a01b0395861695635a47ddc39581169481169316916309047bdd9160048083019260209291908290030181865afa1580156124f8573d6000803e3d6000fd5b505050506040513d601f19601f8201168201806040525081019061251c9190614ca2565b898760008030426040518a63ffffffff1660e01b8152600401612547999897969594939291906151bd565b6060604051808303816000875af1158015612566573d6000803e3d6000fd5b505050506040513d601f19601f8201168201806040525081019061258a91906150ea565b5050505b610131546040516370a0823160e01b81526000916001600160a01b0316906370a08231906125c09030906004016145af565b602060405180830381865afa1580156125dd573d6000803e3d6000fd5b505050506040513d601f19601f820116820180604052508101906126019190614c5b565b610131546101335460405163095ea7b360e01b81529293506001600160a01b039182169263095ea7b39261263b9216908590600401614efe565b6020604051808303816000875af115801561265a573d6000803e3d6000fd5b505050506040513d601f19601f8201168201806040525081019061267e9190614ca2565b506101335460405163b6b55f2560e01b81526001600160a01b039091169063b6b55f25906126b090849060040161461c565b600060405180830381600087803b1580156126ca57600080fd5b505af11580156126de573d6000803e3d6000fd5b50505050505050505050505050505050565b610133546040516370a0823160e01b815260009182916001600160a01b03909116906370a08231906127269030906004016145af565b602060405180830381865afa158015612743573d6000803e3d6000fd5b505050506040513d601f19601f820116820180604052508101906127679190614c5b565b905080156127d95761013360009054906101000a90046001600160a01b03166001600160a01b0316633d18b9126040518163ffffffff1660e01b8152600401600060405180830381600087803b1580156127c057600080fd5b505af11580156127d4573d6000803e3d6000fd5b505050505b610130546040516370a0823160e01b815260009182916001600160a01b03909116906370a082319061280f9030906004016145af565b602060405180830381865afa15801561282c573d6000803e3d6000fd5b505050506040513d601f19601f820116820180604052508101906128509190614c5b565b905080156128c457610132546101305461013d54600092612883926001600160a01b0391821692908216911684866139ee565b905080156128c257610132546101305461013d546128b5926001600160a01b0390811692811691166000868130613ebd565b6128bf9084614f8f565b92505b505b61012f546040516370a0823160e01b81526000916001600160a01b0316906370a08231906128f69030906004016145af565b602060405180830381865afa158015612913573d6000803e3d6000fd5b505050506040513d601f19601f820116820180604052508101906129379190614c5b565b11156129cf576101325461012f5461012e546040516370a0823160e01b81526129cd936001600160a01b0390811693811692169060009083906370a08231906129849030906004016145af565b602060405180830381865afa1580156129a1573d6000803e3d6000fd5b505050506040513d601f19601f820116820180604052508101906129c59190614c5b565b600030613ebd565b505b61012e546040516370a0823160e01b81526000916001600160a01b0316906370a0823190612a019030906004016145af565b602060405180830381865afa158015612a1e573d6000803e3d6000fd5b505050506040513d601f19601f82011682018060405250810190612a429190614c5b565b1115612a9c576101325461012e5461013d546040516370a0823160e01b8152612a8f936001600160a01b0390811693811692169060019083906370a08231906129849030906004016145af565b612a999083614f8f565b91505b8115612b1a5761013d5460405163a9059cbb60e01b81526001600160a01b039091169063a9059cbb90612ad59088908690600401614efe565b6020604051808303816000875af1158015612af4573d6000803e3d6000fd5b505050506040513d601f19601f82011682018060405250810190612b189190614ca2565b505b509392505050565b61013d546000906001600160a01b03848116911614612b535760405162461bcd60e51b815260040161081c9061524e565b610133546040516370a0823160e01b81526000916001600160a01b0316906370a0823190612b859030906004016145af565b602060405180830381865afa158015612ba2573d6000803e3d6000fd5b505050506040513d601f19601f82011682018060405250810190612bc69190614c5b565b61013354604051632e1a7d4d60e01b81529192506001600160a01b031690632e1a7d4d90612bf890849060040161461c565b600060405180830381600087803b158015612c1257600080fd5b505af1158015612c26573d6000803e3d6000fd5b50506101325461012f5461012e5461013154604080516309047bdd60e01b81529051600097508796506001600160a01b0395861695634386e63c9581169481169316916309047bdd9160048083019260209291908290030181865afa158015612c93573d6000803e3d6000fd5b505050506040513d601f19601f82011682018060405250810190612cb79190614ca2565b876040518563ffffffff1660e01b8152600401612cd79493929190614f27565b6040805180830381865afa158015612cf3573d6000803e3d6000fd5b505050506040513d601f19601f82011682018060405250810190612d179190614f5c565b610131546101325460405163095ea7b360e01b81529395509193506001600160a01b039081169263095ea7b392612d549216908790600401614efe565b6020604051808303816000875af1158015612d73573d6000803e3d6000fd5b505050506040513d601f19601f82011682018060405250810190612d979190614ca2565b506101325461012f5461012e5461013154604080516309047bdd60e01b815290516001600160a01b0395861695630dede6c49581169481169316916309047bdd9160048083019260209291908290030181865afa158015612dfc573d6000803e3d6000fd5b505050506040513d601f19601f82011682018060405250810190612e209190614ca2565b8760008030426040518963ffffffff1660e01b8152600401612e4998979695949392919061525e565b60408051808303816000875af1158015612e67573d6000803e3d6000fd5b505050506040513d601f19601f82011682018060405250810190612e8b9190614f5c565b505061012f546040516370a0823160e01b81526000916001600160a01b0316906370a0823190612ebf9030906004016145af565b602060405180830381865afa158015612edc573d6000803e3d6000fd5b505050506040513d601f19601f82011682018060405250810190612f009190614c5b565b6101325461012f5461012e5461013154604080516309047bdd60e01b81529051959650600095612f68956001600160a01b039081169581169481169316916309047bdd9160048083019260209291908290030181865afa15801561234f573d6000803e3d6000fd5b90508015612fd4576101325461012f5461012e5461013154604080516309047bdd60e01b81529051612fd2956001600160a01b039081169581169481169316916309047bdd9160048083019260209291908290030181865afa15801561203e573d6000803e3d6000fd5b505b61012e546040516370a0823160e01b81526000916001600160a01b0316906370a08231906130069030906004016145af565b602060405180830381865afa158015613023573d6000803e3d6000fd5b505050506040513d601f19601f820116820180604052508101906130479190614c5b565b6101325461012e5461013d54929350600092613075926001600160a01b0390811692811691166001866139ee565b90506130b16040518060400160405280601781526020017673656c6c207573646320746f207573647420257320257360481b81525083836140f1565b801561315d576101395461013b546101375461013c546000936130e6938793919290916001600160a01b03908116911661399e565b90506131226040518060400160405280601781526020017673656c6c207573646320746f207573647420257320257360481b81525084836140f1565b6101355461012e5461013d546101345460fc5461315a946001600160a01b039081169481169381169216908890611ec0908890611d00565b50505b61013d546040516370a0823160e01b81526001600160a01b03909116906370a082319061318e9030906004016145af565b602060405180830381865afa1580156131ab573d6000803e3d6000fd5b505050506040513d601f19601f820116820180604052508101906131cf9190614c5b565b9a9950505050505050505050565b60008061013160009054906101000a90046001600160a01b03166001600160a01b03166318160ddd6040518163ffffffff1660e01b8152600401602060405180830381865afa158015613234573d6000803e3d6000fd5b505050506040513d601f19601f820116820180604052508101906132589190614c5b565b905060008061013160009054906101000a90046001600160a01b03166001600160a01b0316630902f1ac6040518163ffffffff1660e01b8152600401606060405180830381865afa1580156132b1573d6000803e3d6000fd5b505050506040513d601f19601f820116820180604052508101906132d591906150ea565b506101325461012f5461012e5461013154604080516309047bdd60e01b81529051969850949650600095613389956001600160a01b03958616959485169493841693909216916309047bdd9160048083019260209291908290030181865afa158015613345573d6000803e3d6000fd5b505050506040513d601f19601f820116820180604052508101906133699190614ca2565b6133798c6509184e72a000614f8f565b89888a61013a5461013954614138565b610133546040516370a0823160e01b81529192506000916001600160a01b03909116906370a08231906133c09030906004016145af565b602060405180830381865afa1580156133dd573d6000803e3d6000fd5b505050506040513d601f19601f820116820180604052508101906134019190614c5b565b90508082111561340f578091505b61013354604051632e1a7d4d60e01b81526001600160a01b0390911690632e1a7d4d9061344090859060040161461c565b600060405180830381600087803b15801561345a57600080fd5b505af115801561346e573d6000803e3d6000fd5b50506101325461012e5461012f5461013154604080516309047bdd60e01b81529051600097508796506001600160a01b0395861695634386e63c9581169481169316916309047bdd9160048083019260209291908290030181865afa1580156134db573d6000803e3d6000fd5b505050506040513d601f19601f820116820180604052508101906134ff9190614ca2565b886040518563ffffffff1660e01b815260040161351f9493929190614f27565b6040805180830381865afa15801561353b573d6000803e3d6000fd5b505050506040513d601f19601f8201168201806040525081019061355f9190614f5c565b610131546101325460405163095ea7b360e01b81529395509193506001600160a01b039081169263095ea7b39261359c9216908890600401614efe565b6020604051808303816000875af11580156135bb573d6000803e3d6000fd5b505050506040513d601f19601f820116820180604052508101906135df9190614ca2565b506101325461012e5461012f5461013154604080516309047bdd60e01b815290516001600160a01b0395861695630dede6c49581169481169316916309047bdd9160048083019260209291908290030181865afa158015613644573d6000803e3d6000fd5b505050506040513d601f19601f820116820180604052508101906136689190614ca2565b886136758860fc54611d00565b6136818860fc54611d00565b30426040518963ffffffff1660e01b81526004016136a69897969594939291906152d5565b60408051808303816000875af11580156136c4573d6000803e3d6000fd5b505050506040513d601f19601f820116820180604052508101906136e89190614f5c565b505061012f546040516370a0823160e01b81526000916001600160a01b0316906370a082319061371c9030906004016145af565b602060405180830381865afa158015613739573d6000803e3d6000fd5b505050506040513d601f19601f8201168201806040525081019061375d9190614c5b565b6101325461012f5461012e5461013154604080516309047bdd60e01b815290519596506000956137c5956001600160a01b039081169581169481169316916309047bdd9160048083019260209291908290030181865afa15801561234f573d6000803e3d6000fd5b90508015613867576101325461012f5461012e5461013154604080516309047bdd60e01b81529051613865956001600160a01b039081169581169481169316916309047bdd9160048083019260209291908290030181865afa15801561382f573d6000803e3d6000fd5b505050506040513d601f19601f820116820180604052508101906138539190614ca2565b8661385f8760b4611d00565b30613ebd565b505b61012e546040516370a0823160e01b81526000916001600160a01b0316906370a08231906138999030906004016145af565b602060405180830381865afa1580156138b6573d6000803e3d6000fd5b505050506040513d601f19601f820116820180604052508101906138da9190614c5b565b6101355461012e5461013d546101345460fc54949550613919946001600160a01b03948516949384169392831692909116908690611ec0908290611d00565b5061013d546040516370a0823160e01b81526001600160a01b03909116906370a082319061394b9030906004016145af565b602060405180830381865afa158015613968573d6000803e3d6000fd5b505050506040513d601f19601f8201168201806040525081019061398c9190614c5b565b9e9d5050505050505050505050505050565b6000806139aa846141f1565b905060006139b7846141f1565b90506139c38188615066565b826139ce888b615066565b6139d89190615066565b6139e2919061509b565b98975050505050505050565b604080516001808252818301909252600091829190816020015b6040805160608101825260008082526020808301829052928201528252600019909201910181613a085790505090508581600081518110613a4b57613a4b615325565b6020026020010151600001906001600160a01b031690816001600160a01b0316815250508481600081518110613a8357613a83615325565b6020026020010151602001906001600160a01b031690816001600160a01b0316815250508381600081518110613abb57613abb615325565b6020908102919091010151901515604091820152516326207f2d60e21b81526001600160a01b03881690639881fcb490613afb90869085906004016153cf565b600060405180830381865afa158015613b18573d6000803e3d6000fd5b505050506040513d6000823e601f3d908101601f19168201604052613b409190810190615492565b600181518110613b5257613b52615325565b60200260200101519150505b95945050505050565b613b718282610b09565b61082f57613b7e816142c6565b613b898360206142d8565b604051602001613b9a929190615513565b60408051601f198184030181529082905262461bcd60e51b825261081c9160040161559d565b6001600160a01b0381163b613be75760405162461bcd60e51b815260040161081c906155f8565b60008051602061595683398151915280546001600160a01b0319166001600160a01b0392909216919091179055565b613c1f83614444565b600082511180613c2c5750805b156107ef57613c3b8383614484565b50505050565b600054610100900460ff16613c685760405162461bcd60e51b815260040161081c90615650565b565b60405163095ea7b360e01b81526000906001600160a01b0388169063095ea7b390613c9b908b908890600401614efe565b6020604051808303816000875af1158015613cba573d6000803e3d6000fd5b505050506040513d601f19601f82011682018060405250810190613cde9190614ca2565b506040805160028082526060820183526000926020830190803683370190505090508781600081518110613d1457613d14615325565b60200260200101906001600160a01b031690816001600160a01b0316815250508681600181518110613d4857613d48615325565b6001600160a01b0392909216602092830291909101909101526040805160018082528183019092526000918160200160208202803683370190505090508681600081518110613d9957613d99615325565b6001600160a01b03928316602091820292909201015260405163351041e960e21b8152908b169063d44107a490613dde90859085908b908b908b9042906004016156b2565b6020604051808303816000875af1158015613dfd573d6000803e3d6000fd5b505050506040513d601f19601f82011682018060405250810190613e219190614c5b565b925050505b979650505050505050565b60008383613e3f8488615066565b613e49919061509b565b613e539190614f8f565b613e5d8588615066565b613e67919061509b565b90506000613e788b8b8b8b866139ee565b90508482613e868389615066565b613e90919061509b565b613e9a9190614f8f565b613ea48689615066565b613eae919061509b565b9b9a5050505050505050505050565b60405163095ea7b360e01b81526000906001600160a01b0388169063095ea7b390613eee908b908890600401614efe565b6020604051808303816000875af1158015613f0d573d6000803e3d6000fd5b505050506040513d601f19601f82011682018060405250810190613f319190614ca2565b50613f726040518060400160405280601881526020017f7468656e61207377617020696e3a202573206f7574202573000000000000000081525085856140f1565b604080516001808252818301909252600091816020015b6040805160608101825260008082526020808301829052928201528252600019909201910181613f895790505090508781600081518110613fcc57613fcc615325565b6020026020010151600001906001600160a01b031690816001600160a01b031681525050868160008151811061400457614004615325565b6020026020010151602001906001600160a01b031690816001600160a01b031681525050858160008151811061403c5761403c615325565b602090810291909101015190151560409182015251631e82ecdb60e31b81526001600160a01b038a169063f41766d890614082908890889086908990429060040161570d565b6000604051808303816000875af11580156140a1573d6000803e3d6000fd5b505050506040513d6000823e601f3d908101601f191682016040526140c99190810190615492565b6001815181106140db576140db615325565b6020026020010151915050979650505050505050565b6107ef83838360405160240161410993929190615760565b60408051601f198184030181529190526020810180516001600160e01b031663ca47c4eb60e01b179052614530565b60006141448385615066565b61414e8387615066565b6141589190614f8f565b826141638989615066565b61416d9190615066565b614177919061509b565b90506000866141868387615066565b614190919061509b565b905060006141a18d8c8e8d866139ee565b90506141ad8187615066565b6141b78389615066565b6141c19190614f8f565b826141cc8b8b615066565b6141d69190615066565b6141e0919061509b565b9d9c50505050505050505050505050565b6000806000806000856001600160a01b031663feaf968c6040518163ffffffff1660e01b815260040160a060405180830381865afa158015614237573d6000803e3d6000fd5b505050506040513d601f19601f8201168201806040525081019061425b919061579d565b9450945050935093508369ffffffffffffffffffff168169ffffffffffffffffffff16101561429c5760405162461bcd60e51b815260040161081c90615834565b600082116142bc5760405162461bcd60e51b815260040161081c9061586d565b5090949350505050565b60606107b36001600160a01b03831660145b606060006142e7836002615066565b6142f2906002614f8f565b67ffffffffffffffff81111561430a5761430a61471e565b6040519080825280601f01601f191660200182016040528015614334576020820181803683370190505b509050600360fc1b8160008151811061434f5761434f615325565b60200101906001600160f81b031916908160001a905350600f60fb1b8160018151811061437e5761437e615325565b60200101906001600160f81b031916908160001a90535060006143a2846002615066565b6143ad906001614f8f565b90505b6001811115614425576f181899199a1a9b1b9c1cb0b131b232b360811b85600f16601081106143e1576143e1615325565b1a60f81b8282815181106143f7576143f7615325565b60200101906001600160f81b031916908160001a90535060049490941c9361441e8161587d565b90506143b0565b508315611d235760405162461bcd60e51b815260040161081c906158c6565b61444d81613bc0565b6040516001600160a01b038216907fbc7cd75a20ee27fd9adebab32041f755214dbc6bffa90cc0225b39da2e5c2d3b90600090a250565b60606001600160a01b0383163b6144ad5760405162461bcd60e51b815260040161081c90615919565b600080846001600160a01b0316846040516144c89190615929565b600060405180830381855af49150503d8060008114614503576040519150601f19603f3d011682016040523d82523d6000602084013e614508565b606091505b5091509150613b5e828260405180606001604052806027815260200161597660279139614551565b80516a636f6e736f6c652e6c6f67602083016000808483855afa5050505050565b60608315614560575081611d23565b611d2383838151156145755781518083602001fd5b8060405162461bcd60e51b815260040161081c919061559d565b60006001600160a01b0382166107b3565b6145a98161458f565b82525050565b602081016107b382846145a0565b6001600160e01b031981165b811461090f57600080fd5b80356107b3816145bd565b6000602082840312156145f4576145f4600080fd5b60006115cc84846145d4565b8015156145a9565b602081016107b38284614600565b806145a9565b602081016107b38284614616565b806145c9565b80356107b38161462a565b60006020828403121561465057614650600080fd5b60006115cc8484614630565b6145c98161458f565b80356107b38161465c565b6000806040838503121561468657614686600080fd5b60006146928585614630565b92505060206146a385828601614665565b9150509250929050565b60006107b36001600160a01b0383166146c4565b90565b6001600160a01b031690565b60006107b3826146ad565b60006107b3826146d0565b6145a9816146db565b602081016107b382846146e6565b60006020828403121561471257614712600080fd5b60006115cc8484614665565b634e487b7160e01b600052604160045260246000fd5b601f19601f830116810181811067ffffffffffffffff8211171561475a5761475a61471e565b6040525050565b600061476c60405190565b905061140c8282614734565b600067ffffffffffffffff8211156147925761479261471e565b601f19601f83011660200192915050565b82818337506000910152565b60006147c26147bd84614778565b614761565b9050828152602081018484840111156147dd576147dd600080fd5b612b1a8482856147a3565b600082601f8301126147fc576147fc600080fd5b81356115cc8482602086016147af565b6000806040838503121561482257614822600080fd5b600061482e8585614665565b925050602083013567ffffffffffffffff81111561484e5761484e600080fd5b6146a3858286016147e8565b6000806040838503121561487057614870600080fd5b600061487c8585614665565b92505060206146a385828601614630565b6000806000606084860312156148a5576148a5600080fd5b60006148b18686614630565b93505060206148c286828701614630565b92505060406148d386828701614630565b9150509250925092565b60006101a082840312156148f3576148f3600080fd5b50919050565b60006101a0828403121561490f5761490f600080fd5b60006115cc84846148dd565b8015156145c9565b80356107b38161491b565b6000806000806080858703121561494757614947600080fd5b60006149538787614665565b945050602061496487828801614630565b935050604061497587828801614665565b925050606061498687828801614923565b91505092959194509250565b602f81526000602082017f416363657373436f6e74726f6c3a2063616e206f6e6c792072656e6f756e636581526e103937b632b9903337b91039b2b63360891b602082015291505b5060400190565b602080825281016107b381614992565b602c81526000602082017f46756e6374696f6e206d7573742062652063616c6c6564207468726f7567682081526b19195b1959d85d1958d85b1b60a21b602082015291506149da565b602080825281016107b3816149f1565b602c81526000602082017f46756e6374696f6e206d7573742062652063616c6c6564207468726f7567682081526b6163746976652070726f787960a01b602082015291506149da565b602080825281016107b381614a4a565b603881526000602082017f555550535570677261646561626c653a206d757374206e6f742062652063616c81527f6c6564207468726f7567682064656c656761746563616c6c0000000000000000602082015291506149da565b602080825281016107b381614aa3565b602e81526000602082017f496e697469616c697a61626c653a20636f6e747261637420697320616c72656181526d191e481a5b9a5d1a585b1a5e995960921b602082015291506149da565b602080825281016107b381614b0d565b600060ff82166107b3565b6145a981614b68565b602081016107b38284614b73565b60148152600060208201735265737472696374656420746f2061646d696e7360601b815291505b5060200190565b602080825281016107b381614b8a565b601881526000602082017f5a65726f2061646472657373206e6f7420616c6c6f776564000000000000000081529150614bb1565b602080825281016107b381614bc8565b601f81526000602082017f5265737472696374656420746f20504f5254464f4c494f5f4d414e414745520081529150614bb1565b602080825281016107b381614c0c565b80516107b38161462a565b600060208284031215614c7057614c70600080fd5b60006115cc8484614c50565b60408101614c8a8285614616565b611d2360208301846145a0565b80516107b38161491b565b600060208284031215614cb757614cb7600080fd5b60006115cc8484614c97565b602281526000602082017f5265737472696374656420746f20504f5254464f4c494f5f4147454e545f524f8152614c4560f01b602082015291506149da565b602080825281016107b381614cc3565b60608101614d208286614616565b614d2d6020830185614616565b6115cc6040830184614616565b60ff81166145c9565b80516107b381614d3a565b600060208284031215614d6357614d63600080fd5b60006115cc8484614d43565b634e487b7160e01b600052601160045260246000fd5b80825b6001851115614dc457808604811115614da357614da3614d6f565b6001851615614db157908102905b8002614dbd8560011c90565b9450614d88565b94509492505050565b600082614ddc57506001611d23565b81614de957506000611d23565b8160018114614dff5760028114614e0957614e36565b6001915050611d23565b60ff841115614e1a57614e1a614d6f565b8360020a915084821115614e3057614e30614d6f565b50611d23565b5060208310610133831016604e8410600b8410161715614e69575081810a83811115614e6457614e64614d6f565b611d23565b614e768484846001614d85565b92509050818404811115614e8c57614e8c614d6f565b0292915050565b600060ff83169250611d236000198484614dcd565b602981526000602082017f52657475726e65642076616c7565206c657373207468616e2072657175657374815268195908185b5bdd5b9d60ba1b602082015291506149da565b602080825281016107b381614ea8565b60408101614f0c82856145a0565b611d236020830184614616565b60408101614f0c8285614616565b60808101614f3582876145a0565b614f4260208301866145a0565b614f4f6040830185614600565b613b5e6060830184614616565b60008060408385031215614f7257614f72600080fd5b6000614f7e8585614c50565b92505060206146a385828601614c50565b808201808211156107b3576107b3614d6f565b602e81526000602082017f45524331393637557067726164653a206e657720696d706c656d656e7461746981526d6f6e206973206e6f74205555505360901b602082015291506149da565b602080825281016107b381614fa2565b602981526000602082017f45524331393637557067726164653a20756e737570706f727465642070726f788152681a58589b195555525160ba1b602082015291506149da565b602080825281016107b381614ffd565b818103818111156107b3576107b3614d6f565b81810280821583820485141761507e5761507e614d6f565b5092915050565b634e487b7160e01b600052601260045260246000fd5b6000826150aa576150aa615085565b500490565b60148152600060208201732737b716b1b7b6b830ba34b13632903a37b5b2b760611b81529150614bb1565b602080825281016107b3816150af565b60008060006060848603121561510257615102600080fd5b600061510e8686614c50565b935050602061511f86828701614c50565b92505060406148d386828701614c50565b610120810161513f828c6145a0565b61514c602083018b6145a0565b615159604083018a614600565b6151666060830189614616565b6151736080830188614616565b61518060a0830187614616565b61518d60c0830186614616565b61519a60e08301856145a0565b6131cf610100830184614616565b60006107b36146c18381565b6145a9816151a8565b61012081016151cc828c6145a0565b6151d9602083018b6145a0565b6151e6604083018a614600565b6151f36060830189614616565b6152006080830188614616565b61520d60a08301876151b4565b61518d60c08301866151b4565b601981526000602082017f536f6d6520746f6b656e206e6f7420636f6d70617469626c650000000000000081529150614bb1565b602080825281016107b38161521a565b610100810161526d828b6145a0565b61527a602083018a6145a0565b6152876040830189614600565b6152946060830188614616565b6152a160808301876151b4565b6152ae60a08301866151b4565b6152bb60c08301856145a0565b6152c860e0830184614616565b9998505050505050505050565b61010081016152e4828b6145a0565b6152f1602083018a6145a0565b6152fe6040830189614600565b61530b6060830188614616565b6153186080830187614616565b6152ae60a0830186614616565b634e487b7160e01b600052603260045260246000fd5b8051606083019061534c84826145a0565b50602082015161535f60208501826145a0565b506040820151613c3b6040850182614600565b600061537e838361533b565b505060600190565b6000615390825190565b80845260209384019383018060005b838110156153c45781516153b38882615372565b97506020830192505060010161539f565b509495945050505050565b604081016153dd8285614616565b81810360208301526115cc8184615386565b600067ffffffffffffffff8211156154095761540961471e565b5060209081020190565b60006154216147bd846153ef565b8381529050602080820190840283018581111561544057615440600080fd5b835b8181101561546457806154558882614c50565b84525060209283019201615442565b5050509392505050565b600082601f83011261548257615482600080fd5b81516115cc848260208601615413565b6000602082840312156154a7576154a7600080fd5b815167ffffffffffffffff8111156154c1576154c1600080fd5b6115cc8482850161546e565b60005b838110156154e85781810151838201526020016154d0565b50506000910152565b60006154fb825190565b6155098185602086016154cd565b9290920192915050565b7f416363657373436f6e74726f6c3a206163636f756e74200000000000000000008152601701600061554582856154f1565b7001034b99036b4b9b9b4b733903937b6329607d1b815260110191506115cc82846154f1565b6000615575825190565b80845260208401935061558c8185602086016154cd565b601f01601f19169290920192915050565b60208082528101611d23818461556b565b602d81526000602082017f455243313936373a206e657720696d706c656d656e746174696f6e206973206e81526c1bdd08184818dbdb9d1c9858dd609a1b602082015291506149da565b602080825281016107b3816155ae565b602b81526000602082017f496e697469616c697a61626c653a20636f6e7472616374206973206e6f74206981526a6e697469616c697a696e6760a81b602082015291506149da565b602080825281016107b381615608565b600061566c83836145a0565b505060200190565b600061567e825190565b80845260209384019383018060005b838110156153c45781516156a18882615660565b97506020830192505060010161568d565b60c080825281016156c38189615674565b905081810360208301526156d78188615674565b90506156e66040830187614616565b6156f36060830186614616565b61570060808301856145a0565b613e2660a0830184614616565b60a0810161571b8288614616565b6157286020830187614616565b818103604083015261573a8186615386565b905061574960608301856145a0565b6157566080830184614616565b9695505050505050565b60608082528101615771818661556b565b9050614d2d6020830185614616565b69ffffffffffffffffffff81166145c9565b80516107b381615780565b600080600080600060a086880312156157b8576157b8600080fd5b60006157c48888615792565b95505060206157d588828901614c50565b94505060406157e688828901614c50565b93505060606157f788828901614c50565b925050608061580888828901615792565b9150509295509295909350565b60088152600060208201674f6c64206461746160c01b81529150614bb1565b602080825281016107b381615815565b6012815260006020820171526f756e64206e6f7420636f6d706c65746560701b81529150614bb1565b602080825281016107b381615844565b60008161588c5761588c614d6f565b506000190190565b60208082527f537472696e67733a20686578206c656e67746820696e73756666696369656e7491019081526000614bb1565b602080825281016107b381615894565b602681526000602082017f416464726573733a2064656c65676174652063616c6c20746f206e6f6e2d636f8152651b9d1c9858dd60d21b602082015291506149da565b602080825281016107b3816158d6565b6000611d2382846154f156fe90c2aa7471c04182221f68e80c07ab1e5946e4c63f8693e14ca40385d529f051360894a13ba1a3210667c828492db98dca3e2076cc3735a920a3ca505d382bbc416464726573733a206c6f772d6c6576656c2064656c65676174652063616c6c206661696c6564a264697066735822122086936737abdb5e436572591ff9c719fed9858e500a40064f14b586c54b26571f64736f6c63430008110033",
  "implementation": "0x40B176165B5d37eeFcf6d866006683A5eB2d82AA",
  "devdoc": {
    "kind": "dev",
    "methods": {
      "constructor": {
        "custom:oz-upgrades-unsafe-allow": "constructor"
      },
      "getRoleAdmin(bytes32)": {
        "details": "Returns the admin role that controls `role`. See {grantRole} and {revokeRole}. To change a role's admin, use {_setRoleAdmin}."
      },
      "grantRole(bytes32,address)": {
        "details": "Grants `role` to `account`. If `account` had not been already granted `role`, emits a {RoleGranted} event. Requirements: - the caller must have ``role``'s admin role. May emit a {RoleGranted} event."
      },
      "hasRole(bytes32,address)": {
        "details": "Returns `true` if `account` has been granted `role`."
      },
      "proxiableUUID()": {
        "details": "Implementation of the ERC1822 {proxiableUUID} function. This returns the storage slot used by the implementation. It is used to validate the implementation's compatibility when performing an upgrade. IMPORTANT: A proxy pointing at a proxiable contract should not be considered proxiable itself, because this risks bricking a proxy that upgrades to it, by delegating to itself until out of gas. Thus it is critical that this function revert if invoked through a proxy. This is guaranteed by the `notDelegated` modifier."
      },
      "renounceRole(bytes32,address)": {
        "details": "Revokes `role` from the calling account. Roles are often managed via {grantRole} and {revokeRole}: this function's purpose is to provide a mechanism for accounts to lose their privileges if they are compromised (such as when a trusted device is misplaced). If the calling account had been revoked `role`, emits a {RoleRevoked} event. Requirements: - the caller must be `account`. May emit a {RoleRevoked} event."
      },
      "revokeRole(bytes32,address)": {
        "details": "Revokes `role` from `account`. If `account` had been granted `role`, emits a {RoleRevoked} event. Requirements: - the caller must have ``role``'s admin role. May emit a {RoleRevoked} event."
      },
      "supportsInterface(bytes4)": {
        "details": "See {IERC165-supportsInterface}."
      },
      "upgradeTo(address)": {
        "details": "Upgrade the implementation of the proxy to `newImplementation`. Calls {_authorizeUpgrade}. Emits an {Upgraded} event."
      },
      "upgradeToAndCall(address,bytes)": {
        "details": "Upgrade the implementation of the proxy to `newImplementation`, and subsequently execute the function call encoded in `data`. Calls {_authorizeUpgrade}. Emits an {Upgraded} event."
      }
    },
    "version": 1
  },
  "userdoc": {
    "kind": "user",
    "methods": {},
    "version": 1
  },
  "storageLayout": {
    "storage": [
      {
        "astId": 804,
        "contract": "contracts/strategies/StrategyThenawUsdrUsdc.sol:StrategyThenawUsdrUsdc",
        "label": "_initialized",
        "offset": 0,
        "slot": "0",
        "type": "t_uint8"
      },
      {
        "astId": 807,
        "contract": "contracts/strategies/StrategyThenawUsdrUsdc.sol:StrategyThenawUsdrUsdc",
        "label": "_initializing",
        "offset": 1,
        "slot": "0",
        "type": "t_bool"
      },
      {
        "astId": 1427,
        "contract": "contracts/strategies/StrategyThenawUsdrUsdc.sol:StrategyThenawUsdrUsdc",
        "label": "__gap",
        "offset": 0,
        "slot": "1",
        "type": "t_array(t_uint256)50_storage"
      },
      {
        "astId": 1706,
        "contract": "contracts/strategies/StrategyThenawUsdrUsdc.sol:StrategyThenawUsdrUsdc",
        "label": "__gap",
        "offset": 0,
        "slot": "51",
        "type": "t_array(t_uint256)50_storage"
      },
      {
        "astId": 39,
        "contract": "contracts/strategies/StrategyThenawUsdrUsdc.sol:StrategyThenawUsdrUsdc",
        "label": "_roles",
        "offset": 0,
        "slot": "101",
        "type": "t_mapping(t_bytes32,t_struct(RoleData)34_storage)"
      },
      {
        "astId": 334,
        "contract": "contracts/strategies/StrategyThenawUsdrUsdc.sol:StrategyThenawUsdrUsdc",
        "label": "__gap",
        "offset": 0,
        "slot": "102",
        "type": "t_array(t_uint256)49_storage"
      },
      {
        "astId": 786,
        "contract": "contracts/strategies/StrategyThenawUsdrUsdc.sol:StrategyThenawUsdrUsdc",
        "label": "__gap",
        "offset": 0,
        "slot": "151",
        "type": "t_array(t_uint256)50_storage"
      },
      {
        "astId": 1101,
        "contract": "contracts/strategies/StrategyThenawUsdrUsdc.sol:StrategyThenawUsdrUsdc",
        "label": "__gap",
        "offset": 0,
        "slot": "201",
        "type": "t_array(t_uint256)50_storage"
      },
      {
        "astId": 2717,
        "contract": "contracts/strategies/StrategyThenawUsdrUsdc.sol:StrategyThenawUsdrUsdc",
        "label": "portfolioManager",
        "offset": 0,
        "slot": "251",
        "type": "t_address"
      },
      {
        "astId": 2719,
        "contract": "contracts/strategies/StrategyThenawUsdrUsdc.sol:StrategyThenawUsdrUsdc",
        "label": "swapSlippageBP",
        "offset": 0,
        "slot": "252",
        "type": "t_uint256"
      },
      {
        "astId": 2721,
        "contract": "contracts/strategies/StrategyThenawUsdrUsdc.sol:StrategyThenawUsdrUsdc",
        "label": "navSlippageBP",
        "offset": 0,
        "slot": "253",
        "type": "t_uint256"
      },
      {
        "astId": 2723,
        "contract": "contracts/strategies/StrategyThenawUsdrUsdc.sol:StrategyThenawUsdrUsdc",
        "label": "stakeSlippageBP",
        "offset": 0,
        "slot": "254",
        "type": "t_uint256"
      },
      {
        "astId": 3090,
        "contract": "contracts/strategies/StrategyThenawUsdrUsdc.sol:StrategyThenawUsdrUsdc",
        "label": "__gap",
        "offset": 0,
        "slot": "255",
        "type": "t_array(t_uint256)46_storage"
      },
      {
        "astId": 6037,
        "contract": "contracts/strategies/StrategyThenawUsdrUsdc.sol:StrategyThenawUsdrUsdc",
        "label": "busd",
        "offset": 0,
        "slot": "301",
        "type": "t_contract(IERC20)2662"
      },
      {
        "astId": 6040,
        "contract": "contracts/strategies/StrategyThenawUsdrUsdc.sol:StrategyThenawUsdrUsdc",
        "label": "usdc",
        "offset": 0,
        "slot": "302",
        "type": "t_contract(IERC20)2662"
      },
      {
        "astId": 6043,
        "contract": "contracts/strategies/StrategyThenawUsdrUsdc.sol:StrategyThenawUsdrUsdc",
        "label": "wUsdr",
        "offset": 0,
        "slot": "303",
        "type": "t_contract(IERC20)2662"
      },
      {
        "astId": 6046,
        "contract": "contracts/strategies/StrategyThenawUsdrUsdc.sol:StrategyThenawUsdrUsdc",
        "label": "the",
        "offset": 0,
        "slot": "304",
        "type": "t_contract(IERC20)2662"
      },
      {
        "astId": 6049,
        "contract": "contracts/strategies/StrategyThenawUsdrUsdc.sol:StrategyThenawUsdrUsdc",
        "label": "pair",
        "offset": 0,
        "slot": "305",
        "type": "t_contract(IPair)3686"
      },
      {
        "astId": 6052,
        "contract": "contracts/strategies/StrategyThenawUsdrUsdc.sol:StrategyThenawUsdrUsdc",
        "label": "router",
        "offset": 0,
        "slot": "306",
        "type": "t_contract(IRouter)4036"
      },
      {
        "astId": 6055,
        "contract": "contracts/strategies/StrategyThenawUsdrUsdc.sol:StrategyThenawUsdrUsdc",
        "label": "gauge",
        "offset": 0,
        "slot": "307",
        "type": "t_contract(IGaugeV2)4223"
      },
      {
        "astId": 6057,
        "contract": "contracts/strategies/StrategyThenawUsdrUsdc.sol:StrategyThenawUsdrUsdc",
        "label": "wombatPool",
        "offset": 0,
        "slot": "308",
        "type": "t_address"
      },
      {
        "astId": 6060,
        "contract": "contracts/strategies/StrategyThenawUsdrUsdc.sol:StrategyThenawUsdrUsdc",
        "label": "wombatRouter",
        "offset": 0,
        "slot": "309",
        "type": "t_contract(IWombatRouter)5231"
      },
      {
        "astId": 6063,
        "contract": "contracts/strategies/StrategyThenawUsdrUsdc.sol:StrategyThenawUsdrUsdc",
        "label": "oracleBusd",
        "offset": 0,
        "slot": "310",
        "type": "t_contract(IPriceFeed)3166"
      },
      {
        "astId": 6066,
        "contract": "contracts/strategies/StrategyThenawUsdrUsdc.sol:StrategyThenawUsdrUsdc",
        "label": "oracleUsdc",
        "offset": 0,
        "slot": "311",
        "type": "t_contract(IPriceFeed)3166"
      },
      {
        "astId": 6068,
        "contract": "contracts/strategies/StrategyThenawUsdrUsdc.sol:StrategyThenawUsdrUsdc",
        "label": "busdDm",
        "offset": 0,
        "slot": "312",
        "type": "t_uint256"
      },
      {
        "astId": 6070,
        "contract": "contracts/strategies/StrategyThenawUsdrUsdc.sol:StrategyThenawUsdrUsdc",
        "label": "usdcDm",
        "offset": 0,
        "slot": "313",
        "type": "t_uint256"
      },
      {
        "astId": 6072,
        "contract": "contracts/strategies/StrategyThenawUsdrUsdc.sol:StrategyThenawUsdrUsdc",
        "label": "wUsdrDm",
        "offset": 0,
        "slot": "314",
        "type": "t_uint256"
      },
      {
        "astId": 6074,
        "contract": "contracts/strategies/StrategyThenawUsdrUsdc.sol:StrategyThenawUsdrUsdc",
        "label": "usdtDm",
        "offset": 0,
        "slot": "315",
        "type": "t_uint256"
      },
      {
        "astId": 6077,
        "contract": "contracts/strategies/StrategyThenawUsdrUsdc.sol:StrategyThenawUsdrUsdc",
        "label": "oracleUsdt",
        "offset": 0,
        "slot": "316",
        "type": "t_contract(IPriceFeed)3166"
      },
      {
        "astId": 6080,
        "contract": "contracts/strategies/StrategyThenawUsdrUsdc.sol:StrategyThenawUsdrUsdc",
        "label": "usdt",
        "offset": 0,
        "slot": "317",
        "type": "t_contract(IERC20)2662"
      }
    ],
    "types": {
      "t_address": {
        "encoding": "inplace",
        "label": "address",
        "numberOfBytes": "20"
      },
      "t_array(t_uint256)46_storage": {
        "base": "t_uint256",
        "encoding": "inplace",
        "label": "uint256[46]",
        "numberOfBytes": "1472"
      },
      "t_array(t_uint256)49_storage": {
        "base": "t_uint256",
        "encoding": "inplace",
        "label": "uint256[49]",
        "numberOfBytes": "1568"
      },
      "t_array(t_uint256)50_storage": {
        "base": "t_uint256",
        "encoding": "inplace",
        "label": "uint256[50]",
        "numberOfBytes": "1600"
      },
      "t_bool": {
        "encoding": "inplace",
        "label": "bool",
        "numberOfBytes": "1"
      },
      "t_bytes32": {
        "encoding": "inplace",
        "label": "bytes32",
        "numberOfBytes": "32"
      },
      "t_contract(IERC20)2662": {
        "encoding": "inplace",
        "label": "contract IERC20",
        "numberOfBytes": "20"
      },
      "t_contract(IGaugeV2)4223": {
        "encoding": "inplace",
        "label": "contract IGaugeV2",
        "numberOfBytes": "20"
      },
      "t_contract(IPair)3686": {
        "encoding": "inplace",
        "label": "contract IPair",
        "numberOfBytes": "20"
      },
      "t_contract(IPriceFeed)3166": {
        "encoding": "inplace",
        "label": "contract IPriceFeed",
        "numberOfBytes": "20"
      },
      "t_contract(IRouter)4036": {
        "encoding": "inplace",
        "label": "contract IRouter",
        "numberOfBytes": "20"
      },
      "t_contract(IWombatRouter)5231": {
        "encoding": "inplace",
        "label": "contract IWombatRouter",
        "numberOfBytes": "20"
      },
      "t_mapping(t_address,t_bool)": {
        "encoding": "mapping",
        "key": "t_address",
        "label": "mapping(address => bool)",
        "numberOfBytes": "32",
        "value": "t_bool"
      },
      "t_mapping(t_bytes32,t_struct(RoleData)34_storage)": {
        "encoding": "mapping",
        "key": "t_bytes32",
        "label": "mapping(bytes32 => struct AccessControlUpgradeable.RoleData)",
        "numberOfBytes": "32",
        "value": "t_struct(RoleData)34_storage"
      },
      "t_struct(RoleData)34_storage": {
        "encoding": "inplace",
        "label": "struct AccessControlUpgradeable.RoleData",
        "members": [
          {
            "astId": 31,
            "contract": "contracts/strategies/StrategyThenawUsdrUsdc.sol:StrategyThenawUsdrUsdc",
            "label": "members",
            "offset": 0,
            "slot": "0",
            "type": "t_mapping(t_address,t_bool)"
          },
          {
            "astId": 33,
            "contract": "contracts/strategies/StrategyThenawUsdrUsdc.sol:StrategyThenawUsdrUsdc",
            "label": "adminRole",
            "offset": 0,
            "slot": "1",
            "type": "t_bytes32"
          }
        ],
        "numberOfBytes": "64"
      },
      "t_uint256": {
        "encoding": "inplace",
        "label": "uint256",
        "numberOfBytes": "32"
      },
      "t_uint8": {
        "encoding": "inplace",
        "label": "uint8",
        "numberOfBytes": "1"
      }
    }
  }
}