{
  "_format": "hh-sol-artifact-1",
  "contractName": "StrategyWombexUsdtMim",
  "sourceName": "contracts/strategies/StrategyWombexUsdtMim.sol",
  "abi": [
    {
      "inputs": [],
      "stateMutability": "nonpayable",
      "type": "constructor"
    },
    {
      "anonymous": false,
      "inputs": [
        {
          "indexed": false,
          "internalType": "address",
          "name": "previousAdmin",
          "type": "address"
        },
        {
          "indexed": false,
          "internalType": "address",
          "name": "newAdmin",
          "type": "address"
        }
      ],
      "name": "AdminChanged",
      "type": "event"
    },
    {
      "anonymous": false,
      "inputs": [
        {
          "indexed": true,
          "internalType": "address",
          "name": "beacon",
          "type": "address"
        }
      ],
      "name": "BeaconUpgraded",
      "type": "event"
    },
    {
      "anonymous": false,
      "inputs": [
        {
          "indexed": false,
          "internalType": "uint8",
          "name": "version",
          "type": "uint8"
        }
      ],
      "name": "Initialized",
      "type": "event"
    },
    {
      "anonymous": false,
      "inputs": [
        {
          "indexed": false,
          "internalType": "address",
          "name": "value",
          "type": "address"
        }
      ],
      "name": "PortfolioManagerUpdated",
      "type": "event"
    },
    {
      "anonymous": false,
      "inputs": [
        {
          "indexed": false,
          "internalType": "uint256",
          "name": "amount",
          "type": "uint256"
        }
      ],
      "name": "Reward",
      "type": "event"
    },
    {
      "anonymous": false,
      "inputs": [
        {
          "indexed": true,
          "internalType": "bytes32",
          "name": "role",
          "type": "bytes32"
        },
        {
          "indexed": true,
          "internalType": "bytes32",
          "name": "previousAdminRole",
          "type": "bytes32"
        },
        {
          "indexed": true,
          "internalType": "bytes32",
          "name": "newAdminRole",
          "type": "bytes32"
        }
      ],
      "name": "RoleAdminChanged",
      "type": "event"
    },
    {
      "anonymous": false,
      "inputs": [
        {
          "indexed": true,
          "internalType": "bytes32",
          "name": "role",
          "type": "bytes32"
        },
        {
          "indexed": true,
          "internalType": "address",
          "name": "account",
          "type": "address"
        },
        {
          "indexed": true,
          "internalType": "address",
          "name": "sender",
          "type": "address"
        }
      ],
      "name": "RoleGranted",
      "type": "event"
    },
    {
      "anonymous": false,
      "inputs": [
        {
          "indexed": true,
          "internalType": "bytes32",
          "name": "role",
          "type": "bytes32"
        },
        {
          "indexed": true,
          "internalType": "address",
          "name": "account",
          "type": "address"
        },
        {
          "indexed": true,
          "internalType": "address",
          "name": "sender",
          "type": "address"
        }
      ],
      "name": "RoleRevoked",
      "type": "event"
    },
    {
      "anonymous": false,
      "inputs": [
        {
          "indexed": false,
          "internalType": "uint256",
          "name": "swapSlippageBP",
          "type": "uint256"
        },
        {
          "indexed": false,
          "internalType": "uint256",
          "name": "navSlippageBP",
          "type": "uint256"
        },
        {
          "indexed": false,
          "internalType": "uint256",
          "name": "stakeSlippageBP",
          "type": "uint256"
        }
      ],
      "name": "SlippagesUpdated",
      "type": "event"
    },
    {
      "anonymous": false,
      "inputs": [
        {
          "indexed": false,
          "internalType": "uint256",
          "name": "amount",
          "type": "uint256"
        }
      ],
      "name": "Stake",
      "type": "event"
    },
    {
      "anonymous": false,
      "inputs": [],
      "name": "StrategyUpdatedParams",
      "type": "event"
    },
    {
      "anonymous": false,
      "inputs": [
        {
          "indexed": false,
          "internalType": "uint256",
          "name": "amount",
          "type": "uint256"
        },
        {
          "indexed": false,
          "internalType": "uint256",
          "name": "amountReceived",
          "type": "uint256"
        }
      ],
      "name": "Unstake",
      "type": "event"
    },
    {
      "anonymous": false,
      "inputs": [
        {
          "indexed": true,
          "internalType": "address",
          "name": "implementation",
          "type": "address"
        }
      ],
      "name": "Upgraded",
      "type": "event"
    },
    {
      "inputs": [],
      "name": "DEFAULT_ADMIN_ROLE",
      "outputs": [
        {
          "internalType": "bytes32",
          "name": "",
          "type": "bytes32"
        }
      ],
      "stateMutability": "view",
      "type": "function"
    },
    {
      "inputs": [],
      "name": "PORTFOLIO_AGENT_ROLE",
      "outputs": [
        {
          "internalType": "bytes32",
          "name": "",
          "type": "bytes32"
        }
      ],
      "stateMutability": "view",
      "type": "function"
    },
    {
      "inputs": [],
      "name": "PORTFOLIO_MANAGER",
      "outputs": [
        {
          "internalType": "bytes32",
          "name": "",
          "type": "bytes32"
        }
      ],
      "stateMutability": "view",
      "type": "function"
    },
    {
      "inputs": [],
      "name": "busd",
      "outputs": [
        {
          "internalType": "contract IERC20",
          "name": "",
          "type": "address"
        }
      ],
      "stateMutability": "view",
      "type": "function"
    },
    {
      "inputs": [
        {
          "internalType": "address",
          "name": "_to",
          "type": "address"
        }
      ],
      "name": "claimRewards",
      "outputs": [
        {
          "internalType": "uint256",
          "name": "",
          "type": "uint256"
        }
      ],
      "stateMutability": "nonpayable",
      "type": "function"
    },
    {
      "inputs": [
        {
          "internalType": "bytes32",
          "name": "role",
          "type": "bytes32"
        }
      ],
      "name": "getRoleAdmin",
      "outputs": [
        {
          "internalType": "bytes32",
          "name": "",
          "type": "bytes32"
        }
      ],
      "stateMutability": "view",
      "type": "function"
    },
    {
      "inputs": [
        {
          "internalType": "bytes32",
          "name": "role",
          "type": "bytes32"
        },
        {
          "internalType": "address",
          "name": "account",
          "type": "address"
        }
      ],
      "name": "grantRole",
      "outputs": [],
      "stateMutability": "nonpayable",
      "type": "function"
    },
    {
      "inputs": [
        {
          "internalType": "bytes32",
          "name": "role",
          "type": "bytes32"
        },
        {
          "internalType": "address",
          "name": "account",
          "type": "address"
        }
      ],
      "name": "hasRole",
      "outputs": [
        {
          "internalType": "bool",
          "name": "",
          "type": "bool"
        }
      ],
      "stateMutability": "view",
      "type": "function"
    },
    {
      "inputs": [],
      "name": "initialize",
      "outputs": [],
      "stateMutability": "nonpayable",
      "type": "function"
    },
    {
      "inputs": [],
      "name": "liquidationValue",
      "outputs": [
        {
          "internalType": "uint256",
          "name": "",
          "type": "uint256"
        }
      ],
      "stateMutability": "view",
      "type": "function"
    },
    {
      "inputs": [],
      "name": "lpUsdt",
      "outputs": [
        {
          "internalType": "contract IWombatAsset",
          "name": "",
          "type": "address"
        }
      ],
      "stateMutability": "view",
      "type": "function"
    },
    {
      "inputs": [],
      "name": "lpUsdtDm",
      "outputs": [
        {
          "internalType": "uint256",
          "name": "",
          "type": "uint256"
        }
      ],
      "stateMutability": "view",
      "type": "function"
    },
    {
      "inputs": [],
      "name": "navSlippageBP",
      "outputs": [
        {
          "internalType": "uint256",
          "name": "",
          "type": "uint256"
        }
      ],
      "stateMutability": "view",
      "type": "function"
    },
    {
      "inputs": [],
      "name": "netAssetValue",
      "outputs": [
        {
          "internalType": "uint256",
          "name": "",
          "type": "uint256"
        }
      ],
      "stateMutability": "view",
      "type": "function"
    },
    {
      "inputs": [],
      "name": "pancakeRouter",
      "outputs": [
        {
          "internalType": "contract IPancakeRouter02",
          "name": "",
          "type": "address"
        }
      ],
      "stateMutability": "view",
      "type": "function"
    },
    {
      "inputs": [],
      "name": "pool",
      "outputs": [
        {
          "internalType": "address",
          "name": "",
          "type": "address"
        }
      ],
      "stateMutability": "view",
      "type": "function"
    },
    {
      "inputs": [],
      "name": "poolDepositor",
      "outputs": [
        {
          "internalType": "contract IWombexPoolDepositor",
          "name": "",
          "type": "address"
        }
      ],
      "stateMutability": "view",
      "type": "function"
    },
    {
      "inputs": [],
      "name": "portfolioManager",
      "outputs": [
        {
          "internalType": "address",
          "name": "",
          "type": "address"
        }
      ],
      "stateMutability": "view",
      "type": "function"
    },
    {
      "inputs": [],
      "name": "proxiableUUID",
      "outputs": [
        {
          "internalType": "bytes32",
          "name": "",
          "type": "bytes32"
        }
      ],
      "stateMutability": "view",
      "type": "function"
    },
    {
      "inputs": [
        {
          "internalType": "bytes32",
          "name": "role",
          "type": "bytes32"
        },
        {
          "internalType": "address",
          "name": "account",
          "type": "address"
        }
      ],
      "name": "renounceRole",
      "outputs": [],
      "stateMutability": "nonpayable",
      "type": "function"
    },
    {
      "inputs": [
        {
          "internalType": "bytes32",
          "name": "role",
          "type": "bytes32"
        },
        {
          "internalType": "address",
          "name": "account",
          "type": "address"
        }
      ],
      "name": "revokeRole",
      "outputs": [],
      "stateMutability": "nonpayable",
      "type": "function"
    },
    {
      "inputs": [
        {
          "components": [
            {
              "internalType": "address",
              "name": "usdt",
              "type": "address"
            },
            {
              "internalType": "address",
              "name": "busd",
              "type": "address"
            },
            {
              "internalType": "address",
              "name": "wom",
              "type": "address"
            },
            {
              "internalType": "address",
              "name": "wmx",
              "type": "address"
            },
            {
              "internalType": "address",
              "name": "lpUsdt",
              "type": "address"
            },
            {
              "internalType": "address",
              "name": "wmxLpUsdt",
              "type": "address"
            },
            {
              "internalType": "address",
              "name": "poolDepositor",
              "type": "address"
            },
            {
              "internalType": "address",
              "name": "pool",
              "type": "address"
            },
            {
              "internalType": "address",
              "name": "pancakeRouter",
              "type": "address"
            }
          ],
          "internalType": "struct StrategyWombexUsdtMim.StrategyParams",
          "name": "params",
          "type": "tuple"
        }
      ],
      "name": "setParams",
      "outputs": [],
      "stateMutability": "nonpayable",
      "type": "function"
    },
    {
      "inputs": [
        {
          "internalType": "address",
          "name": "_value",
          "type": "address"
        }
      ],
      "name": "setPortfolioManager",
      "outputs": [],
      "stateMutability": "nonpayable",
      "type": "function"
    },
    {
      "inputs": [
        {
          "internalType": "uint256",
          "name": "_swapSlippageBP",
          "type": "uint256"
        },
        {
          "internalType": "uint256",
          "name": "_navSlippageBP",
          "type": "uint256"
        },
        {
          "internalType": "uint256",
          "name": "_stakeSlippageBP",
          "type": "uint256"
        }
      ],
      "name": "setSlippages",
      "outputs": [],
      "stateMutability": "nonpayable",
      "type": "function"
    },
    {
      "inputs": [
        {
          "internalType": "address",
          "name": "_asset",
          "type": "address"
        },
        {
          "internalType": "uint256",
          "name": "_amount",
          "type": "uint256"
        }
      ],
      "name": "stake",
      "outputs": [],
      "stateMutability": "nonpayable",
      "type": "function"
    },
    {
      "inputs": [],
      "name": "stakeSlippageBP",
      "outputs": [
        {
          "internalType": "uint256",
          "name": "",
          "type": "uint256"
        }
      ],
      "stateMutability": "view",
      "type": "function"
    },
    {
      "inputs": [
        {
          "internalType": "bytes4",
          "name": "interfaceId",
          "type": "bytes4"
        }
      ],
      "name": "supportsInterface",
      "outputs": [
        {
          "internalType": "bool",
          "name": "",
          "type": "bool"
        }
      ],
      "stateMutability": "view",
      "type": "function"
    },
    {
      "inputs": [],
      "name": "swapSlippageBP",
      "outputs": [
        {
          "internalType": "uint256",
          "name": "",
          "type": "uint256"
        }
      ],
      "stateMutability": "view",
      "type": "function"
    },
    {
      "inputs": [
        {
          "internalType": "address",
          "name": "_asset",
          "type": "address"
        },
        {
          "internalType": "uint256",
          "name": "_amount",
          "type": "uint256"
        },
        {
          "internalType": "address",
          "name": "_beneficiary",
          "type": "address"
        },
        {
          "internalType": "bool",
          "name": "_targetIsZero",
          "type": "bool"
        }
      ],
      "name": "unstake",
      "outputs": [
        {
          "internalType": "uint256",
          "name": "",
          "type": "uint256"
        }
      ],
      "stateMutability": "nonpayable",
      "type": "function"
    },
    {
      "inputs": [
        {
          "internalType": "address",
          "name": "newImplementation",
          "type": "address"
        }
      ],
      "name": "upgradeTo",
      "outputs": [],
      "stateMutability": "nonpayable",
      "type": "function"
    },
    {
      "inputs": [
        {
          "internalType": "address",
          "name": "newImplementation",
          "type": "address"
        },
        {
          "internalType": "bytes",
          "name": "data",
          "type": "bytes"
        }
      ],
      "name": "upgradeToAndCall",
      "outputs": [],
      "stateMutability": "payable",
      "type": "function"
    },
    {
      "inputs": [],
      "name": "usdt",
      "outputs": [
        {
          "internalType": "contract IERC20",
          "name": "",
          "type": "address"
        }
      ],
      "stateMutability": "view",
      "type": "function"
    },
    {
      "inputs": [],
      "name": "wmx",
      "outputs": [
        {
          "internalType": "contract IERC20",
          "name": "",
          "type": "address"
        }
      ],
      "stateMutability": "view",
      "type": "function"
    },
    {
      "inputs": [],
      "name": "wmxLpUsdt",
      "outputs": [
        {
          "internalType": "contract IWombexBaseRewardPool",
          "name": "",
          "type": "address"
        }
      ],
      "stateMutability": "view",
      "type": "function"
    },
    {
      "inputs": [],
      "name": "wom",
      "outputs": [
        {
          "internalType": "contract IERC20",
          "name": "",
          "type": "address"
        }
      ],
      "stateMutability": "view",
      "type": "function"
    }
  ],
  "bytecode": "0x60a0604052306080523480156200001557600080fd5b50600054610100900460ff1615808015620000375750600054600160ff909116105b8062000067575062000054306200010860201b620012521760201c565b15801562000067575060005460ff166001145b6200008f5760405162461bcd60e51b8152600401620000869062000117565b60405180910390fd5b6000805460ff191660011790558015620000b3576000805461ff0019166101001790555b801562000101576000805461ff00191690556040517f7f26b83ff96e1f2b6a682f133852f6798a09c465da95921460cefb384740249890620000f8906001906200018d565b60405180910390a15b506200019d565b6001600160a01b03163b151590565b602080825281016200016a81602e81527f496e697469616c697a61626c653a20636f6e747261637420697320616c72656160208201526d191e481a5b9a5d1a585b1a5e995960921b604082015260600190565b92915050565b600060ff82166200016a565b620001878162000170565b82525050565b602081016200016a82846200017c565b60805161383f620001d56000396000818161071001528181610750015281816107ef0152818161082f01526108be015261383f6000f3fe6080604052600436106102045760003560e01c80637d5f580211610118578063bd25c6db116100a0578063ce8383361161006f578063ce838336146105b6578063d44f49c9146105d7578063d547741f146105f7578063ef5cfb8c14610617578063f6f6b8811461063757600080fd5b8063bd25c6db1461053d578063bf52e0801461055e578063c21ebd0714610574578063c5a6222e1461059557600080fd5b8063a3673b38116100e7578063a3673b38146102ee578063a440b21a146104bc578063adc9772e146104dc578063ae30c110146104fc578063b57075a51461051c57600080fd5b80637d5f5802146104505780638129fc1c1461047257806391d1485414610487578063a217fddf146104a757600080fd5b806334df87e71161019b5780634f1ef2861161016a5780634f1ef286146103be57806352d1902d146103d15780635ca558f8146103e65780635dbd733a146103fc578063620b75df1461043057600080fd5b806334df87e71461034657806336568abe1461035d5780633659cfe61461037d5780633ca5b2341461039d57600080fd5b8063248a9ca3116101d7578063248a9ca3146102be5780632576e65a146102ee5780632f2ff15d146103035780632f48ab7d1461032557600080fd5b806301ffc9a714610209578063083975d41461023f578063119cd8791461026d57806316f0115b14610290575b600080fd5b34801561021557600080fd5b5061022961022436600461283f565b610657565b604051610236919061286a565b60405180910390f35b34801561024b57600080fd5b5061013054610260906001600160a01b031681565b60405161023691906128a8565b34801561027957600080fd5b5061028360fd5481565b60405161023691906128bc565b34801561029c57600080fd5b50610134546102b1906001600160a01b031681565b60405161023691906128d3565b3480156102ca57600080fd5b506102836102d93660046128f2565b60009081526065602052604090206001015490565b3480156102fa57600080fd5b5061028361068e565b34801561030f57600080fd5b5061032361031e366004612927565b61069d565b005b34801561033157600080fd5b5061012d54610260906001600160a01b031681565b34801561035257600080fd5b506102836101365481565b34801561036957600080fd5b50610323610378366004612927565b6106c7565b34801561038957600080fd5b50610323610398366004612964565b610706565b3480156103a957600080fd5b5061012e54610260906001600160a01b031681565b6103236103cc366004612a7b565b6107e5565b3480156103dd57600080fd5b506102836108b1565b3480156103f257600080fd5b5061028360fe5481565b34801561040857600080fd5b506102837fd67ad422505496469a1adf6cdf9e5ee92ac5d33992843c9ecc4b2f6d6cde913781565b34801561043c57600080fd5b5060fb546102b1906001600160a01b031681565b34801561045c57600080fd5b506102836000805160206137a383398151915281565b34801561047e57600080fd5b5061032361090e565b34801561049357600080fd5b506102296104a2366004612927565b6109dc565b3480156104b357600080fd5b50610283600081565b3480156104c857600080fd5b506103236104d7366004612964565b610a07565b3480156104e857600080fd5b506103236104f7366004612ac9565b610adc565b34801561050857600080fd5b50610323610517366004612afc565b610c33565b34801561052857600080fd5b5061013254610260906001600160a01b031681565b34801561054957600080fd5b5061013354610260906001600160a01b031681565b34801561056a57600080fd5b5061028360fc5481565b34801561058057600080fd5b5061013554610260906001600160a01b031681565b3480156105a157600080fd5b5061012f54610260906001600160a01b031681565b3480156105c257600080fd5b5061013154610260906001600160a01b031681565b3480156105e357600080fd5b506103236105f2366004612b62565b610d55565b34801561060357600080fd5b50610323610612366004612927565b610fe1565b34801561062357600080fd5b50610283610632366004612964565b611006565b34801561064357600080fd5b50610283610652366004612b97565b61108f565b60006001600160e01b03198216637965db0b60e01b148061068857506301ffc9a760e01b6001600160e01b03198316145b92915050565b6000610698611261565b905090565b6000828152606560205260409020600101546106b8816113eb565b6106c283836113f5565b505050565b6001600160a01b03811633146106f85760405162461bcd60e51b81526004016106ef90612c4a565b60405180910390fd5b610702828261147b565b5050565b6001600160a01b037f000000000000000000000000000000000000000000000000000000000000000016300361074e5760405162461bcd60e51b81526004016106ef90612ca3565b7f00000000000000000000000000000000000000000000000000000000000000006001600160a01b03166107976000805160206137c3833981519152546001600160a01b031690565b6001600160a01b0316146107bd5760405162461bcd60e51b81526004016106ef90612cfc565b6107c6816114e2565b604080516000808252602082019092526107e2918391906114ed565b50565b6001600160a01b037f000000000000000000000000000000000000000000000000000000000000000016300361082d5760405162461bcd60e51b81526004016106ef90612ca3565b7f00000000000000000000000000000000000000000000000000000000000000006001600160a01b03166108766000805160206137c3833981519152546001600160a01b031690565b6001600160a01b03161461089c5760405162461bcd60e51b81526004016106ef90612cfc565b6108a5826114e2565b610702828260016114ed565b6000306001600160a01b037f000000000000000000000000000000000000000000000000000000000000000016146108fb5760405162461bcd60e51b81526004016106ef90612d66565b506000805160206137c383398151915290565b600054610100900460ff161580801561092e5750600054600160ff909116105b806109485750303b158015610948575060005460ff166001145b6109645760405162461bcd60e51b81526004016106ef90612dc1565b6000805460ff191660011790558015610987576000805461ff0019166101001790555b61098f6115cf565b80156107e2576000805461ff00191690556040517f7f26b83ff96e1f2b6a682f133852f6798a09c465da95921460cefb3847402498906109d190600190612de5565b60405180910390a150565b60009182526065602090815260408084206001600160a01b0393909316845291905290205460ff1690565b610a126000336109dc565b610a2e5760405162461bcd60e51b81526004016106ef90612e21565b6001600160a01b038116610a545760405162461bcd60e51b81526004016106ef90612e65565b60fb54610a79906000805160206137a3833981519152906001600160a01b0316610fe1565b610a916000805160206137a38339815191528261069d565b60fb80546001600160a01b0319166001600160a01b0383161790556040517ff7b449fcd5cfb7379dcd34cb69428dd9f882033b15be33d83b42d91daa28eeb7906109d19083906128d3565b610af46000805160206137a3833981519152336109dc565b610b105760405162461bcd60e51b81526004016106ef90612ea9565b6000610b7f306001600160a01b031663a3673b386040518163ffffffff1660e01b8152600401602060405180830381865afa158015610b53573d6000803e3d6000fd5b505050506040513d601f19601f82011682018060405250810190610b779190612ec4565b60fd546116b4565b9050610bf783846001600160a01b03166370a08231306040518263ffffffff1660e01b8152600401610bb191906128d3565b602060405180830381865afa158015610bce573d6000803e3d6000fd5b505050506040513d601f19601f82011682018060405250810190610bf29190612ec4565b6116de565b7f227a473b70d2f893cc7659219575c030a63b5743024fe1e0c1a680e708b1525a82604051610c2691906128bc565b60405180910390a1505050565b610c5d7fd67ad422505496469a1adf6cdf9e5ee92ac5d33992843c9ecc4b2f6d6cde9137336109dc565b80610cf6575060fb54604051632474521560e21b81526001600160a01b03909116906391d1485490610cb5907fd67ad422505496469a1adf6cdf9e5ee92ac5d33992843c9ecc4b2f6d6cde9137903390600401612ee5565b602060405180830381865afa158015610cd2573d6000803e3d6000fd5b505050506040513d601f19601f82011682018060405250810190610cf69190612f0b565b610d125760405162461bcd60e51b81526004016106ef90612f6b565b60fc83905560fd82905560fe8190556040517f116fbf1e97a2be629ad98abfb6c332733c8996c2dfb174dd2efe8440df381d1a90610c2690859085908590612f7b565b610d606000336109dc565b610d7c5760405162461bcd60e51b81526004016106ef90612e21565b610d896020820182612964565b61012d80546001600160a01b0319166001600160a01b0392909216919091179055610dba6040820160208301612964565b61012e80546001600160a01b0319166001600160a01b0392909216919091179055610deb6060820160408301612964565b61012f80546001600160a01b0319166001600160a01b0392909216919091179055610e1c6080820160608301612964565b61013080546001600160a01b0319166001600160a01b0392909216919091179055610e4d60a0820160808301612964565b61013180546001600160a01b0319166001600160a01b0392909216919091179055610e7e60c0820160a08301612964565b61013280546001600160a01b0319166001600160a01b0392909216919091179055610eaf60e0820160c08301612964565b61013380546001600160a01b0319166001600160a01b0392909216919091179055610ee1610100820160e08301612964565b61013480546001600160a01b0319166001600160a01b0392909216919091179055610f1461012082016101008301612964565b61013580546001600160a01b0319166001600160a01b0392909216919091179055610f4560a0820160808301612964565b6001600160a01b031663313ce5676040518163ffffffff1660e01b8152600401602060405180830381865afa158015610f82573d6000803e3d6000fd5b505050506040513d601f19601f82011682018060405250810190610fa69190612fb7565b610fb190600a6130fc565b610136556040517fea5646eb3528e525944447a4a97de700dd472298626e5c0481d1c82c3da86ea590600090a150565b600082815260656020526040902060010154610ffc816113eb565b6106c2838361147b565b60006110206000805160206137a3833981519152336109dc565b61103c5760405162461bcd60e51b81526004016106ef90612ea9565b600061104783611902565b90508015611087577f3ac0594a85a20354f9dc74f33728416d19ce00d04a406c108cc2dcf2cecea1348160405161107e91906128bc565b60405180910390a15b90505b919050565b60006110a96000805160206137a3833981519152336109dc565b6110c55760405162461bcd60e51b81526004016106ef90612ea9565b6000611108306001600160a01b031663a3673b386040518163ffffffff1660e01b8152600401602060405180830381865afa158015610b53573d6000803e3d6000fd5b9050600080841561112f5761111c86611902565b90506111288887611c88565b915061115c565b61113a888888611fa5565b91508682101561115c5760405162461bcd60e51b81526004016106ef90613157565b60405163a9059cbb60e01b81526001600160a01b0389169063a9059cbb9061118a9089908690600401613167565b6020604051808303816000875af11580156111a9573d6000803e3d6000fd5b505050506040513d601f19601f820116820180604052508101906111cd9190612f0b565b507f9045c2ac9b2026de8075f2701bbdde882cd5e830b3b1ead9a15b22f2b5b9374287836040516111ff929190613182565b60405180910390a18015611245577f3ac0594a85a20354f9dc74f33728416d19ce00d04a406c108cc2dcf2cecea1348160405161123c91906128bc565b60405180910390a15b509150505b949350505050565b6001600160a01b03163b151590565b61012d546040516370a0823160e01b815260009182916001600160a01b03909116906370a08231906112979030906004016128d3565b602060405180830381865afa1580156112b4573d6000803e3d6000fd5b505050506040513d601f19601f820116820180604052508101906112d89190612ec4565b610132546040516370a0823160e01b81529192506000916001600160a01b03909116906370a082319061130f9030906004016128d3565b602060405180830381865afa15801561132c573d6000803e3d6000fd5b505050506040513d601f19601f820116820180604052508101906113509190612ec4565b905080156113e557610133546101315460405163135dbd1360e01b81526000926001600160a01b039081169263135dbd139261139492909116908690600401613167565b6040805180830381865afa1580156113b0573d6000803e3d6000fd5b505050506040513d601f19601f820116820180604052508101906113d49190613190565b5090506113e181846131c3565b9250505b50919050565b6107e28133612139565b6113ff82826109dc565b6107025760008281526065602090815260408083206001600160a01b03851684529091529020805460ff191660011790556114373390565b6001600160a01b0316816001600160a01b0316837f2f8788117e7eff1d82e926ec794901d17c78024a50270940304540a733656f0d60405160405180910390a45050565b61148582826109dc565b156107025760008281526065602090815260408083206001600160a01b0385168085529252808320805460ff1916905551339285917ff6391f5c32d9c69d2a47ea670b442974b53935d1edc7fd64eb21e047a839171b9190a45050565b6000610702816113eb565b7f4910fdfa16fed3260ed0e7147f7cc6da11a60208b5b9406d12a635614ffd91435460ff1615611520576106c283612192565b826001600160a01b03166352d1902d6040518163ffffffff1660e01b8152600401602060405180830381865afa92505050801561157a575060408051601f3d908101601f1916820190925261157791810190612ec4565b60015b6115965760405162461bcd60e51b81526004016106ef90613221565b6000805160206137c383398151915281146115c35760405162461bcd60e51b81526004016106ef90613277565b506106c28383836121e8565b600054610100900460ff16158080156115ef5750600054600160ff909116105b806116095750303b158015611609575060005460ff166001145b6116255760405162461bcd60e51b81526004016106ef90612dc1565b6000805460ff191660011790558015611648576000805461ff0019166101001790555b611650612213565b611658612213565b6116636000336113f5565b601960fc55602360fd55600460fe5580156107e2576000805461ff00191690556040517f7f26b83ff96e1f2b6a682f133852f6798a09c465da95921460cefb3847402498906109d190600190612de5565b60006127106116c38382613287565b6116cd908561329a565b6116d791906132cf565b9392505050565b61012d546001600160a01b0383811691161461170c5760405162461bcd60e51b81526004016106ef90613317565b61012d546040516370a0823160e01b81526000916001600160a01b0316906370a082319061173e9030906004016128d3565b602060405180830381865afa15801561175b573d6000803e3d6000fd5b505050506040513d601f19601f8201168201806040525081019061177f9190612ec4565b6101335461013154604051630650739d60e41b81529293506000926001600160a01b039283169263650739d0926117bd929116908690600401613167565b6040805180830381865afa1580156117d9573d6000803e3d6000fd5b505050506040513d601f19601f820116820180604052508101906117fd9190613190565b509050600061180e8260fe546116b4565b61012d546101335460405163095ea7b360e01b81529293506001600160a01b039182169263095ea7b3926118489216908790600401613167565b6020604051808303816000875af1158015611867573d6000803e3d6000fd5b505050506040513d601f19601f8201168201806040525081019061188b9190612f0b565b506101335461013154604051633f90794960e21b81526001600160a01b039283169263fe41e524926118c99291169087908690600190600401613327565b600060405180830381600087803b1580156118e357600080fd5b505af11580156118f7573d6000803e3d6000fd5b505050505050505050565b610132546040516370a0823160e01b815260009182916001600160a01b03909116906370a08231906119389030906004016128d3565b602060405180830381865afa158015611955573d6000803e3d6000fd5b505050506040513d601f19601f820116820180604052508101906119799190612ec4565b905080156119fa5761013254604051637050ccd960e01b81526001600160a01b0390911690637050ccd9906119b590309060009060040161335c565b6020604051808303816000875af11580156119d4573d6000803e3d6000fd5b505050506040513d601f19601f820116820180604052508101906119f89190612f0b565b505b61012f546040516370a0823160e01b815260009182916001600160a01b03909116906370a0823190611a309030906004016128d3565b602060405180830381865afa158015611a4d573d6000803e3d6000fd5b505050506040513d601f19601f82011682018060405250810190611a719190612ec4565b90508015611b07576101355461012f5461012e5461012d54600093611aab936001600160a01b03918216939082169290821691168661223c565b90508015611b05576101355461012f5461012e5461012d54611af8936001600160a01b039081169381169281169116866064611ae888606361329a565b611af291906132cf565b3061238d565b611b0290846131c3565b92505b505b610130546040516370a0823160e01b81526000916001600160a01b0316906370a0823190611b399030906004016128d3565b602060405180830381865afa158015611b56573d6000803e3d6000fd5b505050506040513d601f19601f82011682018060405250810190611b7a9190612ec4565b90508015611c0057610135546101305461012e5461012d54600093611bb4936001600160a01b03918216939082169290821691168661223c565b90508015611bfe57610135546101305461012e5461012d54611bf1936001600160a01b039081169381169281169116866064611ae888606361329a565b611bfb90856131c3565b93505b505b8215611c7e5761012d5460405163a9059cbb60e01b81526001600160a01b039091169063a9059cbb90611c399089908790600401613167565b6020604051808303816000875af1158015611c58573d6000803e3d6000fd5b505050506040513d601f19601f82011682018060405250810190611c7c9190612f0b565b505b5090949350505050565b61012d546000906001600160a01b03848116911614611cb95760405162461bcd60e51b81526004016106ef90613317565b610132546040516370a0823160e01b81526000916001600160a01b0316906370a0823190611ceb9030906004016128d3565b602060405180830381865afa158015611d08573d6000803e3d6000fd5b505050506040513d601f19601f82011682018060405250810190611d2c9190612ec4565b905080600003611db05761012d546040516370a0823160e01b81526001600160a01b03909116906370a0823190611d679030906004016128d3565b602060405180830381865afa158015611d84573d6000803e3d6000fd5b505050506040513d601f19601f82011682018060405250810190611da89190612ec4565b915050610688565b610133546101315460405163135dbd1360e01b81526000926001600160a01b039081169263135dbd1392611dec92909116908690600401613167565b6040805180830381865afa158015611e08573d6000803e3d6000fd5b505050506040513d601f19601f82011682018060405250810190611e2c9190613190565b5090506000611e3d8260fe546116b4565b610132546101335460405163095ea7b360e01b81529293506001600160a01b039182169263095ea7b392611e779216908790600401613167565b6020604051808303816000875af1158015611e96573d6000803e3d6000fd5b505050506040513d601f19601f82011682018060405250810190611eba9190612f0b565b5061013354610131546040516316762eed60e01b81526001600160a01b03928316926316762eed92611ef792911690879086903090600401613377565b600060405180830381600087803b158015611f1157600080fd5b505af1158015611f25573d6000803e3d6000fd5b505061012d546040516370a0823160e01b81526001600160a01b0390911692506370a082319150611f5a9030906004016128d3565b602060405180830381865afa158015611f77573d6000803e3d6000fd5b505050506040513d601f19601f82011682018060405250810190611f9b9190612ec4565b9695505050505050565b61012d546000906001600160a01b03858116911614611fd65760405162461bcd60e51b81526004016106ef90613317565b61013354610131546101365460405163135dbd1360e01b81526000936001600160a01b039081169363135dbd1393612015939290911691600401613167565b6040805180830381865afa158015612031573d6000803e3d6000fd5b505050506040513d601f19601f820116820180604052508101906120559190613190565b5090506000816101365461206b8760fe54612559565b612075919061329a565b61207f91906132cf565b610132546101335460405163095ea7b360e01b81529293506001600160a01b039182169263095ea7b3926120b99216908590600401613167565b6020604051808303816000875af11580156120d8573d6000803e3d6000fd5b505050506040513d601f19601f820116820180604052508101906120fc9190612f0b565b5061013354610131546040516316762eed60e01b81526001600160a01b03928316926316762eed92611ef79291169085908a903090600401613377565b61214382826109dc565b6107025761215081612568565b61215b83602061257a565b60405160200161216c9291906133f2565b60408051601f198184030181529082905262461bcd60e51b82526106ef9160040161347c565b6001600160a01b0381163b6121b95760405162461bcd60e51b81526004016106ef906134d7565b6000805160206137c383398151915280546001600160a01b0319166001600160a01b0392909216919091179055565b6121f1836126e6565b6000825111806121fe5750805b156106c25761220d8383612726565b50505050565b600054610100900460ff1661223a5760405162461bcd60e51b81526004016106ef9061352f565b565b604080516003808252608082019092526000918291906020820160608036833701905050905085816000815181106122765761227661353f565b60200260200101906001600160a01b031690816001600160a01b03168152505084816001815181106122aa576122aa61353f565b60200260200101906001600160a01b031690816001600160a01b03168152505083816002815181106122de576122de61353f565b6001600160a01b03928316602091820292909201015260405163d06ca61f60e01b815260009189169063d06ca61f9061231d90879086906004016135b2565b600060405180830381865afa15801561233a573d6000803e3d6000fd5b505050506040513d6000823e601f3d908101601f191682016040526123629190810190613675565b9050806002815181106123775761237761353f565b6020026020010151925050505b95945050505050565b60405163095ea7b360e01b81526000906001600160a01b0388169063095ea7b3906123be908b908890600401613167565b6020604051808303816000875af11580156123dd573d6000803e3d6000fd5b505050506040513d601f19601f820116820180604052508101906124019190612f0b565b50604080516003808252608082019092526000916020820160608036833701905050905087816000815181106124395761243961353f565b60200260200101906001600160a01b031690816001600160a01b031681525050868160018151811061246d5761246d61353f565b60200260200101906001600160a01b031690816001600160a01b03168152505085816002815181106124a1576124a161353f565b6001600160a01b0392831660209182029290920101526040516338ed173960e01b81526000918b16906338ed1739906124e6908990899087908a9042906004016136b0565b6000604051808303816000875af1158015612505573d6000803e3d6000fd5b505050506040513d6000823e601f3d908101601f1916820160405261252d9190810190613675565b9050806002815181106125425761254261353f565b602002602001015192505050979650505050505050565b60006127106116c383826131c3565b60606106886001600160a01b03831660145b6060600061258983600261329a565b6125949060026131c3565b67ffffffffffffffff8111156125ac576125ac612985565b6040519080825280601f01601f1916602001820160405280156125d6576020820181803683370190505b509050600360fc1b816000815181106125f1576125f161353f565b60200101906001600160f81b031916908160001a905350600f60fb1b816001815181106126205761262061353f565b60200101906001600160f81b031916908160001a905350600061264484600261329a565b61264f9060016131c3565b90505b60018111156126c7576f181899199a1a9b1b9c1cb0b131b232b360811b85600f16601081106126835761268361353f565b1a60f81b8282815181106126995761269961353f565b60200101906001600160f81b031916908160001a90535060049490941c936126c0816136f9565b9050612652565b5083156116d75760405162461bcd60e51b81526004016106ef90613742565b6126ef81612192565b6040516001600160a01b038216907fbc7cd75a20ee27fd9adebab32041f755214dbc6bffa90cc0225b39da2e5c2d3b90600090a250565b60606116d783836040518060600160405280602781526020016137e3602791396060600080856001600160a01b0316856040516127639190613752565b600060405180830381855af49150503d806000811461279e576040519150601f19603f3d011682016040523d82523d6000602084013e6127a3565b606091505b5091509150611f9b86838387606083156127ee5782516000036127e7576001600160a01b0385163b6127e75760405162461bcd60e51b81526004016106ef90613792565b508161124a565b61124a83838151156128035781518083602001fd5b8060405162461bcd60e51b81526004016106ef919061347c565b6001600160e01b031981165b81146107e257600080fd5b80356106888161281d565b60006020828403121561285457612854600080fd5b600061124a8484612834565b8015155b82525050565b602081016106888284612860565b60006001600160a01b038216610688565b600061068882612878565b600061068882612889565b61286481612894565b60208101610688828461289f565b80612864565b6020810161068882846128b6565b61286481612878565b6020810161068882846128ca565b80612829565b8035610688816128e1565b60006020828403121561290757612907600080fd5b600061124a84846128e7565b61282981612878565b803561068881612913565b6000806040838503121561293d5761293d600080fd5b600061294985856128e7565b925050602061295a8582860161291c565b9150509250929050565b60006020828403121561297957612979600080fd5b600061124a848461291c565b634e487b7160e01b600052604160045260246000fd5b601f19601f830116810181811067ffffffffffffffff821117156129c1576129c1612985565b6040525050565b60006129d360405190565b905061108a828261299b565b600067ffffffffffffffff8211156129f9576129f9612985565b601f19601f83011660200192915050565b82818337506000910152565b6000612a29612a24846129df565b6129c8565b905082815260208101848484011115612a4457612a44600080fd5b612a4f848285612a0a565b509392505050565b600082601f830112612a6b57612a6b600080fd5b813561124a848260208601612a16565b60008060408385031215612a9157612a91600080fd5b6000612a9d858561291c565b925050602083013567ffffffffffffffff811115612abd57612abd600080fd5b61295a85828601612a57565b60008060408385031215612adf57612adf600080fd5b6000612aeb858561291c565b925050602061295a858286016128e7565b600080600060608486031215612b1457612b14600080fd5b6000612b2086866128e7565b9350506020612b31868287016128e7565b9250506040612b42868287016128e7565b9150509250925092565b600061012082840312156113e5576113e5600080fd5b60006101208284031215612b7857612b78600080fd5b600061124a8484612b4c565b801515612829565b803561068881612b84565b60008060008060808587031215612bb057612bb0600080fd5b6000612bbc878761291c565b9450506020612bcd878288016128e7565b9350506040612bde8782880161291c565b9250506060612bef87828801612b8c565b91505092959194509250565b602f81526000602082017f416363657373436f6e74726f6c3a2063616e206f6e6c792072656e6f756e636581526e103937b632b9903337b91039b2b63360891b602082015291505b5060400190565b6020808252810161068881612bfb565b602c81526000602082017f46756e6374696f6e206d7573742062652063616c6c6564207468726f7567682081526b19195b1959d85d1958d85b1b60a21b60208201529150612c43565b6020808252810161068881612c5a565b602c81526000602082017f46756e6374696f6e206d7573742062652063616c6c6564207468726f7567682081526b6163746976652070726f787960a01b60208201529150612c43565b6020808252810161068881612cb3565b603881526000602082017f555550535570677261646561626c653a206d757374206e6f742062652063616c81527f6c6564207468726f7567682064656c656761746563616c6c000000000000000060208201529150612c43565b6020808252810161068881612d0c565b602e81526000602082017f496e697469616c697a61626c653a20636f6e747261637420697320616c72656181526d191e481a5b9a5d1a585b1a5e995960921b60208201529150612c43565b6020808252810161068881612d76565b600060ff8216610688565b61286481612dd1565b602081016106888284612ddc565b60148152600060208201735265737472696374656420746f2061646d696e7360601b815291505b5060200190565b6020808252810161068881612df3565b601881526000602082017f5a65726f2061646472657373206e6f7420616c6c6f776564000000000000000081529150612e1a565b6020808252810161068881612e31565b601f81526000602082017f5265737472696374656420746f20504f5254464f4c494f5f4d414e414745520081529150612e1a565b6020808252810161068881612e75565b8051610688816128e1565b600060208284031215612ed957612ed9600080fd5b600061124a8484612eb9565b60408101612ef382856128b6565b6116d760208301846128ca565b805161068881612b84565b600060208284031215612f2057612f20600080fd5b600061124a8484612f00565b602281526000602082017f5265737472696374656420746f20504f5254464f4c494f5f4147454e545f524f8152614c4560f01b60208201529150612c43565b6020808252810161068881612f2c565b60608101612f8982866128b6565b612f9660208301856128b6565b61124a60408301846128b6565b60ff8116612829565b805161068881612fa3565b600060208284031215612fcc57612fcc600080fd5b600061124a8484612fac565b634e487b7160e01b600052601160045260246000fd5b80825b600185111561302d5780860481111561300c5761300c612fd8565b600185161561301a57908102905b80026130268560011c90565b9450612ff1565b94509492505050565b600082613045575060016116d7565b81613052575060006116d7565b816001811461306857600281146130725761309f565b60019150506116d7565b60ff84111561308357613083612fd8565b8360020a91508482111561309957613099612fd8565b506116d7565b5060208310610133831016604e8410600b84101617156130d2575081810a838111156130cd576130cd612fd8565b6116d7565b6130df8484846001612fee565b925090508184048111156130f5576130f5612fd8565b0292915050565b600060ff831692506116d76000198484613036565b602981526000602082017f52657475726e65642076616c7565206c657373207468616e2072657175657374815268195908185b5bdd5b9d60ba1b60208201529150612c43565b6020808252810161068881613111565b6040810161317582856128ca565b6116d760208301846128b6565b6040810161317582856128b6565b600080604083850312156131a6576131a6600080fd5b60006131b28585612eb9565b925050602061295a85828601612eb9565b8082018082111561068857610688612fd8565b602e81526000602082017f45524331393637557067726164653a206e657720696d706c656d656e7461746981526d6f6e206973206e6f74205555505360901b60208201529150612c43565b60208082528101610688816131d6565b602981526000602082017f45524331393637557067726164653a20756e737570706f727465642070726f788152681a58589b195555525160ba1b60208201529150612c43565b6020808252810161068881613231565b8181038181111561068857610688612fd8565b8181028082158382048514176132b2576132b2612fd8565b5092915050565b634e487b7160e01b600052601260045260246000fd5b6000826132de576132de6132b9565b500490565b601981526000602082017f536f6d6520746f6b656e206e6f7420636f6d70617469626c650000000000000081529150612e1a565b60208082528101610688816132e3565b6080810161333582876128ca565b61334260208301866128b6565b61334f60408301856128b6565b6123846060830184612860565b6040810161336a82856128ca565b6116d76020830184612860565b6080810161338582876128ca565b61339260208301866128b6565b61339f60408301856128b6565b61238460608301846128ca565b60005b838110156133c75781810151838201526020016133af565b50506000910152565b60006133da825190565b6133e88185602086016133ac565b9290920192915050565b7f416363657373436f6e74726f6c3a206163636f756e74200000000000000000008152601701600061342482856133d0565b7001034b99036b4b9b9b4b733903937b6329607d1b8152601101915061124a82846133d0565b6000613454825190565b80845260208401935061346b8185602086016133ac565b601f01601f19169290920192915050565b602080825281016116d7818461344a565b602d81526000602082017f455243313936373a206e657720696d706c656d656e746174696f6e206973206e81526c1bdd08184818dbdb9d1c9858dd609a1b60208201529150612c43565b602080825281016106888161348d565b602b81526000602082017f496e697469616c697a61626c653a20636f6e7472616374206973206e6f74206981526a6e697469616c697a696e6760a81b60208201529150612c43565b60208082528101610688816134e7565b634e487b7160e01b600052603260045260246000fd5b600061356183836128ca565b505060200190565b6000613573825190565b80845260209384019383018060005b838110156135a75781516135968882613555565b975060208301925050600101613582565b509495945050505050565b604081016135c082856128b6565b818103602083015261124a8184613569565b600067ffffffffffffffff8211156135ec576135ec612985565b5060209081020190565b6000613604612a24846135d2565b8381529050602080820190840283018581111561362357613623600080fd5b835b8181101561364757806136388882612eb9565b84525060209283019201613625565b5050509392505050565b600082601f83011261366557613665600080fd5b815161124a8482602086016135f6565b60006020828403121561368a5761368a600080fd5b815167ffffffffffffffff8111156136a4576136a4600080fd5b61124a84828501613651565b60a081016136be82886128b6565b6136cb60208301876128b6565b81810360408301526136dd8186613569565b90506136ec60608301856128ca565b611f9b60808301846128b6565b60008161370857613708612fd8565b506000190190565b60208082527f537472696e67733a20686578206c656e67746820696e73756666696369656e7491019081526000612e1a565b6020808252810161068881613710565b60006116d782846133d0565b601d81526000602082017f416464726573733a2063616c6c20746f206e6f6e2d636f6e747261637400000081529150612e1a565b602080825281016106888161375e56fe90c2aa7471c04182221f68e80c07ab1e5946e4c63f8693e14ca40385d529f051360894a13ba1a3210667c828492db98dca3e2076cc3735a920a3ca505d382bbc416464726573733a206c6f772d6c6576656c2064656c65676174652063616c6c206661696c6564a2646970667358221220805be0b7dd64189b8d89f59472804828b959d9ae9a7e99d5bd0a080d8cad21cd64736f6c63430008110033",
  "linkReferences": {},
  "deployedLinkReferences": {}
}