{
  "address": "0x4776B88165702F06238F5F5Bb1AAF2575f438f55",
  "abi": [
    {
      "inputs": [],
      "stateMutability": "nonpayable",
      "type": "constructor"
    },
    {
      "anonymous": false,
      "inputs": [
        {
          "indexed": false,
          "internalType": "uint256",
          "name": "min",
          "type": "uint256"
        },
        {
          "indexed": false,
          "internalType": "uint256",
          "name": "max",
          "type": "uint256"
        }
      ],
      "name": "Abroad",
      "type": "event"
    },
    {
      "anonymous": false,
      "inputs": [
        {
          "indexed": false,
          "internalType": "address",
          "name": "previousAdmin",
          "type": "address"
        },
        {
          "indexed": false,
          "internalType": "address",
          "name": "newAdmin",
          "type": "address"
        }
      ],
      "name": "AdminChanged",
      "type": "event"
    },
    {
      "anonymous": false,
      "inputs": [
        {
          "indexed": true,
          "internalType": "address",
          "name": "beacon",
          "type": "address"
        }
      ],
      "name": "BeaconUpgraded",
      "type": "event"
    },
    {
      "anonymous": false,
      "inputs": [
        {
          "indexed": false,
          "internalType": "address",
          "name": "blockGetter",
          "type": "address"
        }
      ],
      "name": "BlockGetterUpdated",
      "type": "event"
    },
    {
      "anonymous": false,
      "inputs": [
        {
          "indexed": false,
          "internalType": "uint256",
          "name": "fee",
          "type": "uint256"
        },
        {
          "indexed": false,
          "internalType": "uint256",
          "name": "feeDenominator",
          "type": "uint256"
        }
      ],
      "name": "BuyFeeUpdated",
      "type": "event"
    },
    {
      "anonymous": false,
      "inputs": [
        {
          "indexed": false,
          "internalType": "uint256",
          "name": "compensateLoss",
          "type": "uint256"
        },
        {
          "indexed": false,
          "internalType": "uint256",
          "name": "denominator",
          "type": "uint256"
        }
      ],
      "name": "CompensateLossUpdate",
      "type": "event"
    },
    {
      "anonymous": false,
      "inputs": [
        {
          "indexed": false,
          "internalType": "string",
          "name": "label",
          "type": "string"
        },
        {
          "indexed": false,
          "internalType": "uint256",
          "name": "amount",
          "type": "uint256"
        },
        {
          "indexed": false,
          "internalType": "uint256",
          "name": "fee",
          "type": "uint256"
        },
        {
          "indexed": false,
          "internalType": "address",
          "name": "sender",
          "type": "address"
        },
        {
          "indexed": false,
          "internalType": "string",
          "name": "referral",
          "type": "string"
        }
      ],
      "name": "EventExchange",
      "type": "event"
    },
    {
      "anonymous": false,
      "inputs": [
        {
          "indexed": false,
          "internalType": "uint8",
          "name": "version",
          "type": "uint8"
        }
      ],
      "name": "Initialized",
      "type": "event"
    },
    {
      "anonymous": false,
      "inputs": [
        {
          "indexed": false,
          "internalType": "address",
          "name": "insurance",
          "type": "address"
        }
      ],
      "name": "InsuranceUpdated",
      "type": "event"
    },
    {
      "anonymous": false,
      "inputs": [
        {
          "indexed": false,
          "internalType": "address",
          "name": "mark2market",
          "type": "address"
        }
      ],
      "name": "Mark2MarketUpdated",
      "type": "event"
    },
    {
      "anonymous": false,
      "inputs": [
        {
          "indexed": false,
          "internalType": "uint256",
          "name": "nextPayoutTime",
          "type": "uint256"
        }
      ],
      "name": "NextPayoutTime",
      "type": "event"
    },
    {
      "anonymous": false,
      "inputs": [
        {
          "indexed": false,
          "internalType": "address",
          "name": "token",
          "type": "address"
        },
        {
          "indexed": false,
          "internalType": "uint256",
          "name": "amount",
          "type": "uint256"
        }
      ],
      "name": "OnNotEnoughLimitRedeemed",
      "type": "event"
    },
    {
      "anonymous": false,
      "inputs": [
        {
          "indexed": false,
          "internalType": "uint256",
          "name": "oracleLoss",
          "type": "uint256"
        },
        {
          "indexed": false,
          "internalType": "uint256",
          "name": "denominator",
          "type": "uint256"
        }
      ],
      "name": "OracleLossUpdate",
      "type": "event"
    },
    {
      "anonymous": false,
      "inputs": [
        {
          "indexed": false,
          "internalType": "uint256",
          "name": "amount",
          "type": "uint256"
        },
        {
          "indexed": false,
          "internalType": "uint256",
          "name": "feeAmount",
          "type": "uint256"
        }
      ],
      "name": "PaidBuyFee",
      "type": "event"
    },
    {
      "anonymous": false,
      "inputs": [
        {
          "indexed": false,
          "internalType": "uint256",
          "name": "amount",
          "type": "uint256"
        },
        {
          "indexed": false,
          "internalType": "uint256",
          "name": "feeAmount",
          "type": "uint256"
        }
      ],
      "name": "PaidRedeemFee",
      "type": "event"
    },
    {
      "anonymous": false,
      "inputs": [
        {
          "indexed": false,
          "internalType": "address",
          "name": "account",
          "type": "address"
        }
      ],
      "name": "Paused",
      "type": "event"
    },
    {
      "anonymous": false,
      "inputs": [
        {
          "indexed": false,
          "internalType": "uint256",
          "name": "delta",
          "type": "uint256"
        },
        {
          "indexed": false,
          "internalType": "uint256",
          "name": "deltaUsdPlus",
          "type": "uint256"
        }
      ],
      "name": "PayoutAbroad",
      "type": "event"
    },
    {
      "anonymous": false,
      "inputs": [
        {
          "indexed": false,
          "internalType": "uint256",
          "name": "profit",
          "type": "uint256"
        },
        {
          "indexed": false,
          "internalType": "uint256",
          "name": "newLiquidityIndex",
          "type": "uint256"
        },
        {
          "indexed": false,
          "internalType": "uint256",
          "name": "excessProfit",
          "type": "uint256"
        },
        {
          "indexed": false,
          "internalType": "uint256",
          "name": "insurancePremium",
          "type": "uint256"
        },
        {
          "indexed": false,
          "internalType": "uint256",
          "name": "insuranceLoss",
          "type": "uint256"
        }
      ],
      "name": "PayoutEvent",
      "type": "event"
    },
    {
      "anonymous": false,
      "inputs": [
        {
          "indexed": false,
          "internalType": "address",
          "name": "payoutListener",
          "type": "address"
        }
      ],
      "name": "PayoutListenerUpdated",
      "type": "event"
    },
    {
      "anonymous": false,
      "inputs": [
        {
          "indexed": false,
          "internalType": "uint256",
          "name": "nextPayoutTime",
          "type": "uint256"
        },
        {
          "indexed": false,
          "internalType": "uint256",
          "name": "payoutPeriod",
          "type": "uint256"
        },
        {
          "indexed": false,
          "internalType": "uint256",
          "name": "payoutTimeRange",
          "type": "uint256"
        }
      ],
      "name": "PayoutTimesUpdated",
      "type": "event"
    },
    {
      "anonymous": false,
      "inputs": [
        {
          "indexed": false,
          "internalType": "address",
          "name": "portfolioManager",
          "type": "address"
        }
      ],
      "name": "PortfolioManagerUpdated",
      "type": "event"
    },
    {
      "anonymous": false,
      "inputs": [
        {
          "indexed": false,
          "internalType": "address",
          "name": "recipient",
          "type": "address"
        }
      ],
      "name": "ProfitRecipientUpdated",
      "type": "event"
    },
    {
      "anonymous": false,
      "inputs": [
        {
          "indexed": false,
          "internalType": "uint256",
          "name": "fee",
          "type": "uint256"
        },
        {
          "indexed": false,
          "internalType": "uint256",
          "name": "feeDenominator",
          "type": "uint256"
        }
      ],
      "name": "RedeemFeeUpdated",
      "type": "event"
    },
    {
      "anonymous": false,
      "inputs": [
        {
          "indexed": true,
          "internalType": "bytes32",
          "name": "role",
          "type": "bytes32"
        },
        {
          "indexed": true,
          "internalType": "bytes32",
          "name": "previousAdminRole",
          "type": "bytes32"
        },
        {
          "indexed": true,
          "internalType": "bytes32",
          "name": "newAdminRole",
          "type": "bytes32"
        }
      ],
      "name": "RoleAdminChanged",
      "type": "event"
    },
    {
      "anonymous": false,
      "inputs": [
        {
          "indexed": true,
          "internalType": "bytes32",
          "name": "role",
          "type": "bytes32"
        },
        {
          "indexed": true,
          "internalType": "address",
          "name": "account",
          "type": "address"
        },
        {
          "indexed": true,
          "internalType": "address",
          "name": "sender",
          "type": "address"
        }
      ],
      "name": "RoleGranted",
      "type": "event"
    },
    {
      "anonymous": false,
      "inputs": [
        {
          "indexed": true,
          "internalType": "bytes32",
          "name": "role",
          "type": "bytes32"
        },
        {
          "indexed": true,
          "internalType": "address",
          "name": "account",
          "type": "address"
        },
        {
          "indexed": true,
          "internalType": "address",
          "name": "sender",
          "type": "address"
        }
      ],
      "name": "RoleRevoked",
      "type": "event"
    },
    {
      "anonymous": false,
      "inputs": [
        {
          "indexed": false,
          "internalType": "address",
          "name": "usdPlus",
          "type": "address"
        },
        {
          "indexed": false,
          "internalType": "address",
          "name": "asset",
          "type": "address"
        }
      ],
      "name": "TokensUpdated",
      "type": "event"
    },
    {
      "anonymous": false,
      "inputs": [
        {
          "indexed": false,
          "internalType": "address",
          "name": "account",
          "type": "address"
        }
      ],
      "name": "Unpaused",
      "type": "event"
    },
    {
      "anonymous": false,
      "inputs": [
        {
          "indexed": true,
          "internalType": "address",
          "name": "implementation",
          "type": "address"
        }
      ],
      "name": "Upgraded",
      "type": "event"
    },
    {
      "inputs": [],
      "name": "DEFAULT_ADMIN_ROLE",
      "outputs": [
        {
          "internalType": "bytes32",
          "name": "",
          "type": "bytes32"
        }
      ],
      "stateMutability": "view",
      "type": "function"
    },
    {
      "inputs": [],
      "name": "FISK_FACTOR_DM",
      "outputs": [
        {
          "internalType": "uint256",
          "name": "",
          "type": "uint256"
        }
      ],
      "stateMutability": "view",
      "type": "function"
    },
    {
      "inputs": [],
      "name": "FREE_RIDER_ROLE",
      "outputs": [
        {
          "internalType": "bytes32",
          "name": "",
          "type": "bytes32"
        }
      ],
      "stateMutability": "view",
      "type": "function"
    },
    {
      "inputs": [],
      "name": "LIQ_DELTA_DM",
      "outputs": [
        {
          "internalType": "uint256",
          "name": "",
          "type": "uint256"
        }
      ],
      "stateMutability": "view",
      "type": "function"
    },
    {
      "inputs": [],
      "name": "PORTFOLIO_AGENT_ROLE",
      "outputs": [
        {
          "internalType": "bytes32",
          "name": "",
          "type": "bytes32"
        }
      ],
      "stateMutability": "view",
      "type": "function"
    },
    {
      "inputs": [],
      "name": "UNIT_ROLE",
      "outputs": [
        {
          "internalType": "bytes32",
          "name": "",
          "type": "bytes32"
        }
      ],
      "stateMutability": "view",
      "type": "function"
    },
    {
      "inputs": [],
      "name": "abroadMax",
      "outputs": [
        {
          "internalType": "uint256",
          "name": "",
          "type": "uint256"
        }
      ],
      "stateMutability": "view",
      "type": "function"
    },
    {
      "inputs": [],
      "name": "abroadMin",
      "outputs": [
        {
          "internalType": "uint256",
          "name": "",
          "type": "uint256"
        }
      ],
      "stateMutability": "view",
      "type": "function"
    },
    {
      "inputs": [],
      "name": "blockGetter",
      "outputs": [
        {
          "internalType": "address",
          "name": "",
          "type": "address"
        }
      ],
      "stateMutability": "view",
      "type": "function"
    },
    {
      "inputs": [
        {
          "internalType": "address",
          "name": "_asset",
          "type": "address"
        },
        {
          "internalType": "uint256",
          "name": "_amount",
          "type": "uint256"
        }
      ],
      "name": "buy",
      "outputs": [
        {
          "internalType": "uint256",
          "name": "",
          "type": "uint256"
        }
      ],
      "stateMutability": "nonpayable",
      "type": "function"
    },
    {
      "inputs": [],
      "name": "buyFee",
      "outputs": [
        {
          "internalType": "uint256",
          "name": "",
          "type": "uint256"
        }
      ],
      "stateMutability": "view",
      "type": "function"
    },
    {
      "inputs": [],
      "name": "buyFeeDenominator",
      "outputs": [
        {
          "internalType": "uint256",
          "name": "",
          "type": "uint256"
        }
      ],
      "stateMutability": "view",
      "type": "function"
    },
    {
      "inputs": [],
      "name": "changeAdminRoles",
      "outputs": [],
      "stateMutability": "nonpayable",
      "type": "function"
    },
    {
      "inputs": [],
      "name": "compensateLoss",
      "outputs": [
        {
          "internalType": "uint256",
          "name": "",
          "type": "uint256"
        }
      ],
      "stateMutability": "view",
      "type": "function"
    },
    {
      "inputs": [],
      "name": "compensateLossDenominator",
      "outputs": [
        {
          "internalType": "uint256",
          "name": "",
          "type": "uint256"
        }
      ],
      "stateMutability": "view",
      "type": "function"
    },
    {
      "inputs": [
        {
          "internalType": "bytes32",
          "name": "role",
          "type": "bytes32"
        }
      ],
      "name": "getRoleAdmin",
      "outputs": [
        {
          "internalType": "bytes32",
          "name": "",
          "type": "bytes32"
        }
      ],
      "stateMutability": "view",
      "type": "function"
    },
    {
      "inputs": [
        {
          "internalType": "bytes32",
          "name": "role",
          "type": "bytes32"
        },
        {
          "internalType": "address",
          "name": "account",
          "type": "address"
        }
      ],
      "name": "grantRole",
      "outputs": [],
      "stateMutability": "nonpayable",
      "type": "function"
    },
    {
      "inputs": [
        {
          "internalType": "bytes32",
          "name": "role",
          "type": "bytes32"
        },
        {
          "internalType": "address",
          "name": "account",
          "type": "address"
        }
      ],
      "name": "hasRole",
      "outputs": [
        {
          "internalType": "bool",
          "name": "",
          "type": "bool"
        }
      ],
      "stateMutability": "view",
      "type": "function"
    },
    {
      "inputs": [],
      "name": "initialize",
      "outputs": [],
      "stateMutability": "nonpayable",
      "type": "function"
    },
    {
      "inputs": [],
      "name": "insurance",
      "outputs": [
        {
          "internalType": "address",
          "name": "",
          "type": "address"
        }
      ],
      "stateMutability": "view",
      "type": "function"
    },
    {
      "inputs": [],
      "name": "lastBlockNumber",
      "outputs": [
        {
          "internalType": "uint256",
          "name": "",
          "type": "uint256"
        }
      ],
      "stateMutability": "view",
      "type": "function"
    },
    {
      "inputs": [],
      "name": "mark2market",
      "outputs": [
        {
          "internalType": "contract IMark2Market",
          "name": "",
          "type": "address"
        }
      ],
      "stateMutability": "view",
      "type": "function"
    },
    {
      "inputs": [
        {
          "components": [
            {
              "internalType": "address",
              "name": "asset",
              "type": "address"
            },
            {
              "internalType": "uint256",
              "name": "amount",
              "type": "uint256"
            },
            {
              "internalType": "string",
              "name": "referral",
              "type": "string"
            }
          ],
          "internalType": "struct Exchange.MintParams",
          "name": "params",
          "type": "tuple"
        }
      ],
      "name": "mint",
      "outputs": [
        {
          "internalType": "uint256",
          "name": "",
          "type": "uint256"
        }
      ],
      "stateMutability": "nonpayable",
      "type": "function"
    },
    {
      "inputs": [],
      "name": "nextPayoutTime",
      "outputs": [
        {
          "internalType": "uint256",
          "name": "",
          "type": "uint256"
        }
      ],
      "stateMutability": "view",
      "type": "function"
    },
    {
      "inputs": [],
      "name": "oracleLoss",
      "outputs": [
        {
          "internalType": "uint256",
          "name": "",
          "type": "uint256"
        }
      ],
      "stateMutability": "view",
      "type": "function"
    },
    {
      "inputs": [],
      "name": "oracleLossDenominator",
      "outputs": [
        {
          "internalType": "uint256",
          "name": "",
          "type": "uint256"
        }
      ],
      "stateMutability": "view",
      "type": "function"
    },
    {
      "inputs": [],
      "name": "pause",
      "outputs": [],
      "stateMutability": "nonpayable",
      "type": "function"
    },
    {
      "inputs": [],
      "name": "paused",
      "outputs": [
        {
          "internalType": "bool",
          "name": "",
          "type": "bool"
        }
      ],
      "stateMutability": "view",
      "type": "function"
    },
    {
      "inputs": [],
      "name": "payout",
      "outputs": [],
      "stateMutability": "nonpayable",
      "type": "function"
    },
    {
      "inputs": [],
      "name": "payoutListener",
      "outputs": [
        {
          "internalType": "contract IPayoutListener",
          "name": "",
          "type": "address"
        }
      ],
      "stateMutability": "view",
      "type": "function"
    },
    {
      "inputs": [],
      "name": "payoutPeriod",
      "outputs": [
        {
          "internalType": "uint256",
          "name": "",
          "type": "uint256"
        }
      ],
      "stateMutability": "view",
      "type": "function"
    },
    {
      "inputs": [],
      "name": "payoutTimeRange",
      "outputs": [
        {
          "internalType": "uint256",
          "name": "",
          "type": "uint256"
        }
      ],
      "stateMutability": "view",
      "type": "function"
    },
    {
      "inputs": [],
      "name": "portfolioManager",
      "outputs": [
        {
          "internalType": "contract IPortfolioManager",
          "name": "",
          "type": "address"
        }
      ],
      "stateMutability": "view",
      "type": "function"
    },
    {
      "inputs": [],
      "name": "profitRecipient",
      "outputs": [
        {
          "internalType": "address",
          "name": "",
          "type": "address"
        }
      ],
      "stateMutability": "view",
      "type": "function"
    },
    {
      "inputs": [],
      "name": "proxiableUUID",
      "outputs": [
        {
          "internalType": "bytes32",
          "name": "",
          "type": "bytes32"
        }
      ],
      "stateMutability": "view",
      "type": "function"
    },
    {
      "inputs": [
        {
          "internalType": "address",
          "name": "_asset",
          "type": "address"
        },
        {
          "internalType": "uint256",
          "name": "_amount",
          "type": "uint256"
        }
      ],
      "name": "redeem",
      "outputs": [
        {
          "internalType": "uint256",
          "name": "",
          "type": "uint256"
        }
      ],
      "stateMutability": "nonpayable",
      "type": "function"
    },
    {
      "inputs": [],
      "name": "redeemFee",
      "outputs": [
        {
          "internalType": "uint256",
          "name": "",
          "type": "uint256"
        }
      ],
      "stateMutability": "view",
      "type": "function"
    },
    {
      "inputs": [],
      "name": "redeemFeeDenominator",
      "outputs": [
        {
          "internalType": "uint256",
          "name": "",
          "type": "uint256"
        }
      ],
      "stateMutability": "view",
      "type": "function"
    },
    {
      "inputs": [
        {
          "internalType": "bytes32",
          "name": "role",
          "type": "bytes32"
        },
        {
          "internalType": "address",
          "name": "account",
          "type": "address"
        }
      ],
      "name": "renounceRole",
      "outputs": [],
      "stateMutability": "nonpayable",
      "type": "function"
    },
    {
      "inputs": [
        {
          "internalType": "bytes32",
          "name": "role",
          "type": "bytes32"
        },
        {
          "internalType": "address",
          "name": "account",
          "type": "address"
        }
      ],
      "name": "revokeRole",
      "outputs": [],
      "stateMutability": "nonpayable",
      "type": "function"
    },
    {
      "inputs": [
        {
          "internalType": "uint256",
          "name": "_min",
          "type": "uint256"
        },
        {
          "internalType": "uint256",
          "name": "_max",
          "type": "uint256"
        }
      ],
      "name": "setAbroad",
      "outputs": [],
      "stateMutability": "nonpayable",
      "type": "function"
    },
    {
      "inputs": [
        {
          "internalType": "address",
          "name": "_blockGetter",
          "type": "address"
        }
      ],
      "name": "setBlockGetter",
      "outputs": [],
      "stateMutability": "nonpayable",
      "type": "function"
    },
    {
      "inputs": [
        {
          "internalType": "uint256",
          "name": "_fee",
          "type": "uint256"
        },
        {
          "internalType": "uint256",
          "name": "_feeDenominator",
          "type": "uint256"
        }
      ],
      "name": "setBuyFee",
      "outputs": [],
      "stateMutability": "nonpayable",
      "type": "function"
    },
    {
      "inputs": [
        {
          "internalType": "uint256",
          "name": "_compensateLoss",
          "type": "uint256"
        },
        {
          "internalType": "uint256",
          "name": "_denominator",
          "type": "uint256"
        }
      ],
      "name": "setCompensateLoss",
      "outputs": [],
      "stateMutability": "nonpayable",
      "type": "function"
    },
    {
      "inputs": [
        {
          "internalType": "address",
          "name": "_insurance",
          "type": "address"
        }
      ],
      "name": "setInsurance",
      "outputs": [],
      "stateMutability": "nonpayable",
      "type": "function"
    },
    {
      "inputs": [
        {
          "internalType": "address",
          "name": "_mark2market",
          "type": "address"
        }
      ],
      "name": "setMark2Market",
      "outputs": [],
      "stateMutability": "nonpayable",
      "type": "function"
    },
    {
      "inputs": [
        {
          "internalType": "uint256",
          "name": "_oracleLoss",
          "type": "uint256"
        },
        {
          "internalType": "uint256",
          "name": "_denominator",
          "type": "uint256"
        }
      ],
      "name": "setOracleLoss",
      "outputs": [],
      "stateMutability": "nonpayable",
      "type": "function"
    },
    {
      "inputs": [
        {
          "internalType": "address",
          "name": "_payoutListener",
          "type": "address"
        }
      ],
      "name": "setPayoutListener",
      "outputs": [],
      "stateMutability": "nonpayable",
      "type": "function"
    },
    {
      "inputs": [
        {
          "internalType": "uint256",
          "name": "_nextPayoutTime",
          "type": "uint256"
        },
        {
          "internalType": "uint256",
          "name": "_payoutPeriod",
          "type": "uint256"
        },
        {
          "internalType": "uint256",
          "name": "_payoutTimeRange",
          "type": "uint256"
        }
      ],
      "name": "setPayoutTimes",
      "outputs": [],
      "stateMutability": "nonpayable",
      "type": "function"
    },
    {
      "inputs": [
        {
          "internalType": "address",
          "name": "_portfolioManager",
          "type": "address"
        }
      ],
      "name": "setPortfolioManager",
      "outputs": [],
      "stateMutability": "nonpayable",
      "type": "function"
    },
    {
      "inputs": [
        {
          "internalType": "address",
          "name": "_profitRecipient",
          "type": "address"
        }
      ],
      "name": "setProfitRecipient",
      "outputs": [],
      "stateMutability": "nonpayable",
      "type": "function"
    },
    {
      "inputs": [
        {
          "internalType": "uint256",
          "name": "_fee",
          "type": "uint256"
        },
        {
          "internalType": "uint256",
          "name": "_feeDenominator",
          "type": "uint256"
        }
      ],
      "name": "setRedeemFee",
      "outputs": [],
      "stateMutability": "nonpayable",
      "type": "function"
    },
    {
      "inputs": [
        {
          "internalType": "address",
          "name": "_usdPlus",
          "type": "address"
        },
        {
          "internalType": "address",
          "name": "_asset",
          "type": "address"
        }
      ],
      "name": "setTokens",
      "outputs": [],
      "stateMutability": "nonpayable",
      "type": "function"
    },
    {
      "inputs": [
        {
          "internalType": "bytes4",
          "name": "interfaceId",
          "type": "bytes4"
        }
      ],
      "name": "supportsInterface",
      "outputs": [
        {
          "internalType": "bool",
          "name": "",
          "type": "bool"
        }
      ],
      "stateMutability": "view",
      "type": "function"
    },
    {
      "inputs": [],
      "name": "unpause",
      "outputs": [],
      "stateMutability": "nonpayable",
      "type": "function"
    },
    {
      "inputs": [
        {
          "internalType": "address",
          "name": "newImplementation",
          "type": "address"
        }
      ],
      "name": "upgradeTo",
      "outputs": [],
      "stateMutability": "nonpayable",
      "type": "function"
    },
    {
      "inputs": [
        {
          "internalType": "address",
          "name": "newImplementation",
          "type": "address"
        },
        {
          "internalType": "bytes",
          "name": "data",
          "type": "bytes"
        }
      ],
      "name": "upgradeToAndCall",
      "outputs": [],
      "stateMutability": "payable",
      "type": "function"
    },
    {
      "inputs": [],
      "name": "usdPlus",
      "outputs": [
        {
          "internalType": "contract TestToken",
          "name": "",
          "type": "address"
        }
      ],
      "stateMutability": "view",
      "type": "function"
    },
    {
      "inputs": [],
      "name": "usdc",
      "outputs": [
        {
          "internalType": "contract IERC20",
          "name": "",
          "type": "address"
        }
      ],
      "stateMutability": "view",
      "type": "function"
    }
  ],
  "numDeployments": 1,
  "solcInputHash": "871cc3b9f2161c38ef0bb5a779c8c2fe",
  "bytecode": "0x60a0604052306080523480156200001557600080fd5b50600054610100900460ff1615808015620000375750600054600160ff909116105b8062000067575062000054306200010860201b62002a2e1760201c565b15801562000067575060005460ff166001145b6200008f5760405162461bcd60e51b8152600401620000869062000117565b60405180910390fd5b6000805460ff191660011790558015620000b3576000805461ff0019166101001790555b801562000101576000805461ff00191690556040517f7f26b83ff96e1f2b6a682f133852f6798a09c465da95921460cefb384740249890620000f8906001906200018d565b60405180910390a15b506200019d565b6001600160a01b03163b151590565b602080825281016200016a81602e81527f496e697469616c697a61626c653a20636f6e747261637420697320616c72656160208201526d191e481a5b9a5d1a585b1a5e995960921b604082015260600190565b92915050565b600060ff82166200016a565b620001878162000170565b82525050565b602081016200016a82846200017c565b6080516150a1620001d560003960008181610f4201528181610f820152818161119c015281816111dc015261126b01526150a16000f3fe60806040526004361061038c5760003560e01c80636d8ebaa8116101dc578063a440b21a11610102578063ce1aa76b116100a0578063e3d9fc281161006f578063e3d9fc28146109e4578063f3869e8d146109fb578063f695169314610a1b578063fb0ecfa414610a3c57600080fd5b8063ce1aa76b1461097f578063cecbbc0714610996578063d31a1934146109ad578063d547741f146109c457600080fd5b8063bd2160c2116100dc578063bd2160c214610908578063c12e90e914610928578063cbc7854e1461093f578063cce7ec131461095f57600080fd5b8063a440b21a146108a8578063a4bb42a1146108c8578063bc56bebf146108e857600080fd5b806389cf32041161017a578063965fa21e11610149578063965fa21e146108455780639cca16d81461085c5780639d70c1291461087c578063a217fddf1461089357600080fd5b806389cf3204146107c45780638c754ef1146107e557806391d14854146108055780639629300c1461082557600080fd5b80637c5261d8116101b65780637c5261d8146107625780637e2bad1e146107795780638129fc1c1461079a5780638456cb59146107af57600080fd5b80636d8ebaa8146107125780637559c32914610729578063771d147e1461074b57600080fd5b80633e413bee116102c157806352d1902d1161025f578063620b75df1161022e578063620b75df146106a557806362f09895146106c657806363bd1d4a146106dd5780636cd7751f146106f257600080fd5b806352d1902d146106415780635c975abb146106565780635d8658b11461066e5780635dbd733a1461068357600080fd5b80634795084f1161029b5780634795084f146105cb578063497d9192146105eb5780634f1ef2861461060d578063514e460a1461062057600080fd5b80633e413bee1461057e5780633f4ba83a1461059f57806347062402146105b457600080fd5b80632b78fe781161032e578063302056031161030857806330205603146104f057806336568abe1461051e5780633659cfe61461053e578063370447711461055e57600080fd5b80632b78fe78146104975780632d8cc004146104ae5780632f2ff15d146104d057600080fd5b80631e9a69501161036a5780631e9a695014610419578063248a9ca3146104395780632552317c1461046957806325990d631461048057600080fd5b806301ffc9a7146103915780631346c9e7146103c7578063182531f8146103eb575b600080fd5b34801561039d57600080fd5b506103b16103ac366004613c76565b610a5c565b6040516103be9190613ca1565b60405180910390f35b3480156103d357600080fd5b506103de6101405481565b6040516103be9190613cb5565b3480156103f757600080fd5b506101385461040c906001600160a01b031681565b6040516103be9190613cf3565b34801561042557600080fd5b506103de610434366004613d26565b610a93565b34801561044557600080fd5b506103de610454366004613d63565b60009081526065602052604090206001015490565b34801561047557600080fd5b506103de6101395481565b34801561048c57600080fd5b506103de61013f5481565b3480156104a357600080fd5b506103de61013a5481565b3480156104ba57600080fd5b506104ce6104c9366004613d84565b610e3a565b005b3480156104dc57600080fd5b506104ce6104eb366004613da6565b610ed8565b3480156104fc57600080fd5b5061014254610511906001600160a01b031681565b6040516103be9190613de2565b34801561052a57600080fd5b506104ce610539366004613da6565b610f02565b34801561054a57600080fd5b506104ce610559366004613df0565b610f38565b34801561056a57600080fd5b506104ce610579366004613df0565b611017565b34801561058a57600080fd5b5061012e5461040c906001600160a01b031681565b3480156105ab57600080fd5b506104ce6110bb565b3480156105c057600080fd5b506103de6101315481565b3480156105d757600080fd5b506104ce6105e6366004613df0565b6110f9565b3480156105f757600080fd5b506103de600080516020614fc583398151915281565b6104ce61061b366004613f0c565b611192565b34801561062c57600080fd5b5061012d5461040c906001600160a01b031681565b34801561064d57600080fd5b506103de61125e565b34801561066257600080fd5b5060fb5460ff166103b1565b34801561067a57600080fd5b506104ce6112bb565b34801561068f57600080fd5b506103de60008051602061500583398151915281565b3480156106b157600080fd5b5061012f5461040c906001600160a01b031681565b3480156106d257600080fd5b506103de6101325481565b3480156106e957600080fd5b506104ce61132e565b3480156106fe57600080fd5b506104ce61070d366004613df0565b611f90565b34801561071e57600080fd5b506103de6101355481565b34801561073557600080fd5b506103de600080516020614fe583398151915281565b34801561075757600080fd5b506103de620186a081565b34801561076e57600080fd5b506103de61013b5481565b34801561078557600080fd5b5061014154610511906001600160a01b031681565b3480156107a657600080fd5b506104ce612029565b3480156107bb57600080fd5b506104ce6121a6565b3480156107d057600080fd5b5061013c54610511906001600160a01b031681565b3480156107f157600080fd5b506104ce610800366004613df0565b6121e2565b34801561081157600080fd5b506103b1610820366004613da6565b612255565b34801561083157600080fd5b506103de610840366004613f75565b612280565b34801561085157600080fd5b506103de6101335481565b34801561086857600080fd5b506104ce610877366004613d84565b6123ed565b34801561088857600080fd5b506103de61013e5481565b34801561089f57600080fd5b506103de600081565b3480156108b457600080fd5b506104ce6108c3366004613df0565b61245f565b3480156108d457600080fd5b506104ce6108e3366004613df0565b6124f8565b3480156108f457600080fd5b506104ce610903366004613d84565b61256b565b34801561091457600080fd5b506104ce610923366004613d84565b6125fd565b34801561093457600080fd5b506103de6101345481565b34801561094b57600080fd5b506104ce61095a366004613fb0565b61268f565b34801561096b57600080fd5b506103de61097a366004613d26565b612766565b34801561098b57600080fd5b506103de6101365481565b3480156109a257600080fd5b506103de6101375481565b3480156109b957600080fd5b506103de620f424081565b3480156109d057600080fd5b506104ce6109df366004613da6565b612891565b3480156109f057600080fd5b506103de61013d5481565b348015610a0757600080fd5b506104ce610a16366004613fd2565b6128b6565b348015610a2757600080fd5b506101305461040c906001600160a01b031681565b348015610a4857600080fd5b506104ce610a57366004613d84565b61299c565b60006001600160e01b03198216637965db0b60e01b1480610a8d57506301ffc9a760e01b6001600160e01b03198316145b92915050565b6000610a9d612a3d565b610142546000906001600160a01b031615610b315761014260009054906101000a90046001600160a01b03166001600160a01b031663f2c9ecd86040518163ffffffff1660e01b8152600401602060405180830381865afa158015610b06573d6000803e3d6000fd5b505050506040513d601f19601f82011682018060405250810190610b2a919061402d565b9050610b34565b50435b610b4c600080516020614fe583398151915233612255565b610b7b57806101395410610b7b5760405162461bcd60e51b8152600401610b729061407a565b60405180910390fd5b61013981905561012e546001600160a01b03858116911614610baf5760405162461bcd60e51b8152600401610b72906140be565b60008311610bcf5760405162461bcd60e51b8152600401610b72906140fb565b6000610bda84612a60565b905060008111610bfc5760405162461bcd60e51b8152600401610b729061413f565b600080610c0a836000612bb7565b61012f54604051632e1a7d4d60e01b81529194509192506001600160a01b0390911690632e1a7d4d90610c41908490600401613cb5565b6020604051808303816000875af1158015610c60573d6000803e3d6000fd5b505050506040513d601f19601f82011682018060405250810190610c84919061402d565b5061012d54604051632770a7eb60e21b81526001600160a01b0390911690639dc29fac90610cb89033908a9060040161414f565b600060405180830381600087803b158015610cd257600080fd5b505af1158015610ce6573d6000803e3d6000fd5b505061012e546040516370a0823160e01b81528493506001600160a01b0390911691506370a0823190610d1d903090600401613de2565b602060405180830381865afa158015610d3a573d6000803e3d6000fd5b505050506040513d601f19601f82011682018060405250810190610d5e919061402d565b1015610d7c5760405162461bcd60e51b8152600401610b72906141ae565b61012e5460405163a9059cbb60e01b81526001600160a01b039091169063a9059cbb90610daf903390859060040161414f565b6020604051808303816000875af1158015610dce573d6000803e3d6000fd5b505050506040513d601f19601f82011682018060405250810190610df291906141d1565b507f5215f03b099407f64e52d76ef2416a46b32915d572e87db5d40282538ed36484818333604051610e269392919061420f565b60405180910390a1935050505b5092915050565b610e5260008051602061500583398151915233612255565b610e6e5760405162461bcd60e51b8152600401610b7290614291565b80600003610e8e5760405162461bcd60e51b8152600401610b72906142d5565b61013d82905561013e8190556040517ffd477784a91e10a1a8ac1832d94895eef49a29940452ad3635cc3e8eab77e4b790610ecc90849084906142e5565b60405180910390a15050565b600082815260656020526040902060010154610ef381612c3e565b610efd8383612c48565b505050565b6001600160a01b0381163314610f2a5760405162461bcd60e51b8152600401610b729061433f565b610f348282612cce565b5050565b6001600160a01b037f0000000000000000000000000000000000000000000000000000000000000000163003610f805760405162461bcd60e51b8152600401610b7290614398565b7f00000000000000000000000000000000000000000000000000000000000000006001600160a01b0316610fc9600080516020615025833981519152546001600160a01b031690565b6001600160a01b031614610fef5760405162461bcd60e51b8152600401610b72906143f1565b610ff881612d35565b6040805160008082526020820190925261101491839190612d40565b50565b611022600033612255565b61103e5760405162461bcd60e51b8152600401610b729061442c565b6001600160a01b0381166110645760405162461bcd60e51b8152600401610b7290614470565b61013080546001600160a01b0319166001600160a01b0383161790556040517f2387291c358bb5414b9fdcdfeb40efddb696908065a6533e47bf60b395f7dcfd906110b0908390613de2565b60405180910390a150565b6110d360008051602061500583398151915233612255565b6110ef5760405162461bcd60e51b8152600401610b7290614291565b6110f7612e22565b565b611104600033612255565b6111205760405162461bcd60e51b8152600401610b729061442c565b6001600160a01b0381166111465760405162461bcd60e51b8152600401610b7290614470565b61014180546001600160a01b0319166001600160a01b0383161790556040517f97519908572e1d17b754081a3fd2ac67644cf8cda617d672983db516e2308e7c906110b0908390613de2565b6001600160a01b037f00000000000000000000000000000000000000000000000000000000000000001630036111da5760405162461bcd60e51b8152600401610b7290614398565b7f00000000000000000000000000000000000000000000000000000000000000006001600160a01b0316611223600080516020615025833981519152546001600160a01b031690565b6001600160a01b0316146112495760405162461bcd60e51b8152600401610b72906143f1565b61125282612d35565b610f3482826001612d40565b6000306001600160a01b037f000000000000000000000000000000000000000000000000000000000000000016146112a85760405162461bcd60e51b8152600401610b72906144da565b5060008051602061502583398151915290565b6112c6600033612255565b6112e25760405162461bcd60e51b8152600401610b729061442c565b611308600080516020614fe5833981519152600080516020615005833981519152612e6e565b6110f7600080516020614fc5833981519152600080516020615005833981519152612e6e565b611336612a3d565b61134e600080516020614fc583398151915233612255565b61136a5760405162461bcd60e51b8152600401610b7290614513565b610135546101375461137c9042614539565b106110f75761012f60009054906101000a90046001600160a01b03166001600160a01b031663c6bbf4cb6040518163ffffffff1660e01b8152600401600060405180830381600087803b1580156113d257600080fd5b505af11580156113e6573d6000803e3d6000fd5b50505050600061012d60009054906101000a90046001600160a01b03166001600160a01b03166318160ddd6040518163ffffffff1660e01b8152600401602060405180830381865afa158015611440573d6000803e3d6000fd5b505050506040513d601f19601f82011682018060405250810190611464919061402d565b9050600081905060006114ed61013060009054906101000a90046001600160a01b03166001600160a01b031663890a8c4f6040518163ffffffff1660e01b8152600401602060405180830381865afa1580156114c4573d6000803e3d6000fd5b505050506040513d601f19601f820116820180604052508101906114e8919061402d565b612eb9565b90506000806000806000858811156115ed57611509868961454c565b9250600061013e5461013d548a611520919061455f565b61152a919061458d565b905080841161154b5760405162461bcd60e51b8152600401610b72906145c2565b6101405461013f5461155d908b61455f565b611567919061458d565b6115719085614539565b935061157c84612a60565b935061012f60009054906101000a90046001600160a01b03166001600160a01b031663d0e30db06040518163ffffffff1660e01b8152600401600060405180830381600087803b1580156115cf57600080fd5b505af11580156115e3573d6000803e3d6000fd5b5050505050611af4565b61168f620186a061012f60009054906101000a90046001600160a01b03166001600160a01b0316634953bd076040518163ffffffff1660e01b8152600401602060405180830381865afa158015611648573d6000803e3d6000fd5b505050506040513d601f19601f8201168201806040525081019061166c919061402d565b6116768b8a61454c565b611680919061455f565b61168a919061458d565b612a60565b935083156118015761012f54604051632e1a7d4d60e01b81526001600160a01b0390911690632e1a7d4d906116c8908790600401613cb5565b6020604051808303816000875af11580156116e7573d6000803e3d6000fd5b505050506040513d601f19601f8201168201806040525081019061170b919061402d565b5061012e5461013c5460405163a9059cbb60e01b81526001600160a01b039283169263a9059cbb9261174492911690889060040161414f565b6020604051808303816000875af1158015611763573d6000803e3d6000fd5b505050506040513d601f19601f8201168201806040525081019061178791906141d1565b5061013c5460405163c839f15f60e01b81526001600160a01b039091169063c839f15f906117b9908790600401613cb5565b600060405180830381600087803b1580156117d357600080fd5b505af11580156117e7573d6000803e3d6000fd5b505050506117f484612eb9565b6117fe908761454c565b95505b61012d546040805163b1bf962d60e01b81529051611880926001600160a01b03169163b1bf962d9160048083019260209291908290030181865afa15801561184d573d6000803e3d6000fd5b505050506040513d601f19601f82011682018060405250810190611871919061402d565b61187a88612ffe565b9061303d565b915061012d60009054906101000a90046001600160a01b03166001600160a01b031663bbf44f336040518163ffffffff1660e01b8152600401602060405180830381865afa1580156118d6573d6000803e3d6000fd5b505050506040513d601f19601f820116820180604052508101906118fa919061402d565b611907620f42408461455f565b611911919061458d565b90508061013b541015611af45761012d546040805163bbf44f3360e01b815290516000926001600160a01b03169163bbf44f339160048083019260209291908290030181865afa158015611969573d6000803e3d6000fd5b505050506040513d601f19601f8201168201806040525081019061198d919061402d565b90506000620f42408261013b546119a4919061455f565b6119ae919061458d565b905060006119bf8261187a8b612ffe565b9050600061012d60009054906101000a90046001600160a01b03166001600160a01b031663b1bf962d6040518163ffffffff1660e01b8152600401602060405180830381865afa158015611a17573d6000803e3d6000fd5b505050506040513d601f19601f82011682018060405250810190611a3b919061402d565b611a45908361454c565b9050611a59611a5482866130ec565b613152565b610141549099506001600160a01b0316611a855760405162461bcd60e51b8152600401610b7290614606565b61012d54610141546040516340c10f1960e01b81526001600160a01b03928316926340c10f1992611abd929116908d9060040161414f565b600060405180830381600087803b158015611ad757600080fd5b505af1158015611aeb573d6000803e3d6000fd5b50505050505050505b61012d60009054906101000a90046001600160a01b03166001600160a01b03166318160ddd6040518163ffffffff1660e01b8152600401602060405180830381865afa158015611b48573d6000803e3d6000fd5b505050506040513d601f19601f82011682018060405250810190611b6c919061402d565b9750611bc561013060009054906101000a90046001600160a01b03166001600160a01b031663890a8c4f6040518163ffffffff1660e01b8152600401602060405180830381865afa1580156114c4573d6000803e3d6000fd5b9550611c1e61012d60009054906101000a90046001600160a01b03166001600160a01b031663b1bf962d6040518163ffffffff1660e01b8152600401602060405180830381865afa15801561184d573d6000803e3d6000fd5b915061012d60009054906101000a90046001600160a01b03166001600160a01b031663bbf44f336040518163ffffffff1660e01b8152600401602060405180830381865afa158015611c74573d6000803e3d6000fd5b505050506040513d601f19601f82011682018060405250810190611c98919061402d565b611ca5620f42408461455f565b611caf919061458d565b90506000611cbd898861454c565b9050600086611ccc838b614539565b611cd69190614539565b61012d5460405163b2be259160e01b81529192506001600160a01b03169063b2be259190611d08908790600401613cb5565b600060405180830381600087803b158015611d2257600080fd5b505af1158015611d36573d6000803e3d6000fd5b505050508761012d60009054906101000a90046001600160a01b03166001600160a01b03166318160ddd6040518163ffffffff1660e01b8152600401602060405180830381865afa158015611d8f573d6000803e3d6000fd5b505050506040513d601f19601f82011682018060405250810190611db3919061402d565b14611dd05760405162461bcd60e51b8152600401610b7290614639565b61012d54604080516318160ddd60e01b8152905183926001600160a01b0316916318160ddd9160048083019260209291908290030181865afa158015611e1a573d6000803e3d6000fd5b505050506040513d601f19601f82011682018060405250810190611e3e919061402d565b14611e5b5760405162461bcd60e51b8152600401610b7290614671565b610138546001600160a01b031615611ed75761013860009054906101000a90046001600160a01b03166001600160a01b031663f14a74386040518163ffffffff1660e01b8152600401600060405180830381600087803b158015611ebe57600080fd5b505af1158015611ed2573d6000803e3d6000fd5b505050505b7f8dd3783ac3ed2cabfce0fa4347c2cab93b8273171a7e30b28a83147b099c40388285898989604051611f0e959493929190614681565b60405180910390a15b6101375461013554611f29919061454c565b4210611f4a576101365461013554611f419190614539565b61013555611f17565b7f6654b7187a0560c4c326844142156c2adf52738d0a615487e0e2a5cd9823c2c461013554604051611f7c9190613cb5565b60405180910390a150505050505050505050565b611f9b600033612255565b611fb75760405162461bcd60e51b8152600401610b729061442c565b6001600160a01b038116611fdd5760405162461bcd60e51b8152600401610b7290614470565b61013c80546001600160a01b0319166001600160a01b0383161790556040517f85a0f0b1d49c1f8eb76d236b1f5cdbb4acb94862ea575640d7399ae8530b0760906110b0908390613de2565b600054610100900460ff16158080156120495750600054600160ff909116105b806120635750303b158015612063575060005460ff166001145b61207f5760405162461bcd60e51b8152600401610b7290614718565b6000805460ff1916600117905580156120a2576000805461ff0019166101001790555b6120aa6131a2565b6120b26131c9565b6120ba6131a2565b6120c5600033612c48565b6028610131819055620186a06101328190556101339190915561013455636195978061013555620151806101365561038461013755620f42a461013a55620f439e61013b55612130600080516020614fe5833981519152600080516020615005833981519152612e6e565b612156600080516020614fc5833981519152600080516020615005833981519152612e6e565b620186a061013e819055610140558015611014576000805461ff00191690556040517f7f26b83ff96e1f2b6a682f133852f6798a09c465da95921460cefb3847402498906110b09060019061473c565b6121be60008051602061500583398151915233612255565b6121da5760405162461bcd60e51b8152600401610b7290614291565b6110f76131f8565b6121ed600033612255565b6122095760405162461bcd60e51b8152600401610b729061442c565b61014280546001600160a01b0319166001600160a01b0383161790556040517f2836b367ff6dd5ad0072110d2cabfe7150e1dd4e4571aefaacb20936a2fa2d6a906110b0908390613de2565b60009182526065602090815260408084206001600160a01b0393909316845291905290205460ff1690565b600061228a612a3d565b610142546000906001600160a01b03161561231e5761014260009054906101000a90046001600160a01b03166001600160a01b031663f2c9ecd86040518163ffffffff1660e01b8152600401602060405180830381865afa1580156122f3573d6000803e3d6000fd5b505050506040513d601f19601f82011682018060405250810190612317919061402d565b9050612321565b50435b612339600080516020614fe583398151915233612255565b61235f5780610139541061235f5760405162461bcd60e51b8152600401610b729061407a565b6101398190556040805180820190915260058152646d696e742160d81b602082015261238a90613235565b6123e661239a6020850185613df0565b60208501356123ac604087018761474a565b8080601f01602080910402602001604051908101604052809392919081815260200183838082843760009201919091525061327892505050565b9392505050565b61240560008051602061500583398151915233612255565b6124215760405162461bcd60e51b8152600401610b7290614291565b61013a82905561013b8190556040517f164d29c07aa1410447214bda4ceeae682b23796531b6b4d1d674f72953aa7f6590610ecc90849084906142e5565b61246a600033612255565b6124865760405162461bcd60e51b8152600401610b729061442c565b6001600160a01b0381166124ac5760405162461bcd60e51b8152600401610b7290614470565b61012f80546001600160a01b0319166001600160a01b0383161790556040517ff7b449fcd5cfb7379dcd34cb69428dd9f882033b15be33d83b42d91daa28eeb7906110b0908390613de2565b612503600033612255565b61251f5760405162461bcd60e51b8152600401610b729061442c565b61013880546001600160a01b0319166001600160a01b0383161790556040517fc388495b5a8a549e1885691ef3b8b1cb2b97a91365bbc9f26f488d28caaab84d906110b0908390613de2565b61258360008051602061500583398151915233612255565b61259f5760405162461bcd60e51b8152600401610b7290614291565b806000036125bf5760405162461bcd60e51b8152600401610b72906142d5565b6101338290556101348190556040517f9fb7dbd1f2c1bd33dd68f78a38f699ff1ca487d7a7211ecc7df31d919f52043d90610ecc90849084906142e5565b61261560008051602061500583398151915233612255565b6126315760405162461bcd60e51b8152600401610b7290614291565b806000036126515760405162461bcd60e51b8152600401610b72906142d5565b61013f8290556101408190556040517f40406e80205f7a30d291067fc0c9c2b1c8715c2e7e8941c5d49feb4dc64f049b90610ecc90849084906142e5565b61269a600033612255565b6126b65760405162461bcd60e51b8152600401610b729061442c565b6001600160a01b0382166126dc5760405162461bcd60e51b8152600401610b7290614470565b6001600160a01b0381166127025760405162461bcd60e51b8152600401610b7290614470565b61012d80546001600160a01b038085166001600160a01b03199283161790925561012e8054928416929091169190911790556040517fdcc6331013de89f8c595d5328f0a724194f113cb6f8f2a707b3dff6de13f0d1790610ecc90849084906147a9565b6000612770612a3d565b610142546000906001600160a01b0316156128045761014260009054906101000a90046001600160a01b03166001600160a01b031663f2c9ecd86040518163ffffffff1660e01b8152600401602060405180830381865afa1580156127d9573d6000803e3d6000fd5b505050506040513d601f19601f820116820180604052508101906127fd919061402d565b9050612807565b50435b61281f600080516020614fe583398151915233612255565b612845578061013954106128455760405162461bcd60e51b8152600401610b729061407a565b6101398190556040805180820190915260048152636275792160e01b602082015261286f90613235565b612889848460405180602001604052806000815250613278565b949350505050565b6000828152606560205260409020600101546128ac81612c3e565b610efd8383612cce565b6128ce60008051602061500583398151915233612255565b6128ea5760405162461bcd60e51b8152600401610b7290614291565b8260000361290a5760405162461bcd60e51b8152600401610b72906147f6565b8160000361292a5760405162461bcd60e51b8152600401610b729061483a565b8083116129495760405162461bcd60e51b8152600401610b729061489a565b6101358390556101368290556101378190556040517f182705f356ea3bbbd12c7b4761586a554d391a7703345f81166bbe3f946444999061298f908590859085906148aa565b60405180910390a1505050565b6129b460008051602061500583398151915233612255565b6129d05760405162461bcd60e51b8152600401610b7290614291565b806000036129f05760405162461bcd60e51b8152600401610b72906142d5565b6101318290556101328190556040517f28e297c7c282931a994191b735b01eaf17558295f761512a7047f4e1b8dc3b0b90610ecc90849084906142e5565b6001600160a01b03163b151590565b60fb5460ff16156110f75760405162461bcd60e51b8152600401610b72906148f9565b60008061012e60009054906101000a90046001600160a01b03166001600160a01b031663313ce5676040518163ffffffff1660e01b8152600401602060405180830381865afa158015612ab7573d6000803e3d6000fd5b505050506040513d601f19601f82011682018060405250810190612adb919061491d565b60ff169050600061012d60009054906101000a90046001600160a01b03166001600160a01b031663313ce5676040518163ffffffff1660e01b8152600401602060405180830381865afa158015612b36573d6000803e3d6000fd5b505050506040513d601f19601f82011682018060405250810190612b5a919061491d565b60ff16905080821115612b8d57612b71818361454c565b612b7c90600a614a4c565b612b86908561455f565b9350612baf565b612b97828261454c565b612ba290600a614a4c565b612bac908561458d565b93505b509192915050565b600080600083612bca5761013354612bcf565b610131545b9050600084612be15761013454612be6565b610132545b9050600080612c03600080516020614fe583398151915233612255565b612c2f5782612c12858a61455f565b612c1c919061458d565b9150612c28828961454c565b9050612c32565b50865b97909650945050505050565b61101481336137cd565b612c528282612255565b610f345760008281526065602090815260408083206001600160a01b03851684529091529020805460ff19166001179055612c8a3390565b6001600160a01b0316816001600160a01b0316837f2f8788117e7eff1d82e926ec794901d17c78024a50270940304540a733656f0d60405160405180910390a45050565b612cd88282612255565b15610f345760008281526065602090815260408083206001600160a01b0385168085529252808320805460ff1916905551339285917ff6391f5c32d9c69d2a47ea670b442974b53935d1edc7fd64eb21e047a839171b9190a45050565b6000610f3481612c3e565b7f4910fdfa16fed3260ed0e7147f7cc6da11a60208b5b9406d12a635614ffd91435460ff1615612d7357610efd83613826565b826001600160a01b03166352d1902d6040518163ffffffff1660e01b8152600401602060405180830381865afa925050508015612dcd575060408051601f3d908101601f19168201909252612dca9181019061402d565b60015b612de95760405162461bcd60e51b8152600401610b7290614aa6565b6000805160206150258339815191528114612e165760405162461bcd60e51b8152600401610b7290614afc565b50610efd83838361387c565b612e2a6138a7565b60fb805460ff191690557f5db9ee0a495bf2e6ff9c91a7834c1ba4fdd244a5e8aa4e537bd38aeae4b073aa335b604051612e649190613de2565b60405180910390a1565b600082815260656020526040808220600101805490849055905190918391839186917fbd79b86ffe0ab8e8776151514217cd7cacd52c909f66475c3af44e129f0b00ff9190a4505050565b60008061012e60009054906101000a90046001600160a01b03166001600160a01b031663313ce5676040518163ffffffff1660e01b8152600401602060405180830381865afa158015612f10573d6000803e3d6000fd5b505050506040513d601f19601f82011682018060405250810190612f34919061491d565b60ff169050600061012d60009054906101000a90046001600160a01b03166001600160a01b031663313ce5676040518163ffffffff1660e01b8152600401602060405180830381865afa158015612f8f573d6000803e3d6000fd5b505050506040513d601f19601f82011682018060405250810190612fb3919061491d565b60ff16905080821115612fdf57612fca818361454c565b612fd590600a614a4c565b612b86908561458d565b612fe9828261454c565b612ff490600a614a4c565b612bac908561455f565b60008061300f633b9aca008461455f565b905082613020633b9aca008361458d565b14610a8d5760405162461bcd60e51b8152600401610b7290614b4c565b60008160000361305f5760405162461bcd60e51b8152600401610b7290614b90565b8260000361306f57506000610a8d565b600061307c60028461458d565b90506b033b2e3c9fd0803ce80000006130978260001961454c565b6130a1919061458d565b8411156130c05760405162461bcd60e51b8152600401610b7290614b4c565b82816130d86b033b2e3c9fd0803ce80000008761455f565b6130e29190614539565b612889919061458d565b60008215806130f9575081155b1561310657506000610a8d565b6131128260001961458d565b8311156131315760405162461bcd60e51b8152600401610b7290614b4c565b6b033b2e3c9fd0803ce8000000613148838561455f565b6123e6919061458d565b6000806131646002633b9aca0061458d565b905060006131728483614539565b9050818110156131945760405162461bcd60e51b8152600401610b7290614bd4565b612889633b9aca008261458d565b600054610100900460ff166110f75760405162461bcd60e51b8152600401610b7290614c2c565b600054610100900460ff166131f05760405162461bcd60e51b8152600401610b7290614c2c565b6110f76138c9565b613200612a3d565b60fb805460ff191660011790557f62e78cea01bee320cd4e420270b5ea74000d11b0c9f74754ebdbfc544b05a258612e573390565b611014816040516024016132499190614c92565b60408051601f198184030181529190526020810180516001600160e01b031663104c13eb60e21b1790526138fc565b60006132b86040518060400160405280601c81526020017f646f696e672061206d696e742f627579206f6e2065786368616e676500000000815250613235565b6132c18461391d565b61012e546132d7906001600160a01b031661391d565b6132e083613960565b6133106040518060400160405280600f81526020016e31bab93932b73a3130b630b731b29d60891b815250613235565b61012e546040516370a0823160e01b8152613389916001600160a01b0316906370a0823190613343903390600401613de2565b602060405180830381865afa158015613360573d6000803e3d6000fd5b505050506040513d601f19601f82011682018060405250810190613384919061402d565b613960565b61012e546001600160a01b038581169116146133b75760405162461bcd60e51b8152600401610b7290614cd7565b61012e546040516370a0823160e01b81526000916001600160a01b0316906370a08231906133e9903390600401613de2565b602060405180830381865afa158015613406573d6000803e3d6000fd5b505050506040513d601f19601f8201168201806040525081019061342a919061402d565b90508381101561344c5760405162461bcd60e51b8152600401610b7290614d1b565b6000841161346c5760405162461bcd60e51b8152600401610b729061413f565b600061347785612eb9565b90506134a76040518060400160405280600d81526020016c1d5cd9141b1d5cd05b5bdd5b9d609a1b815250613235565b6134b081613960565b600081116134d05760405162461bcd60e51b8152600401610b72906140fb565b61012e5461012f546040516370a0823160e01b815260009288926001600160a01b03918216926370a082319261350a921690600401613de2565b602060405180830381865afa158015613527573d6000803e3d6000fd5b505050506040513d601f19601f8201168201806040525081019061354b919061402d565b6135559190614539565b61012e5461012f546040516323b872dd60e01b81529293506001600160a01b03918216926323b872dd926135929233929116908b90600401614d2b565b6020604051808303816000875af11580156135b1573d6000803e3d6000fd5b505050506040513d601f19601f820116820180604052508101906135d591906141d1565b5061012e5461012f546040516370a0823160e01b815283926001600160a01b03908116926370a082319261360f9290911690600401613de2565b602060405180830381865afa15801561362c573d6000803e3d6000fd5b505050506040513d601f19601f82011682018060405250810190613650919061402d565b1461366d5760405162461bcd60e51b8152600401610b7290614d71565b6136a26040518060400160405280601481526020017363616c6c696e6720706d2e6465706f736974282960601b815250613235565b61012f60009054906101000a90046001600160a01b03166001600160a01b031663d0e30db06040518163ffffffff1660e01b8152600401600060405180830381600087803b1580156136f357600080fd5b505af1158015613707573d6000803e3d6000fd5b50505050600080613719846001612bb7565b61012d546040516340c10f1960e01b81529194509192506001600160a01b03909116906340c10f1990613752903390859060040161414f565b600060405180830381600087803b15801561376c57600080fd5b505af1158015613780573d6000803e3d6000fd5b505050507f5215f03b099407f64e52d76ef2416a46b32915d572e87db5d40282538ed364848183338a6040516137b99493929190614d9c565b60405180910390a198975050505050505050565b6137d78282612255565b610f34576137e4816139a3565b6137ef8360206139b5565b604051602001613800929190614e09565b60408051601f198184030181529082905262461bcd60e51b8252610b7291600401614c92565b6001600160a01b0381163b61384d5760405162461bcd60e51b8152600401610b7290614eab565b60008051602061502583398151915280546001600160a01b0319166001600160a01b0392909216919091179055565b61388583613b21565b6000825111806138925750805b15610efd576138a18383613b61565b50505050565b60fb5460ff166110f75760405162461bcd60e51b8152600401610b7290614ee6565b600054610100900460ff166138f05760405162461bcd60e51b8152600401610b7290614c2c565b60fb805460ff19169055565b80516a636f6e736f6c652e6c6f67602083016000808483855afa5050505050565b611014816040516024016139319190613de2565b60408051601f198184030181529190526020810180516001600160e01b031663161765e160e11b1790526138fc565b611014816040516024016139749190613cb5565b60408051601f198184030181529190526020810180516001600160e01b031663f82c50f160e01b1790526138fc565b6060610a8d6001600160a01b03831660145b606060006139c483600261455f565b6139cf906002614539565b67ffffffffffffffff8111156139e7576139e7613e11565b6040519080825280601f01601f191660200182016040528015613a11576020820181803683370190505b509050600360fc1b81600081518110613a2c57613a2c614ef6565b60200101906001600160f81b031916908160001a905350600f60fb1b81600181518110613a5b57613a5b614ef6565b60200101906001600160f81b031916908160001a9053506000613a7f84600261455f565b613a8a906001614539565b90505b6001811115613b02576f181899199a1a9b1b9c1cb0b131b232b360811b85600f1660108110613abe57613abe614ef6565b1a60f81b828281518110613ad457613ad4614ef6565b60200101906001600160f81b031916908160001a90535060049490941c93613afb81614f0c565b9050613a8d565b5083156123e65760405162461bcd60e51b8152600401610b7290614f55565b613b2a81613826565b6040516001600160a01b038216907fbc7cd75a20ee27fd9adebab32041f755214dbc6bffa90cc0225b39da2e5c2d3b90600090a250565b60606001600160a01b0383163b613b8a5760405162461bcd60e51b8152600401610b7290614fa8565b600080846001600160a01b031684604051613ba59190614fb8565b600060405180830381855af49150503d8060008114613be0576040519150601f19603f3d011682016040523d82523d6000602084013e613be5565b606091505b5091509150613c0d828260405180606001604052806027815260200161504560279139613c16565b95945050505050565b60608315613c255750816123e6565b6123e68383815115613c3a5781518083602001fd5b8060405162461bcd60e51b8152600401610b729190614c92565b6001600160e01b031981165b811461101457600080fd5b8035610a8d81613c54565b600060208284031215613c8b57613c8b600080fd5b60006128898484613c6b565b8015155b82525050565b60208101610a8d8284613c97565b80613c9b565b60208101610a8d8284613caf565b60006001600160a01b038216610a8d565b6000610a8d82613cc3565b6000610a8d82613cd4565b613c9b81613cdf565b60208101610a8d8284613cea565b613c6081613cc3565b8035610a8d81613d01565b80613c60565b8035610a8d81613d15565b60008060408385031215613d3c57613d3c600080fd5b6000613d488585613d0a565b9250506020613d5985828601613d1b565b9150509250929050565b600060208284031215613d7857613d78600080fd5b60006128898484613d1b565b60008060408385031215613d9a57613d9a600080fd5b6000613d488585613d1b565b60008060408385031215613dbc57613dbc600080fd5b6000613dc88585613d1b565b9250506020613d5985828601613d0a565b613c9b81613cc3565b60208101610a8d8284613dd9565b600060208284031215613e0557613e05600080fd5b60006128898484613d0a565b634e487b7160e01b600052604160045260246000fd5b601f19601f830116810181811067ffffffffffffffff82111715613e4d57613e4d613e11565b6040525050565b6000613e5f60405190565b9050613e6b8282613e27565b919050565b600067ffffffffffffffff821115613e8a57613e8a613e11565b601f19601f83011660200192915050565b82818337506000910152565b6000613eba613eb584613e70565b613e54565b905082815260208101848484011115613ed557613ed5600080fd5b613ee0848285613e9b565b509392505050565b600082601f830112613efc57613efc600080fd5b8135612889848260208601613ea7565b60008060408385031215613f2257613f22600080fd5b6000613f2e8585613d0a565b925050602083013567ffffffffffffffff811115613f4e57613f4e600080fd5b613d5985828601613ee8565b600060608284031215613f6f57613f6f600080fd5b50919050565b600060208284031215613f8a57613f8a600080fd5b813567ffffffffffffffff811115613fa457613fa4600080fd5b61288984828501613f5a565b60008060408385031215613fc657613fc6600080fd5b6000613dc88585613d0a565b600080600060608486031215613fea57613fea600080fd5b6000613ff68686613d1b565b935050602061400786828701613d1b565b925050604061401886828701613d1b565b9150509250925092565b8051610a8d81613d15565b60006020828403121561404257614042600080fd5b60006128898484614022565b60128152600060208201714f6e6c79206f6e636520696e20626c6f636b60701b815291505b5060200190565b60208082528101610a8d8161404e565b601f81526000602082017f4f6e6c7920617373657420617661696c61626c6520666f722072656465656d0081529150614073565b60208082528101610a8d8161408a565b6016815260006020820175416d6f756e74206f66205553442b206973207a65726f60501b81529150614073565b60208082528101610a8d816140ce565b601781526000602082017f416d6f756e74206f66206173736574206973207a65726f00000000000000000081529150614073565b60208082528101610a8d8161410b565b6040810161415d8285613dd9565b6123e66020830184613caf565b602481526000602082017f4e6f7420656e6f75676820666f72207472616e736665722072656465656d416d8152631bdd5b9d60e21b602082015291505b5060400190565b60208082528101610a8d8161416a565b801515613c60565b8051610a8d816141be565b6000602082840312156141e6576141e6600080fd5b600061288984846141c6565b600681526000602082016572656465656d60d01b81529150614073565b60a0808252810161421f816141f2565b905061422e6020830186613caf565b61423b6040830185613caf565b6142486060830184613dd9565b81810360808301526000815260208101613c0d565b601d81526000602082017f5265737472696374656420746f20506f7274666f6c696f204167656e7400000081529150614073565b60208082528101610a8d8161425d565b601c81526000602082017f5a65726f2064656e6f6d696e61746f72206e6f7420616c6c6f7765640000000081529150614073565b60208082528101610a8d816142a1565b6040810161415d8285613caf565b602f81526000602082017f416363657373436f6e74726f6c3a2063616e206f6e6c792072656e6f756e636581526e103937b632b9903337b91039b2b63360891b602082015291506141a7565b60208082528101610a8d816142f3565b602c81526000602082017f46756e6374696f6e206d7573742062652063616c6c6564207468726f7567682081526b19195b1959d85d1958d85b1b60a21b602082015291506141a7565b60208082528101610a8d8161434f565b602c81526000602082017f46756e6374696f6e206d7573742062652063616c6c6564207468726f7567682081526b6163746976652070726f787960a01b602082015291506141a7565b60208082528101610a8d816143a8565b60148152600060208201735265737472696374656420746f2061646d696e7360601b81529150614073565b60208082528101610a8d81614401565b601881526000602082017f5a65726f2061646472657373206e6f7420616c6c6f776564000000000000000081529150614073565b60208082528101610a8d8161443c565b603881526000602082017f555550535570677261646561626c653a206d757374206e6f742062652063616c81527f6c6564207468726f7567682064656c656761746563616c6c0000000000000000602082015291506141a7565b60208082528101610a8d81614480565b601281526000602082017114995cdd1c9a58dd1959081d1bc8155b9a5d60721b81529150614073565b60208082528101610a8d816144ea565b634e487b7160e01b600052601160045260246000fd5b80820180821115610a8d57610a8d614523565b81810381811115610a8d57610a8d614523565b818102808215838204851417610e3357610e33614523565b634e487b7160e01b600052601260045260246000fd5b60008261459c5761459c614577565b500490565b600a8152600060208201694f7261636c654c6f737360b01b81529150614073565b60208082528101610a8d816145a1565b601f81526000602082017f70726f666974526563697069656e742061646472657373206973207a65726f0081529150614073565b60208082528101610a8d816145d2565b600c81526000602082016b3a37ba30b610109e903730bb60a11b81529150614073565b60208082528101610a8d81614616565b60118152600060208201701d1bdd185b08084f48195e1c1958dd1959607a1b81529150614073565b60208082528101610a8d81614649565b60a0810161468f8288613caf565b61469c6020830187613caf565b6146a96040830186613caf565b6146b66060830185613caf565b6146c36080830184613caf565b9695505050505050565b602e81526000602082017f496e697469616c697a61626c653a20636f6e747261637420697320616c72656181526d191e481a5b9a5d1a585b1a5e995960921b602082015291506141a7565b60208082528101610a8d816146cd565b600060ff8216610a8d565b613c9b81614728565b60208101610a8d8284614733565b6000808335601e193685900301811261476557614765600080fd5b80840192508235915067ffffffffffffffff82111561478657614786600080fd5b6020830192506001820236038313156147a1576147a1600080fd5b509250929050565b604081016147b78285613dd9565b6123e66020830184613dd9565b60208082527f5a65726f205f6e6578745061796f757454696d65206e6f7420616c6c6f77656491019081526000614073565b60208082528101610a8d816147c4565b601e81526000602082017f5a65726f205f7061796f7574506572696f64206e6f7420616c6c6f776564000081529150614073565b60208082528101610a8d81614806565b603381526000602082017f5f6e6578745061796f757454696d652073686f7564206265206d6f7265207468815272616e205f7061796f757454696d6552616e676560681b602082015291506141a7565b60208082528101610a8d8161484a565b606081016148b88286613caf565b6148c56020830185613caf565b6128896040830184613caf565b601081526000602082016f14185d5cd8589b194e881c185d5cd95960821b81529150614073565b60208082528101610a8d816148d2565b60ff8116613c60565b8051610a8d81614909565b60006020828403121561493257614932600080fd5b60006128898484614912565b80825b600185111561497d5780860481111561495c5761495c614523565b600185161561496a57908102905b80026149768560011c90565b9450614941565b94509492505050565b600082614995575060016123e6565b816149a2575060006123e6565b81600181146149b857600281146149c2576149ef565b60019150506123e6565b60ff8411156149d3576149d3614523565b8360020a9150848211156149e9576149e9614523565b506123e6565b5060208310610133831016604e8410600b8410161715614a22575081810a83811115614a1d57614a1d614523565b6123e6565b614a2f848484600161493e565b92509050818404811115614a4557614a45614523565b0292915050565b60006123e66000198484614986565b602e81526000602082017f45524331393637557067726164653a206e657720696d706c656d656e7461746981526d6f6e206973206e6f74205555505360901b602082015291506141a7565b60208082528101610a8d81614a5b565b602981526000602082017f45524331393637557067726164653a20756e737570706f727465642070726f788152681a58589b195555525160ba1b602082015291506141a7565b60208082528101610a8d81614ab6565b602381526000602082017f4572726f72732e4d4154485f4d554c5449504c49434154494f4e5f4f564552468152624c4f5760e81b602082015291506141a7565b60208082528101610a8d81614b0c565b601c81526000602082017f4572726f72732e4d4154485f4449564953494f4e5f42595f5a45524f0000000081529150614073565b60208082528101610a8d81614b5c565b601d81526000602082017f4572726f72732e4d4154485f4144444954494f4e5f4f564552464c4f5700000081529150614073565b60208082528101610a8d81614ba0565b602b81526000602082017f496e697469616c697a61626c653a20636f6e7472616374206973206e6f74206981526a6e697469616c697a696e6760a81b602082015291506141a7565b60208082528101610a8d81614be4565b60005b83811015614c57578181015183820152602001614c3f565b50506000910152565b6000614c6a825190565b808452602084019350614c81818560208601614c3c565b601f01601f19169290920192915050565b602080825281016123e68184614c60565b601c81526000602082017f4f6e6c7920617373657420617661696c61626c6520666f72206275790000000081529150614073565b60208082528101610a8d81614ca3565b601881526000602082017f4e6f7420656e6f75676820746f6b656e7320746f20627579000000000000000081529150614073565b60208082528101610a8d81614ce7565b60608101614d398286613dd9565b6148c56020830185613dd9565b60148152600060208201731c1b4818985b185b98d948084f481d185c99d95d60621b81529150614073565b60208082528101610a8d81614d46565b60048152600060208201631b5a5b9d60e21b81529150614073565b60a08082528101614dac81614d81565b9050614dbb6020830187613caf565b614dc86040830186613caf565b614dd56060830185613dd9565b81810360808301526146c38184614c60565b6000614df1825190565b614dff818560208601614c3c565b9290920192915050565b7f416363657373436f6e74726f6c3a206163636f756e742000000000000000000081526017016000614e3b8285614de7565b7001034b99036b4b9b9b4b733903937b6329607d1b815260110191506128898284614de7565b602d81526000602082017f455243313936373a206e657720696d706c656d656e746174696f6e206973206e81526c1bdd08184818dbdb9d1c9858dd609a1b602082015291506141a7565b60208082528101610a8d81614e61565b601481526000602082017314185d5cd8589b194e881b9bdd081c185d5cd95960621b81529150614073565b60208082528101610a8d81614ebb565b634e487b7160e01b600052603260045260246000fd5b600081614f1b57614f1b614523565b506000190190565b60208082527f537472696e67733a20686578206c656e67746820696e73756666696369656e7491019081526000614073565b60208082528101610a8d81614f23565b602681526000602082017f416464726573733a2064656c65676174652063616c6c20746f206e6f6e2d636f8152651b9d1c9858dd60d21b602082015291506141a7565b60208082528101610a8d81614f65565b60006123e68284614de756feede8101501d89b9894e78e4f219420b6ddb840e8e75dde35741a0745408476d7262f8dca0440d5010bae937fe18daeae459dacb80622baddc3b4f10759ac952ad67ad422505496469a1adf6cdf9e5ee92ac5d33992843c9ecc4b2f6d6cde9137360894a13ba1a3210667c828492db98dca3e2076cc3735a920a3ca505d382bbc416464726573733a206c6f772d6c6576656c2064656c65676174652063616c6c206661696c6564a2646970667358221220aca919fd15e558770d0e541b216700944a71573f96c50946834c848d0abeea1d64736f6c63430008110033",
  "implementation": "0xbDC1a8953D7BFd8f68BeC65AFf84E1d12D6319ac",
  "devdoc": {
    "kind": "dev",
    "methods": {
      "constructor": {
        "custom:oz-upgrades-unsafe-allow": "constructor"
      },
      "getRoleAdmin(bytes32)": {
        "details": "Returns the admin role that controls `role`. See {grantRole} and {revokeRole}. To change a role's admin, use {_setRoleAdmin}."
      },
      "grantRole(bytes32,address)": {
        "details": "Grants `role` to `account`. If `account` had not been already granted `role`, emits a {RoleGranted} event. Requirements: - the caller must have ``role``'s admin role. May emit a {RoleGranted} event."
      },
      "hasRole(bytes32,address)": {
        "details": "Returns `true` if `account` has been granted `role`."
      },
      "paused()": {
        "details": "Returns true if the contract is paused, and false otherwise."
      },
      "proxiableUUID()": {
        "details": "Implementation of the ERC1822 {proxiableUUID} function. This returns the storage slot used by the implementation. It is used to validate the implementation's compatibility when performing an upgrade. IMPORTANT: A proxy pointing at a proxiable contract should not be considered proxiable itself, because this risks bricking a proxy that upgrades to it, by delegating to itself until out of gas. Thus it is critical that this function revert if invoked through a proxy. This is guaranteed by the `notDelegated` modifier."
      },
      "redeem(address,uint256)": {
        "params": {
          "_amount": "Amount of USD+ to burn",
          "_asset": "Asset to redeem"
        },
        "returns": {
          "_0": "Amount of asset unstacked and transferred to caller"
        }
      },
      "renounceRole(bytes32,address)": {
        "details": "Revokes `role` from the calling account. Roles are often managed via {grantRole} and {revokeRole}: this function's purpose is to provide a mechanism for accounts to lose their privileges if they are compromised (such as when a trusted device is misplaced). If the calling account had been revoked `role`, emits a {RoleRevoked} event. Requirements: - the caller must be `account`. May emit a {RoleRevoked} event."
      },
      "revokeRole(bytes32,address)": {
        "details": "Revokes `role` from `account`. If `account` had been granted `role`, emits a {RoleRevoked} event. Requirements: - the caller must have ``role``'s admin role. May emit a {RoleRevoked} event."
      },
      "supportsInterface(bytes4)": {
        "details": "See {IERC165-supportsInterface}."
      },
      "upgradeTo(address)": {
        "details": "Upgrade the implementation of the proxy to `newImplementation`. Calls {_authorizeUpgrade}. Emits an {Upgraded} event."
      },
      "upgradeToAndCall(address,bytes)": {
        "details": "Upgrade the implementation of the proxy to `newImplementation`, and subsequently execute the function call encoded in `data`. Calls {_authorizeUpgrade}. Emits an {Upgraded} event."
      }
    },
    "version": 1
  },
  "userdoc": {
    "kind": "user",
    "methods": {},
    "version": 1
  },
  "storageLayout": {
    "storage": [
      {
        "astId": 804,
        "contract": "contracts/Exchange.sol:Exchange",
        "label": "_initialized",
        "offset": 0,
        "slot": "0",
        "type": "t_uint8"
      },
      {
        "astId": 807,
        "contract": "contracts/Exchange.sol:Exchange",
        "label": "_initializing",
        "offset": 1,
        "slot": "0",
        "type": "t_bool"
      },
      {
        "astId": 1657,
        "contract": "contracts/Exchange.sol:Exchange",
        "label": "__gap",
        "offset": 0,
        "slot": "1",
        "type": "t_array(t_uint256)50_storage"
      },
      {
        "astId": 1936,
        "contract": "contracts/Exchange.sol:Exchange",
        "label": "__gap",
        "offset": 0,
        "slot": "51",
        "type": "t_array(t_uint256)50_storage"
      },
      {
        "astId": 39,
        "contract": "contracts/Exchange.sol:Exchange",
        "label": "_roles",
        "offset": 0,
        "slot": "101",
        "type": "t_mapping(t_bytes32,t_struct(RoleData)34_storage)"
      },
      {
        "astId": 334,
        "contract": "contracts/Exchange.sol:Exchange",
        "label": "__gap",
        "offset": 0,
        "slot": "102",
        "type": "t_array(t_uint256)49_storage"
      },
      {
        "astId": 786,
        "contract": "contracts/Exchange.sol:Exchange",
        "label": "__gap",
        "offset": 0,
        "slot": "151",
        "type": "t_array(t_uint256)50_storage"
      },
      {
        "astId": 1101,
        "contract": "contracts/Exchange.sol:Exchange",
        "label": "__gap",
        "offset": 0,
        "slot": "201",
        "type": "t_array(t_uint256)50_storage"
      },
      {
        "astId": 1123,
        "contract": "contracts/Exchange.sol:Exchange",
        "label": "_paused",
        "offset": 0,
        "slot": "251",
        "type": "t_bool"
      },
      {
        "astId": 1228,
        "contract": "contracts/Exchange.sol:Exchange",
        "label": "__gap",
        "offset": 0,
        "slot": "252",
        "type": "t_array(t_uint256)49_storage"
      },
      {
        "astId": 4330,
        "contract": "contracts/Exchange.sol:Exchange",
        "label": "usdPlus",
        "offset": 0,
        "slot": "301",
        "type": "t_contract(TestToken)9503"
      },
      {
        "astId": 4333,
        "contract": "contracts/Exchange.sol:Exchange",
        "label": "usdc",
        "offset": 0,
        "slot": "302",
        "type": "t_contract(IERC20)2932"
      },
      {
        "astId": 4336,
        "contract": "contracts/Exchange.sol:Exchange",
        "label": "portfolioManager",
        "offset": 0,
        "slot": "303",
        "type": "t_contract(IPortfolioManager)16088"
      },
      {
        "astId": 4339,
        "contract": "contracts/Exchange.sol:Exchange",
        "label": "mark2market",
        "offset": 0,
        "slot": "304",
        "type": "t_contract(IMark2Market)16020"
      },
      {
        "astId": 4341,
        "contract": "contracts/Exchange.sol:Exchange",
        "label": "buyFee",
        "offset": 0,
        "slot": "305",
        "type": "t_uint256"
      },
      {
        "astId": 4343,
        "contract": "contracts/Exchange.sol:Exchange",
        "label": "buyFeeDenominator",
        "offset": 0,
        "slot": "306",
        "type": "t_uint256"
      },
      {
        "astId": 4345,
        "contract": "contracts/Exchange.sol:Exchange",
        "label": "redeemFee",
        "offset": 0,
        "slot": "307",
        "type": "t_uint256"
      },
      {
        "astId": 4347,
        "contract": "contracts/Exchange.sol:Exchange",
        "label": "redeemFeeDenominator",
        "offset": 0,
        "slot": "308",
        "type": "t_uint256"
      },
      {
        "astId": 4349,
        "contract": "contracts/Exchange.sol:Exchange",
        "label": "nextPayoutTime",
        "offset": 0,
        "slot": "309",
        "type": "t_uint256"
      },
      {
        "astId": 4351,
        "contract": "contracts/Exchange.sol:Exchange",
        "label": "payoutPeriod",
        "offset": 0,
        "slot": "310",
        "type": "t_uint256"
      },
      {
        "astId": 4353,
        "contract": "contracts/Exchange.sol:Exchange",
        "label": "payoutTimeRange",
        "offset": 0,
        "slot": "311",
        "type": "t_uint256"
      },
      {
        "astId": 4356,
        "contract": "contracts/Exchange.sol:Exchange",
        "label": "payoutListener",
        "offset": 0,
        "slot": "312",
        "type": "t_contract(IPayoutListener)16026"
      },
      {
        "astId": 4358,
        "contract": "contracts/Exchange.sol:Exchange",
        "label": "lastBlockNumber",
        "offset": 0,
        "slot": "313",
        "type": "t_uint256"
      },
      {
        "astId": 4360,
        "contract": "contracts/Exchange.sol:Exchange",
        "label": "abroadMin",
        "offset": 0,
        "slot": "314",
        "type": "t_uint256"
      },
      {
        "astId": 4362,
        "contract": "contracts/Exchange.sol:Exchange",
        "label": "abroadMax",
        "offset": 0,
        "slot": "315",
        "type": "t_uint256"
      },
      {
        "astId": 4364,
        "contract": "contracts/Exchange.sol:Exchange",
        "label": "insurance",
        "offset": 0,
        "slot": "316",
        "type": "t_address"
      },
      {
        "astId": 4366,
        "contract": "contracts/Exchange.sol:Exchange",
        "label": "oracleLoss",
        "offset": 0,
        "slot": "317",
        "type": "t_uint256"
      },
      {
        "astId": 4368,
        "contract": "contracts/Exchange.sol:Exchange",
        "label": "oracleLossDenominator",
        "offset": 0,
        "slot": "318",
        "type": "t_uint256"
      },
      {
        "astId": 4370,
        "contract": "contracts/Exchange.sol:Exchange",
        "label": "compensateLoss",
        "offset": 0,
        "slot": "319",
        "type": "t_uint256"
      },
      {
        "astId": 4372,
        "contract": "contracts/Exchange.sol:Exchange",
        "label": "compensateLossDenominator",
        "offset": 0,
        "slot": "320",
        "type": "t_uint256"
      },
      {
        "astId": 4374,
        "contract": "contracts/Exchange.sol:Exchange",
        "label": "profitRecipient",
        "offset": 0,
        "slot": "321",
        "type": "t_address"
      },
      {
        "astId": 4376,
        "contract": "contracts/Exchange.sol:Exchange",
        "label": "blockGetter",
        "offset": 0,
        "slot": "322",
        "type": "t_address"
      }
    ],
    "types": {
      "t_address": {
        "encoding": "inplace",
        "label": "address",
        "numberOfBytes": "20"
      },
      "t_array(t_uint256)49_storage": {
        "base": "t_uint256",
        "encoding": "inplace",
        "label": "uint256[49]",
        "numberOfBytes": "1568"
      },
      "t_array(t_uint256)50_storage": {
        "base": "t_uint256",
        "encoding": "inplace",
        "label": "uint256[50]",
        "numberOfBytes": "1600"
      },
      "t_bool": {
        "encoding": "inplace",
        "label": "bool",
        "numberOfBytes": "1"
      },
      "t_bytes32": {
        "encoding": "inplace",
        "label": "bytes32",
        "numberOfBytes": "32"
      },
      "t_contract(IERC20)2932": {
        "encoding": "inplace",
        "label": "contract IERC20",
        "numberOfBytes": "20"
      },
      "t_contract(IMark2Market)16020": {
        "encoding": "inplace",
        "label": "contract IMark2Market",
        "numberOfBytes": "20"
      },
      "t_contract(IPayoutListener)16026": {
        "encoding": "inplace",
        "label": "contract IPayoutListener",
        "numberOfBytes": "20"
      },
      "t_contract(IPortfolioManager)16088": {
        "encoding": "inplace",
        "label": "contract IPortfolioManager",
        "numberOfBytes": "20"
      },
      "t_contract(TestToken)9503": {
        "encoding": "inplace",
        "label": "contract TestToken",
        "numberOfBytes": "20"
      },
      "t_mapping(t_address,t_bool)": {
        "encoding": "mapping",
        "key": "t_address",
        "label": "mapping(address => bool)",
        "numberOfBytes": "32",
        "value": "t_bool"
      },
      "t_mapping(t_bytes32,t_struct(RoleData)34_storage)": {
        "encoding": "mapping",
        "key": "t_bytes32",
        "label": "mapping(bytes32 => struct AccessControlUpgradeable.RoleData)",
        "numberOfBytes": "32",
        "value": "t_struct(RoleData)34_storage"
      },
      "t_struct(RoleData)34_storage": {
        "encoding": "inplace",
        "label": "struct AccessControlUpgradeable.RoleData",
        "members": [
          {
            "astId": 31,
            "contract": "contracts/Exchange.sol:Exchange",
            "label": "members",
            "offset": 0,
            "slot": "0",
            "type": "t_mapping(t_address,t_bool)"
          },
          {
            "astId": 33,
            "contract": "contracts/Exchange.sol:Exchange",
            "label": "adminRole",
            "offset": 0,
            "slot": "1",
            "type": "t_bytes32"
          }
        ],
        "numberOfBytes": "64"
      },
      "t_uint256": {
        "encoding": "inplace",
        "label": "uint256",
        "numberOfBytes": "32"
      },
      "t_uint8": {
        "encoding": "inplace",
        "label": "uint8",
        "numberOfBytes": "1"
      }
    }
  }
}