{
  "address": "0x80e8Be15756F0026D95F4e2f253c5aE80f7025Ae",
  "abi": [
    {
      "inputs": [],
      "stateMutability": "nonpayable",
      "type": "constructor"
    },
    {
      "anonymous": false,
      "inputs": [
        {
          "indexed": false,
          "internalType": "address",
          "name": "previousAdmin",
          "type": "address"
        },
        {
          "indexed": false,
          "internalType": "address",
          "name": "newAdmin",
          "type": "address"
        }
      ],
      "name": "AdminChanged",
      "type": "event"
    },
    {
      "anonymous": false,
      "inputs": [
        {
          "indexed": true,
          "internalType": "address",
          "name": "beacon",
          "type": "address"
        }
      ],
      "name": "BeaconUpgraded",
      "type": "event"
    },
    {
      "anonymous": false,
      "inputs": [
        {
          "indexed": false,
          "internalType": "uint8",
          "name": "version",
          "type": "uint8"
        }
      ],
      "name": "Initialized",
      "type": "event"
    },
    {
      "anonymous": false,
      "inputs": [
        {
          "indexed": false,
          "internalType": "address",
          "name": "value",
          "type": "address"
        }
      ],
      "name": "PortfolioManagerUpdated",
      "type": "event"
    },
    {
      "anonymous": false,
      "inputs": [
        {
          "indexed": false,
          "internalType": "uint256",
          "name": "amount",
          "type": "uint256"
        }
      ],
      "name": "Reward",
      "type": "event"
    },
    {
      "anonymous": false,
      "inputs": [
        {
          "indexed": true,
          "internalType": "bytes32",
          "name": "role",
          "type": "bytes32"
        },
        {
          "indexed": true,
          "internalType": "bytes32",
          "name": "previousAdminRole",
          "type": "bytes32"
        },
        {
          "indexed": true,
          "internalType": "bytes32",
          "name": "newAdminRole",
          "type": "bytes32"
        }
      ],
      "name": "RoleAdminChanged",
      "type": "event"
    },
    {
      "anonymous": false,
      "inputs": [
        {
          "indexed": true,
          "internalType": "bytes32",
          "name": "role",
          "type": "bytes32"
        },
        {
          "indexed": true,
          "internalType": "address",
          "name": "account",
          "type": "address"
        },
        {
          "indexed": true,
          "internalType": "address",
          "name": "sender",
          "type": "address"
        }
      ],
      "name": "RoleGranted",
      "type": "event"
    },
    {
      "anonymous": false,
      "inputs": [
        {
          "indexed": true,
          "internalType": "bytes32",
          "name": "role",
          "type": "bytes32"
        },
        {
          "indexed": true,
          "internalType": "address",
          "name": "account",
          "type": "address"
        },
        {
          "indexed": true,
          "internalType": "address",
          "name": "sender",
          "type": "address"
        }
      ],
      "name": "RoleRevoked",
      "type": "event"
    },
    {
      "anonymous": false,
      "inputs": [
        {
          "indexed": false,
          "internalType": "uint256",
          "name": "swapSlippageBP",
          "type": "uint256"
        },
        {
          "indexed": false,
          "internalType": "uint256",
          "name": "navSlippageBP",
          "type": "uint256"
        },
        {
          "indexed": false,
          "internalType": "uint256",
          "name": "stakeSlippageBP",
          "type": "uint256"
        }
      ],
      "name": "SlippagesUpdated",
      "type": "event"
    },
    {
      "anonymous": false,
      "inputs": [
        {
          "indexed": false,
          "internalType": "uint256",
          "name": "amount",
          "type": "uint256"
        }
      ],
      "name": "Stake",
      "type": "event"
    },
    {
      "anonymous": false,
      "inputs": [],
      "name": "StrategyUpdatedParams",
      "type": "event"
    },
    {
      "anonymous": false,
      "inputs": [
        {
          "indexed": false,
          "internalType": "uint256",
          "name": "amount",
          "type": "uint256"
        },
        {
          "indexed": false,
          "internalType": "uint256",
          "name": "amountReceived",
          "type": "uint256"
        }
      ],
      "name": "Unstake",
      "type": "event"
    },
    {
      "anonymous": false,
      "inputs": [
        {
          "indexed": true,
          "internalType": "address",
          "name": "implementation",
          "type": "address"
        }
      ],
      "name": "Upgraded",
      "type": "event"
    },
    {
      "inputs": [],
      "name": "DEFAULT_ADMIN_ROLE",
      "outputs": [
        {
          "internalType": "bytes32",
          "name": "",
          "type": "bytes32"
        }
      ],
      "stateMutability": "view",
      "type": "function"
    },
    {
      "inputs": [],
      "name": "PORTFOLIO_AGENT_ROLE",
      "outputs": [
        {
          "internalType": "bytes32",
          "name": "",
          "type": "bytes32"
        }
      ],
      "stateMutability": "view",
      "type": "function"
    },
    {
      "inputs": [],
      "name": "PORTFOLIO_MANAGER",
      "outputs": [
        {
          "internalType": "bytes32",
          "name": "",
          "type": "bytes32"
        }
      ],
      "stateMutability": "view",
      "type": "function"
    },
    {
      "inputs": [],
      "name": "busd",
      "outputs": [
        {
          "internalType": "contract IERC20",
          "name": "",
          "type": "address"
        }
      ],
      "stateMutability": "view",
      "type": "function"
    },
    {
      "inputs": [],
      "name": "busdDm",
      "outputs": [
        {
          "internalType": "uint256",
          "name": "",
          "type": "uint256"
        }
      ],
      "stateMutability": "view",
      "type": "function"
    },
    {
      "inputs": [
        {
          "internalType": "address",
          "name": "_to",
          "type": "address"
        }
      ],
      "name": "claimRewards",
      "outputs": [
        {
          "internalType": "uint256",
          "name": "",
          "type": "uint256"
        }
      ],
      "stateMutability": "nonpayable",
      "type": "function"
    },
    {
      "inputs": [],
      "name": "gauge",
      "outputs": [
        {
          "internalType": "contract IGaugeV2",
          "name": "",
          "type": "address"
        }
      ],
      "stateMutability": "view",
      "type": "function"
    },
    {
      "inputs": [
        {
          "internalType": "bytes32",
          "name": "role",
          "type": "bytes32"
        }
      ],
      "name": "getRoleAdmin",
      "outputs": [
        {
          "internalType": "bytes32",
          "name": "",
          "type": "bytes32"
        }
      ],
      "stateMutability": "view",
      "type": "function"
    },
    {
      "inputs": [
        {
          "internalType": "bytes32",
          "name": "role",
          "type": "bytes32"
        },
        {
          "internalType": "address",
          "name": "account",
          "type": "address"
        }
      ],
      "name": "grantRole",
      "outputs": [],
      "stateMutability": "nonpayable",
      "type": "function"
    },
    {
      "inputs": [
        {
          "internalType": "bytes32",
          "name": "role",
          "type": "bytes32"
        },
        {
          "internalType": "address",
          "name": "account",
          "type": "address"
        }
      ],
      "name": "hasRole",
      "outputs": [
        {
          "internalType": "bool",
          "name": "",
          "type": "bool"
        }
      ],
      "stateMutability": "view",
      "type": "function"
    },
    {
      "inputs": [],
      "name": "hay",
      "outputs": [
        {
          "internalType": "contract IERC20",
          "name": "",
          "type": "address"
        }
      ],
      "stateMutability": "view",
      "type": "function"
    },
    {
      "inputs": [],
      "name": "initialize",
      "outputs": [],
      "stateMutability": "nonpayable",
      "type": "function"
    },
    {
      "inputs": [],
      "name": "liquidationValue",
      "outputs": [
        {
          "internalType": "uint256",
          "name": "",
          "type": "uint256"
        }
      ],
      "stateMutability": "view",
      "type": "function"
    },
    {
      "inputs": [],
      "name": "navSlippageBP",
      "outputs": [
        {
          "internalType": "uint256",
          "name": "",
          "type": "uint256"
        }
      ],
      "stateMutability": "view",
      "type": "function"
    },
    {
      "inputs": [],
      "name": "netAssetValue",
      "outputs": [
        {
          "internalType": "uint256",
          "name": "",
          "type": "uint256"
        }
      ],
      "stateMutability": "view",
      "type": "function"
    },
    {
      "inputs": [],
      "name": "oracleBusd",
      "outputs": [
        {
          "internalType": "contract IPriceFeed",
          "name": "",
          "type": "address"
        }
      ],
      "stateMutability": "view",
      "type": "function"
    },
    {
      "inputs": [],
      "name": "oracleUsdt",
      "outputs": [
        {
          "internalType": "contract IPriceFeed",
          "name": "",
          "type": "address"
        }
      ],
      "stateMutability": "view",
      "type": "function"
    },
    {
      "inputs": [],
      "name": "pair",
      "outputs": [
        {
          "internalType": "contract IPair",
          "name": "",
          "type": "address"
        }
      ],
      "stateMutability": "view",
      "type": "function"
    },
    {
      "inputs": [],
      "name": "portfolioManager",
      "outputs": [
        {
          "internalType": "address",
          "name": "",
          "type": "address"
        }
      ],
      "stateMutability": "view",
      "type": "function"
    },
    {
      "inputs": [],
      "name": "proxiableUUID",
      "outputs": [
        {
          "internalType": "bytes32",
          "name": "",
          "type": "bytes32"
        }
      ],
      "stateMutability": "view",
      "type": "function"
    },
    {
      "inputs": [
        {
          "internalType": "bytes32",
          "name": "role",
          "type": "bytes32"
        },
        {
          "internalType": "address",
          "name": "account",
          "type": "address"
        }
      ],
      "name": "renounceRole",
      "outputs": [],
      "stateMutability": "nonpayable",
      "type": "function"
    },
    {
      "inputs": [
        {
          "internalType": "bytes32",
          "name": "role",
          "type": "bytes32"
        },
        {
          "internalType": "address",
          "name": "account",
          "type": "address"
        }
      ],
      "name": "revokeRole",
      "outputs": [],
      "stateMutability": "nonpayable",
      "type": "function"
    },
    {
      "inputs": [],
      "name": "router",
      "outputs": [
        {
          "internalType": "contract IRouter",
          "name": "",
          "type": "address"
        }
      ],
      "stateMutability": "view",
      "type": "function"
    },
    {
      "inputs": [
        {
          "components": [
            {
              "internalType": "address",
              "name": "busdToken",
              "type": "address"
            },
            {
              "internalType": "address",
              "name": "usdtToken",
              "type": "address"
            },
            {
              "internalType": "address",
              "name": "usdPlus",
              "type": "address"
            },
            {
              "internalType": "address",
              "name": "the",
              "type": "address"
            },
            {
              "internalType": "address",
              "name": "pair",
              "type": "address"
            },
            {
              "internalType": "address",
              "name": "router",
              "type": "address"
            },
            {
              "internalType": "address",
              "name": "gauge",
              "type": "address"
            },
            {
              "internalType": "address",
              "name": "wombatPool",
              "type": "address"
            },
            {
              "internalType": "address",
              "name": "wombatRouter",
              "type": "address"
            },
            {
              "internalType": "address",
              "name": "oracleBusd",
              "type": "address"
            },
            {
              "internalType": "address",
              "name": "oracleUsdt",
              "type": "address"
            }
          ],
          "internalType": "struct StrategyThenaUsdtUsdPlus.StrategyParams",
          "name": "params",
          "type": "tuple"
        }
      ],
      "name": "setParams",
      "outputs": [],
      "stateMutability": "nonpayable",
      "type": "function"
    },
    {
      "inputs": [
        {
          "internalType": "address",
          "name": "_value",
          "type": "address"
        }
      ],
      "name": "setPortfolioManager",
      "outputs": [],
      "stateMutability": "nonpayable",
      "type": "function"
    },
    {
      "inputs": [
        {
          "internalType": "uint256",
          "name": "_swapSlippageBP",
          "type": "uint256"
        },
        {
          "internalType": "uint256",
          "name": "_navSlippageBP",
          "type": "uint256"
        },
        {
          "internalType": "uint256",
          "name": "_stakeSlippageBP",
          "type": "uint256"
        }
      ],
      "name": "setSlippages",
      "outputs": [],
      "stateMutability": "nonpayable",
      "type": "function"
    },
    {
      "inputs": [
        {
          "internalType": "address",
          "name": "_asset",
          "type": "address"
        },
        {
          "internalType": "uint256",
          "name": "_amount",
          "type": "uint256"
        }
      ],
      "name": "stake",
      "outputs": [],
      "stateMutability": "nonpayable",
      "type": "function"
    },
    {
      "inputs": [],
      "name": "stakeSlippageBP",
      "outputs": [
        {
          "internalType": "uint256",
          "name": "",
          "type": "uint256"
        }
      ],
      "stateMutability": "view",
      "type": "function"
    },
    {
      "inputs": [
        {
          "internalType": "bytes4",
          "name": "interfaceId",
          "type": "bytes4"
        }
      ],
      "name": "supportsInterface",
      "outputs": [
        {
          "internalType": "bool",
          "name": "",
          "type": "bool"
        }
      ],
      "stateMutability": "view",
      "type": "function"
    },
    {
      "inputs": [],
      "name": "swapSlippageBP",
      "outputs": [
        {
          "internalType": "uint256",
          "name": "",
          "type": "uint256"
        }
      ],
      "stateMutability": "view",
      "type": "function"
    },
    {
      "inputs": [],
      "name": "the",
      "outputs": [
        {
          "internalType": "contract IERC20",
          "name": "",
          "type": "address"
        }
      ],
      "stateMutability": "view",
      "type": "function"
    },
    {
      "inputs": [
        {
          "internalType": "address",
          "name": "_asset",
          "type": "address"
        },
        {
          "internalType": "uint256",
          "name": "_amount",
          "type": "uint256"
        },
        {
          "internalType": "address",
          "name": "_beneficiary",
          "type": "address"
        },
        {
          "internalType": "bool",
          "name": "_targetIsZero",
          "type": "bool"
        }
      ],
      "name": "unstake",
      "outputs": [
        {
          "internalType": "uint256",
          "name": "",
          "type": "uint256"
        }
      ],
      "stateMutability": "nonpayable",
      "type": "function"
    },
    {
      "inputs": [
        {
          "internalType": "address",
          "name": "newImplementation",
          "type": "address"
        }
      ],
      "name": "upgradeTo",
      "outputs": [],
      "stateMutability": "nonpayable",
      "type": "function"
    },
    {
      "inputs": [
        {
          "internalType": "address",
          "name": "newImplementation",
          "type": "address"
        },
        {
          "internalType": "bytes",
          "name": "data",
          "type": "bytes"
        }
      ],
      "name": "upgradeToAndCall",
      "outputs": [],
      "stateMutability": "payable",
      "type": "function"
    },
    {
      "inputs": [],
      "name": "usdPlus",
      "outputs": [
        {
          "internalType": "contract IERC20",
          "name": "",
          "type": "address"
        }
      ],
      "stateMutability": "view",
      "type": "function"
    },
    {
      "inputs": [],
      "name": "usdPlusDm",
      "outputs": [
        {
          "internalType": "uint256",
          "name": "",
          "type": "uint256"
        }
      ],
      "stateMutability": "view",
      "type": "function"
    },
    {
      "inputs": [],
      "name": "usdt",
      "outputs": [
        {
          "internalType": "contract IERC20",
          "name": "",
          "type": "address"
        }
      ],
      "stateMutability": "view",
      "type": "function"
    },
    {
      "inputs": [],
      "name": "usdtDm",
      "outputs": [
        {
          "internalType": "uint256",
          "name": "",
          "type": "uint256"
        }
      ],
      "stateMutability": "view",
      "type": "function"
    },
    {
      "inputs": [],
      "name": "wombatPool",
      "outputs": [
        {
          "internalType": "contract IPool",
          "name": "",
          "type": "address"
        }
      ],
      "stateMutability": "view",
      "type": "function"
    },
    {
      "inputs": [],
      "name": "wombatRouter",
      "outputs": [
        {
          "internalType": "contract IWombatRouter",
          "name": "",
          "type": "address"
        }
      ],
      "stateMutability": "view",
      "type": "function"
    }
  ],
  "numDeployments": 1,
  "solcInputHash": "2230d40b2c25c1a1cde0b2da6e34569b",
  "bytecode": "0x60a0604052306080523480156200001557600080fd5b50600054610100900460ff1615808015620000375750600054600160ff909116105b8062000067575062000054306200010860201b620014f81760201c565b15801562000067575060005460ff166001145b6200008f5760405162461bcd60e51b8152600401620000869062000117565b60405180910390fd5b6000805460ff191660011790558015620000b3576000805461ff0019166101001790555b801562000101576000805461ff00191690556040517f7f26b83ff96e1f2b6a682f133852f6798a09c465da95921460cefb384740249890620000f8906001906200018d565b60405180910390a15b506200019d565b6001600160a01b03163b151590565b602080825281016200016a81602e81527f496e697469616c697a61626c653a20636f6e747261637420697320616c72656160208201526d191e481a5b9a5d1a585b1a5e995960921b604082015260600190565b92915050565b600060ff82166200016a565b620001878162000170565b82525050565b602081016200016a82846200017c565b608051615f98620001d5600039600081816108010152818161084101528181610cee01528181610d2e0152610dbd0152615f986000f3fe60806040526004361061023b5760003560e01c80638129fc1c1161012e578063b02d1e9e116100ab578063ddefa4ab1161006f578063ddefa4ab146106ad578063ef5cfb8c146106ce578063f6f6b881146106ee578063f887ea401461070e578063fcd2f4f71461072f57600080fd5b8063b02d1e9e1461061e578063bf52e0801461063f578063cc6522c314610655578063d547741f14610676578063dc19d6431461069657600080fd5b8063a66b5713116100f2578063a66b57131461057b578063a6f19c841461059c578063a8aa1b31146105bd578063adc9772e146105de578063ae30c110146105fe57600080fd5b80638129fc1c146104fc57806391d1485414610511578063a217fddf14610531578063a3673b3814610546578063a440b21a1461055b57600080fd5b80633ca5b234116101bc5780635ca558f8116101805780635ca558f8146104305780635dbd733a14610446578063612c87df1461047a578063620b75df1461049b5780637d5f5802146104c857600080fd5b80633ca5b234146103a6578063431ac739146103c75780634f1ef286146103e7578063514e460a146103fa57806352d1902d1461041b57600080fd5b80632576e65a116102035780632576e65a1461030e5780632f2ff15d146103235780632f48ab7d1461034557806336568abe146103665780633659cfe61461038657600080fd5b8063012ee9281461024057806301ffc9a7146102775780630f9033f7146102a4578063119cd879146102c8578063248a9ca3146102de575b600080fd5b34801561024c57600080fd5b5061013454610261906001600160a01b031681565b60405161026e9190614b10565b60405180910390f35b34801561028357600080fd5b50610297610292366004614b40565b610746565b60405161026e9190614b69565b3480156102b057600080fd5b506102bb6101395481565b60405161026e9190614b7d565b3480156102d457600080fd5b506102bb60fd5481565b3480156102ea57600080fd5b506102bb6102f9366004614b9c565b60009081526065602052604090206001015490565b34801561031a57600080fd5b506102bb61077d565b34801561032f57600080fd5b5061034361033e366004614be2565b61078e565b005b34801561035157600080fd5b5061012e54610261906001600160a01b031681565b34801561037257600080fd5b50610343610381366004614be2565b6107b8565b34801561039257600080fd5b506103436103a1366004614c1f565b6107f7565b3480156103b257600080fd5b5061012d54610261906001600160a01b031681565b3480156103d357600080fd5b506103436103e2366004614c5c565b6108d6565b6103436103f5366004614d71565b610ce4565b34801561040657600080fd5b5061012f54610261906001600160a01b031681565b34801561042757600080fd5b506102bb610db0565b34801561043c57600080fd5b506102bb60fe5481565b34801561045257600080fd5b506102bb7fd67ad422505496469a1adf6cdf9e5ee92ac5d33992843c9ecc4b2f6d6cde913781565b34801561048657600080fd5b5061013554610261906001600160a01b031681565b3480156104a757600080fd5b5060fb546104bb906001600160a01b031681565b60405161026e9190614dc8565b3480156104d457600080fd5b506102bb7f90c2aa7471c04182221f68e80c07ab1e5946e4c63f8693e14ca40385d529f05181565b34801561050857600080fd5b50610343610e0d565b34801561051d57600080fd5b5061029761052c366004614be2565b610edb565b34801561053d57600080fd5b506102bb600081565b34801561055257600080fd5b506102bb610f06565b34801561056757600080fd5b50610343610576366004614c1f565b610f12565b34801561058757600080fd5b5061013654610261906001600160a01b031681565b3480156105a857600080fd5b5061013354610261906001600160a01b031681565b3480156105c957600080fd5b5061013154610261906001600160a01b031681565b3480156105ea57600080fd5b506103436105f9366004614dd6565b61100b565b34801561060a57600080fd5b50610343610619366004614e09565b61112e565b34801561062a57600080fd5b5061013a54610261906001600160a01b031681565b34801561064b57600080fd5b506102bb60fc5481565b34801561066157600080fd5b5061013754610261906001600160a01b031681565b34801561068257600080fd5b50610343610691366004614be2565b611250565b3480156106a257600080fd5b506102bb6101385481565b3480156106b957600080fd5b5061013054610261906001600160a01b031681565b3480156106da57600080fd5b506102bb6106e9366004614c1f565b611275565b3480156106fa57600080fd5b506102bb610709366004614e6c565b6112c6565b34801561071a57600080fd5b5061013254610261906001600160a01b031681565b34801561073b57600080fd5b506102bb61013b5481565b60006001600160e01b03198216637965db0b60e01b148061077757506301ffc9a760e01b6001600160e01b03198316145b92915050565b60006107896000611507565b905090565b6000828152606560205260409020600101546107a981611966565b6107b38383611970565b505050565b6001600160a01b03811633146107e95760405162461bcd60e51b81526004016107e090614f1f565b60405180910390fd5b6107f382826119f6565b5050565b6001600160a01b037f000000000000000000000000000000000000000000000000000000000000000016300361083f5760405162461bcd60e51b81526004016107e090614f78565b7f00000000000000000000000000000000000000000000000000000000000000006001600160a01b0316610888600080516020615ef9833981519152546001600160a01b031690565b6001600160a01b0316146108ae5760405162461bcd60e51b81526004016107e090614fd1565b6108b781611a5d565b604080516000808252602082019092526108d391839190611a68565b50565b6108e1600033610edb565b6108fd5760405162461bcd60e51b81526004016107e09061500f565b61090a6020820182614c1f565b61012d80546001600160a01b0319166001600160a01b039290921691909117905561093b6040820160208301614c1f565b61012e80546001600160a01b0319166001600160a01b039290921691909117905561096c6060820160408301614c1f565b61012f80546001600160a01b03929092166001600160a01b031992831617905561013a8054909116730782b6d8c4551b9760e74c0545a9bcd90bdc41e51790556109bc6080820160608301614c1f565b61013080546001600160a01b0319166001600160a01b03929092169190911790556109ed60a0820160808301614c1f565b61013180546001600160a01b0319166001600160a01b0392909216919091179055610a1e60c0820160a08301614c1f565b61013280546001600160a01b0319166001600160a01b0392909216919091179055610a4f60e0820160c08301614c1f565b61013380546001600160a01b0319166001600160a01b0392909216919091179055610a81610100820160e08301614c1f565b61013480546001600160a01b0319166001600160a01b0392909216919091179055610ab461012082016101008301614c1f565b61013580546001600160a01b0319166001600160a01b0392909216919091179055610ae761014082016101208301614c1f565b61013680546001600160a01b0319166001600160a01b0392909216919091179055610b1a61016082016101408301614c1f565b61013780546001600160a01b0319166001600160a01b0392909216919091179055610b486020820182614c1f565b6001600160a01b031663313ce5676040518163ffffffff1660e01b8152600401602060405180830381865afa158015610b85573d6000803e3d6000fd5b505050506040513d601f19601f82011682018060405250810190610ba99190615033565b610bb490600a615178565b61013855610bc86040820160208301614c1f565b6001600160a01b031663313ce5676040518163ffffffff1660e01b8152600401602060405180830381865afa158015610c05573d6000803e3d6000fd5b505050506040513d601f19601f82011682018060405250810190610c299190615033565b610c3490600a615178565b61013955610c486060820160408301614c1f565b6001600160a01b031663313ce5676040518163ffffffff1660e01b8152600401602060405180830381865afa158015610c85573d6000803e3d6000fd5b505050506040513d601f19601f82011682018060405250810190610ca99190615033565b610cb490600a615178565b61013b556040517fea5646eb3528e525944447a4a97de700dd472298626e5c0481d1c82c3da86ea590600090a150565b6001600160a01b037f0000000000000000000000000000000000000000000000000000000000000000163003610d2c5760405162461bcd60e51b81526004016107e090614f78565b7f00000000000000000000000000000000000000000000000000000000000000006001600160a01b0316610d75600080516020615ef9833981519152546001600160a01b031690565b6001600160a01b031614610d9b5760405162461bcd60e51b81526004016107e090614fd1565b610da482611a5d565b6107f382826001611a68565b6000306001600160a01b037f00000000000000000000000000000000000000000000000000000000000000001614610dfa5760405162461bcd60e51b81526004016107e0906151e7565b50600080516020615ef983398151915290565b600054610100900460ff1615808015610e2d5750600054600160ff909116105b80610e475750303b158015610e47575060005460ff166001145b610e635760405162461bcd60e51b81526004016107e090615242565b6000805460ff191660011790558015610e86576000805461ff0019166101001790555b610e8e611b4a565b80156108d3576000805461ff00191690556040517f7f26b83ff96e1f2b6a682f133852f6798a09c465da95921460cefb384740249890610ed090600190615266565b60405180910390a150565b60009182526065602090815260408084206001600160a01b0393909316845291905290205460ff1690565b60006107896001611507565b610f1d600033610edb565b610f395760405162461bcd60e51b81526004016107e09061500f565b6001600160a01b038116610f5f5760405162461bcd60e51b81526004016107e0906152a8565b60fb54610f96907f90c2aa7471c04182221f68e80c07ab1e5946e4c63f8693e14ca40385d529f051906001600160a01b0316611250565b610fc07f90c2aa7471c04182221f68e80c07ab1e5946e4c63f8693e14ca40385d529f0518261078e565b60fb80546001600160a01b0319166001600160a01b0383161790556040517ff7b449fcd5cfb7379dcd34cb69428dd9f882033b15be33d83b42d91daa28eeb790610ed0908390614dc8565b600061107a306001600160a01b031663a3673b386040518163ffffffff1660e01b8152600401602060405180830381865afa15801561104e573d6000803e3d6000fd5b505050506040513d601f19601f8201168201806040525081019061107291906152c3565b60fd54611c2f565b90506110f283846001600160a01b03166370a08231306040518263ffffffff1660e01b81526004016110ac9190614dc8565b602060405180830381865afa1580156110c9573d6000803e3d6000fd5b505050506040513d601f19601f820116820180604052508101906110ed91906152c3565b611c59565b7f227a473b70d2f893cc7659219575c030a63b5743024fe1e0c1a680e708b1525a826040516111219190614b7d565b60405180910390a1505050565b6111587fd67ad422505496469a1adf6cdf9e5ee92ac5d33992843c9ecc4b2f6d6cde913733610edb565b806111f1575060fb54604051632474521560e21b81526001600160a01b03909116906391d14854906111b0907fd67ad422505496469a1adf6cdf9e5ee92ac5d33992843c9ecc4b2f6d6cde91379033906004016152e4565b602060405180830381865afa1580156111cd573d6000803e3d6000fd5b505050506040513d601f19601f820116820180604052508101906111f1919061530a565b61120d5760405162461bcd60e51b81526004016107e09061536a565b60fc83905560fd82905560fe8190556040517f116fbf1e97a2be629ad98abfb6c332733c8996c2dfb174dd2efe8440df381d1a906111219085908590859061537a565b60008281526065602052604090206001015461126b81611966565b6107b383836119f6565b600080611281836125e3565b90508015610777577f3ac0594a85a20354f9dc74f33728416d19ce00d04a406c108cc2dcf2cecea134816040516112b89190614b7d565b60405180910390a192915050565b60008061130a306001600160a01b031663a3673b386040518163ffffffff1660e01b8152600401602060405180830381865afa15801561104e573d6000803e3d6000fd5b905060008084156113315761131e866125e3565b905061132a8887612841565b9150611381565b61133c888888612ed5565b9150611361604051806060016040528060258152602001615ed4602591398389613852565b868210156113815760405162461bcd60e51b81526004016107e0906153e8565b82306001600160a01b031663a3673b386040518163ffffffff1660e01b8152600401602060405180830381865afa1580156113c0573d6000803e3d6000fd5b505050506040513d601f19601f820116820180604052508101906113e491906152c3565b10156114025760405162461bcd60e51b81526004016107e09061542c565b60405163a9059cbb60e01b81526001600160a01b0389169063a9059cbb90611430908990869060040161543c565b6020604051808303816000875af115801561144f573d6000803e3d6000fd5b505050506040513d601f19601f82011682018060405250810190611473919061530a565b507f9045c2ac9b2026de8075f2701bbdde882cd5e830b3b1ead9a15b22f2b5b9374287836040516114a5929190615457565b60405180910390a180156114eb577f3ac0594a85a20354f9dc74f33728416d19ce00d04a406c108cc2dcf2cecea134816040516114e29190614b7d565b60405180910390a15b509150505b949350505050565b6001600160a01b03163b151590565b61012d546040516370a0823160e01b815260009182916001600160a01b03909116906370a082319061153d903090600401614dc8565b602060405180830381865afa15801561155a573d6000803e3d6000fd5b505050506040513d601f19601f8201168201806040525081019061157e91906152c3565b61012e546040516370a0823160e01b81529192506000916001600160a01b03909116906370a08231906115b5903090600401614dc8565b602060405180830381865afa1580156115d2573d6000803e3d6000fd5b505050506040513d601f19601f820116820180604052508101906115f691906152c3565b61012f546040516370a0823160e01b81529192506000916001600160a01b03909116906370a082319061162d903090600401614dc8565b602060405180830381865afa15801561164a573d6000803e3d6000fd5b505050506040513d601f19601f8201168201806040525081019061166e91906152c3565b610133546040516370a0823160e01b81529192506000916001600160a01b03909116906370a08231906116a5903090600401614dc8565b602060405180830381865afa1580156116c2573d6000803e3d6000fd5b505050506040513d601f19601f820116820180604052508101906116e691906152c3565b90508015611800576101325461012e5461012f5461013154604080516309047bdd60e01b8152905160009586956001600160a01b0391821695634386e63c95918316949083169391909216916309047bdd9160048083019260209291908290030181865afa15801561175c573d6000803e3d6000fd5b505050506040513d601f19601f82011682018060405250810190611780919061530a565b876040518563ffffffff1660e01b81526004016117a09493929190615465565b6040805180830381865afa1580156117bc573d6000803e3d6000fd5b505050506040513d601f19601f820116820180604052508101906117e0919061549a565b90925090506117ef82866154cd565b94506117fb81856154cd565b935050505b82156118835785156118495761013954610138546101375461013654611838938793909290916001600160a01b039182169116613899565b61184290856154cd565b9350611883565b6101355461012e5461012d5461013454611876936001600160a01b039081169381169281169116876138e9565b61188090856154cd565b93505b811561195c576101325461012f5461012e5461013154604080516309047bdd60e01b8152905160009561191c956001600160a01b039182169590821694908216939116916309047bdd916004808201926020929091908290030181865afa1580156118f2573d6000803e3d6000fd5b505050506040513d601f19601f82011682018060405250810190611916919061530a565b87613a3d565b6101355461012e5461012d546101345493945061194e936001600160a01b0393841693928316929182169116856138e9565b61195890866154cd565b9450505b5091949350505050565b6108d38133613bb5565b61197a8282610edb565b6107f35760008281526065602090815260408083206001600160a01b03851684529091529020805460ff191660011790556119b23390565b6001600160a01b0316816001600160a01b0316837f2f8788117e7eff1d82e926ec794901d17c78024a50270940304540a733656f0d60405160405180910390a45050565b611a008282610edb565b156107f35760008281526065602090815260408083206001600160a01b0385168085529252808320805460ff1916905551339285917ff6391f5c32d9c69d2a47ea670b442974b53935d1edc7fd64eb21e047a839171b9190a45050565b60006107f381611966565b7f4910fdfa16fed3260ed0e7147f7cc6da11a60208b5b9406d12a635614ffd91435460ff1615611a9b576107b383613c0e565b826001600160a01b03166352d1902d6040518163ffffffff1660e01b8152600401602060405180830381865afa925050508015611af5575060408051601f3d908101601f19168201909252611af2918101906152c3565b60015b611b115760405162461bcd60e51b81526004016107e09061552b565b600080516020615ef98339815191528114611b3e5760405162461bcd60e51b81526004016107e090615581565b506107b3838383613c64565b600054610100900460ff1615808015611b6a5750600054600160ff909116105b80611b845750303b158015611b84575060005460ff166001145b611ba05760405162461bcd60e51b81526004016107e090615242565b6000805460ff191660011790558015611bc3576000805461ff0019166101001790555b611bcb613c8f565b611bd3613c8f565b611bde600033611970565b601460fc81905560fd55600460fe5580156108d3576000805461ff00191690556040517f7f26b83ff96e1f2b6a682f133852f6798a09c465da95921460cefb384740249890610ed090600190615266565b6000612710611c3e8382615591565b611c4890856155a4565b611c5291906155d9565b9392505050565b61012d546001600160a01b03838116911614611c875760405162461bcd60e51b81526004016107e090615618565b60008061013160009054906101000a90046001600160a01b03166001600160a01b0316630902f1ac6040518163ffffffff1660e01b8152600401606060405180830381865afa158015611cde573d6000803e3d6000fd5b505050506040513d601f19601f82011682018060405250810190611d029190615628565b5061012d546040516370a0823160e01b81529294509092506000916001600160a01b03909116906370a0823190611d3d903090600401614dc8565b602060405180830381865afa158015611d5a573d6000803e3d6000fd5b505050506040513d601f19601f82011682018060405250810190611d7e91906152c3565b61013854610139546101365461013754939450600093611db0938693909290916001600160a01b039182169116613899565b6101355461012d5461012e546101345460fc54949550611df5946001600160a01b03948516949384169392831692909116908790611def908890611c2f565b30613cb8565b5061012e546040516370a0823160e01b81526000916001600160a01b0316906370a0823190611e28903090600401614dc8565b602060405180830381865afa158015611e45573d6000803e3d6000fd5b505050506040513d601f19601f82011682018060405250810190611e6991906152c3565b6101325461012e5461012f5461013154604080516309047bdd60e01b81529051959650600095611f05956001600160a01b039081169581169481169316916309047bdd9160048083019260209291908290030181865afa158015611ed1573d6000803e3d6000fd5b505050506040513d601f19601f82011682018060405250810190611ef5919061530a565b868b8b6101395461013b54613e7f565b9050611f1664e8d4a51000826155d9565b6101325461012e5461012f54929350600092611f5e926001600160a01b0390811692811691166001611f4d8764e8d4a510006155a4565b611f588860b4611c2f565b30613f0b565b61012f546040516370a0823160e01b81529192506000916001600160a01b03909116906370a0823190611f95903090600401614dc8565b602060405180830381865afa158015611fb2573d6000803e3d6000fd5b505050506040513d601f19601f82011682018060405250810190611fd691906152c3565b61012e546040516370a0823160e01b81529192506001600160a01b0316906370a0823190612008903090600401614dc8565b602060405180830381865afa158015612025573d6000803e3d6000fd5b505050506040513d601f19601f8201168201806040525081019061204991906152c3565b61012e546101325460405163095ea7b360e01b81529296506001600160a01b039182169263095ea7b392612083921690889060040161543c565b6020604051808303816000875af11580156120a2573d6000803e3d6000fd5b505050506040513d601f19601f820116820180604052508101906120c6919061530a565b5061012f546101325460405163095ea7b360e01b81526001600160a01b039283169263095ea7b3926120ff92911690859060040161543c565b6020604051808303816000875af115801561211e573d6000803e3d6000fd5b505050506040513d601f19601f82011682018060405250810190612142919061530a565b506101325461012e5461012f5461013154604080516309047bdd60e01b815290516000956121d6956001600160a01b039182169590821694908216939116916309047bdd916004808201926020929091908290030181865afa1580156121ac573d6000803e3d6000fd5b505050506040513d601f19601f820116820180604052508101906121d0919061530a565b89613a3d565b905081811115612387576101325461012f5461012e5461013154604080516309047bdd60e01b8152905161226c956001600160a01b039081169581169481169316916309047bdd9160048083019260209291908290030181865afa158015612242573d6000803e3d6000fd5b505050506040513d601f19601f82011682018060405250810190612266919061530a565b86613a3d565b6101325461012e5461012f5461013154604080516309047bdd60e01b815290519596506001600160a01b0394851695635a47ddc3959485169493841693909216916309047bdd916004808201926020929091908290030181865afa1580156122d8573d6000803e3d6000fd5b505050506040513d601f19601f820116820180604052508101906122fc919061530a565b858761230a8860fc54611c2f565b6123168a60fc54611c2f565b30426040518a63ffffffff1660e01b815260040161233c9998979695949392919061566e565b6060604051808303816000875af115801561235b573d6000803e3d6000fd5b505050506040513d601f19601f8201168201806040525081019061237f9190615628565b505050612481565b6101325461012e5461012f5461013154604080516309047bdd60e01b815290516001600160a01b0395861695635a47ddc39581169481169316916309047bdd9160048083019260209291908290030181865afa1580156123eb573d6000803e3d6000fd5b505050506040513d601f19601f8201168201806040525081019061240f919061530a565b898760008030426040518a63ffffffff1660e01b815260040161243a99989796959493929190615709565b6060604051808303816000875af1158015612459573d6000803e3d6000fd5b505050506040513d601f19601f8201168201806040525081019061247d9190615628565b5050505b610131546040516370a0823160e01b81526000916001600160a01b0316906370a08231906124b3903090600401614dc8565b602060405180830381865afa1580156124d0573d6000803e3d6000fd5b505050506040513d601f19601f820116820180604052508101906124f491906152c3565b610131546101335460405163095ea7b360e01b81529293506001600160a01b039182169263095ea7b39261252e921690859060040161543c565b6020604051808303816000875af115801561254d573d6000803e3d6000fd5b505050506040513d601f19601f82011682018060405250810190612571919061530a565b506101335460405163b6b55f2560e01b81526001600160a01b039091169063b6b55f25906125a3908490600401614b7d565b600060405180830381600087803b1580156125bd57600080fd5b505af11580156125d1573d6000803e3d6000fd5b50505050505050505050505050505050565b610133546040516370a0823160e01b815260009182916001600160a01b03909116906370a0823190612619903090600401614dc8565b602060405180830381865afa158015612636573d6000803e3d6000fd5b505050506040513d601f19601f8201168201806040525081019061265a91906152c3565b905080156126cc5761013360009054906101000a90046001600160a01b03166001600160a01b0316633d18b9126040518163ffffffff1660e01b8152600401600060405180830381600087803b1580156126b357600080fd5b505af11580156126c7573d6000803e3d6000fd5b505050505b610130546040516370a0823160e01b815260009182916001600160a01b03909116906370a0823190612702903090600401614dc8565b602060405180830381865afa15801561271f573d6000803e3d6000fd5b505050506040513d601f19601f8201168201806040525081019061274391906152c3565b905080156127bb57610132546101305461012d54600092612776926001600160a01b039182169290821691168486613a3d565b905080156127b957610132546101305461012d546127ac926001600160a01b039081169281169116600086611f5887600a611c2f565b6127b690846154cd565b92505b505b81156128395761012d5460405163a9059cbb60e01b81526001600160a01b039091169063a9059cbb906127f4908890869060040161543c565b6020604051808303816000875af1158015612813573d6000803e3d6000fd5b505050506040513d601f19601f82011682018060405250810190612837919061530a565b505b509392505050565b61012d546000906001600160a01b038481169116146128725760405162461bcd60e51b81526004016107e09061579a565b610133546040516370a0823160e01b81526000916001600160a01b0316906370a08231906128a4903090600401614dc8565b602060405180830381865afa1580156128c1573d6000803e3d6000fd5b505050506040513d601f19601f820116820180604052508101906128e591906152c3565b61013354604051632e1a7d4d60e01b81529192506001600160a01b031690632e1a7d4d90612917908490600401614b7d565b600060405180830381600087803b15801561293157600080fd5b505af1158015612945573d6000803e3d6000fd5b50506101325461012e5461012f5461013154604080516309047bdd60e01b81529051600097508796506001600160a01b0395861695634386e63c9581169481169316916309047bdd9160048083019260209291908290030181865afa1580156129b2573d6000803e3d6000fd5b505050506040513d601f19601f820116820180604052508101906129d6919061530a565b876040518563ffffffff1660e01b81526004016129f69493929190615465565b6040805180830381865afa158015612a12573d6000803e3d6000fd5b505050506040513d601f19601f82011682018060405250810190612a36919061549a565b610131546101325460405163095ea7b360e01b81529395509193506001600160a01b039081169263095ea7b392612a73921690879060040161543c565b6020604051808303816000875af1158015612a92573d6000803e3d6000fd5b505050506040513d601f19601f82011682018060405250810190612ab6919061530a565b506101325461012e5461012f5461013154604080516309047bdd60e01b815290516001600160a01b0395861695630dede6c49581169481169316916309047bdd9160048083019260209291908290030181865afa158015612b1b573d6000803e3d6000fd5b505050506040513d601f19601f82011682018060405250810190612b3f919061530a565b87612b4c8860fc54611c2f565b612b588860fc54611c2f565b30426040518963ffffffff1660e01b8152600401612b7d9897969594939291906157aa565b60408051808303816000875af1158015612b9b573d6000803e3d6000fd5b505050506040513d601f19601f82011682018060405250810190612bbf919061549a565b505061012f546040516370a0823160e01b81526000916001600160a01b0316906370a0823190612bf3903090600401614dc8565b602060405180830381865afa158015612c10573d6000803e3d6000fd5b505050506040513d601f19601f82011682018060405250810190612c3491906152c3565b6101325461012f5461012e5461013154604080516309047bdd60e01b81529051959650600095612c9c956001600160a01b039081169581169481169316916309047bdd9160048083019260209291908290030181865afa158015612242573d6000803e3d6000fd5b90508015612d38576101325461012f5461012e5461013154604080516309047bdd60e01b81529051612d36956001600160a01b039081169581169481169316916309047bdd9160048083019260209291908290030181865afa158015612d06573d6000803e3d6000fd5b505050506040513d601f19601f82011682018060405250810190612d2a919061530a565b86611f588860b4611c2f565b505b61012e546040516370a0823160e01b81526000916001600160a01b0316906370a0823190612d6a903090600401614dc8565b602060405180830381865afa158015612d87573d6000803e3d6000fd5b505050506040513d601f19601f82011682018060405250810190612dab91906152c3565b6101355461012e5461012d5461013454939450612ddd936001600160a01b0393841693928316929182169116856138e9565b91508115612e565761013954610138546101375461013654600093612e14938693919290916001600160a01b039081169116613899565b6101355461012e5461012d546101345460fc54949550612e53946001600160a01b03948516949384169392831692909116908790611def908890611c2f565b50505b61012d546040516370a0823160e01b81526001600160a01b03909116906370a0823190612e87903090600401614dc8565b602060405180830381865afa158015612ea4573d6000803e3d6000fd5b505050506040513d601f19601f82011682018060405250810190612ec891906152c3565b9998505050505050505050565b61012d546000906001600160a01b03858116911614612f065760405162461bcd60e51b81526004016107e09061579a565b61013154604080516318160ddd60e01b815290516000926001600160a01b0316916318160ddd9160048083019260209291908290030181865afa158015612f51573d6000803e3d6000fd5b505050506040513d601f19601f82011682018060405250810190612f7591906152c3565b905060008061013160009054906101000a90046001600160a01b03166001600160a01b0316630902f1ac6040518163ffffffff1660e01b8152600401606060405180830381865afa158015612fce573d6000803e3d6000fd5b505050506040513d601f19601f82011682018060405250810190612ff29190615628565b506101325461012e5461012f5461013154604080516309047bdd60e01b815290519698509496506000956130a6956001600160a01b03958616959485169493841693909216916309047bdd9160048083019260209291908290030181865afa158015613062573d6000803e3d6000fd5b505050506040513d601f19601f82011682018060405250810190613086919061530a565b6130968c6509184e72a0006154cd565b89898961013854610139546140ff565b610133546040516370a0823160e01b81529192506000916001600160a01b03909116906370a08231906130dd903090600401614dc8565b602060405180830381865afa1580156130fa573d6000803e3d6000fd5b505050506040513d601f19601f8201168201806040525081019061311e91906152c3565b90508082111561312c578091505b61013354604051632e1a7d4d60e01b81526001600160a01b0390911690632e1a7d4d9061315d908590600401614b7d565b600060405180830381600087803b15801561317757600080fd5b505af115801561318b573d6000803e3d6000fd5b50506101325461012e5461012f5461013154604080516309047bdd60e01b81529051600097508796506001600160a01b0395861695634386e63c9581169481169316916309047bdd9160048083019260209291908290030181865afa1580156131f8573d6000803e3d6000fd5b505050506040513d601f19601f8201168201806040525081019061321c919061530a565b886040518563ffffffff1660e01b815260040161323c9493929190615465565b6040805180830381865afa158015613258573d6000803e3d6000fd5b505050506040513d601f19601f8201168201806040525081019061327c919061549a565b610131546101325460405163095ea7b360e01b81529395509193506001600160a01b039081169263095ea7b3926132b9921690889060040161543c565b6020604051808303816000875af11580156132d8573d6000803e3d6000fd5b505050506040513d601f19601f820116820180604052508101906132fc919061530a565b506101325461012e5461012f5461013154604080516309047bdd60e01b815290516001600160a01b0395861695630dede6c49581169481169316916309047bdd9160048083019260209291908290030181865afa158015613361573d6000803e3d6000fd5b505050506040513d601f19601f82011682018060405250810190613385919061530a565b886133928860fc54611c2f565b61339e8860fc54611c2f565b30426040518963ffffffff1660e01b81526004016133c39897969594939291906157aa565b60408051808303816000875af11580156133e1573d6000803e3d6000fd5b505050506040513d601f19601f82011682018060405250810190613405919061549a565b505061012e546040516370a0823160e01b81526000916001600160a01b0316906370a0823190613439903090600401614dc8565b602060405180830381865afa158015613456573d6000803e3d6000fd5b505050506040513d601f19601f8201168201806040525081019061347a91906152c3565b6101355461012e5461012d54610134549394506000936134ad936001600160a01b039081169381169281169116866138e9565b9050801561352657610139546101385461013754610136546000936134e4938793919290916001600160a01b039081169116613899565b6101355461012e5461012d546101345460fc54949550613523946001600160a01b03948516949384169392831692909116908890611def908890611c2f565b50505b61012f546040516370a0823160e01b81526000916001600160a01b0316906370a0823190613558903090600401614dc8565b602060405180830381865afa158015613575573d6000803e3d6000fd5b505050506040513d601f19601f8201168201806040525081019061359991906152c3565b6101325461012f5461012e5461012d5461013154604080516309047bdd60e01b815290519697506136ad966001600160a01b0396871696958616959485169493841693909216916309047bdd916004808201926020929091908290030181865afa15801561360b573d6000803e3d6000fd5b505050506040513d601f19601f8201168201806040525081019061362f919061530a565b61013160009054906101000a90046001600160a01b03166001600160a01b03166309047bdd6040518163ffffffff1660e01b8152600401602060405180830381865afa158015613683573d6000803e3d6000fd5b505050506040513d601f19601f820116820180604052508101906136a7919061530a565b8761420e565b915081156137ce576101325461012f5461012e5461012d5461013154604080516309047bdd60e01b815290516137cc966001600160a01b039081169681169581169481169316916309047bdd9160048083019260209291908290030181865afa15801561371e573d6000803e3d6000fd5b505050506040513d601f19601f82011682018060405250810190613742919061530a565b61013160009054906101000a90046001600160a01b03166001600160a01b03166309047bdd6040518163ffffffff1660e01b8152600401602060405180830381865afa158015613796573d6000803e3d6000fd5b505050506040513d601f19601f820116820180604052508101906137ba919061530a565b876137c68a60b4611c2f565b3061440d565b505b61012d546040516370a0823160e01b81526001600160a01b03909116906370a08231906137ff903090600401614dc8565b602060405180830381865afa15801561381c573d6000803e3d6000fd5b505050506040513d601f19601f8201168201806040525081019061384091906152c3565b9e9d5050505050505050505050505050565b6107b383838360405160240161386a9392919061586a565b60408051601f198184030181529190526020810180516001600160e01b031663ca47c4eb60e01b17905261469e565b6000806138a5846146bf565b905060006138b2846146bf565b90506138be81886155a4565b826138c9888b6155a4565b6138d391906155a4565b6138dd91906155d9565b98975050505050505050565b6040805160028082526060820183526000928392919060208301908036833701905050905085816000815181106139225761392261588a565b60200260200101906001600160a01b031690816001600160a01b03168152505084816001815181106139565761395661588a565b6001600160a01b03929092166020928302919091019091015260408051600180825281830190925260009181602001602082028036833701905050905084816000815181106139a7576139a761588a565b6001600160a01b03928316602091820292909201015260405163b9e598c160e01b81526000918a169063b9e598c1906139e890869086908a906004016158fd565b600060405180830381865afa158015613a05573d6000803e3d6000fd5b505050506040513d6000823e601f3d908101601f19168201604052613a2d91908101906159d4565b5093505050505b95945050505050565b604080516001808252818301909252600091829190816020015b6040805160608101825260008082526020808301829052928201528252600019909201910181613a575790505090508581600081518110613a9a57613a9a61588a565b6020026020010151600001906001600160a01b031690816001600160a01b0316815250508481600081518110613ad257613ad261588a565b6020026020010151602001906001600160a01b031690816001600160a01b0316815250508381600081518110613b0a57613b0a61588a565b6020908102919091010151901515604091820152516326207f2d60e21b81526001600160a01b03881690639881fcb490613b4a9086908590600401615aab565b600060405180830381865afa158015613b67573d6000803e3d6000fd5b505050506040513d6000823e601f3d908101601f19168201604052613b8f9190810190615acb565b600181518110613ba157613ba161588a565b602002602001015191505095945050505050565b613bbf8282610edb565b6107f357613bcc81614794565b613bd78360206147a6565b604051602001613be8929190615b28565b60408051601f198184030181529082905262461bcd60e51b82526107e091600401615b80565b6001600160a01b0381163b613c355760405162461bcd60e51b81526004016107e090615bdb565b600080516020615ef983398151915280546001600160a01b0319166001600160a01b0392909216919091179055565b613c6d83614912565b600082511180613c7a5750805b156107b357613c898383614952565b50505050565b600054610100900460ff16613cb65760405162461bcd60e51b81526004016107e090615c33565b565b60405163095ea7b360e01b81526000906001600160a01b0388169063095ea7b390613ce9908b90889060040161543c565b6020604051808303816000875af1158015613d08573d6000803e3d6000fd5b505050506040513d601f19601f82011682018060405250810190613d2c919061530a565b506040805160028082526060820183526000926020830190803683370190505090508781600081518110613d6257613d6261588a565b60200260200101906001600160a01b031690816001600160a01b0316815250508681600181518110613d9657613d9661588a565b6001600160a01b0392909216602092830291909101909101526040805160018082528183019092526000918160200160208202803683370190505090508681600081518110613de757613de761588a565b6001600160a01b03928316602091820292909201015260405163351041e960e21b8152908b169063d44107a490613e2c90859085908b908b908b904290600401615c43565b6020604051808303816000875af1158015613e4b573d6000803e3d6000fd5b505050506040513d601f19601f82011682018060405250810190613e6f91906152c3565b925050505b979650505050505050565b60008383613e8d84886155a4565b613e9791906155d9565b613ea191906154cd565b613eab85886155a4565b613eb591906155d9565b90506000613ec68b8b8b8b86613a3d565b90508482613ed483896155a4565b613ede91906155d9565b613ee891906154cd565b613ef286896155a4565b613efc91906155d9565b9b9a5050505050505050505050565b60405163095ea7b360e01b81526000906001600160a01b0388169063095ea7b390613f3c908b90889060040161543c565b6020604051808303816000875af1158015613f5b573d6000803e3d6000fd5b505050506040513d601f19601f82011682018060405250810190613f7f919061530a565b50604080516001808252818301909252600091816020015b6040805160608101825260008082526020808301829052928201528252600019909201910181613f975790505090508781600081518110613fda57613fda61588a565b6020026020010151600001906001600160a01b031690816001600160a01b03168152505086816000815181106140125761401261588a565b6020026020010151602001906001600160a01b031690816001600160a01b031681525050858160008151811061404a5761404a61588a565b602090810291909101015190151560409182015251631e82ecdb60e31b81526001600160a01b038a169063f41766d8906140909088908890869089904290600401615c9e565b6000604051808303816000875af11580156140af573d6000803e3d6000fd5b505050506040513d6000823e601f3d908101601f191682016040526140d79190810190615acb565b6001815181106140e9576140e961588a565b6020026020010151915050979650505050505050565b600061410b83856155a4565b61411583876155a4565b61411f91906154cd565b8261412a89896155a4565b61413491906155a4565b61413e91906155d9565b905061417260405180604001604052806011815260200170676574416d6f756e744c50546f6b656e7360781b8152506149fe565b614196604051806060016040528060238152602001615f4060239139858389614a41565b6000866141a383876155a4565b6141ad91906155d9565b905060006141be8d8c8e8d86613a3d565b90506141ca81876155a4565b6141d483896155a4565b6141de91906154cd565b826141e98b8b6155a4565b6141f391906155a4565b6141fd91906155d9565b9d9c50505050505050505050505050565b60408051600280825260608201909252600091829190816020015b6040805160608101825260008082526020808301829052928201528252600019909201910181614229579050509050878160008151811061426c5761426c61588a565b6020026020010151600001906001600160a01b031690816001600160a01b03168152505086816000815181106142a4576142a461588a565b6020026020010151602001906001600160a01b031690816001600160a01b03168152505084816000815181106142dc576142dc61588a565b6020026020010151604001901515908115158152505086816001815181106143065761430661588a565b6020026020010151600001906001600160a01b031690816001600160a01b031681525050858160018151811061433e5761433e61588a565b6020026020010151602001906001600160a01b031690816001600160a01b03168152505083816001815181106143765761437661588a565b6020908102919091010151901515604091820152516326207f2d60e21b81526001600160a01b038a1690639881fcb4906143b69086908590600401615aab565b600060405180830381865afa1580156143d3573d6000803e3d6000fd5b505050506040513d6000823e601f3d908101601f191682016040526143fb9190810190615acb565b6002815181106140e9576140e961588a565b60405163095ea7b360e01b81526000906001600160a01b038a169063095ea7b39061443e908d90889060040161543c565b6020604051808303816000875af115801561445d573d6000803e3d6000fd5b505050506040513d601f19601f82011682018060405250810190614481919061530a565b5060408051600280825260608201909252600091816020015b604080516060810182526000808252602080830182905292820152825260001990920191018161449a57905050905089816000815181106144dd576144dd61588a565b6020026020010151600001906001600160a01b031690816001600160a01b03168152505088816000815181106145155761451561588a565b6020026020010151602001906001600160a01b031690816001600160a01b031681525050868160008151811061454d5761454d61588a565b6020026020010151604001901515908115158152505088816001815181106145775761457761588a565b6020026020010151600001906001600160a01b031690816001600160a01b03168152505087816001815181106145af576145af61588a565b6020026020010151602001906001600160a01b031690816001600160a01b03168152505085816001815181106145e7576145e761588a565b602090810291909101015190151560409182015251631e82ecdb60e31b81526001600160a01b038c169063f41766d89061462d9088908890869089904290600401615c9e565b6000604051808303816000875af115801561464c573d6000803e3d6000fd5b505050506040513d6000823e601f3d908101601f191682016040526146749190810190615acb565b6002815181106146865761468661588a565b60200260200101519150509998505050505050505050565b80516a636f6e736f6c652e6c6f67602083016000808483855afa5050505050565b6000806000806000856001600160a01b031663feaf968c6040518163ffffffff1660e01b815260040160a060405180830381865afa158015614705573d6000803e3d6000fd5b505050506040513d601f19601f820116820180604052508101906147299190615d0e565b9450945050935093508369ffffffffffffffffffff168169ffffffffffffffffffff16101561476a5760405162461bcd60e51b81526004016107e090615da5565b6000821161478a5760405162461bcd60e51b81526004016107e090615dde565b5090949350505050565b60606107776001600160a01b03831660145b606060006147b58360026155a4565b6147c09060026154cd565b67ffffffffffffffff8111156147d8576147d8614c7e565b6040519080825280601f01601f191660200182016040528015614802576020820181803683370190505b509050600360fc1b8160008151811061481d5761481d61588a565b60200101906001600160f81b031916908160001a905350600f60fb1b8160018151811061484c5761484c61588a565b60200101906001600160f81b031916908160001a90535060006148708460026155a4565b61487b9060016154cd565b90505b60018111156148f3576f181899199a1a9b1b9c1cb0b131b232b360811b85600f16601081106148af576148af61588a565b1a60f81b8282815181106148c5576148c561588a565b60200101906001600160f81b031916908160001a90535060049490941c936148ec81615dee565b905061487e565b508315611c525760405162461bcd60e51b81526004016107e090615e37565b61491b81613c0e565b6040516001600160a01b038216907fbc7cd75a20ee27fd9adebab32041f755214dbc6bffa90cc0225b39da2e5c2d3b90600090a250565b60606001600160a01b0383163b61497b5760405162461bcd60e51b81526004016107e090615e8a565b600080846001600160a01b0316846040516149969190615e9a565b600060405180830381855af49150503d80600081146149d1576040519150601f19603f3d011682016040523d82523d6000602084013e6149d6565b606091505b5091509150613a348282604051806060016040528060278152602001615f1960279139614a8a565b6108d381604051602401614a129190615b80565b60408051601f198184030181529190526020810180516001600160e01b031663104c13eb60e21b17905261469e565b613c8984848484604051602401614a5b9493929190615ea6565b60408051601f198184030181529190526020810180516001600160e01b031663a7a8785360e01b17905261469e565b60608315614a99575081611c52565b611c528383815115614aae5781518083602001fd5b8060405162461bcd60e51b81526004016107e09190615b80565b60006107776001600160a01b038316614adf565b90565b6001600160a01b031690565b600061077782614ac8565b600061077782614aeb565b614b0a81614af6565b82525050565b602081016107778284614b01565b6001600160e01b031981165b81146108d357600080fd5b803561077781614b1e565b600060208284031215614b5557614b55600080fd5b60006114f08484614b35565b801515614b0a565b602081016107778284614b61565b80614b0a565b602081016107778284614b77565b80614b2a565b803561077781614b8b565b600060208284031215614bb157614bb1600080fd5b60006114f08484614b91565b60006001600160a01b038216610777565b614b2a81614bbd565b803561077781614bce565b60008060408385031215614bf857614bf8600080fd5b6000614c048585614b91565b9250506020614c1585828601614bd7565b9150509250929050565b600060208284031215614c3457614c34600080fd5b60006114f08484614bd7565b60006101608284031215614c5657614c56600080fd5b50919050565b60006101608284031215614c7257614c72600080fd5b60006114f08484614c40565b634e487b7160e01b600052604160045260246000fd5b601f19601f830116810181811067ffffffffffffffff82111715614cba57614cba614c7e565b6040525050565b6000614ccc60405190565b9050614cd88282614c94565b919050565b600067ffffffffffffffff821115614cf757614cf7614c7e565b601f19601f83011660200192915050565b82818337506000910152565b6000614d27614d2284614cdd565b614cc1565b905082815260208101848484011115614d4257614d42600080fd5b612839848285614d08565b600082601f830112614d6157614d61600080fd5b81356114f0848260208601614d14565b60008060408385031215614d8757614d87600080fd5b6000614d938585614bd7565b925050602083013567ffffffffffffffff811115614db357614db3600080fd5b614c1585828601614d4d565b614b0a81614bbd565b602081016107778284614dbf565b60008060408385031215614dec57614dec600080fd5b6000614df88585614bd7565b9250506020614c1585828601614b91565b600080600060608486031215614e2157614e21600080fd5b6000614e2d8686614b91565b9350506020614e3e86828701614b91565b9250506040614e4f86828701614b91565b9150509250925092565b801515614b2a565b803561077781614e59565b60008060008060808587031215614e8557614e85600080fd5b6000614e918787614bd7565b9450506020614ea287828801614b91565b9350506040614eb387828801614bd7565b9250506060614ec487828801614e61565b91505092959194509250565b602f81526000602082017f416363657373436f6e74726f6c3a2063616e206f6e6c792072656e6f756e636581526e103937b632b9903337b91039b2b63360891b602082015291505b5060400190565b6020808252810161077781614ed0565b602c81526000602082017f46756e6374696f6e206d7573742062652063616c6c6564207468726f7567682081526b19195b1959d85d1958d85b1b60a21b60208201529150614f18565b6020808252810161077781614f2f565b602c81526000602082017f46756e6374696f6e206d7573742062652063616c6c6564207468726f7567682081526b6163746976652070726f787960a01b60208201529150614f18565b6020808252810161077781614f88565b60148152600060208201735265737472696374656420746f2061646d696e7360601b815291505b5060200190565b6020808252810161077781614fe1565b60ff8116614b2a565b80516107778161501f565b60006020828403121561504857615048600080fd5b60006114f08484615028565b634e487b7160e01b600052601160045260246000fd5b80825b60018511156150a95780860481111561508857615088615054565b600185161561509657908102905b80026150a28560011c90565b945061506d565b94509492505050565b6000826150c157506001611c52565b816150ce57506000611c52565b81600181146150e457600281146150ee5761511b565b6001915050611c52565b60ff8411156150ff576150ff615054565b8360020a91508482111561511557615115615054565b50611c52565b5060208310610133831016604e8410600b841016171561514e575081810a8381111561514957615149615054565b611c52565b61515b848484600161506a565b9250905081840481111561517157615171615054565b0292915050565b600060ff83169250611c5260001984846150b2565b603881526000602082017f555550535570677261646561626c653a206d757374206e6f742062652063616c81527f6c6564207468726f7567682064656c656761746563616c6c000000000000000060208201529150614f18565b602080825281016107778161518d565b602e81526000602082017f496e697469616c697a61626c653a20636f6e747261637420697320616c72656181526d191e481a5b9a5d1a585b1a5e995960921b60208201529150614f18565b60208082528101610777816151f7565b600060ff8216610777565b614b0a81615252565b60208101610777828461525d565b601881526000602082017f5a65726f2061646472657373206e6f7420616c6c6f776564000000000000000081529150615008565b6020808252810161077781615274565b805161077781614b8b565b6000602082840312156152d8576152d8600080fd5b60006114f084846152b8565b604081016152f28285614b77565b611c526020830184614dbf565b805161077781614e59565b60006020828403121561531f5761531f600080fd5b60006114f084846152ff565b602281526000602082017f5265737472696374656420746f20504f5254464f4c494f5f4147454e545f524f8152614c4560f01b60208201529150614f18565b602080825281016107778161532b565b606081016153888286614b77565b6153956020830185614b77565b6114f06040830184614b77565b602981526000602082017f52657475726e65642076616c7565206c657373207468616e2072657175657374815268195908185b5bdd5b9d60ba1b60208201529150614f18565b60208082528101610777816153a2565b601f81526000602082017f5374726174656779204e4156206c657373207468616e2065787065637465640081529150615008565b60208082528101610777816153f8565b6040810161544a8285614dbf565b611c526020830184614b77565b6040810161544a8285614b77565b608081016154738287614dbf565b6154806020830186614dbf565b61548d6040830185614b61565b613a346060830184614b77565b600080604083850312156154b0576154b0600080fd5b60006154bc85856152b8565b9250506020614c15858286016152b8565b8082018082111561077757610777615054565b602e81526000602082017f45524331393637557067726164653a206e657720696d706c656d656e7461746981526d6f6e206973206e6f74205555505360901b60208201529150614f18565b60208082528101610777816154e0565b602981526000602082017f45524331393637557067726164653a20756e737570706f727465642070726f788152681a58589b195555525160ba1b60208201529150614f18565b602080825281016107778161553b565b8181038181111561077757610777615054565b8181028082158382048514176155bc576155bc615054565b5092915050565b634e487b7160e01b600052601260045260246000fd5b6000826155e8576155e86155c3565b500490565b60148152600060208201732737b716b1b7b6b830ba34b13632903a37b5b2b760611b81529150615008565b60208082528101610777816155ed565b60008060006060848603121561564057615640600080fd5b600061564c86866152b8565b935050602061565d868287016152b8565b9250506040614e4f868287016152b8565b610120810161567d828c614dbf565b61568a602083018b614dbf565b615697604083018a614b61565b6156a46060830189614b77565b6156b16080830188614b77565b6156be60a0830187614b77565b6156cb60c0830186614b77565b6156d860e0830185614dbf565b6156e6610100830184614b77565b9a9950505050505050505050565b6000610777614adc8381565b614b0a816156f4565b6101208101615718828c614dbf565b615725602083018b614dbf565b615732604083018a614b61565b61573f6060830189614b77565b61574c6080830188614b77565b61575960a0830187615700565b6156cb60c0830186615700565b601981526000602082017f536f6d6520746f6b656e206e6f7420636f6d70617469626c650000000000000081529150615008565b6020808252810161077781615766565b61010081016157b9828b614dbf565b6157c6602083018a614dbf565b6157d36040830189614b61565b6157e06060830188614b77565b6157ed6080830187614b77565b6157fa60a0830186614b77565b61580760c0830185614dbf565b612ec860e0830184614b77565b60005b8381101561582f578181015183820152602001615817565b50506000910152565b6000615842825190565b808452602084019350615859818560208601615814565b601f01601f19169290920192915050565b6060808252810161587b8186615838565b90506153956020830185614b77565b634e487b7160e01b600052603260045260246000fd5b60006158ac8383614dbf565b505060200190565b60006158be825190565b80845260209384019383018060005b838110156158f25781516158e188826158a0565b9750602083019250506001016158cd565b509495945050505050565b6060808252810161590e81866158b4565b9050818103602083015261592281856158b4565b90506114f06040830184614b77565b600067ffffffffffffffff82111561594b5761594b614c7e565b5060209081020190565b6000615963614d2284615931565b8381529050602080820190840283018581111561598257615982600080fd5b835b818110156159a6578061599788826152b8565b84525060209283019201615984565b5050509392505050565b600082601f8301126159c4576159c4600080fd5b81516114f0848260208601615955565b600080604083850312156159ea576159ea600080fd5b60006159f685856152b8565b925050602083015167ffffffffffffffff811115615a1657615a16600080fd5b614c15858286016159b0565b80516060830190615a338482614dbf565b506020820151615a466020850182614dbf565b506040820151613c896040850182614b61565b6000615a658383615a22565b505060600190565b6000615a77825190565b80845260209384019383018060005b838110156158f2578151615a9a8882615a59565b975060208301925050600101615a86565b60408101615ab98285614b77565b81810360208301526114f08184615a6d565b600060208284031215615ae057615ae0600080fd5b815167ffffffffffffffff811115615afa57615afa600080fd5b6114f0848285016159b0565b6000615b10825190565b615b1e818560208601615814565b9290920192915050565b7f416363657373436f6e74726f6c3a206163636f756e742000000000000000000081526017016000615b5a8285615b06565b7001034b99036b4b9b9b4b733903937b6329607d1b815260110191506114f08284615b06565b60208082528101611c528184615838565b602d81526000602082017f455243313936373a206e657720696d706c656d656e746174696f6e206973206e81526c1bdd08184818dbdb9d1c9858dd609a1b60208201529150614f18565b6020808252810161077781615b91565b602b81526000602082017f496e697469616c697a61626c653a20636f6e7472616374206973206e6f74206981526a6e697469616c697a696e6760a81b60208201529150614f18565b6020808252810161077781615beb565b60c08082528101615c5481896158b4565b90508181036020830152615c6881886158b4565b9050615c776040830187614b77565b615c846060830186614b77565b615c916080830185614dbf565b613e7460a0830184614b77565b60a08101615cac8288614b77565b615cb96020830187614b77565b8181036040830152615ccb8186615a6d565b9050615cda6060830185614dbf565b615ce76080830184614b77565b9695505050505050565b69ffffffffffffffffffff8116614b2a565b805161077781615cf1565b600080600080600060a08688031215615d2957615d29600080fd5b6000615d358888615d03565b9550506020615d46888289016152b8565b9450506040615d57888289016152b8565b9350506060615d68888289016152b8565b9250506080615d7988828901615d03565b9150509295509295909350565b60088152600060208201674f6c64206461746160c01b81529150615008565b6020808252810161077781615d86565b6012815260006020820171526f756e64206e6f7420636f6d706c65746560701b81529150615008565b6020808252810161077781615db5565b600081615dfd57615dfd615054565b506000190190565b60208082527f537472696e67733a20686578206c656e67746820696e73756666696369656e7491019081526000615008565b6020808252810161077781615e05565b602681526000602082017f416464726573733a2064656c65676174652063616c6c20746f206e6f6e2d636f8152651b9d1c9858dd60d21b60208201529150614f18565b6020808252810161077781615e47565b6000611c528284615b06565b60808082528101615eb78187615838565b9050615ec66020830186614b77565b61548d6040830185614b7756fe7769746864726177416d6f756e74206f6620257320616e6420616d6f756e74206f66202573360894a13ba1a3210667c828492db98dca3e2076cc3735a920a3ca505d382bbc416464726573733a206c6f772d6c6576656c2064656c65676174652063616c6c206661696c656472313a20257320616d6f756e744c7020257320746f74616c416d6f756e744c70202573a2646970667358221220a1f7becb9494de4988577413db65b0ae9f9b059a9933ebba411320f8df27b27464736f6c63430008110033",
  "implementation": "0x3cF9C13D6649e295E6fb20bfCA31a58AE467e58A",
  "devdoc": {
    "kind": "dev",
    "methods": {
      "constructor": {
        "custom:oz-upgrades-unsafe-allow": "constructor"
      },
      "getRoleAdmin(bytes32)": {
        "details": "Returns the admin role that controls `role`. See {grantRole} and {revokeRole}. To change a role's admin, use {_setRoleAdmin}."
      },
      "grantRole(bytes32,address)": {
        "details": "Grants `role` to `account`. If `account` had not been already granted `role`, emits a {RoleGranted} event. Requirements: - the caller must have ``role``'s admin role. May emit a {RoleGranted} event."
      },
      "hasRole(bytes32,address)": {
        "details": "Returns `true` if `account` has been granted `role`."
      },
      "proxiableUUID()": {
        "details": "Implementation of the ERC1822 {proxiableUUID} function. This returns the storage slot used by the implementation. It is used to validate the implementation's compatibility when performing an upgrade. IMPORTANT: A proxy pointing at a proxiable contract should not be considered proxiable itself, because this risks bricking a proxy that upgrades to it, by delegating to itself until out of gas. Thus it is critical that this function revert if invoked through a proxy. This is guaranteed by the `notDelegated` modifier."
      },
      "renounceRole(bytes32,address)": {
        "details": "Revokes `role` from the calling account. Roles are often managed via {grantRole} and {revokeRole}: this function's purpose is to provide a mechanism for accounts to lose their privileges if they are compromised (such as when a trusted device is misplaced). If the calling account had been revoked `role`, emits a {RoleRevoked} event. Requirements: - the caller must be `account`. May emit a {RoleRevoked} event."
      },
      "revokeRole(bytes32,address)": {
        "details": "Revokes `role` from `account`. If `account` had been granted `role`, emits a {RoleRevoked} event. Requirements: - the caller must have ``role``'s admin role. May emit a {RoleRevoked} event."
      },
      "supportsInterface(bytes4)": {
        "details": "See {IERC165-supportsInterface}."
      },
      "upgradeTo(address)": {
        "details": "Upgrade the implementation of the proxy to `newImplementation`. Calls {_authorizeUpgrade}. Emits an {Upgraded} event."
      },
      "upgradeToAndCall(address,bytes)": {
        "details": "Upgrade the implementation of the proxy to `newImplementation`, and subsequently execute the function call encoded in `data`. Calls {_authorizeUpgrade}. Emits an {Upgraded} event."
      }
    },
    "version": 1
  },
  "userdoc": {
    "kind": "user",
    "methods": {},
    "version": 1
  },
  "storageLayout": {
    "storage": [
      {
        "astId": 804,
        "contract": "contracts/strategies/StrategyThenaUsdtUsdPlus.sol:StrategyThenaUsdtUsdPlus",
        "label": "_initialized",
        "offset": 0,
        "slot": "0",
        "type": "t_uint8"
      },
      {
        "astId": 807,
        "contract": "contracts/strategies/StrategyThenaUsdtUsdPlus.sol:StrategyThenaUsdtUsdPlus",
        "label": "_initializing",
        "offset": 1,
        "slot": "0",
        "type": "t_bool"
      },
      {
        "astId": 1427,
        "contract": "contracts/strategies/StrategyThenaUsdtUsdPlus.sol:StrategyThenaUsdtUsdPlus",
        "label": "__gap",
        "offset": 0,
        "slot": "1",
        "type": "t_array(t_uint256)50_storage"
      },
      {
        "astId": 1706,
        "contract": "contracts/strategies/StrategyThenaUsdtUsdPlus.sol:StrategyThenaUsdtUsdPlus",
        "label": "__gap",
        "offset": 0,
        "slot": "51",
        "type": "t_array(t_uint256)50_storage"
      },
      {
        "astId": 39,
        "contract": "contracts/strategies/StrategyThenaUsdtUsdPlus.sol:StrategyThenaUsdtUsdPlus",
        "label": "_roles",
        "offset": 0,
        "slot": "101",
        "type": "t_mapping(t_bytes32,t_struct(RoleData)34_storage)"
      },
      {
        "astId": 334,
        "contract": "contracts/strategies/StrategyThenaUsdtUsdPlus.sol:StrategyThenaUsdtUsdPlus",
        "label": "__gap",
        "offset": 0,
        "slot": "102",
        "type": "t_array(t_uint256)49_storage"
      },
      {
        "astId": 786,
        "contract": "contracts/strategies/StrategyThenaUsdtUsdPlus.sol:StrategyThenaUsdtUsdPlus",
        "label": "__gap",
        "offset": 0,
        "slot": "151",
        "type": "t_array(t_uint256)50_storage"
      },
      {
        "astId": 1101,
        "contract": "contracts/strategies/StrategyThenaUsdtUsdPlus.sol:StrategyThenaUsdtUsdPlus",
        "label": "__gap",
        "offset": 0,
        "slot": "201",
        "type": "t_array(t_uint256)50_storage"
      },
      {
        "astId": 2717,
        "contract": "contracts/strategies/StrategyThenaUsdtUsdPlus.sol:StrategyThenaUsdtUsdPlus",
        "label": "portfolioManager",
        "offset": 0,
        "slot": "251",
        "type": "t_address"
      },
      {
        "astId": 2719,
        "contract": "contracts/strategies/StrategyThenaUsdtUsdPlus.sol:StrategyThenaUsdtUsdPlus",
        "label": "swapSlippageBP",
        "offset": 0,
        "slot": "252",
        "type": "t_uint256"
      },
      {
        "astId": 2721,
        "contract": "contracts/strategies/StrategyThenaUsdtUsdPlus.sol:StrategyThenaUsdtUsdPlus",
        "label": "navSlippageBP",
        "offset": 0,
        "slot": "253",
        "type": "t_uint256"
      },
      {
        "astId": 2723,
        "contract": "contracts/strategies/StrategyThenaUsdtUsdPlus.sol:StrategyThenaUsdtUsdPlus",
        "label": "stakeSlippageBP",
        "offset": 0,
        "slot": "254",
        "type": "t_uint256"
      },
      {
        "astId": 3101,
        "contract": "contracts/strategies/StrategyThenaUsdtUsdPlus.sol:StrategyThenaUsdtUsdPlus",
        "label": "__gap",
        "offset": 0,
        "slot": "255",
        "type": "t_array(t_uint256)46_storage"
      },
      {
        "astId": 6104,
        "contract": "contracts/strategies/StrategyThenaUsdtUsdPlus.sol:StrategyThenaUsdtUsdPlus",
        "label": "busd",
        "offset": 0,
        "slot": "301",
        "type": "t_contract(IERC20)2662"
      },
      {
        "astId": 6107,
        "contract": "contracts/strategies/StrategyThenaUsdtUsdPlus.sol:StrategyThenaUsdtUsdPlus",
        "label": "usdt",
        "offset": 0,
        "slot": "302",
        "type": "t_contract(IERC20)2662"
      },
      {
        "astId": 6110,
        "contract": "contracts/strategies/StrategyThenaUsdtUsdPlus.sol:StrategyThenaUsdtUsdPlus",
        "label": "usdPlus",
        "offset": 0,
        "slot": "303",
        "type": "t_contract(IERC20)2662"
      },
      {
        "astId": 6113,
        "contract": "contracts/strategies/StrategyThenaUsdtUsdPlus.sol:StrategyThenaUsdtUsdPlus",
        "label": "the",
        "offset": 0,
        "slot": "304",
        "type": "t_contract(IERC20)2662"
      },
      {
        "astId": 6116,
        "contract": "contracts/strategies/StrategyThenaUsdtUsdPlus.sol:StrategyThenaUsdtUsdPlus",
        "label": "pair",
        "offset": 0,
        "slot": "305",
        "type": "t_contract(IPair)3697"
      },
      {
        "astId": 6119,
        "contract": "contracts/strategies/StrategyThenaUsdtUsdPlus.sol:StrategyThenaUsdtUsdPlus",
        "label": "router",
        "offset": 0,
        "slot": "306",
        "type": "t_contract(IRouter)4047"
      },
      {
        "astId": 6122,
        "contract": "contracts/strategies/StrategyThenaUsdtUsdPlus.sol:StrategyThenaUsdtUsdPlus",
        "label": "gauge",
        "offset": 0,
        "slot": "307",
        "type": "t_contract(IGaugeV2)4234"
      },
      {
        "astId": 6125,
        "contract": "contracts/strategies/StrategyThenaUsdtUsdPlus.sol:StrategyThenaUsdtUsdPlus",
        "label": "wombatPool",
        "offset": 0,
        "slot": "308",
        "type": "t_contract(IPool)4893"
      },
      {
        "astId": 6128,
        "contract": "contracts/strategies/StrategyThenaUsdtUsdPlus.sol:StrategyThenaUsdtUsdPlus",
        "label": "wombatRouter",
        "offset": 0,
        "slot": "309",
        "type": "t_contract(IWombatRouter)5249"
      },
      {
        "astId": 6131,
        "contract": "contracts/strategies/StrategyThenaUsdtUsdPlus.sol:StrategyThenaUsdtUsdPlus",
        "label": "oracleBusd",
        "offset": 0,
        "slot": "310",
        "type": "t_contract(IPriceFeed)3177"
      },
      {
        "astId": 6134,
        "contract": "contracts/strategies/StrategyThenaUsdtUsdPlus.sol:StrategyThenaUsdtUsdPlus",
        "label": "oracleUsdt",
        "offset": 0,
        "slot": "311",
        "type": "t_contract(IPriceFeed)3177"
      },
      {
        "astId": 6136,
        "contract": "contracts/strategies/StrategyThenaUsdtUsdPlus.sol:StrategyThenaUsdtUsdPlus",
        "label": "busdDm",
        "offset": 0,
        "slot": "312",
        "type": "t_uint256"
      },
      {
        "astId": 6138,
        "contract": "contracts/strategies/StrategyThenaUsdtUsdPlus.sol:StrategyThenaUsdtUsdPlus",
        "label": "usdtDm",
        "offset": 0,
        "slot": "313",
        "type": "t_uint256"
      },
      {
        "astId": 6141,
        "contract": "contracts/strategies/StrategyThenaUsdtUsdPlus.sol:StrategyThenaUsdtUsdPlus",
        "label": "hay",
        "offset": 0,
        "slot": "314",
        "type": "t_contract(IERC20)2662"
      },
      {
        "astId": 6143,
        "contract": "contracts/strategies/StrategyThenaUsdtUsdPlus.sol:StrategyThenaUsdtUsdPlus",
        "label": "usdPlusDm",
        "offset": 0,
        "slot": "315",
        "type": "t_uint256"
      }
    ],
    "types": {
      "t_address": {
        "encoding": "inplace",
        "label": "address",
        "numberOfBytes": "20"
      },
      "t_array(t_uint256)46_storage": {
        "base": "t_uint256",
        "encoding": "inplace",
        "label": "uint256[46]",
        "numberOfBytes": "1472"
      },
      "t_array(t_uint256)49_storage": {
        "base": "t_uint256",
        "encoding": "inplace",
        "label": "uint256[49]",
        "numberOfBytes": "1568"
      },
      "t_array(t_uint256)50_storage": {
        "base": "t_uint256",
        "encoding": "inplace",
        "label": "uint256[50]",
        "numberOfBytes": "1600"
      },
      "t_bool": {
        "encoding": "inplace",
        "label": "bool",
        "numberOfBytes": "1"
      },
      "t_bytes32": {
        "encoding": "inplace",
        "label": "bytes32",
        "numberOfBytes": "32"
      },
      "t_contract(IERC20)2662": {
        "encoding": "inplace",
        "label": "contract IERC20",
        "numberOfBytes": "20"
      },
      "t_contract(IGaugeV2)4234": {
        "encoding": "inplace",
        "label": "contract IGaugeV2",
        "numberOfBytes": "20"
      },
      "t_contract(IPair)3697": {
        "encoding": "inplace",
        "label": "contract IPair",
        "numberOfBytes": "20"
      },
      "t_contract(IPool)4893": {
        "encoding": "inplace",
        "label": "contract IPool",
        "numberOfBytes": "20"
      },
      "t_contract(IPriceFeed)3177": {
        "encoding": "inplace",
        "label": "contract IPriceFeed",
        "numberOfBytes": "20"
      },
      "t_contract(IRouter)4047": {
        "encoding": "inplace",
        "label": "contract IRouter",
        "numberOfBytes": "20"
      },
      "t_contract(IWombatRouter)5249": {
        "encoding": "inplace",
        "label": "contract IWombatRouter",
        "numberOfBytes": "20"
      },
      "t_mapping(t_address,t_bool)": {
        "encoding": "mapping",
        "key": "t_address",
        "label": "mapping(address => bool)",
        "numberOfBytes": "32",
        "value": "t_bool"
      },
      "t_mapping(t_bytes32,t_struct(RoleData)34_storage)": {
        "encoding": "mapping",
        "key": "t_bytes32",
        "label": "mapping(bytes32 => struct AccessControlUpgradeable.RoleData)",
        "numberOfBytes": "32",
        "value": "t_struct(RoleData)34_storage"
      },
      "t_struct(RoleData)34_storage": {
        "encoding": "inplace",
        "label": "struct AccessControlUpgradeable.RoleData",
        "members": [
          {
            "astId": 31,
            "contract": "contracts/strategies/StrategyThenaUsdtUsdPlus.sol:StrategyThenaUsdtUsdPlus",
            "label": "members",
            "offset": 0,
            "slot": "0",
            "type": "t_mapping(t_address,t_bool)"
          },
          {
            "astId": 33,
            "contract": "contracts/strategies/StrategyThenaUsdtUsdPlus.sol:StrategyThenaUsdtUsdPlus",
            "label": "adminRole",
            "offset": 0,
            "slot": "1",
            "type": "t_bytes32"
          }
        ],
        "numberOfBytes": "64"
      },
      "t_uint256": {
        "encoding": "inplace",
        "label": "uint256",
        "numberOfBytes": "32"
      },
      "t_uint8": {
        "encoding": "inplace",
        "label": "uint8",
        "numberOfBytes": "1"
      }
    }
  }
}