{
  "address": "0x78E54be5398D29Ee09EA2C4AB29f66f39a7cE17a",
  "abi": [
    {
      "inputs": [],
      "stateMutability": "nonpayable",
      "type": "constructor"
    },
    {
      "anonymous": false,
      "inputs": [
        {
          "indexed": false,
          "internalType": "address",
          "name": "previousAdmin",
          "type": "address"
        },
        {
          "indexed": false,
          "internalType": "address",
          "name": "newAdmin",
          "type": "address"
        }
      ],
      "name": "AdminChanged",
      "type": "event"
    },
    {
      "anonymous": false,
      "inputs": [
        {
          "indexed": true,
          "internalType": "address",
          "name": "beacon",
          "type": "address"
        }
      ],
      "name": "BeaconUpgraded",
      "type": "event"
    },
    {
      "anonymous": false,
      "inputs": [
        {
          "indexed": false,
          "internalType": "uint8",
          "name": "version",
          "type": "uint8"
        }
      ],
      "name": "Initialized",
      "type": "event"
    },
    {
      "anonymous": false,
      "inputs": [
        {
          "indexed": false,
          "internalType": "address",
          "name": "value",
          "type": "address"
        }
      ],
      "name": "PortfolioManagerUpdated",
      "type": "event"
    },
    {
      "anonymous": false,
      "inputs": [
        {
          "indexed": false,
          "internalType": "uint256",
          "name": "amount",
          "type": "uint256"
        }
      ],
      "name": "Reward",
      "type": "event"
    },
    {
      "anonymous": false,
      "inputs": [
        {
          "indexed": true,
          "internalType": "bytes32",
          "name": "role",
          "type": "bytes32"
        },
        {
          "indexed": true,
          "internalType": "bytes32",
          "name": "previousAdminRole",
          "type": "bytes32"
        },
        {
          "indexed": true,
          "internalType": "bytes32",
          "name": "newAdminRole",
          "type": "bytes32"
        }
      ],
      "name": "RoleAdminChanged",
      "type": "event"
    },
    {
      "anonymous": false,
      "inputs": [
        {
          "indexed": true,
          "internalType": "bytes32",
          "name": "role",
          "type": "bytes32"
        },
        {
          "indexed": true,
          "internalType": "address",
          "name": "account",
          "type": "address"
        },
        {
          "indexed": true,
          "internalType": "address",
          "name": "sender",
          "type": "address"
        }
      ],
      "name": "RoleGranted",
      "type": "event"
    },
    {
      "anonymous": false,
      "inputs": [
        {
          "indexed": true,
          "internalType": "bytes32",
          "name": "role",
          "type": "bytes32"
        },
        {
          "indexed": true,
          "internalType": "address",
          "name": "account",
          "type": "address"
        },
        {
          "indexed": true,
          "internalType": "address",
          "name": "sender",
          "type": "address"
        }
      ],
      "name": "RoleRevoked",
      "type": "event"
    },
    {
      "anonymous": false,
      "inputs": [
        {
          "indexed": false,
          "internalType": "uint256",
          "name": "swapSlippageBP",
          "type": "uint256"
        },
        {
          "indexed": false,
          "internalType": "uint256",
          "name": "navSlippageBP",
          "type": "uint256"
        },
        {
          "indexed": false,
          "internalType": "uint256",
          "name": "stakeSlippageBP",
          "type": "uint256"
        }
      ],
      "name": "SlippagesUpdated",
      "type": "event"
    },
    {
      "anonymous": false,
      "inputs": [
        {
          "indexed": false,
          "internalType": "uint256",
          "name": "amount",
          "type": "uint256"
        }
      ],
      "name": "Stake",
      "type": "event"
    },
    {
      "anonymous": false,
      "inputs": [],
      "name": "StrategyUpdatedParams",
      "type": "event"
    },
    {
      "anonymous": false,
      "inputs": [
        {
          "indexed": false,
          "internalType": "uint256",
          "name": "amount",
          "type": "uint256"
        },
        {
          "indexed": false,
          "internalType": "uint256",
          "name": "amountReceived",
          "type": "uint256"
        }
      ],
      "name": "Unstake",
      "type": "event"
    },
    {
      "anonymous": false,
      "inputs": [
        {
          "indexed": true,
          "internalType": "address",
          "name": "implementation",
          "type": "address"
        }
      ],
      "name": "Upgraded",
      "type": "event"
    },
    {
      "inputs": [],
      "name": "DEFAULT_ADMIN_ROLE",
      "outputs": [
        {
          "internalType": "bytes32",
          "name": "",
          "type": "bytes32"
        }
      ],
      "stateMutability": "view",
      "type": "function"
    },
    {
      "inputs": [],
      "name": "PORTFOLIO_AGENT_ROLE",
      "outputs": [
        {
          "internalType": "bytes32",
          "name": "",
          "type": "bytes32"
        }
      ],
      "stateMutability": "view",
      "type": "function"
    },
    {
      "inputs": [],
      "name": "PORTFOLIO_MANAGER",
      "outputs": [
        {
          "internalType": "bytes32",
          "name": "",
          "type": "bytes32"
        }
      ],
      "stateMutability": "view",
      "type": "function"
    },
    {
      "inputs": [
        {
          "internalType": "address",
          "name": "_to",
          "type": "address"
        }
      ],
      "name": "claimRewards",
      "outputs": [
        {
          "internalType": "uint256",
          "name": "",
          "type": "uint256"
        }
      ],
      "stateMutability": "nonpayable",
      "type": "function"
    },
    {
      "inputs": [
        {
          "internalType": "bytes32",
          "name": "role",
          "type": "bytes32"
        }
      ],
      "name": "getRoleAdmin",
      "outputs": [
        {
          "internalType": "bytes32",
          "name": "",
          "type": "bytes32"
        }
      ],
      "stateMutability": "view",
      "type": "function"
    },
    {
      "inputs": [
        {
          "internalType": "bytes32",
          "name": "role",
          "type": "bytes32"
        },
        {
          "internalType": "address",
          "name": "account",
          "type": "address"
        }
      ],
      "name": "grantRole",
      "outputs": [],
      "stateMutability": "nonpayable",
      "type": "function"
    },
    {
      "inputs": [
        {
          "internalType": "bytes32",
          "name": "role",
          "type": "bytes32"
        },
        {
          "internalType": "address",
          "name": "account",
          "type": "address"
        }
      ],
      "name": "hasRole",
      "outputs": [
        {
          "internalType": "bool",
          "name": "",
          "type": "bool"
        }
      ],
      "stateMutability": "view",
      "type": "function"
    },
    {
      "inputs": [],
      "name": "initialize",
      "outputs": [],
      "stateMutability": "nonpayable",
      "type": "function"
    },
    {
      "inputs": [],
      "name": "liquidationValue",
      "outputs": [
        {
          "internalType": "uint256",
          "name": "",
          "type": "uint256"
        }
      ],
      "stateMutability": "view",
      "type": "function"
    },
    {
      "inputs": [],
      "name": "lpUsdtDm",
      "outputs": [
        {
          "internalType": "uint256",
          "name": "",
          "type": "uint256"
        }
      ],
      "stateMutability": "view",
      "type": "function"
    },
    {
      "inputs": [],
      "name": "lpUsdtPlus",
      "outputs": [
        {
          "internalType": "contract IWombatAsset",
          "name": "",
          "type": "address"
        }
      ],
      "stateMutability": "view",
      "type": "function"
    },
    {
      "inputs": [],
      "name": "lpUsdtPlusDm",
      "outputs": [
        {
          "internalType": "uint256",
          "name": "",
          "type": "uint256"
        }
      ],
      "stateMutability": "view",
      "type": "function"
    },
    {
      "inputs": [],
      "name": "name",
      "outputs": [
        {
          "internalType": "string",
          "name": "",
          "type": "string"
        }
      ],
      "stateMutability": "view",
      "type": "function"
    },
    {
      "inputs": [],
      "name": "navSlippageBP",
      "outputs": [
        {
          "internalType": "uint256",
          "name": "",
          "type": "uint256"
        }
      ],
      "stateMutability": "view",
      "type": "function"
    },
    {
      "inputs": [],
      "name": "netAssetValue",
      "outputs": [
        {
          "internalType": "uint256",
          "name": "",
          "type": "uint256"
        }
      ],
      "stateMutability": "view",
      "type": "function"
    },
    {
      "inputs": [],
      "name": "oracleUsdt",
      "outputs": [
        {
          "internalType": "contract IPriceFeed",
          "name": "",
          "type": "address"
        }
      ],
      "stateMutability": "view",
      "type": "function"
    },
    {
      "inputs": [],
      "name": "pancakeRouter",
      "outputs": [
        {
          "internalType": "contract IPancakeRouter02",
          "name": "",
          "type": "address"
        }
      ],
      "stateMutability": "view",
      "type": "function"
    },
    {
      "inputs": [],
      "name": "pool",
      "outputs": [
        {
          "internalType": "address",
          "name": "",
          "type": "address"
        }
      ],
      "stateMutability": "view",
      "type": "function"
    },
    {
      "inputs": [],
      "name": "poolDepositor",
      "outputs": [
        {
          "internalType": "contract IWombexPoolDepositor",
          "name": "",
          "type": "address"
        }
      ],
      "stateMutability": "view",
      "type": "function"
    },
    {
      "inputs": [],
      "name": "portfolioManager",
      "outputs": [
        {
          "internalType": "address",
          "name": "",
          "type": "address"
        }
      ],
      "stateMutability": "view",
      "type": "function"
    },
    {
      "inputs": [],
      "name": "proxiableUUID",
      "outputs": [
        {
          "internalType": "bytes32",
          "name": "",
          "type": "bytes32"
        }
      ],
      "stateMutability": "view",
      "type": "function"
    },
    {
      "inputs": [
        {
          "internalType": "bytes32",
          "name": "role",
          "type": "bytes32"
        },
        {
          "internalType": "address",
          "name": "account",
          "type": "address"
        }
      ],
      "name": "renounceRole",
      "outputs": [],
      "stateMutability": "nonpayable",
      "type": "function"
    },
    {
      "inputs": [
        {
          "internalType": "bytes32",
          "name": "role",
          "type": "bytes32"
        },
        {
          "internalType": "address",
          "name": "account",
          "type": "address"
        }
      ],
      "name": "revokeRole",
      "outputs": [],
      "stateMutability": "nonpayable",
      "type": "function"
    },
    {
      "inputs": [
        {
          "components": [
            {
              "internalType": "address",
              "name": "usdtPlus",
              "type": "address"
            },
            {
              "internalType": "address",
              "name": "usdt",
              "type": "address"
            },
            {
              "internalType": "address",
              "name": "usdc",
              "type": "address"
            },
            {
              "internalType": "address",
              "name": "wom",
              "type": "address"
            },
            {
              "internalType": "address",
              "name": "wmx",
              "type": "address"
            },
            {
              "internalType": "address",
              "name": "lpUsdtPlus",
              "type": "address"
            },
            {
              "internalType": "address",
              "name": "wmxLpUsdtPlus",
              "type": "address"
            },
            {
              "internalType": "address",
              "name": "poolDepositor",
              "type": "address"
            },
            {
              "internalType": "address",
              "name": "pool",
              "type": "address"
            },
            {
              "internalType": "address",
              "name": "pancakeRouter",
              "type": "address"
            },
            {
              "internalType": "address",
              "name": "wombatRouter",
              "type": "address"
            },
            {
              "internalType": "address",
              "name": "oracleUsdt",
              "type": "address"
            },
            {
              "internalType": "string",
              "name": "name",
              "type": "string"
            }
          ],
          "internalType": "struct StrategyWombexUsdtPlus.StrategyParams",
          "name": "params",
          "type": "tuple"
        }
      ],
      "name": "setParams",
      "outputs": [],
      "stateMutability": "nonpayable",
      "type": "function"
    },
    {
      "inputs": [
        {
          "internalType": "address",
          "name": "_value",
          "type": "address"
        }
      ],
      "name": "setPortfolioManager",
      "outputs": [],
      "stateMutability": "nonpayable",
      "type": "function"
    },
    {
      "inputs": [
        {
          "internalType": "uint256",
          "name": "_swapSlippageBP",
          "type": "uint256"
        },
        {
          "internalType": "uint256",
          "name": "_navSlippageBP",
          "type": "uint256"
        },
        {
          "internalType": "uint256",
          "name": "_stakeSlippageBP",
          "type": "uint256"
        }
      ],
      "name": "setSlippages",
      "outputs": [],
      "stateMutability": "nonpayable",
      "type": "function"
    },
    {
      "inputs": [
        {
          "internalType": "address",
          "name": "_asset",
          "type": "address"
        },
        {
          "internalType": "uint256",
          "name": "_amount",
          "type": "uint256"
        }
      ],
      "name": "stake",
      "outputs": [],
      "stateMutability": "nonpayable",
      "type": "function"
    },
    {
      "inputs": [],
      "name": "stakeSlippageBP",
      "outputs": [
        {
          "internalType": "uint256",
          "name": "",
          "type": "uint256"
        }
      ],
      "stateMutability": "view",
      "type": "function"
    },
    {
      "inputs": [
        {
          "internalType": "bytes4",
          "name": "interfaceId",
          "type": "bytes4"
        }
      ],
      "name": "supportsInterface",
      "outputs": [
        {
          "internalType": "bool",
          "name": "",
          "type": "bool"
        }
      ],
      "stateMutability": "view",
      "type": "function"
    },
    {
      "inputs": [],
      "name": "swapSlippageBP",
      "outputs": [
        {
          "internalType": "uint256",
          "name": "",
          "type": "uint256"
        }
      ],
      "stateMutability": "view",
      "type": "function"
    },
    {
      "inputs": [
        {
          "internalType": "address",
          "name": "_asset",
          "type": "address"
        },
        {
          "internalType": "uint256",
          "name": "_amount",
          "type": "uint256"
        },
        {
          "internalType": "address",
          "name": "_beneficiary",
          "type": "address"
        },
        {
          "internalType": "bool",
          "name": "_targetIsZero",
          "type": "bool"
        }
      ],
      "name": "unstake",
      "outputs": [
        {
          "internalType": "uint256",
          "name": "",
          "type": "uint256"
        }
      ],
      "stateMutability": "nonpayable",
      "type": "function"
    },
    {
      "inputs": [
        {
          "internalType": "address",
          "name": "newImplementation",
          "type": "address"
        }
      ],
      "name": "upgradeTo",
      "outputs": [],
      "stateMutability": "nonpayable",
      "type": "function"
    },
    {
      "inputs": [
        {
          "internalType": "address",
          "name": "newImplementation",
          "type": "address"
        },
        {
          "internalType": "bytes",
          "name": "data",
          "type": "bytes"
        }
      ],
      "name": "upgradeToAndCall",
      "outputs": [],
      "stateMutability": "payable",
      "type": "function"
    },
    {
      "inputs": [],
      "name": "usdc",
      "outputs": [
        {
          "internalType": "contract IERC20",
          "name": "",
          "type": "address"
        }
      ],
      "stateMutability": "view",
      "type": "function"
    },
    {
      "inputs": [],
      "name": "usdt",
      "outputs": [
        {
          "internalType": "contract IERC20",
          "name": "",
          "type": "address"
        }
      ],
      "stateMutability": "view",
      "type": "function"
    },
    {
      "inputs": [],
      "name": "usdtDm",
      "outputs": [
        {
          "internalType": "uint256",
          "name": "",
          "type": "uint256"
        }
      ],
      "stateMutability": "view",
      "type": "function"
    },
    {
      "inputs": [],
      "name": "usdtPlus",
      "outputs": [
        {
          "internalType": "contract IERC20",
          "name": "",
          "type": "address"
        }
      ],
      "stateMutability": "view",
      "type": "function"
    },
    {
      "inputs": [],
      "name": "usdtPlusDm",
      "outputs": [
        {
          "internalType": "uint256",
          "name": "",
          "type": "uint256"
        }
      ],
      "stateMutability": "view",
      "type": "function"
    },
    {
      "inputs": [],
      "name": "wmx",
      "outputs": [
        {
          "internalType": "contract IERC20",
          "name": "",
          "type": "address"
        }
      ],
      "stateMutability": "view",
      "type": "function"
    },
    {
      "inputs": [],
      "name": "wmxLpUsdtPlus",
      "outputs": [
        {
          "internalType": "contract IWombexBaseRewardPool",
          "name": "",
          "type": "address"
        }
      ],
      "stateMutability": "view",
      "type": "function"
    },
    {
      "inputs": [],
      "name": "wom",
      "outputs": [
        {
          "internalType": "contract IERC20",
          "name": "",
          "type": "address"
        }
      ],
      "stateMutability": "view",
      "type": "function"
    },
    {
      "inputs": [],
      "name": "wombatRouter",
      "outputs": [
        {
          "internalType": "contract IWombatRouter",
          "name": "",
          "type": "address"
        }
      ],
      "stateMutability": "view",
      "type": "function"
    }
  ],
  "numDeployments": 3,
  "solcInputHash": "4f804954b4f14c1d1e3b7e5659252a3a",
  "bytecode": "0x60a0604052306080523480156200001557600080fd5b50600054610100900460ff1615808015620000375750600054600160ff909116105b8062000067575062000054306200010860201b620015cf1760201c565b15801562000067575060005460ff166001145b6200008f5760405162461bcd60e51b8152600401620000869062000117565b60405180910390fd5b6000805460ff191660011790558015620000b3576000805461ff0019166101001790555b801562000101576000805461ff00191690556040517f7f26b83ff96e1f2b6a682f133852f6798a09c465da95921460cefb384740249890620000f8906001906200018d565b60405180910390a15b506200019d565b6001600160a01b03163b151590565b602080825281016200016a81602e81527f496e697469616c697a61626c653a20636f6e747261637420697320616c72656160208201526d191e481a5b9a5d1a585b1a5e995960921b604082015260600190565b92915050565b600060ff82166200016a565b620001878162000170565b82525050565b602081016200016a82846200017c565b6080516151a0620001d560003960008181610d0d01528181610d4d01528181610dec01528181610e2c0152610ebb01526151a06000f3fe6080604052600436106102515760003560e01c8063620b75df11610139578063af8d9ca8116100b6578063c21ebd071161007a578063c21ebd07146106c0578063c5a6222e146106e1578063cc6522c314610702578063d547741f14610723578063ef5cfb8c14610743578063f6f6b8811461076357600080fd5b8063af8d9ca814610630578063b498ffd414610647578063b7b5b1d414610668578063bd25c6db14610689578063bf52e080146106aa57600080fd5b8063a217fddf116100fd578063a217fddf146105a6578063a3673b38146105bb578063a440b21a146105d0578063adc9772e146105f0578063ae30c1101461061057600080fd5b8063620b75df1461050e5780637d5f58021461052e5780637eb21846146105505780638129fc1c1461057157806391d148541461058657600080fd5b80632f48ab7d116101d25780634f1ef286116101965780634f1ef2861461046457806350c438f71461047757806352d1902d1461048e5780635ca558f8146104a35780635dbd733a146104b9578063612c87df146104ed57600080fd5b80632f48ab7d146103cb57806334df87e7146103ec57806336568abe146104035780633659cfe6146104235780633e413bee1461044357600080fd5b806316f0115b1161021957806316f0115b146103165780631d29739914610344578063248a9ca3146103665780632576e65a146103965780632f2ff15d146103ab57600080fd5b806301ffc9a71461025657806306fdde031461028c578063083975d4146102ae5780630f9033f7146102dc578063119cd87914610300575b600080fd5b34801561026257600080fd5b50610276610271366004613d99565b610783565b6040516102839190613dc4565b60405180910390f35b34801561029857600080fd5b506102a16107ba565b6040516102839190613e28565b3480156102ba57600080fd5b50610131546102cf906001600160a01b031681565b6040516102839190613e7b565b3480156102e857600080fd5b506102f361013a5481565b6040516102839190613e8f565b34801561030c57600080fd5b506102f360fd5481565b34801561032257600080fd5b5061013554610337906001600160a01b031681565b6040516102839190613eb7565b34801561035057600080fd5b5061036461035f366004613ee1565b610849565b005b34801561037257600080fd5b506102f3610381366004613f2d565b60009081526065602052604090206001015490565b3480156103a257600080fd5b506102f3610c92565b3480156103b757600080fd5b506103646103c6366004613f62565b610ca3565b3480156103d757600080fd5b5061012d546102cf906001600160a01b031681565b3480156103f857600080fd5b506102f36101375481565b34801561040f57600080fd5b5061036461041e366004613f62565b610ccd565b34801561042f57600080fd5b5061036461043e366004613f9f565b610d03565b34801561044f57600080fd5b5061012e546102cf906001600160a01b031681565b6103646104723660046140b6565b610de2565b34801561048357600080fd5b506102f361013b5481565b34801561049a57600080fd5b506102f3610eae565b3480156104af57600080fd5b506102f360fe5481565b3480156104c557600080fd5b506102f37fd67ad422505496469a1adf6cdf9e5ee92ac5d33992843c9ecc4b2f6d6cde913781565b3480156104f957600080fd5b50610138546102cf906001600160a01b031681565b34801561051a57600080fd5b5060fb54610337906001600160a01b031681565b34801561053a57600080fd5b506102f36000805160206150d983398151915281565b34801561055c57600080fd5b50610132546102cf906001600160a01b031681565b34801561057d57600080fd5b50610364610f0b565b34801561059257600080fd5b506102766105a1366004613f62565b610fd9565b3480156105b257600080fd5b506102f3600081565b3480156105c757600080fd5b506102f3611004565b3480156105dc57600080fd5b506103646105eb366004613f9f565b611010565b3480156105fc57600080fd5b5061036461060b366004614104565b6110e5565b34801561061c57600080fd5b5061036461062b366004614137565b61123c565b34801561063c57600080fd5b506102f361013c5481565b34801561065357600080fd5b50610133546102cf906001600160a01b031681565b34801561067457600080fd5b5061012f546102cf906001600160a01b031681565b34801561069557600080fd5b50610134546102cf906001600160a01b031681565b3480156106b657600080fd5b506102f360fc5481565b3480156106cc57600080fd5b50610136546102cf906001600160a01b031681565b3480156106ed57600080fd5b50610130546102cf906001600160a01b031681565b34801561070e57600080fd5b50610139546102cf906001600160a01b031681565b34801561072f57600080fd5b5061036461073e366004613f62565b61135e565b34801561074f57600080fd5b506102f361075e366004613f9f565b611383565b34801561076f57600080fd5b506102f361077e36600461419a565b61140c565b60006001600160e01b03198216637965db0b60e01b14806107b457506301ffc9a760e01b6001600160e01b03198316145b92915050565b61013d80546107c890614214565b80601f01602080910402602001604051908101604052809291908181526020018280546107f490614214565b80156108415780601f1061081657610100808354040283529160200191610841565b820191906000526020600020905b81548152906001019060200180831161082457829003601f168201915b505050505081565b610854600033610fd9565b6108795760405162461bcd60e51b815260040161087090614268565b60405180910390fd5b6108896040820160208301613f9f565b61012d80546001600160a01b0319166001600160a01b03929092169190911790556108ba6060820160408301613f9f565b61012e80546001600160a01b0319166001600160a01b03929092169190911790556108e86020820182613f9f565b61012f80546001600160a01b0319166001600160a01b03929092169190911790556109196080820160608301613f9f565b61013080546001600160a01b0319166001600160a01b039290921691909117905561094a60a0820160808301613f9f565b61013180546001600160a01b0319166001600160a01b039290921691909117905561097b60c0820160a08301613f9f565b61013280546001600160a01b0319166001600160a01b03929092169190911790556109ac60e0820160c08301613f9f565b61013380546001600160a01b0319166001600160a01b03929092169190911790556109de610100820160e08301613f9f565b61013480546001600160a01b0319166001600160a01b0392909216919091179055610a1161012082016101008301613f9f565b61013580546001600160a01b0319166001600160a01b0392909216919091179055610a4461014082016101208301613f9f565b61013680546001600160a01b0319166001600160a01b0392909216919091179055610a7761016082016101408301613f9f565b61013880546001600160a01b0319166001600160a01b0392909216919091179055610aaa61018082016101608301613f9f565b61013980546001600160a01b0319166001600160a01b0392909216919091179055610ad86020820182613f9f565b6001600160a01b031663313ce5676040518163ffffffff1660e01b8152600401602060405180830381865afa158015610b15573d6000803e3d6000fd5b505050506040513d601f19601f82011682018060405250810190610b39919061428c565b610b4490600a6143d1565b61013a55610b586040820160208301613f9f565b6001600160a01b031663313ce5676040518163ffffffff1660e01b8152600401602060405180830381865afa158015610b95573d6000803e3d6000fd5b505050506040513d601f19601f82011682018060405250810190610bb9919061428c565b610bc490600a6143d1565b61013b55610bd860c0820160a08301613f9f565b6001600160a01b031663313ce5676040518163ffffffff1660e01b8152600401602060405180830381865afa158015610c15573d6000803e3d6000fd5b505050506040513d601f19601f82011682018060405250810190610c39919061428c565b610c4490600a6143d1565b61013c55610c566101808201826143e6565b61013d91610c659190836144e2565b506040517fea5646eb3528e525944447a4a97de700dd472298626e5c0481d1c82c3da86ea590600090a150565b6000610c9e60006115de565b905090565b600082815260656020526040902060010154610cbe8161198d565b610cc88383611997565b505050565b6001600160a01b0381163314610cf55760405162461bcd60e51b8152600401610870906145f5565b610cff8282611a1d565b5050565b6001600160a01b037f0000000000000000000000000000000000000000000000000000000000000000163003610d4b5760405162461bcd60e51b81526004016108709061464e565b7f00000000000000000000000000000000000000000000000000000000000000006001600160a01b0316610d946000805160206150f9833981519152546001600160a01b031690565b6001600160a01b031614610dba5760405162461bcd60e51b8152600401610870906146a7565b610dc381611a84565b60408051600080825260208201909252610ddf91839190611a8f565b50565b6001600160a01b037f0000000000000000000000000000000000000000000000000000000000000000163003610e2a5760405162461bcd60e51b81526004016108709061464e565b7f00000000000000000000000000000000000000000000000000000000000000006001600160a01b0316610e736000805160206150f9833981519152546001600160a01b031690565b6001600160a01b031614610e995760405162461bcd60e51b8152600401610870906146a7565b610ea282611a84565b610cff82826001611a8f565b6000306001600160a01b037f00000000000000000000000000000000000000000000000000000000000000001614610ef85760405162461bcd60e51b815260040161087090614711565b506000805160206150f983398151915290565b600054610100900460ff1615808015610f2b5750600054600160ff909116105b80610f455750303b158015610f45575060005460ff166001145b610f615760405162461bcd60e51b81526004016108709061476c565b6000805460ff191660011790558015610f84576000805461ff0019166101001790555b610f8c611b71565b8015610ddf576000805461ff00191690556040517f7f26b83ff96e1f2b6a682f133852f6798a09c465da95921460cefb384740249890610fce90600190614790565b60405180910390a150565b60009182526065602090815260408084206001600160a01b0393909316845291905290205460ff1690565b6000610c9e60016115de565b61101b600033610fd9565b6110375760405162461bcd60e51b815260040161087090614268565b6001600160a01b03811661105d5760405162461bcd60e51b8152600401610870906147d2565b60fb54611082906000805160206150d9833981519152906001600160a01b031661135e565b61109a6000805160206150d983398151915282610ca3565b60fb80546001600160a01b0319166001600160a01b0383161790556040517ff7b449fcd5cfb7379dcd34cb69428dd9f882033b15be33d83b42d91daa28eeb790610fce908390613eb7565b6110fd6000805160206150d983398151915233610fd9565b6111195760405162461bcd60e51b815260040161087090614816565b6000611188306001600160a01b031663a3673b386040518163ffffffff1660e01b8152600401602060405180830381865afa15801561115c573d6000803e3d6000fd5b505050506040513d601f19601f820116820180604052508101906111809190614831565b60fd54611c56565b905061120083846001600160a01b03166370a08231306040518263ffffffff1660e01b81526004016111ba9190613eb7565b602060405180830381865afa1580156111d7573d6000803e3d6000fd5b505050506040513d601f19601f820116820180604052508101906111fb9190614831565b611c80565b7f227a473b70d2f893cc7659219575c030a63b5743024fe1e0c1a680e708b1525a8260405161122f9190613e8f565b60405180910390a1505050565b6112667fd67ad422505496469a1adf6cdf9e5ee92ac5d33992843c9ecc4b2f6d6cde913733610fd9565b806112ff575060fb54604051632474521560e21b81526001600160a01b03909116906391d14854906112be907fd67ad422505496469a1adf6cdf9e5ee92ac5d33992843c9ecc4b2f6d6cde9137903390600401614852565b602060405180830381865afa1580156112db573d6000803e3d6000fd5b505050506040513d601f19601f820116820180604052508101906112ff9190614878565b61131b5760405162461bcd60e51b8152600401610870906148d8565b60fc83905560fd82905560fe8190556040517f116fbf1e97a2be629ad98abfb6c332733c8996c2dfb174dd2efe8440df381d1a9061122f908590859085906148e8565b6000828152606560205260409020600101546113798161198d565b610cc88383611a1d565b600061139d6000805160206150d983398151915233610fd9565b6113b95760405162461bcd60e51b815260040161087090614816565b60006113c4836122b4565b90508015611404577f3ac0594a85a20354f9dc74f33728416d19ce00d04a406c108cc2dcf2cecea134816040516113fb9190613e8f565b60405180910390a15b90505b919050565b60006114266000805160206150d983398151915233610fd9565b6114425760405162461bcd60e51b815260040161087090614816565b6000611485306001600160a01b031663a3673b386040518163ffffffff1660e01b8152600401602060405180830381865afa15801561115c573d6000803e3d6000fd5b905060008084156114ac57611499866122b4565b90506114a5888761265c565b91506114d9565b6114b7888888612bb7565b9150868210156114d95760405162461bcd60e51b815260040161087090614956565b60405163a9059cbb60e01b81526001600160a01b0389169063a9059cbb906115079089908690600401614966565b6020604051808303816000875af1158015611526573d6000803e3d6000fd5b505050506040513d601f19601f8201168201806040525081019061154a9190614878565b507f9045c2ac9b2026de8075f2701bbdde882cd5e830b3b1ead9a15b22f2b5b93742878360405161157c929190614981565b60405180910390a180156115c2577f3ac0594a85a20354f9dc74f33728416d19ce00d04a406c108cc2dcf2cecea134816040516115b99190613e8f565b60405180910390a15b509150505b949350505050565b6001600160a01b03163b151590565b61012d546040516370a0823160e01b815260009182916001600160a01b03909116906370a0823190611614903090600401613eb7565b602060405180830381865afa158015611631573d6000803e3d6000fd5b505050506040513d601f19601f820116820180604052508101906116559190614831565b61012f546040516370a0823160e01b81529192506000916001600160a01b03909116906370a082319061168c903090600401613eb7565b602060405180830381865afa1580156116a9573d6000803e3d6000fd5b505050506040513d601f19601f820116820180604052508101906116cd9190614831565b604080516003808252608082019092529192506000919060208201606080368337505061012d5482519293506001600160a01b0316918391506000906117155761171561498f565b6001600160a01b03928316602091820292909201015261012e548251911690829060019081106117475761174761498f565b6001600160a01b03928316602091820292909201015261012f548251911690829060029081106117795761177961498f565b6001600160a01b0392909216602092830291909101820152604080516002808252606082018352600093919290918301908036833750506101355482519293506001600160a01b0316918391506000906117d5576117d561498f565b60200260200101906001600160a01b031690816001600160a01b031681525050739498563e47d7cfdfa22b818bb8112781036c201c8160018151811061181d5761181d61498f565b6001600160a01b039283166020918202929092010152610133546040516370a0823160e01b815260009291909116906370a0823190611860903090600401613eb7565b602060405180830381865afa15801561187d573d6000803e3d6000fd5b505050506040513d601f19601f820116820180604052508101906118a19190614831565b9050801561193657610134546101325460405163135dbd1360e01b81526000926001600160a01b039081169263135dbd13926118e592909116908690600401614966565b6040805180830381865afa158015611901573d6000803e3d6000fd5b505050506040513d601f19601f8201168201806040525081019061192591906149a5565b50905061193281866149d8565b9450505b831561198257861561195c5761194b846131b4565b61195590866149d8565b9450611982565b61013854611975906001600160a01b03168484876132c0565b61197f90866149d8565b94505b509295945050505050565b610ddf8133613338565b6119a18282610fd9565b610cff5760008281526065602090815260408083206001600160a01b03851684529091529020805460ff191660011790556119d93390565b6001600160a01b0316816001600160a01b0316837f2f8788117e7eff1d82e926ec794901d17c78024a50270940304540a733656f0d60405160405180910390a45050565b611a278282610fd9565b15610cff5760008281526065602090815260408083206001600160a01b0385168085529252808320805460ff1916905551339285917ff6391f5c32d9c69d2a47ea670b442974b53935d1edc7fd64eb21e047a839171b9190a45050565b6000610cff8161198d565b7f4910fdfa16fed3260ed0e7147f7cc6da11a60208b5b9406d12a635614ffd91435460ff1615611ac257610cc883613391565b826001600160a01b03166352d1902d6040518163ffffffff1660e01b8152600401602060405180830381865afa925050508015611b1c575060408051601f3d908101601f19168201909252611b1991810190614831565b60015b611b385760405162461bcd60e51b815260040161087090614a36565b6000805160206150f98339815191528114611b655760405162461bcd60e51b815260040161087090614a8c565b50610cc88383836133e7565b600054610100900460ff1615808015611b915750600054600160ff909116105b80611bab5750303b158015611bab575060005460ff166001145b611bc75760405162461bcd60e51b81526004016108709061476c565b6000805460ff191660011790558015611bea576000805461ff0019166101001790555b611bf2613412565b611bfa613412565b611c05600033611997565b601960fc55602360fd55600460fe558015610ddf576000805461ff00191690556040517f7f26b83ff96e1f2b6a682f133852f6798a09c465da95921460cefb384740249890610fce90600190614790565b6000612710611c658382614a9c565b611c6f9085614aaf565b611c799190614ae4565b9392505050565b61012d546001600160a01b03838116911614611cae5760405162461bcd60e51b815260040161087090614b2c565b61012d546040516370a0823160e01b81526000916001600160a01b0316906370a0823190611ce0903090600401613eb7565b602060405180830381865afa158015611cfd573d6000803e3d6000fd5b505050506040513d601f19601f82011682018060405250810190611d219190614831565b6040805180820190915260198152787377617070696e672025732066726f6d20257320746f20257360381b602082015261012d5461012f54929350611d749284916001600160a01b03908116911661343b565b6040805160038082526080820190925260009160208201606080368337505061012d5482519293506001600160a01b031691839150600090611db857611db861498f565b6001600160a01b03928316602091820292909201015261012e54825191169082906001908110611dea57611dea61498f565b6001600160a01b03928316602091820292909201015261012f54825191169082906002908110611e1c57611e1c61498f565b6001600160a01b0392909216602092830291909101820152604080516002808252606082018352600093919290918301908036833750506101355482519293506001600160a01b031691839150600090611e7857611e7861498f565b60200260200101906001600160a01b031690816001600160a01b031681525050739498563e47d7cfdfa22b818bb8112781036c201c81600181518110611ec057611ec061498f565b6001600160a01b03928316602091820292909201015261013854600091611eea91168484876132c0565b9050611f2b6040518060400160405280601981526020017f2a2a75736474506c75732042616c616e6365206f75742025730000000000000081525082613484565b8015611fad5760408051808201909152601e81527f776f6d62617420526f757465723a202573207472616e736665723a2025730000602082015261013854611f7d91906001600160a01b0316836134c9565b61013854611fab906001600160a01b0316848487611fa5611f9d82613510565b60fc54611c56565b3061361c565b505b611fdf604051806040016040528060118152602001705377617070656420666f7220555344542b60781b815250613730565b61012f546040516370a0823160e01b81526000916001600160a01b0316906370a0823190612011903090600401613eb7565b602060405180830381865afa15801561202e573d6000803e3d6000fd5b505050506040513d601f19601f820116820180604052508101906120529190614831565b90506120826040518060400160405280600c81526020016b55534454506c75733a20257360a01b81525082613484565b6101345461013254604051630650739d60e41b81526000926001600160a01b039081169263650739d0926120be92909116908690600401614966565b6040805180830381865afa1580156120da573d6000803e3d6000fd5b505050506040513d601f19601f820116820180604052508101906120fe91906149a5565b509050600061210f8260fe54611c56565b90506121506040518060400160405280601981526020017f67657474696e67204c5020616d6f756e74206d696e3a2025730000000000000081525082613484565b61012f546101345460405163095ea7b360e01b81526001600160a01b039283169263095ea7b392612188929116908790600401614966565b6020604051808303816000875af11580156121a7573d6000803e3d6000fd5b505050506040513d601f19601f820116820180604052508101906121cb9190614878565b506121fc6040518060600160405280602b8152602001615119602b9139610132546001600160a01b03168584613773565b6101345461013254604051633f90794960e21b81526001600160a01b039283169263fe41e524926122399291169087908690600190600401614b3c565b600060405180830381600087803b15801561225357600080fd5b505af1158015612267573d6000803e3d6000fd5b505050506122a96040518060400160405280601981526020017f7374616b656420616e642066696e697368656420757364742b00000000000000815250613730565b505050505050505050565b610133546040516370a0823160e01b815260009182916001600160a01b03909116906370a08231906122ea903090600401613eb7565b602060405180830381865afa158015612307573d6000803e3d6000fd5b505050506040513d601f19601f8201168201806040525081019061232b9190614831565b905080156123ac5761013354604051637050ccd960e01b81526001600160a01b0390911690637050ccd990612367903090600090600401614b71565b6020604051808303816000875af1158015612386573d6000803e3d6000fd5b505050506040513d601f19601f820116820180604052508101906123aa9190614878565b505b610130546040516370a0823160e01b8152600091829182916001600160a01b0316906370a08231906123e2903090600401613eb7565b602060405180830381865afa1580156123ff573d6000803e3d6000fd5b505050506040513d601f19601f820116820180604052508101906124239190614831565b905080156124aa57610136546101305461012d54600092612455926001600160a01b03918216929082169116856137bc565b905080156124a857610136546101305461012d5461249b926001600160a01b03908116928116911685606461248b876063614aaf565b6124959190614ae4565b306138d6565b6124a590856149d8565b93505b505b610131546040516370a0823160e01b81526000916001600160a01b0316906370a08231906124dc903090600401613eb7565b602060405180830381865afa1580156124f9573d6000803e3d6000fd5b505050506040513d601f19601f8201168201806040525081019061251d9190614831565b9050801561259457610136546101315461012d5460009261254f926001600160a01b03918216929082169116856137bc565b9050801561259257610136546101315461012d54612585926001600160a01b03908116928116911685606461248b876063614aaf565b61258f90866149d8565b94505b505b83156126125761012d5460405163a9059cbb60e01b81526001600160a01b039091169063a9059cbb906125cd908a908890600401614966565b6020604051808303816000875af11580156125ec573d6000803e3d6000fd5b505050506040513d601f19601f820116820180604052508101906126109190614878565b505b6126516040518060400160405280601f81526020017f7265776172647320636c61696d65642066726f6d20576f6d6265783a2025730081525085613484565b509195945050505050565b61012d546000906001600160a01b0384811691161461268d5760405162461bcd60e51b815260040161087090614b2c565b6040805160038082526080820190925260009160208201606080368337505061012f5482519293506001600160a01b0316918391506000906126d1576126d161498f565b60200260200101906001600160a01b031690816001600160a01b031681525050730782b6d8c4551b9760e74c0545a9bcd90bdc41e5816001815181106127195761271961498f565b6001600160a01b03928316602091820292909201015261012d5482519116908290600290811061274b5761274b61498f565b6001600160a01b03929092166020928302919091018201526040805160028082526060820183526000939192909183019080368337019050509050739498563e47d7cfdfa22b818bb8112781036c201c816000815181106127ae576127ae61498f565b60200260200101906001600160a01b031690816001600160a01b03168152505073a61dccc6c6e34c8fbf14527386ca35589e9b8c27816001815181106127f6576127f661498f565b6001600160a01b039283166020918202929092010152610133546040516370a0823160e01b815260009291909116906370a0823190612839903090600401613eb7565b602060405180830381865afa158015612856573d6000803e3d6000fd5b505050506040513d601f19601f8201168201806040525081019061287a9190614831565b9050806000036129005761012f546040516370a0823160e01b81526001600160a01b03909116906370a08231906128b5903090600401613eb7565b602060405180830381865afa1580156128d2573d6000803e3d6000fd5b505050506040513d601f19601f820116820180604052508101906128f69190614831565b93505050506107b4565b610134546101325460405163135dbd1360e01b81526000926001600160a01b039081169263135dbd139261293c92909116908690600401614966565b6040805180830381865afa158015612958573d6000803e3d6000fd5b505050506040513d601f19601f8201168201806040525081019061297c91906149a5565b509050600061298d8260fe54611c56565b610133546101345460405163095ea7b360e01b81529293506001600160a01b039182169263095ea7b3926129c79216908790600401614966565b6020604051808303816000875af11580156129e6573d6000803e3d6000fd5b505050506040513d601f19601f82011682018060405250810190612a0a9190614878565b5061013454610132546040516316762eed60e01b81526001600160a01b03928316926316762eed92612a4792911690879086903090600401614b8c565b600060405180830381600087803b158015612a6157600080fd5b505af1158015612a75573d6000803e3d6000fd5b505061012f546040516370a0823160e01b8152600093506001600160a01b0390911691506370a0823190612aad903090600401613eb7565b602060405180830381865afa158015612aca573d6000803e3d6000fd5b505050506040513d601f19601f82011682018060405250810190612aee9190614831565b61013854909150600090612b0d906001600160a01b03168888856132c0565b90508015612b375761013854612b35906001600160a01b0316888885611fa5611f9d82613510565b505b61012d546040516370a0823160e01b81526001600160a01b03909116906370a0823190612b68903090600401613eb7565b602060405180830381865afa158015612b85573d6000803e3d6000fd5b505050506040513d601f19601f82011682018060405250810190612ba99190614831565b9a9950505050505050505050565b61012d546000906001600160a01b03858116911614612be85760405162461bcd60e51b815260040161087090614b2c565b6040805160038082526080820190925260009160208201606080368337505061012f5482519293506001600160a01b031691839150600090612c2c57612c2c61498f565b60200260200101906001600160a01b031690816001600160a01b031681525050730782b6d8c4551b9760e74c0545a9bcd90bdc41e581600181518110612c7457612c7461498f565b6001600160a01b03928316602091820292909201015261012d54825191169082906002908110612ca657612ca661498f565b6001600160a01b03929092166020928302919091018201526040805160028082526060820183526000939192909183019080368337019050509050739498563e47d7cfdfa22b818bb8112781036c201c81600081518110612d0957612d0961498f565b60200260200101906001600160a01b031690816001600160a01b03168152505073a61dccc6c6e34c8fbf14527386ca35589e9b8c2781600181518110612d5157612d5161498f565b60200260200101906001600160a01b031690816001600160a01b031681525050612da06040518060400160405280600d81526020016c03ab739ba30b5b4b7339012b99609d1b81525086613484565b610134546101325461013c5460405163135dbd1360e01b815288936000936001600160a01b039182169363135dbd1393612de09390921691600401614966565b6040805180830381865afa158015612dfc573d6000803e3d6000fd5b505050506040513d601f19601f82011682018060405250810190612e2091906149a5565b509050612e5a6040518060400160405280601581526020017475736474416d6f756e744f6e65417373657420257360581b81525082613484565b60008161013c54612e6d8560fe54613a6b565b612e779190614aaf565b612e819190614ae4565b9050612eb8604051806040016040528060138152602001726c7055736474506c7573416d6f756e7420257360681b81525082613484565b610133546101345460405163095ea7b360e01b81526001600160a01b039283169263095ea7b392612ef0929116908590600401614966565b6020604051808303816000875af1158015612f0f573d6000803e3d6000fd5b505050506040513d601f19601f82011682018060405250810190612f339190614878565b5061013454610132546040516316762eed60e01b81526001600160a01b03928316926316762eed92612f7092911690859088903090600401614b8c565b600060405180830381600087803b158015612f8a57600080fd5b505af1158015612f9e573d6000803e3d6000fd5b505061012f546040516370a0823160e01b8152600093506001600160a01b0390911691506370a0823190612fd6903090600401613eb7565b602060405180830381865afa158015612ff3573d6000803e3d6000fd5b505050506040513d601f19601f820116820180604052508101906130179190614831565b6040805180820190915260198152787377617070696e672025732066726f6d20257320746f20257360381b602082015261012f5461012d5492935061306a9284916001600160a01b03908116911661343b565b61013854600090613086906001600160a01b03168888856132c0565b90506130bf604051806040016040528060158152602001742a2a757364742042616c616e6365206f757420257360581b81525082613484565b80156131335760408051808201909152601e81527f776f6d62617420526f757465723a202573207472616e736665723a202573000060208201526101385461311191906001600160a01b0316836134c9565b61013854613131906001600160a01b0316888885611fa5611f9d82613510565b505b61012d546040516370a0823160e01b81526001600160a01b03909116906370a0823190613164903090600401613eb7565b602060405180830381865afa158015613181573d6000803e3d6000fd5b505050506040513d601f19601f820116820180604052508101906131a59190614831565b9b9a5050505050505050505050565b60008061013960009054906101000a90046001600160a01b03166001600160a01b03166350d25bcd6040518163ffffffff1660e01b8152600401602060405180830381865afa15801561320b573d6000803e3d6000fd5b505050506040513d601f19601f8201168201806040525081019061322f9190614831565b9050600061013960009054906101000a90046001600160a01b03166001600160a01b03166350d25bcd6040518163ffffffff1660e01b8152600401602060405180830381865afa158015613287573d6000803e3d6000fd5b505050506040513d601f19601f820116820180604052508101906132ab9190614831565b90506115c78461013b5461013a548585613a7a565b600080856001600160a01b031663b9e598c18686866040518463ffffffff1660e01b81526004016132f393929190614c1e565b600060405180830381865afa158015613310573d6000803e3d6000fd5b505050506040513d6000823e601f3d908101601f191682016040526115c29190810190614cf5565b6133428282610fd9565b610cff5761334f81613aa5565b61335a836020613ab7565b60405160200161336b929190614d65565b60408051601f198184030181529082905262461bcd60e51b825261087091600401613e28565b6001600160a01b0381163b6133b85760405162461bcd60e51b815260040161087090614e07565b6000805160206150f983398151915280546001600160a01b0319166001600160a01b0392909216919091179055565b6133f083613c23565b6000825111806133fd5750805b15610cc85761340c8383613c63565b50505050565b600054610100900460ff166134395760405162461bcd60e51b815260040161087090614e5f565b565b61340c848484846040516024016134559493929190614e6f565b60408051601f198184030181529190526020810180516001600160e01b0316632f515bd760e11b179052613d18565b610cff828260405160240161349a929190614e9c565b60408051601f198184030181529190526020810180516001600160e01b0316632d839cb360e21b179052613d18565b610cc88383836040516024016134e193929190614ebc565b60408051601f198184030181529190526020810180516001600160e01b0316630d26b92560e01b179052613d18565b60008061013960009054906101000a90046001600160a01b03166001600160a01b03166350d25bcd6040518163ffffffff1660e01b8152600401602060405180830381865afa158015613567573d6000803e3d6000fd5b505050506040513d601f19601f8201168201806040525081019061358b9190614831565b9050600061013960009054906101000a90046001600160a01b03166001600160a01b03166350d25bcd6040518163ffffffff1660e01b8152600401602060405180830381865afa1580156135e3573d6000803e3d6000fd5b505050506040513d601f19601f820116820180604052508101906136079190614831565b90506115c78461013a5461013b548486613a7a565b6000856000815181106136315761363161498f565b60200260200101516001600160a01b031663095ea7b388866040518363ffffffff1660e01b8152600401613666929190614966565b6020604051808303816000875af1158015613685573d6000803e3d6000fd5b505050506040513d601f19601f820116820180604052508101906136a99190614878565b5060405163351041e960e21b81526001600160a01b0388169063d44107a4906136e090899089908990899089904290600401614edc565b6020604051808303816000875af11580156136ff573d6000803e3d6000fd5b505050506040513d601f19601f820116820180604052508101906137239190614831565b90505b9695505050505050565b610ddf816040516024016137449190613e28565b60408051601f198184030181529190526020810180516001600160e01b031663104c13eb60e21b179052613d18565b61340c8484848460405160240161378d9493929190614f42565b60408051601f198184030181529190526020810180516001600160e01b0316637c7a8d8f60e11b179052613d18565b6040805160028082526060820183526000928392919060208301908036833701905050905084816000815181106137f5576137f561498f565b60200260200101906001600160a01b031690816001600160a01b03168152505083816001815181106138295761382961498f565b6001600160a01b03928316602091820292909201015260405163d06ca61f60e01b815260009188169063d06ca61f906138689087908690600401614f7c565b600060405180830381865afa158015613885573d6000803e3d6000fd5b505050506040513d6000823e601f3d908101601f191682016040526138ad9190810190614f9c565b9050806001815181106138c2576138c261498f565b602002602001015192505050949350505050565b60405163095ea7b360e01b81526000906001600160a01b0387169063095ea7b390613907908a908890600401614966565b6020604051808303816000875af1158015613926573d6000803e3d6000fd5b505050506040513d601f19601f8201168201806040525081019061394a9190614878565b5060408051600280825260608201835260009260208301908036833701905050905086816000815181106139805761398061498f565b60200260200101906001600160a01b031690816001600160a01b03168152505085816001815181106139b4576139b461498f565b6001600160a01b0392831660209182029290920101526040516338ed173960e01b81526000918a16906338ed1739906139f9908990899087908a904290600401614fd7565b6000604051808303816000875af1158015613a18573d6000803e3d6000fd5b505050506040513d6000823e601f3d908101601f19168201604052613a409190810190614f9c565b905080600181518110613a5557613a5561498f565b6020026020010151925050509695505050505050565b6000612710611c6583826149d8565b6000613a868286614aaf565b83613a918689614aaf565b613a9b9190614aaf565b6137269190614ae4565b60606107b46001600160a01b03831660145b60606000613ac6836002614aaf565b613ad19060026149d8565b67ffffffffffffffff811115613ae957613ae9613fc0565b6040519080825280601f01601f191660200182016040528015613b13576020820181803683370190505b509050600360fc1b81600081518110613b2e57613b2e61498f565b60200101906001600160f81b031916908160001a905350600f60fb1b81600181518110613b5d57613b5d61498f565b60200101906001600160f81b031916908160001a9053506000613b81846002614aaf565b613b8c9060016149d8565b90505b6001811115613c04576f181899199a1a9b1b9c1cb0b131b232b360811b85600f1660108110613bc057613bc061498f565b1a60f81b828281518110613bd657613bd661498f565b60200101906001600160f81b031916908160001a90535060049490941c93613bfd81615020565b9050613b8f565b508315611c795760405162461bcd60e51b815260040161087090615069565b613c2c81613391565b6040516001600160a01b038216907fbc7cd75a20ee27fd9adebab32041f755214dbc6bffa90cc0225b39da2e5c2d3b90600090a250565b60606001600160a01b0383163b613c8c5760405162461bcd60e51b8152600401610870906150bc565b600080846001600160a01b031684604051613ca791906150cc565b600060405180830381855af49150503d8060008114613ce2576040519150601f19603f3d011682016040523d82523d6000602084013e613ce7565b606091505b5091509150613d0f828260405180606001604052806027815260200161514460279139613d39565b95945050505050565b80516a636f6e736f6c652e6c6f67602083016000808483855afa5050505050565b60608315613d48575081611c79565b611c798383815115613d5d5781518083602001fd5b8060405162461bcd60e51b81526004016108709190613e28565b6001600160e01b031981165b8114610ddf57600080fd5b80356107b481613d77565b600060208284031215613dae57613dae600080fd5b60006115c78484613d8e565b8015155b82525050565b602081016107b48284613dba565b60005b83811015613ded578181015183820152602001613dd5565b50506000910152565b6000613e00825190565b808452602084019350613e17818560208601613dd2565b601f01601f19169290920192915050565b60208082528101611c798184613df6565b60006107b46001600160a01b038316613e50565b90565b6001600160a01b031690565b60006107b482613e39565b60006107b482613e5c565b613dbe81613e67565b602081016107b48284613e72565b80613dbe565b602081016107b48284613e89565b60006001600160a01b0382166107b4565b613dbe81613e9d565b602081016107b48284613eae565b60006101a08284031215613edb57613edb600080fd5b50919050565b600060208284031215613ef657613ef6600080fd5b813567ffffffffffffffff811115613f1057613f10600080fd5b6115c784828501613ec5565b80613d83565b80356107b481613f1c565b600060208284031215613f4257613f42600080fd5b60006115c78484613f22565b613d8381613e9d565b80356107b481613f4e565b60008060408385031215613f7857613f78600080fd5b6000613f848585613f22565b9250506020613f9585828601613f57565b9150509250929050565b600060208284031215613fb457613fb4600080fd5b60006115c78484613f57565b634e487b7160e01b600052604160045260246000fd5b601f19601f830116810181811067ffffffffffffffff82111715613ffc57613ffc613fc0565b6040525050565b600061400e60405190565b90506114078282613fd6565b600067ffffffffffffffff82111561403457614034613fc0565b601f19601f83011660200192915050565b82818337506000910152565b600061406461405f8461401a565b614003565b90508281526020810184848401111561407f5761407f600080fd5b61408a848285614045565b509392505050565b600082601f8301126140a6576140a6600080fd5b81356115c7848260208601614051565b600080604083850312156140cc576140cc600080fd5b60006140d88585613f57565b925050602083013567ffffffffffffffff8111156140f8576140f8600080fd5b613f9585828601614092565b6000806040838503121561411a5761411a600080fd5b60006141268585613f57565b9250506020613f9585828601613f22565b60008060006060848603121561414f5761414f600080fd5b600061415b8686613f22565b935050602061416c86828701613f22565b925050604061417d86828701613f22565b9150509250925092565b801515613d83565b80356107b481614187565b600080600080608085870312156141b3576141b3600080fd5b60006141bf8787613f57565b94505060206141d087828801613f22565b93505060406141e187828801613f57565b92505060606141f28782880161418f565b91505092959194509250565b634e487b7160e01b600052602260045260246000fd5b60028104600182168061422857607f821691505b602082108103613edb57613edb6141fe565b60148152600060208201735265737472696374656420746f2061646d696e7360601b815291505b5060200190565b602080825281016107b48161423a565b60ff8116613d83565b80516107b481614278565b6000602082840312156142a1576142a1600080fd5b60006115c78484614281565b634e487b7160e01b600052601160045260246000fd5b80825b6001851115614302578086048111156142e1576142e16142ad565b60018516156142ef57908102905b80026142fb8560011c90565b94506142c6565b94509492505050565b60008261431a57506001611c79565b8161432757506000611c79565b816001811461433d576002811461434757614374565b6001915050611c79565b60ff841115614358576143586142ad565b8360020a91508482111561436e5761436e6142ad565b50611c79565b5060208310610133831016604e8410600b84101617156143a7575081810a838111156143a2576143a26142ad565b611c79565b6143b484848460016142c3565b925090508184048111156143ca576143ca6142ad565b0292915050565b600060ff83169250611c79600019848461430b565b6000808335601e193685900301811261440157614401600080fd5b80840192508235915067ffffffffffffffff82111561442257614422600080fd5b60208301925060018202360383131561443d5761443d600080fd5b509250929050565b60006107b4613e4d8381565b61445a83614445565b81546008840282811b60001990911b908116901990911617825550505050565b6000610cc8818484614451565b81811015610cff5761449a60008261447a565b600101614487565b601f821115610cc8576000818152602090206020601f850104810160208510156144c95750805b6144db6020601f860104830182614487565b5050505050565b8267ffffffffffffffff8111156144fb576144fb613fc0565b6145058254614214565b6145108282856144a2565b6000601f831160018114614544576000841561452c5750858201355b600019600886021c198116600286021786555061459d565b600085815260208120601f198616915b828110156145745788850135825560209485019460019092019101614554565b8683101561459057600019601f88166008021c19858a01351682555b6001600288020188555050505b50505050505050565b602f81526000602082017f416363657373436f6e74726f6c3a2063616e206f6e6c792072656e6f756e636581526e103937b632b9903337b91039b2b63360891b602082015291505b5060400190565b602080825281016107b4816145a6565b602c81526000602082017f46756e6374696f6e206d7573742062652063616c6c6564207468726f7567682081526b19195b1959d85d1958d85b1b60a21b602082015291506145ee565b602080825281016107b481614605565b602c81526000602082017f46756e6374696f6e206d7573742062652063616c6c6564207468726f7567682081526b6163746976652070726f787960a01b602082015291506145ee565b602080825281016107b48161465e565b603881526000602082017f555550535570677261646561626c653a206d757374206e6f742062652063616c81527f6c6564207468726f7567682064656c656761746563616c6c0000000000000000602082015291506145ee565b602080825281016107b4816146b7565b602e81526000602082017f496e697469616c697a61626c653a20636f6e747261637420697320616c72656181526d191e481a5b9a5d1a585b1a5e995960921b602082015291506145ee565b602080825281016107b481614721565b600060ff82166107b4565b613dbe8161477c565b602081016107b48284614787565b601881526000602082017f5a65726f2061646472657373206e6f7420616c6c6f776564000000000000000081529150614261565b602080825281016107b48161479e565b601f81526000602082017f5265737472696374656420746f20504f5254464f4c494f5f4d414e414745520081529150614261565b602080825281016107b4816147e2565b80516107b481613f1c565b60006020828403121561484657614846600080fd5b60006115c78484614826565b604081016148608285613e89565b611c796020830184613eae565b80516107b481614187565b60006020828403121561488d5761488d600080fd5b60006115c7848461486d565b602281526000602082017f5265737472696374656420746f20504f5254464f4c494f5f4147454e545f524f8152614c4560f01b602082015291506145ee565b602080825281016107b481614899565b606081016148f68286613e89565b6149036020830185613e89565b6115c76040830184613e89565b602981526000602082017f52657475726e65642076616c7565206c657373207468616e2072657175657374815268195908185b5bdd5b9d60ba1b602082015291506145ee565b602080825281016107b481614910565b604081016149748285613eae565b611c796020830184613e89565b604081016149748285613e89565b634e487b7160e01b600052603260045260246000fd5b600080604083850312156149bb576149bb600080fd5b60006149c78585614826565b9250506020613f9585828601614826565b808201808211156107b4576107b46142ad565b602e81526000602082017f45524331393637557067726164653a206e657720696d706c656d656e7461746981526d6f6e206973206e6f74205555505360901b602082015291506145ee565b602080825281016107b4816149eb565b602981526000602082017f45524331393637557067726164653a20756e737570706f727465642070726f788152681a58589b195555525160ba1b602082015291506145ee565b602080825281016107b481614a46565b818103818111156107b4576107b46142ad565b818102808215838204851417614ac757614ac76142ad565b5092915050565b634e487b7160e01b600052601260045260246000fd5b600082614af357614af3614ace565b500490565b601981526000602082017f536f6d6520746f6b656e206e6f7420636f6d70617469626c650000000000000081529150614261565b602080825281016107b481614af8565b60808101614b4a8287613eae565b614b576020830186613e89565b614b646040830185613e89565b613d0f6060830184613dba565b60408101614b7f8285613eae565b611c796020830184613dba565b60808101614b9a8287613eae565b614ba76020830186613e89565b614bb46040830185613e89565b613d0f6060830184613eae565b6000614bcd8383613eae565b505060200190565b6000614bdf825190565b80845260209384019383018060005b83811015614c13578151614c028882614bc1565b975060208301925050600101614bee565b509495945050505050565b60608082528101614c2f8186614bd5565b90508181036020830152614c438185614bd5565b90506115c76040830184613e89565b600067ffffffffffffffff821115614c6c57614c6c613fc0565b5060209081020190565b6000614c8461405f84614c52565b83815290506020808201908402830185811115614ca357614ca3600080fd5b835b81811015614cc75780614cb88882614826565b84525060209283019201614ca5565b5050509392505050565b600082601f830112614ce557614ce5600080fd5b81516115c7848260208601614c76565b60008060408385031215614d0b57614d0b600080fd5b6000614d178585614826565b925050602083015167ffffffffffffffff811115614d3757614d37600080fd5b613f9585828601614cd1565b6000614d4d825190565b614d5b818560208601613dd2565b9290920192915050565b7f416363657373436f6e74726f6c3a206163636f756e742000000000000000000081526017016000614d978285614d43565b7001034b99036b4b9b9b4b733903937b6329607d1b815260110191506115c78284614d43565b602d81526000602082017f455243313936373a206e657720696d706c656d656e746174696f6e206973206e81526c1bdd08184818dbdb9d1c9858dd609a1b602082015291506145ee565b602080825281016107b481614dbd565b602b81526000602082017f496e697469616c697a61626c653a20636f6e7472616374206973206e6f74206981526a6e697469616c697a696e6760a81b602082015291506145ee565b602080825281016107b481614e17565b60808082528101614e808187613df6565b9050614e8f6020830186613e89565b614bb46040830185613eae565b60408082528101614ead8185613df6565b9050611c796020830184613e89565b60608082528101614ecd8186613df6565b90506149036020830185613eae565b60c08082528101614eed8189614bd5565b90508181036020830152614f018188614bd5565b9050614f106040830187613e89565b614f1d6060830186613e89565b614f2a6080830185613eae565b614f3760a0830184613e89565b979650505050505050565b60808082528101614f538187613df6565b9050614f626020830186613eae565b614f6f6040830185613e89565b613d0f6060830184613e89565b60408101614f8a8285613e89565b81810360208301526115c78184614bd5565b600060208284031215614fb157614fb1600080fd5b815167ffffffffffffffff811115614fcb57614fcb600080fd5b6115c784828501614cd1565b60a08101614fe58288613e89565b614ff26020830187613e89565b81810360408301526150048186614bd5565b90506150136060830185613eae565b6137266080830184613e89565b60008161502f5761502f6142ad565b506000190190565b60208082527f537472696e67733a20686578206c656e67746820696e73756666696369656e7491019081526000614261565b602080825281016107b481615037565b602681526000602082017f416464726573733a2064656c65676174652063616c6c20746f206e6f6e2d636f8152651b9d1c9858dd60d21b602082015291506145ee565b602080825281016107b481615079565b6000611c798284614d4356fe90c2aa7471c04182221f68e80c07ab1e5946e4c63f8693e14ca40385d529f051360894a13ba1a3210667c828492db98dca3e2076cc3735a920a3ca505d382bbc6465706f736974696e6720757364742b20746f20706f6f6c206465706f7369746f72202573202573202573416464726573733a206c6f772d6c6576656c2064656c65676174652063616c6c206661696c6564a2646970667358221220399ddd1ee5bc726dc45c9331ffe71e052a3498db7444af829eabf190fb6d33ad64736f6c63430008110033",
  "implementation": "0xA34dca63270e26e7E6E2Ef1dE934D06A72B49eff",
  "devdoc": {
    "kind": "dev",
    "methods": {
      "constructor": {
        "custom:oz-upgrades-unsafe-allow": "constructor"
      },
      "getRoleAdmin(bytes32)": {
        "details": "Returns the admin role that controls `role`. See {grantRole} and {revokeRole}. To change a role's admin, use {_setRoleAdmin}."
      },
      "grantRole(bytes32,address)": {
        "details": "Grants `role` to `account`. If `account` had not been already granted `role`, emits a {RoleGranted} event. Requirements: - the caller must have ``role``'s admin role. May emit a {RoleGranted} event."
      },
      "hasRole(bytes32,address)": {
        "details": "Returns `true` if `account` has been granted `role`."
      },
      "proxiableUUID()": {
        "details": "Implementation of the ERC1822 {proxiableUUID} function. This returns the storage slot used by the implementation. It is used to validate the implementation's compatibility when performing an upgrade. IMPORTANT: A proxy pointing at a proxiable contract should not be considered proxiable itself, because this risks bricking a proxy that upgrades to it, by delegating to itself until out of gas. Thus it is critical that this function revert if invoked through a proxy. This is guaranteed by the `notDelegated` modifier."
      },
      "renounceRole(bytes32,address)": {
        "details": "Revokes `role` from the calling account. Roles are often managed via {grantRole} and {revokeRole}: this function's purpose is to provide a mechanism for accounts to lose their privileges if they are compromised (such as when a trusted device is misplaced). If the calling account had been revoked `role`, emits a {RoleRevoked} event. Requirements: - the caller must be `account`. May emit a {RoleRevoked} event."
      },
      "revokeRole(bytes32,address)": {
        "details": "Revokes `role` from `account`. If `account` had been granted `role`, emits a {RoleRevoked} event. Requirements: - the caller must have ``role``'s admin role. May emit a {RoleRevoked} event."
      },
      "supportsInterface(bytes4)": {
        "details": "See {IERC165-supportsInterface}."
      },
      "upgradeTo(address)": {
        "details": "Upgrade the implementation of the proxy to `newImplementation`. Calls {_authorizeUpgrade}. Emits an {Upgraded} event."
      },
      "upgradeToAndCall(address,bytes)": {
        "details": "Upgrade the implementation of the proxy to `newImplementation`, and subsequently execute the function call encoded in `data`. Calls {_authorizeUpgrade}. Emits an {Upgraded} event."
      }
    },
    "version": 1
  },
  "userdoc": {
    "kind": "user",
    "methods": {},
    "version": 1
  },
  "storageLayout": {
    "storage": [
      {
        "astId": 804,
        "contract": "contracts/strategies/StrategyWombexUsdt+.sol:StrategyWombexUsdtPlus",
        "label": "_initialized",
        "offset": 0,
        "slot": "0",
        "type": "t_uint8"
      },
      {
        "astId": 807,
        "contract": "contracts/strategies/StrategyWombexUsdt+.sol:StrategyWombexUsdtPlus",
        "label": "_initializing",
        "offset": 1,
        "slot": "0",
        "type": "t_bool"
      },
      {
        "astId": 1427,
        "contract": "contracts/strategies/StrategyWombexUsdt+.sol:StrategyWombexUsdtPlus",
        "label": "__gap",
        "offset": 0,
        "slot": "1",
        "type": "t_array(t_uint256)50_storage"
      },
      {
        "astId": 1706,
        "contract": "contracts/strategies/StrategyWombexUsdt+.sol:StrategyWombexUsdtPlus",
        "label": "__gap",
        "offset": 0,
        "slot": "51",
        "type": "t_array(t_uint256)50_storage"
      },
      {
        "astId": 39,
        "contract": "contracts/strategies/StrategyWombexUsdt+.sol:StrategyWombexUsdtPlus",
        "label": "_roles",
        "offset": 0,
        "slot": "101",
        "type": "t_mapping(t_bytes32,t_struct(RoleData)34_storage)"
      },
      {
        "astId": 334,
        "contract": "contracts/strategies/StrategyWombexUsdt+.sol:StrategyWombexUsdtPlus",
        "label": "__gap",
        "offset": 0,
        "slot": "102",
        "type": "t_array(t_uint256)49_storage"
      },
      {
        "astId": 786,
        "contract": "contracts/strategies/StrategyWombexUsdt+.sol:StrategyWombexUsdtPlus",
        "label": "__gap",
        "offset": 0,
        "slot": "151",
        "type": "t_array(t_uint256)50_storage"
      },
      {
        "astId": 1101,
        "contract": "contracts/strategies/StrategyWombexUsdt+.sol:StrategyWombexUsdtPlus",
        "label": "__gap",
        "offset": 0,
        "slot": "201",
        "type": "t_array(t_uint256)50_storage"
      },
      {
        "astId": 2717,
        "contract": "contracts/strategies/StrategyWombexUsdt+.sol:StrategyWombexUsdtPlus",
        "label": "portfolioManager",
        "offset": 0,
        "slot": "251",
        "type": "t_address"
      },
      {
        "astId": 2719,
        "contract": "contracts/strategies/StrategyWombexUsdt+.sol:StrategyWombexUsdtPlus",
        "label": "swapSlippageBP",
        "offset": 0,
        "slot": "252",
        "type": "t_uint256"
      },
      {
        "astId": 2721,
        "contract": "contracts/strategies/StrategyWombexUsdt+.sol:StrategyWombexUsdtPlus",
        "label": "navSlippageBP",
        "offset": 0,
        "slot": "253",
        "type": "t_uint256"
      },
      {
        "astId": 2723,
        "contract": "contracts/strategies/StrategyWombexUsdt+.sol:StrategyWombexUsdtPlus",
        "label": "stakeSlippageBP",
        "offset": 0,
        "slot": "254",
        "type": "t_uint256"
      },
      {
        "astId": 3090,
        "contract": "contracts/strategies/StrategyWombexUsdt+.sol:StrategyWombexUsdtPlus",
        "label": "__gap",
        "offset": 0,
        "slot": "255",
        "type": "t_array(t_uint256)46_storage"
      },
      {
        "astId": 6008,
        "contract": "contracts/strategies/StrategyWombexUsdt+.sol:StrategyWombexUsdtPlus",
        "label": "usdt",
        "offset": 0,
        "slot": "301",
        "type": "t_contract(IERC20)2662"
      },
      {
        "astId": 6011,
        "contract": "contracts/strategies/StrategyWombexUsdt+.sol:StrategyWombexUsdtPlus",
        "label": "usdc",
        "offset": 0,
        "slot": "302",
        "type": "t_contract(IERC20)2662"
      },
      {
        "astId": 6014,
        "contract": "contracts/strategies/StrategyWombexUsdt+.sol:StrategyWombexUsdtPlus",
        "label": "usdtPlus",
        "offset": 0,
        "slot": "303",
        "type": "t_contract(IERC20)2662"
      },
      {
        "astId": 6017,
        "contract": "contracts/strategies/StrategyWombexUsdt+.sol:StrategyWombexUsdtPlus",
        "label": "wom",
        "offset": 0,
        "slot": "304",
        "type": "t_contract(IERC20)2662"
      },
      {
        "astId": 6020,
        "contract": "contracts/strategies/StrategyWombexUsdt+.sol:StrategyWombexUsdtPlus",
        "label": "wmx",
        "offset": 0,
        "slot": "305",
        "type": "t_contract(IERC20)2662"
      },
      {
        "astId": 6023,
        "contract": "contracts/strategies/StrategyWombexUsdt+.sol:StrategyWombexUsdtPlus",
        "label": "lpUsdtPlus",
        "offset": 0,
        "slot": "306",
        "type": "t_contract(IWombatAsset)4595"
      },
      {
        "astId": 6026,
        "contract": "contracts/strategies/StrategyWombexUsdt+.sol:StrategyWombexUsdtPlus",
        "label": "wmxLpUsdtPlus",
        "offset": 0,
        "slot": "307",
        "type": "t_contract(IWombexBaseRewardPool)5734"
      },
      {
        "astId": 6029,
        "contract": "contracts/strategies/StrategyWombexUsdt+.sol:StrategyWombexUsdtPlus",
        "label": "poolDepositor",
        "offset": 0,
        "slot": "308",
        "type": "t_contract(IWombexPoolDepositor)5779"
      },
      {
        "astId": 6031,
        "contract": "contracts/strategies/StrategyWombexUsdt+.sol:StrategyWombexUsdtPlus",
        "label": "pool",
        "offset": 0,
        "slot": "309",
        "type": "t_address"
      },
      {
        "astId": 6034,
        "contract": "contracts/strategies/StrategyWombexUsdt+.sol:StrategyWombexUsdtPlus",
        "label": "pancakeRouter",
        "offset": 0,
        "slot": "310",
        "type": "t_contract(IPancakeRouter02)4378"
      },
      {
        "astId": 6036,
        "contract": "contracts/strategies/StrategyWombexUsdt+.sol:StrategyWombexUsdtPlus",
        "label": "lpUsdtDm",
        "offset": 0,
        "slot": "311",
        "type": "t_uint256"
      },
      {
        "astId": 6039,
        "contract": "contracts/strategies/StrategyWombexUsdt+.sol:StrategyWombexUsdtPlus",
        "label": "wombatRouter",
        "offset": 0,
        "slot": "312",
        "type": "t_contract(IWombatRouter)4867"
      },
      {
        "astId": 6042,
        "contract": "contracts/strategies/StrategyWombexUsdt+.sol:StrategyWombexUsdtPlus",
        "label": "oracleUsdt",
        "offset": 0,
        "slot": "313",
        "type": "t_contract(IPriceFeed)3166"
      },
      {
        "astId": 6044,
        "contract": "contracts/strategies/StrategyWombexUsdt+.sol:StrategyWombexUsdtPlus",
        "label": "usdtDm",
        "offset": 0,
        "slot": "314",
        "type": "t_uint256"
      },
      {
        "astId": 6046,
        "contract": "contracts/strategies/StrategyWombexUsdt+.sol:StrategyWombexUsdtPlus",
        "label": "usdtPlusDm",
        "offset": 0,
        "slot": "315",
        "type": "t_uint256"
      },
      {
        "astId": 6048,
        "contract": "contracts/strategies/StrategyWombexUsdt+.sol:StrategyWombexUsdtPlus",
        "label": "lpUsdtPlusDm",
        "offset": 0,
        "slot": "316",
        "type": "t_uint256"
      },
      {
        "astId": 6050,
        "contract": "contracts/strategies/StrategyWombexUsdt+.sol:StrategyWombexUsdtPlus",
        "label": "name",
        "offset": 0,
        "slot": "317",
        "type": "t_string_storage"
      }
    ],
    "types": {
      "t_address": {
        "encoding": "inplace",
        "label": "address",
        "numberOfBytes": "20"
      },
      "t_array(t_uint256)46_storage": {
        "base": "t_uint256",
        "encoding": "inplace",
        "label": "uint256[46]",
        "numberOfBytes": "1472"
      },
      "t_array(t_uint256)49_storage": {
        "base": "t_uint256",
        "encoding": "inplace",
        "label": "uint256[49]",
        "numberOfBytes": "1568"
      },
      "t_array(t_uint256)50_storage": {
        "base": "t_uint256",
        "encoding": "inplace",
        "label": "uint256[50]",
        "numberOfBytes": "1600"
      },
      "t_bool": {
        "encoding": "inplace",
        "label": "bool",
        "numberOfBytes": "1"
      },
      "t_bytes32": {
        "encoding": "inplace",
        "label": "bytes32",
        "numberOfBytes": "32"
      },
      "t_contract(IERC20)2662": {
        "encoding": "inplace",
        "label": "contract IERC20",
        "numberOfBytes": "20"
      },
      "t_contract(IPancakeRouter02)4378": {
        "encoding": "inplace",
        "label": "contract IPancakeRouter02",
        "numberOfBytes": "20"
      },
      "t_contract(IPriceFeed)3166": {
        "encoding": "inplace",
        "label": "contract IPriceFeed",
        "numberOfBytes": "20"
      },
      "t_contract(IWombatAsset)4595": {
        "encoding": "inplace",
        "label": "contract IWombatAsset",
        "numberOfBytes": "20"
      },
      "t_contract(IWombatRouter)4867": {
        "encoding": "inplace",
        "label": "contract IWombatRouter",
        "numberOfBytes": "20"
      },
      "t_contract(IWombexBaseRewardPool)5734": {
        "encoding": "inplace",
        "label": "contract IWombexBaseRewardPool",
        "numberOfBytes": "20"
      },
      "t_contract(IWombexPoolDepositor)5779": {
        "encoding": "inplace",
        "label": "contract IWombexPoolDepositor",
        "numberOfBytes": "20"
      },
      "t_mapping(t_address,t_bool)": {
        "encoding": "mapping",
        "key": "t_address",
        "label": "mapping(address => bool)",
        "numberOfBytes": "32",
        "value": "t_bool"
      },
      "t_mapping(t_bytes32,t_struct(RoleData)34_storage)": {
        "encoding": "mapping",
        "key": "t_bytes32",
        "label": "mapping(bytes32 => struct AccessControlUpgradeable.RoleData)",
        "numberOfBytes": "32",
        "value": "t_struct(RoleData)34_storage"
      },
      "t_string_storage": {
        "encoding": "bytes",
        "label": "string",
        "numberOfBytes": "32"
      },
      "t_struct(RoleData)34_storage": {
        "encoding": "inplace",
        "label": "struct AccessControlUpgradeable.RoleData",
        "members": [
          {
            "astId": 31,
            "contract": "contracts/strategies/StrategyWombexUsdt+.sol:StrategyWombexUsdtPlus",
            "label": "members",
            "offset": 0,
            "slot": "0",
            "type": "t_mapping(t_address,t_bool)"
          },
          {
            "astId": 33,
            "contract": "contracts/strategies/StrategyWombexUsdt+.sol:StrategyWombexUsdtPlus",
            "label": "adminRole",
            "offset": 0,
            "slot": "1",
            "type": "t_bytes32"
          }
        ],
        "numberOfBytes": "64"
      },
      "t_uint256": {
        "encoding": "inplace",
        "label": "uint256",
        "numberOfBytes": "32"
      },
      "t_uint8": {
        "encoding": "inplace",
        "label": "uint8",
        "numberOfBytes": "1"
      }
    }
  }
}