{
  "address": "0x39E29f4FB13AeC505EF32Ee6Ff7cc16e2225B11F",
  "abi": [
    {
      "inputs": [],
      "stateMutability": "nonpayable",
      "type": "constructor"
    },
    {
      "anonymous": false,
      "inputs": [
        {
          "indexed": false,
          "internalType": "address",
          "name": "previousAdmin",
          "type": "address"
        },
        {
          "indexed": false,
          "internalType": "address",
          "name": "newAdmin",
          "type": "address"
        }
      ],
      "name": "AdminChanged",
      "type": "event"
    },
    {
      "anonymous": false,
      "inputs": [
        {
          "indexed": true,
          "internalType": "address",
          "name": "beacon",
          "type": "address"
        }
      ],
      "name": "BeaconUpgraded",
      "type": "event"
    },
    {
      "anonymous": false,
      "inputs": [
        {
          "indexed": false,
          "internalType": "uint8",
          "name": "version",
          "type": "uint8"
        }
      ],
      "name": "Initialized",
      "type": "event"
    },
    {
      "anonymous": false,
      "inputs": [
        {
          "indexed": false,
          "internalType": "address",
          "name": "value",
          "type": "address"
        }
      ],
      "name": "PortfolioManagerUpdated",
      "type": "event"
    },
    {
      "anonymous": false,
      "inputs": [
        {
          "indexed": false,
          "internalType": "uint256",
          "name": "amount",
          "type": "uint256"
        }
      ],
      "name": "Reward",
      "type": "event"
    },
    {
      "anonymous": false,
      "inputs": [
        {
          "indexed": true,
          "internalType": "bytes32",
          "name": "role",
          "type": "bytes32"
        },
        {
          "indexed": true,
          "internalType": "bytes32",
          "name": "previousAdminRole",
          "type": "bytes32"
        },
        {
          "indexed": true,
          "internalType": "bytes32",
          "name": "newAdminRole",
          "type": "bytes32"
        }
      ],
      "name": "RoleAdminChanged",
      "type": "event"
    },
    {
      "anonymous": false,
      "inputs": [
        {
          "indexed": true,
          "internalType": "bytes32",
          "name": "role",
          "type": "bytes32"
        },
        {
          "indexed": true,
          "internalType": "address",
          "name": "account",
          "type": "address"
        },
        {
          "indexed": true,
          "internalType": "address",
          "name": "sender",
          "type": "address"
        }
      ],
      "name": "RoleGranted",
      "type": "event"
    },
    {
      "anonymous": false,
      "inputs": [
        {
          "indexed": true,
          "internalType": "bytes32",
          "name": "role",
          "type": "bytes32"
        },
        {
          "indexed": true,
          "internalType": "address",
          "name": "account",
          "type": "address"
        },
        {
          "indexed": true,
          "internalType": "address",
          "name": "sender",
          "type": "address"
        }
      ],
      "name": "RoleRevoked",
      "type": "event"
    },
    {
      "anonymous": false,
      "inputs": [
        {
          "indexed": false,
          "internalType": "uint256",
          "name": "swapSlippageBP",
          "type": "uint256"
        },
        {
          "indexed": false,
          "internalType": "uint256",
          "name": "navSlippageBP",
          "type": "uint256"
        },
        {
          "indexed": false,
          "internalType": "uint256",
          "name": "stakeSlippageBP",
          "type": "uint256"
        }
      ],
      "name": "SlippagesUpdated",
      "type": "event"
    },
    {
      "anonymous": false,
      "inputs": [
        {
          "indexed": false,
          "internalType": "uint256",
          "name": "amount",
          "type": "uint256"
        }
      ],
      "name": "Stake",
      "type": "event"
    },
    {
      "anonymous": false,
      "inputs": [],
      "name": "StrategyUpdatedParams",
      "type": "event"
    },
    {
      "anonymous": false,
      "inputs": [
        {
          "indexed": false,
          "internalType": "uint256",
          "name": "amount",
          "type": "uint256"
        },
        {
          "indexed": false,
          "internalType": "uint256",
          "name": "amountReceived",
          "type": "uint256"
        }
      ],
      "name": "Unstake",
      "type": "event"
    },
    {
      "anonymous": false,
      "inputs": [
        {
          "indexed": true,
          "internalType": "address",
          "name": "implementation",
          "type": "address"
        }
      ],
      "name": "Upgraded",
      "type": "event"
    },
    {
      "inputs": [],
      "name": "DEFAULT_ADMIN_ROLE",
      "outputs": [
        {
          "internalType": "bytes32",
          "name": "",
          "type": "bytes32"
        }
      ],
      "stateMutability": "view",
      "type": "function"
    },
    {
      "inputs": [],
      "name": "PORTFOLIO_AGENT_ROLE",
      "outputs": [
        {
          "internalType": "bytes32",
          "name": "",
          "type": "bytes32"
        }
      ],
      "stateMutability": "view",
      "type": "function"
    },
    {
      "inputs": [],
      "name": "PORTFOLIO_MANAGER",
      "outputs": [
        {
          "internalType": "bytes32",
          "name": "",
          "type": "bytes32"
        }
      ],
      "stateMutability": "view",
      "type": "function"
    },
    {
      "inputs": [],
      "name": "busd",
      "outputs": [
        {
          "internalType": "contract IERC20",
          "name": "",
          "type": "address"
        }
      ],
      "stateMutability": "view",
      "type": "function"
    },
    {
      "inputs": [],
      "name": "busdDm",
      "outputs": [
        {
          "internalType": "uint256",
          "name": "",
          "type": "uint256"
        }
      ],
      "stateMutability": "view",
      "type": "function"
    },
    {
      "inputs": [
        {
          "internalType": "address",
          "name": "_to",
          "type": "address"
        }
      ],
      "name": "claimRewards",
      "outputs": [
        {
          "internalType": "uint256",
          "name": "",
          "type": "uint256"
        }
      ],
      "stateMutability": "nonpayable",
      "type": "function"
    },
    {
      "inputs": [],
      "name": "gauge",
      "outputs": [
        {
          "internalType": "contract IGaugeV2",
          "name": "",
          "type": "address"
        }
      ],
      "stateMutability": "view",
      "type": "function"
    },
    {
      "inputs": [
        {
          "internalType": "bytes32",
          "name": "role",
          "type": "bytes32"
        }
      ],
      "name": "getRoleAdmin",
      "outputs": [
        {
          "internalType": "bytes32",
          "name": "",
          "type": "bytes32"
        }
      ],
      "stateMutability": "view",
      "type": "function"
    },
    {
      "inputs": [
        {
          "internalType": "bytes32",
          "name": "role",
          "type": "bytes32"
        },
        {
          "internalType": "address",
          "name": "account",
          "type": "address"
        }
      ],
      "name": "grantRole",
      "outputs": [],
      "stateMutability": "nonpayable",
      "type": "function"
    },
    {
      "inputs": [
        {
          "internalType": "bytes32",
          "name": "role",
          "type": "bytes32"
        },
        {
          "internalType": "address",
          "name": "account",
          "type": "address"
        }
      ],
      "name": "hasRole",
      "outputs": [
        {
          "internalType": "bool",
          "name": "",
          "type": "bool"
        }
      ],
      "stateMutability": "view",
      "type": "function"
    },
    {
      "inputs": [],
      "name": "initialize",
      "outputs": [],
      "stateMutability": "nonpayable",
      "type": "function"
    },
    {
      "inputs": [],
      "name": "liquidationValue",
      "outputs": [
        {
          "internalType": "uint256",
          "name": "",
          "type": "uint256"
        }
      ],
      "stateMutability": "view",
      "type": "function"
    },
    {
      "inputs": [],
      "name": "navSlippageBP",
      "outputs": [
        {
          "internalType": "uint256",
          "name": "",
          "type": "uint256"
        }
      ],
      "stateMutability": "view",
      "type": "function"
    },
    {
      "inputs": [],
      "name": "netAssetValue",
      "outputs": [
        {
          "internalType": "uint256",
          "name": "",
          "type": "uint256"
        }
      ],
      "stateMutability": "view",
      "type": "function"
    },
    {
      "inputs": [],
      "name": "oracleBusd",
      "outputs": [
        {
          "internalType": "contract IPriceFeed",
          "name": "",
          "type": "address"
        }
      ],
      "stateMutability": "view",
      "type": "function"
    },
    {
      "inputs": [],
      "name": "oracleUsdc",
      "outputs": [
        {
          "internalType": "contract IPriceFeed",
          "name": "",
          "type": "address"
        }
      ],
      "stateMutability": "view",
      "type": "function"
    },
    {
      "inputs": [],
      "name": "pair",
      "outputs": [
        {
          "internalType": "contract IPair",
          "name": "",
          "type": "address"
        }
      ],
      "stateMutability": "view",
      "type": "function"
    },
    {
      "inputs": [],
      "name": "portfolioManager",
      "outputs": [
        {
          "internalType": "address",
          "name": "",
          "type": "address"
        }
      ],
      "stateMutability": "view",
      "type": "function"
    },
    {
      "inputs": [],
      "name": "proxiableUUID",
      "outputs": [
        {
          "internalType": "bytes32",
          "name": "",
          "type": "bytes32"
        }
      ],
      "stateMutability": "view",
      "type": "function"
    },
    {
      "inputs": [
        {
          "internalType": "bytes32",
          "name": "role",
          "type": "bytes32"
        },
        {
          "internalType": "address",
          "name": "account",
          "type": "address"
        }
      ],
      "name": "renounceRole",
      "outputs": [],
      "stateMutability": "nonpayable",
      "type": "function"
    },
    {
      "inputs": [
        {
          "internalType": "bytes32",
          "name": "role",
          "type": "bytes32"
        },
        {
          "internalType": "address",
          "name": "account",
          "type": "address"
        }
      ],
      "name": "revokeRole",
      "outputs": [],
      "stateMutability": "nonpayable",
      "type": "function"
    },
    {
      "inputs": [],
      "name": "router",
      "outputs": [
        {
          "internalType": "contract IRouter",
          "name": "",
          "type": "address"
        }
      ],
      "stateMutability": "view",
      "type": "function"
    },
    {
      "inputs": [
        {
          "components": [
            {
              "internalType": "address",
              "name": "busdToken",
              "type": "address"
            },
            {
              "internalType": "address",
              "name": "usdcToken",
              "type": "address"
            },
            {
              "internalType": "address",
              "name": "wUsdr",
              "type": "address"
            },
            {
              "internalType": "address",
              "name": "the",
              "type": "address"
            },
            {
              "internalType": "address",
              "name": "pair",
              "type": "address"
            },
            {
              "internalType": "address",
              "name": "router",
              "type": "address"
            },
            {
              "internalType": "address",
              "name": "gauge",
              "type": "address"
            },
            {
              "internalType": "address",
              "name": "wombatPool",
              "type": "address"
            },
            {
              "internalType": "address",
              "name": "wombatRouter",
              "type": "address"
            },
            {
              "internalType": "address",
              "name": "oracleBusd",
              "type": "address"
            },
            {
              "internalType": "address",
              "name": "oracleUsdc",
              "type": "address"
            }
          ],
          "internalType": "struct StrategyThenawUsdrUsdc.StrategyParams",
          "name": "params",
          "type": "tuple"
        }
      ],
      "name": "setParams",
      "outputs": [],
      "stateMutability": "nonpayable",
      "type": "function"
    },
    {
      "inputs": [
        {
          "internalType": "address",
          "name": "_value",
          "type": "address"
        }
      ],
      "name": "setPortfolioManager",
      "outputs": [],
      "stateMutability": "nonpayable",
      "type": "function"
    },
    {
      "inputs": [
        {
          "internalType": "uint256",
          "name": "_swapSlippageBP",
          "type": "uint256"
        },
        {
          "internalType": "uint256",
          "name": "_navSlippageBP",
          "type": "uint256"
        },
        {
          "internalType": "uint256",
          "name": "_stakeSlippageBP",
          "type": "uint256"
        }
      ],
      "name": "setSlippages",
      "outputs": [],
      "stateMutability": "nonpayable",
      "type": "function"
    },
    {
      "inputs": [
        {
          "internalType": "address",
          "name": "_asset",
          "type": "address"
        },
        {
          "internalType": "uint256",
          "name": "_amount",
          "type": "uint256"
        }
      ],
      "name": "stake",
      "outputs": [],
      "stateMutability": "nonpayable",
      "type": "function"
    },
    {
      "inputs": [],
      "name": "stakeSlippageBP",
      "outputs": [
        {
          "internalType": "uint256",
          "name": "",
          "type": "uint256"
        }
      ],
      "stateMutability": "view",
      "type": "function"
    },
    {
      "inputs": [
        {
          "internalType": "bytes4",
          "name": "interfaceId",
          "type": "bytes4"
        }
      ],
      "name": "supportsInterface",
      "outputs": [
        {
          "internalType": "bool",
          "name": "",
          "type": "bool"
        }
      ],
      "stateMutability": "view",
      "type": "function"
    },
    {
      "inputs": [],
      "name": "swapSlippageBP",
      "outputs": [
        {
          "internalType": "uint256",
          "name": "",
          "type": "uint256"
        }
      ],
      "stateMutability": "view",
      "type": "function"
    },
    {
      "inputs": [],
      "name": "the",
      "outputs": [
        {
          "internalType": "contract IERC20",
          "name": "",
          "type": "address"
        }
      ],
      "stateMutability": "view",
      "type": "function"
    },
    {
      "inputs": [
        {
          "internalType": "address",
          "name": "_asset",
          "type": "address"
        },
        {
          "internalType": "uint256",
          "name": "_amount",
          "type": "uint256"
        },
        {
          "internalType": "address",
          "name": "_beneficiary",
          "type": "address"
        },
        {
          "internalType": "bool",
          "name": "_targetIsZero",
          "type": "bool"
        }
      ],
      "name": "unstake",
      "outputs": [
        {
          "internalType": "uint256",
          "name": "",
          "type": "uint256"
        }
      ],
      "stateMutability": "nonpayable",
      "type": "function"
    },
    {
      "inputs": [
        {
          "internalType": "address",
          "name": "newImplementation",
          "type": "address"
        }
      ],
      "name": "upgradeTo",
      "outputs": [],
      "stateMutability": "nonpayable",
      "type": "function"
    },
    {
      "inputs": [
        {
          "internalType": "address",
          "name": "newImplementation",
          "type": "address"
        },
        {
          "internalType": "bytes",
          "name": "data",
          "type": "bytes"
        }
      ],
      "name": "upgradeToAndCall",
      "outputs": [],
      "stateMutability": "payable",
      "type": "function"
    },
    {
      "inputs": [],
      "name": "usdc",
      "outputs": [
        {
          "internalType": "contract IERC20",
          "name": "",
          "type": "address"
        }
      ],
      "stateMutability": "view",
      "type": "function"
    },
    {
      "inputs": [],
      "name": "usdcDm",
      "outputs": [
        {
          "internalType": "uint256",
          "name": "",
          "type": "uint256"
        }
      ],
      "stateMutability": "view",
      "type": "function"
    },
    {
      "inputs": [],
      "name": "wUsdr",
      "outputs": [
        {
          "internalType": "contract IERC20",
          "name": "",
          "type": "address"
        }
      ],
      "stateMutability": "view",
      "type": "function"
    },
    {
      "inputs": [],
      "name": "wUsdrDm",
      "outputs": [
        {
          "internalType": "uint256",
          "name": "",
          "type": "uint256"
        }
      ],
      "stateMutability": "view",
      "type": "function"
    },
    {
      "inputs": [],
      "name": "wombatPool",
      "outputs": [
        {
          "internalType": "address",
          "name": "",
          "type": "address"
        }
      ],
      "stateMutability": "view",
      "type": "function"
    },
    {
      "inputs": [],
      "name": "wombatRouter",
      "outputs": [
        {
          "internalType": "address",
          "name": "",
          "type": "address"
        }
      ],
      "stateMutability": "view",
      "type": "function"
    }
  ],
  "numDeployments": 3,
  "solcInputHash": "62297fb3af023cf2e8c96589896f7c5c",
  "bytecode": "0x60a0604052306080523480156200001557600080fd5b50600054610100900460ff1615808015620000375750600054600160ff909116105b8062000067575062000054306200010860201b6200148a1760201c565b15801562000067575060005460ff166001145b6200008f5760405162461bcd60e51b8152600401620000869062000117565b60405180910390fd5b6000805460ff191660011790558015620000b3576000805461ff0019166101001790555b801562000101576000805461ff00191690556040517f7f26b83ff96e1f2b6a682f133852f6798a09c465da95921460cefb384740249890620000f8906001906200018d565b60405180910390a15b506200019d565b6001600160a01b03163b151590565b602080825281016200016a81602e81527f496e697469616c697a61626c653a20636f6e747261637420697320616c72656160208201526d191e481a5b9a5d1a585b1a5e995960921b604082015260600190565b92915050565b600060ff82166200016a565b620001878162000170565b82525050565b602081016200016a82846200017c565b608051615b80620001d5600039600081816107d50152818161081501528181610ca301528181610ce30152610d720152615b806000f3fe6080604052600436106102305760003560e01c80637d5f58021161012e578063adc9772e116100ab578063ddefa4ab1161006f578063ddefa4ab14610677578063eb23e48314610698578063ef5cfb8c146106b9578063f6f6b881146106d9578063f887ea40146106f957600080fd5b8063adc9772e146105ea578063ae30c1101461060a578063bf52e0801461062a578063d547741f14610640578063dc19d6431461066057600080fd5b8063a440b21a116100f2578063a440b21a14610550578063a66b571314610570578063a6f19c8414610591578063a8a69576146105b2578063a8aa1b31146105c957600080fd5b80637d5f5802146104bd5780638129fc1c146104f157806391d1485414610506578063a217fddf14610526578063a3673b381461053b57600080fd5b80633ca5b234116101bc5780635ca558f8116101805780635ca558f8146104115780635dbd733a146104275780635fea9cbb1461045b578063612c87df1461047c578063620b75df1461049d57600080fd5b80633ca5b2341461037a5780633e413bee146103a8578063431ac739146103c95780634f1ef286146103e957806352d1902d146103fc57600080fd5b8063248a9ca311610203578063248a9ca3146102d35780632576e65a146103035780632f2ff15d1461031857806336568abe1461033a5780633659cfe61461035a57600080fd5b8063012ee9281461023557806301ffc9a71461026c578063119cd879146102995780631b1e7ddc146102bc575b600080fd5b34801561024157600080fd5b5061013454610256906001600160a01b031681565b60405161026391906147bc565b60405180910390f35b34801561027857600080fd5b5061028c6102873660046147ec565b61071a565b6040516102639190614815565b3480156102a557600080fd5b506102af60fd5481565b6040516102639190614829565b3480156102c857600080fd5b506102af6101395481565b3480156102df57600080fd5b506102af6102ee366004614848565b60009081526065602052604090206001015490565b34801561030f57600080fd5b506102af610751565b34801561032457600080fd5b5061033861033336600461487d565b610762565b005b34801561034657600080fd5b5061033861035536600461487d565b61078c565b34801561036657600080fd5b506103386103753660046148ba565b6107cb565b34801561038657600080fd5b5061012d5461039b906001600160a01b031681565b604051610263919061491d565b3480156103b457600080fd5b5061012e5461039b906001600160a01b031681565b3480156103d557600080fd5b506103386103e4366004614947565b6108aa565b6103386103f7366004614a5c565b610c99565b34801561040857600080fd5b506102af610d65565b34801561041d57600080fd5b506102af60fe5481565b34801561043357600080fd5b506102af7fd67ad422505496469a1adf6cdf9e5ee92ac5d33992843c9ecc4b2f6d6cde913781565b34801561046757600080fd5b506101375461039b906001600160a01b031681565b34801561048857600080fd5b5061013554610256906001600160a01b031681565b3480156104a957600080fd5b5060fb54610256906001600160a01b031681565b3480156104c957600080fd5b506102af7f90c2aa7471c04182221f68e80c07ab1e5946e4c63f8693e14ca40385d529f05181565b3480156104fd57600080fd5b50610338610dc2565b34801561051257600080fd5b5061028c61052136600461487d565b610e90565b34801561053257600080fd5b506102af600081565b34801561054757600080fd5b506102af610ebb565b34801561055c57600080fd5b5061033861056b3660046148ba565b610ec7565b34801561057c57600080fd5b506101365461039b906001600160a01b031681565b34801561059d57600080fd5b506101335461039b906001600160a01b031681565b3480156105be57600080fd5b506102af61013a5481565b3480156105d557600080fd5b506101315461039b906001600160a01b031681565b3480156105f657600080fd5b50610338610605366004614aaa565b610fc0565b34801561061657600080fd5b50610338610625366004614add565b6110e3565b34801561063657600080fd5b506102af60fc5481565b34801561064c57600080fd5b5061033861065b36600461487d565b611205565b34801561066c57600080fd5b506102af6101385481565b34801561068357600080fd5b506101305461039b906001600160a01b031681565b3480156106a457600080fd5b5061012f5461039b906001600160a01b031681565b3480156106c557600080fd5b506102af6106d43660046148ba565b61122a565b3480156106e557600080fd5b506102af6106f4366004614b40565b61127b565b34801561070557600080fd5b506101325461039b906001600160a01b031681565b60006001600160e01b03198216637965db0b60e01b148061074b57506301ffc9a760e01b6001600160e01b03198316145b92915050565b600061075d6000611499565b905090565b60008281526065602052604090206001015461077d816118ed565b61078783836118f7565b505050565b6001600160a01b03811633146107bd5760405162461bcd60e51b81526004016107b490614bf3565b60405180910390fd5b6107c7828261197d565b5050565b6001600160a01b037f00000000000000000000000000000000000000000000000000000000000000001630036108135760405162461bcd60e51b81526004016107b490614c4c565b7f00000000000000000000000000000000000000000000000000000000000000006001600160a01b031661085c600080516020615ad5833981519152546001600160a01b031690565b6001600160a01b0316146108825760405162461bcd60e51b81526004016107b490614ca5565b61088b816119e4565b604080516000808252602082019092526108a7918391906119ef565b50565b6108b5600033610e90565b6108d15760405162461bcd60e51b81526004016107b490614ce3565b6108de60208201826148ba565b61012d80546001600160a01b0319166001600160a01b039290921691909117905561090f60408201602083016148ba565b61012e80546001600160a01b0319166001600160a01b039290921691909117905561094060608201604083016148ba565b61012f80546001600160a01b0319166001600160a01b039290921691909117905561097160808201606083016148ba565b61013080546001600160a01b0319166001600160a01b03929092169190911790556109a260a08201608083016148ba565b61013180546001600160a01b0319166001600160a01b03929092169190911790556109d360c0820160a083016148ba565b61013280546001600160a01b0319166001600160a01b0392909216919091179055610a0460e0820160c083016148ba565b61013380546001600160a01b0319166001600160a01b0392909216919091179055610a36610100820160e083016148ba565b61013480546001600160a01b0319166001600160a01b0392909216919091179055610a69610120820161010083016148ba565b61013580546001600160a01b0319166001600160a01b0392909216919091179055610a9c610140820161012083016148ba565b61013680546001600160a01b0319166001600160a01b0392909216919091179055610acf610160820161014083016148ba565b61013780546001600160a01b0319166001600160a01b0392909216919091179055610afd60208201826148ba565b6001600160a01b031663313ce5676040518163ffffffff1660e01b8152600401602060405180830381865afa158015610b3a573d6000803e3d6000fd5b505050506040513d601f19601f82011682018060405250810190610b5e9190614d07565b610b6990600a614e4c565b61013855610b7d60408201602083016148ba565b6001600160a01b031663313ce5676040518163ffffffff1660e01b8152600401602060405180830381865afa158015610bba573d6000803e3d6000fd5b505050506040513d601f19601f82011682018060405250810190610bde9190614d07565b610be990600a614e4c565b61013955610bfd60608201604083016148ba565b6001600160a01b031663313ce5676040518163ffffffff1660e01b8152600401602060405180830381865afa158015610c3a573d6000803e3d6000fd5b505050506040513d601f19601f82011682018060405250810190610c5e9190614d07565b610c6990600a614e4c565b61013a556040517fea5646eb3528e525944447a4a97de700dd472298626e5c0481d1c82c3da86ea590600090a150565b6001600160a01b037f0000000000000000000000000000000000000000000000000000000000000000163003610ce15760405162461bcd60e51b81526004016107b490614c4c565b7f00000000000000000000000000000000000000000000000000000000000000006001600160a01b0316610d2a600080516020615ad5833981519152546001600160a01b031690565b6001600160a01b031614610d505760405162461bcd60e51b81526004016107b490614ca5565b610d59826119e4565b6107c7828260016119ef565b6000306001600160a01b037f00000000000000000000000000000000000000000000000000000000000000001614610daf5760405162461bcd60e51b81526004016107b490614ebb565b50600080516020615ad583398151915290565b600054610100900460ff1615808015610de25750600054600160ff909116105b80610dfc5750303b158015610dfc575060005460ff166001145b610e185760405162461bcd60e51b81526004016107b490614f16565b6000805460ff191660011790558015610e3b576000805461ff0019166101001790555b610e43611ad1565b80156108a7576000805461ff00191690556040517f7f26b83ff96e1f2b6a682f133852f6798a09c465da95921460cefb384740249890610e8590600190614f3a565b60405180910390a150565b60009182526065602090815260408084206001600160a01b0393909316845291905290205460ff1690565b600061075d6001611499565b610ed2600033610e90565b610eee5760405162461bcd60e51b81526004016107b490614ce3565b6001600160a01b038116610f145760405162461bcd60e51b81526004016107b490614f7c565b60fb54610f4b907f90c2aa7471c04182221f68e80c07ab1e5946e4c63f8693e14ca40385d529f051906001600160a01b0316611205565b610f757f90c2aa7471c04182221f68e80c07ab1e5946e4c63f8693e14ca40385d529f05182610762565b60fb80546001600160a01b0319166001600160a01b0383161790556040517ff7b449fcd5cfb7379dcd34cb69428dd9f882033b15be33d83b42d91daa28eeb790610e859083906147bc565b600061102f306001600160a01b031663a3673b386040518163ffffffff1660e01b8152600401602060405180830381865afa158015611003573d6000803e3d6000fd5b505050506040513d601f19601f820116820180604052508101906110279190614f97565b60fd54611bb6565b90506110a783846001600160a01b03166370a08231306040518263ffffffff1660e01b815260040161106191906147bc565b602060405180830381865afa15801561107e573d6000803e3d6000fd5b505050506040513d601f19601f820116820180604052508101906110a29190614f97565b611be0565b7f227a473b70d2f893cc7659219575c030a63b5743024fe1e0c1a680e708b1525a826040516110d69190614829565b60405180910390a1505050565b61110d7fd67ad422505496469a1adf6cdf9e5ee92ac5d33992843c9ecc4b2f6d6cde913733610e90565b806111a6575060fb54604051632474521560e21b81526001600160a01b03909116906391d1485490611165907fd67ad422505496469a1adf6cdf9e5ee92ac5d33992843c9ecc4b2f6d6cde9137903390600401614fb8565b602060405180830381865afa158015611182573d6000803e3d6000fd5b505050506040513d601f19601f820116820180604052508101906111a69190614fde565b6111c25760405162461bcd60e51b81526004016107b49061503e565b60fc83905560fd82905560fe8190556040517f116fbf1e97a2be629ad98abfb6c332733c8996c2dfb174dd2efe8440df381d1a906110d69085908590859061504e565b600082815260656020526040902060010154611220816118ed565b610787838361197d565b60008061123683612638565b9050801561074b577f3ac0594a85a20354f9dc74f33728416d19ce00d04a406c108cc2dcf2cecea1348160405161126d9190614829565b60405180910390a192915050565b6000806112bf306001600160a01b031663a3673b386040518163ffffffff1660e01b8152600401602060405180830381865afa158015611003573d6000803e3d6000fd5b905060008084156112e6576112d386612638565b90506112df8887612a6a565b9150611313565b6112f1888888612f83565b9150868210156113135760405162461bcd60e51b81526004016107b4906150bc565b82306001600160a01b031663a3673b386040518163ffffffff1660e01b8152600401602060405180830381865afa158015611352573d6000803e3d6000fd5b505050506040513d601f19601f820116820180604052508101906113769190614f97565b10156113945760405162461bcd60e51b81526004016107b490615100565b60405163a9059cbb60e01b81526001600160a01b0389169063a9059cbb906113c29089908690600401615110565b6020604051808303816000875af11580156113e1573d6000803e3d6000fd5b505050506040513d601f19601f820116820180604052508101906114059190614fde565b507f9045c2ac9b2026de8075f2701bbdde882cd5e830b3b1ead9a15b22f2b5b93742878360405161143792919061512b565b60405180910390a1801561147d577f3ac0594a85a20354f9dc74f33728416d19ce00d04a406c108cc2dcf2cecea134816040516114749190614829565b60405180910390a15b509150505b949350505050565b6001600160a01b03163b151590565b61012d546040516370a0823160e01b815260009182916001600160a01b03909116906370a08231906114cf9030906004016147bc565b602060405180830381865afa1580156114ec573d6000803e3d6000fd5b505050506040513d601f19601f820116820180604052508101906115109190614f97565b61012e546040516370a0823160e01b81529192506000916001600160a01b03909116906370a08231906115479030906004016147bc565b602060405180830381865afa158015611564573d6000803e3d6000fd5b505050506040513d601f19601f820116820180604052508101906115889190614f97565b61012f546040516370a0823160e01b81529192506000916001600160a01b03909116906370a08231906115bf9030906004016147bc565b602060405180830381865afa1580156115dc573d6000803e3d6000fd5b505050506040513d601f19601f820116820180604052508101906116009190614f97565b610133546040516370a0823160e01b81529192506000916001600160a01b03909116906370a08231906116379030906004016147bc565b602060405180830381865afa158015611654573d6000803e3d6000fd5b505050506040513d601f19601f820116820180604052508101906116789190614f97565b90508015611792576101325461012e5461012f5461013154604080516309047bdd60e01b8152905160009586956001600160a01b0391821695634386e63c95918316949083169391909216916309047bdd9160048083019260209291908290030181865afa1580156116ee573d6000803e3d6000fd5b505050506040513d601f19601f820116820180604052508101906117129190614fde565b876040518563ffffffff1660e01b81526004016117329493929190615139565b6040805180830381865afa15801561174e573d6000803e3d6000fd5b505050506040513d601f19601f82011682018060405250810190611772919061516e565b909250905061178182866151a1565b945061178d81856151a1565b935050505b82156118105785156117db57610139546101385461013754610136546117ca938793909290916001600160a01b0391821691166138a8565b6117d490856151a1565b9350611810565b6101325461012e5461012d54611803926001600160a01b0390811692811691166001876138ec565b61180d90856151a1565b93505b81156118e3576101325461012f5461012e5461013154604080516309047bdd60e01b815290516000956118a9956001600160a01b039182169590821694908216939116916309047bdd916004808201926020929091908290030181865afa15801561187f573d6000803e3d6000fd5b505050506040513d601f19601f820116820180604052508101906118a39190614fde565b876138ec565b6101325461012e5461012d549293506118d5926001600160a01b039283169291821691166001856138ec565b6118df90866151a1565b9450505b5091949350505050565b6108a78133613a65565b6119018282610e90565b6107c75760008281526065602090815260408083206001600160a01b03851684529091529020805460ff191660011790556119393390565b6001600160a01b0316816001600160a01b0316837f2f8788117e7eff1d82e926ec794901d17c78024a50270940304540a733656f0d60405160405180910390a45050565b6119878282610e90565b156107c75760008281526065602090815260408083206001600160a01b0385168085529252808320805460ff1916905551339285917ff6391f5c32d9c69d2a47ea670b442974b53935d1edc7fd64eb21e047a839171b9190a45050565b60006107c7816118ed565b7f4910fdfa16fed3260ed0e7147f7cc6da11a60208b5b9406d12a635614ffd91435460ff1615611a225761078783613abe565b826001600160a01b03166352d1902d6040518163ffffffff1660e01b8152600401602060405180830381865afa925050508015611a7c575060408051601f3d908101601f19168201909252611a7991810190614f97565b60015b611a985760405162461bcd60e51b81526004016107b4906151ff565b600080516020615ad58339815191528114611ac55760405162461bcd60e51b81526004016107b490615255565b50610787838383613b14565b600054610100900460ff1615808015611af15750600054600160ff909116105b80611b0b5750303b158015611b0b575060005460ff166001145b611b275760405162461bcd60e51b81526004016107b490614f16565b6000805460ff191660011790558015611b4a576000805461ff0019166101001790555b611b52613b3f565b611b5a613b3f565b611b656000336118f7565b601960fc81905560fd55600460fe5580156108a7576000805461ff00191690556040517f7f26b83ff96e1f2b6a682f133852f6798a09c465da95921460cefb384740249890610e8590600190614f3a565b6000612710611bc58382615265565b611bcf9085615278565b611bd991906152ad565b9392505050565b61012d546001600160a01b03838116911614611c0e5760405162461bcd60e51b81526004016107b4906152ec565b60008061013160009054906101000a90046001600160a01b03166001600160a01b0316630902f1ac6040518163ffffffff1660e01b8152600401606060405180830381865afa158015611c65573d6000803e3d6000fd5b505050506040513d601f19601f82011682018060405250810190611c8991906152fc565b5061012d546040516370a0823160e01b81529294509092506000916001600160a01b03909116906370a0823190611cc49030906004016147bc565b602060405180830381865afa158015611ce1573d6000803e3d6000fd5b505050506040513d601f19601f82011682018060405250810190611d059190614f97565b61013854610139546101365461013754939450600093611d37938693909290916001600160a01b0391821691166138a8565b9050611d7b6040518060400160405280601d81526020017f627573642062616c616e63653a20257320736c6970706167653a2025730000008152508360fc54613b68565b611da76040518060400160405280600a8152602001696f7261636c653a20257360b01b81525082613baf565b611de36040518060400160405280600f81526020016e6d696e696d756d206f75743a20257360881b815250611dde8360fc54611bb6565b613baf565b6101325461012d5461012e54611e0e926001600160a01b039081169281169116600186600030613bf4565b5061012e546040516370a0823160e01b81526000916001600160a01b0316906370a0823190611e419030906004016147bc565b602060405180830381865afa158015611e5e573d6000803e3d6000fd5b505050506040513d601f19601f82011682018060405250810190611e829190614f97565b6101325461012e5461012f5461013154604080516309047bdd60e01b81529051959650600095611f1e956001600160a01b039081169581169481169316916309047bdd9160048083019260209291908290030181865afa158015611eea573d6000803e3d6000fd5b505050506040513d601f19601f82011682018060405250810190611f0e9190614fde565b868a8c6101395461013a54613e28565b6101325461012e5461012f5461013154604080516309047bdd60e01b81529051959650600095611fb3956001600160a01b039081169581169481169316916309047bdd9160048083019260209291908290030181865afa158015611f86573d6000803e3d6000fd5b505050506040513d601f19601f82011682018060405250810190611faa9190614fde565b86600030613bf4565b61012f546040516370a0823160e01b81529192506000916001600160a01b03909116906370a0823190611fea9030906004016147bc565b602060405180830381865afa158015612007573d6000803e3d6000fd5b505050506040513d601f19601f8201168201806040525081019061202b9190614f97565b61012e546040516370a0823160e01b81529192506001600160a01b0316906370a082319061205d9030906004016147bc565b602060405180830381865afa15801561207a573d6000803e3d6000fd5b505050506040513d601f19601f8201168201806040525081019061209e9190614f97565b61012e546101325460405163095ea7b360e01b81529296506001600160a01b039182169263095ea7b3926120d89216908890600401615110565b6020604051808303816000875af11580156120f7573d6000803e3d6000fd5b505050506040513d601f19601f8201168201806040525081019061211b9190614fde565b5061012f546101325460405163095ea7b360e01b81526001600160a01b039283169263095ea7b392612154929116908590600401615110565b6020604051808303816000875af1158015612173573d6000803e3d6000fd5b505050506040513d601f19601f820116820180604052508101906121979190614fde565b506101325461012e5461012f5461013154604080516309047bdd60e01b8152905160009561222b956001600160a01b039182169590821694908216939116916309047bdd916004808201926020929091908290030181865afa158015612201573d6000803e3d6000fd5b505050506040513d601f19601f820116820180604052508101906122259190614fde565b896138ec565b9050818111156123dc576101325461012f5461012e5461013154604080516309047bdd60e01b815290516122c1956001600160a01b039081169581169481169316916309047bdd9160048083019260209291908290030181865afa158015612297573d6000803e3d6000fd5b505050506040513d601f19601f820116820180604052508101906122bb9190614fde565b866138ec565b6101325461012e5461012f5461013154604080516309047bdd60e01b815290519596506001600160a01b0394851695635a47ddc3959485169493841693909216916309047bdd916004808201926020929091908290030181865afa15801561232d573d6000803e3d6000fd5b505050506040513d601f19601f820116820180604052508101906123519190614fde565b858761235f8860fc54611bb6565b61236b8a60fc54611bb6565b30426040518a63ffffffff1660e01b815260040161239199989796959493929190615342565b6060604051808303816000875af11580156123b0573d6000803e3d6000fd5b505050506040513d601f19601f820116820180604052508101906123d491906152fc565b5050506124d6565b6101325461012e5461012f5461013154604080516309047bdd60e01b815290516001600160a01b0395861695635a47ddc39581169481169316916309047bdd9160048083019260209291908290030181865afa158015612440573d6000803e3d6000fd5b505050506040513d601f19601f820116820180604052508101906124649190614fde565b898760008030426040518a63ffffffff1660e01b815260040161248f999897969594939291906153dd565b6060604051808303816000875af11580156124ae573d6000803e3d6000fd5b505050506040513d601f19601f820116820180604052508101906124d291906152fc565b5050505b610131546040516370a0823160e01b81526000916001600160a01b0316906370a08231906125089030906004016147bc565b602060405180830381865afa158015612525573d6000803e3d6000fd5b505050506040513d601f19601f820116820180604052508101906125499190614f97565b610131546101335460405163095ea7b360e01b81529293506001600160a01b039182169263095ea7b3926125839216908590600401615110565b6020604051808303816000875af11580156125a2573d6000803e3d6000fd5b505050506040513d601f19601f820116820180604052508101906125c69190614fde565b506101335460405163b6b55f2560e01b81526001600160a01b039091169063b6b55f25906125f8908490600401614829565b600060405180830381600087803b15801561261257600080fd5b505af1158015612626573d6000803e3d6000fd5b50505050505050505050505050505050565b610133546040516370a0823160e01b815260009182916001600160a01b03909116906370a082319061266e9030906004016147bc565b602060405180830381865afa15801561268b573d6000803e3d6000fd5b505050506040513d601f19601f820116820180604052508101906126af9190614f97565b905080156127215761013360009054906101000a90046001600160a01b03166001600160a01b0316633d18b9126040518163ffffffff1660e01b8152600401600060405180830381600087803b15801561270857600080fd5b505af115801561271c573d6000803e3d6000fd5b505050505b610130546040516370a0823160e01b815260009182916001600160a01b03909116906370a08231906127579030906004016147bc565b602060405180830381865afa158015612774573d6000803e3d6000fd5b505050506040513d601f19601f820116820180604052508101906127989190614f97565b9050801561280c57610132546101305461012d546000926127cb926001600160a01b0391821692908216911684866138ec565b9050801561280a57610132546101305461012d546127fd926001600160a01b0390811692811691166000868130613bf4565b61280790846151a1565b92505b505b61012f546040516370a0823160e01b81526000916001600160a01b0316906370a082319061283e9030906004016147bc565b602060405180830381865afa15801561285b573d6000803e3d6000fd5b505050506040513d601f19601f8201168201806040525081019061287f9190614f97565b1115612917576101325461012f5461012e546040516370a0823160e01b8152612915936001600160a01b0390811693811692169060009083906370a08231906128cc9030906004016147bc565b602060405180830381865afa1580156128e9573d6000803e3d6000fd5b505050506040513d601f19601f8201168201806040525081019061290d9190614f97565b600030613bf4565b505b61012e546040516370a0823160e01b81526000916001600160a01b0316906370a08231906129499030906004016147bc565b602060405180830381865afa158015612966573d6000803e3d6000fd5b505050506040513d601f19601f8201168201806040525081019061298a9190614f97565b11156129e4576101325461012e5461012d546040516370a0823160e01b81526129d7936001600160a01b0390811693811692169060019083906370a08231906128cc9030906004016147bc565b6129e190836151a1565b91505b8115612a625761012d5460405163a9059cbb60e01b81526001600160a01b039091169063a9059cbb90612a1d9088908690600401615110565b6020604051808303816000875af1158015612a3c573d6000803e3d6000fd5b505050506040513d601f19601f82011682018060405250810190612a609190614fde565b505b509392505050565b61012d546000906001600160a01b03848116911614612a9b5760405162461bcd60e51b81526004016107b49061546e565b610133546040516370a0823160e01b81526000916001600160a01b0316906370a0823190612acd9030906004016147bc565b602060405180830381865afa158015612aea573d6000803e3d6000fd5b505050506040513d601f19601f82011682018060405250810190612b0e9190614f97565b61013354604051632e1a7d4d60e01b81529192506001600160a01b031690632e1a7d4d90612b40908490600401614829565b600060405180830381600087803b158015612b5a57600080fd5b505af1158015612b6e573d6000803e3d6000fd5b50506101325461012e5461012d5461013154604080516309047bdd60e01b81529051600097508796506001600160a01b0395861695634386e63c9581169481169316916309047bdd9160048083019260209291908290030181865afa158015612bdb573d6000803e3d6000fd5b505050506040513d601f19601f82011682018060405250810190612bff9190614fde565b876040518563ffffffff1660e01b8152600401612c1f9493929190615139565b6040805180830381865afa158015612c3b573d6000803e3d6000fd5b505050506040513d601f19601f82011682018060405250810190612c5f919061516e565b610131546101325460405163095ea7b360e01b81529395509193506001600160a01b039081169263095ea7b392612c9c9216908790600401615110565b6020604051808303816000875af1158015612cbb573d6000803e3d6000fd5b505050506040513d601f19601f82011682018060405250810190612cdf9190614fde565b506101325461012e5461012d5461013154604080516309047bdd60e01b815290516001600160a01b0395861695630dede6c49581169481169316916309047bdd9160048083019260209291908290030181865afa158015612d44573d6000803e3d6000fd5b505050506040513d601f19601f82011682018060405250810190612d689190614fde565b87612d758860fc54611bb6565b612d818860fc54611bb6565b30426040518963ffffffff1660e01b8152600401612da698979695949392919061547e565b60408051808303816000875af1158015612dc4573d6000803e3d6000fd5b505050506040513d601f19601f82011682018060405250810190612de8919061516e565b505061012e546040516370a0823160e01b81526000916001600160a01b0316906370a0823190612e1c9030906004016147bc565b602060405180830381865afa158015612e39573d6000803e3d6000fd5b505050506040513d601f19601f82011682018060405250810190612e5d9190614f97565b6101325461012e5461012d54929350600092612e8b926001600160a01b0390811692811691166001866138ec565b90508015612f055761013954610138546101375461013654600093612ec2938793919290916001600160a01b0390811691166138a8565b6101325461012e5461012d5460fc54939450612f02936001600160a01b039384169392831692909116906001908890612efc908890611bb6565b30613bf4565b50505b61012d546040516370a0823160e01b81526001600160a01b03909116906370a0823190612f369030906004016147bc565b602060405180830381865afa158015612f53573d6000803e3d6000fd5b505050506040513d601f19601f82011682018060405250810190612f779190614f97565b98975050505050505050565b61012d546000906001600160a01b03858116911614612fb45760405162461bcd60e51b81526004016107b49061546e565b61013154604080516318160ddd60e01b815290516000926001600160a01b0316916318160ddd9160048083019260209291908290030181865afa158015612fff573d6000803e3d6000fd5b505050506040513d601f19601f820116820180604052508101906130239190614f97565b905060008061013160009054906101000a90046001600160a01b03166001600160a01b0316630902f1ac6040518163ffffffff1660e01b8152600401606060405180830381865afa15801561307c573d6000803e3d6000fd5b505050506040513d601f19601f820116820180604052508101906130a091906152fc565b506101325461012f5461012e5461013154604080516309047bdd60e01b81529051969850949650600095613154956001600160a01b03958616959485169493841693909216916309047bdd9160048083019260209291908290030181865afa158015613110573d6000803e3d6000fd5b505050506040513d601f19601f820116820180604052508101906131349190614fde565b6131448c6509184e72a0006151a1565b89888a61013a5461013954613eb4565b610133546040516370a0823160e01b81529192506000916001600160a01b03909116906370a082319061318b9030906004016147bc565b602060405180830381865afa1580156131a8573d6000803e3d6000fd5b505050506040513d601f19601f820116820180604052508101906131cc9190614f97565b9050808211156131da578091505b61013354604051632e1a7d4d60e01b81526001600160a01b0390911690632e1a7d4d9061320b908590600401614829565b600060405180830381600087803b15801561322557600080fd5b505af1158015613239573d6000803e3d6000fd5b50506101325461012e5461012f5461013154604080516309047bdd60e01b81529051600097508796506001600160a01b0395861695634386e63c9581169481169316916309047bdd9160048083019260209291908290030181865afa1580156132a6573d6000803e3d6000fd5b505050506040513d601f19601f820116820180604052508101906132ca9190614fde565b886040518563ffffffff1660e01b81526004016132ea9493929190615139565b6040805180830381865afa158015613306573d6000803e3d6000fd5b505050506040513d601f19601f8201168201806040525081019061332a919061516e565b610131546101325460405163095ea7b360e01b81529395509193506001600160a01b039081169263095ea7b3926133679216908890600401615110565b6020604051808303816000875af1158015613386573d6000803e3d6000fd5b505050506040513d601f19601f820116820180604052508101906133aa9190614fde565b506101325461012e5461012f5461013154604080516309047bdd60e01b815290516001600160a01b0395861695630dede6c49581169481169316916309047bdd9160048083019260209291908290030181865afa15801561340f573d6000803e3d6000fd5b505050506040513d601f19601f820116820180604052508101906134339190614fde565b886134408860fc54611bb6565b61344c8860fc54611bb6565b30426040518963ffffffff1660e01b815260040161347198979695949392919061547e565b60408051808303816000875af115801561348f573d6000803e3d6000fd5b505050506040513d601f19601f820116820180604052508101906134b3919061516e565b505061012e546040516370a0823160e01b81526000916001600160a01b0316906370a08231906134e79030906004016147bc565b602060405180830381865afa158015613504573d6000803e3d6000fd5b505050506040513d601f19601f820116820180604052508101906135289190614f97565b905061354c6040518060600160405280602f8152602001615af5602f913982613baf565b6101325461012e5461012d5460fc54613580936001600160a01b039081169381169216906001908690612efc908290611bb6565b5061012f546040516370a0823160e01b81526000916001600160a01b0316906370a08231906135b39030906004016147bc565b602060405180830381865afa1580156135d0573d6000803e3d6000fd5b505050506040513d601f19601f820116820180604052508101906135f49190614f97565b9050613618604051806060016040528060308152602001615a6c6030913982613baf565b6101325461012f5461012e5461012d5461013154604080516309047bdd60e01b815290516000966136b5966001600160a01b03918216969082169590821694908216939116916309047bdd916004808201926020929091908290030181865afa158015613689573d6000803e3d6000fd5b505050506040513d601f19601f820116820180604052508101906136ad9190614fde565b600188613f6d565b90506136e4604051806060016040528060398152602001615a9c60399139836136df8460b4611bb6565b613b68565b801561378d576101325461012f5461012e5461012d5461013154604080516309047bdd60e01b8152905161378b966001600160a01b039081169681169581169481169316916309047bdd9160048083019260209291908290030181865afa158015613753573d6000803e3d6000fd5b505050506040513d601f19601f820116820180604052508101906137779190614fde565b6001886137858960b4611bb6565b3061416c565b505b604080518082018252600e81526d7377617070656420666f7220257360901b602082015261012d5491516370a0823160e01b8152613824926001600160a01b0316906370a08231906137e39030906004016147bc565b602060405180830381865afa158015613800573d6000803e3d6000fd5b505050506040513d601f19601f82011682018060405250810190611dde9190614f97565b61012d546040516370a0823160e01b81526001600160a01b03909116906370a08231906138559030906004016147bc565b602060405180830381865afa158015613872573d6000803e3d6000fd5b505050506040513d601f19601f820116820180604052508101906138969190614f97565b9e9d5050505050505050505050505050565b6000806138b4846143fe565b905060006138c1846143fe565b90506138cd8188615278565b826138d8888b615278565b6138e29190615278565b612f7791906152ad565b604080516001808252818301909252600091829190816020015b60408051606081018252600080825260208083018290529282015282526000199092019101816139065790505090508581600081518110613949576139496154e8565b6020026020010151600001906001600160a01b031690816001600160a01b0316815250508481600081518110613981576139816154e8565b6020026020010151602001906001600160a01b031690816001600160a01b03168152505083816000815181106139b9576139b96154e8565b6020908102919091010151901515604091820152516326207f2d60e21b81526001600160a01b03881690639881fcb4906139f99086908590600401615592565b600060405180830381865afa158015613a16573d6000803e3d6000fd5b505050506040513d6000823e601f3d908101601f19168201604052613a3e9190810190615655565b600181518110613a5057613a506154e8565b60200260200101519150505b95945050505050565b613a6f8282610e90565b6107c757613a7c816144d3565b613a878360206144e5565b604051602001613a989291906156d6565b60408051601f198184030181529082905262461bcd60e51b82526107b491600401615760565b6001600160a01b0381163b613ae55760405162461bcd60e51b81526004016107b4906157bb565b600080516020615ad583398151915280546001600160a01b0319166001600160a01b0392909216919091179055565b613b1d83614651565b600082511180613b2a5750805b1561078757613b398383614691565b50505050565b600054610100900460ff16613b665760405162461bcd60e51b81526004016107b490615813565b565b610787838383604051602401613b8093929190615823565b60408051601f198184030181529190526020810180516001600160e01b031663ca47c4eb60e01b17905261473d565b6107c78282604051602401613bc5929190615843565b60408051601f198184030181529190526020810180516001600160e01b0316632d839cb360e21b17905261473d565b60405163095ea7b360e01b81526000906001600160a01b0388169063095ea7b390613c25908b908890600401615110565b6020604051808303816000875af1158015613c44573d6000803e3d6000fd5b505050506040513d601f19601f82011682018060405250810190613c689190614fde565b50613ca96040518060400160405280601881526020017f7468656e61207377617020696e3a202573206f757420257300000000000000008152508585613b68565b604080516001808252818301909252600091816020015b6040805160608101825260008082526020808301829052928201528252600019909201910181613cc05790505090508781600081518110613d0357613d036154e8565b6020026020010151600001906001600160a01b031690816001600160a01b0316815250508681600081518110613d3b57613d3b6154e8565b6020026020010151602001906001600160a01b031690816001600160a01b0316815250508581600081518110613d7357613d736154e8565b602090810291909101015190151560409182015251631e82ecdb60e31b81526001600160a01b038a169063f41766d890613db99088908890869089904290600401615863565b6000604051808303816000875af1158015613dd8573d6000803e3d6000fd5b505050506040513d6000823e601f3d908101601f19168201604052613e009190810190615655565b600181518110613e1257613e126154e8565b6020026020010151915050979650505050505050565b60008383613e368488615278565b613e4091906152ad565b613e4a91906151a1565b613e548588615278565b613e5e91906152ad565b90506000613e6f8b8b8b8b866138ec565b90508482613e7d8389615278565b613e8791906152ad565b613e9191906151a1565b613e9b8689615278565b613ea591906152ad565b9b9a5050505050505050505050565b6000613ec08385615278565b613eca8387615278565b613ed491906151a1565b82613edf8989615278565b613ee99190615278565b613ef391906152ad565b9050600086613f028387615278565b613f0c91906152ad565b90506000613f1d8d8c8e8d866138ec565b9050613f298187615278565b613f338389615278565b613f3d91906151a1565b82613f488b8b615278565b613f529190615278565b613f5c91906152ad565b9d9c50505050505050505050505050565b60408051600280825260608201909252600091829190816020015b6040805160608101825260008082526020808301829052928201528252600019909201910181613f885790505090508781600081518110613fcb57613fcb6154e8565b6020026020010151600001906001600160a01b031690816001600160a01b0316815250508681600081518110614003576140036154e8565b6020026020010151602001906001600160a01b031690816001600160a01b031681525050848160008151811061403b5761403b6154e8565b602002602001015160400190151590811515815250508681600181518110614065576140656154e8565b6020026020010151600001906001600160a01b031690816001600160a01b031681525050858160018151811061409d5761409d6154e8565b6020026020010151602001906001600160a01b031690816001600160a01b03168152505083816001815181106140d5576140d56154e8565b6020908102919091010151901515604091820152516326207f2d60e21b81526001600160a01b038a1690639881fcb4906141159086908590600401615592565b600060405180830381865afa158015614132573d6000803e3d6000fd5b505050506040513d6000823e601f3d908101601f1916820160405261415a9190810190615655565b600281518110613e1257613e126154e8565b60405163095ea7b360e01b81526000906001600160a01b038a169063095ea7b39061419d908d908890600401615110565b6020604051808303816000875af11580156141bc573d6000803e3d6000fd5b505050506040513d601f19601f820116820180604052508101906141e09190614fde565b5060408051600280825260608201909252600091816020015b60408051606081018252600080825260208083018290529282015282526000199092019101816141f9579050509050898160008151811061423c5761423c6154e8565b6020026020010151600001906001600160a01b031690816001600160a01b0316815250508881600081518110614274576142746154e8565b6020026020010151602001906001600160a01b031690816001600160a01b03168152505086816000815181106142ac576142ac6154e8565b6020026020010151604001901515908115158152505088816001815181106142d6576142d66154e8565b6020026020010151600001906001600160a01b031690816001600160a01b031681525050878160018151811061430e5761430e6154e8565b6020026020010151602001906001600160a01b031690816001600160a01b0316815250508581600181518110614346576143466154e8565b602090810291909101015190151560409182015251631e82ecdb60e31b81526001600160a01b038c169063f41766d89061438c9088908890869089904290600401615863565b6000604051808303816000875af11580156143ab573d6000803e3d6000fd5b505050506040513d6000823e601f3d908101601f191682016040526143d39190810190615655565b6002815181106143e5576143e56154e8565b60200260200101519150505b9998505050505050505050565b6000806000806000856001600160a01b031663feaf968c6040518163ffffffff1660e01b815260040160a060405180830381865afa158015614444573d6000803e3d6000fd5b505050506040513d601f19601f8201168201806040525081019061446891906158d3565b9450945050935093508369ffffffffffffffffffff168169ffffffffffffffffffff1610156144a95760405162461bcd60e51b81526004016107b49061596a565b600082116144c95760405162461bcd60e51b81526004016107b4906159a3565b5090949350505050565b606061074b6001600160a01b03831660145b606060006144f4836002615278565b6144ff9060026151a1565b67ffffffffffffffff81111561451757614517614969565b6040519080825280601f01601f191660200182016040528015614541576020820181803683370190505b509050600360fc1b8160008151811061455c5761455c6154e8565b60200101906001600160f81b031916908160001a905350600f60fb1b8160018151811061458b5761458b6154e8565b60200101906001600160f81b031916908160001a90535060006145af846002615278565b6145ba9060016151a1565b90505b6001811115614632576f181899199a1a9b1b9c1cb0b131b232b360811b85600f16601081106145ee576145ee6154e8565b1a60f81b828281518110614604576146046154e8565b60200101906001600160f81b031916908160001a90535060049490941c9361462b816159b3565b90506145bd565b508315611bd95760405162461bcd60e51b81526004016107b4906159fc565b61465a81613abe565b6040516001600160a01b038216907fbc7cd75a20ee27fd9adebab32041f755214dbc6bffa90cc0225b39da2e5c2d3b90600090a250565b60606001600160a01b0383163b6146ba5760405162461bcd60e51b81526004016107b490615a4f565b600080846001600160a01b0316846040516146d59190615a5f565b600060405180830381855af49150503d8060008114614710576040519150601f19603f3d011682016040523d82523d6000602084013e614715565b606091505b5091509150613a5c8282604051806060016040528060278152602001615b246027913961475e565b80516a636f6e736f6c652e6c6f67602083016000808483855afa5050505050565b6060831561476d575081611bd9565b611bd983838151156147825781518083602001fd5b8060405162461bcd60e51b81526004016107b49190615760565b60006001600160a01b03821661074b565b6147b68161479c565b82525050565b6020810161074b82846147ad565b6001600160e01b031981165b81146108a757600080fd5b803561074b816147ca565b60006020828403121561480157614801600080fd5b600061148284846147e1565b8015156147b6565b6020810161074b828461480d565b806147b6565b6020810161074b8284614823565b806147d6565b803561074b81614837565b60006020828403121561485d5761485d600080fd5b6000611482848461483d565b6147d68161479c565b803561074b81614869565b6000806040838503121561489357614893600080fd5b600061489f858561483d565b92505060206148b085828601614872565b9150509250929050565b6000602082840312156148cf576148cf600080fd5b60006114828484614872565b600061074b6001600160a01b0383166148f2565b90565b6001600160a01b031690565b600061074b826148db565b600061074b826148fe565b6147b681614909565b6020810161074b8284614914565b6000610160828403121561494157614941600080fd5b50919050565b6000610160828403121561495d5761495d600080fd5b6000611482848461492b565b634e487b7160e01b600052604160045260246000fd5b601f19601f830116810181811067ffffffffffffffff821117156149a5576149a5614969565b6040525050565b60006149b760405190565b90506149c3828261497f565b919050565b600067ffffffffffffffff8211156149e2576149e2614969565b601f19601f83011660200192915050565b82818337506000910152565b6000614a12614a0d846149c8565b6149ac565b905082815260208101848484011115614a2d57614a2d600080fd5b612a628482856149f3565b600082601f830112614a4c57614a4c600080fd5b81356114828482602086016149ff565b60008060408385031215614a7257614a72600080fd5b6000614a7e8585614872565b925050602083013567ffffffffffffffff811115614a9e57614a9e600080fd5b6148b085828601614a38565b60008060408385031215614ac057614ac0600080fd5b6000614acc8585614872565b92505060206148b08582860161483d565b600080600060608486031215614af557614af5600080fd5b6000614b01868661483d565b9350506020614b128682870161483d565b9250506040614b238682870161483d565b9150509250925092565b8015156147d6565b803561074b81614b2d565b60008060008060808587031215614b5957614b59600080fd5b6000614b658787614872565b9450506020614b768782880161483d565b9350506040614b8787828801614872565b9250506060614b9887828801614b35565b91505092959194509250565b602f81526000602082017f416363657373436f6e74726f6c3a2063616e206f6e6c792072656e6f756e636581526e103937b632b9903337b91039b2b63360891b602082015291505b5060400190565b6020808252810161074b81614ba4565b602c81526000602082017f46756e6374696f6e206d7573742062652063616c6c6564207468726f7567682081526b19195b1959d85d1958d85b1b60a21b60208201529150614bec565b6020808252810161074b81614c03565b602c81526000602082017f46756e6374696f6e206d7573742062652063616c6c6564207468726f7567682081526b6163746976652070726f787960a01b60208201529150614bec565b6020808252810161074b81614c5c565b60148152600060208201735265737472696374656420746f2061646d696e7360601b815291505b5060200190565b6020808252810161074b81614cb5565b60ff81166147d6565b805161074b81614cf3565b600060208284031215614d1c57614d1c600080fd5b60006114828484614cfc565b634e487b7160e01b600052601160045260246000fd5b80825b6001851115614d7d57808604811115614d5c57614d5c614d28565b6001851615614d6a57908102905b8002614d768560011c90565b9450614d41565b94509492505050565b600082614d9557506001611bd9565b81614da257506000611bd9565b8160018114614db85760028114614dc257614def565b6001915050611bd9565b60ff841115614dd357614dd3614d28565b8360020a915084821115614de957614de9614d28565b50611bd9565b5060208310610133831016604e8410600b8410161715614e22575081810a83811115614e1d57614e1d614d28565b611bd9565b614e2f8484846001614d3e565b92509050818404811115614e4557614e45614d28565b0292915050565b600060ff83169250611bd96000198484614d86565b603881526000602082017f555550535570677261646561626c653a206d757374206e6f742062652063616c81527f6c6564207468726f7567682064656c656761746563616c6c000000000000000060208201529150614bec565b6020808252810161074b81614e61565b602e81526000602082017f496e697469616c697a61626c653a20636f6e747261637420697320616c72656181526d191e481a5b9a5d1a585b1a5e995960921b60208201529150614bec565b6020808252810161074b81614ecb565b600060ff821661074b565b6147b681614f26565b6020810161074b8284614f31565b601881526000602082017f5a65726f2061646472657373206e6f7420616c6c6f776564000000000000000081529150614cdc565b6020808252810161074b81614f48565b805161074b81614837565b600060208284031215614fac57614fac600080fd5b60006114828484614f8c565b60408101614fc68285614823565b611bd960208301846147ad565b805161074b81614b2d565b600060208284031215614ff357614ff3600080fd5b60006114828484614fd3565b602281526000602082017f5265737472696374656420746f20504f5254464f4c494f5f4147454e545f524f8152614c4560f01b60208201529150614bec565b6020808252810161074b81614fff565b6060810161505c8286614823565b6150696020830185614823565b6114826040830184614823565b602981526000602082017f52657475726e65642076616c7565206c657373207468616e2072657175657374815268195908185b5bdd5b9d60ba1b60208201529150614bec565b6020808252810161074b81615076565b601f81526000602082017f5374726174656779204e4156206c657373207468616e2065787065637465640081529150614cdc565b6020808252810161074b816150cc565b6040810161511e82856147ad565b611bd96020830184614823565b6040810161511e8285614823565b6080810161514782876147ad565b61515460208301866147ad565b615161604083018561480d565b613a5c6060830184614823565b6000806040838503121561518457615184600080fd5b60006151908585614f8c565b92505060206148b085828601614f8c565b8082018082111561074b5761074b614d28565b602e81526000602082017f45524331393637557067726164653a206e657720696d706c656d656e7461746981526d6f6e206973206e6f74205555505360901b60208201529150614bec565b6020808252810161074b816151b4565b602981526000602082017f45524331393637557067726164653a20756e737570706f727465642070726f788152681a58589b195555525160ba1b60208201529150614bec565b6020808252810161074b8161520f565b8181038181111561074b5761074b614d28565b81810280821583820485141761529057615290614d28565b5092915050565b634e487b7160e01b600052601260045260246000fd5b6000826152bc576152bc615297565b500490565b60148152600060208201732737b716b1b7b6b830ba34b13632903a37b5b2b760611b81529150614cdc565b6020808252810161074b816152c1565b60008060006060848603121561531457615314600080fd5b60006153208686614f8c565b935050602061533186828701614f8c565b9250506040614b2386828701614f8c565b6101208101615351828c6147ad565b61535e602083018b6147ad565b61536b604083018a61480d565b6153786060830189614823565b6153856080830188614823565b61539260a0830187614823565b61539f60c0830186614823565b6153ac60e08301856147ad565b6153ba610100830184614823565b9a9950505050505050505050565b600061074b6148ef8381565b6147b6816153c8565b61012081016153ec828c6147ad565b6153f9602083018b6147ad565b615406604083018a61480d565b6154136060830189614823565b6154206080830188614823565b61542d60a08301876153d4565b61539f60c08301866153d4565b601981526000602082017f536f6d6520746f6b656e206e6f7420636f6d70617469626c650000000000000081529150614cdc565b6020808252810161074b8161543a565b610100810161548d828b6147ad565b61549a602083018a6147ad565b6154a7604083018961480d565b6154b46060830188614823565b6154c16080830187614823565b6154ce60a0830186614823565b6154db60c08301856147ad565b6143f160e0830184614823565b634e487b7160e01b600052603260045260246000fd5b8051606083019061550f84826147ad565b50602082015161552260208501826147ad565b506040820151613b39604085018261480d565b600061554183836154fe565b505060600190565b6000615553825190565b80845260209384019383018060005b838110156155875781516155768882615535565b975060208301925050600101615562565b509495945050505050565b604081016155a08285614823565b81810360208301526114828184615549565b600067ffffffffffffffff8211156155cc576155cc614969565b5060209081020190565b60006155e4614a0d846155b2565b8381529050602080820190840283018581111561560357615603600080fd5b835b8181101561562757806156188882614f8c565b84525060209283019201615605565b5050509392505050565b600082601f83011261564557615645600080fd5b81516114828482602086016155d6565b60006020828403121561566a5761566a600080fd5b815167ffffffffffffffff81111561568457615684600080fd5b61148284828501615631565b60005b838110156156ab578181015183820152602001615693565b50506000910152565b60006156be825190565b6156cc818560208601615690565b9290920192915050565b7f416363657373436f6e74726f6c3a206163636f756e74200000000000000000008152601701600061570882856156b4565b7001034b99036b4b9b9b4b733903937b6329607d1b8152601101915061148282846156b4565b6000615738825190565b80845260208401935061574f818560208601615690565b601f01601f19169290920192915050565b60208082528101611bd9818461572e565b602d81526000602082017f455243313936373a206e657720696d706c656d656e746174696f6e206973206e81526c1bdd08184818dbdb9d1c9858dd609a1b60208201529150614bec565b6020808252810161074b81615771565b602b81526000602082017f496e697469616c697a61626c653a20636f6e7472616374206973206e6f74206981526a6e697469616c697a696e6760a81b60208201529150614bec565b6020808252810161074b816157cb565b60608082528101615834818661572e565b90506150696020830185614823565b60408082528101615854818561572e565b9050611bd96020830184614823565b60a081016158718288614823565b61587e6020830187614823565b81810360408301526158908186615549565b905061589f60608301856147ad565b6158ac6080830184614823565b9695505050505050565b69ffffffffffffffffffff81166147d6565b805161074b816158b6565b600080600080600060a086880312156158ee576158ee600080fd5b60006158fa88886158c8565b955050602061590b88828901614f8c565b945050604061591c88828901614f8c565b935050606061592d88828901614f8c565b925050608061593e888289016158c8565b9150509295509295909350565b60088152600060208201674f6c64206461746160c01b81529150614cdc565b6020808252810161074b8161594b565b6012815260006020820171526f756e64206e6f7420636f6d706c65746560701b81529150614cdc565b6020808252810161074b8161597a565b6000816159c2576159c2614d28565b506000190190565b60208082527f537472696e67733a20686578206c656e67746820696e73756666696369656e7491019081526000614cdc565b6020808252810161074b816159ca565b602681526000602082017f416464726573733a2064656c65676174652063616c6c20746f206e6f6e2d636f8152651b9d1c9858dd60d21b60208201529150614bec565b6020808252810161074b81615a0c565b6000611bd982846156b456fe6c69717569646974792072656d6f7665642077557364722e202042616c616e6365206f66207755736472206973202573747279696e6720746f207377617020666f7220627573642e20207377617070696e6720257320666f722061206d696e696d756d206f66202573360894a13ba1a3210667c828492db98dca3e2076cc3735a920a3ca505d382bbc6c69717569646974792072656d6f7665642077557364722e202042616c616e6365206f662075736463206973202573416464726573733a206c6f772d6c6576656c2064656c65676174652063616c6c206661696c6564a26469706673582212200a908460b290002b23de2475f8251a3a5c3c8ced27d26cb6b70a3cfe64e711c864736f6c63430008110033",
  "implementation": "0xc0d9ab42e6CC8d441775FBD5187235E619Dc65eD",
  "devdoc": {
    "kind": "dev",
    "methods": {
      "constructor": {
        "custom:oz-upgrades-unsafe-allow": "constructor"
      },
      "getRoleAdmin(bytes32)": {
        "details": "Returns the admin role that controls `role`. See {grantRole} and {revokeRole}. To change a role's admin, use {_setRoleAdmin}."
      },
      "grantRole(bytes32,address)": {
        "details": "Grants `role` to `account`. If `account` had not been already granted `role`, emits a {RoleGranted} event. Requirements: - the caller must have ``role``'s admin role. May emit a {RoleGranted} event."
      },
      "hasRole(bytes32,address)": {
        "details": "Returns `true` if `account` has been granted `role`."
      },
      "proxiableUUID()": {
        "details": "Implementation of the ERC1822 {proxiableUUID} function. This returns the storage slot used by the implementation. It is used to validate the implementation's compatibility when performing an upgrade. IMPORTANT: A proxy pointing at a proxiable contract should not be considered proxiable itself, because this risks bricking a proxy that upgrades to it, by delegating to itself until out of gas. Thus it is critical that this function revert if invoked through a proxy. This is guaranteed by the `notDelegated` modifier."
      },
      "renounceRole(bytes32,address)": {
        "details": "Revokes `role` from the calling account. Roles are often managed via {grantRole} and {revokeRole}: this function's purpose is to provide a mechanism for accounts to lose their privileges if they are compromised (such as when a trusted device is misplaced). If the calling account had been revoked `role`, emits a {RoleRevoked} event. Requirements: - the caller must be `account`. May emit a {RoleRevoked} event."
      },
      "revokeRole(bytes32,address)": {
        "details": "Revokes `role` from `account`. If `account` had been granted `role`, emits a {RoleRevoked} event. Requirements: - the caller must have ``role``'s admin role. May emit a {RoleRevoked} event."
      },
      "supportsInterface(bytes4)": {
        "details": "See {IERC165-supportsInterface}."
      },
      "upgradeTo(address)": {
        "details": "Upgrade the implementation of the proxy to `newImplementation`. Calls {_authorizeUpgrade}. Emits an {Upgraded} event."
      },
      "upgradeToAndCall(address,bytes)": {
        "details": "Upgrade the implementation of the proxy to `newImplementation`, and subsequently execute the function call encoded in `data`. Calls {_authorizeUpgrade}. Emits an {Upgraded} event."
      }
    },
    "version": 1
  },
  "userdoc": {
    "kind": "user",
    "methods": {},
    "version": 1
  },
  "storageLayout": {
    "storage": [
      {
        "astId": 804,
        "contract": "contracts/strategies/StrategyThenawUsdrUsdc.sol:StrategyThenawUsdrUsdc",
        "label": "_initialized",
        "offset": 0,
        "slot": "0",
        "type": "t_uint8"
      },
      {
        "astId": 807,
        "contract": "contracts/strategies/StrategyThenawUsdrUsdc.sol:StrategyThenawUsdrUsdc",
        "label": "_initializing",
        "offset": 1,
        "slot": "0",
        "type": "t_bool"
      },
      {
        "astId": 1427,
        "contract": "contracts/strategies/StrategyThenawUsdrUsdc.sol:StrategyThenawUsdrUsdc",
        "label": "__gap",
        "offset": 0,
        "slot": "1",
        "type": "t_array(t_uint256)50_storage"
      },
      {
        "astId": 1706,
        "contract": "contracts/strategies/StrategyThenawUsdrUsdc.sol:StrategyThenawUsdrUsdc",
        "label": "__gap",
        "offset": 0,
        "slot": "51",
        "type": "t_array(t_uint256)50_storage"
      },
      {
        "astId": 39,
        "contract": "contracts/strategies/StrategyThenawUsdrUsdc.sol:StrategyThenawUsdrUsdc",
        "label": "_roles",
        "offset": 0,
        "slot": "101",
        "type": "t_mapping(t_bytes32,t_struct(RoleData)34_storage)"
      },
      {
        "astId": 334,
        "contract": "contracts/strategies/StrategyThenawUsdrUsdc.sol:StrategyThenawUsdrUsdc",
        "label": "__gap",
        "offset": 0,
        "slot": "102",
        "type": "t_array(t_uint256)49_storage"
      },
      {
        "astId": 786,
        "contract": "contracts/strategies/StrategyThenawUsdrUsdc.sol:StrategyThenawUsdrUsdc",
        "label": "__gap",
        "offset": 0,
        "slot": "151",
        "type": "t_array(t_uint256)50_storage"
      },
      {
        "astId": 1101,
        "contract": "contracts/strategies/StrategyThenawUsdrUsdc.sol:StrategyThenawUsdrUsdc",
        "label": "__gap",
        "offset": 0,
        "slot": "201",
        "type": "t_array(t_uint256)50_storage"
      },
      {
        "astId": 2717,
        "contract": "contracts/strategies/StrategyThenawUsdrUsdc.sol:StrategyThenawUsdrUsdc",
        "label": "portfolioManager",
        "offset": 0,
        "slot": "251",
        "type": "t_address"
      },
      {
        "astId": 2719,
        "contract": "contracts/strategies/StrategyThenawUsdrUsdc.sol:StrategyThenawUsdrUsdc",
        "label": "swapSlippageBP",
        "offset": 0,
        "slot": "252",
        "type": "t_uint256"
      },
      {
        "astId": 2721,
        "contract": "contracts/strategies/StrategyThenawUsdrUsdc.sol:StrategyThenawUsdrUsdc",
        "label": "navSlippageBP",
        "offset": 0,
        "slot": "253",
        "type": "t_uint256"
      },
      {
        "astId": 2723,
        "contract": "contracts/strategies/StrategyThenawUsdrUsdc.sol:StrategyThenawUsdrUsdc",
        "label": "stakeSlippageBP",
        "offset": 0,
        "slot": "254",
        "type": "t_uint256"
      },
      {
        "astId": 3093,
        "contract": "contracts/strategies/StrategyThenawUsdrUsdc.sol:StrategyThenawUsdrUsdc",
        "label": "__gap",
        "offset": 0,
        "slot": "255",
        "type": "t_array(t_uint256)46_storage"
      },
      {
        "astId": 4966,
        "contract": "contracts/strategies/StrategyThenawUsdrUsdc.sol:StrategyThenawUsdrUsdc",
        "label": "busd",
        "offset": 0,
        "slot": "301",
        "type": "t_contract(IERC20)2662"
      },
      {
        "astId": 4969,
        "contract": "contracts/strategies/StrategyThenawUsdrUsdc.sol:StrategyThenawUsdrUsdc",
        "label": "usdc",
        "offset": 0,
        "slot": "302",
        "type": "t_contract(IERC20)2662"
      },
      {
        "astId": 4972,
        "contract": "contracts/strategies/StrategyThenawUsdrUsdc.sol:StrategyThenawUsdrUsdc",
        "label": "wUsdr",
        "offset": 0,
        "slot": "303",
        "type": "t_contract(IERC20)2662"
      },
      {
        "astId": 4975,
        "contract": "contracts/strategies/StrategyThenawUsdrUsdc.sol:StrategyThenawUsdrUsdc",
        "label": "the",
        "offset": 0,
        "slot": "304",
        "type": "t_contract(IERC20)2662"
      },
      {
        "astId": 4978,
        "contract": "contracts/strategies/StrategyThenawUsdrUsdc.sol:StrategyThenawUsdrUsdc",
        "label": "pair",
        "offset": 0,
        "slot": "305",
        "type": "t_contract(IPair)3689"
      },
      {
        "astId": 4981,
        "contract": "contracts/strategies/StrategyThenawUsdrUsdc.sol:StrategyThenawUsdrUsdc",
        "label": "router",
        "offset": 0,
        "slot": "306",
        "type": "t_contract(IRouter)4039"
      },
      {
        "astId": 4984,
        "contract": "contracts/strategies/StrategyThenawUsdrUsdc.sol:StrategyThenawUsdrUsdc",
        "label": "gauge",
        "offset": 0,
        "slot": "307",
        "type": "t_contract(IGaugeV2)4226"
      },
      {
        "astId": 4986,
        "contract": "contracts/strategies/StrategyThenawUsdrUsdc.sol:StrategyThenawUsdrUsdc",
        "label": "wombatPool",
        "offset": 0,
        "slot": "308",
        "type": "t_address"
      },
      {
        "astId": 4988,
        "contract": "contracts/strategies/StrategyThenawUsdrUsdc.sol:StrategyThenawUsdrUsdc",
        "label": "wombatRouter",
        "offset": 0,
        "slot": "309",
        "type": "t_address"
      },
      {
        "astId": 4991,
        "contract": "contracts/strategies/StrategyThenawUsdrUsdc.sol:StrategyThenawUsdrUsdc",
        "label": "oracleBusd",
        "offset": 0,
        "slot": "310",
        "type": "t_contract(IPriceFeed)3169"
      },
      {
        "astId": 4994,
        "contract": "contracts/strategies/StrategyThenawUsdrUsdc.sol:StrategyThenawUsdrUsdc",
        "label": "oracleUsdc",
        "offset": 0,
        "slot": "311",
        "type": "t_contract(IPriceFeed)3169"
      },
      {
        "astId": 4996,
        "contract": "contracts/strategies/StrategyThenawUsdrUsdc.sol:StrategyThenawUsdrUsdc",
        "label": "busdDm",
        "offset": 0,
        "slot": "312",
        "type": "t_uint256"
      },
      {
        "astId": 4998,
        "contract": "contracts/strategies/StrategyThenawUsdrUsdc.sol:StrategyThenawUsdrUsdc",
        "label": "usdcDm",
        "offset": 0,
        "slot": "313",
        "type": "t_uint256"
      },
      {
        "astId": 5000,
        "contract": "contracts/strategies/StrategyThenawUsdrUsdc.sol:StrategyThenawUsdrUsdc",
        "label": "wUsdrDm",
        "offset": 0,
        "slot": "314",
        "type": "t_uint256"
      }
    ],
    "types": {
      "t_address": {
        "encoding": "inplace",
        "label": "address",
        "numberOfBytes": "20"
      },
      "t_array(t_uint256)46_storage": {
        "base": "t_uint256",
        "encoding": "inplace",
        "label": "uint256[46]",
        "numberOfBytes": "1472"
      },
      "t_array(t_uint256)49_storage": {
        "base": "t_uint256",
        "encoding": "inplace",
        "label": "uint256[49]",
        "numberOfBytes": "1568"
      },
      "t_array(t_uint256)50_storage": {
        "base": "t_uint256",
        "encoding": "inplace",
        "label": "uint256[50]",
        "numberOfBytes": "1600"
      },
      "t_bool": {
        "encoding": "inplace",
        "label": "bool",
        "numberOfBytes": "1"
      },
      "t_bytes32": {
        "encoding": "inplace",
        "label": "bytes32",
        "numberOfBytes": "32"
      },
      "t_contract(IERC20)2662": {
        "encoding": "inplace",
        "label": "contract IERC20",
        "numberOfBytes": "20"
      },
      "t_contract(IGaugeV2)4226": {
        "encoding": "inplace",
        "label": "contract IGaugeV2",
        "numberOfBytes": "20"
      },
      "t_contract(IPair)3689": {
        "encoding": "inplace",
        "label": "contract IPair",
        "numberOfBytes": "20"
      },
      "t_contract(IPriceFeed)3169": {
        "encoding": "inplace",
        "label": "contract IPriceFeed",
        "numberOfBytes": "20"
      },
      "t_contract(IRouter)4039": {
        "encoding": "inplace",
        "label": "contract IRouter",
        "numberOfBytes": "20"
      },
      "t_mapping(t_address,t_bool)": {
        "encoding": "mapping",
        "key": "t_address",
        "label": "mapping(address => bool)",
        "numberOfBytes": "32",
        "value": "t_bool"
      },
      "t_mapping(t_bytes32,t_struct(RoleData)34_storage)": {
        "encoding": "mapping",
        "key": "t_bytes32",
        "label": "mapping(bytes32 => struct AccessControlUpgradeable.RoleData)",
        "numberOfBytes": "32",
        "value": "t_struct(RoleData)34_storage"
      },
      "t_struct(RoleData)34_storage": {
        "encoding": "inplace",
        "label": "struct AccessControlUpgradeable.RoleData",
        "members": [
          {
            "astId": 31,
            "contract": "contracts/strategies/StrategyThenawUsdrUsdc.sol:StrategyThenawUsdrUsdc",
            "label": "members",
            "offset": 0,
            "slot": "0",
            "type": "t_mapping(t_address,t_bool)"
          },
          {
            "astId": 33,
            "contract": "contracts/strategies/StrategyThenawUsdrUsdc.sol:StrategyThenawUsdrUsdc",
            "label": "adminRole",
            "offset": 0,
            "slot": "1",
            "type": "t_bytes32"
          }
        ],
        "numberOfBytes": "64"
      },
      "t_uint256": {
        "encoding": "inplace",
        "label": "uint256",
        "numberOfBytes": "32"
      },
      "t_uint8": {
        "encoding": "inplace",
        "label": "uint8",
        "numberOfBytes": "1"
      }
    }
  }
}