{
  "address": "0xc0d9ab42e6CC8d441775FBD5187235E619Dc65eD",
  "abi": [
    {
      "inputs": [],
      "stateMutability": "nonpayable",
      "type": "constructor"
    },
    {
      "anonymous": false,
      "inputs": [
        {
          "indexed": false,
          "internalType": "address",
          "name": "previousAdmin",
          "type": "address"
        },
        {
          "indexed": false,
          "internalType": "address",
          "name": "newAdmin",
          "type": "address"
        }
      ],
      "name": "AdminChanged",
      "type": "event"
    },
    {
      "anonymous": false,
      "inputs": [
        {
          "indexed": true,
          "internalType": "address",
          "name": "beacon",
          "type": "address"
        }
      ],
      "name": "BeaconUpgraded",
      "type": "event"
    },
    {
      "anonymous": false,
      "inputs": [
        {
          "indexed": false,
          "internalType": "uint8",
          "name": "version",
          "type": "uint8"
        }
      ],
      "name": "Initialized",
      "type": "event"
    },
    {
      "anonymous": false,
      "inputs": [
        {
          "indexed": false,
          "internalType": "address",
          "name": "value",
          "type": "address"
        }
      ],
      "name": "PortfolioManagerUpdated",
      "type": "event"
    },
    {
      "anonymous": false,
      "inputs": [
        {
          "indexed": false,
          "internalType": "uint256",
          "name": "amount",
          "type": "uint256"
        }
      ],
      "name": "Reward",
      "type": "event"
    },
    {
      "anonymous": false,
      "inputs": [
        {
          "indexed": true,
          "internalType": "bytes32",
          "name": "role",
          "type": "bytes32"
        },
        {
          "indexed": true,
          "internalType": "bytes32",
          "name": "previousAdminRole",
          "type": "bytes32"
        },
        {
          "indexed": true,
          "internalType": "bytes32",
          "name": "newAdminRole",
          "type": "bytes32"
        }
      ],
      "name": "RoleAdminChanged",
      "type": "event"
    },
    {
      "anonymous": false,
      "inputs": [
        {
          "indexed": true,
          "internalType": "bytes32",
          "name": "role",
          "type": "bytes32"
        },
        {
          "indexed": true,
          "internalType": "address",
          "name": "account",
          "type": "address"
        },
        {
          "indexed": true,
          "internalType": "address",
          "name": "sender",
          "type": "address"
        }
      ],
      "name": "RoleGranted",
      "type": "event"
    },
    {
      "anonymous": false,
      "inputs": [
        {
          "indexed": true,
          "internalType": "bytes32",
          "name": "role",
          "type": "bytes32"
        },
        {
          "indexed": true,
          "internalType": "address",
          "name": "account",
          "type": "address"
        },
        {
          "indexed": true,
          "internalType": "address",
          "name": "sender",
          "type": "address"
        }
      ],
      "name": "RoleRevoked",
      "type": "event"
    },
    {
      "anonymous": false,
      "inputs": [
        {
          "indexed": false,
          "internalType": "uint256",
          "name": "swapSlippageBP",
          "type": "uint256"
        },
        {
          "indexed": false,
          "internalType": "uint256",
          "name": "navSlippageBP",
          "type": "uint256"
        },
        {
          "indexed": false,
          "internalType": "uint256",
          "name": "stakeSlippageBP",
          "type": "uint256"
        }
      ],
      "name": "SlippagesUpdated",
      "type": "event"
    },
    {
      "anonymous": false,
      "inputs": [
        {
          "indexed": false,
          "internalType": "uint256",
          "name": "amount",
          "type": "uint256"
        }
      ],
      "name": "Stake",
      "type": "event"
    },
    {
      "anonymous": false,
      "inputs": [],
      "name": "StrategyUpdatedParams",
      "type": "event"
    },
    {
      "anonymous": false,
      "inputs": [
        {
          "indexed": false,
          "internalType": "uint256",
          "name": "amount",
          "type": "uint256"
        },
        {
          "indexed": false,
          "internalType": "uint256",
          "name": "amountReceived",
          "type": "uint256"
        }
      ],
      "name": "Unstake",
      "type": "event"
    },
    {
      "anonymous": false,
      "inputs": [
        {
          "indexed": true,
          "internalType": "address",
          "name": "implementation",
          "type": "address"
        }
      ],
      "name": "Upgraded",
      "type": "event"
    },
    {
      "inputs": [],
      "name": "DEFAULT_ADMIN_ROLE",
      "outputs": [
        {
          "internalType": "bytes32",
          "name": "",
          "type": "bytes32"
        }
      ],
      "stateMutability": "view",
      "type": "function"
    },
    {
      "inputs": [],
      "name": "PORTFOLIO_AGENT_ROLE",
      "outputs": [
        {
          "internalType": "bytes32",
          "name": "",
          "type": "bytes32"
        }
      ],
      "stateMutability": "view",
      "type": "function"
    },
    {
      "inputs": [],
      "name": "PORTFOLIO_MANAGER",
      "outputs": [
        {
          "internalType": "bytes32",
          "name": "",
          "type": "bytes32"
        }
      ],
      "stateMutability": "view",
      "type": "function"
    },
    {
      "inputs": [
        {
          "internalType": "address",
          "name": "_to",
          "type": "address"
        }
      ],
      "name": "claimRewards",
      "outputs": [
        {
          "internalType": "uint256",
          "name": "",
          "type": "uint256"
        }
      ],
      "stateMutability": "nonpayable",
      "type": "function"
    },
    {
      "inputs": [
        {
          "internalType": "bytes32",
          "name": "role",
          "type": "bytes32"
        }
      ],
      "name": "getRoleAdmin",
      "outputs": [
        {
          "internalType": "bytes32",
          "name": "",
          "type": "bytes32"
        }
      ],
      "stateMutability": "view",
      "type": "function"
    },
    {
      "inputs": [
        {
          "internalType": "bytes32",
          "name": "role",
          "type": "bytes32"
        },
        {
          "internalType": "address",
          "name": "account",
          "type": "address"
        }
      ],
      "name": "grantRole",
      "outputs": [],
      "stateMutability": "nonpayable",
      "type": "function"
    },
    {
      "inputs": [
        {
          "internalType": "bytes32",
          "name": "role",
          "type": "bytes32"
        },
        {
          "internalType": "address",
          "name": "account",
          "type": "address"
        }
      ],
      "name": "hasRole",
      "outputs": [
        {
          "internalType": "bool",
          "name": "",
          "type": "bool"
        }
      ],
      "stateMutability": "view",
      "type": "function"
    },
    {
      "inputs": [],
      "name": "initialize",
      "outputs": [],
      "stateMutability": "nonpayable",
      "type": "function"
    },
    {
      "inputs": [],
      "name": "liquidationValue",
      "outputs": [
        {
          "internalType": "uint256",
          "name": "",
          "type": "uint256"
        }
      ],
      "stateMutability": "view",
      "type": "function"
    },
    {
      "inputs": [],
      "name": "lpUsdt",
      "outputs": [
        {
          "internalType": "contract IAsset",
          "name": "",
          "type": "address"
        }
      ],
      "stateMutability": "view",
      "type": "function"
    },
    {
      "inputs": [],
      "name": "lpUsdtDm",
      "outputs": [
        {
          "internalType": "uint256",
          "name": "",
          "type": "uint256"
        }
      ],
      "stateMutability": "view",
      "type": "function"
    },
    {
      "inputs": [],
      "name": "navSlippageBP",
      "outputs": [
        {
          "internalType": "uint256",
          "name": "",
          "type": "uint256"
        }
      ],
      "stateMutability": "view",
      "type": "function"
    },
    {
      "inputs": [],
      "name": "netAssetValue",
      "outputs": [
        {
          "internalType": "uint256",
          "name": "",
          "type": "uint256"
        }
      ],
      "stateMutability": "view",
      "type": "function"
    },
    {
      "inputs": [],
      "name": "oracleBusd",
      "outputs": [
        {
          "internalType": "contract IPriceFeed",
          "name": "",
          "type": "address"
        }
      ],
      "stateMutability": "view",
      "type": "function"
    },
    {
      "inputs": [],
      "name": "oracleUsdt",
      "outputs": [
        {
          "internalType": "contract IPriceFeed",
          "name": "",
          "type": "address"
        }
      ],
      "stateMutability": "view",
      "type": "function"
    },
    {
      "inputs": [],
      "name": "pancakeRouter",
      "outputs": [
        {
          "internalType": "contract IPancakeRouter02",
          "name": "",
          "type": "address"
        }
      ],
      "stateMutability": "view",
      "type": "function"
    },
    {
      "inputs": [],
      "name": "pool",
      "outputs": [
        {
          "internalType": "contract IPool",
          "name": "",
          "type": "address"
        }
      ],
      "stateMutability": "view",
      "type": "function"
    },
    {
      "inputs": [],
      "name": "poolDepositor",
      "outputs": [
        {
          "internalType": "contract IPoolDepositor",
          "name": "",
          "type": "address"
        }
      ],
      "stateMutability": "view",
      "type": "function"
    },
    {
      "inputs": [],
      "name": "portfolioManager",
      "outputs": [
        {
          "internalType": "address",
          "name": "",
          "type": "address"
        }
      ],
      "stateMutability": "view",
      "type": "function"
    },
    {
      "inputs": [],
      "name": "proxiableUUID",
      "outputs": [
        {
          "internalType": "bytes32",
          "name": "",
          "type": "bytes32"
        }
      ],
      "stateMutability": "view",
      "type": "function"
    },
    {
      "inputs": [
        {
          "internalType": "bytes32",
          "name": "role",
          "type": "bytes32"
        },
        {
          "internalType": "address",
          "name": "account",
          "type": "address"
        }
      ],
      "name": "renounceRole",
      "outputs": [],
      "stateMutability": "nonpayable",
      "type": "function"
    },
    {
      "inputs": [
        {
          "internalType": "bytes32",
          "name": "role",
          "type": "bytes32"
        },
        {
          "internalType": "address",
          "name": "account",
          "type": "address"
        }
      ],
      "name": "revokeRole",
      "outputs": [],
      "stateMutability": "nonpayable",
      "type": "function"
    },
    {
      "inputs": [
        {
          "components": [
            {
              "internalType": "address",
              "name": "usdt",
              "type": "address"
            },
            {
              "internalType": "address",
              "name": "wom",
              "type": "address"
            },
            {
              "internalType": "address",
              "name": "wmx",
              "type": "address"
            },
            {
              "internalType": "address",
              "name": "lpUsdt",
              "type": "address"
            },
            {
              "internalType": "address",
              "name": "wmxLpUsdt",
              "type": "address"
            },
            {
              "internalType": "address",
              "name": "poolDepositor",
              "type": "address"
            },
            {
              "internalType": "address",
              "name": "pool",
              "type": "address"
            },
            {
              "internalType": "address",
              "name": "pancakeRouter",
              "type": "address"
            },
            {
              "internalType": "address",
              "name": "wombatRouter",
              "type": "address"
            },
            {
              "internalType": "address",
              "name": "oracleUsdt",
              "type": "address"
            }
          ],
          "internalType": "struct StrategyWombexUsdt.StrategyParams",
          "name": "params",
          "type": "tuple"
        }
      ],
      "name": "setParams",
      "outputs": [],
      "stateMutability": "nonpayable",
      "type": "function"
    },
    {
      "inputs": [
        {
          "internalType": "address",
          "name": "_value",
          "type": "address"
        }
      ],
      "name": "setPortfolioManager",
      "outputs": [],
      "stateMutability": "nonpayable",
      "type": "function"
    },
    {
      "inputs": [
        {
          "internalType": "uint256",
          "name": "_swapSlippageBP",
          "type": "uint256"
        },
        {
          "internalType": "uint256",
          "name": "_navSlippageBP",
          "type": "uint256"
        },
        {
          "internalType": "uint256",
          "name": "_stakeSlippageBP",
          "type": "uint256"
        }
      ],
      "name": "setSlippages",
      "outputs": [],
      "stateMutability": "nonpayable",
      "type": "function"
    },
    {
      "inputs": [
        {
          "internalType": "address",
          "name": "_asset",
          "type": "address"
        },
        {
          "internalType": "uint256",
          "name": "_amount",
          "type": "uint256"
        }
      ],
      "name": "stake",
      "outputs": [],
      "stateMutability": "nonpayable",
      "type": "function"
    },
    {
      "inputs": [],
      "name": "stakeSlippageBP",
      "outputs": [
        {
          "internalType": "uint256",
          "name": "",
          "type": "uint256"
        }
      ],
      "stateMutability": "view",
      "type": "function"
    },
    {
      "inputs": [
        {
          "internalType": "bytes4",
          "name": "interfaceId",
          "type": "bytes4"
        }
      ],
      "name": "supportsInterface",
      "outputs": [
        {
          "internalType": "bool",
          "name": "",
          "type": "bool"
        }
      ],
      "stateMutability": "view",
      "type": "function"
    },
    {
      "inputs": [],
      "name": "swapSlippageBP",
      "outputs": [
        {
          "internalType": "uint256",
          "name": "",
          "type": "uint256"
        }
      ],
      "stateMutability": "view",
      "type": "function"
    },
    {
      "inputs": [
        {
          "internalType": "address",
          "name": "_asset",
          "type": "address"
        },
        {
          "internalType": "uint256",
          "name": "_amount",
          "type": "uint256"
        },
        {
          "internalType": "address",
          "name": "_beneficiary",
          "type": "address"
        },
        {
          "internalType": "bool",
          "name": "_targetIsZero",
          "type": "bool"
        }
      ],
      "name": "unstake",
      "outputs": [
        {
          "internalType": "uint256",
          "name": "",
          "type": "uint256"
        }
      ],
      "stateMutability": "nonpayable",
      "type": "function"
    },
    {
      "inputs": [
        {
          "internalType": "address",
          "name": "newImplementation",
          "type": "address"
        }
      ],
      "name": "upgradeTo",
      "outputs": [],
      "stateMutability": "nonpayable",
      "type": "function"
    },
    {
      "inputs": [
        {
          "internalType": "address",
          "name": "newImplementation",
          "type": "address"
        },
        {
          "internalType": "bytes",
          "name": "data",
          "type": "bytes"
        }
      ],
      "name": "upgradeToAndCall",
      "outputs": [],
      "stateMutability": "payable",
      "type": "function"
    },
    {
      "inputs": [],
      "name": "usdt",
      "outputs": [
        {
          "internalType": "contract IERC20",
          "name": "",
          "type": "address"
        }
      ],
      "stateMutability": "view",
      "type": "function"
    },
    {
      "inputs": [],
      "name": "usdtDm",
      "outputs": [
        {
          "internalType": "uint256",
          "name": "",
          "type": "uint256"
        }
      ],
      "stateMutability": "view",
      "type": "function"
    },
    {
      "inputs": [],
      "name": "wmx",
      "outputs": [
        {
          "internalType": "contract IERC20",
          "name": "",
          "type": "address"
        }
      ],
      "stateMutability": "view",
      "type": "function"
    },
    {
      "inputs": [],
      "name": "wmxLpUsdt",
      "outputs": [
        {
          "internalType": "contract IBaseRewardPool",
          "name": "",
          "type": "address"
        }
      ],
      "stateMutability": "view",
      "type": "function"
    },
    {
      "inputs": [],
      "name": "wom",
      "outputs": [
        {
          "internalType": "contract IERC20",
          "name": "",
          "type": "address"
        }
      ],
      "stateMutability": "view",
      "type": "function"
    },
    {
      "inputs": [],
      "name": "wombatRouter",
      "outputs": [
        {
          "internalType": "contract IWombatRouter",
          "name": "",
          "type": "address"
        }
      ],
      "stateMutability": "view",
      "type": "function"
    }
  ],
  "numDeployments": 2,
  "solcInputHash": "832e49e095a256bc8335578bcf3334df",
  "bytecode": "0x60a0604052306080523480156200001557600080fd5b50600054610100900460ff1615808015620000375750600054600160ff909116105b8062000067575062000054306200010860201b620015241760201c565b15801562000067575060005460ff166001145b6200008f5760405162461bcd60e51b8152600401620000869062000117565b60405180910390fd5b6000805460ff191660011790558015620000b3576000805461ff0019166101001790555b801562000101576000805461ff00191690556040517f7f26b83ff96e1f2b6a682f133852f6798a09c465da95921460cefb384740249890620000f8906001906200018d565b60405180910390a15b506200019d565b6001600160a01b03163b151590565b602080825281016200016a81602e81527f496e697469616c697a61626c653a20636f6e747261637420697320616c72656160208201526d191e481a5b9a5d1a585b1a5e995960921b604082015260600190565b92915050565b600060ff82166200016a565b620001878162000170565b82525050565b602081016200016a82846200017c565b608051613a19620001d5600039600081816107b3015281816107f301528181610892015281816108d201526109610152613a196000f3fe6080604052600436106102255760003560e01c80638129fc1c11610123578063b57075a5116100ab578063cc6522c31161006f578063cc6522c314610656578063ce83833614610677578063d547741f14610698578063ef5cfb8c146106b8578063f6f6b881146106d857600080fd5b8063b57075a5146105bc578063bd25c6db146105dd578063bf52e080146105fe578063c21ebd0714610614578063c5a6222e1461063557600080fd5b8063a3673b38116100f2578063a3673b3814610526578063a440b21a1461053b578063a66b57131461055b578063adc9772e1461057c578063ae30c1101461059c57600080fd5b80638129fc1c146104bc57806391d14854146104d157806392d2918a146104f1578063a217fddf1461051157600080fd5b806334df87e7116101b15780635ca558f8116101755780635ca558f8146103f05780635dbd733a14610406578063612c87df1461043a578063620b75df1461045b5780637d5f58021461048857600080fd5b806334df87e71461037157806336568abe146103885780633659cfe6146103a85780634f1ef286146103c857806352d1902d146103db57600080fd5b806316f0115b116101f857806316f0115b146102c8578063248a9ca3146102e95780632576e65a146103195780632f2ff15d1461032e5780632f48ab7d1461035057600080fd5b806301ffc9a71461022a578063083975d4146102605780630f9033f71461028e578063119cd879146102b2575b600080fd5b34801561023657600080fd5b5061024a610245366004612a05565b6106f8565b6040516102579190612a30565b60405180910390f35b34801561026c57600080fd5b5061012f54610281906001600160a01b031681565b6040516102579190612a6e565b34801561029a57600080fd5b506102a56101385481565b6040516102579190612a82565b3480156102be57600080fd5b506102a560fd5481565b3480156102d457600080fd5b5061013354610281906001600160a01b031681565b3480156102f557600080fd5b506102a5610304366004612aa1565b60009081526065602052604090206001015490565b34801561032557600080fd5b506102a561072f565b34801561033a57600080fd5b5061034e610349366004612ad6565b610740565b005b34801561035c57600080fd5b5061012d54610281906001600160a01b031681565b34801561037d57600080fd5b506102a56101395481565b34801561039457600080fd5b5061034e6103a3366004612ad6565b61076a565b3480156103b457600080fd5b5061034e6103c3366004612b13565b6107a9565b61034e6103d6366004612c2f565b610888565b3480156103e757600080fd5b506102a5610954565b3480156103fc57600080fd5b506102a560fe5481565b34801561041257600080fd5b506102a57fd67ad422505496469a1adf6cdf9e5ee92ac5d33992843c9ecc4b2f6d6cde913781565b34801561044657600080fd5b5061013554610281906001600160a01b031681565b34801561046757600080fd5b5060fb5461047b906001600160a01b031681565b6040516102579190612c86565b34801561049457600080fd5b506102a57f90c2aa7471c04182221f68e80c07ab1e5946e4c63f8693e14ca40385d529f05181565b3480156104c857600080fd5b5061034e6109b1565b3480156104dd57600080fd5b5061024a6104ec366004612ad6565b610a7f565b3480156104fd57600080fd5b5061034e61050c366004612cb0565b610aaa565b34801561051d57600080fd5b506102a5600081565b34801561053257600080fd5b506102a5610f35565b34801561054757600080fd5b5061034e610556366004612b13565b610f41565b34801561056757600080fd5b5061013654610281906001600160a01b031681565b34801561058857600080fd5b5061034e610597366004612cd2565b61103a565b3480156105a857600080fd5b5061034e6105b7366004612d05565b61115d565b3480156105c857600080fd5b5061013154610281906001600160a01b031681565b3480156105e957600080fd5b5061013254610281906001600160a01b031681565b34801561060a57600080fd5b506102a560fc5481565b34801561062057600080fd5b5061013454610281906001600160a01b031681565b34801561064157600080fd5b5061012e54610281906001600160a01b031681565b34801561066257600080fd5b5061013754610281906001600160a01b031681565b34801561068357600080fd5b5061013054610281906001600160a01b031681565b3480156106a457600080fd5b5061034e6106b3366004612ad6565b61127f565b3480156106c457600080fd5b506102a56106d3366004612b13565b6112a4565b3480156106e457600080fd5b506102a56106f3366004612d68565b6112f5565b60006001600160e01b03198216637965db0b60e01b148061072957506301ffc9a760e01b6001600160e01b03198316145b92915050565b600061073b6000611533565b905090565b60008281526065602052604090206001015461075b816116be565b61076583836116c8565b505050565b6001600160a01b038116331461079b5760405162461bcd60e51b815260040161079290612e1b565b60405180910390fd5b6107a5828261174e565b5050565b6001600160a01b037f00000000000000000000000000000000000000000000000000000000000000001630036107f15760405162461bcd60e51b815260040161079290612e74565b7f00000000000000000000000000000000000000000000000000000000000000006001600160a01b031661083a600080516020613976833981519152546001600160a01b031690565b6001600160a01b0316146108605760405162461bcd60e51b815260040161079290612ecd565b610869816117b5565b60408051600080825260208201909252610885918391906117c0565b50565b6001600160a01b037f00000000000000000000000000000000000000000000000000000000000000001630036108d05760405162461bcd60e51b815260040161079290612e74565b7f00000000000000000000000000000000000000000000000000000000000000006001600160a01b0316610919600080516020613976833981519152546001600160a01b031690565b6001600160a01b03161461093f5760405162461bcd60e51b815260040161079290612ecd565b610948826117b5565b6107a5828260016117c0565b6000306001600160a01b037f0000000000000000000000000000000000000000000000000000000000000000161461099e5760405162461bcd60e51b815260040161079290612f37565b5060008051602061397683398151915290565b600054610100900460ff16158080156109d15750600054600160ff909116105b806109eb5750303b1580156109eb575060005460ff166001145b610a075760405162461bcd60e51b815260040161079290612f92565b6000805460ff191660011790558015610a2a576000805461ff0019166101001790555b610a326118a2565b8015610885576000805461ff00191690556040517f7f26b83ff96e1f2b6a682f133852f6798a09c465da95921460cefb384740249890610a7490600190612fb6565b60405180910390a150565b60009182526065602090815260408084206001600160a01b0393909316845291905290205460ff1690565b610ab5600033610a7f565b610ad15760405162461bcd60e51b815260040161079290612ff2565b610ade6020820182612b13565b61012d80546001600160a01b0319166001600160a01b0392909216919091179055610b0f6040820160208301612b13565b61012e80546001600160a01b0319166001600160a01b0392909216919091179055610b406060820160408301612b13565b61012f80546001600160a01b0319166001600160a01b0392909216919091179055610b716080820160608301612b13565b61013080546001600160a01b0319166001600160a01b0392909216919091179055610ba260a0820160808301612b13565b61013180546001600160a01b0319166001600160a01b0392909216919091179055610bd360c0820160a08301612b13565b61013280546001600160a01b0319166001600160a01b0392831617905561013054604080516316f0115b60e01b8152905191909216916316f0115b9160048083019260209291908290030181865afa158015610c33573d6000803e3d6000fd5b505050506040513d601f19601f82011682018060405250810190610c57919061300d565b61013380546001600160a01b0319166001600160a01b0392909216919091179055610c89610100820160e08301612b13565b61013480546001600160a01b0319166001600160a01b0392909216919091179055610cbc61012082016101008301612b13565b61013580546001600160a01b0319166001600160a01b0392909216919091179055610cef61014082016101208301612b13565b61013780546001600160a01b0319166001600160a01b0392909216919091179055610d1d6020820182612b13565b6001600160a01b031663313ce5676040518163ffffffff1660e01b8152600401602060405180830381865afa158015610d5a573d6000803e3d6000fd5b505050506040513d601f19601f82011682018060405250810190610d7e9190613042565b610d8990600a613187565b61013855610d9d6080820160608301612b13565b6001600160a01b031663313ce5676040518163ffffffff1660e01b8152600401602060405180830381865afa158015610dda573d6000803e3d6000fd5b505050506040513d601f19601f82011682018060405250810190610dfe9190613042565b610e0990600a613187565b6101395561012d546101325460405163095ea7b360e01b81526001600160a01b039283169263095ea7b392610e47929116906000199060040161319c565b6020604051808303816000875af1158015610e66573d6000803e3d6000fd5b505050506040513d601f19601f82011682018060405250810190610e8a91906131c2565b50610131546101325460405163095ea7b360e01b81526001600160a01b039283169263095ea7b392610ec5929116906000199060040161319c565b6020604051808303816000875af1158015610ee4573d6000803e3d6000fd5b505050506040513d601f19601f82011682018060405250810190610f0891906131c2565b506040517fea5646eb3528e525944447a4a97de700dd472298626e5c0481d1c82c3da86ea590600090a150565b600061073b6001611533565b610f4c600033610a7f565b610f685760405162461bcd60e51b815260040161079290612ff2565b6001600160a01b038116610f8e5760405162461bcd60e51b815260040161079290613217565b60fb54610fc5907f90c2aa7471c04182221f68e80c07ab1e5946e4c63f8693e14ca40385d529f051906001600160a01b031661127f565b610fef7f90c2aa7471c04182221f68e80c07ab1e5946e4c63f8693e14ca40385d529f05182610740565b60fb80546001600160a01b0319166001600160a01b0383161790556040517ff7b449fcd5cfb7379dcd34cb69428dd9f882033b15be33d83b42d91daa28eeb790610a74908390612c86565b60006110a9306001600160a01b031663a3673b386040518163ffffffff1660e01b8152600401602060405180830381865afa15801561107d573d6000803e3d6000fd5b505050506040513d601f19601f820116820180604052508101906110a19190613232565b60fd54611987565b905061112183846001600160a01b03166370a08231306040518263ffffffff1660e01b81526004016110db9190612c86565b602060405180830381865afa1580156110f8573d6000803e3d6000fd5b505050506040513d601f19601f8201168201806040525081019061111c9190613232565b6119b1565b7f227a473b70d2f893cc7659219575c030a63b5743024fe1e0c1a680e708b1525a826040516111509190612a82565b60405180910390a1505050565b6111877fd67ad422505496469a1adf6cdf9e5ee92ac5d33992843c9ecc4b2f6d6cde913733610a7f565b80611220575060fb54604051632474521560e21b81526001600160a01b03909116906391d14854906111df907fd67ad422505496469a1adf6cdf9e5ee92ac5d33992843c9ecc4b2f6d6cde9137903390600401613253565b602060405180830381865afa1580156111fc573d6000803e3d6000fd5b505050506040513d601f19601f8201168201806040525081019061122091906131c2565b61123c5760405162461bcd60e51b8152600401610792906132ad565b60fc83905560fd82905560fe8190556040517f116fbf1e97a2be629ad98abfb6c332733c8996c2dfb174dd2efe8440df381d1a90611150908590859085906132bd565b60008281526065602052604090206001015461129a816116be565b610765838361174e565b6000806112b083611b5a565b90508015610729577f3ac0594a85a20354f9dc74f33728416d19ce00d04a406c108cc2dcf2cecea134816040516112e79190612a82565b60405180910390a192915050565b600080611339306001600160a01b031663a3673b386040518163ffffffff1660e01b8152600401602060405180830381865afa15801561107d573d6000803e3d6000fd5b905060008084156113605761134d86611b5a565b90506113598887611ed0565b915061138d565b61136b888888612137565b91508682101561138d5760405162461bcd60e51b81526004016107929061332b565b61142e6040518060400160405280601a81526020017f6e61763a202573206d696e4e617645787065637465643a202573000000000000815250306001600160a01b031663a3673b386040518163ffffffff1660e01b8152600401602060405180830381865afa158015611404573d6000803e3d6000fd5b505050506040513d601f19601f820116820180604052508101906114289190613232565b856122cf565b60405163a9059cbb60e01b81526001600160a01b0389169063a9059cbb9061145c908990869060040161319c565b6020604051808303816000875af115801561147b573d6000803e3d6000fd5b505050506040513d601f19601f8201168201806040525081019061149f91906131c2565b507f9045c2ac9b2026de8075f2701bbdde882cd5e830b3b1ead9a15b22f2b5b9374287836040516114d192919061333b565b60405180910390a18015611517577f3ac0594a85a20354f9dc74f33728416d19ce00d04a406c108cc2dcf2cecea1348160405161150e9190612a82565b60405180910390a15b509150505b949350505050565b6001600160a01b03163b151590565b61012d546040516370a0823160e01b815260009182916001600160a01b03909116906370a0823190611569903090600401612c86565b602060405180830381865afa158015611586573d6000803e3d6000fd5b505050506040513d601f19601f820116820180604052508101906115aa9190613232565b610131546040516370a0823160e01b81529192506000916001600160a01b03909116906370a08231906115e1903090600401612c86565b602060405180830381865afa1580156115fe573d6000803e3d6000fd5b505050506040513d601f19601f820116820180604052508101906116229190613232565b905080156116b757610132546101305460405163135dbd1360e01b81526000926001600160a01b039081169263135dbd13926116669290911690869060040161319c565b6040805180830381865afa158015611682573d6000803e3d6000fd5b505050506040513d601f19601f820116820180604052508101906116a69190613349565b5090506116b3818461337c565b9250505b5092915050565b6108858133612316565b6116d28282610a7f565b6107a55760008281526065602090815260408083206001600160a01b03851684529091529020805460ff1916600117905561170a3390565b6001600160a01b0316816001600160a01b0316837f2f8788117e7eff1d82e926ec794901d17c78024a50270940304540a733656f0d60405160405180910390a45050565b6117588282610a7f565b156107a55760008281526065602090815260408083206001600160a01b0385168085529252808320805460ff1916905551339285917ff6391f5c32d9c69d2a47ea670b442974b53935d1edc7fd64eb21e047a839171b9190a45050565b60006107a5816116be565b7f4910fdfa16fed3260ed0e7147f7cc6da11a60208b5b9406d12a635614ffd91435460ff16156117f3576107658361236f565b826001600160a01b03166352d1902d6040518163ffffffff1660e01b8152600401602060405180830381865afa92505050801561184d575060408051601f3d908101601f1916820190925261184a91810190613232565b60015b6118695760405162461bcd60e51b8152600401610792906133da565b60008051602061397683398151915281146118965760405162461bcd60e51b815260040161079290613430565b506107658383836123c5565b600054610100900460ff16158080156118c25750600054600160ff909116105b806118dc5750303b1580156118dc575060005460ff166001145b6118f85760405162461bcd60e51b815260040161079290612f92565b6000805460ff19166001179055801561191b576000805461ff0019166101001790555b6119236123f0565b61192b6123f0565b6119366000336116c8565b601960fc55602360fd55600460fe558015610885576000805461ff00191690556040517f7f26b83ff96e1f2b6a682f133852f6798a09c465da95921460cefb384740249890610a7490600190612fb6565b60006127106119968382613440565b6119a09085613453565b6119aa9190613481565b9392505050565b61012d546040516370a0823160e01b81526000916001600160a01b0316906370a08231906119e3903090600401612c86565b602060405180830381865afa158015611a00573d6000803e3d6000fd5b505050506040513d601f19601f82011682018060405250810190611a249190613232565b6101325461013054604051630650739d60e41b81529293506000926001600160a01b039283169263650739d092611a6292911690869060040161319c565b6040805180830381865afa158015611a7e573d6000803e3d6000fd5b505050506040513d601f19601f82011682018060405250810190611aa29190613349565b509050611ad56040518060600160405280602781526020016139bd602791396101305484906001600160a01b0316612419565b610132546101305460fe546001600160a01b039283169263fe41e5249216908590611b01908690611987565b60016040518563ffffffff1660e01b8152600401611b229493929190613495565b600060405180830381600087803b158015611b3c57600080fd5b505af1158015611b50573d6000803e3d6000fd5b5050505050505050565b610131546040516370a0823160e01b815260009182916001600160a01b03909116906370a0823190611b90903090600401612c86565b602060405180830381865afa158015611bad573d6000803e3d6000fd5b505050506040513d601f19601f82011682018060405250810190611bd19190613232565b90508015611c525761013154604051637050ccd960e01b81526001600160a01b0390911690637050ccd990611c0d9030906000906004016134d3565b6020604051808303816000875af1158015611c2c573d6000803e3d6000fd5b505050506040513d601f19601f82011682018060405250810190611c5091906131c2565b505b61012e546040516370a0823160e01b815260009182916001600160a01b03909116906370a0823190611c88903090600401612c86565b602060405180830381865afa158015611ca5573d6000803e3d6000fd5b505050506040513d601f19601f82011682018060405250810190611cc99190613232565b90508015611d57576101345461012e5461012d54600092611cfb926001600160a01b0391821692908216911685612460565b90508015611d55576101345461012e5461012d54600092611d45926001600160a01b03918216929082169116866064611d35886063613453565b611d3f9190613481565b3061257a565b9050611d51818561337c565b9350505b505b61012f546040516370a0823160e01b81526000916001600160a01b0316906370a0823190611d89903090600401612c86565b602060405180830381865afa158015611da6573d6000803e3d6000fd5b505050506040513d601f19601f82011682018060405250810190611dca9190613232565b90508015611e48576101345461012f5461012d54600092611dfc926001600160a01b0391821692908216911685612460565b90508015611e46576101345461012f5461012d54600092611e36926001600160a01b03918216929082169116866064611d35886063613453565b9050611e42818661337c565b9450505b505b8215611ec65761012d5460405163a9059cbb60e01b81526001600160a01b039091169063a9059cbb90611e81908990879060040161319c565b6020604051808303816000875af1158015611ea0573d6000803e3d6000fd5b505050506040513d601f19601f82011682018060405250810190611ec491906131c2565b505b5090949350505050565b610131546040516370a0823160e01b815260009182916001600160a01b03909116906370a0823190611f06903090600401612c86565b602060405180830381865afa158015611f23573d6000803e3d6000fd5b505050506040513d601f19601f82011682018060405250810190611f479190613232565b9050801561205157610132546101305460405163135dbd1360e01b81526000926001600160a01b039081169263135dbd1392611f8b9290911690869060040161319c565b6040805180830381865afa158015611fa7573d6000803e3d6000fd5b505050506040513d601f19601f82011682018060405250810190611fcb9190613349565b50610132546101305460fe549293506001600160a01b03918216926316762eed92909116908590611ffd908690611987565b306040518563ffffffff1660e01b815260040161201d94939291906134ee565b600060405180830381600087803b15801561203757600080fd5b505af115801561204b573d6000803e3d6000fd5b50505050505b61012d546040516370a0823160e01b81526000916001600160a01b0316906370a0823190612083903090600401612c86565b602060405180830381865afa1580156120a0573d6000803e3d6000fd5b505050506040513d601f19601f820116820180604052508101906120c49190613232565b61012d546040516370a0823160e01b81529192506001600160a01b0316906370a08231906120f6903090600401612c86565b602060405180830381865afa158015612113573d6000803e3d6000fd5b505050506040513d601f19601f820116820180604052508101906116b39190613232565b61013254610130546101395460405163135dbd1360e01b8152600093869385936001600160a01b039283169363135dbd13936121789316919060040161319c565b6040805180830381865afa158015612194573d6000803e3d6000fd5b505050506040513d601f19601f820116820180604052508101906121b89190613349565b509050600081610139546121ce8560fe54612710565b6121d89190613453565b6121e29190613481565b61013254610130546040516316762eed60e01b81529293506001600160a01b03918216926316762eed926122209216908590889030906004016134ee565b600060405180830381600087803b15801561223a57600080fd5b505af115801561224e573d6000803e3d6000fd5b505061012d546040516370a0823160e01b81526001600160a01b0390911692506370a082319150612283903090600401612c86565b602060405180830381865afa1580156122a0573d6000803e3d6000fd5b505050506040513d601f19601f820116820180604052508101906122c49190613232565b979650505050505050565b6107658383836040516024016122e793929190613579565b60408051601f198184030181529190526020810180516001600160e01b031663ca47c4eb60e01b17905261271f565b6123208282610a7f565b6107a55761232d81612740565b612338836020612752565b6040516020016123499291906135bb565b60408051601f198184030181529082905262461bcd60e51b825261079291600401613613565b6001600160a01b0381163b6123965760405162461bcd60e51b81526004016107929061366e565b60008051602061397683398151915280546001600160a01b0319166001600160a01b0392909216919091179055565b6123ce836128be565b6000825111806123db5750805b15610765576123ea83836128fe565b50505050565b600054610100900460ff166124175760405162461bcd60e51b8152600401610792906136c6565b565b610765838383604051602401612431939291906136d6565b60408051601f198184030181529190526020810180516001600160e01b031663038fd88960e31b17905261271f565b60408051600280825260608201835260009283929190602083019080368337019050509050848160008151811061249957612499613703565b60200260200101906001600160a01b031690816001600160a01b03168152505083816001815181106124cd576124cd613703565b6001600160a01b03928316602091820292909201015260405163d06ca61f60e01b815260009188169063d06ca61f9061250c9087908690600401613776565b600060405180830381865afa158015612529573d6000803e3d6000fd5b505050506040513d6000823e601f3d908101601f191682016040526125519190810190613839565b90508060018151811061256657612566613703565b602002602001015192505050949350505050565b60405163095ea7b360e01b81526000906001600160a01b0387169063095ea7b3906125ab908a90889060040161319c565b6020604051808303816000875af11580156125ca573d6000803e3d6000fd5b505050506040513d601f19601f820116820180604052508101906125ee91906131c2565b50604080516002808252606082018352600092602083019080368337019050509050868160008151811061262457612624613703565b60200260200101906001600160a01b031690816001600160a01b031681525050858160018151811061265857612658613703565b6001600160a01b0392831660209182029290920101526040516338ed173960e01b81526000918a16906338ed17399061269d908990899087908a904290600401613874565b6000604051808303816000875af11580156126bc573d6000803e3d6000fd5b505050506040513d6000823e601f3d908101601f191682016040526126e49190810190613839565b9050806001815181106126f9576126f9613703565b6020026020010151925050505b9695505050505050565b6000612710611996838261337c565b80516a636f6e736f6c652e6c6f67602083016000808483855afa5050505050565b60606107296001600160a01b03831660145b60606000612761836002613453565b61276c90600261337c565b67ffffffffffffffff81111561278457612784612b34565b6040519080825280601f01601f1916602001820160405280156127ae576020820181803683370190505b509050600360fc1b816000815181106127c9576127c9613703565b60200101906001600160f81b031916908160001a905350600f60fb1b816001815181106127f8576127f8613703565b60200101906001600160f81b031916908160001a905350600061281c846002613453565b61282790600161337c565b90505b600181111561289f576f181899199a1a9b1b9c1cb0b131b232b360811b85600f166010811061285b5761285b613703565b1a60f81b82828151811061287157612871613703565b60200101906001600160f81b031916908160001a90535060049490941c93612898816138bd565b905061282a565b5083156119aa5760405162461bcd60e51b815260040161079290613906565b6128c78161236f565b6040516001600160a01b038216907fbc7cd75a20ee27fd9adebab32041f755214dbc6bffa90cc0225b39da2e5c2d3b90600090a250565b60606001600160a01b0383163b6129275760405162461bcd60e51b815260040161079290613959565b600080846001600160a01b0316846040516129429190613969565b600060405180830381855af49150503d806000811461297d576040519150601f19603f3d011682016040523d82523d6000602084013e612982565b606091505b50915091506116b3828260405180606001604052806027815260200161399660279139606083156129b45750816119aa565b6119aa83838151156129c95781518083602001fd5b8060405162461bcd60e51b81526004016107929190613613565b6001600160e01b031981165b811461088557600080fd5b8035610729816129e3565b600060208284031215612a1a57612a1a600080fd5b600061151c84846129fa565b8015155b82525050565b602081016107298284612a26565b60006001600160a01b038216610729565b600061072982612a3e565b600061072982612a4f565b612a2a81612a5a565b602081016107298284612a65565b80612a2a565b602081016107298284612a7c565b806129ef565b803561072981612a90565b600060208284031215612ab657612ab6600080fd5b600061151c8484612a96565b6129ef81612a3e565b803561072981612ac2565b60008060408385031215612aec57612aec600080fd5b6000612af88585612a96565b9250506020612b0985828601612acb565b9150509250929050565b600060208284031215612b2857612b28600080fd5b600061151c8484612acb565b634e487b7160e01b600052604160045260246000fd5b601f19601f830116810181811067ffffffffffffffff82111715612b7057612b70612b34565b6040525050565b6000612b8260405190565b9050612b8e8282612b4a565b919050565b600067ffffffffffffffff821115612bad57612bad612b34565b601f19601f83011660200192915050565b82818337506000910152565b6000612bdd612bd884612b93565b612b77565b905082815260208101848484011115612bf857612bf8600080fd5b612c03848285612bbe565b509392505050565b600082601f830112612c1f57612c1f600080fd5b813561151c848260208601612bca565b60008060408385031215612c4557612c45600080fd5b6000612c518585612acb565b925050602083013567ffffffffffffffff811115612c7157612c71600080fd5b612b0985828601612c0b565b612a2a81612a3e565b602081016107298284612c7d565b60006101408284031215612caa57612caa600080fd5b50919050565b60006101408284031215612cc657612cc6600080fd5b600061151c8484612c94565b60008060408385031215612ce857612ce8600080fd5b6000612cf48585612acb565b9250506020612b0985828601612a96565b600080600060608486031215612d1d57612d1d600080fd5b6000612d298686612a96565b9350506020612d3a86828701612a96565b9250506040612d4b86828701612a96565b9150509250925092565b8015156129ef565b803561072981612d55565b60008060008060808587031215612d8157612d81600080fd5b6000612d8d8787612acb565b9450506020612d9e87828801612a96565b9350506040612daf87828801612acb565b9250506060612dc087828801612d5d565b91505092959194509250565b602f81526000602082017f416363657373436f6e74726f6c3a2063616e206f6e6c792072656e6f756e636581526e103937b632b9903337b91039b2b63360891b602082015291505b5060400190565b6020808252810161072981612dcc565b602c81526000602082017f46756e6374696f6e206d7573742062652063616c6c6564207468726f7567682081526b19195b1959d85d1958d85b1b60a21b60208201529150612e14565b6020808252810161072981612e2b565b602c81526000602082017f46756e6374696f6e206d7573742062652063616c6c6564207468726f7567682081526b6163746976652070726f787960a01b60208201529150612e14565b6020808252810161072981612e84565b603881526000602082017f555550535570677261646561626c653a206d757374206e6f742062652063616c81527f6c6564207468726f7567682064656c656761746563616c6c000000000000000060208201529150612e14565b6020808252810161072981612edd565b602e81526000602082017f496e697469616c697a61626c653a20636f6e747261637420697320616c72656181526d191e481a5b9a5d1a585b1a5e995960921b60208201529150612e14565b6020808252810161072981612f47565b600060ff8216610729565b612a2a81612fa2565b602081016107298284612fad565b60148152600060208201735265737472696374656420746f2061646d696e7360601b815291505b5060200190565b6020808252810161072981612fc4565b805161072981612ac2565b60006020828403121561302257613022600080fd5b600061151c8484613002565b60ff81166129ef565b80516107298161302e565b60006020828403121561305757613057600080fd5b600061151c8484613037565b634e487b7160e01b600052601160045260246000fd5b80825b60018511156130b85780860481111561309757613097613063565b60018516156130a557908102905b80026130b18560011c90565b945061307c565b94509492505050565b6000826130d0575060016119aa565b816130dd575060006119aa565b81600181146130f357600281146130fd5761312a565b60019150506119aa565b60ff84111561310e5761310e613063565b8360020a91508482111561312457613124613063565b506119aa565b5060208310610133831016604e8410600b841016171561315d575081810a8381111561315857613158613063565b6119aa565b61316a8484846001613079565b9250905081840481111561318057613180613063565b0292915050565b600060ff831692506119aa60001984846130c1565b604081016131aa8285612c7d565b6119aa6020830184612a7c565b805161072981612d55565b6000602082840312156131d7576131d7600080fd5b600061151c84846131b7565b601881526000602082017f5a65726f2061646472657373206e6f7420616c6c6f776564000000000000000081529150612feb565b60208082528101610729816131e3565b805161072981612a90565b60006020828403121561324757613247600080fd5b600061151c8484613227565b604081016132618285612a7c565b6119aa6020830184612c7d565b602281526000602082017f5265737472696374656420746f20504f5254464f4c494f5f4147454e545f524f8152614c4560f01b60208201529150612e14565b602080825281016107298161326e565b606081016132cb8286612a7c565b6132d86020830185612a7c565b61151c6040830184612a7c565b602981526000602082017f52657475726e65642076616c7565206c657373207468616e2072657175657374815268195908185b5bdd5b9d60ba1b60208201529150612e14565b60208082528101610729816132e5565b604081016131aa8285612a7c565b6000806040838503121561335f5761335f600080fd5b600061336b8585613227565b9250506020612b0985828601613227565b8082018082111561072957610729613063565b602e81526000602082017f45524331393637557067726164653a206e657720696d706c656d656e7461746981526d6f6e206973206e6f74205555505360901b60208201529150612e14565b602080825281016107298161338f565b602981526000602082017f45524331393637557067726164653a20756e737570706f727465642070726f788152681a58589b195555525160ba1b60208201529150612e14565b60208082528101610729816133ea565b8181038181111561072957610729613063565b8181028082158382048514176116b7576116b7613063565b634e487b7160e01b600052601260045260246000fd5b6000826134905761349061346b565b500490565b608081016134a38287612c7d565b6134b06020830186612a7c565b6134bd6040830185612a7c565b6134ca6060830184612a26565b95945050505050565b604081016134e18285612c7d565b6119aa6020830184612a26565b608081016134fc8287612c7d565b6135096020830186612a7c565b6135166040830185612a7c565b6134ca6060830184612c7d565b60005b8381101561353e578181015183820152602001613526565b50506000910152565b6000613551825190565b808452602084019350613568818560208601613523565b601f01601f19169290920192915050565b6060808252810161358a8186613547565b90506132d86020830185612a7c565b60006135a3825190565b6135b1818560208601613523565b9290920192915050565b7f416363657373436f6e74726f6c3a206163636f756e7420000000000000000000815260170160006135ed8285613599565b7001034b99036b4b9b9b4b733903937b6329607d1b8152601101915061151c8284613599565b602080825281016119aa8184613547565b602d81526000602082017f455243313936373a206e657720696d706c656d656e746174696f6e206973206e81526c1bdd08184818dbdb9d1c9858dd609a1b60208201529150612e14565b6020808252810161072981613624565b602b81526000602082017f496e697469616c697a61626c653a20636f6e7472616374206973206e6f74206981526a6e697469616c697a696e6760a81b60208201529150612e14565b602080825281016107298161367e565b606080825281016136e78186613547565b90506136f66020830185612a7c565b61151c6040830184612c7d565b634e487b7160e01b600052603260045260246000fd5b60006137258383612c7d565b505060200190565b6000613737825190565b80845260209384019383018060005b8381101561376b57815161375a8882613719565b975060208301925050600101613746565b509495945050505050565b604081016137848285612a7c565b818103602083015261151c818461372d565b600067ffffffffffffffff8211156137b0576137b0612b34565b5060209081020190565b60006137c8612bd884613796565b838152905060208082019084028301858111156137e7576137e7600080fd5b835b8181101561380b57806137fc8882613227565b845250602092830192016137e9565b5050509392505050565b600082601f83011261382957613829600080fd5b815161151c8482602086016137ba565b60006020828403121561384e5761384e600080fd5b815167ffffffffffffffff81111561386857613868600080fd5b61151c84828501613815565b60a081016138828288612a7c565b61388f6020830187612a7c565b81810360408301526138a1818661372d565b90506138b06060830185612c7d565b6127066080830184612a7c565b6000816138cc576138cc613063565b506000190190565b60208082527f537472696e67733a20686578206c656e67746820696e73756666696369656e7491019081526000612feb565b60208082528101610729816138d4565b602681526000602082017f416464726573733a2064656c65676174652063616c6c20746f206e6f6e2d636f8152651b9d1c9858dd60d21b60208201529150612e14565b6020808252810161072981613916565b60006119aa828461359956fe360894a13ba1a3210667c828492db98dca3e2076cc3735a920a3ca505d382bbc416464726573733a206c6f772d6c6576656c2064656c65676174652063616c6c206661696c6564776f6d6265787475736474207573647442616c616e63653a20257320616464726573733a202573a26469706673582212203993c8919ce04f57981d188c8c7b7510eea8b8e4757b0c9d76b594bb6aa631d364736f6c63430008110033",
  "implementation": "0x00b072f2c916BAeb2aA144Fa6e525189BE4638FC",
  "devdoc": {
    "kind": "dev",
    "methods": {
      "constructor": {
        "custom:oz-upgrades-unsafe-allow": "constructor"
      },
      "getRoleAdmin(bytes32)": {
        "details": "Returns the admin role that controls `role`. See {grantRole} and {revokeRole}. To change a role's admin, use {_setRoleAdmin}."
      },
      "grantRole(bytes32,address)": {
        "details": "Grants `role` to `account`. If `account` had not been already granted `role`, emits a {RoleGranted} event. Requirements: - the caller must have ``role``'s admin role. May emit a {RoleGranted} event."
      },
      "hasRole(bytes32,address)": {
        "details": "Returns `true` if `account` has been granted `role`."
      },
      "proxiableUUID()": {
        "details": "Implementation of the ERC1822 {proxiableUUID} function. This returns the storage slot used by the implementation. It is used to validate the implementation's compatibility when performing an upgrade. IMPORTANT: A proxy pointing at a proxiable contract should not be considered proxiable itself, because this risks bricking a proxy that upgrades to it, by delegating to itself until out of gas. Thus it is critical that this function revert if invoked through a proxy. This is guaranteed by the `notDelegated` modifier."
      },
      "renounceRole(bytes32,address)": {
        "details": "Revokes `role` from the calling account. Roles are often managed via {grantRole} and {revokeRole}: this function's purpose is to provide a mechanism for accounts to lose their privileges if they are compromised (such as when a trusted device is misplaced). If the calling account had been revoked `role`, emits a {RoleRevoked} event. Requirements: - the caller must be `account`. May emit a {RoleRevoked} event."
      },
      "revokeRole(bytes32,address)": {
        "details": "Revokes `role` from `account`. If `account` had been granted `role`, emits a {RoleRevoked} event. Requirements: - the caller must have ``role``'s admin role. May emit a {RoleRevoked} event."
      },
      "supportsInterface(bytes4)": {
        "details": "See {IERC165-supportsInterface}."
      },
      "upgradeTo(address)": {
        "details": "Upgrade the implementation of the proxy to `newImplementation`. Calls {_authorizeUpgrade}. Emits an {Upgraded} event."
      },
      "upgradeToAndCall(address,bytes)": {
        "details": "Upgrade the implementation of the proxy to `newImplementation`, and subsequently execute the function call encoded in `data`. Calls {_authorizeUpgrade}. Emits an {Upgraded} event."
      }
    },
    "version": 1
  },
  "userdoc": {
    "kind": "user",
    "methods": {},
    "version": 1
  },
  "storageLayout": {
    "storage": [
      {
        "astId": 804,
        "contract": "contracts/strategies/StrategyWombexUsdt.sol:StrategyWombexUsdt",
        "label": "_initialized",
        "offset": 0,
        "slot": "0",
        "type": "t_uint8"
      },
      {
        "astId": 807,
        "contract": "contracts/strategies/StrategyWombexUsdt.sol:StrategyWombexUsdt",
        "label": "_initializing",
        "offset": 1,
        "slot": "0",
        "type": "t_bool"
      },
      {
        "astId": 1427,
        "contract": "contracts/strategies/StrategyWombexUsdt.sol:StrategyWombexUsdt",
        "label": "__gap",
        "offset": 0,
        "slot": "1",
        "type": "t_array(t_uint256)50_storage"
      },
      {
        "astId": 1706,
        "contract": "contracts/strategies/StrategyWombexUsdt.sol:StrategyWombexUsdt",
        "label": "__gap",
        "offset": 0,
        "slot": "51",
        "type": "t_array(t_uint256)50_storage"
      },
      {
        "astId": 39,
        "contract": "contracts/strategies/StrategyWombexUsdt.sol:StrategyWombexUsdt",
        "label": "_roles",
        "offset": 0,
        "slot": "101",
        "type": "t_mapping(t_bytes32,t_struct(RoleData)34_storage)"
      },
      {
        "astId": 334,
        "contract": "contracts/strategies/StrategyWombexUsdt.sol:StrategyWombexUsdt",
        "label": "__gap",
        "offset": 0,
        "slot": "102",
        "type": "t_array(t_uint256)49_storage"
      },
      {
        "astId": 786,
        "contract": "contracts/strategies/StrategyWombexUsdt.sol:StrategyWombexUsdt",
        "label": "__gap",
        "offset": 0,
        "slot": "151",
        "type": "t_array(t_uint256)50_storage"
      },
      {
        "astId": 1101,
        "contract": "contracts/strategies/StrategyWombexUsdt.sol:StrategyWombexUsdt",
        "label": "__gap",
        "offset": 0,
        "slot": "201",
        "type": "t_array(t_uint256)50_storage"
      },
      {
        "astId": 2717,
        "contract": "contracts/strategies/StrategyWombexUsdt.sol:StrategyWombexUsdt",
        "label": "portfolioManager",
        "offset": 0,
        "slot": "251",
        "type": "t_address"
      },
      {
        "astId": 2719,
        "contract": "contracts/strategies/StrategyWombexUsdt.sol:StrategyWombexUsdt",
        "label": "swapSlippageBP",
        "offset": 0,
        "slot": "252",
        "type": "t_uint256"
      },
      {
        "astId": 2721,
        "contract": "contracts/strategies/StrategyWombexUsdt.sol:StrategyWombexUsdt",
        "label": "navSlippageBP",
        "offset": 0,
        "slot": "253",
        "type": "t_uint256"
      },
      {
        "astId": 2723,
        "contract": "contracts/strategies/StrategyWombexUsdt.sol:StrategyWombexUsdt",
        "label": "stakeSlippageBP",
        "offset": 0,
        "slot": "254",
        "type": "t_uint256"
      },
      {
        "astId": 3094,
        "contract": "contracts/strategies/StrategyWombexUsdt.sol:StrategyWombexUsdt",
        "label": "__gap",
        "offset": 0,
        "slot": "255",
        "type": "t_array(t_uint256)46_storage"
      },
      {
        "astId": 6246,
        "contract": "contracts/strategies/StrategyWombexUsdt.sol:StrategyWombexUsdt",
        "label": "usdt",
        "offset": 0,
        "slot": "301",
        "type": "t_contract(IERC20)2662"
      },
      {
        "astId": 6249,
        "contract": "contracts/strategies/StrategyWombexUsdt.sol:StrategyWombexUsdt",
        "label": "wom",
        "offset": 0,
        "slot": "302",
        "type": "t_contract(IERC20)2662"
      },
      {
        "astId": 6252,
        "contract": "contracts/strategies/StrategyWombexUsdt.sol:StrategyWombexUsdt",
        "label": "wmx",
        "offset": 0,
        "slot": "303",
        "type": "t_contract(IERC20)2662"
      },
      {
        "astId": 6255,
        "contract": "contracts/strategies/StrategyWombexUsdt.sol:StrategyWombexUsdt",
        "label": "lpUsdt",
        "offset": 0,
        "slot": "304",
        "type": "t_contract(IAsset)5591"
      },
      {
        "astId": 6258,
        "contract": "contracts/strategies/StrategyWombexUsdt.sol:StrategyWombexUsdt",
        "label": "wmxLpUsdt",
        "offset": 0,
        "slot": "305",
        "type": "t_contract(IBaseRewardPool)5848"
      },
      {
        "astId": 6261,
        "contract": "contracts/strategies/StrategyWombexUsdt.sol:StrategyWombexUsdt",
        "label": "poolDepositor",
        "offset": 0,
        "slot": "306",
        "type": "t_contract(IPoolDepositor)5893"
      },
      {
        "astId": 6264,
        "contract": "contracts/strategies/StrategyWombexUsdt.sol:StrategyWombexUsdt",
        "label": "pool",
        "offset": 0,
        "slot": "307",
        "type": "t_contract(IPool)6023"
      },
      {
        "astId": 6267,
        "contract": "contracts/strategies/StrategyWombexUsdt.sol:StrategyWombexUsdt",
        "label": "pancakeRouter",
        "offset": 0,
        "slot": "308",
        "type": "t_contract(IPancakeRouter02)4382"
      },
      {
        "astId": 6270,
        "contract": "contracts/strategies/StrategyWombexUsdt.sol:StrategyWombexUsdt",
        "label": "wombatRouter",
        "offset": 0,
        "slot": "309",
        "type": "t_contract(IWombatRouter)4871"
      },
      {
        "astId": 6273,
        "contract": "contracts/strategies/StrategyWombexUsdt.sol:StrategyWombexUsdt",
        "label": "oracleBusd",
        "offset": 0,
        "slot": "310",
        "type": "t_contract(IPriceFeed)3170"
      },
      {
        "astId": 6276,
        "contract": "contracts/strategies/StrategyWombexUsdt.sol:StrategyWombexUsdt",
        "label": "oracleUsdt",
        "offset": 0,
        "slot": "311",
        "type": "t_contract(IPriceFeed)3170"
      },
      {
        "astId": 6278,
        "contract": "contracts/strategies/StrategyWombexUsdt.sol:StrategyWombexUsdt",
        "label": "usdtDm",
        "offset": 0,
        "slot": "312",
        "type": "t_uint256"
      },
      {
        "astId": 6280,
        "contract": "contracts/strategies/StrategyWombexUsdt.sol:StrategyWombexUsdt",
        "label": "lpUsdtDm",
        "offset": 0,
        "slot": "313",
        "type": "t_uint256"
      }
    ],
    "types": {
      "t_address": {
        "encoding": "inplace",
        "label": "address",
        "numberOfBytes": "20"
      },
      "t_array(t_uint256)46_storage": {
        "base": "t_uint256",
        "encoding": "inplace",
        "label": "uint256[46]",
        "numberOfBytes": "1472"
      },
      "t_array(t_uint256)49_storage": {
        "base": "t_uint256",
        "encoding": "inplace",
        "label": "uint256[49]",
        "numberOfBytes": "1568"
      },
      "t_array(t_uint256)50_storage": {
        "base": "t_uint256",
        "encoding": "inplace",
        "label": "uint256[50]",
        "numberOfBytes": "1600"
      },
      "t_bool": {
        "encoding": "inplace",
        "label": "bool",
        "numberOfBytes": "1"
      },
      "t_bytes32": {
        "encoding": "inplace",
        "label": "bytes32",
        "numberOfBytes": "32"
      },
      "t_contract(IAsset)5591": {
        "encoding": "inplace",
        "label": "contract IAsset",
        "numberOfBytes": "20"
      },
      "t_contract(IBaseRewardPool)5848": {
        "encoding": "inplace",
        "label": "contract IBaseRewardPool",
        "numberOfBytes": "20"
      },
      "t_contract(IERC20)2662": {
        "encoding": "inplace",
        "label": "contract IERC20",
        "numberOfBytes": "20"
      },
      "t_contract(IPancakeRouter02)4382": {
        "encoding": "inplace",
        "label": "contract IPancakeRouter02",
        "numberOfBytes": "20"
      },
      "t_contract(IPool)6023": {
        "encoding": "inplace",
        "label": "contract IPool",
        "numberOfBytes": "20"
      },
      "t_contract(IPoolDepositor)5893": {
        "encoding": "inplace",
        "label": "contract IPoolDepositor",
        "numberOfBytes": "20"
      },
      "t_contract(IPriceFeed)3170": {
        "encoding": "inplace",
        "label": "contract IPriceFeed",
        "numberOfBytes": "20"
      },
      "t_contract(IWombatRouter)4871": {
        "encoding": "inplace",
        "label": "contract IWombatRouter",
        "numberOfBytes": "20"
      },
      "t_mapping(t_address,t_bool)": {
        "encoding": "mapping",
        "key": "t_address",
        "label": "mapping(address => bool)",
        "numberOfBytes": "32",
        "value": "t_bool"
      },
      "t_mapping(t_bytes32,t_struct(RoleData)34_storage)": {
        "encoding": "mapping",
        "key": "t_bytes32",
        "label": "mapping(bytes32 => struct AccessControlUpgradeable.RoleData)",
        "numberOfBytes": "32",
        "value": "t_struct(RoleData)34_storage"
      },
      "t_struct(RoleData)34_storage": {
        "encoding": "inplace",
        "label": "struct AccessControlUpgradeable.RoleData",
        "members": [
          {
            "astId": 31,
            "contract": "contracts/strategies/StrategyWombexUsdt.sol:StrategyWombexUsdt",
            "label": "members",
            "offset": 0,
            "slot": "0",
            "type": "t_mapping(t_address,t_bool)"
          },
          {
            "astId": 33,
            "contract": "contracts/strategies/StrategyWombexUsdt.sol:StrategyWombexUsdt",
            "label": "adminRole",
            "offset": 0,
            "slot": "1",
            "type": "t_bytes32"
          }
        ],
        "numberOfBytes": "64"
      },
      "t_uint256": {
        "encoding": "inplace",
        "label": "uint256",
        "numberOfBytes": "32"
      },
      "t_uint8": {
        "encoding": "inplace",
        "label": "uint8",
        "numberOfBytes": "1"
      }
    }
  }
}