{
  "address": "0x80e8Be15756F0026D95F4e2f253c5aE80f7025Ae",
  "abi": [
    {
      "inputs": [],
      "stateMutability": "nonpayable",
      "type": "constructor"
    },
    {
      "anonymous": false,
      "inputs": [
        {
          "indexed": false,
          "internalType": "address",
          "name": "previousAdmin",
          "type": "address"
        },
        {
          "indexed": false,
          "internalType": "address",
          "name": "newAdmin",
          "type": "address"
        }
      ],
      "name": "AdminChanged",
      "type": "event"
    },
    {
      "anonymous": false,
      "inputs": [
        {
          "indexed": true,
          "internalType": "address",
          "name": "beacon",
          "type": "address"
        }
      ],
      "name": "BeaconUpgraded",
      "type": "event"
    },
    {
      "anonymous": false,
      "inputs": [
        {
          "indexed": false,
          "internalType": "uint8",
          "name": "version",
          "type": "uint8"
        }
      ],
      "name": "Initialized",
      "type": "event"
    },
    {
      "anonymous": false,
      "inputs": [
        {
          "indexed": false,
          "internalType": "address",
          "name": "value",
          "type": "address"
        }
      ],
      "name": "PortfolioManagerUpdated",
      "type": "event"
    },
    {
      "anonymous": false,
      "inputs": [
        {
          "indexed": false,
          "internalType": "uint256",
          "name": "amount",
          "type": "uint256"
        }
      ],
      "name": "Reward",
      "type": "event"
    },
    {
      "anonymous": false,
      "inputs": [
        {
          "indexed": true,
          "internalType": "bytes32",
          "name": "role",
          "type": "bytes32"
        },
        {
          "indexed": true,
          "internalType": "bytes32",
          "name": "previousAdminRole",
          "type": "bytes32"
        },
        {
          "indexed": true,
          "internalType": "bytes32",
          "name": "newAdminRole",
          "type": "bytes32"
        }
      ],
      "name": "RoleAdminChanged",
      "type": "event"
    },
    {
      "anonymous": false,
      "inputs": [
        {
          "indexed": true,
          "internalType": "bytes32",
          "name": "role",
          "type": "bytes32"
        },
        {
          "indexed": true,
          "internalType": "address",
          "name": "account",
          "type": "address"
        },
        {
          "indexed": true,
          "internalType": "address",
          "name": "sender",
          "type": "address"
        }
      ],
      "name": "RoleGranted",
      "type": "event"
    },
    {
      "anonymous": false,
      "inputs": [
        {
          "indexed": true,
          "internalType": "bytes32",
          "name": "role",
          "type": "bytes32"
        },
        {
          "indexed": true,
          "internalType": "address",
          "name": "account",
          "type": "address"
        },
        {
          "indexed": true,
          "internalType": "address",
          "name": "sender",
          "type": "address"
        }
      ],
      "name": "RoleRevoked",
      "type": "event"
    },
    {
      "anonymous": false,
      "inputs": [
        {
          "indexed": false,
          "internalType": "uint256",
          "name": "swapSlippageBP",
          "type": "uint256"
        },
        {
          "indexed": false,
          "internalType": "uint256",
          "name": "navSlippageBP",
          "type": "uint256"
        },
        {
          "indexed": false,
          "internalType": "uint256",
          "name": "stakeSlippageBP",
          "type": "uint256"
        }
      ],
      "name": "SlippagesUpdated",
      "type": "event"
    },
    {
      "anonymous": false,
      "inputs": [
        {
          "indexed": false,
          "internalType": "uint256",
          "name": "amount",
          "type": "uint256"
        }
      ],
      "name": "Stake",
      "type": "event"
    },
    {
      "anonymous": false,
      "inputs": [],
      "name": "StrategyUpdatedParams",
      "type": "event"
    },
    {
      "anonymous": false,
      "inputs": [
        {
          "indexed": false,
          "internalType": "uint256",
          "name": "amount",
          "type": "uint256"
        },
        {
          "indexed": false,
          "internalType": "uint256",
          "name": "amountReceived",
          "type": "uint256"
        }
      ],
      "name": "Unstake",
      "type": "event"
    },
    {
      "anonymous": false,
      "inputs": [
        {
          "indexed": true,
          "internalType": "address",
          "name": "implementation",
          "type": "address"
        }
      ],
      "name": "Upgraded",
      "type": "event"
    },
    {
      "inputs": [],
      "name": "DEFAULT_ADMIN_ROLE",
      "outputs": [
        {
          "internalType": "bytes32",
          "name": "",
          "type": "bytes32"
        }
      ],
      "stateMutability": "view",
      "type": "function"
    },
    {
      "inputs": [],
      "name": "PORTFOLIO_AGENT_ROLE",
      "outputs": [
        {
          "internalType": "bytes32",
          "name": "",
          "type": "bytes32"
        }
      ],
      "stateMutability": "view",
      "type": "function"
    },
    {
      "inputs": [],
      "name": "PORTFOLIO_MANAGER",
      "outputs": [
        {
          "internalType": "bytes32",
          "name": "",
          "type": "bytes32"
        }
      ],
      "stateMutability": "view",
      "type": "function"
    },
    {
      "inputs": [],
      "name": "busd",
      "outputs": [
        {
          "internalType": "contract IERC20",
          "name": "",
          "type": "address"
        }
      ],
      "stateMutability": "view",
      "type": "function"
    },
    {
      "inputs": [],
      "name": "busdDm",
      "outputs": [
        {
          "internalType": "uint256",
          "name": "",
          "type": "uint256"
        }
      ],
      "stateMutability": "view",
      "type": "function"
    },
    {
      "inputs": [
        {
          "internalType": "address",
          "name": "_to",
          "type": "address"
        }
      ],
      "name": "claimRewards",
      "outputs": [
        {
          "internalType": "uint256",
          "name": "",
          "type": "uint256"
        }
      ],
      "stateMutability": "nonpayable",
      "type": "function"
    },
    {
      "inputs": [],
      "name": "gauge",
      "outputs": [
        {
          "internalType": "contract IGaugeV2",
          "name": "",
          "type": "address"
        }
      ],
      "stateMutability": "view",
      "type": "function"
    },
    {
      "inputs": [
        {
          "internalType": "bytes32",
          "name": "role",
          "type": "bytes32"
        }
      ],
      "name": "getRoleAdmin",
      "outputs": [
        {
          "internalType": "bytes32",
          "name": "",
          "type": "bytes32"
        }
      ],
      "stateMutability": "view",
      "type": "function"
    },
    {
      "inputs": [
        {
          "internalType": "bytes32",
          "name": "role",
          "type": "bytes32"
        },
        {
          "internalType": "address",
          "name": "account",
          "type": "address"
        }
      ],
      "name": "grantRole",
      "outputs": [],
      "stateMutability": "nonpayable",
      "type": "function"
    },
    {
      "inputs": [
        {
          "internalType": "bytes32",
          "name": "role",
          "type": "bytes32"
        },
        {
          "internalType": "address",
          "name": "account",
          "type": "address"
        }
      ],
      "name": "hasRole",
      "outputs": [
        {
          "internalType": "bool",
          "name": "",
          "type": "bool"
        }
      ],
      "stateMutability": "view",
      "type": "function"
    },
    {
      "inputs": [],
      "name": "hay",
      "outputs": [
        {
          "internalType": "contract IERC20",
          "name": "",
          "type": "address"
        }
      ],
      "stateMutability": "view",
      "type": "function"
    },
    {
      "inputs": [],
      "name": "initialize",
      "outputs": [],
      "stateMutability": "nonpayable",
      "type": "function"
    },
    {
      "inputs": [],
      "name": "liquidationValue",
      "outputs": [
        {
          "internalType": "uint256",
          "name": "",
          "type": "uint256"
        }
      ],
      "stateMutability": "view",
      "type": "function"
    },
    {
      "inputs": [],
      "name": "navSlippageBP",
      "outputs": [
        {
          "internalType": "uint256",
          "name": "",
          "type": "uint256"
        }
      ],
      "stateMutability": "view",
      "type": "function"
    },
    {
      "inputs": [],
      "name": "netAssetValue",
      "outputs": [
        {
          "internalType": "uint256",
          "name": "",
          "type": "uint256"
        }
      ],
      "stateMutability": "view",
      "type": "function"
    },
    {
      "inputs": [],
      "name": "oracleBusd",
      "outputs": [
        {
          "internalType": "contract IPriceFeed",
          "name": "",
          "type": "address"
        }
      ],
      "stateMutability": "view",
      "type": "function"
    },
    {
      "inputs": [],
      "name": "oracleUsdt",
      "outputs": [
        {
          "internalType": "contract IPriceFeed",
          "name": "",
          "type": "address"
        }
      ],
      "stateMutability": "view",
      "type": "function"
    },
    {
      "inputs": [],
      "name": "pair",
      "outputs": [
        {
          "internalType": "contract IPair",
          "name": "",
          "type": "address"
        }
      ],
      "stateMutability": "view",
      "type": "function"
    },
    {
      "inputs": [],
      "name": "portfolioManager",
      "outputs": [
        {
          "internalType": "address",
          "name": "",
          "type": "address"
        }
      ],
      "stateMutability": "view",
      "type": "function"
    },
    {
      "inputs": [],
      "name": "proxiableUUID",
      "outputs": [
        {
          "internalType": "bytes32",
          "name": "",
          "type": "bytes32"
        }
      ],
      "stateMutability": "view",
      "type": "function"
    },
    {
      "inputs": [
        {
          "internalType": "bytes32",
          "name": "role",
          "type": "bytes32"
        },
        {
          "internalType": "address",
          "name": "account",
          "type": "address"
        }
      ],
      "name": "renounceRole",
      "outputs": [],
      "stateMutability": "nonpayable",
      "type": "function"
    },
    {
      "inputs": [
        {
          "internalType": "bytes32",
          "name": "role",
          "type": "bytes32"
        },
        {
          "internalType": "address",
          "name": "account",
          "type": "address"
        }
      ],
      "name": "revokeRole",
      "outputs": [],
      "stateMutability": "nonpayable",
      "type": "function"
    },
    {
      "inputs": [],
      "name": "router",
      "outputs": [
        {
          "internalType": "contract IRouter",
          "name": "",
          "type": "address"
        }
      ],
      "stateMutability": "view",
      "type": "function"
    },
    {
      "inputs": [
        {
          "components": [
            {
              "internalType": "address",
              "name": "busdToken",
              "type": "address"
            },
            {
              "internalType": "address",
              "name": "usdtToken",
              "type": "address"
            },
            {
              "internalType": "address",
              "name": "usdPlus",
              "type": "address"
            },
            {
              "internalType": "address",
              "name": "the",
              "type": "address"
            },
            {
              "internalType": "address",
              "name": "pair",
              "type": "address"
            },
            {
              "internalType": "address",
              "name": "router",
              "type": "address"
            },
            {
              "internalType": "address",
              "name": "gauge",
              "type": "address"
            },
            {
              "internalType": "address",
              "name": "wombatPool",
              "type": "address"
            },
            {
              "internalType": "address",
              "name": "wombatRouter",
              "type": "address"
            },
            {
              "internalType": "address",
              "name": "oracleBusd",
              "type": "address"
            },
            {
              "internalType": "address",
              "name": "oracleUsdt",
              "type": "address"
            }
          ],
          "internalType": "struct StrategyThenaUsdtUsdPlus.StrategyParams",
          "name": "params",
          "type": "tuple"
        }
      ],
      "name": "setParams",
      "outputs": [],
      "stateMutability": "nonpayable",
      "type": "function"
    },
    {
      "inputs": [
        {
          "internalType": "address",
          "name": "_value",
          "type": "address"
        }
      ],
      "name": "setPortfolioManager",
      "outputs": [],
      "stateMutability": "nonpayable",
      "type": "function"
    },
    {
      "inputs": [
        {
          "internalType": "uint256",
          "name": "_swapSlippageBP",
          "type": "uint256"
        },
        {
          "internalType": "uint256",
          "name": "_navSlippageBP",
          "type": "uint256"
        },
        {
          "internalType": "uint256",
          "name": "_stakeSlippageBP",
          "type": "uint256"
        }
      ],
      "name": "setSlippages",
      "outputs": [],
      "stateMutability": "nonpayable",
      "type": "function"
    },
    {
      "inputs": [
        {
          "internalType": "address",
          "name": "_asset",
          "type": "address"
        },
        {
          "internalType": "uint256",
          "name": "_amount",
          "type": "uint256"
        }
      ],
      "name": "stake",
      "outputs": [],
      "stateMutability": "nonpayable",
      "type": "function"
    },
    {
      "inputs": [],
      "name": "stakeSlippageBP",
      "outputs": [
        {
          "internalType": "uint256",
          "name": "",
          "type": "uint256"
        }
      ],
      "stateMutability": "view",
      "type": "function"
    },
    {
      "inputs": [
        {
          "internalType": "bytes4",
          "name": "interfaceId",
          "type": "bytes4"
        }
      ],
      "name": "supportsInterface",
      "outputs": [
        {
          "internalType": "bool",
          "name": "",
          "type": "bool"
        }
      ],
      "stateMutability": "view",
      "type": "function"
    },
    {
      "inputs": [],
      "name": "swapSlippageBP",
      "outputs": [
        {
          "internalType": "uint256",
          "name": "",
          "type": "uint256"
        }
      ],
      "stateMutability": "view",
      "type": "function"
    },
    {
      "inputs": [],
      "name": "the",
      "outputs": [
        {
          "internalType": "contract IERC20",
          "name": "",
          "type": "address"
        }
      ],
      "stateMutability": "view",
      "type": "function"
    },
    {
      "inputs": [
        {
          "internalType": "address",
          "name": "_asset",
          "type": "address"
        },
        {
          "internalType": "uint256",
          "name": "_amount",
          "type": "uint256"
        },
        {
          "internalType": "address",
          "name": "_beneficiary",
          "type": "address"
        },
        {
          "internalType": "bool",
          "name": "_targetIsZero",
          "type": "bool"
        }
      ],
      "name": "unstake",
      "outputs": [
        {
          "internalType": "uint256",
          "name": "",
          "type": "uint256"
        }
      ],
      "stateMutability": "nonpayable",
      "type": "function"
    },
    {
      "inputs": [
        {
          "internalType": "address",
          "name": "newImplementation",
          "type": "address"
        }
      ],
      "name": "upgradeTo",
      "outputs": [],
      "stateMutability": "nonpayable",
      "type": "function"
    },
    {
      "inputs": [
        {
          "internalType": "address",
          "name": "newImplementation",
          "type": "address"
        },
        {
          "internalType": "bytes",
          "name": "data",
          "type": "bytes"
        }
      ],
      "name": "upgradeToAndCall",
      "outputs": [],
      "stateMutability": "payable",
      "type": "function"
    },
    {
      "inputs": [],
      "name": "usdPlus",
      "outputs": [
        {
          "internalType": "contract IERC20",
          "name": "",
          "type": "address"
        }
      ],
      "stateMutability": "view",
      "type": "function"
    },
    {
      "inputs": [],
      "name": "usdPlusDm",
      "outputs": [
        {
          "internalType": "uint256",
          "name": "",
          "type": "uint256"
        }
      ],
      "stateMutability": "view",
      "type": "function"
    },
    {
      "inputs": [],
      "name": "usdt",
      "outputs": [
        {
          "internalType": "contract IERC20",
          "name": "",
          "type": "address"
        }
      ],
      "stateMutability": "view",
      "type": "function"
    },
    {
      "inputs": [],
      "name": "usdtDm",
      "outputs": [
        {
          "internalType": "uint256",
          "name": "",
          "type": "uint256"
        }
      ],
      "stateMutability": "view",
      "type": "function"
    },
    {
      "inputs": [],
      "name": "wombatPool",
      "outputs": [
        {
          "internalType": "address",
          "name": "",
          "type": "address"
        }
      ],
      "stateMutability": "view",
      "type": "function"
    },
    {
      "inputs": [],
      "name": "wombatRouter",
      "outputs": [
        {
          "internalType": "address",
          "name": "",
          "type": "address"
        }
      ],
      "stateMutability": "view",
      "type": "function"
    }
  ],
  "numDeployments": 3,
  "solcInputHash": "70512d3b8fb61513c0057bd2176eb04f",
  "bytecode": "0x60a0604052306080523480156200001557600080fd5b50600054610100900460ff1615808015620000375750600054600160ff909116105b8062000067575062000054306200010860201b620015001760201c565b15801562000067575060005460ff166001145b6200008f5760405162461bcd60e51b8152600401620000869062000117565b60405180910390fd5b6000805460ff191660011790558015620000b3576000805461ff0019166101001790555b801562000101576000805461ff00191690556040517f7f26b83ff96e1f2b6a682f133852f6798a09c465da95921460cefb384740249890620000f8906001906200018d565b60405180910390a15b506200019d565b6001600160a01b03163b151590565b602080825281016200016a81602e81527f496e697469616c697a61626c653a20636f6e747261637420697320616c72656160208201526d191e481a5b9a5d1a585b1a5e995960921b604082015260600190565b92915050565b600060ff82166200016a565b620001878162000170565b82525050565b602081016200016a82846200017c565b608051615f6f620001d5600039600081816108010152818161084101528181610d1901528181610d590152610de80152615f6f6000f3fe60806040526004361061023b5760003560e01c80638129fc1c1161012e578063b02d1e9e116100ab578063ddefa4ab1161006f578063ddefa4ab146106ad578063ef5cfb8c146106ce578063f6f6b881146106ee578063f887ea401461070e578063fcd2f4f71461072f57600080fd5b8063b02d1e9e1461061e578063bf52e0801461063f578063cc6522c314610655578063d547741f14610676578063dc19d6431461069657600080fd5b8063a66b5713116100f2578063a66b57131461057b578063a6f19c841461059c578063a8aa1b31146105bd578063adc9772e146105de578063ae30c110146105fe57600080fd5b80638129fc1c146104fc57806391d1485414610511578063a217fddf14610531578063a3673b3814610546578063a440b21a1461055b57600080fd5b80633ca5b234116101bc5780635ca558f8116101805780635ca558f81461043d5780635dbd733a14610453578063612c87df14610487578063620b75df146104a85780637d5f5802146104c857600080fd5b80633ca5b234146103b3578063431ac739146103d45780634f1ef286146103f4578063514e460a1461040757806352d1902d1461042857600080fd5b80632576e65a116102035780632576e65a1461030e5780632f2ff15d146103235780632f48ab7d1461034557806336568abe146103735780633659cfe61461039357600080fd5b8063012ee9281461024057806301ffc9a7146102775780630f9033f7146102a4578063119cd879146102c8578063248a9ca3146102de575b600080fd5b34801561024c57600080fd5b5061013454610261906001600160a01b031681565b60405161026e9190614c43565b60405180910390f35b34801561028357600080fd5b50610297610292366004614c73565b610746565b60405161026e9190614c9c565b3480156102b057600080fd5b506102bb6101395481565b60405161026e9190614cb0565b3480156102d457600080fd5b506102bb60fd5481565b3480156102ea57600080fd5b506102bb6102f9366004614ccf565b60009081526065602052604090206001015490565b34801561031a57600080fd5b506102bb61077d565b34801561032f57600080fd5b5061034361033e366004614d04565b61078e565b005b34801561035157600080fd5b5061012e54610366906001600160a01b031681565b60405161026e9190614d83565b34801561037f57600080fd5b5061034361038e366004614d04565b6107b8565b34801561039f57600080fd5b506103436103ae366004614d91565b6107f7565b3480156103bf57600080fd5b5061012d54610366906001600160a01b031681565b3480156103e057600080fd5b506103436103ef366004614dce565b6108d6565b610343610402366004614ee3565b610d0f565b34801561041357600080fd5b5061012f54610366906001600160a01b031681565b34801561043457600080fd5b506102bb610ddb565b34801561044957600080fd5b506102bb60fe5481565b34801561045f57600080fd5b506102bb7fd67ad422505496469a1adf6cdf9e5ee92ac5d33992843c9ecc4b2f6d6cde913781565b34801561049357600080fd5b5061013554610261906001600160a01b031681565b3480156104b457600080fd5b5060fb54610261906001600160a01b031681565b3480156104d457600080fd5b506102bb7f90c2aa7471c04182221f68e80c07ab1e5946e4c63f8693e14ca40385d529f05181565b34801561050857600080fd5b50610343610e38565b34801561051d57600080fd5b5061029761052c366004614d04565b610f06565b34801561053d57600080fd5b506102bb600081565b34801561055257600080fd5b506102bb610f31565b34801561056757600080fd5b50610343610576366004614d91565b610f3d565b34801561058757600080fd5b5061013654610366906001600160a01b031681565b3480156105a857600080fd5b5061013354610366906001600160a01b031681565b3480156105c957600080fd5b5061013154610366906001600160a01b031681565b3480156105ea57600080fd5b506103436105f9366004614f31565b611036565b34801561060a57600080fd5b50610343610619366004614f64565b611159565b34801561062a57600080fd5b5061013a54610366906001600160a01b031681565b34801561064b57600080fd5b506102bb60fc5481565b34801561066157600080fd5b5061013754610366906001600160a01b031681565b34801561068257600080fd5b50610343610691366004614d04565b61127b565b3480156106a257600080fd5b506102bb6101385481565b3480156106b957600080fd5b5061013054610366906001600160a01b031681565b3480156106da57600080fd5b506102bb6106e9366004614d91565b6112a0565b3480156106fa57600080fd5b506102bb610709366004614fc7565b6112f1565b34801561071a57600080fd5b5061013254610366906001600160a01b031681565b34801561073b57600080fd5b506102bb61013b5481565b60006001600160e01b03198216637965db0b60e01b148061077757506301ffc9a760e01b6001600160e01b03198316145b92915050565b6000610789600061150f565b905090565b6000828152606560205260409020600101546107a981611963565b6107b3838361196d565b505050565b6001600160a01b03811633146107e95760405162461bcd60e51b81526004016107e09061507a565b60405180910390fd5b6107f382826119f3565b5050565b6001600160a01b037f000000000000000000000000000000000000000000000000000000000000000016300361083f5760405162461bcd60e51b81526004016107e0906150d3565b7f00000000000000000000000000000000000000000000000000000000000000006001600160a01b0316610888600080516020615ef3833981519152546001600160a01b031690565b6001600160a01b0316146108ae5760405162461bcd60e51b81526004016107e09061512c565b6108b781611a5a565b604080516000808252602082019092526108d391839190611a65565b50565b6108e1600033610f06565b6108fd5760405162461bcd60e51b81526004016107e09061516a565b6109286040518060400160405280600a81526020016973657420706172616d7360b01b815250611b47565b6109356020820182614d91565b61012d80546001600160a01b0319166001600160a01b03929092169190911790556109666040820160208301614d91565b61012e80546001600160a01b0319166001600160a01b03929092169190911790556109976060820160408301614d91565b61012f80546001600160a01b03929092166001600160a01b031992831617905561013a8054909116730782b6d8c4551b9760e74c0545a9bcd90bdc41e51790556109e76080820160608301614d91565b61013080546001600160a01b0319166001600160a01b0392909216919091179055610a1860a0820160808301614d91565b61013180546001600160a01b0319166001600160a01b0392909216919091179055610a4960c0820160a08301614d91565b61013280546001600160a01b0319166001600160a01b0392909216919091179055610a7a60e0820160c08301614d91565b61013380546001600160a01b0319166001600160a01b0392909216919091179055610aac610100820160e08301614d91565b61013480546001600160a01b0319166001600160a01b0392909216919091179055610adf61012082016101008301614d91565b61013580546001600160a01b0319166001600160a01b0392909216919091179055610b1261014082016101208301614d91565b61013680546001600160a01b0319166001600160a01b0392909216919091179055610b4561016082016101408301614d91565b61013780546001600160a01b0319166001600160a01b0392909216919091179055610b736020820182614d91565b6001600160a01b031663313ce5676040518163ffffffff1660e01b8152600401602060405180830381865afa158015610bb0573d6000803e3d6000fd5b505050506040513d601f19601f82011682018060405250810190610bd4919061518e565b610bdf90600a6152d3565b61013855610bf36040820160208301614d91565b6001600160a01b031663313ce5676040518163ffffffff1660e01b8152600401602060405180830381865afa158015610c30573d6000803e3d6000fd5b505050506040513d601f19601f82011682018060405250810190610c54919061518e565b610c5f90600a6152d3565b61013955610c736060820160408301614d91565b6001600160a01b031663313ce5676040518163ffffffff1660e01b8152600401602060405180830381865afa158015610cb0573d6000803e3d6000fd5b505050506040513d601f19601f82011682018060405250810190610cd4919061518e565b610cdf90600a6152d3565b61013b556040517fea5646eb3528e525944447a4a97de700dd472298626e5c0481d1c82c3da86ea590600090a150565b6001600160a01b037f0000000000000000000000000000000000000000000000000000000000000000163003610d575760405162461bcd60e51b81526004016107e0906150d3565b7f00000000000000000000000000000000000000000000000000000000000000006001600160a01b0316610da0600080516020615ef3833981519152546001600160a01b031690565b6001600160a01b031614610dc65760405162461bcd60e51b81526004016107e09061512c565b610dcf82611a5a565b6107f382826001611a65565b6000306001600160a01b037f00000000000000000000000000000000000000000000000000000000000000001614610e255760405162461bcd60e51b81526004016107e090615342565b50600080516020615ef383398151915290565b600054610100900460ff1615808015610e585750600054600160ff909116105b80610e725750303b158015610e72575060005460ff166001145b610e8e5760405162461bcd60e51b81526004016107e09061539d565b6000805460ff191660011790558015610eb1576000805461ff0019166101001790555b610eb9611b8a565b80156108d3576000805461ff00191690556040517f7f26b83ff96e1f2b6a682f133852f6798a09c465da95921460cefb384740249890610efb906001906153c1565b60405180910390a150565b60009182526065602090815260408084206001600160a01b0393909316845291905290205460ff1690565b6000610789600161150f565b610f48600033610f06565b610f645760405162461bcd60e51b81526004016107e09061516a565b6001600160a01b038116610f8a5760405162461bcd60e51b81526004016107e090615403565b60fb54610fc1907f90c2aa7471c04182221f68e80c07ab1e5946e4c63f8693e14ca40385d529f051906001600160a01b031661127b565b610feb7f90c2aa7471c04182221f68e80c07ab1e5946e4c63f8693e14ca40385d529f0518261078e565b60fb80546001600160a01b0319166001600160a01b0383161790556040517ff7b449fcd5cfb7379dcd34cb69428dd9f882033b15be33d83b42d91daa28eeb790610efb908390614c43565b60006110a5306001600160a01b031663a3673b386040518163ffffffff1660e01b8152600401602060405180830381865afa158015611079573d6000803e3d6000fd5b505050506040513d601f19601f8201168201806040525081019061109d919061541e565b60fd54611c6f565b905061111d83846001600160a01b03166370a08231306040518263ffffffff1660e01b81526004016110d79190614c43565b602060405180830381865afa1580156110f4573d6000803e3d6000fd5b505050506040513d601f19601f82011682018060405250810190611118919061541e565b611c99565b7f227a473b70d2f893cc7659219575c030a63b5743024fe1e0c1a680e708b1525a8260405161114c9190614cb0565b60405180910390a1505050565b6111837fd67ad422505496469a1adf6cdf9e5ee92ac5d33992843c9ecc4b2f6d6cde913733610f06565b8061121c575060fb54604051632474521560e21b81526001600160a01b03909116906391d14854906111db907fd67ad422505496469a1adf6cdf9e5ee92ac5d33992843c9ecc4b2f6d6cde913790339060040161543f565b602060405180830381865afa1580156111f8573d6000803e3d6000fd5b505050506040513d601f19601f8201168201806040525081019061121c9190615465565b6112385760405162461bcd60e51b81526004016107e0906154c5565b60fc83905560fd82905560fe8190556040517f116fbf1e97a2be629ad98abfb6c332733c8996c2dfb174dd2efe8440df381d1a9061114c908590859085906154d5565b60008281526065602052604090206001015461129681611963565b6107b383836119f3565b6000806112ac836126d9565b90508015610777577f3ac0594a85a20354f9dc74f33728416d19ce00d04a406c108cc2dcf2cecea134816040516112e39190614cb0565b60405180910390a192915050565b600080611335306001600160a01b031663a3673b386040518163ffffffff1660e01b8152600401602060405180830381865afa158015611079573d6000803e3d6000fd5b9050600080841561135c57611349866126d9565b90506113558887612d2d565b9150611389565b6113678888886133b6565b9150868210156113895760405162461bcd60e51b81526004016107e090615543565b82306001600160a01b031663a3673b386040518163ffffffff1660e01b8152600401602060405180830381865afa1580156113c8573d6000803e3d6000fd5b505050506040513d601f19601f820116820180604052508101906113ec919061541e565b101561140a5760405162461bcd60e51b81526004016107e090615587565b60405163a9059cbb60e01b81526001600160a01b0389169063a9059cbb906114389089908690600401615597565b6020604051808303816000875af1158015611457573d6000803e3d6000fd5b505050506040513d601f19601f8201168201806040525081019061147b9190615465565b507f9045c2ac9b2026de8075f2701bbdde882cd5e830b3b1ead9a15b22f2b5b9374287836040516114ad9291906155b2565b60405180910390a180156114f3577f3ac0594a85a20354f9dc74f33728416d19ce00d04a406c108cc2dcf2cecea134816040516114ea9190614cb0565b60405180910390a15b509150505b949350505050565b6001600160a01b03163b151590565b61012d546040516370a0823160e01b815260009182916001600160a01b03909116906370a0823190611545903090600401614c43565b602060405180830381865afa158015611562573d6000803e3d6000fd5b505050506040513d601f19601f82011682018060405250810190611586919061541e565b61012e546040516370a0823160e01b81529192506000916001600160a01b03909116906370a08231906115bd903090600401614c43565b602060405180830381865afa1580156115da573d6000803e3d6000fd5b505050506040513d601f19601f820116820180604052508101906115fe919061541e565b61012f546040516370a0823160e01b81529192506000916001600160a01b03909116906370a0823190611635903090600401614c43565b602060405180830381865afa158015611652573d6000803e3d6000fd5b505050506040513d601f19601f82011682018060405250810190611676919061541e565b610133546040516370a0823160e01b81529192506000916001600160a01b03909116906370a08231906116ad903090600401614c43565b602060405180830381865afa1580156116ca573d6000803e3d6000fd5b505050506040513d601f19601f820116820180604052508101906116ee919061541e565b90508015611808576101325461012e5461012f5461013154604080516309047bdd60e01b8152905160009586956001600160a01b0391821695634386e63c95918316949083169391909216916309047bdd9160048083019260209291908290030181865afa158015611764573d6000803e3d6000fd5b505050506040513d601f19601f820116820180604052508101906117889190615465565b876040518563ffffffff1660e01b81526004016117a894939291906155c0565b6040805180830381865afa1580156117c4573d6000803e3d6000fd5b505050506040513d601f19601f820116820180604052508101906117e891906155f5565b90925090506117f78286615628565b94506118038185615628565b935050505b82156118865785156118515761013954610138546101375461013654611840938793909290916001600160a01b039182169116613d29565b61184a9085615628565b9350611886565b6101325461012e5461012d54611879926001600160a01b039081169281169116600187613d79565b6118839085615628565b93505b8115611959576101325461012f5461012e5461013154604080516309047bdd60e01b8152905160009561191f956001600160a01b039182169590821694908216939116916309047bdd916004808201926020929091908290030181865afa1580156118f5573d6000803e3d6000fd5b505050506040513d601f19601f820116820180604052508101906119199190615465565b87613d79565b6101325461012e5461012d5492935061194b926001600160a01b03928316929182169116600185613d79565b6119559086615628565b9450505b5091949350505050565b6108d38133613ef2565b6119778282610f06565b6107f35760008281526065602090815260408083206001600160a01b03851684529091529020805460ff191660011790556119af3390565b6001600160a01b0316816001600160a01b0316837f2f8788117e7eff1d82e926ec794901d17c78024a50270940304540a733656f0d60405160405180910390a45050565b6119fd8282610f06565b156107f35760008281526065602090815260408083206001600160a01b0385168085529252808320805460ff1916905551339285917ff6391f5c32d9c69d2a47ea670b442974b53935d1edc7fd64eb21e047a839171b9190a45050565b60006107f381611963565b7f4910fdfa16fed3260ed0e7147f7cc6da11a60208b5b9406d12a635614ffd91435460ff1615611a98576107b383613f4b565b826001600160a01b03166352d1902d6040518163ffffffff1660e01b8152600401602060405180830381865afa925050508015611af2575060408051601f3d908101601f19168201909252611aef9181019061541e565b60015b611b0e5760405162461bcd60e51b81526004016107e090615686565b600080516020615ef38339815191528114611b3b5760405162461bcd60e51b81526004016107e0906156dc565b506107b3838383613fa1565b6108d381604051602401611b5b9190615742565b60408051601f198184030181529190526020810180516001600160e01b031663104c13eb60e21b179052613fcc565b600054610100900460ff1615808015611baa5750600054600160ff909116105b80611bc45750303b158015611bc4575060005460ff166001145b611be05760405162461bcd60e51b81526004016107e09061539d565b6000805460ff191660011790558015611c03576000805461ff0019166101001790555b611c0b613fed565b611c13613fed565b611c1e60003361196d565b601960fc81905560fd55600460fe5580156108d3576000805461ff00191690556040517f7f26b83ff96e1f2b6a682f133852f6798a09c465da95921460cefb384740249890610efb906001906153c1565b6000612710611c7e8382615753565b611c889085615766565b611c92919061579b565b9392505050565b61012d546001600160a01b03838116911614611cc75760405162461bcd60e51b81526004016107e0906157da565b60008061013160009054906101000a90046001600160a01b03166001600160a01b0316630902f1ac6040518163ffffffff1660e01b8152600401606060405180830381865afa158015611d1e573d6000803e3d6000fd5b505050506040513d601f19601f82011682018060405250810190611d4291906157ea565b5061012d546040516370a0823160e01b81529294509092506000916001600160a01b03909116906370a0823190611d7d903090600401614c43565b602060405180830381865afa158015611d9a573d6000803e3d6000fd5b505050506040513d601f19601f82011682018060405250810190611dbe919061541e565b61013854610139546101365461013754939450600093611df0938693909290916001600160a01b039182169116613d29565b9050611e2e6040518060400160405280600f81526020016e6d696e696d756d206f75743a20257360881b815250611e298360fc54611c6f565b614016565b6101325461012d5461012e54611e59926001600160a01b03908116928116911660018660003061405b565b5061012e546040516370a0823160e01b81526000916001600160a01b0316906370a0823190611e8c903090600401614c43565b602060405180830381865afa158015611ea9573d6000803e3d6000fd5b505050506040513d601f19601f82011682018060405250810190611ecd919061541e565b6101325461012e5461012f5461013154604080516309047bdd60e01b81529051959650600095611f69956001600160a01b039081169581169481169316916309047bdd9160048083019260209291908290030181865afa158015611f35573d6000803e3d6000fd5b505050506040513d601f19601f82011682018060405250810190611f599190615465565b868b8b6101395461013b5461428f565b9050611f7a64e8d4a510008261579b565b9050611fbc6040518060400160405280601b81526020017f757364745174793a20257320757364506c7573537761703a2025730000000000815250838361431b565b6101325461012e5461012f5461013154604080516309047bdd60e01b81529051612059956001600160a01b039081169581169481169316916309047bdd9160048083019260209291908290030181865afa15801561201e573d6000803e3d6000fd5b505050506040513d601f19601f820116820180604052508101906120429190615465565b6120518664e8d4a51000615766565b60003061405b565b5061012f546040516370a0823160e01b81526000916001600160a01b0316906370a082319061208c903090600401614c43565b602060405180830381865afa1580156120a9573d6000803e3d6000fd5b505050506040513d601f19601f820116820180604052508101906120cd919061541e565b61012e546040516370a0823160e01b81529192506001600160a01b0316906370a08231906120ff903090600401614c43565b602060405180830381865afa15801561211c573d6000803e3d6000fd5b505050506040513d601f19601f82011682018060405250810190612140919061541e565b61012e546101325460405163095ea7b360e01b81529295506001600160a01b039182169263095ea7b39261217a9216908790600401615597565b6020604051808303816000875af1158015612199573d6000803e3d6000fd5b505050506040513d601f19601f820116820180604052508101906121bd9190615465565b5061012f546101325460405163095ea7b360e01b81526001600160a01b039283169263095ea7b3926121f6929116908590600401615597565b6020604051808303816000875af1158015612215573d6000803e3d6000fd5b505050506040513d601f19601f820116820180604052508101906122399190615465565b506101325461012e5461012f5461013154604080516309047bdd60e01b815290516000956122cd956001600160a01b039182169590821694908216939116916309047bdd916004808201926020929091908290030181865afa1580156122a3573d6000803e3d6000fd5b505050506040513d601f19601f820116820180604052508101906122c79190615465565b88613d79565b90508181111561247e576101325461012f5461012e5461013154604080516309047bdd60e01b81529051612363956001600160a01b039081169581169481169316916309047bdd9160048083019260209291908290030181865afa158015612339573d6000803e3d6000fd5b505050506040513d601f19601f8201168201806040525081019061235d9190615465565b86613d79565b6101325461012e5461012f5461013154604080516309047bdd60e01b815290519596506001600160a01b0394851695635a47ddc3959485169493841693909216916309047bdd916004808201926020929091908290030181865afa1580156123cf573d6000803e3d6000fd5b505050506040513d601f19601f820116820180604052508101906123f39190615465565b85876124018860fc54611c6f565b61240d8a60fc54611c6f565b30426040518a63ffffffff1660e01b815260040161243399989796959493929190615830565b6060604051808303816000875af1158015612452573d6000803e3d6000fd5b505050506040513d601f19601f8201168201806040525081019061247691906157ea565b505050612578565b6101325461012e5461012f5461013154604080516309047bdd60e01b815290516001600160a01b0395861695635a47ddc39581169481169316916309047bdd9160048083019260209291908290030181865afa1580156124e2573d6000803e3d6000fd5b505050506040513d601f19601f820116820180604052508101906125069190615465565b888760008030426040518a63ffffffff1660e01b8152600401612531999897969594939291906158cb565b6060604051808303816000875af1158015612550573d6000803e3d6000fd5b505050506040513d601f19601f8201168201806040525081019061257491906157ea565b5050505b610131546040516370a0823160e01b81526000916001600160a01b0316906370a08231906125aa903090600401614c43565b602060405180830381865afa1580156125c7573d6000803e3d6000fd5b505050506040513d601f19601f820116820180604052508101906125eb919061541e565b610131546101335460405163095ea7b360e01b81529293506001600160a01b039182169263095ea7b3926126259216908590600401615597565b6020604051808303816000875af1158015612644573d6000803e3d6000fd5b505050506040513d601f19601f820116820180604052508101906126689190615465565b506101335460405163b6b55f2560e01b81526001600160a01b039091169063b6b55f259061269a908490600401614cb0565b600060405180830381600087803b1580156126b457600080fd5b505af11580156126c8573d6000803e3d6000fd5b505050505050505050505050505050565b610133546040516370a0823160e01b815260009182916001600160a01b03909116906370a082319061270f903090600401614c43565b602060405180830381865afa15801561272c573d6000803e3d6000fd5b505050506040513d601f19601f82011682018060405250810190612750919061541e565b905080156127c25761013360009054906101000a90046001600160a01b03166001600160a01b0316633d18b9126040518163ffffffff1660e01b8152600401600060405180830381600087803b1580156127a957600080fd5b505af11580156127bd573d6000803e3d6000fd5b505050505b610130546040516370a0823160e01b815260009182916001600160a01b03909116906370a08231906127f8903090600401614c43565b602060405180830381865afa158015612815573d6000803e3d6000fd5b505050506040513d601f19601f82011682018060405250810190612839919061541e565b905080156128b757610132546101305461012d5460009261286c926001600160a01b039182169290821691168486613d79565b905080156128b557610132546101305461012d546128a8926001600160a01b0390811692811691166000866128a287600a611c6f565b3061405b565b6128b29084615628565b92505b505b61012f546040516370a0823160e01b81526000916001600160a01b0316906370a08231906128e9903090600401614c43565b602060405180830381865afa158015612906573d6000803e3d6000fd5b505050506040513d601f19601f8201168201806040525081019061292a919061541e565b1115612ad057604080518082018252601281527173656c6c696e6720257320757364506c757360701b602082015261012f5491516370a0823160e01b81526129cb926001600160a01b0316906370a082319061298a903090600401614c43565b602060405180830381865afa1580156129a7573d6000803e3d6000fd5b505050506040513d601f19601f82011682018060405250810190611e29919061541e565b6101325461012f5461012e546040516370a0823160e01b8152612ace936001600160a01b0390811693811692169060009083906370a0823190612a12903090600401614c43565b602060405180830381865afa158015612a2f573d6000803e3d6000fd5b505050506040513d601f19601f82011682018060405250810190612a53919061541e565b61012f546040516370a0823160e01b81526128a2916001600160a01b0316906370a0823190612a86903090600401614c43565b602060405180830381865afa158015612aa3573d6000803e3d6000fd5b505050506040513d601f19601f82011682018060405250810190612ac7919061541e565b600a611c6f565b505b61012e546040516370a0823160e01b81526000916001600160a01b0316906370a0823190612b02903090600401614c43565b602060405180830381865afa158015612b1f573d6000803e3d6000fd5b505050506040513d601f19601f82011682018060405250810190612b43919061541e565b1115612c6857604080518082018252600f81526e1cd95b1b1a5b99c8095cc81d5cd91d608a1b602082015261012e5491516370a0823160e01b8152612ba0926001600160a01b0316906370a082319061298a903090600401614c43565b6101325461012e5461012d546040516370a0823160e01b8152612c5b936001600160a01b0390811693811692169060019083906370a0823190612be7903090600401614c43565b602060405180830381865afa158015612c04573d6000803e3d6000fd5b505050506040513d601f19601f82011682018060405250810190612c28919061541e565b61012e546040516370a0823160e01b81526128a2916001600160a01b0316906370a0823190612a86903090600401614c43565b612c659083615628565b91505b8115612ce65761012d5460405163a9059cbb60e01b81526001600160a01b039091169063a9059cbb90612ca19088908690600401615597565b6020604051808303816000875af1158015612cc0573d6000803e3d6000fd5b505050506040513d601f19601f82011682018060405250810190612ce49190615465565b505b612d256040518060400160405280601d81526020017f7265776172647320636c61696d65642066726f6d205553442b3a20257300000081525083614016565b509392505050565b61012d546000906001600160a01b03848116911614612d5e5760405162461bcd60e51b81526004016107e09061595c565b610133546040516370a0823160e01b81526000916001600160a01b0316906370a0823190612d90903090600401614c43565b602060405180830381865afa158015612dad573d6000803e3d6000fd5b505050506040513d601f19601f82011682018060405250810190612dd1919061541e565b61013354604051632e1a7d4d60e01b81529192506001600160a01b031690632e1a7d4d90612e03908490600401614cb0565b600060405180830381600087803b158015612e1d57600080fd5b505af1158015612e31573d6000803e3d6000fd5b50506101325461012e5461012f5461013154604080516309047bdd60e01b81529051600097508796506001600160a01b0395861695634386e63c9581169481169316916309047bdd9160048083019260209291908290030181865afa158015612e9e573d6000803e3d6000fd5b505050506040513d601f19601f82011682018060405250810190612ec29190615465565b876040518563ffffffff1660e01b8152600401612ee294939291906155c0565b6040805180830381865afa158015612efe573d6000803e3d6000fd5b505050506040513d601f19601f82011682018060405250810190612f2291906155f5565b610131546101325460405163095ea7b360e01b81529395509193506001600160a01b039081169263095ea7b392612f5f9216908790600401615597565b6020604051808303816000875af1158015612f7e573d6000803e3d6000fd5b505050506040513d601f19601f82011682018060405250810190612fa29190615465565b506101325461012e5461012f5461013154604080516309047bdd60e01b815290516001600160a01b0395861695630dede6c49581169481169316916309047bdd9160048083019260209291908290030181865afa158015613007573d6000803e3d6000fd5b505050506040513d601f19601f8201168201806040525081019061302b9190615465565b876130388860fc54611c6f565b6130448860fc54611c6f565b30426040518963ffffffff1660e01b815260040161306998979695949392919061596c565b60408051808303816000875af1158015613087573d6000803e3d6000fd5b505050506040513d601f19601f820116820180604052508101906130ab91906155f5565b505061012f546040516370a0823160e01b81526000916001600160a01b0316906370a08231906130df903090600401614c43565b602060405180830381865afa1580156130fc573d6000803e3d6000fd5b505050506040513d601f19601f82011682018060405250810190613120919061541e565b6101325461012f5461012e5461013154604080516309047bdd60e01b81529051959650600095613188956001600160a01b039081169581169481169316916309047bdd9160048083019260209291908290030181865afa158015612339573d6000803e3d6000fd5b90508015613224576101325461012f5461012e5461013154604080516309047bdd60e01b81529051613222956001600160a01b039081169581169481169316916309047bdd9160048083019260209291908290030181865afa1580156131f2573d6000803e3d6000fd5b505050506040513d601f19601f820116820180604052508101906132169190615465565b866128a28860b4611c6f565b505b61012e546040516370a0823160e01b81526000916001600160a01b0316906370a0823190613256903090600401614c43565b602060405180830381865afa158015613273573d6000803e3d6000fd5b505050506040513d601f19601f82011682018060405250810190613297919061541e565b6101325461012e5461012d549293506132c3926001600160a01b03928316929182169116600185613d79565b9150811561333757610139546101385461013754610136546000936132fa938693919290916001600160a01b039081169116613d29565b6101325461012e5461012d5460fc54939450613334936001600160a01b0393841693928316929091169060019087906128a2908890611c6f565b50505b61012d546040516370a0823160e01b81526001600160a01b03909116906370a0823190613368903090600401614c43565b602060405180830381865afa158015613385573d6000803e3d6000fd5b505050506040513d601f19601f820116820180604052508101906133a9919061541e565b9998505050505050505050565b61012d546000906001600160a01b038581169116146133e75760405162461bcd60e51b81526004016107e09061595c565b61013154604080516318160ddd60e01b815290516000926001600160a01b0316916318160ddd9160048083019260209291908290030181865afa158015613432573d6000803e3d6000fd5b505050506040513d601f19601f82011682018060405250810190613456919061541e565b905060008061013160009054906101000a90046001600160a01b03166001600160a01b0316630902f1ac6040518163ffffffff1660e01b8152600401606060405180830381865afa1580156134af573d6000803e3d6000fd5b505050506040513d601f19601f820116820180604052508101906134d391906157ea565b506101325461012e5461012f5461013154604080516309047bdd60e01b81529051969850949650600095613587956001600160a01b03958616959485169493841693909216916309047bdd9160048083019260209291908290030181865afa158015613543573d6000803e3d6000fd5b505050506040513d601f19601f820116820180604052508101906135679190615465565b6135778c6509184e72a000615628565b8989896101385461013954614362565b610133546040516370a0823160e01b81529192506000916001600160a01b03909116906370a08231906135be903090600401614c43565b602060405180830381865afa1580156135db573d6000803e3d6000fd5b505050506040513d601f19601f820116820180604052508101906135ff919061541e565b90508082111561360d578091505b61013354604051632e1a7d4d60e01b81526001600160a01b0390911690632e1a7d4d9061363e908590600401614cb0565b600060405180830381600087803b15801561365857600080fd5b505af115801561366c573d6000803e3d6000fd5b50506101325461012e5461012f5461013154604080516309047bdd60e01b81529051600097508796506001600160a01b0395861695634386e63c9581169481169316916309047bdd9160048083019260209291908290030181865afa1580156136d9573d6000803e3d6000fd5b505050506040513d601f19601f820116820180604052508101906136fd9190615465565b886040518563ffffffff1660e01b815260040161371d94939291906155c0565b6040805180830381865afa158015613739573d6000803e3d6000fd5b505050506040513d601f19601f8201168201806040525081019061375d91906155f5565b610131546101325460405163095ea7b360e01b81529395509193506001600160a01b039081169263095ea7b39261379a9216908890600401615597565b6020604051808303816000875af11580156137b9573d6000803e3d6000fd5b505050506040513d601f19601f820116820180604052508101906137dd9190615465565b506101325461012e5461012f5461013154604080516309047bdd60e01b815290516001600160a01b0395861695630dede6c49581169481169316916309047bdd9160048083019260209291908290030181865afa158015613842573d6000803e3d6000fd5b505050506040513d601f19601f820116820180604052508101906138669190615465565b886138738860fc54611c6f565b61387f8860fc54611c6f565b30426040518963ffffffff1660e01b81526004016138a498979695949392919061596c565b60408051808303816000875af11580156138c2573d6000803e3d6000fd5b505050506040513d601f19601f820116820180604052508101906138e691906155f5565b505061012e546040516370a0823160e01b81526000916001600160a01b0316906370a082319061391a903090600401614c43565b602060405180830381865afa158015613937573d6000803e3d6000fd5b505050506040513d601f19601f8201168201806040525081019061395b919061541e565b6101325461012e5461012d54929350600092613989926001600160a01b039081169281169116600186613d79565b905080156139fd57610139546101385461013754610136546000936139c0938793919290916001600160a01b039081169116613d29565b6101325461012e5461012d5460fc549394506139fa936001600160a01b0393841693928316929091169060019088906128a2908890611c6f565b50505b61012f546040516370a0823160e01b81526000916001600160a01b0316906370a0823190613a2f903090600401614c43565b602060405180830381865afa158015613a4c573d6000803e3d6000fd5b505050506040513d601f19601f82011682018060405250810190613a70919061541e565b6101325461012f5461012e5461012d5461013154604080516309047bdd60e01b81529051969750613b84966001600160a01b0396871696958616959485169493841693909216916309047bdd916004808201926020929091908290030181865afa158015613ae2573d6000803e3d6000fd5b505050506040513d601f19601f82011682018060405250810190613b069190615465565b61013160009054906101000a90046001600160a01b03166001600160a01b03166309047bdd6040518163ffffffff1660e01b8152600401602060405180830381865afa158015613b5a573d6000803e3d6000fd5b505050506040513d601f19601f82011682018060405250810190613b7e9190615465565b8761441b565b91508115613ca5576101325461012f5461012e5461012d5461013154604080516309047bdd60e01b81529051613ca3966001600160a01b039081169681169581169481169316916309047bdd9160048083019260209291908290030181865afa158015613bf5573d6000803e3d6000fd5b505050506040513d601f19601f82011682018060405250810190613c199190615465565b61013160009054906101000a90046001600160a01b03166001600160a01b03166309047bdd6040518163ffffffff1660e01b8152600401602060405180830381865afa158015613c6d573d6000803e3d6000fd5b505050506040513d601f19601f82011682018060405250810190613c919190615465565b87613c9d8a60b4611c6f565b3061461a565b505b61012d546040516370a0823160e01b81526001600160a01b03909116906370a0823190613cd6903090600401614c43565b602060405180830381865afa158015613cf3573d6000803e3d6000fd5b505050506040513d601f19601f82011682018060405250810190613d17919061541e565b9e9d5050505050505050505050505050565b600080613d35846148ab565b90506000613d42846148ab565b9050613d4e8188615766565b82613d59888b615766565b613d639190615766565b613d6d919061579b565b98975050505050505050565b604080516001808252818301909252600091829190816020015b6040805160608101825260008082526020808301829052928201528252600019909201910181613d935790505090508581600081518110613dd657613dd66159d6565b6020026020010151600001906001600160a01b031690816001600160a01b0316815250508481600081518110613e0e57613e0e6159d6565b6020026020010151602001906001600160a01b031690816001600160a01b0316815250508381600081518110613e4657613e466159d6565b6020908102919091010151901515604091820152516326207f2d60e21b81526001600160a01b03881690639881fcb490613e869086908590600401615a80565b600060405180830381865afa158015613ea3573d6000803e3d6000fd5b505050506040513d6000823e601f3d908101601f19168201604052613ecb9190810190615b43565b600181518110613edd57613edd6159d6565b60200260200101519150505b95945050505050565b613efc8282610f06565b6107f357613f0981614980565b613f14836020614992565b604051602001613f25929190615ba0565b60408051601f198184030181529082905262461bcd60e51b82526107e091600401615742565b6001600160a01b0381163b613f725760405162461bcd60e51b81526004016107e090615c42565b600080516020615ef383398151915280546001600160a01b0319166001600160a01b0392909216919091179055565b613faa83614afe565b600082511180613fb75750805b156107b357613fc68383614b3e565b50505050565b80516a636f6e736f6c652e6c6f67602083016000808483855afa5050505050565b600054610100900460ff166140145760405162461bcd60e51b81526004016107e090615c9a565b565b6107f3828260405160240161402c929190615caa565b60408051601f198184030181529190526020810180516001600160e01b0316632d839cb360e21b179052613fcc565b60405163095ea7b360e01b81526000906001600160a01b0388169063095ea7b39061408c908b908890600401615597565b6020604051808303816000875af11580156140ab573d6000803e3d6000fd5b505050506040513d601f19601f820116820180604052508101906140cf9190615465565b506141106040518060400160405280601881526020017f7468656e61207377617020696e3a202573206f75742025730000000000000000815250858561431b565b604080516001808252818301909252600091816020015b6040805160608101825260008082526020808301829052928201528252600019909201910181614127579050509050878160008151811061416a5761416a6159d6565b6020026020010151600001906001600160a01b031690816001600160a01b03168152505086816000815181106141a2576141a26159d6565b6020026020010151602001906001600160a01b031690816001600160a01b03168152505085816000815181106141da576141da6159d6565b602090810291909101015190151560409182015251631e82ecdb60e31b81526001600160a01b038a169063f41766d8906142209088908890869089904290600401615cca565b6000604051808303816000875af115801561423f573d6000803e3d6000fd5b505050506040513d6000823e601f3d908101601f191682016040526142679190810190615b43565b600181518110614279576142796159d6565b6020026020010151915050979650505050505050565b6000838361429d8488615766565b6142a7919061579b565b6142b19190615628565b6142bb8588615766565b6142c5919061579b565b905060006142d68b8b8b8b86613d79565b905084826142e48389615766565b6142ee919061579b565b6142f89190615628565b6143028689615766565b61430c919061579b565b9b9a5050505050505050505050565b6107b383838360405160240161433393929190615d1d565b60408051601f198184030181529190526020810180516001600160e01b031663ca47c4eb60e01b179052613fcc565b600061436e8385615766565b6143788387615766565b6143829190615628565b8261438d8989615766565b6143979190615766565b6143a1919061579b565b90506000866143b08387615766565b6143ba919061579b565b905060006143cb8d8c8e8d86613d79565b90506143d78187615766565b6143e18389615766565b6143eb9190615628565b826143f68b8b615766565b6144009190615766565b61440a919061579b565b9d9c50505050505050505050505050565b60408051600280825260608201909252600091829190816020015b60408051606081018252600080825260208083018290529282015282526000199092019101816144365790505090508781600081518110614479576144796159d6565b6020026020010151600001906001600160a01b031690816001600160a01b03168152505086816000815181106144b1576144b16159d6565b6020026020010151602001906001600160a01b031690816001600160a01b03168152505084816000815181106144e9576144e96159d6565b602002602001015160400190151590811515815250508681600181518110614513576145136159d6565b6020026020010151600001906001600160a01b031690816001600160a01b031681525050858160018151811061454b5761454b6159d6565b6020026020010151602001906001600160a01b031690816001600160a01b0316815250508381600181518110614583576145836159d6565b6020908102919091010151901515604091820152516326207f2d60e21b81526001600160a01b038a1690639881fcb4906145c39086908590600401615a80565b600060405180830381865afa1580156145e0573d6000803e3d6000fd5b505050506040513d6000823e601f3d908101601f191682016040526146089190810190615b43565b600281518110614279576142796159d6565b60405163095ea7b360e01b81526000906001600160a01b038a169063095ea7b39061464b908d908890600401615597565b6020604051808303816000875af115801561466a573d6000803e3d6000fd5b505050506040513d601f19601f8201168201806040525081019061468e9190615465565b5060408051600280825260608201909252600091816020015b60408051606081018252600080825260208083018290529282015282526000199092019101816146a757905050905089816000815181106146ea576146ea6159d6565b6020026020010151600001906001600160a01b031690816001600160a01b0316815250508881600081518110614722576147226159d6565b6020026020010151602001906001600160a01b031690816001600160a01b031681525050868160008151811061475a5761475a6159d6565b602002602001015160400190151590811515815250508881600181518110614784576147846159d6565b6020026020010151600001906001600160a01b031690816001600160a01b03168152505087816001815181106147bc576147bc6159d6565b6020026020010151602001906001600160a01b031690816001600160a01b03168152505085816001815181106147f4576147f46159d6565b602090810291909101015190151560409182015251631e82ecdb60e31b81526001600160a01b038c169063f41766d89061483a9088908890869089904290600401615cca565b6000604051808303816000875af1158015614859573d6000803e3d6000fd5b505050506040513d6000823e601f3d908101601f191682016040526148819190810190615b43565b600281518110614893576148936159d6565b60200260200101519150509998505050505050505050565b6000806000806000856001600160a01b031663feaf968c6040518163ffffffff1660e01b815260040160a060405180830381865afa1580156148f1573d6000803e3d6000fd5b505050506040513d601f19601f820116820180604052508101906149159190615d5a565b9450945050935093508369ffffffffffffffffffff168169ffffffffffffffffffff1610156149565760405162461bcd60e51b81526004016107e090615df1565b600082116149765760405162461bcd60e51b81526004016107e090615e2a565b5090949350505050565b60606107776001600160a01b03831660145b606060006149a1836002615766565b6149ac906002615628565b67ffffffffffffffff8111156149c4576149c4614df0565b6040519080825280601f01601f1916602001820160405280156149ee576020820181803683370190505b509050600360fc1b81600081518110614a0957614a096159d6565b60200101906001600160f81b031916908160001a905350600f60fb1b81600181518110614a3857614a386159d6565b60200101906001600160f81b031916908160001a9053506000614a5c846002615766565b614a67906001615628565b90505b6001811115614adf576f181899199a1a9b1b9c1cb0b131b232b360811b85600f1660108110614a9b57614a9b6159d6565b1a60f81b828281518110614ab157614ab16159d6565b60200101906001600160f81b031916908160001a90535060049490941c93614ad881615e3a565b9050614a6a565b508315611c925760405162461bcd60e51b81526004016107e090615e83565b614b0781613f4b565b6040516001600160a01b038216907fbc7cd75a20ee27fd9adebab32041f755214dbc6bffa90cc0225b39da2e5c2d3b90600090a250565b60606001600160a01b0383163b614b675760405162461bcd60e51b81526004016107e090615ed6565b600080846001600160a01b031684604051614b829190615ee6565b600060405180830381855af49150503d8060008114614bbd576040519150601f19603f3d011682016040523d82523d6000602084013e614bc2565b606091505b5091509150613ee98282604051806060016040528060278152602001615f136027913960608315614bf4575081611c92565b611c928383815115614c095781518083602001fd5b8060405162461bcd60e51b81526004016107e09190615742565b60006001600160a01b038216610777565b614c3d81614c23565b82525050565b602081016107778284614c34565b6001600160e01b031981165b81146108d357600080fd5b803561077781614c51565b600060208284031215614c8857614c88600080fd5b60006114f88484614c68565b801515614c3d565b602081016107778284614c94565b80614c3d565b602081016107778284614caa565b80614c5d565b803561077781614cbe565b600060208284031215614ce457614ce4600080fd5b60006114f88484614cc4565b614c5d81614c23565b803561077781614cf0565b60008060408385031215614d1a57614d1a600080fd5b6000614d268585614cc4565b9250506020614d3785828601614cf9565b9150509250929050565b60006107776001600160a01b038316614d58565b90565b6001600160a01b031690565b600061077782614d41565b600061077782614d64565b614c3d81614d6f565b602081016107778284614d7a565b600060208284031215614da657614da6600080fd5b60006114f88484614cf9565b60006101608284031215614dc857614dc8600080fd5b50919050565b60006101608284031215614de457614de4600080fd5b60006114f88484614db2565b634e487b7160e01b600052604160045260246000fd5b601f19601f830116810181811067ffffffffffffffff82111715614e2c57614e2c614df0565b6040525050565b6000614e3e60405190565b9050614e4a8282614e06565b919050565b600067ffffffffffffffff821115614e6957614e69614df0565b601f19601f83011660200192915050565b82818337506000910152565b6000614e99614e9484614e4f565b614e33565b905082815260208101848484011115614eb457614eb4600080fd5b612d25848285614e7a565b600082601f830112614ed357614ed3600080fd5b81356114f8848260208601614e86565b60008060408385031215614ef957614ef9600080fd5b6000614f058585614cf9565b925050602083013567ffffffffffffffff811115614f2557614f25600080fd5b614d3785828601614ebf565b60008060408385031215614f4757614f47600080fd5b6000614f538585614cf9565b9250506020614d3785828601614cc4565b600080600060608486031215614f7c57614f7c600080fd5b6000614f888686614cc4565b9350506020614f9986828701614cc4565b9250506040614faa86828701614cc4565b9150509250925092565b801515614c5d565b803561077781614fb4565b60008060008060808587031215614fe057614fe0600080fd5b6000614fec8787614cf9565b9450506020614ffd87828801614cc4565b935050604061500e87828801614cf9565b925050606061501f87828801614fbc565b91505092959194509250565b602f81526000602082017f416363657373436f6e74726f6c3a2063616e206f6e6c792072656e6f756e636581526e103937b632b9903337b91039b2b63360891b602082015291505b5060400190565b602080825281016107778161502b565b602c81526000602082017f46756e6374696f6e206d7573742062652063616c6c6564207468726f7567682081526b19195b1959d85d1958d85b1b60a21b60208201529150615073565b602080825281016107778161508a565b602c81526000602082017f46756e6374696f6e206d7573742062652063616c6c6564207468726f7567682081526b6163746976652070726f787960a01b60208201529150615073565b60208082528101610777816150e3565b60148152600060208201735265737472696374656420746f2061646d696e7360601b815291505b5060200190565b602080825281016107778161513c565b60ff8116614c5d565b80516107778161517a565b6000602082840312156151a3576151a3600080fd5b60006114f88484615183565b634e487b7160e01b600052601160045260246000fd5b80825b6001851115615204578086048111156151e3576151e36151af565b60018516156151f157908102905b80026151fd8560011c90565b94506151c8565b94509492505050565b60008261521c57506001611c92565b8161522957506000611c92565b816001811461523f576002811461524957615276565b6001915050611c92565b60ff84111561525a5761525a6151af565b8360020a915084821115615270576152706151af565b50611c92565b5060208310610133831016604e8410600b84101617156152a9575081810a838111156152a4576152a46151af565b611c92565b6152b684848460016151c5565b925090508184048111156152cc576152cc6151af565b0292915050565b600060ff83169250611c92600019848461520d565b603881526000602082017f555550535570677261646561626c653a206d757374206e6f742062652063616c81527f6c6564207468726f7567682064656c656761746563616c6c000000000000000060208201529150615073565b60208082528101610777816152e8565b602e81526000602082017f496e697469616c697a61626c653a20636f6e747261637420697320616c72656181526d191e481a5b9a5d1a585b1a5e995960921b60208201529150615073565b6020808252810161077781615352565b600060ff8216610777565b614c3d816153ad565b6020810161077782846153b8565b601881526000602082017f5a65726f2061646472657373206e6f7420616c6c6f776564000000000000000081529150615163565b60208082528101610777816153cf565b805161077781614cbe565b60006020828403121561543357615433600080fd5b60006114f88484615413565b6040810161544d8285614caa565b611c926020830184614c34565b805161077781614fb4565b60006020828403121561547a5761547a600080fd5b60006114f8848461545a565b602281526000602082017f5265737472696374656420746f20504f5254464f4c494f5f4147454e545f524f8152614c4560f01b60208201529150615073565b6020808252810161077781615486565b606081016154e38286614caa565b6154f06020830185614caa565b6114f86040830184614caa565b602981526000602082017f52657475726e65642076616c7565206c657373207468616e2072657175657374815268195908185b5bdd5b9d60ba1b60208201529150615073565b60208082528101610777816154fd565b601f81526000602082017f5374726174656779204e4156206c657373207468616e2065787065637465640081529150615163565b6020808252810161077781615553565b604081016155a58285614c34565b611c926020830184614caa565b604081016155a58285614caa565b608081016155ce8287614c34565b6155db6020830186614c34565b6155e86040830185614c94565b613ee96060830184614caa565b6000806040838503121561560b5761560b600080fd5b60006156178585615413565b9250506020614d3785828601615413565b80820180821115610777576107776151af565b602e81526000602082017f45524331393637557067726164653a206e657720696d706c656d656e7461746981526d6f6e206973206e6f74205555505360901b60208201529150615073565b602080825281016107778161563b565b602981526000602082017f45524331393637557067726164653a20756e737570706f727465642070726f788152681a58589b195555525160ba1b60208201529150615073565b6020808252810161077781615696565b60005b838110156157075781810151838201526020016156ef565b50506000910152565b600061571a825190565b8084526020840193506157318185602086016156ec565b601f01601f19169290920192915050565b60208082528101611c928184615710565b81810381811115610777576107776151af565b81810280821583820485141761577e5761577e6151af565b5092915050565b634e487b7160e01b600052601260045260246000fd5b6000826157aa576157aa615785565b500490565b60148152600060208201732737b716b1b7b6b830ba34b13632903a37b5b2b760611b81529150615163565b60208082528101610777816157af565b60008060006060848603121561580257615802600080fd5b600061580e8686615413565b935050602061581f86828701615413565b9250506040614faa86828701615413565b610120810161583f828c614c34565b61584c602083018b614c34565b615859604083018a614c94565b6158666060830189614caa565b6158736080830188614caa565b61588060a0830187614caa565b61588d60c0830186614caa565b61589a60e0830185614c34565b6158a8610100830184614caa565b9a9950505050505050505050565b6000610777614d558381565b614c3d816158b6565b61012081016158da828c614c34565b6158e7602083018b614c34565b6158f4604083018a614c94565b6159016060830189614caa565b61590e6080830188614caa565b61591b60a08301876158c2565b61588d60c08301866158c2565b601981526000602082017f536f6d6520746f6b656e206e6f7420636f6d70617469626c650000000000000081529150615163565b6020808252810161077781615928565b610100810161597b828b614c34565b615988602083018a614c34565b6159956040830189614c94565b6159a26060830188614caa565b6159af6080830187614caa565b6159bc60a0830186614caa565b6159c960c0830185614c34565b6133a960e0830184614caa565b634e487b7160e01b600052603260045260246000fd5b805160608301906159fd8482614c34565b506020820151615a106020850182614c34565b506040820151613fc66040850182614c94565b6000615a2f83836159ec565b505060600190565b6000615a41825190565b80845260209384019383018060005b83811015615a75578151615a648882615a23565b975060208301925050600101615a50565b509495945050505050565b60408101615a8e8285614caa565b81810360208301526114f88184615a37565b600067ffffffffffffffff821115615aba57615aba614df0565b5060209081020190565b6000615ad2614e9484615aa0565b83815290506020808201908402830185811115615af157615af1600080fd5b835b81811015615b155780615b068882615413565b84525060209283019201615af3565b5050509392505050565b600082601f830112615b3357615b33600080fd5b81516114f8848260208601615ac4565b600060208284031215615b5857615b58600080fd5b815167ffffffffffffffff811115615b7257615b72600080fd5b6114f884828501615b1f565b6000615b88825190565b615b968185602086016156ec565b9290920192915050565b7f416363657373436f6e74726f6c3a206163636f756e742000000000000000000081526017016000615bd28285615b7e565b7001034b99036b4b9b9b4b733903937b6329607d1b815260110191506114f88284615b7e565b602d81526000602082017f455243313936373a206e657720696d706c656d656e746174696f6e206973206e81526c1bdd08184818dbdb9d1c9858dd609a1b60208201529150615073565b6020808252810161077781615bf8565b602b81526000602082017f496e697469616c697a61626c653a20636f6e7472616374206973206e6f74206981526a6e697469616c697a696e6760a81b60208201529150615073565b6020808252810161077781615c52565b60408082528101615cbb8185615710565b9050611c926020830184614caa565b60a08101615cd88288614caa565b615ce56020830187614caa565b8181036040830152615cf78186615a37565b9050615d066060830185614c34565b615d136080830184614caa565b9695505050505050565b60608082528101615d2e8186615710565b90506154f06020830185614caa565b69ffffffffffffffffffff8116614c5d565b805161077781615d3d565b600080600080600060a08688031215615d7557615d75600080fd5b6000615d818888615d4f565b9550506020615d9288828901615413565b9450506040615da388828901615413565b9350506060615db488828901615413565b9250506080615dc588828901615d4f565b9150509295509295909350565b60088152600060208201674f6c64206461746160c01b81529150615163565b6020808252810161077781615dd2565b6012815260006020820171526f756e64206e6f7420636f6d706c65746560701b81529150615163565b6020808252810161077781615e01565b600081615e4957615e496151af565b506000190190565b60208082527f537472696e67733a20686578206c656e67746820696e73756666696369656e7491019081526000615163565b6020808252810161077781615e51565b602681526000602082017f416464726573733a2064656c65676174652063616c6c20746f206e6f6e2d636f8152651b9d1c9858dd60d21b60208201529150615073565b6020808252810161077781615e93565b6000611c928284615b7e56fe360894a13ba1a3210667c828492db98dca3e2076cc3735a920a3ca505d382bbc416464726573733a206c6f772d6c6576656c2064656c65676174652063616c6c206661696c6564a264697066735822122006f584abf1c94bba817443ddc91b089afd947ec6b8b74991c1240daa1fe293cc64736f6c63430008110033",
  "implementation": "0x9e9A30051E7Ed20A973af744aF7B2D0F5bdC2f91",
  "devdoc": {
    "kind": "dev",
    "methods": {
      "constructor": {
        "custom:oz-upgrades-unsafe-allow": "constructor"
      },
      "getRoleAdmin(bytes32)": {
        "details": "Returns the admin role that controls `role`. See {grantRole} and {revokeRole}. To change a role's admin, use {_setRoleAdmin}."
      },
      "grantRole(bytes32,address)": {
        "details": "Grants `role` to `account`. If `account` had not been already granted `role`, emits a {RoleGranted} event. Requirements: - the caller must have ``role``'s admin role. May emit a {RoleGranted} event."
      },
      "hasRole(bytes32,address)": {
        "details": "Returns `true` if `account` has been granted `role`."
      },
      "proxiableUUID()": {
        "details": "Implementation of the ERC1822 {proxiableUUID} function. This returns the storage slot used by the implementation. It is used to validate the implementation's compatibility when performing an upgrade. IMPORTANT: A proxy pointing at a proxiable contract should not be considered proxiable itself, because this risks bricking a proxy that upgrades to it, by delegating to itself until out of gas. Thus it is critical that this function revert if invoked through a proxy. This is guaranteed by the `notDelegated` modifier."
      },
      "renounceRole(bytes32,address)": {
        "details": "Revokes `role` from the calling account. Roles are often managed via {grantRole} and {revokeRole}: this function's purpose is to provide a mechanism for accounts to lose their privileges if they are compromised (such as when a trusted device is misplaced). If the calling account had been revoked `role`, emits a {RoleRevoked} event. Requirements: - the caller must be `account`. May emit a {RoleRevoked} event."
      },
      "revokeRole(bytes32,address)": {
        "details": "Revokes `role` from `account`. If `account` had been granted `role`, emits a {RoleRevoked} event. Requirements: - the caller must have ``role``'s admin role. May emit a {RoleRevoked} event."
      },
      "supportsInterface(bytes4)": {
        "details": "See {IERC165-supportsInterface}."
      },
      "upgradeTo(address)": {
        "details": "Upgrade the implementation of the proxy to `newImplementation`. Calls {_authorizeUpgrade}. Emits an {Upgraded} event."
      },
      "upgradeToAndCall(address,bytes)": {
        "details": "Upgrade the implementation of the proxy to `newImplementation`, and subsequently execute the function call encoded in `data`. Calls {_authorizeUpgrade}. Emits an {Upgraded} event."
      }
    },
    "version": 1
  },
  "userdoc": {
    "kind": "user",
    "methods": {},
    "version": 1
  },
  "storageLayout": {
    "storage": [
      {
        "astId": 804,
        "contract": "contracts/strategies/StrategyThenaUsdtUsdPlus.sol:StrategyThenaUsdtUsdPlus",
        "label": "_initialized",
        "offset": 0,
        "slot": "0",
        "type": "t_uint8"
      },
      {
        "astId": 807,
        "contract": "contracts/strategies/StrategyThenaUsdtUsdPlus.sol:StrategyThenaUsdtUsdPlus",
        "label": "_initializing",
        "offset": 1,
        "slot": "0",
        "type": "t_bool"
      },
      {
        "astId": 1427,
        "contract": "contracts/strategies/StrategyThenaUsdtUsdPlus.sol:StrategyThenaUsdtUsdPlus",
        "label": "__gap",
        "offset": 0,
        "slot": "1",
        "type": "t_array(t_uint256)50_storage"
      },
      {
        "astId": 1706,
        "contract": "contracts/strategies/StrategyThenaUsdtUsdPlus.sol:StrategyThenaUsdtUsdPlus",
        "label": "__gap",
        "offset": 0,
        "slot": "51",
        "type": "t_array(t_uint256)50_storage"
      },
      {
        "astId": 39,
        "contract": "contracts/strategies/StrategyThenaUsdtUsdPlus.sol:StrategyThenaUsdtUsdPlus",
        "label": "_roles",
        "offset": 0,
        "slot": "101",
        "type": "t_mapping(t_bytes32,t_struct(RoleData)34_storage)"
      },
      {
        "astId": 334,
        "contract": "contracts/strategies/StrategyThenaUsdtUsdPlus.sol:StrategyThenaUsdtUsdPlus",
        "label": "__gap",
        "offset": 0,
        "slot": "102",
        "type": "t_array(t_uint256)49_storage"
      },
      {
        "astId": 786,
        "contract": "contracts/strategies/StrategyThenaUsdtUsdPlus.sol:StrategyThenaUsdtUsdPlus",
        "label": "__gap",
        "offset": 0,
        "slot": "151",
        "type": "t_array(t_uint256)50_storage"
      },
      {
        "astId": 1101,
        "contract": "contracts/strategies/StrategyThenaUsdtUsdPlus.sol:StrategyThenaUsdtUsdPlus",
        "label": "__gap",
        "offset": 0,
        "slot": "201",
        "type": "t_array(t_uint256)50_storage"
      },
      {
        "astId": 2717,
        "contract": "contracts/strategies/StrategyThenaUsdtUsdPlus.sol:StrategyThenaUsdtUsdPlus",
        "label": "portfolioManager",
        "offset": 0,
        "slot": "251",
        "type": "t_address"
      },
      {
        "astId": 2719,
        "contract": "contracts/strategies/StrategyThenaUsdtUsdPlus.sol:StrategyThenaUsdtUsdPlus",
        "label": "swapSlippageBP",
        "offset": 0,
        "slot": "252",
        "type": "t_uint256"
      },
      {
        "astId": 2721,
        "contract": "contracts/strategies/StrategyThenaUsdtUsdPlus.sol:StrategyThenaUsdtUsdPlus",
        "label": "navSlippageBP",
        "offset": 0,
        "slot": "253",
        "type": "t_uint256"
      },
      {
        "astId": 2723,
        "contract": "contracts/strategies/StrategyThenaUsdtUsdPlus.sol:StrategyThenaUsdtUsdPlus",
        "label": "stakeSlippageBP",
        "offset": 0,
        "slot": "254",
        "type": "t_uint256"
      },
      {
        "astId": 3093,
        "contract": "contracts/strategies/StrategyThenaUsdtUsdPlus.sol:StrategyThenaUsdtUsdPlus",
        "label": "__gap",
        "offset": 0,
        "slot": "255",
        "type": "t_array(t_uint256)46_storage"
      },
      {
        "astId": 4966,
        "contract": "contracts/strategies/StrategyThenaUsdtUsdPlus.sol:StrategyThenaUsdtUsdPlus",
        "label": "busd",
        "offset": 0,
        "slot": "301",
        "type": "t_contract(IERC20)2662"
      },
      {
        "astId": 4969,
        "contract": "contracts/strategies/StrategyThenaUsdtUsdPlus.sol:StrategyThenaUsdtUsdPlus",
        "label": "usdt",
        "offset": 0,
        "slot": "302",
        "type": "t_contract(IERC20)2662"
      },
      {
        "astId": 4972,
        "contract": "contracts/strategies/StrategyThenaUsdtUsdPlus.sol:StrategyThenaUsdtUsdPlus",
        "label": "usdPlus",
        "offset": 0,
        "slot": "303",
        "type": "t_contract(IERC20)2662"
      },
      {
        "astId": 4975,
        "contract": "contracts/strategies/StrategyThenaUsdtUsdPlus.sol:StrategyThenaUsdtUsdPlus",
        "label": "the",
        "offset": 0,
        "slot": "304",
        "type": "t_contract(IERC20)2662"
      },
      {
        "astId": 4978,
        "contract": "contracts/strategies/StrategyThenaUsdtUsdPlus.sol:StrategyThenaUsdtUsdPlus",
        "label": "pair",
        "offset": 0,
        "slot": "305",
        "type": "t_contract(IPair)3689"
      },
      {
        "astId": 4981,
        "contract": "contracts/strategies/StrategyThenaUsdtUsdPlus.sol:StrategyThenaUsdtUsdPlus",
        "label": "router",
        "offset": 0,
        "slot": "306",
        "type": "t_contract(IRouter)4039"
      },
      {
        "astId": 4984,
        "contract": "contracts/strategies/StrategyThenaUsdtUsdPlus.sol:StrategyThenaUsdtUsdPlus",
        "label": "gauge",
        "offset": 0,
        "slot": "307",
        "type": "t_contract(IGaugeV2)4226"
      },
      {
        "astId": 4986,
        "contract": "contracts/strategies/StrategyThenaUsdtUsdPlus.sol:StrategyThenaUsdtUsdPlus",
        "label": "wombatPool",
        "offset": 0,
        "slot": "308",
        "type": "t_address"
      },
      {
        "astId": 4988,
        "contract": "contracts/strategies/StrategyThenaUsdtUsdPlus.sol:StrategyThenaUsdtUsdPlus",
        "label": "wombatRouter",
        "offset": 0,
        "slot": "309",
        "type": "t_address"
      },
      {
        "astId": 4991,
        "contract": "contracts/strategies/StrategyThenaUsdtUsdPlus.sol:StrategyThenaUsdtUsdPlus",
        "label": "oracleBusd",
        "offset": 0,
        "slot": "310",
        "type": "t_contract(IPriceFeed)3169"
      },
      {
        "astId": 4994,
        "contract": "contracts/strategies/StrategyThenaUsdtUsdPlus.sol:StrategyThenaUsdtUsdPlus",
        "label": "oracleUsdt",
        "offset": 0,
        "slot": "311",
        "type": "t_contract(IPriceFeed)3169"
      },
      {
        "astId": 4996,
        "contract": "contracts/strategies/StrategyThenaUsdtUsdPlus.sol:StrategyThenaUsdtUsdPlus",
        "label": "busdDm",
        "offset": 0,
        "slot": "312",
        "type": "t_uint256"
      },
      {
        "astId": 4998,
        "contract": "contracts/strategies/StrategyThenaUsdtUsdPlus.sol:StrategyThenaUsdtUsdPlus",
        "label": "usdtDm",
        "offset": 0,
        "slot": "313",
        "type": "t_uint256"
      },
      {
        "astId": 5001,
        "contract": "contracts/strategies/StrategyThenaUsdtUsdPlus.sol:StrategyThenaUsdtUsdPlus",
        "label": "hay",
        "offset": 0,
        "slot": "314",
        "type": "t_contract(IERC20)2662"
      },
      {
        "astId": 5003,
        "contract": "contracts/strategies/StrategyThenaUsdtUsdPlus.sol:StrategyThenaUsdtUsdPlus",
        "label": "usdPlusDm",
        "offset": 0,
        "slot": "315",
        "type": "t_uint256"
      }
    ],
    "types": {
      "t_address": {
        "encoding": "inplace",
        "label": "address",
        "numberOfBytes": "20"
      },
      "t_array(t_uint256)46_storage": {
        "base": "t_uint256",
        "encoding": "inplace",
        "label": "uint256[46]",
        "numberOfBytes": "1472"
      },
      "t_array(t_uint256)49_storage": {
        "base": "t_uint256",
        "encoding": "inplace",
        "label": "uint256[49]",
        "numberOfBytes": "1568"
      },
      "t_array(t_uint256)50_storage": {
        "base": "t_uint256",
        "encoding": "inplace",
        "label": "uint256[50]",
        "numberOfBytes": "1600"
      },
      "t_bool": {
        "encoding": "inplace",
        "label": "bool",
        "numberOfBytes": "1"
      },
      "t_bytes32": {
        "encoding": "inplace",
        "label": "bytes32",
        "numberOfBytes": "32"
      },
      "t_contract(IERC20)2662": {
        "encoding": "inplace",
        "label": "contract IERC20",
        "numberOfBytes": "20"
      },
      "t_contract(IGaugeV2)4226": {
        "encoding": "inplace",
        "label": "contract IGaugeV2",
        "numberOfBytes": "20"
      },
      "t_contract(IPair)3689": {
        "encoding": "inplace",
        "label": "contract IPair",
        "numberOfBytes": "20"
      },
      "t_contract(IPriceFeed)3169": {
        "encoding": "inplace",
        "label": "contract IPriceFeed",
        "numberOfBytes": "20"
      },
      "t_contract(IRouter)4039": {
        "encoding": "inplace",
        "label": "contract IRouter",
        "numberOfBytes": "20"
      },
      "t_mapping(t_address,t_bool)": {
        "encoding": "mapping",
        "key": "t_address",
        "label": "mapping(address => bool)",
        "numberOfBytes": "32",
        "value": "t_bool"
      },
      "t_mapping(t_bytes32,t_struct(RoleData)34_storage)": {
        "encoding": "mapping",
        "key": "t_bytes32",
        "label": "mapping(bytes32 => struct AccessControlUpgradeable.RoleData)",
        "numberOfBytes": "32",
        "value": "t_struct(RoleData)34_storage"
      },
      "t_struct(RoleData)34_storage": {
        "encoding": "inplace",
        "label": "struct AccessControlUpgradeable.RoleData",
        "members": [
          {
            "astId": 31,
            "contract": "contracts/strategies/StrategyThenaUsdtUsdPlus.sol:StrategyThenaUsdtUsdPlus",
            "label": "members",
            "offset": 0,
            "slot": "0",
            "type": "t_mapping(t_address,t_bool)"
          },
          {
            "astId": 33,
            "contract": "contracts/strategies/StrategyThenaUsdtUsdPlus.sol:StrategyThenaUsdtUsdPlus",
            "label": "adminRole",
            "offset": 0,
            "slot": "1",
            "type": "t_bytes32"
          }
        ],
        "numberOfBytes": "64"
      },
      "t_uint256": {
        "encoding": "inplace",
        "label": "uint256",
        "numberOfBytes": "32"
      },
      "t_uint8": {
        "encoding": "inplace",
        "label": "uint8",
        "numberOfBytes": "1"
      }
    }
  }
}