{
  "address": "0x8b14e4A85aF501fb124439287196dA2E3cf3C13D",
  "abi": [
    {
      "inputs": [],
      "stateMutability": "nonpayable",
      "type": "constructor"
    },
    {
      "anonymous": false,
      "inputs": [
        {
          "indexed": false,
          "internalType": "address",
          "name": "previousAdmin",
          "type": "address"
        },
        {
          "indexed": false,
          "internalType": "address",
          "name": "newAdmin",
          "type": "address"
        }
      ],
      "name": "AdminChanged",
      "type": "event"
    },
    {
      "anonymous": false,
      "inputs": [
        {
          "indexed": true,
          "internalType": "address",
          "name": "beacon",
          "type": "address"
        }
      ],
      "name": "BeaconUpgraded",
      "type": "event"
    },
    {
      "anonymous": false,
      "inputs": [
        {
          "indexed": false,
          "internalType": "uint8",
          "name": "version",
          "type": "uint8"
        }
      ],
      "name": "Initialized",
      "type": "event"
    },
    {
      "anonymous": false,
      "inputs": [
        {
          "indexed": false,
          "internalType": "address",
          "name": "value",
          "type": "address"
        }
      ],
      "name": "PortfolioManagerUpdated",
      "type": "event"
    },
    {
      "anonymous": false,
      "inputs": [
        {
          "indexed": false,
          "internalType": "uint256",
          "name": "amount",
          "type": "uint256"
        }
      ],
      "name": "Reward",
      "type": "event"
    },
    {
      "anonymous": false,
      "inputs": [
        {
          "indexed": true,
          "internalType": "bytes32",
          "name": "role",
          "type": "bytes32"
        },
        {
          "indexed": true,
          "internalType": "bytes32",
          "name": "previousAdminRole",
          "type": "bytes32"
        },
        {
          "indexed": true,
          "internalType": "bytes32",
          "name": "newAdminRole",
          "type": "bytes32"
        }
      ],
      "name": "RoleAdminChanged",
      "type": "event"
    },
    {
      "anonymous": false,
      "inputs": [
        {
          "indexed": true,
          "internalType": "bytes32",
          "name": "role",
          "type": "bytes32"
        },
        {
          "indexed": true,
          "internalType": "address",
          "name": "account",
          "type": "address"
        },
        {
          "indexed": true,
          "internalType": "address",
          "name": "sender",
          "type": "address"
        }
      ],
      "name": "RoleGranted",
      "type": "event"
    },
    {
      "anonymous": false,
      "inputs": [
        {
          "indexed": true,
          "internalType": "bytes32",
          "name": "role",
          "type": "bytes32"
        },
        {
          "indexed": true,
          "internalType": "address",
          "name": "account",
          "type": "address"
        },
        {
          "indexed": true,
          "internalType": "address",
          "name": "sender",
          "type": "address"
        }
      ],
      "name": "RoleRevoked",
      "type": "event"
    },
    {
      "anonymous": false,
      "inputs": [
        {
          "indexed": false,
          "internalType": "uint256",
          "name": "swapSlippageBP",
          "type": "uint256"
        },
        {
          "indexed": false,
          "internalType": "uint256",
          "name": "navSlippageBP",
          "type": "uint256"
        },
        {
          "indexed": false,
          "internalType": "uint256",
          "name": "stakeSlippageBP",
          "type": "uint256"
        }
      ],
      "name": "SlippagesUpdated",
      "type": "event"
    },
    {
      "anonymous": false,
      "inputs": [
        {
          "indexed": false,
          "internalType": "uint256",
          "name": "amount",
          "type": "uint256"
        }
      ],
      "name": "Stake",
      "type": "event"
    },
    {
      "anonymous": false,
      "inputs": [],
      "name": "StrategyUpdatedParams",
      "type": "event"
    },
    {
      "anonymous": false,
      "inputs": [
        {
          "indexed": false,
          "internalType": "uint256",
          "name": "amount",
          "type": "uint256"
        },
        {
          "indexed": false,
          "internalType": "uint256",
          "name": "amountReceived",
          "type": "uint256"
        }
      ],
      "name": "Unstake",
      "type": "event"
    },
    {
      "anonymous": false,
      "inputs": [
        {
          "indexed": true,
          "internalType": "address",
          "name": "implementation",
          "type": "address"
        }
      ],
      "name": "Upgraded",
      "type": "event"
    },
    {
      "inputs": [],
      "name": "DEFAULT_ADMIN_ROLE",
      "outputs": [
        {
          "internalType": "bytes32",
          "name": "",
          "type": "bytes32"
        }
      ],
      "stateMutability": "view",
      "type": "function"
    },
    {
      "inputs": [],
      "name": "PORTFOLIO_AGENT_ROLE",
      "outputs": [
        {
          "internalType": "bytes32",
          "name": "",
          "type": "bytes32"
        }
      ],
      "stateMutability": "view",
      "type": "function"
    },
    {
      "inputs": [],
      "name": "PORTFOLIO_MANAGER",
      "outputs": [
        {
          "internalType": "bytes32",
          "name": "",
          "type": "bytes32"
        }
      ],
      "stateMutability": "view",
      "type": "function"
    },
    {
      "inputs": [],
      "name": "busd",
      "outputs": [
        {
          "internalType": "contract IERC20",
          "name": "",
          "type": "address"
        }
      ],
      "stateMutability": "view",
      "type": "function"
    },
    {
      "inputs": [],
      "name": "busdDm",
      "outputs": [
        {
          "internalType": "uint256",
          "name": "",
          "type": "uint256"
        }
      ],
      "stateMutability": "view",
      "type": "function"
    },
    {
      "inputs": [
        {
          "internalType": "address",
          "name": "_to",
          "type": "address"
        }
      ],
      "name": "claimRewards",
      "outputs": [
        {
          "internalType": "uint256",
          "name": "",
          "type": "uint256"
        }
      ],
      "stateMutability": "nonpayable",
      "type": "function"
    },
    {
      "inputs": [],
      "name": "gauge",
      "outputs": [
        {
          "internalType": "contract IGaugeV2",
          "name": "",
          "type": "address"
        }
      ],
      "stateMutability": "view",
      "type": "function"
    },
    {
      "inputs": [
        {
          "internalType": "bytes32",
          "name": "role",
          "type": "bytes32"
        }
      ],
      "name": "getRoleAdmin",
      "outputs": [
        {
          "internalType": "bytes32",
          "name": "",
          "type": "bytes32"
        }
      ],
      "stateMutability": "view",
      "type": "function"
    },
    {
      "inputs": [
        {
          "internalType": "bytes32",
          "name": "role",
          "type": "bytes32"
        },
        {
          "internalType": "address",
          "name": "account",
          "type": "address"
        }
      ],
      "name": "grantRole",
      "outputs": [],
      "stateMutability": "nonpayable",
      "type": "function"
    },
    {
      "inputs": [
        {
          "internalType": "bytes32",
          "name": "role",
          "type": "bytes32"
        },
        {
          "internalType": "address",
          "name": "account",
          "type": "address"
        }
      ],
      "name": "hasRole",
      "outputs": [
        {
          "internalType": "bool",
          "name": "",
          "type": "bool"
        }
      ],
      "stateMutability": "view",
      "type": "function"
    },
    {
      "inputs": [],
      "name": "initialize",
      "outputs": [],
      "stateMutability": "nonpayable",
      "type": "function"
    },
    {
      "inputs": [],
      "name": "liquidationValue",
      "outputs": [
        {
          "internalType": "uint256",
          "name": "",
          "type": "uint256"
        }
      ],
      "stateMutability": "view",
      "type": "function"
    },
    {
      "inputs": [],
      "name": "navSlippageBP",
      "outputs": [
        {
          "internalType": "uint256",
          "name": "",
          "type": "uint256"
        }
      ],
      "stateMutability": "view",
      "type": "function"
    },
    {
      "inputs": [],
      "name": "netAssetValue",
      "outputs": [
        {
          "internalType": "uint256",
          "name": "",
          "type": "uint256"
        }
      ],
      "stateMutability": "view",
      "type": "function"
    },
    {
      "inputs": [],
      "name": "oracleBusd",
      "outputs": [
        {
          "internalType": "contract IPriceFeed",
          "name": "",
          "type": "address"
        }
      ],
      "stateMutability": "view",
      "type": "function"
    },
    {
      "inputs": [],
      "name": "oracleUsdt",
      "outputs": [
        {
          "internalType": "contract IPriceFeed",
          "name": "",
          "type": "address"
        }
      ],
      "stateMutability": "view",
      "type": "function"
    },
    {
      "inputs": [],
      "name": "pair",
      "outputs": [
        {
          "internalType": "contract IPair",
          "name": "",
          "type": "address"
        }
      ],
      "stateMutability": "view",
      "type": "function"
    },
    {
      "inputs": [],
      "name": "portfolioManager",
      "outputs": [
        {
          "internalType": "address",
          "name": "",
          "type": "address"
        }
      ],
      "stateMutability": "view",
      "type": "function"
    },
    {
      "inputs": [],
      "name": "proxiableUUID",
      "outputs": [
        {
          "internalType": "bytes32",
          "name": "",
          "type": "bytes32"
        }
      ],
      "stateMutability": "view",
      "type": "function"
    },
    {
      "inputs": [
        {
          "internalType": "bytes32",
          "name": "role",
          "type": "bytes32"
        },
        {
          "internalType": "address",
          "name": "account",
          "type": "address"
        }
      ],
      "name": "renounceRole",
      "outputs": [],
      "stateMutability": "nonpayable",
      "type": "function"
    },
    {
      "inputs": [
        {
          "internalType": "bytes32",
          "name": "role",
          "type": "bytes32"
        },
        {
          "internalType": "address",
          "name": "account",
          "type": "address"
        }
      ],
      "name": "revokeRole",
      "outputs": [],
      "stateMutability": "nonpayable",
      "type": "function"
    },
    {
      "inputs": [],
      "name": "router",
      "outputs": [
        {
          "internalType": "contract IRouter",
          "name": "",
          "type": "address"
        }
      ],
      "stateMutability": "view",
      "type": "function"
    },
    {
      "inputs": [
        {
          "components": [
            {
              "internalType": "address",
              "name": "busdToken",
              "type": "address"
            },
            {
              "internalType": "address",
              "name": "usdtToken",
              "type": "address"
            },
            {
              "internalType": "address",
              "name": "usdPlus",
              "type": "address"
            },
            {
              "internalType": "address",
              "name": "the",
              "type": "address"
            },
            {
              "internalType": "address",
              "name": "pair",
              "type": "address"
            },
            {
              "internalType": "address",
              "name": "router",
              "type": "address"
            },
            {
              "internalType": "address",
              "name": "gauge",
              "type": "address"
            },
            {
              "internalType": "address",
              "name": "wombatPool",
              "type": "address"
            },
            {
              "internalType": "address",
              "name": "wombatRouter",
              "type": "address"
            },
            {
              "internalType": "address",
              "name": "oracleBusd",
              "type": "address"
            },
            {
              "internalType": "address",
              "name": "oracleUsdt",
              "type": "address"
            }
          ],
          "internalType": "struct StrategyThenaUsdtUsdPlus.StrategyParams",
          "name": "params",
          "type": "tuple"
        }
      ],
      "name": "setParams",
      "outputs": [],
      "stateMutability": "nonpayable",
      "type": "function"
    },
    {
      "inputs": [
        {
          "internalType": "address",
          "name": "_value",
          "type": "address"
        }
      ],
      "name": "setPortfolioManager",
      "outputs": [],
      "stateMutability": "nonpayable",
      "type": "function"
    },
    {
      "inputs": [
        {
          "internalType": "uint256",
          "name": "_swapSlippageBP",
          "type": "uint256"
        },
        {
          "internalType": "uint256",
          "name": "_navSlippageBP",
          "type": "uint256"
        },
        {
          "internalType": "uint256",
          "name": "_stakeSlippageBP",
          "type": "uint256"
        }
      ],
      "name": "setSlippages",
      "outputs": [],
      "stateMutability": "nonpayable",
      "type": "function"
    },
    {
      "inputs": [
        {
          "internalType": "address",
          "name": "_asset",
          "type": "address"
        },
        {
          "internalType": "uint256",
          "name": "_amount",
          "type": "uint256"
        }
      ],
      "name": "stake",
      "outputs": [],
      "stateMutability": "nonpayable",
      "type": "function"
    },
    {
      "inputs": [],
      "name": "stakeSlippageBP",
      "outputs": [
        {
          "internalType": "uint256",
          "name": "",
          "type": "uint256"
        }
      ],
      "stateMutability": "view",
      "type": "function"
    },
    {
      "inputs": [
        {
          "internalType": "bytes4",
          "name": "interfaceId",
          "type": "bytes4"
        }
      ],
      "name": "supportsInterface",
      "outputs": [
        {
          "internalType": "bool",
          "name": "",
          "type": "bool"
        }
      ],
      "stateMutability": "view",
      "type": "function"
    },
    {
      "inputs": [],
      "name": "swapSlippageBP",
      "outputs": [
        {
          "internalType": "uint256",
          "name": "",
          "type": "uint256"
        }
      ],
      "stateMutability": "view",
      "type": "function"
    },
    {
      "inputs": [],
      "name": "the",
      "outputs": [
        {
          "internalType": "contract IERC20",
          "name": "",
          "type": "address"
        }
      ],
      "stateMutability": "view",
      "type": "function"
    },
    {
      "inputs": [
        {
          "internalType": "address",
          "name": "_asset",
          "type": "address"
        },
        {
          "internalType": "uint256",
          "name": "_amount",
          "type": "uint256"
        },
        {
          "internalType": "address",
          "name": "_beneficiary",
          "type": "address"
        },
        {
          "internalType": "bool",
          "name": "_targetIsZero",
          "type": "bool"
        }
      ],
      "name": "unstake",
      "outputs": [
        {
          "internalType": "uint256",
          "name": "",
          "type": "uint256"
        }
      ],
      "stateMutability": "nonpayable",
      "type": "function"
    },
    {
      "inputs": [
        {
          "internalType": "address",
          "name": "newImplementation",
          "type": "address"
        }
      ],
      "name": "upgradeTo",
      "outputs": [],
      "stateMutability": "nonpayable",
      "type": "function"
    },
    {
      "inputs": [
        {
          "internalType": "address",
          "name": "newImplementation",
          "type": "address"
        },
        {
          "internalType": "bytes",
          "name": "data",
          "type": "bytes"
        }
      ],
      "name": "upgradeToAndCall",
      "outputs": [],
      "stateMutability": "payable",
      "type": "function"
    },
    {
      "inputs": [],
      "name": "usdPlus",
      "outputs": [
        {
          "internalType": "contract IERC20",
          "name": "",
          "type": "address"
        }
      ],
      "stateMutability": "view",
      "type": "function"
    },
    {
      "inputs": [],
      "name": "usdt",
      "outputs": [
        {
          "internalType": "contract IERC20",
          "name": "",
          "type": "address"
        }
      ],
      "stateMutability": "view",
      "type": "function"
    },
    {
      "inputs": [],
      "name": "usdtDm",
      "outputs": [
        {
          "internalType": "uint256",
          "name": "",
          "type": "uint256"
        }
      ],
      "stateMutability": "view",
      "type": "function"
    },
    {
      "inputs": [],
      "name": "wombatPool",
      "outputs": [
        {
          "internalType": "contract IPool",
          "name": "",
          "type": "address"
        }
      ],
      "stateMutability": "view",
      "type": "function"
    },
    {
      "inputs": [],
      "name": "wombatRouter",
      "outputs": [
        {
          "internalType": "contract IWombatRouter",
          "name": "",
          "type": "address"
        }
      ],
      "stateMutability": "view",
      "type": "function"
    }
  ],
  "numDeployments": 5,
  "solcInputHash": "bde1a2430eacf8d9eb5701445170690f",
  "bytecode": "0x60a0604052306080523480156200001557600080fd5b50600054610100900460ff1615808015620000375750600054600160ff909116105b8062000067575062000054306200010860201b6200156f1760201c565b15801562000067575060005460ff166001145b6200008f5760405162461bcd60e51b8152600401620000869062000117565b60405180910390fd5b6000805460ff191660011790558015620000b3576000805461ff0019166101001790555b801562000101576000805461ff00191690556040517f7f26b83ff96e1f2b6a682f133852f6798a09c465da95921460cefb384740249890620000f8906001906200018d565b60405180910390a15b506200019d565b6001600160a01b03163b151590565b602080825281016200016a81602e81527f496e697469616c697a61626c653a20636f6e747261637420697320616c72656160208201526d191e481a5b9a5d1a585b1a5e995960921b604082015260600190565b92915050565b600060ff82166200016a565b620001878162000170565b82525050565b602081016200016a82846200017c565b608051615265620001d5600039600081816107a1015281816107e101528181610c1a01528181610c5a0152610ce901526152656000f3fe6080604052600436106102255760003560e01c80637d5f580211610123578063adc9772e116100ab578063dc19d6431161006f578063dc19d6431461064d578063ddefa4ab14610664578063ef5cfb8c14610685578063f6f6b881146106a5578063f887ea40146106c557600080fd5b8063adc9772e146105b6578063ae30c110146105d6578063bf52e080146105f6578063cc6522c31461060c578063d547741f1461062d57600080fd5b8063a3673b38116100f2578063a3673b381461051e578063a440b21a14610533578063a66b571314610553578063a6f19c8414610574578063a8aa1b311461059557600080fd5b80637d5f5802146104b25780638129fc1c146104d457806391d14854146104e9578063a217fddf1461050957600080fd5b80633659cfe6116101b157806352d1902d1161017557806352d1902d146104055780635ca558f81461041a5780635dbd733a14610430578063612c87df14610464578063620b75df1461048557600080fd5b80633659cfe6146103705780633ca5b23414610390578063431ac739146103b15780634f1ef286146103d1578063514e460a146103e457600080fd5b8063248a9ca3116101f8578063248a9ca3146102c85780632576e65a146102f85780632f2ff15d1461030d5780632f48ab7d1461032f57806336568abe1461035057600080fd5b8063012ee9281461022a57806301ffc9a7146102615780630f9033f71461028e578063119cd879146102b2575b600080fd5b34801561023657600080fd5b506101345461024b906001600160a01b031681565b6040516102589190613e21565b60405180910390f35b34801561026d57600080fd5b5061028161027c366004613e51565b6106e6565b6040516102589190613e7a565b34801561029a57600080fd5b506102a56101395481565b6040516102589190613e8e565b3480156102be57600080fd5b506102a560fd5481565b3480156102d457600080fd5b506102a56102e3366004613ead565b60009081526065602052604090206001015490565b34801561030457600080fd5b506102a561071d565b34801561031957600080fd5b5061032d610328366004613ef3565b61072e565b005b34801561033b57600080fd5b5061012e5461024b906001600160a01b031681565b34801561035c57600080fd5b5061032d61036b366004613ef3565b610758565b34801561037c57600080fd5b5061032d61038b366004613f30565b610797565b34801561039c57600080fd5b5061012d5461024b906001600160a01b031681565b3480156103bd57600080fd5b5061032d6103cc366004613f6d565b610876565b61032d6103df36600461407d565b610c10565b3480156103f057600080fd5b5061012f5461024b906001600160a01b031681565b34801561041157600080fd5b506102a5610cdc565b34801561042657600080fd5b506102a560fe5481565b34801561043c57600080fd5b506102a57fd67ad422505496469a1adf6cdf9e5ee92ac5d33992843c9ecc4b2f6d6cde913781565b34801561047057600080fd5b506101355461024b906001600160a01b031681565b34801561049157600080fd5b5060fb546104a5906001600160a01b031681565b60405161025891906140d4565b3480156104be57600080fd5b506102a56000805160206151c983398151915281565b3480156104e057600080fd5b5061032d610d39565b3480156104f557600080fd5b50610281610504366004613ef3565b610e07565b34801561051557600080fd5b506102a5600081565b34801561052a57600080fd5b506102a5610e32565b34801561053f57600080fd5b5061032d61054e366004613f30565b610e3e565b34801561055f57600080fd5b506101365461024b906001600160a01b031681565b34801561058057600080fd5b506101335461024b906001600160a01b031681565b3480156105a157600080fd5b506101315461024b906001600160a01b031681565b3480156105c257600080fd5b5061032d6105d13660046140e2565b610f13565b3480156105e257600080fd5b5061032d6105f1366004614115565b611129565b34801561060257600080fd5b506102a560fc5481565b34801561061857600080fd5b506101375461024b906001600160a01b031681565b34801561063957600080fd5b5061032d610648366004613ef3565b61124b565b34801561065957600080fd5b506102a56101385481565b34801561067057600080fd5b506101305461024b906001600160a01b031681565b34801561069157600080fd5b506102a56106a0366004613f30565b611270565b3480156106b157600080fd5b506102a56106c0366004614178565b6112f9565b3480156106d157600080fd5b506101325461024b906001600160a01b031681565b60006001600160e01b03198216637965db0b60e01b148061071757506301ffc9a760e01b6001600160e01b03198316145b92915050565b6000610729600061157e565b905090565b6000828152606560205260409020600101546107498161188b565b6107538383611895565b505050565b6001600160a01b03811633146107895760405162461bcd60e51b81526004016107809061422b565b60405180910390fd5b610793828261191b565b5050565b6001600160a01b037f00000000000000000000000000000000000000000000000000000000000000001630036107df5760405162461bcd60e51b815260040161078090614284565b7f00000000000000000000000000000000000000000000000000000000000000006001600160a01b03166108286000805160206151e9833981519152546001600160a01b031690565b6001600160a01b03161461084e5760405162461bcd60e51b8152600401610780906142dd565b61085781611982565b604080516000808252602082019092526108739183919061198d565b50565b610881600033610e07565b61089d5760405162461bcd60e51b81526004016107809061431b565b6108c86040518060400160405280600a81526020016973657420706172616d7360b01b815250611a6f565b6108d56020820182613f30565b61012d80546001600160a01b0319166001600160a01b03929092169190911790556109066040820160208301613f30565b61012e80546001600160a01b0319166001600160a01b03929092169190911790556109376060820160408301613f30565b61012f80546001600160a01b0319166001600160a01b03929092169190911790556109686080820160608301613f30565b61013080546001600160a01b0319166001600160a01b039290921691909117905561099960a0820160808301613f30565b61013180546001600160a01b0319166001600160a01b03929092169190911790556109ca60c0820160a08301613f30565b61013280546001600160a01b0319166001600160a01b03929092169190911790556109fb60e0820160c08301613f30565b61013380546001600160a01b0319166001600160a01b0392909216919091179055610a2d610100820160e08301613f30565b61013480546001600160a01b0319166001600160a01b0392909216919091179055610a6061012082016101008301613f30565b61013580546001600160a01b0319166001600160a01b0392909216919091179055610a9361014082016101208301613f30565b61013680546001600160a01b0319166001600160a01b0392909216919091179055610ac661016082016101408301613f30565b61013780546001600160a01b0319166001600160a01b0392909216919091179055610af46020820182613f30565b6001600160a01b031663313ce5676040518163ffffffff1660e01b8152600401602060405180830381865afa158015610b31573d6000803e3d6000fd5b505050506040513d601f19601f82011682018060405250810190610b55919061433f565b610b6090600a614484565b61013855610b746040820160208301613f30565b6001600160a01b031663313ce5676040518163ffffffff1660e01b8152600401602060405180830381865afa158015610bb1573d6000803e3d6000fd5b505050506040513d601f19601f82011682018060405250810190610bd5919061433f565b610be090600a614484565b610139556040517fea5646eb3528e525944447a4a97de700dd472298626e5c0481d1c82c3da86ea590600090a150565b6001600160a01b037f0000000000000000000000000000000000000000000000000000000000000000163003610c585760405162461bcd60e51b815260040161078090614284565b7f00000000000000000000000000000000000000000000000000000000000000006001600160a01b0316610ca16000805160206151e9833981519152546001600160a01b031690565b6001600160a01b031614610cc75760405162461bcd60e51b8152600401610780906142dd565b610cd082611982565b6107938282600161198d565b6000306001600160a01b037f00000000000000000000000000000000000000000000000000000000000000001614610d265760405162461bcd60e51b8152600401610780906144f3565b506000805160206151e983398151915290565b600054610100900460ff1615808015610d595750600054600160ff909116105b80610d735750303b158015610d73575060005460ff166001145b610d8f5760405162461bcd60e51b81526004016107809061454e565b6000805460ff191660011790558015610db2576000805461ff0019166101001790555b610dba611ab2565b8015610873576000805461ff00191690556040517f7f26b83ff96e1f2b6a682f133852f6798a09c465da95921460cefb384740249890610dfc90600190614572565b60405180910390a150565b60009182526065602090815260408084206001600160a01b0393909316845291905290205460ff1690565b6000610729600161157e565b610e49600033610e07565b610e655760405162461bcd60e51b81526004016107809061431b565b6001600160a01b038116610e8b5760405162461bcd60e51b8152600401610780906145b4565b60fb54610eb0906000805160206151c9833981519152906001600160a01b031661124b565b610ec86000805160206151c98339815191528261072e565b60fb80546001600160a01b0319166001600160a01b0383161790556040517ff7b449fcd5cfb7379dcd34cb69428dd9f882033b15be33d83b42d91daa28eeb790610dfc9083906140d4565b610f2b6000805160206151c983398151915233610e07565b610f475760405162461bcd60e51b8152600401610780906145f8565b610f856040518060400160405280601881526020017f7374616b652063616c6c656420696e2073747261746567790000000000000000815250611a6f565b6000610ff4306001600160a01b031663a3673b386040518163ffffffff1660e01b8152600401602060405180830381865afa158015610fc8573d6000803e3d6000fd5b505050506040513d601f19601f82011682018060405250810190610fec9190614613565b60fd54611b97565b905061106c83846001600160a01b03166370a08231306040518263ffffffff1660e01b815260040161102691906140d4565b602060405180830381865afa158015611043573d6000803e3d6000fd5b505050506040513d601f19601f820116820180604052508101906110679190614613565b611bc1565b80306001600160a01b031663a3673b386040518163ffffffff1660e01b8152600401602060405180830381865afa1580156110ab573d6000803e3d6000fd5b505050506040513d601f19601f820116820180604052508101906110cf9190614613565b10156110ed5760405162461bcd60e51b815260040161078090614668565b7f227a473b70d2f893cc7659219575c030a63b5743024fe1e0c1a680e708b1525a8260405161111c9190613e8e565b60405180910390a1505050565b6111537fd67ad422505496469a1adf6cdf9e5ee92ac5d33992843c9ecc4b2f6d6cde913733610e07565b806111ec575060fb54604051632474521560e21b81526001600160a01b03909116906391d14854906111ab907fd67ad422505496469a1adf6cdf9e5ee92ac5d33992843c9ecc4b2f6d6cde9137903390600401614678565b602060405180830381865afa1580156111c8573d6000803e3d6000fd5b505050506040513d601f19601f820116820180604052508101906111ec919061469e565b6112085760405162461bcd60e51b8152600401610780906146fe565b60fc83905560fd82905560fe8190556040517f116fbf1e97a2be629ad98abfb6c332733c8996c2dfb174dd2efe8440df381d1a9061111c9085908590859061470e565b6000828152606560205260409020600101546112668161188b565b610753838361191b565b600061128a6000805160206151c983398151915233610e07565b6112a65760405162461bcd60e51b8152600401610780906145f8565b60006112b1836122dc565b905080156112f1577f3ac0594a85a20354f9dc74f33728416d19ce00d04a406c108cc2dcf2cecea134816040516112e89190613e8e565b60405180910390a15b90505b919050565b60006113136000805160206151c983398151915233610e07565b61132f5760405162461bcd60e51b8152600401610780906145f8565b6113616040518060400160405280601181526020017073747261746567657920756e7374616b6560781b815250611a6f565b60006113a4306001600160a01b031663a3673b386040518163ffffffff1660e01b8152600401602060405180830381865afa158015610fc8573d6000803e3d6000fd5b905060008084156113cb576113b8866122dc565b90506113c4888761256b565b91506113f8565b6113d6888888612a88565b9150868210156113f85760405162461bcd60e51b81526004016107809061477c565b82306001600160a01b031663a3673b386040518163ffffffff1660e01b8152600401602060405180830381865afa158015611437573d6000803e3d6000fd5b505050506040513d601f19601f8201168201806040525081019061145b9190614613565b10156114795760405162461bcd60e51b815260040161078090614668565b60405163a9059cbb60e01b81526001600160a01b0389169063a9059cbb906114a7908990869060040161478c565b6020604051808303816000875af11580156114c6573d6000803e3d6000fd5b505050506040513d601f19601f820116820180604052508101906114ea919061469e565b507f9045c2ac9b2026de8075f2701bbdde882cd5e830b3b1ead9a15b22f2b5b93742878360405161151c9291906147a7565b60405180910390a18015611562577f3ac0594a85a20354f9dc74f33728416d19ce00d04a406c108cc2dcf2cecea134816040516115599190613e8e565b60405180910390a15b509150505b949350505050565b6001600160a01b03163b151590565b61012d546040516370a0823160e01b815260009182916001600160a01b03909116906370a08231906115b49030906004016140d4565b602060405180830381865afa1580156115d1573d6000803e3d6000fd5b505050506040513d601f19601f820116820180604052508101906115f59190614613565b61012e546040516370a0823160e01b81529192506000916001600160a01b03909116906370a082319061162c9030906004016140d4565b602060405180830381865afa158015611649573d6000803e3d6000fd5b505050506040513d601f19601f8201168201806040525081019061166d9190614613565b610133546040516370a0823160e01b81529192506000916001600160a01b03909116906370a08231906116a49030906004016140d4565b602060405180830381865afa1580156116c1573d6000803e3d6000fd5b505050506040513d601f19601f820116820180604052508101906116e59190614613565b905080156117ff576101325461012e5461012d5461013154604080516309047bdd60e01b8152905160009586956001600160a01b0391821695634386e63c95918316949083169391909216916309047bdd9160048083019260209291908290030181865afa15801561175b573d6000803e3d6000fd5b505050506040513d601f19601f8201168201806040525081019061177f919061469e565b876040518563ffffffff1660e01b815260040161179f94939291906147b5565b6040805180830381865afa1580156117bb573d6000803e3d6000fd5b505050506040513d601f19601f820116820180604052508101906117df91906147ea565b90925090506117ee828561481d565b93506117fa818661481d565b945050505b81156118825784156118485761013954610138546101375461013654611837938693909290916001600160a01b0391821691166130fb565b611841908461481d565b9250611882565b6101355461012e5461012d5461013454611875936001600160a01b0390811693811692811691168661313f565b61187f908461481d565b92505b50909392505050565b6108738133613293565b61189f8282610e07565b6107935760008281526065602090815260408083206001600160a01b03851684529091529020805460ff191660011790556118d73390565b6001600160a01b0316816001600160a01b0316837f2f8788117e7eff1d82e926ec794901d17c78024a50270940304540a733656f0d60405160405180910390a45050565b6119258282610e07565b156107935760008281526065602090815260408083206001600160a01b0385168085529252808320805460ff1916905551339285917ff6391f5c32d9c69d2a47ea670b442974b53935d1edc7fd64eb21e047a839171b9190a45050565b60006107938161188b565b7f4910fdfa16fed3260ed0e7147f7cc6da11a60208b5b9406d12a635614ffd91435460ff16156119c057610753836132ec565b826001600160a01b03166352d1902d6040518163ffffffff1660e01b8152600401602060405180830381865afa925050508015611a1a575060408051601f3d908101601f19168201909252611a1791810190614613565b60015b611a365760405162461bcd60e51b81526004016107809061487b565b6000805160206151e98339815191528114611a635760405162461bcd60e51b8152600401610780906148d1565b50610753838383613342565b61087381604051602401611a839190614937565b60408051601f198184030181529190526020810180516001600160e01b031663104c13eb60e21b17905261336d565b600054610100900460ff1615808015611ad25750600054600160ff909116105b80611aec5750303b158015611aec575060005460ff166001145b611b085760405162461bcd60e51b81526004016107809061454e565b6000805460ff191660011790558015611b2b576000805461ff0019166101001790555b611b3361338e565b611b3b61338e565b611b46600033611895565b601460fc81905560fd55600460fe558015610873576000805461ff00191690556040517f7f26b83ff96e1f2b6a682f133852f6798a09c465da95921460cefb384740249890610dfc90600190614572565b6000612710611ba68382614948565b611bb0908561495b565b611bba9190614990565b9392505050565b61012d546001600160a01b03838116911614611bef5760405162461bcd60e51b8152600401610780906149cf565b60008061013160009054906101000a90046001600160a01b03166001600160a01b0316630902f1ac6040518163ffffffff1660e01b8152600401606060405180830381865afa158015611c46573d6000803e3d6000fd5b505050506040513d601f19601f82011682018060405250810190611c6a91906149df565b5061012d546040516370a0823160e01b81529294509092506000916001600160a01b03909116906370a0823190611ca59030906004016140d4565b602060405180830381865afa158015611cc2573d6000803e3d6000fd5b505050506040513d601f19601f82011682018060405250810190611ce69190614613565b9050611d156040518060400160405280600c81526020016b627573642062616c616e636560a01b815250611a6f565b611d1e816133b7565b6101355461012d5461012e54610134546101385461013954600095611d60956001600160a01b0391821695908216949082169391169188918a918c91906133fa565b9050611d936040518060400160405280601081526020016f0616d6f756e7442757364546f537761760841b815250611a6f565b611d9c816133b7565b61013854610139546101365461013754600093611dcb938693919290916001600160a01b0390811691166130fb565b6101355461012d5461012e546101345460fc54949550611e10946001600160a01b03948516949384169392831692909116908790611e0a908890611b97565b30613486565b5061012d546040516370a0823160e01b81526000916001600160a01b0316906370a0823190611e439030906004016140d4565b602060405180830381865afa158015611e60573d6000803e3d6000fd5b505050506040513d601f19601f82011682018060405250810190611e849190614613565b9050611e8f816133b7565b6101325461012e5461012f546040516326283ecf60e21b8152600093849384936001600160a01b03928316936398a0fb3c93611edc938116921690600190620186a0908190600401614a3a565b606060405180830381865afa158015611ef9573d6000803e3d6000fd5b505050506040513d601f19601f82011682018060405250810190611f1d91906149df565b919450925090506000611f33620186a086614990565b611f3e90600261495b565b61012e54610132549192506001600160a01b039081169163095ea7b39116611f66878561495b565b6040518363ffffffff1660e01b8152600401611f8392919061478c565b6020604051808303816000875af1158015611fa2573d6000803e3d6000fd5b505050506040513d601f19601f82011682018060405250810190611fc6919061469e565b5061012d54610132546001600160a01b039182169163095ea7b39116611fec868561495b565b6040518363ffffffff1660e01b815260040161200992919061478c565b6020604051808303816000875af1158015612028573d6000803e3d6000fd5b505050506040513d601f19601f8201168201806040525081019061204c919061469e565b506101325461012e5461012d5461013154604080516309047bdd60e01b815290516001600160a01b0395861695635a47ddc39581169481169316916309047bdd9160048083019260209291908290030181865afa1580156120b1573d6000803e3d6000fd5b505050506040513d601f19601f820116820180604052508101906120d5919061469e565b6120df898761495b565b6120e9898861495b565b6120fe6120f68c8a61495b565b60fc54611b97565b61210b6120f68c8b61495b565b30426040518a63ffffffff1660e01b815260040161213199989796959493929190614a86565b6060604051808303816000875af1158015612150573d6000803e3d6000fd5b505050506040513d601f19601f8201168201806040525081019061217491906149df565b5050610131546040516370a0823160e01b8152600092506001600160a01b03909116906370a08231906121ab9030906004016140d4565b602060405180830381865afa1580156121c8573d6000803e3d6000fd5b505050506040513d601f19601f820116820180604052508101906121ec9190614613565b610131546101335460405163095ea7b360e01b81529293506001600160a01b039182169263095ea7b392612226921690859060040161478c565b6020604051808303816000875af1158015612245573d6000803e3d6000fd5b505050506040513d601f19601f82011682018060405250810190612269919061469e565b506101335460405163b6b55f2560e01b81526001600160a01b039091169063b6b55f259061229b908490600401613e8e565b600060405180830381600087803b1580156122b557600080fd5b505af11580156122c9573d6000803e3d6000fd5b5050505050505050505050505050505050565b600061230b6040518060400160405280600c81526020016b636c61696d7265776172647360a01b815250611a6f565b610133546040516370a0823160e01b81526000916001600160a01b0316906370a082319061233d9030906004016140d4565b602060405180830381865afa15801561235a573d6000803e3d6000fd5b505050506040513d601f19601f8201168201806040525081019061237e9190614613565b905080156123f05761013360009054906101000a90046001600160a01b03166001600160a01b0316633d18b9126040518163ffffffff1660e01b8152600401600060405180830381600087803b1580156123d757600080fd5b505af11580156123eb573d6000803e3d6000fd5b505050505b610130546040516370a0823160e01b815260009182916001600160a01b03909116906370a08231906124269030906004016140d4565b602060405180830381865afa158015612443573d6000803e3d6000fd5b505050506040513d601f19601f820116820180604052508101906124679190614613565b905080156124e557610132546101305461012d5460009261249a926001600160a01b03918216929082169116848661364d565b905080156124e357610132546101305461012d546124d6926001600160a01b0390811692811691166000866124d087600a611b97565b306137c5565b6124e0908461481d565b92505b505b81156125635761012d5460405163a9059cbb60e01b81526001600160a01b039091169063a9059cbb9061251e908890869060040161478c565b6020604051808303816000875af115801561253d573d6000803e3d6000fd5b505050506040513d601f19601f82011682018060405250810190612561919061469e565b505b509392505050565b61012d546000906001600160a01b0384811691161461259c5760405162461bcd60e51b815260040161078090614b40565b610133546040516370a0823160e01b81526000916001600160a01b0316906370a08231906125ce9030906004016140d4565b602060405180830381865afa1580156125eb573d6000803e3d6000fd5b505050506040513d601f19601f8201168201806040525081019061260f9190614613565b61013354604051632e1a7d4d60e01b81529192506001600160a01b031690632e1a7d4d90612641908490600401613e8e565b600060405180830381600087803b15801561265b57600080fd5b505af115801561266f573d6000803e3d6000fd5b50506101325461012e5461012d5461013154604080516309047bdd60e01b81529051600097508796506001600160a01b0395861695634386e63c9581169481169316916309047bdd9160048083019260209291908290030181865afa1580156126dc573d6000803e3d6000fd5b505050506040513d601f19601f82011682018060405250810190612700919061469e565b876040518563ffffffff1660e01b815260040161272094939291906147b5565b6040805180830381865afa15801561273c573d6000803e3d6000fd5b505050506040513d601f19601f8201168201806040525081019061276091906147ea565b610131546101325460405163095ea7b360e01b81529395509193506001600160a01b039081169263095ea7b39261279d921690879060040161478c565b6020604051808303816000875af11580156127bc573d6000803e3d6000fd5b505050506040513d601f19601f820116820180604052508101906127e0919061469e565b506101325461012e5461012d5461013154604080516309047bdd60e01b815290516001600160a01b0395861695630dede6c49581169481169316916309047bdd9160048083019260209291908290030181865afa158015612845573d6000803e3d6000fd5b505050506040513d601f19601f82011682018060405250810190612869919061469e565b876128768860fc54611b97565b6128828860fc54611b97565b30426040518963ffffffff1660e01b81526004016128a7989796959493929190614b50565b60408051808303816000875af11580156128c5573d6000803e3d6000fd5b505050506040513d601f19601f820116820180604052508101906128e991906147ea565b505061012e546040516370a0823160e01b81526000916001600160a01b0316906370a082319061291d9030906004016140d4565b602060405180830381865afa15801561293a573d6000803e3d6000fd5b505050506040513d601f19601f8201168201806040525081019061295e9190614613565b6101355461012e5461012d5461013454939450600093612991936001600160a01b0390811693811692811691168661313f565b90508015612a0a57610139546101385461013754610136546000936129c8938793919290916001600160a01b0390811691166130fb565b6101355461012e5461012d546101345460fc54949550612a07946001600160a01b03948516949384169392831692909116908890611e0a908890611b97565b50505b61012d546040516370a0823160e01b81526001600160a01b03909116906370a0823190612a3b9030906004016140d4565b602060405180830381865afa158015612a58573d6000803e3d6000fd5b505050506040513d601f19601f82011682018060405250810190612a7c9190614613565b98975050505050505050565b61012d546000906001600160a01b03858116911614612ab95760405162461bcd60e51b815260040161078090614b40565b61013154604080516318160ddd60e01b815290516000926001600160a01b0316916318160ddd9160048083019260209291908290030181865afa158015612b04573d6000803e3d6000fd5b505050506040513d601f19601f82011682018060405250810190612b289190614613565b905060008061013160009054906101000a90046001600160a01b03166001600160a01b0316630902f1ac6040518163ffffffff1660e01b8152600401606060405180830381865afa158015612b81573d6000803e3d6000fd5b505050506040513d601f19601f82011682018060405250810190612ba591906149df565b506101355461012d5461012e5461013454949650929450600093612bf8936001600160a01b0393841693928316929081169116612be88c6509184e72a00061481d565b89888a61013854610139546139b9565b610133546040516370a0823160e01b81529192506000916001600160a01b03909116906370a0823190612c2f9030906004016140d4565b602060405180830381865afa158015612c4c573d6000803e3d6000fd5b505050506040513d601f19601f82011682018060405250810190612c709190614613565b905080821115612c7e578091505b61013354604051632e1a7d4d60e01b81526001600160a01b0390911690632e1a7d4d90612caf908590600401613e8e565b600060405180830381600087803b158015612cc957600080fd5b505af1158015612cdd573d6000803e3d6000fd5b50506101325461012e5461012d5461013154604080516309047bdd60e01b81529051600097508796506001600160a01b0395861695634386e63c9581169481169316916309047bdd9160048083019260209291908290030181865afa158015612d4a573d6000803e3d6000fd5b505050506040513d601f19601f82011682018060405250810190612d6e919061469e565b886040518563ffffffff1660e01b8152600401612d8e94939291906147b5565b6040805180830381865afa158015612daa573d6000803e3d6000fd5b505050506040513d601f19601f82011682018060405250810190612dce91906147ea565b610131546101325460405163095ea7b360e01b81529395509193506001600160a01b039081169263095ea7b392612e0b921690889060040161478c565b6020604051808303816000875af1158015612e2a573d6000803e3d6000fd5b505050506040513d601f19601f82011682018060405250810190612e4e919061469e565b506101325461012e5461012d5461013154604080516309047bdd60e01b815290516001600160a01b0395861695630dede6c49581169481169316916309047bdd9160048083019260209291908290030181865afa158015612eb3573d6000803e3d6000fd5b505050506040513d601f19601f82011682018060405250810190612ed7919061469e565b88612ee48860fc54611b97565b612ef08860fc54611b97565b30426040518963ffffffff1660e01b8152600401612f15989796959493929190614b50565b60408051808303816000875af1158015612f33573d6000803e3d6000fd5b505050506040513d601f19601f82011682018060405250810190612f5791906147ea565b505061012e546040516370a0823160e01b81526000916001600160a01b0316906370a0823190612f8b9030906004016140d4565b602060405180830381865afa158015612fa8573d6000803e3d6000fd5b505050506040513d601f19601f82011682018060405250810190612fcc9190614613565b6101355461012e5461012d5461013454939450600093612fff936001600160a01b0390811693811692811691168661313f565b905080156130785761013954610138546101375461013654600093613036938793919290916001600160a01b0390811691166130fb565b6101355461012e5461012d546101345460fc54949550613075946001600160a01b03948516949384169392831692909116908890611e0a908890611b97565b50505b61012d546040516370a0823160e01b81526001600160a01b03909116906370a08231906130a99030906004016140d4565b602060405180830381865afa1580156130c6573d6000803e3d6000fd5b505050506040513d601f19601f820116820180604052508101906130ea9190614613565b9d9c50505050505050505050505050565b60008061310784613a61565b9050600061311484613a61565b9050613120818861495b565b8261312b888b61495b565b613135919061495b565b612a7c9190614990565b60408051600280825260608201835260009283929190602083019080368337019050509050858160008151811061317857613178614bc7565b60200260200101906001600160a01b031690816001600160a01b03168152505084816001815181106131ac576131ac614bc7565b6001600160a01b03929092166020928302919091019091015260408051600180825281830190925260009181602001602082028036833701905050905084816000815181106131fd576131fd614bc7565b6001600160a01b03928316602091820292909201015260405163b9e598c160e01b81526000918a169063b9e598c19061323e90869086908a90600401614c3a565b600060405180830381865afa15801561325b573d6000803e3d6000fd5b505050506040513d6000823e601f3d908101601f191682016040526132839190810190614d11565b5093505050505b95945050505050565b61329d8282610e07565b610793576132aa81613b36565b6132b5836020613b48565b6040516020016132c6929190614d81565b60408051601f198184030181529082905262461bcd60e51b825261078091600401614937565b6001600160a01b0381163b6133135760405162461bcd60e51b815260040161078090614e23565b6000805160206151e983398151915280546001600160a01b0319166001600160a01b0392909216919091179055565b61334b83613cb4565b6000825111806133585750805b15610753576133678383613cf4565b50505050565b80516a636f6e736f6c652e6c6f67602083016000808483855afa5050505050565b600054610100900460ff166133b55760405162461bcd60e51b815260040161078090614e7b565b565b610873816040516024016133cb9190613e8e565b60408051601f198184030181529190526020810180516001600160e01b031663f82c50f160e01b17905261336d565b60008383613408848861495b565b6134129190614990565b61341c919061481d565b613426858861495b565b6134309190614990565b905060006134418b8b8b8b8661313f565b9050848261344f838961495b565b6134599190614990565b613463919061481d565b61346d868961495b565b6134779190614990565b9b9a5050505050505050505050565b60405163095ea7b360e01b81526000906001600160a01b0388169063095ea7b3906134b7908b90889060040161478c565b6020604051808303816000875af11580156134d6573d6000803e3d6000fd5b505050506040513d601f19601f820116820180604052508101906134fa919061469e565b50604080516002808252606082018352600092602083019080368337019050509050878160008151811061353057613530614bc7565b60200260200101906001600160a01b031690816001600160a01b031681525050868160018151811061356457613564614bc7565b6001600160a01b03929092166020928302919091019091015260408051600180825281830190925260009181602001602082028036833701905050905086816000815181106135b5576135b5614bc7565b6001600160a01b03928316602091820292909201015260405163351041e960e21b8152908b169063d44107a4906135fa90859085908b908b908b904290600401614e8b565b6020604051808303816000875af1158015613619573d6000803e3d6000fd5b505050506040513d601f19601f8201168201806040525081019061363d9190614613565b925050505b979650505050505050565b604080516001808252818301909252600091829190816020015b604080516060810182526000808252602080830182905292820152825260001990920191018161366757905050905085816000815181106136aa576136aa614bc7565b6020026020010151600001906001600160a01b031690816001600160a01b03168152505084816000815181106136e2576136e2614bc7565b6020026020010151602001906001600160a01b031690816001600160a01b031681525050838160008151811061371a5761371a614bc7565b6020908102919091010151901515604091820152516326207f2d60e21b81526001600160a01b03881690639881fcb49061375a9086908590600401614f6f565b600060405180830381865afa158015613777573d6000803e3d6000fd5b505050506040513d6000823e601f3d908101601f1916820160405261379f9190810190614f8f565b6001815181106137b1576137b1614bc7565b602002602001015191505095945050505050565b60405163095ea7b360e01b81526000906001600160a01b0388169063095ea7b3906137f6908b90889060040161478c565b6020604051808303816000875af1158015613815573d6000803e3d6000fd5b505050506040513d601f19601f82011682018060405250810190613839919061469e565b50604080516001808252818301909252600091816020015b6040805160608101825260008082526020808301829052928201528252600019909201910181613851579050509050878160008151811061389457613894614bc7565b6020026020010151600001906001600160a01b031690816001600160a01b03168152505086816000815181106138cc576138cc614bc7565b6020026020010151602001906001600160a01b031690816001600160a01b031681525050858160008151811061390457613904614bc7565b602090810291909101015190151560409182015251631e82ecdb60e31b81526001600160a01b038a169063f41766d89061394a9088908890869089904290600401614fca565b6000604051808303816000875af1158015613969573d6000803e3d6000fd5b505050506040513d6000823e601f3d908101601f191682016040526139919190810190614f8f565b6001815181106139a3576139a3614bc7565b6020026020010151915050979650505050505050565b60006139c5838561495b565b6139cf838761495b565b6139d9919061481d565b826139e4898961495b565b6139ee919061495b565b6139f89190614990565b9050600086613a07838761495b565b613a119190614990565b90506000613a228d8c8e8d8661313f565b9050613a2e818761495b565b613a38838961495b565b613a42919061481d565b82613a4d8b8b61495b565b613a57919061495b565b6130ea9190614990565b6000806000806000856001600160a01b031663feaf968c6040518163ffffffff1660e01b815260040160a060405180830381865afa158015613aa7573d6000803e3d6000fd5b505050506040513d601f19601f82011682018060405250810190613acb9190615030565b9450945050935093508369ffffffffffffffffffff168169ffffffffffffffffffff161015613b0c5760405162461bcd60e51b8152600401610780906150c7565b60008211613b2c5760405162461bcd60e51b815260040161078090615100565b5090949350505050565b60606107176001600160a01b03831660145b60606000613b5783600261495b565b613b6290600261481d565b67ffffffffffffffff811115613b7a57613b7a613f8f565b6040519080825280601f01601f191660200182016040528015613ba4576020820181803683370190505b509050600360fc1b81600081518110613bbf57613bbf614bc7565b60200101906001600160f81b031916908160001a905350600f60fb1b81600181518110613bee57613bee614bc7565b60200101906001600160f81b031916908160001a9053506000613c1284600261495b565b613c1d90600161481d565b90505b6001811115613c95576f181899199a1a9b1b9c1cb0b131b232b360811b85600f1660108110613c5157613c51614bc7565b1a60f81b828281518110613c6757613c67614bc7565b60200101906001600160f81b031916908160001a90535060049490941c93613c8e81615110565b9050613c20565b508315611bba5760405162461bcd60e51b815260040161078090615159565b613cbd816132ec565b6040516001600160a01b038216907fbc7cd75a20ee27fd9adebab32041f755214dbc6bffa90cc0225b39da2e5c2d3b90600090a250565b60606001600160a01b0383163b613d1d5760405162461bcd60e51b8152600401610780906151ac565b600080846001600160a01b031684604051613d3891906151bc565b600060405180830381855af49150503d8060008114613d73576040519150601f19603f3d011682016040523d82523d6000602084013e613d78565b606091505b509150915061328a82826040518060600160405280602781526020016152096027913960608315613daa575081611bba565b611bba8383815115613dbf5781518083602001fd5b8060405162461bcd60e51b81526004016107809190614937565b60006107176001600160a01b038316613df0565b90565b6001600160a01b031690565b600061071782613dd9565b600061071782613dfc565b613e1b81613e07565b82525050565b602081016107178284613e12565b6001600160e01b031981165b811461087357600080fd5b803561071781613e2f565b600060208284031215613e6657613e66600080fd5b60006115678484613e46565b801515613e1b565b602081016107178284613e72565b80613e1b565b602081016107178284613e88565b80613e3b565b803561071781613e9c565b600060208284031215613ec257613ec2600080fd5b60006115678484613ea2565b60006001600160a01b038216610717565b613e3b81613ece565b803561071781613edf565b60008060408385031215613f0957613f09600080fd5b6000613f158585613ea2565b9250506020613f2685828601613ee8565b9150509250929050565b600060208284031215613f4557613f45600080fd5b60006115678484613ee8565b60006101608284031215613f6757613f67600080fd5b50919050565b60006101608284031215613f8357613f83600080fd5b60006115678484613f51565b634e487b7160e01b600052604160045260246000fd5b601f19601f830116810181811067ffffffffffffffff82111715613fcb57613fcb613f8f565b6040525050565b6000613fdd60405190565b90506112f48282613fa5565b600067ffffffffffffffff82111561400357614003613f8f565b601f19601f83011660200192915050565b82818337506000910152565b600061403361402e84613fe9565b613fd2565b90508281526020810184848401111561404e5761404e600080fd5b612563848285614014565b600082601f83011261406d5761406d600080fd5b8135611567848260208601614020565b6000806040838503121561409357614093600080fd5b600061409f8585613ee8565b925050602083013567ffffffffffffffff8111156140bf576140bf600080fd5b613f2685828601614059565b613e1b81613ece565b6020810161071782846140cb565b600080604083850312156140f8576140f8600080fd5b60006141048585613ee8565b9250506020613f2685828601613ea2565b60008060006060848603121561412d5761412d600080fd5b60006141398686613ea2565b935050602061414a86828701613ea2565b925050604061415b86828701613ea2565b9150509250925092565b801515613e3b565b803561071781614165565b6000806000806080858703121561419157614191600080fd5b600061419d8787613ee8565b94505060206141ae87828801613ea2565b93505060406141bf87828801613ee8565b92505060606141d08782880161416d565b91505092959194509250565b602f81526000602082017f416363657373436f6e74726f6c3a2063616e206f6e6c792072656e6f756e636581526e103937b632b9903337b91039b2b63360891b602082015291505b5060400190565b60208082528101610717816141dc565b602c81526000602082017f46756e6374696f6e206d7573742062652063616c6c6564207468726f7567682081526b19195b1959d85d1958d85b1b60a21b60208201529150614224565b602080825281016107178161423b565b602c81526000602082017f46756e6374696f6e206d7573742062652063616c6c6564207468726f7567682081526b6163746976652070726f787960a01b60208201529150614224565b6020808252810161071781614294565b60148152600060208201735265737472696374656420746f2061646d696e7360601b815291505b5060200190565b60208082528101610717816142ed565b60ff8116613e3b565b80516107178161432b565b60006020828403121561435457614354600080fd5b60006115678484614334565b634e487b7160e01b600052601160045260246000fd5b80825b60018511156143b55780860481111561439457614394614360565b60018516156143a257908102905b80026143ae8560011c90565b9450614379565b94509492505050565b6000826143cd57506001611bba565b816143da57506000611bba565b81600181146143f057600281146143fa57614427565b6001915050611bba565b60ff84111561440b5761440b614360565b8360020a91508482111561442157614421614360565b50611bba565b5060208310610133831016604e8410600b841016171561445a575081810a8381111561445557614455614360565b611bba565b6144678484846001614376565b9250905081840481111561447d5761447d614360565b0292915050565b600060ff83169250611bba60001984846143be565b603881526000602082017f555550535570677261646561626c653a206d757374206e6f742062652063616c81527f6c6564207468726f7567682064656c656761746563616c6c000000000000000060208201529150614224565b6020808252810161071781614499565b602e81526000602082017f496e697469616c697a61626c653a20636f6e747261637420697320616c72656181526d191e481a5b9a5d1a585b1a5e995960921b60208201529150614224565b6020808252810161071781614503565b600060ff8216610717565b613e1b8161455e565b602081016107178284614569565b601881526000602082017f5a65726f2061646472657373206e6f7420616c6c6f776564000000000000000081529150614314565b6020808252810161071781614580565b601f81526000602082017f5265737472696374656420746f20504f5254464f4c494f5f4d414e414745520081529150614314565b60208082528101610717816145c4565b805161071781613e9c565b60006020828403121561462857614628600080fd5b60006115678484614608565b601f81526000602082017f5374726174656779204e4156206c657373207468616e2065787065637465640081529150614314565b6020808252810161071781614634565b604081016146868285613e88565b611bba60208301846140cb565b805161071781614165565b6000602082840312156146b3576146b3600080fd5b60006115678484614693565b602281526000602082017f5265737472696374656420746f20504f5254464f4c494f5f4147454e545f524f8152614c4560f01b60208201529150614224565b60208082528101610717816146bf565b6060810161471c8286613e88565b6147296020830185613e88565b6115676040830184613e88565b602981526000602082017f52657475726e65642076616c7565206c657373207468616e2072657175657374815268195908185b5bdd5b9d60ba1b60208201529150614224565b6020808252810161071781614736565b6040810161479a82856140cb565b611bba6020830184613e88565b6040810161479a8285613e88565b608081016147c382876140cb565b6147d060208301866140cb565b6147dd6040830185613e72565b61328a6060830184613e88565b6000806040838503121561480057614800600080fd5b600061480c8585614608565b9250506020613f2685828601614608565b8082018082111561071757610717614360565b602e81526000602082017f45524331393637557067726164653a206e657720696d706c656d656e7461746981526d6f6e206973206e6f74205555505360901b60208201529150614224565b6020808252810161071781614830565b602981526000602082017f45524331393637557067726164653a20756e737570706f727465642070726f788152681a58589b195555525160ba1b60208201529150614224565b602080825281016107178161488b565b60005b838110156148fc5781810151838201526020016148e4565b50506000910152565b600061490f825190565b8084526020840193506149268185602086016148e1565b601f01601f19169290920192915050565b60208082528101611bba8184614905565b8181038181111561071757610717614360565b81810280821583820485141761497357614973614360565b5092915050565b634e487b7160e01b600052601260045260246000fd5b60008261499f5761499f61497a565b500490565b60148152600060208201732737b716b1b7b6b830ba34b13632903a37b5b2b760611b81529150614314565b60208082528101610717816149a4565b6000806000606084860312156149f7576149f7600080fd5b6000614a038686614608565b9350506020614a1486828701614608565b925050604061415b86828701614608565b6000610717613ded8381565b613e1b81614a25565b60a08101614a4882886140cb565b614a5560208301876140cb565b614a626040830186613e72565b614a6f6060830185614a31565b614a7c6080830184614a31565b9695505050505050565b6101208101614a95828c6140cb565b614aa2602083018b6140cb565b614aaf604083018a613e72565b614abc6060830189613e88565b614ac96080830188613e88565b614ad660a0830187613e88565b614ae360c0830186613e88565b614af060e08301856140cb565b614afe610100830184613e88565b9a9950505050505050505050565b601981526000602082017f536f6d6520746f6b656e206e6f7420636f6d70617469626c650000000000000081529150614314565b6020808252810161071781614b0c565b6101008101614b5f828b6140cb565b614b6c602083018a6140cb565b614b796040830189613e72565b614b866060830188613e88565b614b936080830187613e88565b614ba060a0830186613e88565b614bad60c08301856140cb565b614bba60e0830184613e88565b9998505050505050505050565b634e487b7160e01b600052603260045260246000fd5b6000614be983836140cb565b505060200190565b6000614bfb825190565b80845260209384019383018060005b83811015614c2f578151614c1e8882614bdd565b975060208301925050600101614c0a565b509495945050505050565b60608082528101614c4b8186614bf1565b90508181036020830152614c5f8185614bf1565b90506115676040830184613e88565b600067ffffffffffffffff821115614c8857614c88613f8f565b5060209081020190565b6000614ca061402e84614c6e565b83815290506020808201908402830185811115614cbf57614cbf600080fd5b835b81811015614ce35780614cd48882614608565b84525060209283019201614cc1565b5050509392505050565b600082601f830112614d0157614d01600080fd5b8151611567848260208601614c92565b60008060408385031215614d2757614d27600080fd5b6000614d338585614608565b925050602083015167ffffffffffffffff811115614d5357614d53600080fd5b613f2685828601614ced565b6000614d69825190565b614d778185602086016148e1565b9290920192915050565b7f416363657373436f6e74726f6c3a206163636f756e742000000000000000000081526017016000614db38285614d5f565b7001034b99036b4b9b9b4b733903937b6329607d1b815260110191506115678284614d5f565b602d81526000602082017f455243313936373a206e657720696d706c656d656e746174696f6e206973206e81526c1bdd08184818dbdb9d1c9858dd609a1b60208201529150614224565b6020808252810161071781614dd9565b602b81526000602082017f496e697469616c697a61626c653a20636f6e7472616374206973206e6f74206981526a6e697469616c697a696e6760a81b60208201529150614224565b6020808252810161071781614e33565b60c08082528101614e9c8189614bf1565b90508181036020830152614eb08188614bf1565b9050614ebf6040830187613e88565b614ecc6060830186613e88565b614ed960808301856140cb565b61364260a0830184613e88565b80516060830190614ef784826140cb565b506020820151614f0a60208501826140cb565b5060408201516133676040850182613e72565b6000614f298383614ee6565b505060600190565b6000614f3b825190565b80845260209384019383018060005b83811015614c2f578151614f5e8882614f1d565b975060208301925050600101614f4a565b60408101614f7d8285613e88565b81810360208301526115678184614f31565b600060208284031215614fa457614fa4600080fd5b815167ffffffffffffffff811115614fbe57614fbe600080fd5b61156784828501614ced565b60a08101614fd88288613e88565b614fe56020830187613e88565b8181036040830152614ff78186614f31565b905061500660608301856140cb565b614a7c6080830184613e88565b69ffffffffffffffffffff8116613e3b565b805161071781615013565b600080600080600060a0868803121561504b5761504b600080fd5b60006150578888615025565b955050602061506888828901614608565b945050604061507988828901614608565b935050606061508a88828901614608565b925050608061509b88828901615025565b9150509295509295909350565b60088152600060208201674f6c64206461746160c01b81529150614314565b60208082528101610717816150a8565b6012815260006020820171526f756e64206e6f7420636f6d706c65746560701b81529150614314565b60208082528101610717816150d7565b60008161511f5761511f614360565b506000190190565b60208082527f537472696e67733a20686578206c656e67746820696e73756666696369656e7491019081526000614314565b6020808252810161071781615127565b602681526000602082017f416464726573733a2064656c65676174652063616c6c20746f206e6f6e2d636f8152651b9d1c9858dd60d21b60208201529150614224565b6020808252810161071781615169565b6000611bba8284614d5f56fe90c2aa7471c04182221f68e80c07ab1e5946e4c63f8693e14ca40385d529f051360894a13ba1a3210667c828492db98dca3e2076cc3735a920a3ca505d382bbc416464726573733a206c6f772d6c6576656c2064656c65676174652063616c6c206661696c6564a2646970667358221220748103bd98f2086cad980af243c547a08b28a397872612d9121161fdeae3057864736f6c63430008110033",
  "implementation": "0x5C3671BcA2c4f03988308c82933d752923a11383",
  "devdoc": {
    "kind": "dev",
    "methods": {
      "constructor": {
        "custom:oz-upgrades-unsafe-allow": "constructor"
      },
      "getRoleAdmin(bytes32)": {
        "details": "Returns the admin role that controls `role`. See {grantRole} and {revokeRole}. To change a role's admin, use {_setRoleAdmin}."
      },
      "grantRole(bytes32,address)": {
        "details": "Grants `role` to `account`. If `account` had not been already granted `role`, emits a {RoleGranted} event. Requirements: - the caller must have ``role``'s admin role. May emit a {RoleGranted} event."
      },
      "hasRole(bytes32,address)": {
        "details": "Returns `true` if `account` has been granted `role`."
      },
      "proxiableUUID()": {
        "details": "Implementation of the ERC1822 {proxiableUUID} function. This returns the storage slot used by the implementation. It is used to validate the implementation's compatibility when performing an upgrade. IMPORTANT: A proxy pointing at a proxiable contract should not be considered proxiable itself, because this risks bricking a proxy that upgrades to it, by delegating to itself until out of gas. Thus it is critical that this function revert if invoked through a proxy. This is guaranteed by the `notDelegated` modifier."
      },
      "renounceRole(bytes32,address)": {
        "details": "Revokes `role` from the calling account. Roles are often managed via {grantRole} and {revokeRole}: this function's purpose is to provide a mechanism for accounts to lose their privileges if they are compromised (such as when a trusted device is misplaced). If the calling account had been revoked `role`, emits a {RoleRevoked} event. Requirements: - the caller must be `account`. May emit a {RoleRevoked} event."
      },
      "revokeRole(bytes32,address)": {
        "details": "Revokes `role` from `account`. If `account` had been granted `role`, emits a {RoleRevoked} event. Requirements: - the caller must have ``role``'s admin role. May emit a {RoleRevoked} event."
      },
      "supportsInterface(bytes4)": {
        "details": "See {IERC165-supportsInterface}."
      },
      "upgradeTo(address)": {
        "details": "Upgrade the implementation of the proxy to `newImplementation`. Calls {_authorizeUpgrade}. Emits an {Upgraded} event."
      },
      "upgradeToAndCall(address,bytes)": {
        "details": "Upgrade the implementation of the proxy to `newImplementation`, and subsequently execute the function call encoded in `data`. Calls {_authorizeUpgrade}. Emits an {Upgraded} event."
      }
    },
    "version": 1
  },
  "userdoc": {
    "kind": "user",
    "methods": {},
    "version": 1
  },
  "storageLayout": {
    "storage": [
      {
        "astId": 804,
        "contract": "contracts/strategies/StrategyThenaUsdtUsdPlus.sol:StrategyThenaUsdtUsdPlus",
        "label": "_initialized",
        "offset": 0,
        "slot": "0",
        "type": "t_uint8"
      },
      {
        "astId": 807,
        "contract": "contracts/strategies/StrategyThenaUsdtUsdPlus.sol:StrategyThenaUsdtUsdPlus",
        "label": "_initializing",
        "offset": 1,
        "slot": "0",
        "type": "t_bool"
      },
      {
        "astId": 1427,
        "contract": "contracts/strategies/StrategyThenaUsdtUsdPlus.sol:StrategyThenaUsdtUsdPlus",
        "label": "__gap",
        "offset": 0,
        "slot": "1",
        "type": "t_array(t_uint256)50_storage"
      },
      {
        "astId": 1706,
        "contract": "contracts/strategies/StrategyThenaUsdtUsdPlus.sol:StrategyThenaUsdtUsdPlus",
        "label": "__gap",
        "offset": 0,
        "slot": "51",
        "type": "t_array(t_uint256)50_storage"
      },
      {
        "astId": 39,
        "contract": "contracts/strategies/StrategyThenaUsdtUsdPlus.sol:StrategyThenaUsdtUsdPlus",
        "label": "_roles",
        "offset": 0,
        "slot": "101",
        "type": "t_mapping(t_bytes32,t_struct(RoleData)34_storage)"
      },
      {
        "astId": 334,
        "contract": "contracts/strategies/StrategyThenaUsdtUsdPlus.sol:StrategyThenaUsdtUsdPlus",
        "label": "__gap",
        "offset": 0,
        "slot": "102",
        "type": "t_array(t_uint256)49_storage"
      },
      {
        "astId": 786,
        "contract": "contracts/strategies/StrategyThenaUsdtUsdPlus.sol:StrategyThenaUsdtUsdPlus",
        "label": "__gap",
        "offset": 0,
        "slot": "151",
        "type": "t_array(t_uint256)50_storage"
      },
      {
        "astId": 1101,
        "contract": "contracts/strategies/StrategyThenaUsdtUsdPlus.sol:StrategyThenaUsdtUsdPlus",
        "label": "__gap",
        "offset": 0,
        "slot": "201",
        "type": "t_array(t_uint256)50_storage"
      },
      {
        "astId": 4358,
        "contract": "contracts/strategies/StrategyThenaUsdtUsdPlus.sol:StrategyThenaUsdtUsdPlus",
        "label": "portfolioManager",
        "offset": 0,
        "slot": "251",
        "type": "t_address"
      },
      {
        "astId": 4360,
        "contract": "contracts/strategies/StrategyThenaUsdtUsdPlus.sol:StrategyThenaUsdtUsdPlus",
        "label": "swapSlippageBP",
        "offset": 0,
        "slot": "252",
        "type": "t_uint256"
      },
      {
        "astId": 4362,
        "contract": "contracts/strategies/StrategyThenaUsdtUsdPlus.sol:StrategyThenaUsdtUsdPlus",
        "label": "navSlippageBP",
        "offset": 0,
        "slot": "253",
        "type": "t_uint256"
      },
      {
        "astId": 4364,
        "contract": "contracts/strategies/StrategyThenaUsdtUsdPlus.sol:StrategyThenaUsdtUsdPlus",
        "label": "stakeSlippageBP",
        "offset": 0,
        "slot": "254",
        "type": "t_uint256"
      },
      {
        "astId": 4761,
        "contract": "contracts/strategies/StrategyThenaUsdtUsdPlus.sol:StrategyThenaUsdtUsdPlus",
        "label": "__gap",
        "offset": 0,
        "slot": "255",
        "type": "t_array(t_uint256)46_storage"
      },
      {
        "astId": 9042,
        "contract": "contracts/strategies/StrategyThenaUsdtUsdPlus.sol:StrategyThenaUsdtUsdPlus",
        "label": "busd",
        "offset": 0,
        "slot": "301",
        "type": "t_contract(IERC20)2662"
      },
      {
        "astId": 9045,
        "contract": "contracts/strategies/StrategyThenaUsdtUsdPlus.sol:StrategyThenaUsdtUsdPlus",
        "label": "usdt",
        "offset": 0,
        "slot": "302",
        "type": "t_contract(IERC20)2662"
      },
      {
        "astId": 9048,
        "contract": "contracts/strategies/StrategyThenaUsdtUsdPlus.sol:StrategyThenaUsdtUsdPlus",
        "label": "usdPlus",
        "offset": 0,
        "slot": "303",
        "type": "t_contract(IERC20)2662"
      },
      {
        "astId": 9051,
        "contract": "contracts/strategies/StrategyThenaUsdtUsdPlus.sol:StrategyThenaUsdtUsdPlus",
        "label": "the",
        "offset": 0,
        "slot": "304",
        "type": "t_contract(IERC20)2662"
      },
      {
        "astId": 9054,
        "contract": "contracts/strategies/StrategyThenaUsdtUsdPlus.sol:StrategyThenaUsdtUsdPlus",
        "label": "pair",
        "offset": 0,
        "slot": "305",
        "type": "t_contract(IPair)6367"
      },
      {
        "astId": 9057,
        "contract": "contracts/strategies/StrategyThenaUsdtUsdPlus.sol:StrategyThenaUsdtUsdPlus",
        "label": "router",
        "offset": 0,
        "slot": "306",
        "type": "t_contract(IRouter)6717"
      },
      {
        "astId": 9060,
        "contract": "contracts/strategies/StrategyThenaUsdtUsdPlus.sol:StrategyThenaUsdtUsdPlus",
        "label": "gauge",
        "offset": 0,
        "slot": "307",
        "type": "t_contract(IGaugeV2)6904"
      },
      {
        "astId": 9063,
        "contract": "contracts/strategies/StrategyThenaUsdtUsdPlus.sol:StrategyThenaUsdtUsdPlus",
        "label": "wombatPool",
        "offset": 0,
        "slot": "308",
        "type": "t_contract(IPool)7742"
      },
      {
        "astId": 9066,
        "contract": "contracts/strategies/StrategyThenaUsdtUsdPlus.sol:StrategyThenaUsdtUsdPlus",
        "label": "wombatRouter",
        "offset": 0,
        "slot": "309",
        "type": "t_contract(IWombatRouter)8098"
      },
      {
        "astId": 9069,
        "contract": "contracts/strategies/StrategyThenaUsdtUsdPlus.sol:StrategyThenaUsdtUsdPlus",
        "label": "oracleBusd",
        "offset": 0,
        "slot": "310",
        "type": "t_contract(IPriceFeed)4837"
      },
      {
        "astId": 9072,
        "contract": "contracts/strategies/StrategyThenaUsdtUsdPlus.sol:StrategyThenaUsdtUsdPlus",
        "label": "oracleUsdt",
        "offset": 0,
        "slot": "311",
        "type": "t_contract(IPriceFeed)4837"
      },
      {
        "astId": 9074,
        "contract": "contracts/strategies/StrategyThenaUsdtUsdPlus.sol:StrategyThenaUsdtUsdPlus",
        "label": "busdDm",
        "offset": 0,
        "slot": "312",
        "type": "t_uint256"
      },
      {
        "astId": 9076,
        "contract": "contracts/strategies/StrategyThenaUsdtUsdPlus.sol:StrategyThenaUsdtUsdPlus",
        "label": "usdtDm",
        "offset": 0,
        "slot": "313",
        "type": "t_uint256"
      }
    ],
    "types": {
      "t_address": {
        "encoding": "inplace",
        "label": "address",
        "numberOfBytes": "20"
      },
      "t_array(t_uint256)46_storage": {
        "base": "t_uint256",
        "encoding": "inplace",
        "label": "uint256[46]",
        "numberOfBytes": "1472"
      },
      "t_array(t_uint256)49_storage": {
        "base": "t_uint256",
        "encoding": "inplace",
        "label": "uint256[49]",
        "numberOfBytes": "1568"
      },
      "t_array(t_uint256)50_storage": {
        "base": "t_uint256",
        "encoding": "inplace",
        "label": "uint256[50]",
        "numberOfBytes": "1600"
      },
      "t_bool": {
        "encoding": "inplace",
        "label": "bool",
        "numberOfBytes": "1"
      },
      "t_bytes32": {
        "encoding": "inplace",
        "label": "bytes32",
        "numberOfBytes": "32"
      },
      "t_contract(IERC20)2662": {
        "encoding": "inplace",
        "label": "contract IERC20",
        "numberOfBytes": "20"
      },
      "t_contract(IGaugeV2)6904": {
        "encoding": "inplace",
        "label": "contract IGaugeV2",
        "numberOfBytes": "20"
      },
      "t_contract(IPair)6367": {
        "encoding": "inplace",
        "label": "contract IPair",
        "numberOfBytes": "20"
      },
      "t_contract(IPool)7742": {
        "encoding": "inplace",
        "label": "contract IPool",
        "numberOfBytes": "20"
      },
      "t_contract(IPriceFeed)4837": {
        "encoding": "inplace",
        "label": "contract IPriceFeed",
        "numberOfBytes": "20"
      },
      "t_contract(IRouter)6717": {
        "encoding": "inplace",
        "label": "contract IRouter",
        "numberOfBytes": "20"
      },
      "t_contract(IWombatRouter)8098": {
        "encoding": "inplace",
        "label": "contract IWombatRouter",
        "numberOfBytes": "20"
      },
      "t_mapping(t_address,t_bool)": {
        "encoding": "mapping",
        "key": "t_address",
        "label": "mapping(address => bool)",
        "numberOfBytes": "32",
        "value": "t_bool"
      },
      "t_mapping(t_bytes32,t_struct(RoleData)34_storage)": {
        "encoding": "mapping",
        "key": "t_bytes32",
        "label": "mapping(bytes32 => struct AccessControlUpgradeable.RoleData)",
        "numberOfBytes": "32",
        "value": "t_struct(RoleData)34_storage"
      },
      "t_struct(RoleData)34_storage": {
        "encoding": "inplace",
        "label": "struct AccessControlUpgradeable.RoleData",
        "members": [
          {
            "astId": 31,
            "contract": "contracts/strategies/StrategyThenaUsdtUsdPlus.sol:StrategyThenaUsdtUsdPlus",
            "label": "members",
            "offset": 0,
            "slot": "0",
            "type": "t_mapping(t_address,t_bool)"
          },
          {
            "astId": 33,
            "contract": "contracts/strategies/StrategyThenaUsdtUsdPlus.sol:StrategyThenaUsdtUsdPlus",
            "label": "adminRole",
            "offset": 0,
            "slot": "1",
            "type": "t_bytes32"
          }
        ],
        "numberOfBytes": "64"
      },
      "t_uint256": {
        "encoding": "inplace",
        "label": "uint256",
        "numberOfBytes": "32"
      },
      "t_uint8": {
        "encoding": "inplace",
        "label": "uint8",
        "numberOfBytes": "1"
      }
    }
  }
}