{
  "address": "0xA40Ac458f3A66bEf260a9184517F9eC8B0714117",
  "abi": [
    {
      "inputs": [],
      "stateMutability": "nonpayable",
      "type": "constructor"
    },
    {
      "anonymous": false,
      "inputs": [
        {
          "indexed": false,
          "internalType": "address",
          "name": "previousAdmin",
          "type": "address"
        },
        {
          "indexed": false,
          "internalType": "address",
          "name": "newAdmin",
          "type": "address"
        }
      ],
      "name": "AdminChanged",
      "type": "event"
    },
    {
      "anonymous": false,
      "inputs": [
        {
          "indexed": true,
          "internalType": "address",
          "name": "beacon",
          "type": "address"
        }
      ],
      "name": "BeaconUpgraded",
      "type": "event"
    },
    {
      "anonymous": false,
      "inputs": [
        {
          "indexed": false,
          "internalType": "uint8",
          "name": "version",
          "type": "uint8"
        }
      ],
      "name": "Initialized",
      "type": "event"
    },
    {
      "anonymous": false,
      "inputs": [
        {
          "indexed": false,
          "internalType": "address",
          "name": "value",
          "type": "address"
        }
      ],
      "name": "PortfolioManagerUpdated",
      "type": "event"
    },
    {
      "anonymous": false,
      "inputs": [
        {
          "indexed": false,
          "internalType": "uint256",
          "name": "amount",
          "type": "uint256"
        }
      ],
      "name": "Reward",
      "type": "event"
    },
    {
      "anonymous": false,
      "inputs": [
        {
          "indexed": true,
          "internalType": "bytes32",
          "name": "role",
          "type": "bytes32"
        },
        {
          "indexed": true,
          "internalType": "bytes32",
          "name": "previousAdminRole",
          "type": "bytes32"
        },
        {
          "indexed": true,
          "internalType": "bytes32",
          "name": "newAdminRole",
          "type": "bytes32"
        }
      ],
      "name": "RoleAdminChanged",
      "type": "event"
    },
    {
      "anonymous": false,
      "inputs": [
        {
          "indexed": true,
          "internalType": "bytes32",
          "name": "role",
          "type": "bytes32"
        },
        {
          "indexed": true,
          "internalType": "address",
          "name": "account",
          "type": "address"
        },
        {
          "indexed": true,
          "internalType": "address",
          "name": "sender",
          "type": "address"
        }
      ],
      "name": "RoleGranted",
      "type": "event"
    },
    {
      "anonymous": false,
      "inputs": [
        {
          "indexed": true,
          "internalType": "bytes32",
          "name": "role",
          "type": "bytes32"
        },
        {
          "indexed": true,
          "internalType": "address",
          "name": "account",
          "type": "address"
        },
        {
          "indexed": true,
          "internalType": "address",
          "name": "sender",
          "type": "address"
        }
      ],
      "name": "RoleRevoked",
      "type": "event"
    },
    {
      "anonymous": false,
      "inputs": [
        {
          "indexed": false,
          "internalType": "uint256",
          "name": "swapSlippageBP",
          "type": "uint256"
        },
        {
          "indexed": false,
          "internalType": "uint256",
          "name": "navSlippageBP",
          "type": "uint256"
        },
        {
          "indexed": false,
          "internalType": "uint256",
          "name": "stakeSlippageBP",
          "type": "uint256"
        }
      ],
      "name": "SlippagesUpdated",
      "type": "event"
    },
    {
      "anonymous": false,
      "inputs": [
        {
          "indexed": false,
          "internalType": "uint256",
          "name": "amount",
          "type": "uint256"
        }
      ],
      "name": "Stake",
      "type": "event"
    },
    {
      "anonymous": false,
      "inputs": [],
      "name": "StrategyUpdatedParams",
      "type": "event"
    },
    {
      "anonymous": false,
      "inputs": [
        {
          "indexed": false,
          "internalType": "uint256",
          "name": "amount",
          "type": "uint256"
        },
        {
          "indexed": false,
          "internalType": "uint256",
          "name": "amountReceived",
          "type": "uint256"
        }
      ],
      "name": "Unstake",
      "type": "event"
    },
    {
      "anonymous": false,
      "inputs": [
        {
          "indexed": true,
          "internalType": "address",
          "name": "implementation",
          "type": "address"
        }
      ],
      "name": "Upgraded",
      "type": "event"
    },
    {
      "inputs": [],
      "name": "DEFAULT_ADMIN_ROLE",
      "outputs": [
        {
          "internalType": "bytes32",
          "name": "",
          "type": "bytes32"
        }
      ],
      "stateMutability": "view",
      "type": "function"
    },
    {
      "inputs": [],
      "name": "PORTFOLIO_AGENT_ROLE",
      "outputs": [
        {
          "internalType": "bytes32",
          "name": "",
          "type": "bytes32"
        }
      ],
      "stateMutability": "view",
      "type": "function"
    },
    {
      "inputs": [],
      "name": "PORTFOLIO_MANAGER",
      "outputs": [
        {
          "internalType": "bytes32",
          "name": "",
          "type": "bytes32"
        }
      ],
      "stateMutability": "view",
      "type": "function"
    },
    {
      "inputs": [],
      "name": "busdToken",
      "outputs": [
        {
          "internalType": "contract IERC20",
          "name": "",
          "type": "address"
        }
      ],
      "stateMutability": "view",
      "type": "function"
    },
    {
      "inputs": [
        {
          "internalType": "address",
          "name": "_to",
          "type": "address"
        }
      ],
      "name": "claimRewards",
      "outputs": [
        {
          "internalType": "uint256",
          "name": "",
          "type": "uint256"
        }
      ],
      "stateMutability": "nonpayable",
      "type": "function"
    },
    {
      "inputs": [
        {
          "internalType": "bytes32",
          "name": "role",
          "type": "bytes32"
        }
      ],
      "name": "getRoleAdmin",
      "outputs": [
        {
          "internalType": "bytes32",
          "name": "",
          "type": "bytes32"
        }
      ],
      "stateMutability": "view",
      "type": "function"
    },
    {
      "inputs": [
        {
          "internalType": "bytes32",
          "name": "role",
          "type": "bytes32"
        },
        {
          "internalType": "address",
          "name": "account",
          "type": "address"
        }
      ],
      "name": "grantRole",
      "outputs": [],
      "stateMutability": "nonpayable",
      "type": "function"
    },
    {
      "inputs": [
        {
          "internalType": "bytes32",
          "name": "role",
          "type": "bytes32"
        },
        {
          "internalType": "address",
          "name": "account",
          "type": "address"
        }
      ],
      "name": "hasRole",
      "outputs": [
        {
          "internalType": "bool",
          "name": "",
          "type": "bool"
        }
      ],
      "stateMutability": "view",
      "type": "function"
    },
    {
      "inputs": [],
      "name": "initialize",
      "outputs": [],
      "stateMutability": "nonpayable",
      "type": "function"
    },
    {
      "inputs": [],
      "name": "liquidationValue",
      "outputs": [
        {
          "internalType": "uint256",
          "name": "",
          "type": "uint256"
        }
      ],
      "stateMutability": "view",
      "type": "function"
    },
    {
      "inputs": [],
      "name": "navSlippageBP",
      "outputs": [
        {
          "internalType": "uint256",
          "name": "",
          "type": "uint256"
        }
      ],
      "stateMutability": "view",
      "type": "function"
    },
    {
      "inputs": [],
      "name": "netAssetValue",
      "outputs": [
        {
          "internalType": "uint256",
          "name": "",
          "type": "uint256"
        }
      ],
      "stateMutability": "view",
      "type": "function"
    },
    {
      "inputs": [],
      "name": "pancakeRouter",
      "outputs": [
        {
          "internalType": "contract IPancakeRouter02",
          "name": "",
          "type": "address"
        }
      ],
      "stateMutability": "view",
      "type": "function"
    },
    {
      "inputs": [],
      "name": "portfolioManager",
      "outputs": [
        {
          "internalType": "address",
          "name": "",
          "type": "address"
        }
      ],
      "stateMutability": "view",
      "type": "function"
    },
    {
      "inputs": [],
      "name": "proxiableUUID",
      "outputs": [
        {
          "internalType": "bytes32",
          "name": "",
          "type": "bytes32"
        }
      ],
      "stateMutability": "view",
      "type": "function"
    },
    {
      "inputs": [
        {
          "internalType": "bytes32",
          "name": "role",
          "type": "bytes32"
        },
        {
          "internalType": "address",
          "name": "account",
          "type": "address"
        }
      ],
      "name": "renounceRole",
      "outputs": [],
      "stateMutability": "nonpayable",
      "type": "function"
    },
    {
      "inputs": [
        {
          "internalType": "bytes32",
          "name": "role",
          "type": "bytes32"
        },
        {
          "internalType": "address",
          "name": "account",
          "type": "address"
        }
      ],
      "name": "revokeRole",
      "outputs": [],
      "stateMutability": "nonpayable",
      "type": "function"
    },
    {
      "inputs": [
        {
          "components": [
            {
              "internalType": "address",
              "name": "busdToken",
              "type": "address"
            },
            {
              "internalType": "address",
              "name": "vBusdToken",
              "type": "address"
            },
            {
              "internalType": "address",
              "name": "unitroller",
              "type": "address"
            },
            {
              "internalType": "address",
              "name": "pancakeRouter",
              "type": "address"
            },
            {
              "internalType": "address",
              "name": "xvsToken",
              "type": "address"
            },
            {
              "internalType": "address",
              "name": "wbnbToken",
              "type": "address"
            }
          ],
          "internalType": "struct StrategyVenusBusd.StrategyParams",
          "name": "params",
          "type": "tuple"
        }
      ],
      "name": "setParams",
      "outputs": [],
      "stateMutability": "nonpayable",
      "type": "function"
    },
    {
      "inputs": [
        {
          "internalType": "address",
          "name": "_value",
          "type": "address"
        }
      ],
      "name": "setPortfolioManager",
      "outputs": [],
      "stateMutability": "nonpayable",
      "type": "function"
    },
    {
      "inputs": [
        {
          "internalType": "uint256",
          "name": "_swapSlippageBP",
          "type": "uint256"
        },
        {
          "internalType": "uint256",
          "name": "_navSlippageBP",
          "type": "uint256"
        },
        {
          "internalType": "uint256",
          "name": "_stakeSlippageBP",
          "type": "uint256"
        }
      ],
      "name": "setSlippages",
      "outputs": [],
      "stateMutability": "nonpayable",
      "type": "function"
    },
    {
      "inputs": [
        {
          "internalType": "address",
          "name": "_asset",
          "type": "address"
        },
        {
          "internalType": "uint256",
          "name": "_amount",
          "type": "uint256"
        }
      ],
      "name": "stake",
      "outputs": [],
      "stateMutability": "nonpayable",
      "type": "function"
    },
    {
      "inputs": [],
      "name": "stakeSlippageBP",
      "outputs": [
        {
          "internalType": "uint256",
          "name": "",
          "type": "uint256"
        }
      ],
      "stateMutability": "view",
      "type": "function"
    },
    {
      "inputs": [
        {
          "internalType": "bytes4",
          "name": "interfaceId",
          "type": "bytes4"
        }
      ],
      "name": "supportsInterface",
      "outputs": [
        {
          "internalType": "bool",
          "name": "",
          "type": "bool"
        }
      ],
      "stateMutability": "view",
      "type": "function"
    },
    {
      "inputs": [],
      "name": "swapSlippageBP",
      "outputs": [
        {
          "internalType": "uint256",
          "name": "",
          "type": "uint256"
        }
      ],
      "stateMutability": "view",
      "type": "function"
    },
    {
      "inputs": [],
      "name": "unitroller",
      "outputs": [
        {
          "internalType": "contract Unitroller",
          "name": "",
          "type": "address"
        }
      ],
      "stateMutability": "view",
      "type": "function"
    },
    {
      "inputs": [
        {
          "internalType": "address",
          "name": "_asset",
          "type": "address"
        },
        {
          "internalType": "uint256",
          "name": "_amount",
          "type": "uint256"
        },
        {
          "internalType": "address",
          "name": "_beneficiary",
          "type": "address"
        },
        {
          "internalType": "bool",
          "name": "_targetIsZero",
          "type": "bool"
        }
      ],
      "name": "unstake",
      "outputs": [
        {
          "internalType": "uint256",
          "name": "",
          "type": "uint256"
        }
      ],
      "stateMutability": "nonpayable",
      "type": "function"
    },
    {
      "inputs": [
        {
          "internalType": "address",
          "name": "newImplementation",
          "type": "address"
        }
      ],
      "name": "upgradeTo",
      "outputs": [],
      "stateMutability": "nonpayable",
      "type": "function"
    },
    {
      "inputs": [
        {
          "internalType": "address",
          "name": "newImplementation",
          "type": "address"
        },
        {
          "internalType": "bytes",
          "name": "data",
          "type": "bytes"
        }
      ],
      "name": "upgradeToAndCall",
      "outputs": [],
      "stateMutability": "payable",
      "type": "function"
    },
    {
      "inputs": [],
      "name": "vBusdToken",
      "outputs": [
        {
          "internalType": "contract VenusInterface",
          "name": "",
          "type": "address"
        }
      ],
      "stateMutability": "view",
      "type": "function"
    },
    {
      "inputs": [],
      "name": "wbnbToken",
      "outputs": [
        {
          "internalType": "contract IERC20",
          "name": "",
          "type": "address"
        }
      ],
      "stateMutability": "view",
      "type": "function"
    },
    {
      "inputs": [],
      "name": "xvsToken",
      "outputs": [
        {
          "internalType": "contract IERC20",
          "name": "",
          "type": "address"
        }
      ],
      "stateMutability": "view",
      "type": "function"
    }
  ],
  "numDeployments": 2,
  "solcInputHash": "05a7cb23410b4cf1baacaa1531a0a5bb",
  "bytecode": "0x60a0604052306080523480156200001557600080fd5b50600054610100900460ff1615808015620000375750600054600160ff909116105b8062000067575062000054306200010860201b620011c71760201c565b15801562000067575060005460ff166001145b6200008f5760405162461bcd60e51b8152600401620000869062000117565b60405180910390fd5b6000805460ff191660011790558015620000b3576000805461ff0019166101001790555b801562000101576000805461ff00191690556040517f7f26b83ff96e1f2b6a682f133852f6798a09c465da95921460cefb384740249890620000f8906001906200018d565b60405180910390a15b506200019d565b6001600160a01b03163b151590565b602080825281016200016a81602e81527f496e697469616c697a61626c653a20636f6e747261637420697320616c72656160208201526d191e481a5b9a5d1a585b1a5e995960921b604082015260600190565b92915050565b600060ff82166200016a565b620001878162000170565b82525050565b602081016200016a82846200017c565b608051613327620001d56000396000818161067c015281816106bc0152818161075b0152818161079b015261082a01526133276000f3fe6080604052600436106101d85760003560e01c806391d1485411610102578063c21ebd0711610095578063ef5cfb8c11610064578063ef5cfb8c14610541578063f3d5bec914610561578063f6f6b88114610582578063fb200baf146105a257600080fd5b8063c21ebd07146104be578063cc545bec146104df578063d547741f14610500578063de0e70141461052057600080fd5b8063adc9772e116100d1578063adc9772e1461043a578063ae30c1101461045a578063bad1d3da1461047a578063bf52e080146104a857600080fd5b806391d14854146103e5578063a217fddf14610405578063a3673b3814610266578063a440b21a1461041a57600080fd5b80634f1ef2861161017a578063620b75df11610149578063620b75df1461034f5780637d5f58021461037c578063806b9405146103b05780638129fc1c146103d057600080fd5b80634f1ef286146102dd57806352d1902d146102f05780635ca558f8146103055780635dbd733a1461031b57600080fd5b80632576e65a116101b65780632576e65a146102665780632f2ff15d1461027b57806336568abe1461029d5780633659cfe6146102bd57600080fd5b806301ffc9a7146101dd578063119cd87914610213578063248a9ca314610236575b600080fd5b3480156101e957600080fd5b506101fd6101f836600461252e565b6105c3565b60405161020a9190612559565b60405180910390f35b34801561021f57600080fd5b5061022960fd5481565b60405161020a919061256d565b34801561024257600080fd5b5061022961025136600461258c565b60009081526065602052604090206001015490565b34801561027257600080fd5b506102296105fa565b34801561028757600080fd5b5061029b6102963660046125d2565b610609565b005b3480156102a957600080fd5b5061029b6102b83660046125d2565b610633565b3480156102c957600080fd5b5061029b6102d836600461260f565b610672565b61029b6102eb36600461272b565b610751565b3480156102fc57600080fd5b5061022961081d565b34801561031157600080fd5b5061022960fe5481565b34801561032757600080fd5b506102297fd67ad422505496469a1adf6cdf9e5ee92ac5d33992843c9ecc4b2f6d6cde913781565b34801561035b57600080fd5b5060fb5461036f906001600160a01b031681565b60405161020a9190612782565b34801561038857600080fd5b506102297f90c2aa7471c04182221f68e80c07ab1e5946e4c63f8693e14ca40385d529f05181565b3480156103bc57600080fd5b5061029b6103cb3660046127ab565b61087a565b3480156103dc57600080fd5b5061029b6109f0565b3480156103f157600080fd5b506101fd6104003660046125d2565b610abe565b34801561041157600080fd5b50610229600081565b34801561042657600080fd5b5061029b61043536600461260f565b610ae9565b34801561044657600080fd5b5061029b6104553660046127cc565b610be2565b34801561046657600080fd5b5061029b6104753660046127ff565b610de4565b34801561048657600080fd5b5061012f5461049b906001600160a01b031681565b60405161020a919061286e565b3480156104b457600080fd5b5061022960fc5481565b3480156104ca57600080fd5b506101305461049b906001600160a01b031681565b3480156104eb57600080fd5b5061012e5461049b906001600160a01b031681565b34801561050c57600080fd5b5061029b61051b3660046125d2565b610f06565b34801561052c57600080fd5b5061012d5461049b906001600160a01b031681565b34801561054d57600080fd5b5061022961055c36600461260f565b610f2b565b34801561056d57600080fd5b506101325461049b906001600160a01b031681565b34801561058e57600080fd5b5061022961059d36600461288f565b610f7c565b3480156105ae57600080fd5b506101315461049b906001600160a01b031681565b60006001600160e01b03198216637965db0b60e01b14806105f457506301ffc9a760e01b6001600160e01b03198316145b92915050565b60006106046111d6565b905090565b6000828152606560205260409020600101546106248161134f565b61062e8383611359565b505050565b6001600160a01b03811633146106645760405162461bcd60e51b815260040161065b90612942565b60405180910390fd5b61066e82826113df565b5050565b6001600160a01b037f00000000000000000000000000000000000000000000000000000000000000001630036106ba5760405162461bcd60e51b815260040161065b9061299b565b7f00000000000000000000000000000000000000000000000000000000000000006001600160a01b03166107036000805160206132ab833981519152546001600160a01b031690565b6001600160a01b0316146107295760405162461bcd60e51b815260040161065b906129f4565b61073281611446565b6040805160008082526020820190925261074e91839190611451565b50565b6001600160a01b037f00000000000000000000000000000000000000000000000000000000000000001630036107995760405162461bcd60e51b815260040161065b9061299b565b7f00000000000000000000000000000000000000000000000000000000000000006001600160a01b03166107e26000805160206132ab833981519152546001600160a01b031690565b6001600160a01b0316146108085760405162461bcd60e51b815260040161065b906129f4565b61081182611446565b61066e82826001611451565b6000306001600160a01b037f000000000000000000000000000000000000000000000000000000000000000016146108675760405162461bcd60e51b815260040161065b90612a5e565b506000805160206132ab83398151915290565b610885600033610abe565b6108a15760405162461bcd60e51b815260040161065b90612a9c565b6108ae602082018261260f565b61012d80546001600160a01b0319166001600160a01b03929092169190911790556108df604082016020830161260f565b61012e80546001600160a01b0319166001600160a01b0392909216919091179055610910606082016040830161260f565b61012f80546001600160a01b0319166001600160a01b0392909216919091179055610941608082016060830161260f565b61013080546001600160a01b0319166001600160a01b039290921691909117905561097260a082016080830161260f565b61013180546001600160a01b0319166001600160a01b03929092169190911790556109a360c0820160a0830161260f565b61013280546001600160a01b0319166001600160a01b03929092169190911790556040517fea5646eb3528e525944447a4a97de700dd472298626e5c0481d1c82c3da86ea590600090a150565b600054610100900460ff1615808015610a105750600054600160ff909116105b80610a2a5750303b158015610a2a575060005460ff166001145b610a465760405162461bcd60e51b815260040161065b90612af7565b6000805460ff191660011790558015610a69576000805461ff0019166101001790555b610a71611533565b801561074e576000805461ff00191690556040517f7f26b83ff96e1f2b6a682f133852f6798a09c465da95921460cefb384740249890610ab390600190612b1b565b60405180910390a150565b60009182526065602090815260408084206001600160a01b0393909316845291905290205460ff1690565b610af4600033610abe565b610b105760405162461bcd60e51b815260040161065b90612a9c565b6001600160a01b038116610b365760405162461bcd60e51b815260040161065b90612b5d565b60fb54610b6d907f90c2aa7471c04182221f68e80c07ab1e5946e4c63f8693e14ca40385d529f051906001600160a01b0316610f06565b610b977f90c2aa7471c04182221f68e80c07ab1e5946e4c63f8693e14ca40385d529f05182610609565b60fb80546001600160a01b0319166001600160a01b0383161790556040517ff7b449fcd5cfb7379dcd34cb69428dd9f882033b15be33d83b42d91daa28eeb790610ab3908390612782565b610c206040518060400160405280601881526020017f7374616b652063616c6c656420696e2073747261746567790000000000000000815250611618565b6000610c8f306001600160a01b031663a3673b386040518163ffffffff1660e01b8152600401602060405180830381865afa158015610c63573d6000803e3d6000fd5b505050506040513d601f19601f82011682018060405250810190610c879190612b78565b60fd5461165b565b9050610d0783846001600160a01b03166370a08231306040518263ffffffff1660e01b8152600401610cc19190612782565b602060405180830381865afa158015610cde573d6000803e3d6000fd5b505050506040513d601f19601f82011682018060405250810190610d029190612b78565b611685565b610d356040518060400160405280600d81526020016c7374616b6520726573756c747360981b815250611618565b610d9f306001600160a01b031663a3673b386040518163ffffffff1660e01b8152600401602060405180830381865afa158015610d76573d6000803e3d6000fd5b505050506040513d601f19601f82011682018060405250810190610d9a9190612b78565b61180d565b610da88161180d565b7f227a473b70d2f893cc7659219575c030a63b5743024fe1e0c1a680e708b1525a82604051610dd7919061256d565b60405180910390a1505050565b610e0e7fd67ad422505496469a1adf6cdf9e5ee92ac5d33992843c9ecc4b2f6d6cde913733610abe565b80610ea7575060fb54604051632474521560e21b81526001600160a01b03909116906391d1485490610e66907fd67ad422505496469a1adf6cdf9e5ee92ac5d33992843c9ecc4b2f6d6cde9137903390600401612b99565b602060405180830381865afa158015610e83573d6000803e3d6000fd5b505050506040513d601f19601f82011682018060405250810190610ea79190612bbf565b610ec35760405162461bcd60e51b815260040161065b90612c1f565b60fc83905560fd82905560fe8190556040517f116fbf1e97a2be629ad98abfb6c332733c8996c2dfb174dd2efe8440df381d1a90610dd790859085908590612c2f565b600082815260656020526040902060010154610f218161134f565b61062e83836113df565b600080610f3783611850565b905080156105f4577f3ac0594a85a20354f9dc74f33728416d19ce00d04a406c108cc2dcf2cecea13481604051610f6e919061256d565b60405180910390a192915050565b6000610f8733611b16565b610fb96040518060400160405280601181526020017073747261746567657920756e7374616b6560781b815250611618565b6000610ffc306001600160a01b031663a3673b386040518163ffffffff1660e01b8152600401602060405180830381865afa158015610c63573d6000803e3d6000fd5b905060008084156110235761101086611850565b905061101c8887611b59565b9150611050565b61102e888888611cd6565b9150868210156110505760405162461bcd60e51b815260040161065b90612c9d565b82306001600160a01b031663a3673b386040518163ffffffff1660e01b8152600401602060405180830381865afa15801561108f573d6000803e3d6000fd5b505050506040513d601f19601f820116820180604052508101906110b39190612b78565b10156110d15760405162461bcd60e51b815260040161065b90612ce1565b60405163a9059cbb60e01b81526001600160a01b0389169063a9059cbb906110ff9089908690600401612cf1565b6020604051808303816000875af115801561111e573d6000803e3d6000fd5b505050506040513d601f19601f820116820180604052508101906111429190612bbf565b507f9045c2ac9b2026de8075f2701bbdde882cd5e830b3b1ead9a15b22f2b5b937428783604051611174929190612d0c565b60405180910390a180156111ba577f3ac0594a85a20354f9dc74f33728416d19ce00d04a406c108cc2dcf2cecea134816040516111b1919061256d565b60405180910390a15b509150505b949350505050565b6001600160a01b03163b151590565b61012d546040516370a0823160e01b81526000916001600160a01b0316906370a0823190611208903090600401612782565b602060405180830381865afa158015611225573d6000803e3d6000fd5b505050506040513d601f19601f820116820180604052508101906112499190612b78565b61012e546040805163182df0f560e01b81529051670de0b6b3a7640000926001600160a01b03169163182df0f59160048083019260209291908290030181865afa15801561129b573d6000803e3d6000fd5b505050506040513d601f19601f820116820180604052508101906112bf9190612b78565b61012e546040516370a0823160e01b81526001600160a01b03909116906370a08231906112f0903090600401612782565b602060405180830381865afa15801561130d573d6000803e3d6000fd5b505050506040513d601f19601f820116820180604052508101906113319190612b78565b61133b9190612d30565b6113459190612d5e565b6106049190612d72565b61074e8133611e1b565b6113638282610abe565b61066e5760008281526065602090815260408083206001600160a01b03851684529091529020805460ff1916600117905561139b3390565b6001600160a01b0316816001600160a01b0316837f2f8788117e7eff1d82e926ec794901d17c78024a50270940304540a733656f0d60405160405180910390a45050565b6113e98282610abe565b1561066e5760008281526065602090815260408083206001600160a01b0385168085529252808320805460ff1916905551339285917ff6391f5c32d9c69d2a47ea670b442974b53935d1edc7fd64eb21e047a839171b9190a45050565b600061066e8161134f565b7f4910fdfa16fed3260ed0e7147f7cc6da11a60208b5b9406d12a635614ffd91435460ff16156114845761062e83611e74565b826001600160a01b03166352d1902d6040518163ffffffff1660e01b8152600401602060405180830381865afa9250505080156114de575060408051601f3d908101601f191682019092526114db91810190612b78565b60015b6114fa5760405162461bcd60e51b815260040161065b90612dd0565b6000805160206132ab83398151915281146115275760405162461bcd60e51b815260040161065b90612e26565b5061062e838383611eca565b600054610100900460ff16158080156115535750600054600160ff909116105b8061156d5750303b15801561156d575060005460ff166001145b6115895760405162461bcd60e51b815260040161065b90612af7565b6000805460ff1916600117905580156115ac576000805461ff0019166101001790555b6115b4611ef5565b6115bc611ef5565b6115c7600033611359565b601460fc81905560fd55600460fe55801561074e576000805461ff00191690556040517f7f26b83ff96e1f2b6a682f133852f6798a09c465da95921460cefb384740249890610ab390600190612b1b565b61074e8160405160240161162c9190612e8c565b60408051601f198184030181529190526020810180516001600160e01b031663104c13eb60e21b179052611f1e565b600061271061166a8382612e9d565b6116749085612d30565b61167e9190612d5e565b9392505050565b6116b16040518060400160405280600b81526020016a76656e7573207374616b6560a81b815250611618565b61012d546001600160a01b038381169116146116df5760405162461bcd60e51b815260040161065b90612ee4565b61012d5461012e5460405163095ea7b360e01b81526001600160a01b039283169263095ea7b392611717929116908590600401612cf1565b6020604051808303816000875af1158015611736573d6000803e3d6000fd5b505050506040513d601f19601f8201168201806040525081019061175a9190612bbf565b506117996040518060400160405280601781526020017f63616c6c696e67207642757364546f6b656e2e6d696e74000000000000000000815250611618565b61012e5460405163140e25ad60e31b81526001600160a01b039091169063a0712d68906117ca90849060040161256d565b6020604051808303816000875af11580156117e9573d6000803e3d6000fd5b505050506040513d601f19601f8201168201806040525081019061062e9190612b78565b61074e81604051602401611821919061256d565b60408051601f198184030181529190526020810180516001600160e01b031663f82c50f160e01b179052611f1e565b61012e546040516370a0823160e01b815260009182916001600160a01b03909116906370a0823190611886903090600401612782565b602060405180830381865afa1580156118a3573d6000803e3d6000fd5b505050506040513d601f19601f820116820180604052508101906118c79190612b78565b11156119845760408051600180825281830190925260009160208083019080368337505061012e5482519293506001600160a01b03169183915060009061191057611910612ef4565b6001600160a01b03928316602091820292909201015261012f5460405163436f98f760e11b81529116906386df31ee906119509030908590600401612f67565b600060405180830381600087803b15801561196a57600080fd5b505af115801561197e573d6000803e3d6000fd5b50505050505b610131546040516370a0823160e01b815260009182916001600160a01b03909116906370a08231906119ba903090600401612782565b602060405180830381865afa1580156119d7573d6000803e3d6000fd5b505050506040513d601f19601f820116820180604052508101906119fb9190612b78565b90508015611a915761013054610131546101325461012d54600093611a35936001600160a01b039182169390821692908216911686611f3f565b90508015611a8f5761013054610131546101325461012d54611a82936001600160a01b039081169381169281169116866064611a72886063612d30565b611a7c9190612d5e565b3061208f565b611a8c9084612d72565b92505b505b8115611b0f5761012d5460405163a9059cbb60e01b81526001600160a01b039091169063a9059cbb90611aca9087908690600401612cf1565b6020604051808303816000875af1158015611ae9573d6000803e3d6000fd5b505050506040513d601f19601f82011682018060405250810190611b0d9190612bbf565b505b5092915050565b61074e81604051602401611b2a9190612782565b60408051601f198184030181529190526020810180516001600160e01b031663161765e160e11b179052611f1e565b61012d546000906001600160a01b03848116911614611b8a5760405162461bcd60e51b815260040161065b90612ee4565b61012e546040516370a0823160e01b81526001600160a01b039091169063db006a759082906370a0823190611bc3903090600401612782565b602060405180830381865afa158015611be0573d6000803e3d6000fd5b505050506040513d601f19601f82011682018060405250810190611c049190612b78565b6040518263ffffffff1660e01b8152600401611c20919061256d565b6020604051808303816000875af1158015611c3f573d6000803e3d6000fd5b505050506040513d601f19601f82011682018060405250810190611c639190612b78565b5061012d546040516370a0823160e01b81526001600160a01b03909116906370a0823190611c95903090600401612782565b602060405180830381865afa158015611cb2573d6000803e3d6000fd5b505050506040513d601f19601f8201168201806040525081019061167e9190612b78565b6000611d066040518060400160405280600d81526020016c76656e757320756e7374616b6560981b815250611618565b61012d546001600160a01b03858116911614611d345760405162461bcd60e51b815260040161065b90612ee4565b61012e5460405163852a12e360e01b81526001600160a01b039091169063852a12e390611d6590869060040161256d565b6020604051808303816000875af1158015611d84573d6000803e3d6000fd5b505050506040513d601f19601f82011682018060405250810190611da89190612b78565b5061012d546040516370a0823160e01b81526001600160a01b03909116906370a0823190611dda903090600401612782565b602060405180830381865afa158015611df7573d6000803e3d6000fd5b505050506040513d601f19601f820116820180604052508101906111bf9190612b78565b611e258282610abe565b61066e57611e328161225b565b611e3d83602061226d565b604051602001611e4e929190612fa9565b60408051601f198184030181529082905262461bcd60e51b825261065b91600401612e8c565b6001600160a01b0381163b611e9b5760405162461bcd60e51b815260040161065b9061304b565b6000805160206132ab83398151915280546001600160a01b0319166001600160a01b0392909216919091179055565b611ed3836123d9565b600082511180611ee05750805b1561062e57611eef8383612419565b50505050565b600054610100900460ff16611f1c5760405162461bcd60e51b815260040161065b906130a3565b565b80516a636f6e736f6c652e6c6f67602083016000808483855afa5050505050565b60408051600380825260808201909252600091829190602082016060803683370190505090508581600081518110611f7957611f79612ef4565b60200260200101906001600160a01b031690816001600160a01b0316815250508481600181518110611fad57611fad612ef4565b60200260200101906001600160a01b031690816001600160a01b0316815250508381600281518110611fe157611fe1612ef4565b6001600160a01b03928316602091820292909201015260405163d06ca61f60e01b815260009189169063d06ca61f9061202090879086906004016130b3565b600060405180830381865afa15801561203d573d6000803e3d6000fd5b505050506040513d6000823e601f3d908101601f191682016040526120659190810190613164565b90508060028151811061207a5761207a612ef4565b60200260200101519250505095945050505050565b60405163095ea7b360e01b81526000906001600160a01b0388169063095ea7b3906120c0908b908890600401612cf1565b6020604051808303816000875af11580156120df573d6000803e3d6000fd5b505050506040513d601f19601f820116820180604052508101906121039190612bbf565b506040805160038082526080820190925260009160208201606080368337019050509050878160008151811061213b5761213b612ef4565b60200260200101906001600160a01b031690816001600160a01b031681525050868160018151811061216f5761216f612ef4565b60200260200101906001600160a01b031690816001600160a01b03168152505085816002815181106121a3576121a3612ef4565b6001600160a01b0392831660209182029290920101526040516338ed173960e01b81526000918b16906338ed1739906121e8908990899087908a90429060040161319f565b6000604051808303816000875af1158015612207573d6000803e3d6000fd5b505050506040513d6000823e601f3d908101601f1916820160405261222f9190810190613164565b90508060028151811061224457612244612ef4565b602002602001015192505050979650505050505050565b60606105f46001600160a01b03831660145b6060600061227c836002612d30565b612287906002612d72565b67ffffffffffffffff81111561229f5761229f612630565b6040519080825280601f01601f1916602001820160405280156122c9576020820181803683370190505b509050600360fc1b816000815181106122e4576122e4612ef4565b60200101906001600160f81b031916908160001a905350600f60fb1b8160018151811061231357612313612ef4565b60200101906001600160f81b031916908160001a9053506000612337846002612d30565b612342906001612d72565b90505b60018111156123ba576f181899199a1a9b1b9c1cb0b131b232b360811b85600f166010811061237657612376612ef4565b1a60f81b82828151811061238c5761238c612ef4565b60200101906001600160f81b031916908160001a90535060049490941c936123b3816131f2565b9050612345565b50831561167e5760405162461bcd60e51b815260040161065b9061323b565b6123e281611e74565b6040516001600160a01b038216907fbc7cd75a20ee27fd9adebab32041f755214dbc6bffa90cc0225b39da2e5c2d3b90600090a250565b60606001600160a01b0383163b6124425760405162461bcd60e51b815260040161065b9061328e565b600080846001600160a01b03168460405161245d919061329e565b600060405180830381855af49150503d8060008114612498576040519150601f19603f3d011682016040523d82523d6000602084013e61249d565b606091505b50915091506124c582826040518060600160405280602781526020016132cb602791396124ce565b95945050505050565b606083156124dd57508161167e565b61167e83838151156124f25781518083602001fd5b8060405162461bcd60e51b815260040161065b9190612e8c565b6001600160e01b031981165b811461074e57600080fd5b80356105f48161250c565b60006020828403121561254357612543600080fd5b60006111bf8484612523565b8015155b82525050565b602081016105f4828461254f565b80612553565b602081016105f48284612567565b80612518565b80356105f48161257b565b6000602082840312156125a1576125a1600080fd5b60006111bf8484612581565b60006001600160a01b0382166105f4565b612518816125ad565b80356105f4816125be565b600080604083850312156125e8576125e8600080fd5b60006125f48585612581565b9250506020612605858286016125c7565b9150509250929050565b60006020828403121561262457612624600080fd5b60006111bf84846125c7565b634e487b7160e01b600052604160045260246000fd5b601f19601f830116810181811067ffffffffffffffff8211171561266c5761266c612630565b6040525050565b600061267e60405190565b905061268a8282612646565b919050565b600067ffffffffffffffff8211156126a9576126a9612630565b601f19601f83011660200192915050565b82818337506000910152565b60006126d96126d48461268f565b612673565b9050828152602081018484840111156126f4576126f4600080fd5b6126ff8482856126ba565b509392505050565b600082601f83011261271b5761271b600080fd5b81356111bf8482602086016126c6565b6000806040838503121561274157612741600080fd5b600061274d85856125c7565b925050602083013567ffffffffffffffff81111561276d5761276d600080fd5b61260585828601612707565b612553816125ad565b602081016105f48284612779565b600060c082840312156127a5576127a5600080fd5b50919050565b600060c082840312156127c0576127c0600080fd5b60006111bf8484612790565b600080604083850312156127e2576127e2600080fd5b60006127ee85856125c7565b925050602061260585828601612581565b60008060006060848603121561281757612817600080fd5b60006128238686612581565b935050602061283486828701612581565b925050604061284586828701612581565b9150509250925092565b60006105f4826125ad565b60006105f48261284f565b6125538161285a565b602081016105f48284612865565b801515612518565b80356105f48161287c565b600080600080608085870312156128a8576128a8600080fd5b60006128b487876125c7565b94505060206128c587828801612581565b93505060406128d6878288016125c7565b92505060606128e787828801612884565b91505092959194509250565b602f81526000602082017f416363657373436f6e74726f6c3a2063616e206f6e6c792072656e6f756e636581526e103937b632b9903337b91039b2b63360891b602082015291505b5060400190565b602080825281016105f4816128f3565b602c81526000602082017f46756e6374696f6e206d7573742062652063616c6c6564207468726f7567682081526b19195b1959d85d1958d85b1b60a21b6020820152915061293b565b602080825281016105f481612952565b602c81526000602082017f46756e6374696f6e206d7573742062652063616c6c6564207468726f7567682081526b6163746976652070726f787960a01b6020820152915061293b565b602080825281016105f4816129ab565b603881526000602082017f555550535570677261646561626c653a206d757374206e6f742062652063616c81527f6c6564207468726f7567682064656c656761746563616c6c00000000000000006020820152915061293b565b602080825281016105f481612a04565b60148152600060208201735265737472696374656420746f2061646d696e7360601b815291505b5060200190565b602080825281016105f481612a6e565b602e81526000602082017f496e697469616c697a61626c653a20636f6e747261637420697320616c72656181526d191e481a5b9a5d1a585b1a5e995960921b6020820152915061293b565b602080825281016105f481612aac565b600060ff82166105f4565b61255381612b07565b602081016105f48284612b12565b601881526000602082017f5a65726f2061646472657373206e6f7420616c6c6f776564000000000000000081529150612a95565b602080825281016105f481612b29565b80516105f48161257b565b600060208284031215612b8d57612b8d600080fd5b60006111bf8484612b6d565b60408101612ba78285612567565b61167e6020830184612779565b80516105f48161287c565b600060208284031215612bd457612bd4600080fd5b60006111bf8484612bb4565b602281526000602082017f5265737472696374656420746f20504f5254464f4c494f5f4147454e545f524f8152614c4560f01b6020820152915061293b565b602080825281016105f481612be0565b60608101612c3d8286612567565b612c4a6020830185612567565b6111bf6040830184612567565b602981526000602082017f52657475726e65642076616c7565206c657373207468616e2072657175657374815268195908185b5bdd5b9d60ba1b6020820152915061293b565b602080825281016105f481612c57565b601f81526000602082017f5374726174656779204e4156206c657373207468616e2065787065637465640081529150612a95565b602080825281016105f481612cad565b60408101612cff8285612779565b61167e6020830184612567565b60408101612cff8285612567565b634e487b7160e01b600052601160045260246000fd5b818102808215838204851417611b0f57611b0f612d1a565b634e487b7160e01b600052601260045260246000fd5b600082612d6d57612d6d612d48565b500490565b808201808211156105f4576105f4612d1a565b602e81526000602082017f45524331393637557067726164653a206e657720696d706c656d656e7461746981526d6f6e206973206e6f74205555505360901b6020820152915061293b565b602080825281016105f481612d85565b602981526000602082017f45524331393637557067726164653a20756e737570706f727465642070726f788152681a58589b195555525160ba1b6020820152915061293b565b602080825281016105f481612de0565b60005b83811015612e51578181015183820152602001612e39565b50506000910152565b6000612e64825190565b808452602084019350612e7b818560208601612e36565b601f01601f19169290920192915050565b6020808252810161167e8184612e5a565b818103818111156105f4576105f4612d1a565b601981526000602082017f536f6d6520746f6b656e206e6f7420636f6d70617469626c650000000000000081529150612a95565b602080825281016105f481612eb0565b634e487b7160e01b600052603260045260246000fd5b6000612f168383612779565b505060200190565b6000612f28825190565b80845260209384019383018060005b83811015612f5c578151612f4b8882612f0a565b975060208301925050600101612f37565b509495945050505050565b60408101612f758285612779565b81810360208301526111bf8184612f1e565b6000612f91825190565b612f9f818560208601612e36565b9290920192915050565b7f416363657373436f6e74726f6c3a206163636f756e742000000000000000000081526017016000612fdb8285612f87565b7001034b99036b4b9b9b4b733903937b6329607d1b815260110191506111bf8284612f87565b602d81526000602082017f455243313936373a206e657720696d706c656d656e746174696f6e206973206e81526c1bdd08184818dbdb9d1c9858dd609a1b6020820152915061293b565b602080825281016105f481613001565b602b81526000602082017f496e697469616c697a61626c653a20636f6e7472616374206973206e6f74206981526a6e697469616c697a696e6760a81b6020820152915061293b565b602080825281016105f48161305b565b60408101612f758285612567565b600067ffffffffffffffff8211156130db576130db612630565b5060209081020190565b60006130f36126d4846130c1565b8381529050602080820190840283018581111561311257613112600080fd5b835b8181101561313657806131278882612b6d565b84525060209283019201613114565b5050509392505050565b600082601f83011261315457613154600080fd5b81516111bf8482602086016130e5565b60006020828403121561317957613179600080fd5b815167ffffffffffffffff81111561319357613193600080fd5b6111bf84828501613140565b60a081016131ad8288612567565b6131ba6020830187612567565b81810360408301526131cc8186612f1e565b90506131db6060830185612779565b6131e86080830184612567565b9695505050505050565b60008161320157613201612d1a565b506000190190565b60208082527f537472696e67733a20686578206c656e67746820696e73756666696369656e7491019081526000612a95565b602080825281016105f481613209565b602681526000602082017f416464726573733a2064656c65676174652063616c6c20746f206e6f6e2d636f8152651b9d1c9858dd60d21b6020820152915061293b565b602080825281016105f48161324b565b600061167e8284612f8756fe360894a13ba1a3210667c828492db98dca3e2076cc3735a920a3ca505d382bbc416464726573733a206c6f772d6c6576656c2064656c65676174652063616c6c206661696c6564a26469706673582212200973516551ec943fae37e438799d1a9071c68408242684a4e48d588e7138604864736f6c63430008110033",
  "implementation": "0x966A469838CD49FE8D3EA79cA4A6E6A5fb14f678",
  "devdoc": {
    "kind": "dev",
    "methods": {
      "constructor": {
        "custom:oz-upgrades-unsafe-allow": "constructor"
      },
      "getRoleAdmin(bytes32)": {
        "details": "Returns the admin role that controls `role`. See {grantRole} and {revokeRole}. To change a role's admin, use {_setRoleAdmin}."
      },
      "grantRole(bytes32,address)": {
        "details": "Grants `role` to `account`. If `account` had not been already granted `role`, emits a {RoleGranted} event. Requirements: - the caller must have ``role``'s admin role. May emit a {RoleGranted} event."
      },
      "hasRole(bytes32,address)": {
        "details": "Returns `true` if `account` has been granted `role`."
      },
      "proxiableUUID()": {
        "details": "Implementation of the ERC1822 {proxiableUUID} function. This returns the storage slot used by the implementation. It is used to validate the implementation's compatibility when performing an upgrade. IMPORTANT: A proxy pointing at a proxiable contract should not be considered proxiable itself, because this risks bricking a proxy that upgrades to it, by delegating to itself until out of gas. Thus it is critical that this function revert if invoked through a proxy. This is guaranteed by the `notDelegated` modifier."
      },
      "renounceRole(bytes32,address)": {
        "details": "Revokes `role` from the calling account. Roles are often managed via {grantRole} and {revokeRole}: this function's purpose is to provide a mechanism for accounts to lose their privileges if they are compromised (such as when a trusted device is misplaced). If the calling account had been revoked `role`, emits a {RoleRevoked} event. Requirements: - the caller must be `account`. May emit a {RoleRevoked} event."
      },
      "revokeRole(bytes32,address)": {
        "details": "Revokes `role` from `account`. If `account` had been granted `role`, emits a {RoleRevoked} event. Requirements: - the caller must have ``role``'s admin role. May emit a {RoleRevoked} event."
      },
      "supportsInterface(bytes4)": {
        "details": "See {IERC165-supportsInterface}."
      },
      "upgradeTo(address)": {
        "details": "Upgrade the implementation of the proxy to `newImplementation`. Calls {_authorizeUpgrade}. Emits an {Upgraded} event."
      },
      "upgradeToAndCall(address,bytes)": {
        "details": "Upgrade the implementation of the proxy to `newImplementation`, and subsequently execute the function call encoded in `data`. Calls {_authorizeUpgrade}. Emits an {Upgraded} event."
      }
    },
    "version": 1
  },
  "userdoc": {
    "kind": "user",
    "methods": {},
    "version": 1
  },
  "storageLayout": {
    "storage": [
      {
        "astId": 804,
        "contract": "contracts/strategies/StrategyVenusBusd.sol:StrategyVenusBusd",
        "label": "_initialized",
        "offset": 0,
        "slot": "0",
        "type": "t_uint8"
      },
      {
        "astId": 807,
        "contract": "contracts/strategies/StrategyVenusBusd.sol:StrategyVenusBusd",
        "label": "_initializing",
        "offset": 1,
        "slot": "0",
        "type": "t_bool"
      },
      {
        "astId": 1427,
        "contract": "contracts/strategies/StrategyVenusBusd.sol:StrategyVenusBusd",
        "label": "__gap",
        "offset": 0,
        "slot": "1",
        "type": "t_array(t_uint256)50_storage"
      },
      {
        "astId": 1706,
        "contract": "contracts/strategies/StrategyVenusBusd.sol:StrategyVenusBusd",
        "label": "__gap",
        "offset": 0,
        "slot": "51",
        "type": "t_array(t_uint256)50_storage"
      },
      {
        "astId": 39,
        "contract": "contracts/strategies/StrategyVenusBusd.sol:StrategyVenusBusd",
        "label": "_roles",
        "offset": 0,
        "slot": "101",
        "type": "t_mapping(t_bytes32,t_struct(RoleData)34_storage)"
      },
      {
        "astId": 334,
        "contract": "contracts/strategies/StrategyVenusBusd.sol:StrategyVenusBusd",
        "label": "__gap",
        "offset": 0,
        "slot": "102",
        "type": "t_array(t_uint256)49_storage"
      },
      {
        "astId": 786,
        "contract": "contracts/strategies/StrategyVenusBusd.sol:StrategyVenusBusd",
        "label": "__gap",
        "offset": 0,
        "slot": "151",
        "type": "t_array(t_uint256)50_storage"
      },
      {
        "astId": 1101,
        "contract": "contracts/strategies/StrategyVenusBusd.sol:StrategyVenusBusd",
        "label": "__gap",
        "offset": 0,
        "slot": "201",
        "type": "t_array(t_uint256)50_storage"
      },
      {
        "astId": 2717,
        "contract": "contracts/strategies/StrategyVenusBusd.sol:StrategyVenusBusd",
        "label": "portfolioManager",
        "offset": 0,
        "slot": "251",
        "type": "t_address"
      },
      {
        "astId": 2719,
        "contract": "contracts/strategies/StrategyVenusBusd.sol:StrategyVenusBusd",
        "label": "swapSlippageBP",
        "offset": 0,
        "slot": "252",
        "type": "t_uint256"
      },
      {
        "astId": 2721,
        "contract": "contracts/strategies/StrategyVenusBusd.sol:StrategyVenusBusd",
        "label": "navSlippageBP",
        "offset": 0,
        "slot": "253",
        "type": "t_uint256"
      },
      {
        "astId": 2723,
        "contract": "contracts/strategies/StrategyVenusBusd.sol:StrategyVenusBusd",
        "label": "stakeSlippageBP",
        "offset": 0,
        "slot": "254",
        "type": "t_uint256"
      },
      {
        "astId": 3125,
        "contract": "contracts/strategies/StrategyVenusBusd.sol:StrategyVenusBusd",
        "label": "__gap",
        "offset": 0,
        "slot": "255",
        "type": "t_array(t_uint256)46_storage"
      },
      {
        "astId": 8779,
        "contract": "contracts/strategies/StrategyVenusBusd.sol:StrategyVenusBusd",
        "label": "busdToken",
        "offset": 0,
        "slot": "301",
        "type": "t_contract(IERC20)2662"
      },
      {
        "astId": 8782,
        "contract": "contracts/strategies/StrategyVenusBusd.sol:StrategyVenusBusd",
        "label": "vBusdToken",
        "offset": 0,
        "slot": "302",
        "type": "t_contract(VenusInterface)6040"
      },
      {
        "astId": 8785,
        "contract": "contracts/strategies/StrategyVenusBusd.sol:StrategyVenusBusd",
        "label": "unitroller",
        "offset": 0,
        "slot": "303",
        "type": "t_contract(Unitroller)5717"
      },
      {
        "astId": 8788,
        "contract": "contracts/strategies/StrategyVenusBusd.sol:StrategyVenusBusd",
        "label": "pancakeRouter",
        "offset": 0,
        "slot": "304",
        "type": "t_contract(IPancakeRouter02)4413"
      },
      {
        "astId": 8791,
        "contract": "contracts/strategies/StrategyVenusBusd.sol:StrategyVenusBusd",
        "label": "xvsToken",
        "offset": 0,
        "slot": "305",
        "type": "t_contract(IERC20)2662"
      },
      {
        "astId": 8794,
        "contract": "contracts/strategies/StrategyVenusBusd.sol:StrategyVenusBusd",
        "label": "wbnbToken",
        "offset": 0,
        "slot": "306",
        "type": "t_contract(IERC20)2662"
      }
    ],
    "types": {
      "t_address": {
        "encoding": "inplace",
        "label": "address",
        "numberOfBytes": "20"
      },
      "t_array(t_uint256)46_storage": {
        "base": "t_uint256",
        "encoding": "inplace",
        "label": "uint256[46]",
        "numberOfBytes": "1472"
      },
      "t_array(t_uint256)49_storage": {
        "base": "t_uint256",
        "encoding": "inplace",
        "label": "uint256[49]",
        "numberOfBytes": "1568"
      },
      "t_array(t_uint256)50_storage": {
        "base": "t_uint256",
        "encoding": "inplace",
        "label": "uint256[50]",
        "numberOfBytes": "1600"
      },
      "t_bool": {
        "encoding": "inplace",
        "label": "bool",
        "numberOfBytes": "1"
      },
      "t_bytes32": {
        "encoding": "inplace",
        "label": "bytes32",
        "numberOfBytes": "32"
      },
      "t_contract(IERC20)2662": {
        "encoding": "inplace",
        "label": "contract IERC20",
        "numberOfBytes": "20"
      },
      "t_contract(IPancakeRouter02)4413": {
        "encoding": "inplace",
        "label": "contract IPancakeRouter02",
        "numberOfBytes": "20"
      },
      "t_contract(Unitroller)5717": {
        "encoding": "inplace",
        "label": "contract Unitroller",
        "numberOfBytes": "20"
      },
      "t_contract(VenusInterface)6040": {
        "encoding": "inplace",
        "label": "contract VenusInterface",
        "numberOfBytes": "20"
      },
      "t_mapping(t_address,t_bool)": {
        "encoding": "mapping",
        "key": "t_address",
        "label": "mapping(address => bool)",
        "numberOfBytes": "32",
        "value": "t_bool"
      },
      "t_mapping(t_bytes32,t_struct(RoleData)34_storage)": {
        "encoding": "mapping",
        "key": "t_bytes32",
        "label": "mapping(bytes32 => struct AccessControlUpgradeable.RoleData)",
        "numberOfBytes": "32",
        "value": "t_struct(RoleData)34_storage"
      },
      "t_struct(RoleData)34_storage": {
        "encoding": "inplace",
        "label": "struct AccessControlUpgradeable.RoleData",
        "members": [
          {
            "astId": 31,
            "contract": "contracts/strategies/StrategyVenusBusd.sol:StrategyVenusBusd",
            "label": "members",
            "offset": 0,
            "slot": "0",
            "type": "t_mapping(t_address,t_bool)"
          },
          {
            "astId": 33,
            "contract": "contracts/strategies/StrategyVenusBusd.sol:StrategyVenusBusd",
            "label": "adminRole",
            "offset": 0,
            "slot": "1",
            "type": "t_bytes32"
          }
        ],
        "numberOfBytes": "64"
      },
      "t_uint256": {
        "encoding": "inplace",
        "label": "uint256",
        "numberOfBytes": "32"
      },
      "t_uint8": {
        "encoding": "inplace",
        "label": "uint8",
        "numberOfBytes": "1"
      }
    }
  }
}