{
  "_format": "hh-sol-artifact-1",
  "contractName": "Exchange",
  "sourceName": "contracts/Exchange.sol",
  "abi": [
    {
      "inputs": [],
      "stateMutability": "nonpayable",
      "type": "constructor"
    },
    {
      "anonymous": false,
      "inputs": [
        {
          "indexed": false,
          "internalType": "uint256",
          "name": "min",
          "type": "uint256"
        },
        {
          "indexed": false,
          "internalType": "uint256",
          "name": "max",
          "type": "uint256"
        }
      ],
      "name": "Abroad",
      "type": "event"
    },
    {
      "anonymous": false,
      "inputs": [
        {
          "indexed": false,
          "internalType": "address",
          "name": "previousAdmin",
          "type": "address"
        },
        {
          "indexed": false,
          "internalType": "address",
          "name": "newAdmin",
          "type": "address"
        }
      ],
      "name": "AdminChanged",
      "type": "event"
    },
    {
      "anonymous": false,
      "inputs": [
        {
          "indexed": true,
          "internalType": "address",
          "name": "beacon",
          "type": "address"
        }
      ],
      "name": "BeaconUpgraded",
      "type": "event"
    },
    {
      "anonymous": false,
      "inputs": [
        {
          "indexed": false,
          "internalType": "address",
          "name": "blockGetter",
          "type": "address"
        }
      ],
      "name": "BlockGetterUpdated",
      "type": "event"
    },
    {
      "anonymous": false,
      "inputs": [
        {
          "indexed": false,
          "internalType": "uint256",
          "name": "fee",
          "type": "uint256"
        },
        {
          "indexed": false,
          "internalType": "uint256",
          "name": "feeDenominator",
          "type": "uint256"
        }
      ],
      "name": "BuyFeeUpdated",
      "type": "event"
    },
    {
      "anonymous": false,
      "inputs": [
        {
          "indexed": false,
          "internalType": "uint256",
          "name": "compensateLoss",
          "type": "uint256"
        },
        {
          "indexed": false,
          "internalType": "uint256",
          "name": "denominator",
          "type": "uint256"
        }
      ],
      "name": "CompensateLossUpdate",
      "type": "event"
    },
    {
      "anonymous": false,
      "inputs": [
        {
          "indexed": false,
          "internalType": "string",
          "name": "label",
          "type": "string"
        },
        {
          "indexed": false,
          "internalType": "uint256",
          "name": "amount",
          "type": "uint256"
        },
        {
          "indexed": false,
          "internalType": "uint256",
          "name": "fee",
          "type": "uint256"
        },
        {
          "indexed": false,
          "internalType": "address",
          "name": "sender",
          "type": "address"
        },
        {
          "indexed": false,
          "internalType": "string",
          "name": "referral",
          "type": "string"
        }
      ],
      "name": "EventExchange",
      "type": "event"
    },
    {
      "anonymous": false,
      "inputs": [
        {
          "indexed": false,
          "internalType": "uint8",
          "name": "version",
          "type": "uint8"
        }
      ],
      "name": "Initialized",
      "type": "event"
    },
    {
      "anonymous": false,
      "inputs": [
        {
          "indexed": false,
          "internalType": "address",
          "name": "insurance",
          "type": "address"
        }
      ],
      "name": "InsuranceUpdated",
      "type": "event"
    },
    {
      "anonymous": false,
      "inputs": [
        {
          "indexed": false,
          "internalType": "address",
          "name": "mark2market",
          "type": "address"
        }
      ],
      "name": "Mark2MarketUpdated",
      "type": "event"
    },
    {
      "anonymous": false,
      "inputs": [
        {
          "indexed": false,
          "internalType": "uint256",
          "name": "nextPayoutTime",
          "type": "uint256"
        }
      ],
      "name": "NextPayoutTime",
      "type": "event"
    },
    {
      "anonymous": false,
      "inputs": [
        {
          "indexed": false,
          "internalType": "address",
          "name": "token",
          "type": "address"
        },
        {
          "indexed": false,
          "internalType": "uint256",
          "name": "amount",
          "type": "uint256"
        }
      ],
      "name": "OnNotEnoughLimitRedeemed",
      "type": "event"
    },
    {
      "anonymous": false,
      "inputs": [
        {
          "indexed": false,
          "internalType": "uint256",
          "name": "oracleLoss",
          "type": "uint256"
        },
        {
          "indexed": false,
          "internalType": "uint256",
          "name": "denominator",
          "type": "uint256"
        }
      ],
      "name": "OracleLossUpdate",
      "type": "event"
    },
    {
      "anonymous": false,
      "inputs": [
        {
          "indexed": false,
          "internalType": "uint256",
          "name": "amount",
          "type": "uint256"
        },
        {
          "indexed": false,
          "internalType": "uint256",
          "name": "feeAmount",
          "type": "uint256"
        }
      ],
      "name": "PaidBuyFee",
      "type": "event"
    },
    {
      "anonymous": false,
      "inputs": [
        {
          "indexed": false,
          "internalType": "uint256",
          "name": "amount",
          "type": "uint256"
        },
        {
          "indexed": false,
          "internalType": "uint256",
          "name": "feeAmount",
          "type": "uint256"
        }
      ],
      "name": "PaidRedeemFee",
      "type": "event"
    },
    {
      "anonymous": false,
      "inputs": [
        {
          "indexed": false,
          "internalType": "address",
          "name": "account",
          "type": "address"
        }
      ],
      "name": "Paused",
      "type": "event"
    },
    {
      "anonymous": false,
      "inputs": [
        {
          "indexed": false,
          "internalType": "uint256",
          "name": "delta",
          "type": "uint256"
        },
        {
          "indexed": false,
          "internalType": "uint256",
          "name": "deltaSionToken",
          "type": "uint256"
        }
      ],
      "name": "PayoutAbroad",
      "type": "event"
    },
    {
      "anonymous": false,
      "inputs": [
        {
          "indexed": false,
          "internalType": "uint256",
          "name": "totalSionToken",
          "type": "uint256"
        },
        {
          "indexed": false,
          "internalType": "uint256",
          "name": "totalAsset",
          "type": "uint256"
        },
        {
          "indexed": false,
          "internalType": "uint256",
          "name": "totallyAmountPaid",
          "type": "uint256"
        },
        {
          "indexed": false,
          "internalType": "uint256",
          "name": "newLiquidityIndex",
          "type": "uint256"
        }
      ],
      "name": "PayoutEvent",
      "type": "event"
    },
    {
      "anonymous": false,
      "inputs": [
        {
          "indexed": false,
          "internalType": "address",
          "name": "payoutListener",
          "type": "address"
        }
      ],
      "name": "PayoutListenerUpdated",
      "type": "event"
    },
    {
      "anonymous": false,
      "inputs": [
        {
          "indexed": false,
          "internalType": "uint256",
          "name": "nextPayoutTime",
          "type": "uint256"
        },
        {
          "indexed": false,
          "internalType": "uint256",
          "name": "payoutPeriod",
          "type": "uint256"
        },
        {
          "indexed": false,
          "internalType": "uint256",
          "name": "payoutTimeRange",
          "type": "uint256"
        }
      ],
      "name": "PayoutTimesUpdated",
      "type": "event"
    },
    {
      "anonymous": false,
      "inputs": [
        {
          "indexed": false,
          "internalType": "address",
          "name": "portfolioManager",
          "type": "address"
        }
      ],
      "name": "PortfolioManagerUpdated",
      "type": "event"
    },
    {
      "anonymous": false,
      "inputs": [
        {
          "indexed": false,
          "internalType": "address",
          "name": "recipient",
          "type": "address"
        }
      ],
      "name": "ProfitRecipientUpdated",
      "type": "event"
    },
    {
      "anonymous": false,
      "inputs": [
        {
          "indexed": false,
          "internalType": "uint256",
          "name": "fee",
          "type": "uint256"
        },
        {
          "indexed": false,
          "internalType": "uint256",
          "name": "feeDenominator",
          "type": "uint256"
        }
      ],
      "name": "RedeemFeeUpdated",
      "type": "event"
    },
    {
      "anonymous": false,
      "inputs": [
        {
          "indexed": true,
          "internalType": "bytes32",
          "name": "role",
          "type": "bytes32"
        },
        {
          "indexed": true,
          "internalType": "bytes32",
          "name": "previousAdminRole",
          "type": "bytes32"
        },
        {
          "indexed": true,
          "internalType": "bytes32",
          "name": "newAdminRole",
          "type": "bytes32"
        }
      ],
      "name": "RoleAdminChanged",
      "type": "event"
    },
    {
      "anonymous": false,
      "inputs": [
        {
          "indexed": true,
          "internalType": "bytes32",
          "name": "role",
          "type": "bytes32"
        },
        {
          "indexed": true,
          "internalType": "address",
          "name": "account",
          "type": "address"
        },
        {
          "indexed": true,
          "internalType": "address",
          "name": "sender",
          "type": "address"
        }
      ],
      "name": "RoleGranted",
      "type": "event"
    },
    {
      "anonymous": false,
      "inputs": [
        {
          "indexed": true,
          "internalType": "bytes32",
          "name": "role",
          "type": "bytes32"
        },
        {
          "indexed": true,
          "internalType": "address",
          "name": "account",
          "type": "address"
        },
        {
          "indexed": true,
          "internalType": "address",
          "name": "sender",
          "type": "address"
        }
      ],
      "name": "RoleRevoked",
      "type": "event"
    },
    {
      "anonymous": false,
      "inputs": [
        {
          "indexed": false,
          "internalType": "address",
          "name": "sionToken",
          "type": "address"
        },
        {
          "indexed": false,
          "internalType": "address",
          "name": "asset",
          "type": "address"
        }
      ],
      "name": "TokensUpdated",
      "type": "event"
    },
    {
      "anonymous": false,
      "inputs": [
        {
          "indexed": false,
          "internalType": "address",
          "name": "account",
          "type": "address"
        }
      ],
      "name": "Unpaused",
      "type": "event"
    },
    {
      "anonymous": false,
      "inputs": [
        {
          "indexed": true,
          "internalType": "address",
          "name": "implementation",
          "type": "address"
        }
      ],
      "name": "Upgraded",
      "type": "event"
    },
    {
      "inputs": [],
      "name": "DEFAULT_ADMIN_ROLE",
      "outputs": [
        {
          "internalType": "bytes32",
          "name": "",
          "type": "bytes32"
        }
      ],
      "stateMutability": "view",
      "type": "function"
    },
    {
      "inputs": [],
      "name": "FISK_FACTOR_DM",
      "outputs": [
        {
          "internalType": "uint256",
          "name": "",
          "type": "uint256"
        }
      ],
      "stateMutability": "view",
      "type": "function"
    },
    {
      "inputs": [],
      "name": "FREE_RIDER_ROLE",
      "outputs": [
        {
          "internalType": "bytes32",
          "name": "",
          "type": "bytes32"
        }
      ],
      "stateMutability": "view",
      "type": "function"
    },
    {
      "inputs": [],
      "name": "LIQ_DELTA_DM",
      "outputs": [
        {
          "internalType": "uint256",
          "name": "",
          "type": "uint256"
        }
      ],
      "stateMutability": "view",
      "type": "function"
    },
    {
      "inputs": [],
      "name": "PORTFOLIO_AGENT_ROLE",
      "outputs": [
        {
          "internalType": "bytes32",
          "name": "",
          "type": "bytes32"
        }
      ],
      "stateMutability": "view",
      "type": "function"
    },
    {
      "inputs": [],
      "name": "UNIT_ROLE",
      "outputs": [
        {
          "internalType": "bytes32",
          "name": "",
          "type": "bytes32"
        }
      ],
      "stateMutability": "view",
      "type": "function"
    },
    {
      "inputs": [],
      "name": "abroadMax",
      "outputs": [
        {
          "internalType": "uint256",
          "name": "",
          "type": "uint256"
        }
      ],
      "stateMutability": "view",
      "type": "function"
    },
    {
      "inputs": [],
      "name": "abroadMin",
      "outputs": [
        {
          "internalType": "uint256",
          "name": "",
          "type": "uint256"
        }
      ],
      "stateMutability": "view",
      "type": "function"
    },
    {
      "inputs": [],
      "name": "blockGetter",
      "outputs": [
        {
          "internalType": "address",
          "name": "",
          "type": "address"
        }
      ],
      "stateMutability": "view",
      "type": "function"
    },
    {
      "inputs": [
        {
          "internalType": "address",
          "name": "_asset",
          "type": "address"
        },
        {
          "internalType": "uint256",
          "name": "_amount",
          "type": "uint256"
        }
      ],
      "name": "buy",
      "outputs": [
        {
          "internalType": "uint256",
          "name": "",
          "type": "uint256"
        }
      ],
      "stateMutability": "nonpayable",
      "type": "function"
    },
    {
      "inputs": [],
      "name": "buyFee",
      "outputs": [
        {
          "internalType": "uint256",
          "name": "",
          "type": "uint256"
        }
      ],
      "stateMutability": "view",
      "type": "function"
    },
    {
      "inputs": [],
      "name": "buyFeeDenominator",
      "outputs": [
        {
          "internalType": "uint256",
          "name": "",
          "type": "uint256"
        }
      ],
      "stateMutability": "view",
      "type": "function"
    },
    {
      "inputs": [],
      "name": "changeAdminRoles",
      "outputs": [],
      "stateMutability": "nonpayable",
      "type": "function"
    },
    {
      "inputs": [],
      "name": "compensateLoss",
      "outputs": [
        {
          "internalType": "uint256",
          "name": "",
          "type": "uint256"
        }
      ],
      "stateMutability": "view",
      "type": "function"
    },
    {
      "inputs": [],
      "name": "compensateLossDenominator",
      "outputs": [
        {
          "internalType": "uint256",
          "name": "",
          "type": "uint256"
        }
      ],
      "stateMutability": "view",
      "type": "function"
    },
    {
      "inputs": [
        {
          "internalType": "bytes32",
          "name": "role",
          "type": "bytes32"
        }
      ],
      "name": "getRoleAdmin",
      "outputs": [
        {
          "internalType": "bytes32",
          "name": "",
          "type": "bytes32"
        }
      ],
      "stateMutability": "view",
      "type": "function"
    },
    {
      "inputs": [
        {
          "internalType": "bytes32",
          "name": "role",
          "type": "bytes32"
        },
        {
          "internalType": "address",
          "name": "account",
          "type": "address"
        }
      ],
      "name": "grantRole",
      "outputs": [],
      "stateMutability": "nonpayable",
      "type": "function"
    },
    {
      "inputs": [
        {
          "internalType": "bytes32",
          "name": "role",
          "type": "bytes32"
        },
        {
          "internalType": "address",
          "name": "account",
          "type": "address"
        }
      ],
      "name": "hasRole",
      "outputs": [
        {
          "internalType": "bool",
          "name": "",
          "type": "bool"
        }
      ],
      "stateMutability": "view",
      "type": "function"
    },
    {
      "inputs": [],
      "name": "initialize",
      "outputs": [],
      "stateMutability": "nonpayable",
      "type": "function"
    },
    {
      "inputs": [],
      "name": "insurance",
      "outputs": [
        {
          "internalType": "address",
          "name": "",
          "type": "address"
        }
      ],
      "stateMutability": "view",
      "type": "function"
    },
    {
      "inputs": [],
      "name": "lastBlockNumber",
      "outputs": [
        {
          "internalType": "uint256",
          "name": "",
          "type": "uint256"
        }
      ],
      "stateMutability": "view",
      "type": "function"
    },
    {
      "inputs": [],
      "name": "mark2market",
      "outputs": [
        {
          "internalType": "contract IMark2Market",
          "name": "",
          "type": "address"
        }
      ],
      "stateMutability": "view",
      "type": "function"
    },
    {
      "inputs": [
        {
          "components": [
            {
              "internalType": "address",
              "name": "asset",
              "type": "address"
            },
            {
              "internalType": "uint256",
              "name": "amount",
              "type": "uint256"
            },
            {
              "internalType": "string",
              "name": "referral",
              "type": "string"
            }
          ],
          "internalType": "struct Exchange.MintParams",
          "name": "params",
          "type": "tuple"
        }
      ],
      "name": "mint",
      "outputs": [
        {
          "internalType": "uint256",
          "name": "",
          "type": "uint256"
        }
      ],
      "stateMutability": "nonpayable",
      "type": "function"
    },
    {
      "inputs": [],
      "name": "nextPayoutTime",
      "outputs": [
        {
          "internalType": "uint256",
          "name": "",
          "type": "uint256"
        }
      ],
      "stateMutability": "view",
      "type": "function"
    },
    {
      "inputs": [],
      "name": "oracleLoss",
      "outputs": [
        {
          "internalType": "uint256",
          "name": "",
          "type": "uint256"
        }
      ],
      "stateMutability": "view",
      "type": "function"
    },
    {
      "inputs": [],
      "name": "oracleLossDenominator",
      "outputs": [
        {
          "internalType": "uint256",
          "name": "",
          "type": "uint256"
        }
      ],
      "stateMutability": "view",
      "type": "function"
    },
    {
      "inputs": [],
      "name": "pause",
      "outputs": [],
      "stateMutability": "nonpayable",
      "type": "function"
    },
    {
      "inputs": [],
      "name": "paused",
      "outputs": [
        {
          "internalType": "bool",
          "name": "",
          "type": "bool"
        }
      ],
      "stateMutability": "view",
      "type": "function"
    },
    {
      "inputs": [],
      "name": "payout",
      "outputs": [],
      "stateMutability": "nonpayable",
      "type": "function"
    },
    {
      "inputs": [],
      "name": "payoutListener",
      "outputs": [
        {
          "internalType": "contract IPayoutListener",
          "name": "",
          "type": "address"
        }
      ],
      "stateMutability": "view",
      "type": "function"
    },
    {
      "inputs": [],
      "name": "payoutPeriod",
      "outputs": [
        {
          "internalType": "uint256",
          "name": "",
          "type": "uint256"
        }
      ],
      "stateMutability": "view",
      "type": "function"
    },
    {
      "inputs": [],
      "name": "payoutTimeRange",
      "outputs": [
        {
          "internalType": "uint256",
          "name": "",
          "type": "uint256"
        }
      ],
      "stateMutability": "view",
      "type": "function"
    },
    {
      "inputs": [],
      "name": "portfolioManager",
      "outputs": [
        {
          "internalType": "contract IPortfolioManager",
          "name": "",
          "type": "address"
        }
      ],
      "stateMutability": "view",
      "type": "function"
    },
    {
      "inputs": [],
      "name": "profitRecipient",
      "outputs": [
        {
          "internalType": "address",
          "name": "",
          "type": "address"
        }
      ],
      "stateMutability": "view",
      "type": "function"
    },
    {
      "inputs": [],
      "name": "proxiableUUID",
      "outputs": [
        {
          "internalType": "bytes32",
          "name": "",
          "type": "bytes32"
        }
      ],
      "stateMutability": "view",
      "type": "function"
    },
    {
      "inputs": [
        {
          "internalType": "address",
          "name": "_asset",
          "type": "address"
        },
        {
          "internalType": "uint256",
          "name": "_amount",
          "type": "uint256"
        }
      ],
      "name": "redeem",
      "outputs": [
        {
          "internalType": "uint256",
          "name": "",
          "type": "uint256"
        }
      ],
      "stateMutability": "nonpayable",
      "type": "function"
    },
    {
      "inputs": [],
      "name": "redeemFee",
      "outputs": [
        {
          "internalType": "uint256",
          "name": "",
          "type": "uint256"
        }
      ],
      "stateMutability": "view",
      "type": "function"
    },
    {
      "inputs": [],
      "name": "redeemFeeDenominator",
      "outputs": [
        {
          "internalType": "uint256",
          "name": "",
          "type": "uint256"
        }
      ],
      "stateMutability": "view",
      "type": "function"
    },
    {
      "inputs": [
        {
          "internalType": "bytes32",
          "name": "role",
          "type": "bytes32"
        },
        {
          "internalType": "address",
          "name": "account",
          "type": "address"
        }
      ],
      "name": "renounceRole",
      "outputs": [],
      "stateMutability": "nonpayable",
      "type": "function"
    },
    {
      "inputs": [
        {
          "internalType": "bytes32",
          "name": "role",
          "type": "bytes32"
        },
        {
          "internalType": "address",
          "name": "account",
          "type": "address"
        }
      ],
      "name": "revokeRole",
      "outputs": [],
      "stateMutability": "nonpayable",
      "type": "function"
    },
    {
      "inputs": [
        {
          "internalType": "uint256",
          "name": "_min",
          "type": "uint256"
        },
        {
          "internalType": "uint256",
          "name": "_max",
          "type": "uint256"
        }
      ],
      "name": "setAbroad",
      "outputs": [],
      "stateMutability": "nonpayable",
      "type": "function"
    },
    {
      "inputs": [
        {
          "internalType": "address",
          "name": "_blockGetter",
          "type": "address"
        }
      ],
      "name": "setBlockGetter",
      "outputs": [],
      "stateMutability": "nonpayable",
      "type": "function"
    },
    {
      "inputs": [
        {
          "internalType": "uint256",
          "name": "_fee",
          "type": "uint256"
        },
        {
          "internalType": "uint256",
          "name": "_feeDenominator",
          "type": "uint256"
        }
      ],
      "name": "setBuyFee",
      "outputs": [],
      "stateMutability": "nonpayable",
      "type": "function"
    },
    {
      "inputs": [
        {
          "internalType": "uint256",
          "name": "_compensateLoss",
          "type": "uint256"
        },
        {
          "internalType": "uint256",
          "name": "_denominator",
          "type": "uint256"
        }
      ],
      "name": "setCompensateLoss",
      "outputs": [],
      "stateMutability": "nonpayable",
      "type": "function"
    },
    {
      "inputs": [
        {
          "internalType": "address",
          "name": "_insurance",
          "type": "address"
        }
      ],
      "name": "setInsurance",
      "outputs": [],
      "stateMutability": "nonpayable",
      "type": "function"
    },
    {
      "inputs": [
        {
          "internalType": "address",
          "name": "_mark2market",
          "type": "address"
        }
      ],
      "name": "setMark2Market",
      "outputs": [],
      "stateMutability": "nonpayable",
      "type": "function"
    },
    {
      "inputs": [
        {
          "internalType": "uint256",
          "name": "_oracleLoss",
          "type": "uint256"
        },
        {
          "internalType": "uint256",
          "name": "_denominator",
          "type": "uint256"
        }
      ],
      "name": "setOracleLoss",
      "outputs": [],
      "stateMutability": "nonpayable",
      "type": "function"
    },
    {
      "inputs": [
        {
          "internalType": "address",
          "name": "_payoutListener",
          "type": "address"
        }
      ],
      "name": "setPayoutListener",
      "outputs": [],
      "stateMutability": "nonpayable",
      "type": "function"
    },
    {
      "inputs": [
        {
          "internalType": "uint256",
          "name": "_nextPayoutTime",
          "type": "uint256"
        },
        {
          "internalType": "uint256",
          "name": "_payoutPeriod",
          "type": "uint256"
        },
        {
          "internalType": "uint256",
          "name": "_payoutTimeRange",
          "type": "uint256"
        }
      ],
      "name": "setPayoutTimes",
      "outputs": [],
      "stateMutability": "nonpayable",
      "type": "function"
    },
    {
      "inputs": [
        {
          "internalType": "address",
          "name": "_portfolioManager",
          "type": "address"
        }
      ],
      "name": "setPortfolioManager",
      "outputs": [],
      "stateMutability": "nonpayable",
      "type": "function"
    },
    {
      "inputs": [
        {
          "internalType": "address",
          "name": "_profitRecipient",
          "type": "address"
        }
      ],
      "name": "setProfitRecipient",
      "outputs": [],
      "stateMutability": "nonpayable",
      "type": "function"
    },
    {
      "inputs": [
        {
          "internalType": "uint256",
          "name": "_fee",
          "type": "uint256"
        },
        {
          "internalType": "uint256",
          "name": "_feeDenominator",
          "type": "uint256"
        }
      ],
      "name": "setRedeemFee",
      "outputs": [],
      "stateMutability": "nonpayable",
      "type": "function"
    },
    {
      "inputs": [
        {
          "internalType": "address",
          "name": "_sionToken",
          "type": "address"
        },
        {
          "internalType": "address",
          "name": "_asset",
          "type": "address"
        }
      ],
      "name": "setTokens",
      "outputs": [],
      "stateMutability": "nonpayable",
      "type": "function"
    },
    {
      "inputs": [],
      "name": "sionToken",
      "outputs": [
        {
          "internalType": "contract SionToken",
          "name": "",
          "type": "address"
        }
      ],
      "stateMutability": "view",
      "type": "function"
    },
    {
      "inputs": [
        {
          "internalType": "bytes4",
          "name": "interfaceId",
          "type": "bytes4"
        }
      ],
      "name": "supportsInterface",
      "outputs": [
        {
          "internalType": "bool",
          "name": "",
          "type": "bool"
        }
      ],
      "stateMutability": "view",
      "type": "function"
    },
    {
      "inputs": [],
      "name": "unpause",
      "outputs": [],
      "stateMutability": "nonpayable",
      "type": "function"
    },
    {
      "inputs": [
        {
          "internalType": "address",
          "name": "newImplementation",
          "type": "address"
        }
      ],
      "name": "upgradeTo",
      "outputs": [],
      "stateMutability": "nonpayable",
      "type": "function"
    },
    {
      "inputs": [
        {
          "internalType": "address",
          "name": "newImplementation",
          "type": "address"
        },
        {
          "internalType": "bytes",
          "name": "data",
          "type": "bytes"
        }
      ],
      "name": "upgradeToAndCall",
      "outputs": [],
      "stateMutability": "payable",
      "type": "function"
    },
    {
      "inputs": [],
      "name": "usdPlus",
      "outputs": [
        {
          "internalType": "contract SionToken",
          "name": "",
          "type": "address"
        }
      ],
      "stateMutability": "view",
      "type": "function"
    },
    {
      "inputs": [],
      "name": "usdc",
      "outputs": [
        {
          "internalType": "contract IERC20",
          "name": "",
          "type": "address"
        }
      ],
      "stateMutability": "view",
      "type": "function"
    },
    {
      "inputs": [],
      "name": "usdt",
      "outputs": [
        {
          "internalType": "contract IERC20",
          "name": "",
          "type": "address"
        }
      ],
      "stateMutability": "view",
      "type": "function"
    }
  ],
  "bytecode": "0x60a0604052306080523480156200001557600080fd5b50600054610100900460ff1615808015620000375750600054600160ff909116105b8062000067575062000054306200010860201b620024aa1760201c565b15801562000067575060005460ff166001145b6200008f5760405162461bcd60e51b8152600401620000869062000117565b60405180910390fd5b6000805460ff191660011790558015620000b3576000805461ff0019166101001790555b801562000101576000805461ff00191690556040517f7f26b83ff96e1f2b6a682f133852f6798a09c465da95921460cefb384740249890620000f8906001906200018d565b60405180910390a15b506200019d565b6001600160a01b03163b151590565b602080825281016200016a81602e81527f496e697469616c697a61626c653a20636f6e747261637420697320616c72656160208201526d191e481a5b9a5d1a585b1a5e995960921b604082015260600190565b92915050565b600060ff82166200016a565b620001878162000170565b82525050565b602081016200016a82846200017c565b608051614ae2620001d56000396000818161102f0152818161106f01528181611289015281816112c901526113580152614ae26000f3fe6080604052600436106103a25760003560e01c80636d8ebaa8116101e7578063a217fddf1161010d578063ce1aa76b116100a0578063e3d9fc281161006f578063e3d9fc2814610a41578063f3869e8d14610a58578063f695169314610a78578063fb0ecfa414610a9957600080fd5b8063ce1aa76b146109d7578063cecbbc07146109ee578063d31a193414610a05578063d547741f14610a2157600080fd5b8063bd2160c2116100dc578063bd2160c214610960578063c12e90e914610980578063cbc7854e14610997578063cce7ec13146109b757600080fd5b8063a217fddf146108eb578063a440b21a14610900578063a4bb42a114610920578063bc56bebf1461094057600080fd5b806389cf320411610185578063965fa21e11610154578063965fa21e1461087c5780639cca16d8146108935780639d70c129146108b3578063a09759cf146108ca57600080fd5b806389cf3204146107fb5780638c754ef11461081c57806391d148541461083c5780639629300c1461085c57600080fd5b80637c5261d8116101c15780637c5261d8146107995780637e2bad1e146107b05780638129fc1c146107d15780638456cb59146107e657600080fd5b80636d8ebaa8146107495780637559c32914610760578063771d147e1461078257600080fd5b80633e413bee116102cc57806352d1902d1161026a578063620b75df11610239578063620b75df146106dc57806362f09895146106fd57806363bd1d4a146107145780636cd7751f1461072957600080fd5b806352d1902d146106785780635c975abb1461068d5780635d8658b1146106a55780635dbd733a146106ba57600080fd5b80634795084f116102a65780634795084f14610602578063497d9192146106225780634f1ef28614610644578063514e460a1461065757600080fd5b80633e413bee146105b55780633f4ba83a146105d657806347062402146105eb57600080fd5b80632b78fe78116103445780633020560311610313578063302056031461052757806336568abe146105555780633659cfe614610575578063370447711461059557600080fd5b80632b78fe78146104ad5780632d8cc004146104c45780632f2ff15d146104e65780632f48ab7d1461050657600080fd5b80631e9a6950116103805780631e9a69501461042f578063248a9ca31461044f5780632552317c1461047f57806325990d631461049657600080fd5b806301ffc9a7146103a75780631346c9e7146103dd578063182531f814610401575b600080fd5b3480156103b357600080fd5b506103c76103c23660046136e6565b610ab9565b6040516103d49190613711565b60405180910390f35b3480156103e957600080fd5b506103f46101405481565b6040516103d49190613725565b34801561040d57600080fd5b5061013854610422906001600160a01b031681565b6040516103d49190613763565b34801561043b57600080fd5b506103f461044a366004613796565b610af0565b34801561045b57600080fd5b506103f461046a3660046137d3565b60009081526065602052604090206001015490565b34801561048b57600080fd5b506103f46101395481565b3480156104a257600080fd5b506103f461013f5481565b3480156104b957600080fd5b506103f461013a5481565b3480156104d057600080fd5b506104e46104df3660046137f4565b610f27565b005b3480156104f257600080fd5b506104e4610501366004613816565b610fc5565b34801561051257600080fd5b5061014454610422906001600160a01b031681565b34801561053357600080fd5b5061014254610548906001600160a01b031681565b6040516103d49190613852565b34801561056157600080fd5b506104e4610570366004613816565b610fef565b34801561058157600080fd5b506104e4610590366004613860565b611025565b3480156105a157600080fd5b506104e46105b0366004613860565b611104565b3480156105c157600080fd5b5061012e54610422906001600160a01b031681565b3480156105e257600080fd5b506104e46111a8565b3480156105f757600080fd5b506103f46101315481565b34801561060e57600080fd5b506104e461061d366004613860565b6111e6565b34801561062e57600080fd5b506103f4600080516020614a0683398151915281565b6104e461065236600461397c565b61127f565b34801561066357600080fd5b5061012d54610422906001600160a01b031681565b34801561068457600080fd5b506103f461134b565b34801561069957600080fd5b5060fb5460ff166103c7565b3480156106b157600080fd5b506104e46113a8565b3480156106c657600080fd5b506103f4600080516020614a4683398151915281565b3480156106e857600080fd5b5061012f54610422906001600160a01b031681565b34801561070957600080fd5b506103f46101325481565b34801561072057600080fd5b506104e461141b565b34801561073557600080fd5b506104e4610744366004613860565b611a0c565b34801561075557600080fd5b506103f46101355481565b34801561076c57600080fd5b506103f4600080516020614a2683398151915281565b34801561078e57600080fd5b506103f4620186a081565b3480156107a557600080fd5b506103f461013b5481565b3480156107bc57600080fd5b5061014154610548906001600160a01b031681565b3480156107dd57600080fd5b506104e4611aa5565b3480156107f257600080fd5b506104e4611c22565b34801561080757600080fd5b5061013c54610548906001600160a01b031681565b34801561082857600080fd5b506104e4610837366004613860565b611c5e565b34801561084857600080fd5b506103c7610857366004613816565b611cd1565b34801561086857600080fd5b506103f46108773660046139e5565b611cfc565b34801561088857600080fd5b506103f46101335481565b34801561089f57600080fd5b506104e46108ae3660046137f4565b611e69565b3480156108bf57600080fd5b506103f461013e5481565b3480156108d657600080fd5b5061014354610422906001600160a01b031681565b3480156108f757600080fd5b506103f4600081565b34801561090c57600080fd5b506104e461091b366004613860565b611edb565b34801561092c57600080fd5b506104e461093b366004613860565b611f74565b34801561094c57600080fd5b506104e461095b3660046137f4565b611fe7565b34801561096c57600080fd5b506104e461097b3660046137f4565b612079565b34801561098c57600080fd5b506103f46101345481565b3480156109a357600080fd5b506104e46109b2366004613a20565b61210b565b3480156109c357600080fd5b506103f46109d2366004613796565b6121e2565b3480156109e357600080fd5b506103f46101365481565b3480156109fa57600080fd5b506103f46101375481565b348015610a1157600080fd5b506103f4670de0b6b3a764000081565b348015610a2d57600080fd5b506104e4610a3c366004613816565b61230d565b348015610a4d57600080fd5b506103f461013d5481565b348015610a6457600080fd5b506104e4610a73366004613a42565b612332565b348015610a8457600080fd5b5061013054610422906001600160a01b031681565b348015610aa557600080fd5b506104e4610ab43660046137f4565b612418565b60006001600160e01b03198216637965db0b60e01b1480610aea57506301ffc9a760e01b6001600160e01b03198316145b92915050565b6000610afa6124b9565b610142546000906001600160a01b031615610b8e5761014260009054906101000a90046001600160a01b03166001600160a01b031663f2c9ecd86040518163ffffffff1660e01b8152600401602060405180830381865afa158015610b63573d6000803e3d6000fd5b505050506040513d601f19601f82011682018060405250810190610b879190613a9d565b9050610b91565b50435b610ba9600080516020614a2683398151915233611cd1565b610bd857806101395410610bd85760405162461bcd60e51b8152600401610bcf90613aea565b60405180910390fd5b610139819055610144546001600160a01b03858116911614610c0c5760405162461bcd60e51b8152600401610bcf90613b2e565b60008311610c2c5760405162461bcd60e51b8152600401610bcf90613b6b565b610143546040516370a0823160e01b815284916001600160a01b0316906370a0823190610c5d903390600401613852565b602060405180830381865afa158015610c7a573d6000803e3d6000fd5b505050506040513d601f19601f82011682018060405250810190610c9e9190613a9d565b1015610cbc5760405162461bcd60e51b8152600401610bcf90613baf565b6000610cc7846124dc565b905060008111610ce95760405162461bcd60e51b8152600401610bcf90613bf3565b600080610cf7836000612633565b61012f54604051632e1a7d4d60e01b81529194509192506001600160a01b0390911690632e1a7d4d90610d2e908490600401613725565b6020604051808303816000875af1158015610d4d573d6000803e3d6000fd5b505050506040513d601f19601f82011682018060405250810190610d719190613a9d565b5061014354604051632770a7eb60e21b81526001600160a01b0390911690639dc29fac90610da59033908a90600401613c03565b600060405180830381600087803b158015610dbf57600080fd5b505af1158015610dd3573d6000803e3d6000fd5b5050610144546040516370a0823160e01b81528493506001600160a01b0390911691506370a0823190610e0a903090600401613852565b602060405180830381865afa158015610e27573d6000803e3d6000fd5b505050506040513d601f19601f82011682018060405250810190610e4b9190613a9d565b1015610e695760405162461bcd60e51b8152600401610bcf90613c62565b6101445460405163a9059cbb60e01b81526001600160a01b039091169063a9059cbb90610e9c9033908590600401613c03565b6020604051808303816000875af1158015610ebb573d6000803e3d6000fd5b505050506040513d601f19601f82011682018060405250810190610edf9190613c85565b507f5215f03b099407f64e52d76ef2416a46b32915d572e87db5d40282538ed36484818333604051610f1393929190613cc3565b60405180910390a1935050505b5092915050565b610f3f600080516020614a4683398151915233611cd1565b610f5b5760405162461bcd60e51b8152600401610bcf90613d4a565b80600003610f7b5760405162461bcd60e51b8152600401610bcf90613d8e565b61013d82905561013e8190556040517ffd477784a91e10a1a8ac1832d94895eef49a29940452ad3635cc3e8eab77e4b790610fb99084908490613d9e565b60405180910390a15050565b600082815260656020526040902060010154610fe0816126ba565b610fea83836126c4565b505050565b6001600160a01b03811633146110175760405162461bcd60e51b8152600401610bcf90613df8565b611021828261274a565b5050565b6001600160a01b037f000000000000000000000000000000000000000000000000000000000000000016300361106d5760405162461bcd60e51b8152600401610bcf90613e51565b7f00000000000000000000000000000000000000000000000000000000000000006001600160a01b03166110b6600080516020614a66833981519152546001600160a01b031690565b6001600160a01b0316146110dc5760405162461bcd60e51b8152600401610bcf90613eaa565b6110e5816127b1565b60408051600080825260208201909252611101918391906127bc565b50565b61110f600033611cd1565b61112b5760405162461bcd60e51b8152600401610bcf90613ee5565b6001600160a01b0381166111515760405162461bcd60e51b8152600401610bcf90613f29565b61013080546001600160a01b0319166001600160a01b0383161790556040517f2387291c358bb5414b9fdcdfeb40efddb696908065a6533e47bf60b395f7dcfd9061119d908390613852565b60405180910390a150565b6111c0600080516020614a4683398151915233611cd1565b6111dc5760405162461bcd60e51b8152600401610bcf90613d4a565b6111e461289e565b565b6111f1600033611cd1565b61120d5760405162461bcd60e51b8152600401610bcf90613ee5565b6001600160a01b0381166112335760405162461bcd60e51b8152600401610bcf90613f29565b61014180546001600160a01b0319166001600160a01b0383161790556040517f97519908572e1d17b754081a3fd2ac67644cf8cda617d672983db516e2308e7c9061119d908390613852565b6001600160a01b037f00000000000000000000000000000000000000000000000000000000000000001630036112c75760405162461bcd60e51b8152600401610bcf90613e51565b7f00000000000000000000000000000000000000000000000000000000000000006001600160a01b0316611310600080516020614a66833981519152546001600160a01b031690565b6001600160a01b0316146113365760405162461bcd60e51b8152600401610bcf90613eaa565b61133f826127b1565b611021828260016127bc565b6000306001600160a01b037f000000000000000000000000000000000000000000000000000000000000000016146113955760405162461bcd60e51b8152600401610bcf90613f93565b50600080516020614a6683398151915290565b6113b3600033611cd1565b6113cf5760405162461bcd60e51b8152600401610bcf90613ee5565b6113f5600080516020614a26833981519152600080516020614a468339815191526128ea565b6111e4600080516020614a06833981519152600080516020614a468339815191526128ea565b6114236124b9565b61143b600080516020614a0683398151915233611cd1565b6114575760405162461bcd60e51b8152600401610bcf90613fcc565b61012f60009054906101000a90046001600160a01b03166001600160a01b031663c6bbf4cb6040518163ffffffff1660e01b8152600401600060405180830381600087803b1580156114a857600080fd5b505af11580156114bc573d6000803e3d6000fd5b50505050600061014360009054906101000a90046001600160a01b03166001600160a01b031663b1bf962d6040518163ffffffff1660e01b8152600401602060405180830381865afa158015611516573d6000803e3d6000fd5b505050506040513d601f19601f8201168201806040525081019061153a9190613a9d565b9050600061154782612935565b9050600061013060009054906101000a90046001600160a01b03166001600160a01b031663890a8c4f6040518163ffffffff1660e01b8152600401602060405180830381865afa15801561159f573d6000803e3d6000fd5b505050506040513d601f19601f820116820180604052508101906115c39190613a9d565b9050600061014460009054906101000a90046001600160a01b03166001600160a01b031663313ce5676040518163ffffffff1660e01b8152600401602060405180830381865afa15801561161b573d6000803e3d6000fd5b505050506040513d601f19601f8201168201806040525081019061163f9190613ff0565b60ff169050600061014360009054906101000a90046001600160a01b03166001600160a01b031663313ce5676040518163ffffffff1660e01b8152600401602060405180830381865afa15801561169a573d6000803e3d6000fd5b505050506040513d601f19601f820116820180604052508101906116be9190613ff0565b60ff169050808211156116f1576116d58183614027565b6116e090600a614148565b6116ea908461416d565b9250611713565b6116fb8282614027565b61170690600a614148565b6117109084614181565b92505b600084841161172d576117268486614027565b905061173a565b6117378585614027565b90505b600061174585612985565b9050600061175382896129c4565b9050600061014360009054906101000a90046001600160a01b03166001600160a01b031663bbf44f336040518163ffffffff1660e01b8152600401602060405180830381865afa1580156117ab573d6000803e3d6000fd5b505050506040513d601f19601f820116820180604052508101906117cf9190613a9d565b90506000816117e184620f4240614181565b6117eb919061416d565b90506118306040518060400160405280601781526020017f64656c74613a202573206162726f61644d696e3a2025730000000000000000008152508261013a54612a73565b61013a5481116118525760405162461bcd60e51b8152600401610bcf906141c0565b8061013b54116118745760405162461bcd60e51b8152600401610bcf906141f7565b6101435460405163b2be259160e01b81526001600160a01b039091169063b2be2591906118a5908690600401613725565b600060405180830381600087803b1580156118bf57600080fd5b505af11580156118d3573d6000803e3d6000fd5b5050610138546001600160a01b031615915061195590505761013860009054906101000a90046001600160a01b03166001600160a01b031663f14a74386040518163ffffffff1660e01b8152600401600060405180830381600087803b15801561193c57600080fd5b505af1158015611950573d6000803e3d6000fd5b505050505b7f106a59d3805ed5b61e26818a11c688e650c883df2ca2d625f9d9ac6fae9d91798989878660405161198a9493929190614207565b60405180910390a15b61013754610135546119a59190614027565b42106119c65761013654610135546119bd919061423c565b61013555611993565b7f6654b7187a0560c4c326844142156c2adf52738d0a615487e0e2a5cd9823c2c4610135546040516119f89190613725565b60405180910390a150505050505050505050565b611a17600033611cd1565b611a335760405162461bcd60e51b8152600401610bcf90613ee5565b6001600160a01b038116611a595760405162461bcd60e51b8152600401610bcf90613f29565b61013c80546001600160a01b0319166001600160a01b0383161790556040517f85a0f0b1d49c1f8eb76d236b1f5cdbb4acb94862ea575640d7399ae8530b07609061119d908390613852565b600054610100900460ff1615808015611ac55750600054600160ff909116105b80611adf5750303b158015611adf575060005460ff166001145b611afb5760405162461bcd60e51b8152600401610bcf9061429a565b6000805460ff191660011790558015611b1e576000805461ff0019166101001790555b611b26612aba565b611b2e612ae1565b611b36612aba565b611b416000336126c4565b6028610131819055620186a06101328190556101339190915561013455636195978061013555620151806101365561038461013755620f415061013a55620f439e61013b55611bac600080516020614a26833981519152600080516020614a468339815191526128ea565b611bd2600080516020614a06833981519152600080516020614a468339815191526128ea565b620186a061013e819055610140558015611101576000805461ff00191690556040517f7f26b83ff96e1f2b6a682f133852f6798a09c465da95921460cefb38474024989061119d906001906142be565b611c3a600080516020614a4683398151915233611cd1565b611c565760405162461bcd60e51b8152600401610bcf90613d4a565b6111e4612b10565b611c69600033611cd1565b611c855760405162461bcd60e51b8152600401610bcf90613ee5565b61014280546001600160a01b0319166001600160a01b0383161790556040517f2836b367ff6dd5ad0072110d2cabfe7150e1dd4e4571aefaacb20936a2fa2d6a9061119d908390613852565b60009182526065602090815260408084206001600160a01b0393909316845291905290205460ff1690565b6000611d066124b9565b610142546000906001600160a01b031615611d9a5761014260009054906101000a90046001600160a01b03166001600160a01b031663f2c9ecd86040518163ffffffff1660e01b8152600401602060405180830381865afa158015611d6f573d6000803e3d6000fd5b505050506040513d601f19601f82011682018060405250810190611d939190613a9d565b9050611d9d565b50435b611db5600080516020614a2683398151915233611cd1565b611ddb57806101395410611ddb5760405162461bcd60e51b8152600401610bcf90613aea565b6101398190556040805180820190915260058152646d696e742160d81b6020820152611e0690612b4d565b611e62611e166020850185613860565b6020850135611e2860408701876142cc565b8080601f016020809104026020016040519081016040528093929190818152602001838380828437600092019190915250612b9092505050565b9392505050565b611e81600080516020614a4683398151915233611cd1565b611e9d5760405162461bcd60e51b8152600401610bcf90613d4a565b61013a82905561013b8190556040517f164d29c07aa1410447214bda4ceeae682b23796531b6b4d1d674f72953aa7f6590610fb99084908490613d9e565b611ee6600033611cd1565b611f025760405162461bcd60e51b8152600401610bcf90613ee5565b6001600160a01b038116611f285760405162461bcd60e51b8152600401610bcf90613f29565b61012f80546001600160a01b0319166001600160a01b0383161790556040517ff7b449fcd5cfb7379dcd34cb69428dd9f882033b15be33d83b42d91daa28eeb79061119d908390613852565b611f7f600033611cd1565b611f9b5760405162461bcd60e51b8152600401610bcf90613ee5565b61013880546001600160a01b0319166001600160a01b0383161790556040517fc388495b5a8a549e1885691ef3b8b1cb2b97a91365bbc9f26f488d28caaab84d9061119d908390613852565b611fff600080516020614a4683398151915233611cd1565b61201b5760405162461bcd60e51b8152600401610bcf90613d4a565b8060000361203b5760405162461bcd60e51b8152600401610bcf90613d8e565b6101338290556101348190556040517f9fb7dbd1f2c1bd33dd68f78a38f699ff1ca487d7a7211ecc7df31d919f52043d90610fb99084908490613d9e565b612091600080516020614a4683398151915233611cd1565b6120ad5760405162461bcd60e51b8152600401610bcf90613d4a565b806000036120cd5760405162461bcd60e51b8152600401610bcf90613d8e565b61013f8290556101408190556040517f40406e80205f7a30d291067fc0c9c2b1c8715c2e7e8941c5d49feb4dc64f049b90610fb99084908490613d9e565b612116600033611cd1565b6121325760405162461bcd60e51b8152600401610bcf90613ee5565b6001600160a01b0382166121585760405162461bcd60e51b8152600401610bcf90613f29565b6001600160a01b03811661217e5760405162461bcd60e51b8152600401610bcf90613f29565b61014380546001600160a01b038085166001600160a01b0319928316179092556101448054928416929091169190911790556040517fdcc6331013de89f8c595d5328f0a724194f113cb6f8f2a707b3dff6de13f0d1790610fb9908490849061432b565b60006121ec6124b9565b610142546000906001600160a01b0316156122805761014260009054906101000a90046001600160a01b03166001600160a01b031663f2c9ecd86040518163ffffffff1660e01b8152600401602060405180830381865afa158015612255573d6000803e3d6000fd5b505050506040513d601f19601f820116820180604052508101906122799190613a9d565b9050612283565b50435b61229b600080516020614a2683398151915233611cd1565b6122c1578061013954106122c15760405162461bcd60e51b8152600401610bcf90613aea565b6101398190556040805180820190915260048152636275792160e01b60208201526122eb90612b4d565b612305848460405180602001604052806000815250612b90565b949350505050565b600082815260656020526040902060010154612328816126ba565b610fea838361274a565b61234a600080516020614a4683398151915233611cd1565b6123665760405162461bcd60e51b8152600401610bcf90613d4a565b826000036123865760405162461bcd60e51b8152600401610bcf90614378565b816000036123a65760405162461bcd60e51b8152600401610bcf906143bc565b8083116123c55760405162461bcd60e51b8152600401610bcf9061441c565b6101358390556101368290556101378190556040517f182705f356ea3bbbd12c7b4761586a554d391a7703345f81166bbe3f946444999061240b9085908590859061442c565b60405180910390a1505050565b612430600080516020614a4683398151915233611cd1565b61244c5760405162461bcd60e51b8152600401610bcf90613d4a565b8060000361246c5760405162461bcd60e51b8152600401610bcf90613d8e565b6101318290556101328190556040517f28e297c7c282931a994191b735b01eaf17558295f761512a7047f4e1b8dc3b0b90610fb99084908490613d9e565b6001600160a01b03163b151590565b60fb5460ff16156111e45760405162461bcd60e51b8152600401610bcf9061447b565b60008061014460009054906101000a90046001600160a01b03166001600160a01b031663313ce5676040518163ffffffff1660e01b8152600401602060405180830381865afa158015612533573d6000803e3d6000fd5b505050506040513d601f19601f820116820180604052508101906125579190613ff0565b60ff169050600061014360009054906101000a90046001600160a01b03166001600160a01b031663313ce5676040518163ffffffff1660e01b8152600401602060405180830381865afa1580156125b2573d6000803e3d6000fd5b505050506040513d601f19601f820116820180604052508101906125d69190613ff0565b60ff16905080821115612609576125ed8183614027565b6125f890600a614148565b6126029085614181565b935061262b565b6126138282614027565b61261e90600a614148565b612628908561416d565b93505b509192915050565b600080600083612646576101335461264b565b610131545b905060008461265d5761013454612662565b610132545b905060008061267f600080516020614a2683398151915233611cd1565b6126ab578261268e858a614181565b612698919061416d565b91506126a48289614027565b90506126ae565b50865b97909650945050505050565b61110181336130e5565b6126ce8282611cd1565b6110215760008281526065602090815260408083206001600160a01b03851684529091529020805460ff191660011790556127063390565b6001600160a01b0316816001600160a01b0316837f2f8788117e7eff1d82e926ec794901d17c78024a50270940304540a733656f0d60405160405180910390a45050565b6127548282611cd1565b156110215760008281526065602090815260408083206001600160a01b0385168085529252808320805460ff1916905551339285917ff6391f5c32d9c69d2a47ea670b442974b53935d1edc7fd64eb21e047a839171b9190a45050565b6000611021816126ba565b7f4910fdfa16fed3260ed0e7147f7cc6da11a60208b5b9406d12a635614ffd91435460ff16156127ef57610fea8361313e565b826001600160a01b03166352d1902d6040518163ffffffff1660e01b8152600401602060405180830381865afa925050508015612849575060408051601f3d908101601f1916820190925261284691810190613a9d565b60015b6128655760405162461bcd60e51b8152600401610bcf906144d6565b600080516020614a6683398151915281146128925760405162461bcd60e51b8152600401610bcf9061452c565b50610fea838383613194565b6128a66131bf565b60fb805460ff191690557f5db9ee0a495bf2e6ff9c91a7834c1ba4fdd244a5e8aa4e537bd38aeae4b073aa335b6040516128e09190613852565b60405180910390a1565b600082815260656020526040808220600101805490849055905190918391839186917fbd79b86ffe0ab8e8776151514217cd7cacd52c909f66475c3af44e129f0b00ff9190a4505050565b6000806129476002633b9aca0061416d565b90506000612955848361423c565b9050818110156129775760405162461bcd60e51b8152600401610bcf90614570565b612305633b9aca008261416d565b600080612996633b9aca0084614181565b9050826129a7633b9aca008361416d565b14610aea5760405162461bcd60e51b8152600401610bcf906145c0565b6000816000036129e65760405162461bcd60e51b8152600401610bcf90614604565b826000036129f657506000610aea565b6000612a0360028461416d565b90506b033b2e3c9fd0803ce8000000612a1e82600019614027565b612a28919061416d565b841115612a475760405162461bcd60e51b8152600401610bcf906145c0565b8281612a5f6b033b2e3c9fd0803ce800000087614181565b612a69919061423c565b612305919061416d565b610fea838383604051602401612a8b9392919061466a565b60408051601f198184030181529190526020810180516001600160e01b031663ca47c4eb60e01b1790526131e1565b600054610100900460ff166111e45760405162461bcd60e51b8152600401610bcf906146d2565b600054610100900460ff16612b085760405162461bcd60e51b8152600401610bcf906146d2565b6111e4613202565b612b186124b9565b60fb805460ff191660011790557f62e78cea01bee320cd4e420270b5ea74000d11b0c9f74754ebdbfc544b05a2586128d33390565b61110181604051602401612b6191906146e2565b60408051601f198184030181529190526020810180516001600160e01b031663104c13eb60e21b1790526131e1565b6000612bd06040518060400160405280601c81526020017f646f696e672061206d696e742f627579206f6e2065786368616e676500000000815250612b4d565b612bd984613235565b61014454612bef906001600160a01b0316613235565b612bf883613278565b612c286040518060400160405280600f81526020016e31bab93932b73a3130b630b731b29d60891b815250612b4d565b610144546040516370a0823160e01b8152612ca1916001600160a01b0316906370a0823190612c5b903390600401613852565b602060405180830381865afa158015612c78573d6000803e3d6000fd5b505050506040513d601f19601f82011682018060405250810190612c9c9190613a9d565b613278565b610144546001600160a01b03858116911614612ccf5760405162461bcd60e51b8152600401610bcf90614727565b610144546040516370a0823160e01b81526000916001600160a01b0316906370a0823190612d01903390600401613852565b602060405180830381865afa158015612d1e573d6000803e3d6000fd5b505050506040513d601f19601f82011682018060405250810190612d429190613a9d565b905083811015612d645760405162461bcd60e51b8152600401610bcf9061476b565b60008411612d845760405162461bcd60e51b8152600401610bcf90613bf3565b6000612d8f856132bb565b9050612dbf6040518060400160405280600d81526020016c1d5cd9141b1d5cd05b5bdd5b9d609a1b815250612b4d565b612dc881613278565b60008111612de85760405162461bcd60e51b8152600401610bcf90613b6b565b6101445461012f546040516370a0823160e01b815260009288926001600160a01b03918216926370a0823192612e22921690600401613852565b602060405180830381865afa158015612e3f573d6000803e3d6000fd5b505050506040513d601f19601f82011682018060405250810190612e639190613a9d565b612e6d919061423c565b6101445461012f546040516323b872dd60e01b81529293506001600160a01b03918216926323b872dd92612eaa9233929116908b9060040161477b565b6020604051808303816000875af1158015612ec9573d6000803e3d6000fd5b505050506040513d601f19601f82011682018060405250810190612eed9190613c85565b506101445461012f546040516370a0823160e01b815283926001600160a01b03908116926370a0823192612f279290911690600401613852565b602060405180830381865afa158015612f44573d6000803e3d6000fd5b505050506040513d601f19601f82011682018060405250810190612f689190613a9d565b14612f855760405162461bcd60e51b8152600401610bcf906147c1565b612fba6040518060400160405280601481526020017363616c6c696e6720706d2e6465706f736974282960601b815250612b4d565b61012f60009054906101000a90046001600160a01b03166001600160a01b031663d0e30db06040518163ffffffff1660e01b8152600401600060405180830381600087803b15801561300b57600080fd5b505af115801561301f573d6000803e3d6000fd5b50505050600080613031846001612633565b610143546040516340c10f1960e01b81529194509192506001600160a01b03909116906340c10f199061306a9033908590600401613c03565b600060405180830381600087803b15801561308457600080fd5b505af1158015613098573d6000803e3d6000fd5b505050507f5215f03b099407f64e52d76ef2416a46b32915d572e87db5d40282538ed364848183338a6040516130d194939291906147ec565b60405180910390a198975050505050505050565b6130ef8282611cd1565b611021576130fc81613400565b613107836020613412565b604051602001613118929190614859565b60408051601f198184030181529082905262461bcd60e51b8252610bcf916004016146e2565b6001600160a01b0381163b6131655760405162461bcd60e51b8152600401610bcf906148fb565b600080516020614a6683398151915280546001600160a01b0319166001600160a01b0392909216919091179055565b61319d8361357e565b6000825111806131aa5750805b15610fea576131b983836135be565b50505050565b60fb5460ff166111e45760405162461bcd60e51b8152600401610bcf90614936565b80516a636f6e736f6c652e6c6f67602083016000808483855afa5050505050565b600054610100900460ff166132295760405162461bcd60e51b8152600401610bcf906146d2565b60fb805460ff19169055565b611101816040516024016132499190613852565b60408051601f198184030181529190526020810180516001600160e01b031663161765e160e11b1790526131e1565b6111018160405160240161328c9190613725565b60408051601f198184030181529190526020810180516001600160e01b031663f82c50f160e01b1790526131e1565b60008061014460009054906101000a90046001600160a01b03166001600160a01b031663313ce5676040518163ffffffff1660e01b8152600401602060405180830381865afa158015613312573d6000803e3d6000fd5b505050506040513d601f19601f820116820180604052508101906133369190613ff0565b60ff169050600061014360009054906101000a90046001600160a01b03166001600160a01b031663313ce5676040518163ffffffff1660e01b8152600401602060405180830381865afa158015613391573d6000803e3d6000fd5b505050506040513d601f19601f820116820180604052508101906133b59190613ff0565b60ff169050808211156133e1576133cc8183614027565b6133d790600a614148565b612602908561416d565b6133eb8282614027565b6133f690600a614148565b6126289085614181565b6060610aea6001600160a01b03831660145b60606000613421836002614181565b61342c90600261423c565b67ffffffffffffffff81111561344457613444613881565b6040519080825280601f01601f19166020018201604052801561346e576020820181803683370190505b509050600360fc1b8160008151811061348957613489614946565b60200101906001600160f81b031916908160001a905350600f60fb1b816001815181106134b8576134b8614946565b60200101906001600160f81b031916908160001a90535060006134dc846002614181565b6134e790600161423c565b90505b600181111561355f576f181899199a1a9b1b9c1cb0b131b232b360811b85600f166010811061351b5761351b614946565b1a60f81b82828151811061353157613531614946565b60200101906001600160f81b031916908160001a90535060049490941c936135588161495c565b90506134ea565b508315611e625760405162461bcd60e51b8152600401610bcf906149a5565b6135878161313e565b6040516001600160a01b038216907fbc7cd75a20ee27fd9adebab32041f755214dbc6bffa90cc0225b39da2e5c2d3b90600090a250565b6060611e628383604051806060016040528060278152602001614a86602791396060600080856001600160a01b0316856040516135fb91906149b5565b600060405180830381855af49150503d8060008114613636576040519150601f19603f3d011682016040523d82523d6000602084013e61363b565b606091505b509150915061364c86838387613656565b9695505050505050565b6060831561369557825160000361368e576001600160a01b0385163b61368e5760405162461bcd60e51b8152600401610bcf906149f5565b5081612305565b61230583838151156136aa5781518083602001fd5b8060405162461bcd60e51b8152600401610bcf91906146e2565b6001600160e01b031981165b811461110157600080fd5b8035610aea816136c4565b6000602082840312156136fb576136fb600080fd5b600061230584846136db565b8015155b82525050565b60208101610aea8284613707565b8061370b565b60208101610aea828461371f565b60006001600160a01b038216610aea565b6000610aea82613733565b6000610aea82613744565b61370b8161374f565b60208101610aea828461375a565b6136d081613733565b8035610aea81613771565b806136d0565b8035610aea81613785565b600080604083850312156137ac576137ac600080fd5b60006137b8858561377a565b92505060206137c98582860161378b565b9150509250929050565b6000602082840312156137e8576137e8600080fd5b6000612305848461378b565b6000806040838503121561380a5761380a600080fd5b60006137b8858561378b565b6000806040838503121561382c5761382c600080fd5b6000613838858561378b565b92505060206137c98582860161377a565b61370b81613733565b60208101610aea8284613849565b60006020828403121561387557613875600080fd5b6000612305848461377a565b634e487b7160e01b600052604160045260246000fd5b601f19601f830116810181811067ffffffffffffffff821117156138bd576138bd613881565b6040525050565b60006138cf60405190565b90506138db8282613897565b919050565b600067ffffffffffffffff8211156138fa576138fa613881565b601f19601f83011660200192915050565b82818337506000910152565b600061392a613925846138e0565b6138c4565b90508281526020810184848401111561394557613945600080fd5b61395084828561390b565b509392505050565b600082601f83011261396c5761396c600080fd5b8135612305848260208601613917565b6000806040838503121561399257613992600080fd5b600061399e858561377a565b925050602083013567ffffffffffffffff8111156139be576139be600080fd5b6137c985828601613958565b6000606082840312156139df576139df600080fd5b50919050565b6000602082840312156139fa576139fa600080fd5b813567ffffffffffffffff811115613a1457613a14600080fd5b612305848285016139ca565b60008060408385031215613a3657613a36600080fd5b6000613838858561377a565b600080600060608486031215613a5a57613a5a600080fd5b6000613a66868661378b565b9350506020613a778682870161378b565b9250506040613a888682870161378b565b9150509250925092565b8051610aea81613785565b600060208284031215613ab257613ab2600080fd5b60006123058484613a92565b60128152600060208201714f6e6c79206f6e636520696e20626c6f636b60701b815291505b5060200190565b60208082528101610aea81613abe565b601f81526000602082017f4f6e6c7920617373657420617661696c61626c6520666f722072656465656d0081529150613ae3565b60208082528101610aea81613afa565b6016815260006020820175416d6f756e74206f662053696f6e206973207a65726f60501b81529150613ae3565b60208082528101610aea81613b3e565b601b81526000602082017f4e6f7420656e6f75676820746f6b656e7320746f2072656465656d000000000081529150613ae3565b60208082528101610aea81613b7b565b601781526000602082017f416d6f756e74206f66206173736574206973207a65726f00000000000000000081529150613ae3565b60208082528101610aea81613bbf565b60408101613c118285613849565b611e62602083018461371f565b602481526000602082017f4e6f7420656e6f75676820666f72207472616e736665722072656465656d416d8152631bdd5b9d60e21b602082015291505b5060400190565b60208082528101610aea81613c1e565b8015156136d0565b8051610aea81613c72565b600060208284031215613c9a57613c9a600080fd5b60006123058484613c7a565b600681526000602082016572656465656d60d01b81529150613ae3565b60a08082528101613cd381613ca6565b9050613ce2602083018661371f565b613cef604083018561371f565b613cfc6060830184613849565b818103608083015260008152602081015b95945050505050565b601d81526000602082017f5265737472696374656420746f20506f7274666f6c696f204167656e7400000081529150613ae3565b60208082528101610aea81613d16565b601c81526000602082017f5a65726f2064656e6f6d696e61746f72206e6f7420616c6c6f7765640000000081529150613ae3565b60208082528101610aea81613d5a565b60408101613c11828561371f565b602f81526000602082017f416363657373436f6e74726f6c3a2063616e206f6e6c792072656e6f756e636581526e103937b632b9903337b91039b2b63360891b60208201529150613c5b565b60208082528101610aea81613dac565b602c81526000602082017f46756e6374696f6e206d7573742062652063616c6c6564207468726f7567682081526b19195b1959d85d1958d85b1b60a21b60208201529150613c5b565b60208082528101610aea81613e08565b602c81526000602082017f46756e6374696f6e206d7573742062652063616c6c6564207468726f7567682081526b6163746976652070726f787960a01b60208201529150613c5b565b60208082528101610aea81613e61565b60148152600060208201735265737472696374656420746f2061646d696e7360601b81529150613ae3565b60208082528101610aea81613eba565b601881526000602082017f5a65726f2061646472657373206e6f7420616c6c6f776564000000000000000081529150613ae3565b60208082528101610aea81613ef5565b603881526000602082017f555550535570677261646561626c653a206d757374206e6f742062652063616c81527f6c6564207468726f7567682064656c656761746563616c6c000000000000000060208201529150613c5b565b60208082528101610aea81613f39565b601281526000602082017114995cdd1c9a58dd1959081d1bc8155b9a5d60721b81529150613ae3565b60208082528101610aea81613fa3565b60ff81166136d0565b8051610aea81613fdc565b60006020828403121561400557614005600080fd5b60006123058484613fe5565b634e487b7160e01b600052601160045260246000fd5b81810381811115610aea57610aea614011565b80825b60018511156140795780860481111561405857614058614011565b600185161561406657908102905b80026140728560011c90565b945061403d565b94509492505050565b60008261409157506001611e62565b8161409e57506000611e62565b81600181146140b457600281146140be576140eb565b6001915050611e62565b60ff8411156140cf576140cf614011565b8360020a9150848211156140e5576140e5614011565b50611e62565b5060208310610133831016604e8410600b841016171561411e575081810a8381111561411957614119614011565b611e62565b61412b848484600161403a565b9250905081840481111561414157614141614011565b0292915050565b6000611e626000198484614082565b634e487b7160e01b600052601260045260246000fd5b60008261417c5761417c614157565b500490565b818102808215838204851417610f2057610f20614011565b601081526000602082016f2232b63a309030b13937b0b21d36b4b760811b81529150613ae3565b60208082528101610aea81614199565b601081526000602082016f088cad8e8c240c2c4e4dec2c874dac2f60831b81529150613ae3565b60208082528101610aea816141d0565b60808101614215828761371f565b614222602083018661371f565b61422f604083018561371f565b613d0d606083018461371f565b80820180821115610aea57610aea614011565b602e81526000602082017f496e697469616c697a61626c653a20636f6e747261637420697320616c72656181526d191e481a5b9a5d1a585b1a5e995960921b60208201529150613c5b565b60208082528101610aea8161424f565b600060ff8216610aea565b61370b816142aa565b60208101610aea82846142b5565b6000808335601e19368590030181126142e7576142e7600080fd5b80840192508235915067ffffffffffffffff82111561430857614308600080fd5b60208301925060018202360383131561432357614323600080fd5b509250929050565b604081016143398285613849565b611e626020830184613849565b60208082527f5a65726f205f6e6578745061796f757454696d65206e6f7420616c6c6f77656491019081526000613ae3565b60208082528101610aea81614346565b601e81526000602082017f5a65726f205f7061796f7574506572696f64206e6f7420616c6c6f776564000081529150613ae3565b60208082528101610aea81614388565b603381526000602082017f5f6e6578745061796f757454696d652073686f7564206265206d6f7265207468815272616e205f7061796f757454696d6552616e676560681b60208201529150613c5b565b60208082528101610aea816143cc565b6060810161443a828661371f565b614447602083018561371f565b612305604083018461371f565b601081526000602082016f14185d5cd8589b194e881c185d5cd95960821b81529150613ae3565b60208082528101610aea81614454565b602e81526000602082017f45524331393637557067726164653a206e657720696d706c656d656e7461746981526d6f6e206973206e6f74205555505360901b60208201529150613c5b565b60208082528101610aea8161448b565b602981526000602082017f45524331393637557067726164653a20756e737570706f727465642070726f788152681a58589b195555525160ba1b60208201529150613c5b565b60208082528101610aea816144e6565b601d81526000602082017f4572726f72732e4d4154485f4144444954494f4e5f4f564552464c4f5700000081529150613ae3565b60208082528101610aea8161453c565b602381526000602082017f4572726f72732e4d4154485f4d554c5449504c49434154494f4e5f4f564552468152624c4f5760e81b60208201529150613c5b565b60208082528101610aea81614580565b601c81526000602082017f4572726f72732e4d4154485f4449564953494f4e5f42595f5a45524f0000000081529150613ae3565b60208082528101610aea816145d0565b60005b8381101561462f578181015183820152602001614617565b50506000910152565b6000614642825190565b808452602084019350614659818560208601614614565b601f01601f19169290920192915050565b6060808252810161467b8186614638565b9050614447602083018561371f565b602b81526000602082017f496e697469616c697a61626c653a20636f6e7472616374206973206e6f74206981526a6e697469616c697a696e6760a81b60208201529150613c5b565b60208082528101610aea8161468a565b60208082528101611e628184614638565b601c81526000602082017f4f6e6c7920617373657420617661696c61626c6520666f72206275790000000081529150613ae3565b60208082528101610aea816146f3565b601881526000602082017f4e6f7420656e6f75676820746f6b656e7320746f20627579000000000000000081529150613ae3565b60208082528101610aea81614737565b606081016147898286613849565b6144476020830185613849565b60148152600060208201731c1b4818985b185b98d948084f481d185c99d95d60621b81529150613ae3565b60208082528101610aea81614796565b60048152600060208201631b5a5b9d60e21b81529150613ae3565b60a080825281016147fc816147d1565b905061480b602083018761371f565b614818604083018661371f565b6148256060830185613849565b818103608083015261364c8184614638565b6000614841825190565b61484f818560208601614614565b9290920192915050565b7f416363657373436f6e74726f6c3a206163636f756e74200000000000000000008152601701600061488b8285614837565b7001034b99036b4b9b9b4b733903937b6329607d1b815260110191506123058284614837565b602d81526000602082017f455243313936373a206e657720696d706c656d656e746174696f6e206973206e81526c1bdd08184818dbdb9d1c9858dd609a1b60208201529150613c5b565b60208082528101610aea816148b1565b601481526000602082017314185d5cd8589b194e881b9bdd081c185d5cd95960621b81529150613ae3565b60208082528101610aea8161490b565b634e487b7160e01b600052603260045260246000fd5b60008161496b5761496b614011565b506000190190565b60208082527f537472696e67733a20686578206c656e67746820696e73756666696369656e7491019081526000613ae3565b60208082528101610aea81614973565b6000611e628284614837565b601d81526000602082017f416464726573733a2063616c6c20746f206e6f6e2d636f6e747261637400000081529150613ae3565b60208082528101610aea816149c156feede8101501d89b9894e78e4f219420b6ddb840e8e75dde35741a0745408476d7262f8dca0440d5010bae937fe18daeae459dacb80622baddc3b4f10759ac952ad67ad422505496469a1adf6cdf9e5ee92ac5d33992843c9ecc4b2f6d6cde9137360894a13ba1a3210667c828492db98dca3e2076cc3735a920a3ca505d382bbc416464726573733a206c6f772d6c6576656c2064656c65676174652063616c6c206661696c6564a2646970667358221220e95b18e46caf431e27b5d2bdb44b5765d13b192372a59da079eb4c2153e604d964736f6c63430008110033",
  "linkReferences": {},
  "deployedLinkReferences": {}
}