{
  "_format": "hh-sol-artifact-1",
  "contractName": "StrategyWombexUsdt",
  "sourceName": "contracts/strategies/StrategyWombexUsdt.sol",
  "abi": [
    {
      "inputs": [],
      "stateMutability": "nonpayable",
      "type": "constructor"
    },
    {
      "anonymous": false,
      "inputs": [
        {
          "indexed": false,
          "internalType": "address",
          "name": "previousAdmin",
          "type": "address"
        },
        {
          "indexed": false,
          "internalType": "address",
          "name": "newAdmin",
          "type": "address"
        }
      ],
      "name": "AdminChanged",
      "type": "event"
    },
    {
      "anonymous": false,
      "inputs": [
        {
          "indexed": true,
          "internalType": "address",
          "name": "beacon",
          "type": "address"
        }
      ],
      "name": "BeaconUpgraded",
      "type": "event"
    },
    {
      "anonymous": false,
      "inputs": [
        {
          "indexed": false,
          "internalType": "uint8",
          "name": "version",
          "type": "uint8"
        }
      ],
      "name": "Initialized",
      "type": "event"
    },
    {
      "anonymous": false,
      "inputs": [
        {
          "indexed": false,
          "internalType": "address",
          "name": "value",
          "type": "address"
        }
      ],
      "name": "PortfolioManagerUpdated",
      "type": "event"
    },
    {
      "anonymous": false,
      "inputs": [
        {
          "indexed": false,
          "internalType": "uint256",
          "name": "amount",
          "type": "uint256"
        }
      ],
      "name": "Reward",
      "type": "event"
    },
    {
      "anonymous": false,
      "inputs": [
        {
          "indexed": true,
          "internalType": "bytes32",
          "name": "role",
          "type": "bytes32"
        },
        {
          "indexed": true,
          "internalType": "bytes32",
          "name": "previousAdminRole",
          "type": "bytes32"
        },
        {
          "indexed": true,
          "internalType": "bytes32",
          "name": "newAdminRole",
          "type": "bytes32"
        }
      ],
      "name": "RoleAdminChanged",
      "type": "event"
    },
    {
      "anonymous": false,
      "inputs": [
        {
          "indexed": true,
          "internalType": "bytes32",
          "name": "role",
          "type": "bytes32"
        },
        {
          "indexed": true,
          "internalType": "address",
          "name": "account",
          "type": "address"
        },
        {
          "indexed": true,
          "internalType": "address",
          "name": "sender",
          "type": "address"
        }
      ],
      "name": "RoleGranted",
      "type": "event"
    },
    {
      "anonymous": false,
      "inputs": [
        {
          "indexed": true,
          "internalType": "bytes32",
          "name": "role",
          "type": "bytes32"
        },
        {
          "indexed": true,
          "internalType": "address",
          "name": "account",
          "type": "address"
        },
        {
          "indexed": true,
          "internalType": "address",
          "name": "sender",
          "type": "address"
        }
      ],
      "name": "RoleRevoked",
      "type": "event"
    },
    {
      "anonymous": false,
      "inputs": [
        {
          "indexed": false,
          "internalType": "uint256",
          "name": "swapSlippageBP",
          "type": "uint256"
        },
        {
          "indexed": false,
          "internalType": "uint256",
          "name": "navSlippageBP",
          "type": "uint256"
        },
        {
          "indexed": false,
          "internalType": "uint256",
          "name": "stakeSlippageBP",
          "type": "uint256"
        }
      ],
      "name": "SlippagesUpdated",
      "type": "event"
    },
    {
      "anonymous": false,
      "inputs": [
        {
          "indexed": false,
          "internalType": "uint256",
          "name": "amount",
          "type": "uint256"
        }
      ],
      "name": "Stake",
      "type": "event"
    },
    {
      "anonymous": false,
      "inputs": [],
      "name": "StrategyUpdatedParams",
      "type": "event"
    },
    {
      "anonymous": false,
      "inputs": [
        {
          "indexed": false,
          "internalType": "uint256",
          "name": "amount",
          "type": "uint256"
        },
        {
          "indexed": false,
          "internalType": "uint256",
          "name": "amountReceived",
          "type": "uint256"
        }
      ],
      "name": "Unstake",
      "type": "event"
    },
    {
      "anonymous": false,
      "inputs": [
        {
          "indexed": true,
          "internalType": "address",
          "name": "implementation",
          "type": "address"
        }
      ],
      "name": "Upgraded",
      "type": "event"
    },
    {
      "inputs": [],
      "name": "DEFAULT_ADMIN_ROLE",
      "outputs": [
        {
          "internalType": "bytes32",
          "name": "",
          "type": "bytes32"
        }
      ],
      "stateMutability": "view",
      "type": "function"
    },
    {
      "inputs": [],
      "name": "PORTFOLIO_AGENT_ROLE",
      "outputs": [
        {
          "internalType": "bytes32",
          "name": "",
          "type": "bytes32"
        }
      ],
      "stateMutability": "view",
      "type": "function"
    },
    {
      "inputs": [],
      "name": "PORTFOLIO_MANAGER",
      "outputs": [
        {
          "internalType": "bytes32",
          "name": "",
          "type": "bytes32"
        }
      ],
      "stateMutability": "view",
      "type": "function"
    },
    {
      "inputs": [],
      "name": "busd",
      "outputs": [
        {
          "internalType": "contract IERC20",
          "name": "",
          "type": "address"
        }
      ],
      "stateMutability": "view",
      "type": "function"
    },
    {
      "inputs": [
        {
          "internalType": "address",
          "name": "_to",
          "type": "address"
        }
      ],
      "name": "claimRewards",
      "outputs": [
        {
          "internalType": "uint256",
          "name": "",
          "type": "uint256"
        }
      ],
      "stateMutability": "nonpayable",
      "type": "function"
    },
    {
      "inputs": [
        {
          "internalType": "bytes32",
          "name": "role",
          "type": "bytes32"
        }
      ],
      "name": "getRoleAdmin",
      "outputs": [
        {
          "internalType": "bytes32",
          "name": "",
          "type": "bytes32"
        }
      ],
      "stateMutability": "view",
      "type": "function"
    },
    {
      "inputs": [
        {
          "internalType": "bytes32",
          "name": "role",
          "type": "bytes32"
        },
        {
          "internalType": "address",
          "name": "account",
          "type": "address"
        }
      ],
      "name": "grantRole",
      "outputs": [],
      "stateMutability": "nonpayable",
      "type": "function"
    },
    {
      "inputs": [
        {
          "internalType": "bytes32",
          "name": "role",
          "type": "bytes32"
        },
        {
          "internalType": "address",
          "name": "account",
          "type": "address"
        }
      ],
      "name": "hasRole",
      "outputs": [
        {
          "internalType": "bool",
          "name": "",
          "type": "bool"
        }
      ],
      "stateMutability": "view",
      "type": "function"
    },
    {
      "inputs": [],
      "name": "initialize",
      "outputs": [],
      "stateMutability": "nonpayable",
      "type": "function"
    },
    {
      "inputs": [],
      "name": "liquidationValue",
      "outputs": [
        {
          "internalType": "uint256",
          "name": "",
          "type": "uint256"
        }
      ],
      "stateMutability": "view",
      "type": "function"
    },
    {
      "inputs": [],
      "name": "lpUsdt",
      "outputs": [
        {
          "internalType": "contract IWombatAsset",
          "name": "",
          "type": "address"
        }
      ],
      "stateMutability": "view",
      "type": "function"
    },
    {
      "inputs": [],
      "name": "lpUsdtDm",
      "outputs": [
        {
          "internalType": "uint256",
          "name": "",
          "type": "uint256"
        }
      ],
      "stateMutability": "view",
      "type": "function"
    },
    {
      "inputs": [],
      "name": "name",
      "outputs": [
        {
          "internalType": "string",
          "name": "",
          "type": "string"
        }
      ],
      "stateMutability": "view",
      "type": "function"
    },
    {
      "inputs": [],
      "name": "navSlippageBP",
      "outputs": [
        {
          "internalType": "uint256",
          "name": "",
          "type": "uint256"
        }
      ],
      "stateMutability": "view",
      "type": "function"
    },
    {
      "inputs": [],
      "name": "netAssetValue",
      "outputs": [
        {
          "internalType": "uint256",
          "name": "",
          "type": "uint256"
        }
      ],
      "stateMutability": "view",
      "type": "function"
    },
    {
      "inputs": [],
      "name": "oracleBusd",
      "outputs": [
        {
          "internalType": "contract IPriceFeed",
          "name": "",
          "type": "address"
        }
      ],
      "stateMutability": "view",
      "type": "function"
    },
    {
      "inputs": [],
      "name": "oracleUsdt",
      "outputs": [
        {
          "internalType": "contract IPriceFeed",
          "name": "",
          "type": "address"
        }
      ],
      "stateMutability": "view",
      "type": "function"
    },
    {
      "inputs": [],
      "name": "pancakeRouter",
      "outputs": [
        {
          "internalType": "contract IPancakeRouter02",
          "name": "",
          "type": "address"
        }
      ],
      "stateMutability": "view",
      "type": "function"
    },
    {
      "inputs": [],
      "name": "pool",
      "outputs": [
        {
          "internalType": "address",
          "name": "",
          "type": "address"
        }
      ],
      "stateMutability": "view",
      "type": "function"
    },
    {
      "inputs": [],
      "name": "poolDepositor",
      "outputs": [
        {
          "internalType": "contract IWombexPoolDepositor",
          "name": "",
          "type": "address"
        }
      ],
      "stateMutability": "view",
      "type": "function"
    },
    {
      "inputs": [],
      "name": "portfolioManager",
      "outputs": [
        {
          "internalType": "address",
          "name": "",
          "type": "address"
        }
      ],
      "stateMutability": "view",
      "type": "function"
    },
    {
      "inputs": [],
      "name": "proxiableUUID",
      "outputs": [
        {
          "internalType": "bytes32",
          "name": "",
          "type": "bytes32"
        }
      ],
      "stateMutability": "view",
      "type": "function"
    },
    {
      "inputs": [
        {
          "internalType": "bytes32",
          "name": "role",
          "type": "bytes32"
        },
        {
          "internalType": "address",
          "name": "account",
          "type": "address"
        }
      ],
      "name": "renounceRole",
      "outputs": [],
      "stateMutability": "nonpayable",
      "type": "function"
    },
    {
      "inputs": [
        {
          "internalType": "bytes32",
          "name": "role",
          "type": "bytes32"
        },
        {
          "internalType": "address",
          "name": "account",
          "type": "address"
        }
      ],
      "name": "revokeRole",
      "outputs": [],
      "stateMutability": "nonpayable",
      "type": "function"
    },
    {
      "inputs": [
        {
          "components": [
            {
              "internalType": "address",
              "name": "usdt",
              "type": "address"
            },
            {
              "internalType": "address",
              "name": "busd",
              "type": "address"
            },
            {
              "internalType": "address",
              "name": "wom",
              "type": "address"
            },
            {
              "internalType": "address",
              "name": "wmx",
              "type": "address"
            },
            {
              "internalType": "address",
              "name": "lpUsdt",
              "type": "address"
            },
            {
              "internalType": "address",
              "name": "wmxLpUsdt",
              "type": "address"
            },
            {
              "internalType": "address",
              "name": "poolDepositor",
              "type": "address"
            },
            {
              "internalType": "address",
              "name": "pool",
              "type": "address"
            },
            {
              "internalType": "address",
              "name": "pancakeRouter",
              "type": "address"
            },
            {
              "internalType": "address",
              "name": "wombatRouter",
              "type": "address"
            },
            {
              "internalType": "address",
              "name": "oracleUsdt",
              "type": "address"
            },
            {
              "internalType": "string",
              "name": "name",
              "type": "string"
            }
          ],
          "internalType": "struct StrategyWombexUsdt.StrategyParams",
          "name": "params",
          "type": "tuple"
        }
      ],
      "name": "setParams",
      "outputs": [],
      "stateMutability": "nonpayable",
      "type": "function"
    },
    {
      "inputs": [
        {
          "internalType": "address",
          "name": "_value",
          "type": "address"
        }
      ],
      "name": "setPortfolioManager",
      "outputs": [],
      "stateMutability": "nonpayable",
      "type": "function"
    },
    {
      "inputs": [
        {
          "internalType": "uint256",
          "name": "_swapSlippageBP",
          "type": "uint256"
        },
        {
          "internalType": "uint256",
          "name": "_navSlippageBP",
          "type": "uint256"
        },
        {
          "internalType": "uint256",
          "name": "_stakeSlippageBP",
          "type": "uint256"
        }
      ],
      "name": "setSlippages",
      "outputs": [],
      "stateMutability": "nonpayable",
      "type": "function"
    },
    {
      "inputs": [
        {
          "internalType": "address",
          "name": "_asset",
          "type": "address"
        },
        {
          "internalType": "uint256",
          "name": "_amount",
          "type": "uint256"
        }
      ],
      "name": "stake",
      "outputs": [],
      "stateMutability": "nonpayable",
      "type": "function"
    },
    {
      "inputs": [],
      "name": "stakeSlippageBP",
      "outputs": [
        {
          "internalType": "uint256",
          "name": "",
          "type": "uint256"
        }
      ],
      "stateMutability": "view",
      "type": "function"
    },
    {
      "inputs": [
        {
          "internalType": "bytes4",
          "name": "interfaceId",
          "type": "bytes4"
        }
      ],
      "name": "supportsInterface",
      "outputs": [
        {
          "internalType": "bool",
          "name": "",
          "type": "bool"
        }
      ],
      "stateMutability": "view",
      "type": "function"
    },
    {
      "inputs": [],
      "name": "swapSlippageBP",
      "outputs": [
        {
          "internalType": "uint256",
          "name": "",
          "type": "uint256"
        }
      ],
      "stateMutability": "view",
      "type": "function"
    },
    {
      "inputs": [
        {
          "internalType": "address",
          "name": "_asset",
          "type": "address"
        },
        {
          "internalType": "uint256",
          "name": "_amount",
          "type": "uint256"
        },
        {
          "internalType": "address",
          "name": "_beneficiary",
          "type": "address"
        },
        {
          "internalType": "bool",
          "name": "_targetIsZero",
          "type": "bool"
        }
      ],
      "name": "unstake",
      "outputs": [
        {
          "internalType": "uint256",
          "name": "",
          "type": "uint256"
        }
      ],
      "stateMutability": "nonpayable",
      "type": "function"
    },
    {
      "inputs": [
        {
          "internalType": "address",
          "name": "newImplementation",
          "type": "address"
        }
      ],
      "name": "upgradeTo",
      "outputs": [],
      "stateMutability": "nonpayable",
      "type": "function"
    },
    {
      "inputs": [
        {
          "internalType": "address",
          "name": "newImplementation",
          "type": "address"
        },
        {
          "internalType": "bytes",
          "name": "data",
          "type": "bytes"
        }
      ],
      "name": "upgradeToAndCall",
      "outputs": [],
      "stateMutability": "payable",
      "type": "function"
    },
    {
      "inputs": [],
      "name": "usdt",
      "outputs": [
        {
          "internalType": "contract IERC20",
          "name": "",
          "type": "address"
        }
      ],
      "stateMutability": "view",
      "type": "function"
    },
    {
      "inputs": [],
      "name": "usdtDm",
      "outputs": [
        {
          "internalType": "uint256",
          "name": "",
          "type": "uint256"
        }
      ],
      "stateMutability": "view",
      "type": "function"
    },
    {
      "inputs": [],
      "name": "wmx",
      "outputs": [
        {
          "internalType": "contract IERC20",
          "name": "",
          "type": "address"
        }
      ],
      "stateMutability": "view",
      "type": "function"
    },
    {
      "inputs": [],
      "name": "wmxLpUsdt",
      "outputs": [
        {
          "internalType": "contract IWombexBaseRewardPool",
          "name": "",
          "type": "address"
        }
      ],
      "stateMutability": "view",
      "type": "function"
    },
    {
      "inputs": [],
      "name": "wom",
      "outputs": [
        {
          "internalType": "contract IERC20",
          "name": "",
          "type": "address"
        }
      ],
      "stateMutability": "view",
      "type": "function"
    },
    {
      "inputs": [],
      "name": "wombatRouter",
      "outputs": [
        {
          "internalType": "contract IWombatRouter",
          "name": "",
          "type": "address"
        }
      ],
      "stateMutability": "view",
      "type": "function"
    }
  ],
  "bytecode": "0x60a0604052306080523480156200001557600080fd5b50600054610100900460ff1615808015620000375750600054600160ff909116105b8062000067575062000054306200010860201b620013d21760201c565b15801562000067575060005460ff166001145b6200008f5760405162461bcd60e51b8152600401620000869062000117565b60405180910390fd5b6000805460ff191660011790558015620000b3576000805461ff0019166101001790555b801562000101576000805461ff00191690556040517f7f26b83ff96e1f2b6a682f133852f6798a09c465da95921460cefb384740249890620000f8906001906200018d565b60405180910390a15b506200019d565b6001600160a01b03163b151590565b602080825281016200016a81602e81527f496e697469616c697a61626c653a20636f6e747261637420697320616c72656160208201526d191e481a5b9a5d1a585b1a5e995960921b604082015260600190565b92915050565b600060ff82166200016a565b620001878162000170565b82525050565b602081016200016a82846200017c565b608051613cc1620001d560003960008181610872015281816108b201528181610951015281816109910152610a200152613cc16000f3fe60806040526004361061023b5760003560e01c80637d5f58021161012e578063bd25c6db116100ab578063ce8383361161006f578063ce83833614610689578063d192610b146106aa578063d547741f146106ca578063ef5cfb8c146106ea578063f6f6b8811461070a57600080fd5b8063bd25c6db146105ef578063bf52e08014610610578063c21ebd0714610626578063c5a6222e14610647578063cc6522c31461066857600080fd5b8063a440b21a116100f2578063a440b21a1461054d578063a66b57131461056d578063adc9772e1461058e578063ae30c110146105ae578063b57075a5146105ce57600080fd5b80637d5f5802146104e15780638129fc1c1461050357806391d1485414610518578063a217fddf14610538578063a3673b381461035e57600080fd5b806334df87e7116101bc57806352d1902d1161018057806352d1902d146104415780635ca558f8146104565780635dbd733a1461046c578063612c87df146104a0578063620b75df146104c157600080fd5b806334df87e7146103b657806336568abe146103cd5780633659cfe6146103ed5780633ca5b2341461040d5780634f1ef2861461042e57600080fd5b806316f0115b1161020357806316f0115b14610300578063248a9ca31461032e5780632576e65a1461035e5780632f2ff15d146103735780632f48ab7d1461039557600080fd5b806301ffc9a71461024057806306fdde0314610276578063083975d4146102985780630f9033f7146102c6578063119cd879146102ea575b600080fd5b34801561024c57600080fd5b5061026061025b366004612a69565b61072a565b60405161026d9190612a94565b60405180910390f35b34801561028257600080fd5b5061028b610761565b60405161026d9190612af8565b3480156102a457600080fd5b5061012f546102b9906001600160a01b031681565b60405161026d9190612b4b565b3480156102d257600080fd5b506102dd6101385481565b60405161026d9190612b5f565b3480156102f657600080fd5b506102dd60fd5481565b34801561030c57600080fd5b5061013354610321906001600160a01b031681565b60405161026d9190612b87565b34801561033a57600080fd5b506102dd610349366004612ba6565b60009081526065602052604090206001015490565b34801561036a57600080fd5b506102dd6107f0565b34801561037f57600080fd5b5061039361038e366004612bdb565b6107ff565b005b3480156103a157600080fd5b5061012d546102b9906001600160a01b031681565b3480156103c257600080fd5b506102dd6101395481565b3480156103d957600080fd5b506103936103e8366004612bdb565b610829565b3480156103f957600080fd5b50610393610408366004612c18565b610868565b34801561041957600080fd5b5061013a546102b9906001600160a01b031681565b61039361043c366004612d2f565b610947565b34801561044d57600080fd5b506102dd610a13565b34801561046257600080fd5b506102dd60fe5481565b34801561047857600080fd5b506102dd7fd67ad422505496469a1adf6cdf9e5ee92ac5d33992843c9ecc4b2f6d6cde913781565b3480156104ac57600080fd5b50610135546102b9906001600160a01b031681565b3480156104cd57600080fd5b5060fb54610321906001600160a01b031681565b3480156104ed57600080fd5b506102dd600080516020613c2583398151915281565b34801561050f57600080fd5b50610393610a70565b34801561052457600080fd5b50610260610533366004612bdb565b610b3e565b34801561054457600080fd5b506102dd600081565b34801561055957600080fd5b50610393610568366004612c18565b610b69565b34801561057957600080fd5b50610136546102b9906001600160a01b031681565b34801561059a57600080fd5b506103936105a9366004612d7d565b610c3e565b3480156105ba57600080fd5b506103936105c9366004612db0565b610d95565b3480156105da57600080fd5b50610131546102b9906001600160a01b031681565b3480156105fb57600080fd5b50610132546102b9906001600160a01b031681565b34801561061c57600080fd5b506102dd60fc5481565b34801561063257600080fd5b50610134546102b9906001600160a01b031681565b34801561065357600080fd5b5061012e546102b9906001600160a01b031681565b34801561067457600080fd5b50610137546102b9906001600160a01b031681565b34801561069557600080fd5b50610130546102b9906001600160a01b031681565b3480156106b657600080fd5b506103936106c5366004612e16565b610eb7565b3480156106d657600080fd5b506103936106e5366004612bdb565b611161565b3480156106f657600080fd5b506102dd610705366004612c18565b611186565b34801561071657600080fd5b506102dd610725366004612e64565b61120f565b60006001600160e01b03198216637965db0b60e01b148061075b57506301ffc9a760e01b6001600160e01b03198316145b92915050565b61013b805461076f90612ede565b80601f016020809104026020016040519081016040528092919081815260200182805461079b90612ede565b80156107e85780601f106107bd576101008083540402835291602001916107e8565b820191906000526020600020905b8154815290600101906020018083116107cb57829003601f168201915b505050505081565b60006107fa6113e1565b905090565b60008281526065602052604090206001015461081a8161156b565b6108248383611575565b505050565b6001600160a01b038116331461085a5760405162461bcd60e51b815260040161085190612f53565b60405180910390fd5b61086482826115fb565b5050565b6001600160a01b037f00000000000000000000000000000000000000000000000000000000000000001630036108b05760405162461bcd60e51b815260040161085190612fac565b7f00000000000000000000000000000000000000000000000000000000000000006001600160a01b03166108f9600080516020613c45833981519152546001600160a01b031690565b6001600160a01b03161461091f5760405162461bcd60e51b815260040161085190613005565b61092881611662565b604080516000808252602082019092526109449183919061166d565b50565b6001600160a01b037f000000000000000000000000000000000000000000000000000000000000000016300361098f5760405162461bcd60e51b815260040161085190612fac565b7f00000000000000000000000000000000000000000000000000000000000000006001600160a01b03166109d8600080516020613c45833981519152546001600160a01b031690565b6001600160a01b0316146109fe5760405162461bcd60e51b815260040161085190613005565b610a0782611662565b6108648282600161166d565b6000306001600160a01b037f00000000000000000000000000000000000000000000000000000000000000001614610a5d5760405162461bcd60e51b81526004016108519061306f565b50600080516020613c4583398151915290565b600054610100900460ff1615808015610a905750600054600160ff909116105b80610aaa5750303b158015610aaa575060005460ff166001145b610ac65760405162461bcd60e51b8152600401610851906130ca565b6000805460ff191660011790558015610ae9576000805461ff0019166101001790555b610af161174f565b8015610944576000805461ff00191690556040517f7f26b83ff96e1f2b6a682f133852f6798a09c465da95921460cefb384740249890610b33906001906130ee565b60405180910390a150565b60009182526065602090815260408084206001600160a01b0393909316845291905290205460ff1690565b610b74600033610b3e565b610b905760405162461bcd60e51b81526004016108519061312a565b6001600160a01b038116610bb65760405162461bcd60e51b81526004016108519061316e565b60fb54610bdb90600080516020613c25833981519152906001600160a01b0316611161565b610bf3600080516020613c25833981519152826107ff565b60fb80546001600160a01b0319166001600160a01b0383161790556040517ff7b449fcd5cfb7379dcd34cb69428dd9f882033b15be33d83b42d91daa28eeb790610b33908390612b87565b610c56600080516020613c2583398151915233610b3e565b610c725760405162461bcd60e51b8152600401610851906131b2565b6000610ce1306001600160a01b031663a3673b386040518163ffffffff1660e01b8152600401602060405180830381865afa158015610cb5573d6000803e3d6000fd5b505050506040513d601f19601f82011682018060405250810190610cd991906131cd565b60fd54611834565b9050610d5983846001600160a01b03166370a08231306040518263ffffffff1660e01b8152600401610d139190612b87565b602060405180830381865afa158015610d30573d6000803e3d6000fd5b505050506040513d601f19601f82011682018060405250810190610d5491906131cd565b61185e565b7f227a473b70d2f893cc7659219575c030a63b5743024fe1e0c1a680e708b1525a82604051610d889190612b5f565b60405180910390a1505050565b610dbf7fd67ad422505496469a1adf6cdf9e5ee92ac5d33992843c9ecc4b2f6d6cde913733610b3e565b80610e58575060fb54604051632474521560e21b81526001600160a01b03909116906391d1485490610e17907fd67ad422505496469a1adf6cdf9e5ee92ac5d33992843c9ecc4b2f6d6cde91379033906004016131ee565b602060405180830381865afa158015610e34573d6000803e3d6000fd5b505050506040513d601f19601f82011682018060405250810190610e589190613214565b610e745760405162461bcd60e51b815260040161085190613274565b60fc83905560fd82905560fe8190556040517f116fbf1e97a2be629ad98abfb6c332733c8996c2dfb174dd2efe8440df381d1a90610d8890859085908590613284565b610ec2600033610b3e565b610ede5760405162461bcd60e51b81526004016108519061312a565b610eeb6020820182612c18565b61012d80546001600160a01b0319166001600160a01b0392909216919091179055610f1c6040820160208301612c18565b61013a80546001600160a01b0319166001600160a01b0392909216919091179055610f4d6060820160408301612c18565b61012e80546001600160a01b0319166001600160a01b0392909216919091179055610f7e6080820160608301612c18565b61012f80546001600160a01b0319166001600160a01b0392909216919091179055610faf60a0820160808301612c18565b61013080546001600160a01b0319166001600160a01b0392909216919091179055610fe060c0820160a08301612c18565b61013180546001600160a01b0319166001600160a01b039290921691909117905561101160e0820160c08301612c18565b61013280546001600160a01b0319166001600160a01b0392909216919091179055611043610100820160e08301612c18565b61013380546001600160a01b0319166001600160a01b039290921691909117905561107661012082016101008301612c18565b61013480546001600160a01b0319166001600160a01b03929092169190911790556110a760a0820160808301612c18565b6001600160a01b031663313ce5676040518163ffffffff1660e01b8152600401602060405180830381865afa1580156110e4573d6000803e3d6000fd5b505050506040513d601f19601f8201168201806040525081019061110891906132c0565b61111390600a613405565b6101395561112561016082018261341a565b61013b91611134919083613516565b506040517fea5646eb3528e525944447a4a97de700dd472298626e5c0481d1c82c3da86ea590600090a150565b60008281526065602052604090206001015461117c8161156b565b61082483836115fb565b60006111a0600080516020613c2583398151915233610b3e565b6111bc5760405162461bcd60e51b8152600401610851906131b2565b60006111c783611ac1565b90508015611207577f3ac0594a85a20354f9dc74f33728416d19ce00d04a406c108cc2dcf2cecea134816040516111fe9190612b5f565b60405180910390a15b90505b919050565b6000611229600080516020613c2583398151915233610b3e565b6112455760405162461bcd60e51b8152600401610851906131b2565b6000611288306001600160a01b031663a3673b386040518163ffffffff1660e01b8152600401602060405180830381865afa158015610cb5573d6000803e3d6000fd5b905060008084156112af5761129c86611ac1565b90506112a88887611e47565b91506112dc565b6112ba888888612164565b9150868210156112dc5760405162461bcd60e51b815260040161085190613620565b60405163a9059cbb60e01b81526001600160a01b0389169063a9059cbb9061130a9089908690600401613630565b6020604051808303816000875af1158015611329573d6000803e3d6000fd5b505050506040513d601f19601f8201168201806040525081019061134d9190613214565b507f9045c2ac9b2026de8075f2701bbdde882cd5e830b3b1ead9a15b22f2b5b93742878360405161137f92919061364b565b60405180910390a180156113c5577f3ac0594a85a20354f9dc74f33728416d19ce00d04a406c108cc2dcf2cecea134816040516113bc9190612b5f565b60405180910390a15b509150505b949350505050565b6001600160a01b03163b151590565b61012d546040516370a0823160e01b815260009182916001600160a01b03909116906370a0823190611417903090600401612b87565b602060405180830381865afa158015611434573d6000803e3d6000fd5b505050506040513d601f19601f8201168201806040525081019061145891906131cd565b610131546040516370a0823160e01b81529192506000916001600160a01b03909116906370a082319061148f903090600401612b87565b602060405180830381865afa1580156114ac573d6000803e3d6000fd5b505050506040513d601f19601f820116820180604052508101906114d091906131cd565b9050801561156557610132546101305460405163135dbd1360e01b81526000926001600160a01b039081169263135dbd139261151492909116908690600401613630565b6040805180830381865afa158015611530573d6000803e3d6000fd5b505050506040513d601f19601f820116820180604052508101906115549190613659565b509050611561818461368c565b9250505b50919050565b61094481336122f8565b61157f8282610b3e565b6108645760008281526065602090815260408083206001600160a01b03851684529091529020805460ff191660011790556115b73390565b6001600160a01b0316816001600160a01b0316837f2f8788117e7eff1d82e926ec794901d17c78024a50270940304540a733656f0d60405160405180910390a45050565b6116058282610b3e565b156108645760008281526065602090815260408083206001600160a01b0385168085529252808320805460ff1916905551339285917ff6391f5c32d9c69d2a47ea670b442974b53935d1edc7fd64eb21e047a839171b9190a45050565b60006108648161156b565b7f4910fdfa16fed3260ed0e7147f7cc6da11a60208b5b9406d12a635614ffd91435460ff16156116a05761082483612351565b826001600160a01b03166352d1902d6040518163ffffffff1660e01b8152600401602060405180830381865afa9250505080156116fa575060408051601f3d908101601f191682019092526116f7918101906131cd565b60015b6117165760405162461bcd60e51b8152600401610851906136ea565b600080516020613c4583398151915281146117435760405162461bcd60e51b815260040161085190613740565b506108248383836123a7565b600054610100900460ff161580801561176f5750600054600160ff909116105b806117895750303b158015611789575060005460ff166001145b6117a55760405162461bcd60e51b8152600401610851906130ca565b6000805460ff1916600117905580156117c8576000805461ff0019166101001790555b6117d06123d2565b6117d86123d2565b6117e3600033611575565b601960fc55602360fd55600460fe558015610944576000805461ff00191690556040517f7f26b83ff96e1f2b6a682f133852f6798a09c465da95921460cefb384740249890610b33906001906130ee565b60006127106118438382613750565b61184d9085613763565b6118579190613798565b9392505050565b61012d546001600160a01b0383811691161461188c5760405162461bcd60e51b8152600401610851906137e0565b61012d546040516370a0823160e01b81526000916001600160a01b0316906370a08231906118be903090600401612b87565b602060405180830381865afa1580156118db573d6000803e3d6000fd5b505050506040513d601f19601f820116820180604052508101906118ff91906131cd565b6101325461013054604051630650739d60e41b81529293506000926001600160a01b039283169263650739d09261193d929116908690600401613630565b6040805180830381865afa158015611959573d6000803e3d6000fd5b505050506040513d601f19601f8201168201806040525081019061197d9190613659565b509050600061198e8260fe54611834565b90506119cf6040518060400160405280601d81526020017f7374616b696e6720776f6d626578205553445420616d6f756e74202573000000815250856123fb565b61012d546101325460405163095ea7b360e01b81526001600160a01b039283169263095ea7b392611a07929116908790600401613630565b6020604051808303816000875af1158015611a26573d6000803e3d6000fd5b505050506040513d601f19601f82011682018060405250810190611a4a9190613214565b506101325461013054604051633f90794960e21b81526001600160a01b039283169263fe41e52492611a8892911690879086906001906004016137f0565b600060405180830381600087803b158015611aa257600080fd5b505af1158015611ab6573d6000803e3d6000fd5b505050505050505050565b610131546040516370a0823160e01b815260009182916001600160a01b03909116906370a0823190611af7903090600401612b87565b602060405180830381865afa158015611b14573d6000803e3d6000fd5b505050506040513d601f19601f82011682018060405250810190611b3891906131cd565b90508015611bb95761013154604051637050ccd960e01b81526001600160a01b0390911690637050ccd990611b74903090600090600401613825565b6020604051808303816000875af1158015611b93573d6000803e3d6000fd5b505050506040513d601f19601f82011682018060405250810190611bb79190613214565b505b61012e546040516370a0823160e01b815260009182916001600160a01b03909116906370a0823190611bef903090600401612b87565b602060405180830381865afa158015611c0c573d6000803e3d6000fd5b505050506040513d601f19601f82011682018060405250810190611c3091906131cd565b90508015611cc6576101345461012e5461013a5461012d54600093611c6a936001600160a01b039182169390821692908216911686612440565b90508015611cc4576101345461012e5461013a5461012d54611cb7936001600160a01b039081169381169281169116866064611ca7886063613763565b611cb19190613798565b30612591565b611cc1908461368c565b92505b505b61012f546040516370a0823160e01b81526000916001600160a01b0316906370a0823190611cf8903090600401612b87565b602060405180830381865afa158015611d15573d6000803e3d6000fd5b505050506040513d601f19601f82011682018060405250810190611d3991906131cd565b90508015611dbf576101345461012f5461013a5461012d54600093611d73936001600160a01b039182169390821692908216911686612440565b90508015611dbd576101345461012f5461013a5461012d54611db0936001600160a01b039081169381169281169116866064611ca7886063613763565b611dba908561368c565b93505b505b8215611e3d5761012d5460405163a9059cbb60e01b81526001600160a01b039091169063a9059cbb90611df89089908790600401613630565b6020604051808303816000875af1158015611e17573d6000803e3d6000fd5b505050506040513d601f19601f82011682018060405250810190611e3b9190613214565b505b5090949350505050565b61012d546000906001600160a01b03848116911614611e785760405162461bcd60e51b8152600401610851906137e0565b610131546040516370a0823160e01b81526000916001600160a01b0316906370a0823190611eaa903090600401612b87565b602060405180830381865afa158015611ec7573d6000803e3d6000fd5b505050506040513d601f19601f82011682018060405250810190611eeb91906131cd565b905080600003611f6f5761012d546040516370a0823160e01b81526001600160a01b03909116906370a0823190611f26903090600401612b87565b602060405180830381865afa158015611f43573d6000803e3d6000fd5b505050506040513d601f19601f82011682018060405250810190611f6791906131cd565b91505061075b565b610132546101305460405163135dbd1360e01b81526000926001600160a01b039081169263135dbd1392611fab92909116908690600401613630565b6040805180830381865afa158015611fc7573d6000803e3d6000fd5b505050506040513d601f19601f82011682018060405250810190611feb9190613659565b5090506000611ffc8260fe54611834565b610131546101325460405163095ea7b360e01b81529293506001600160a01b039182169263095ea7b3926120369216908790600401613630565b6020604051808303816000875af1158015612055573d6000803e3d6000fd5b505050506040513d601f19601f820116820180604052508101906120799190613214565b5061013254610130546040516316762eed60e01b81526001600160a01b03928316926316762eed926120b692911690879086903090600401613840565b600060405180830381600087803b1580156120d057600080fd5b505af11580156120e4573d6000803e3d6000fd5b505061012d546040516370a0823160e01b81526001600160a01b0390911692506370a082319150612119903090600401612b87565b602060405180830381865afa158015612136573d6000803e3d6000fd5b505050506040513d601f19601f8201168201806040525081019061215a91906131cd565b9695505050505050565b61012d546000906001600160a01b038581169116146121955760405162461bcd60e51b8152600401610851906137e0565b61013254610130546101395460405163135dbd1360e01b81526000936001600160a01b039081169363135dbd13936121d4939290911691600401613630565b6040805180830381865afa1580156121f0573d6000803e3d6000fd5b505050506040513d601f19601f820116820180604052508101906122149190613659565b5090506000816101395461222a8760fe5461275d565b6122349190613763565b61223e9190613798565b610131546101325460405163095ea7b360e01b81529293506001600160a01b039182169263095ea7b3926122789216908590600401613630565b6020604051808303816000875af1158015612297573d6000803e3d6000fd5b505050506040513d601f19601f820116820180604052508101906122bb9190613214565b5061013254610130546040516316762eed60e01b81526001600160a01b03928316926316762eed926120b69291169085908a903090600401613840565b6123028282610b3e565b6108645761230f8161276c565b61231a83602061277e565b60405160200161232b929190613897565b60408051601f198184030181529082905262461bcd60e51b825261085191600401612af8565b6001600160a01b0381163b6123785760405162461bcd60e51b815260040161085190613939565b600080516020613c4583398151915280546001600160a01b0319166001600160a01b0392909216919091179055565b6123b0836128ea565b6000825111806123bd5750805b15610824576123cc838361292a565b50505050565b600054610100900460ff166123f95760405162461bcd60e51b815260040161085190613991565b565b61086482826040516024016124119291906139a1565b60408051601f198184030181529190526020810180516001600160e01b0316632d839cb360e21b17905261294f565b6040805160038082526080820190925260009182919060208201606080368337019050509050858160008151811061247a5761247a6139c1565b60200260200101906001600160a01b031690816001600160a01b03168152505084816001815181106124ae576124ae6139c1565b60200260200101906001600160a01b031690816001600160a01b03168152505083816002815181106124e2576124e26139c1565b6001600160a01b03928316602091820292909201015260405163d06ca61f60e01b815260009189169063d06ca61f906125219087908690600401613a34565b600060405180830381865afa15801561253e573d6000803e3d6000fd5b505050506040513d6000823e601f3d908101601f191682016040526125669190810190613af7565b90508060028151811061257b5761257b6139c1565b6020026020010151925050505b95945050505050565b60405163095ea7b360e01b81526000906001600160a01b0388169063095ea7b3906125c2908b908890600401613630565b6020604051808303816000875af11580156125e1573d6000803e3d6000fd5b505050506040513d601f19601f820116820180604052508101906126059190613214565b506040805160038082526080820190925260009160208201606080368337019050509050878160008151811061263d5761263d6139c1565b60200260200101906001600160a01b031690816001600160a01b0316815250508681600181518110612671576126716139c1565b60200260200101906001600160a01b031690816001600160a01b03168152505085816002815181106126a5576126a56139c1565b6001600160a01b0392831660209182029290920101526040516338ed173960e01b81526000918b16906338ed1739906126ea908990899087908a904290600401613b32565b6000604051808303816000875af1158015612709573d6000803e3d6000fd5b505050506040513d6000823e601f3d908101601f191682016040526127319190810190613af7565b905080600281518110612746576127466139c1565b602002602001015192505050979650505050505050565b6000612710611843838261368c565b606061075b6001600160a01b03831660145b6060600061278d836002613763565b61279890600261368c565b67ffffffffffffffff8111156127b0576127b0612c39565b6040519080825280601f01601f1916602001820160405280156127da576020820181803683370190505b509050600360fc1b816000815181106127f5576127f56139c1565b60200101906001600160f81b031916908160001a905350600f60fb1b81600181518110612824576128246139c1565b60200101906001600160f81b031916908160001a9053506000612848846002613763565b61285390600161368c565b90505b60018111156128cb576f181899199a1a9b1b9c1cb0b131b232b360811b85600f1660108110612887576128876139c1565b1a60f81b82828151811061289d5761289d6139c1565b60200101906001600160f81b031916908160001a90535060049490941c936128c481613b7b565b9050612856565b5083156118575760405162461bcd60e51b815260040161085190613bc4565b6128f381612351565b6040516001600160a01b038216907fbc7cd75a20ee27fd9adebab32041f755214dbc6bffa90cc0225b39da2e5c2d3b90600090a250565b60606118578383604051806060016040528060278152602001613c6560279139612970565b80516a636f6e736f6c652e6c6f67602083016000808483855afa5050505050565b6060600080856001600160a01b03168560405161298d9190613bd4565b600060405180830381855af49150503d80600081146129c8576040519150601f19603f3d011682016040523d82523d6000602084013e6129cd565b606091505b509150915061215a8683838760608315612a18578251600003612a11576001600160a01b0385163b612a115760405162461bcd60e51b815260040161085190613c14565b50816113ca565b6113ca8383815115612a2d5781518083602001fd5b8060405162461bcd60e51b81526004016108519190612af8565b6001600160e01b031981165b811461094457600080fd5b803561075b81612a47565b600060208284031215612a7e57612a7e600080fd5b60006113ca8484612a5e565b8015155b82525050565b6020810161075b8284612a8a565b60005b83811015612abd578181015183820152602001612aa5565b50506000910152565b6000612ad0825190565b808452602084019350612ae7818560208601612aa2565b601f01601f19169290920192915050565b602080825281016118578184612ac6565b600061075b6001600160a01b038316612b20565b90565b6001600160a01b031690565b600061075b82612b09565b600061075b82612b2c565b612a8e81612b37565b6020810161075b8284612b42565b80612a8e565b6020810161075b8284612b59565b60006001600160a01b03821661075b565b612a8e81612b6d565b6020810161075b8284612b7e565b80612a53565b803561075b81612b95565b600060208284031215612bbb57612bbb600080fd5b60006113ca8484612b9b565b612a5381612b6d565b803561075b81612bc7565b60008060408385031215612bf157612bf1600080fd5b6000612bfd8585612b9b565b9250506020612c0e85828601612bd0565b9150509250929050565b600060208284031215612c2d57612c2d600080fd5b60006113ca8484612bd0565b634e487b7160e01b600052604160045260246000fd5b601f19601f830116810181811067ffffffffffffffff82111715612c7557612c75612c39565b6040525050565b6000612c8760405190565b905061120a8282612c4f565b600067ffffffffffffffff821115612cad57612cad612c39565b601f19601f83011660200192915050565b82818337506000910152565b6000612cdd612cd884612c93565b612c7c565b905082815260208101848484011115612cf857612cf8600080fd5b612d03848285612cbe565b509392505050565b600082601f830112612d1f57612d1f600080fd5b81356113ca848260208601612cca565b60008060408385031215612d4557612d45600080fd5b6000612d518585612bd0565b925050602083013567ffffffffffffffff811115612d7157612d71600080fd5b612c0e85828601612d0b565b60008060408385031215612d9357612d93600080fd5b6000612d9f8585612bd0565b9250506020612c0e85828601612b9b565b600080600060608486031215612dc857612dc8600080fd5b6000612dd48686612b9b565b9350506020612de586828701612b9b565b9250506040612df686828701612b9b565b9150509250925092565b6000610180828403121561156557611565600080fd5b600060208284031215612e2b57612e2b600080fd5b813567ffffffffffffffff811115612e4557612e45600080fd5b6113ca84828501612e00565b801515612a53565b803561075b81612e51565b60008060008060808587031215612e7d57612e7d600080fd5b6000612e898787612bd0565b9450506020612e9a87828801612b9b565b9350506040612eab87828801612bd0565b9250506060612ebc87828801612e59565b91505092959194509250565b634e487b7160e01b600052602260045260246000fd5b600281046001821680612ef257607f821691505b60208210810361156557611565612ec8565b602f81526000602082017f416363657373436f6e74726f6c3a2063616e206f6e6c792072656e6f756e636581526e103937b632b9903337b91039b2b63360891b602082015291505b5060400190565b6020808252810161075b81612f04565b602c81526000602082017f46756e6374696f6e206d7573742062652063616c6c6564207468726f7567682081526b19195b1959d85d1958d85b1b60a21b60208201529150612f4c565b6020808252810161075b81612f63565b602c81526000602082017f46756e6374696f6e206d7573742062652063616c6c6564207468726f7567682081526b6163746976652070726f787960a01b60208201529150612f4c565b6020808252810161075b81612fbc565b603881526000602082017f555550535570677261646561626c653a206d757374206e6f742062652063616c81527f6c6564207468726f7567682064656c656761746563616c6c000000000000000060208201529150612f4c565b6020808252810161075b81613015565b602e81526000602082017f496e697469616c697a61626c653a20636f6e747261637420697320616c72656181526d191e481a5b9a5d1a585b1a5e995960921b60208201529150612f4c565b6020808252810161075b8161307f565b600060ff821661075b565b612a8e816130da565b6020810161075b82846130e5565b60148152600060208201735265737472696374656420746f2061646d696e7360601b815291505b5060200190565b6020808252810161075b816130fc565b601881526000602082017f5a65726f2061646472657373206e6f7420616c6c6f776564000000000000000081529150613123565b6020808252810161075b8161313a565b601f81526000602082017f5265737472696374656420746f20504f5254464f4c494f5f4d414e414745520081529150613123565b6020808252810161075b8161317e565b805161075b81612b95565b6000602082840312156131e2576131e2600080fd5b60006113ca84846131c2565b604081016131fc8285612b59565b6118576020830184612b7e565b805161075b81612e51565b60006020828403121561322957613229600080fd5b60006113ca8484613209565b602281526000602082017f5265737472696374656420746f20504f5254464f4c494f5f4147454e545f524f8152614c4560f01b60208201529150612f4c565b6020808252810161075b81613235565b606081016132928286612b59565b61329f6020830185612b59565b6113ca6040830184612b59565b60ff8116612a53565b805161075b816132ac565b6000602082840312156132d5576132d5600080fd5b60006113ca84846132b5565b634e487b7160e01b600052601160045260246000fd5b80825b600185111561333657808604811115613315576133156132e1565b600185161561332357908102905b800261332f8560011c90565b94506132fa565b94509492505050565b60008261334e57506001611857565b8161335b57506000611857565b8160018114613371576002811461337b576133a8565b6001915050611857565b60ff84111561338c5761338c6132e1565b8360020a9150848211156133a2576133a26132e1565b50611857565b5060208310610133831016604e8410600b84101617156133db575081810a838111156133d6576133d66132e1565b611857565b6133e884848460016132f7565b925090508184048111156133fe576133fe6132e1565b0292915050565b600060ff83169250611857600019848461333f565b6000808335601e193685900301811261343557613435600080fd5b80840192508235915067ffffffffffffffff82111561345657613456600080fd5b60208301925060018202360383131561347157613471600080fd5b509250929050565b600061075b612b1d8381565b61348e83613479565b81546008840282811b60001990911b908116901990911617825550505050565b6000610824818484613485565b81811015610864576134ce6000826134ae565b6001016134bb565b601f821115610824576000818152602090206020601f850104810160208510156134fd5750805b61350f6020601f8601048301826134bb565b5050505050565b8267ffffffffffffffff81111561352f5761352f612c39565b6135398254612ede565b6135448282856134d6565b6000601f83116001811461357857600084156135605750858201355b600019600886021c19811660028602178655506135d1565b600085815260208120601f198616915b828110156135a85788850135825560209485019460019092019101613588565b868310156135c457600019601f88166008021c19858a01351682555b6001600288020188555050505b50505050505050565b602981526000602082017f52657475726e65642076616c7565206c657373207468616e2072657175657374815268195908185b5bdd5b9d60ba1b60208201529150612f4c565b6020808252810161075b816135da565b6040810161363e8285612b7e565b6118576020830184612b59565b6040810161363e8285612b59565b6000806040838503121561366f5761366f600080fd5b600061367b85856131c2565b9250506020612c0e858286016131c2565b8082018082111561075b5761075b6132e1565b602e81526000602082017f45524331393637557067726164653a206e657720696d706c656d656e7461746981526d6f6e206973206e6f74205555505360901b60208201529150612f4c565b6020808252810161075b8161369f565b602981526000602082017f45524331393637557067726164653a20756e737570706f727465642070726f788152681a58589b195555525160ba1b60208201529150612f4c565b6020808252810161075b816136fa565b8181038181111561075b5761075b6132e1565b81810280821583820485141761377b5761377b6132e1565b5092915050565b634e487b7160e01b600052601260045260246000fd5b6000826137a7576137a7613782565b500490565b601981526000602082017f536f6d6520746f6b656e206e6f7420636f6d70617469626c650000000000000081529150613123565b6020808252810161075b816137ac565b608081016137fe8287612b7e565b61380b6020830186612b59565b6138186040830185612b59565b6125886060830184612a8a565b604081016138338285612b7e565b6118576020830184612a8a565b6080810161384e8287612b7e565b61385b6020830186612b59565b6138686040830185612b59565b6125886060830184612b7e565b600061387f825190565b61388d818560208601612aa2565b9290920192915050565b7f416363657373436f6e74726f6c3a206163636f756e7420000000000000000000815260170160006138c98285613875565b7001034b99036b4b9b9b4b733903937b6329607d1b815260110191506113ca8284613875565b602d81526000602082017f455243313936373a206e657720696d706c656d656e746174696f6e206973206e81526c1bdd08184818dbdb9d1c9858dd609a1b60208201529150612f4c565b6020808252810161075b816138ef565b602b81526000602082017f496e697469616c697a61626c653a20636f6e7472616374206973206e6f74206981526a6e697469616c697a696e6760a81b60208201529150612f4c565b6020808252810161075b81613949565b604080825281016139b28185612ac6565b90506118576020830184612b59565b634e487b7160e01b600052603260045260246000fd5b60006139e38383612b7e565b505060200190565b60006139f5825190565b80845260209384019383018060005b83811015613a29578151613a1888826139d7565b975060208301925050600101613a04565b509495945050505050565b60408101613a428285612b59565b81810360208301526113ca81846139eb565b600067ffffffffffffffff821115613a6e57613a6e612c39565b5060209081020190565b6000613a86612cd884613a54565b83815290506020808201908402830185811115613aa557613aa5600080fd5b835b81811015613ac95780613aba88826131c2565b84525060209283019201613aa7565b5050509392505050565b600082601f830112613ae757613ae7600080fd5b81516113ca848260208601613a78565b600060208284031215613b0c57613b0c600080fd5b815167ffffffffffffffff811115613b2657613b26600080fd5b6113ca84828501613ad3565b60a08101613b408288612b59565b613b4d6020830187612b59565b8181036040830152613b5f81866139eb565b9050613b6e6060830185612b7e565b61215a6080830184612b59565b600081613b8a57613b8a6132e1565b506000190190565b60208082527f537472696e67733a20686578206c656e67746820696e73756666696369656e7491019081526000613123565b6020808252810161075b81613b92565b60006118578284613875565b601d81526000602082017f416464726573733a2063616c6c20746f206e6f6e2d636f6e747261637400000081529150613123565b6020808252810161075b81613be056fe90c2aa7471c04182221f68e80c07ab1e5946e4c63f8693e14ca40385d529f051360894a13ba1a3210667c828492db98dca3e2076cc3735a920a3ca505d382bbc416464726573733a206c6f772d6c6576656c2064656c65676174652063616c6c206661696c6564a264697066735822122062e4daa62f094d9ee7eab980ebb3b99bc9364fddc4c210e4e65ed62c84f22dfa64736f6c63430008110033",
  "linkReferences": {},
  "deployedLinkReferences": {}
}