{
  "_format": "hh-sol-artifact-1",
  "contractName": "StrategyWombexBusd",
  "sourceName": "contracts/strategies/StrategyWombexBusd.sol",
  "abi": [
    {
      "inputs": [],
      "stateMutability": "nonpayable",
      "type": "constructor"
    },
    {
      "anonymous": false,
      "inputs": [
        {
          "indexed": false,
          "internalType": "address",
          "name": "previousAdmin",
          "type": "address"
        },
        {
          "indexed": false,
          "internalType": "address",
          "name": "newAdmin",
          "type": "address"
        }
      ],
      "name": "AdminChanged",
      "type": "event"
    },
    {
      "anonymous": false,
      "inputs": [
        {
          "indexed": true,
          "internalType": "address",
          "name": "beacon",
          "type": "address"
        }
      ],
      "name": "BeaconUpgraded",
      "type": "event"
    },
    {
      "anonymous": false,
      "inputs": [
        {
          "indexed": false,
          "internalType": "uint8",
          "name": "version",
          "type": "uint8"
        }
      ],
      "name": "Initialized",
      "type": "event"
    },
    {
      "anonymous": false,
      "inputs": [
        {
          "indexed": false,
          "internalType": "address",
          "name": "value",
          "type": "address"
        }
      ],
      "name": "PortfolioManagerUpdated",
      "type": "event"
    },
    {
      "anonymous": false,
      "inputs": [
        {
          "indexed": false,
          "internalType": "uint256",
          "name": "amount",
          "type": "uint256"
        }
      ],
      "name": "Reward",
      "type": "event"
    },
    {
      "anonymous": false,
      "inputs": [
        {
          "indexed": true,
          "internalType": "bytes32",
          "name": "role",
          "type": "bytes32"
        },
        {
          "indexed": true,
          "internalType": "bytes32",
          "name": "previousAdminRole",
          "type": "bytes32"
        },
        {
          "indexed": true,
          "internalType": "bytes32",
          "name": "newAdminRole",
          "type": "bytes32"
        }
      ],
      "name": "RoleAdminChanged",
      "type": "event"
    },
    {
      "anonymous": false,
      "inputs": [
        {
          "indexed": true,
          "internalType": "bytes32",
          "name": "role",
          "type": "bytes32"
        },
        {
          "indexed": true,
          "internalType": "address",
          "name": "account",
          "type": "address"
        },
        {
          "indexed": true,
          "internalType": "address",
          "name": "sender",
          "type": "address"
        }
      ],
      "name": "RoleGranted",
      "type": "event"
    },
    {
      "anonymous": false,
      "inputs": [
        {
          "indexed": true,
          "internalType": "bytes32",
          "name": "role",
          "type": "bytes32"
        },
        {
          "indexed": true,
          "internalType": "address",
          "name": "account",
          "type": "address"
        },
        {
          "indexed": true,
          "internalType": "address",
          "name": "sender",
          "type": "address"
        }
      ],
      "name": "RoleRevoked",
      "type": "event"
    },
    {
      "anonymous": false,
      "inputs": [
        {
          "indexed": false,
          "internalType": "uint256",
          "name": "swapSlippageBP",
          "type": "uint256"
        },
        {
          "indexed": false,
          "internalType": "uint256",
          "name": "navSlippageBP",
          "type": "uint256"
        },
        {
          "indexed": false,
          "internalType": "uint256",
          "name": "stakeSlippageBP",
          "type": "uint256"
        }
      ],
      "name": "SlippagesUpdated",
      "type": "event"
    },
    {
      "anonymous": false,
      "inputs": [
        {
          "indexed": false,
          "internalType": "uint256",
          "name": "amount",
          "type": "uint256"
        }
      ],
      "name": "Stake",
      "type": "event"
    },
    {
      "anonymous": false,
      "inputs": [],
      "name": "StrategyUpdatedParams",
      "type": "event"
    },
    {
      "anonymous": false,
      "inputs": [
        {
          "indexed": false,
          "internalType": "uint256",
          "name": "amount",
          "type": "uint256"
        },
        {
          "indexed": false,
          "internalType": "uint256",
          "name": "amountReceived",
          "type": "uint256"
        }
      ],
      "name": "Unstake",
      "type": "event"
    },
    {
      "anonymous": false,
      "inputs": [
        {
          "indexed": true,
          "internalType": "address",
          "name": "implementation",
          "type": "address"
        }
      ],
      "name": "Upgraded",
      "type": "event"
    },
    {
      "inputs": [],
      "name": "DEFAULT_ADMIN_ROLE",
      "outputs": [
        {
          "internalType": "bytes32",
          "name": "",
          "type": "bytes32"
        }
      ],
      "stateMutability": "view",
      "type": "function"
    },
    {
      "inputs": [],
      "name": "PORTFOLIO_AGENT_ROLE",
      "outputs": [
        {
          "internalType": "bytes32",
          "name": "",
          "type": "bytes32"
        }
      ],
      "stateMutability": "view",
      "type": "function"
    },
    {
      "inputs": [],
      "name": "PORTFOLIO_MANAGER",
      "outputs": [
        {
          "internalType": "bytes32",
          "name": "",
          "type": "bytes32"
        }
      ],
      "stateMutability": "view",
      "type": "function"
    },
    {
      "inputs": [],
      "name": "busd",
      "outputs": [
        {
          "internalType": "contract IERC20",
          "name": "",
          "type": "address"
        }
      ],
      "stateMutability": "view",
      "type": "function"
    },
    {
      "inputs": [],
      "name": "busdDm",
      "outputs": [
        {
          "internalType": "uint256",
          "name": "",
          "type": "uint256"
        }
      ],
      "stateMutability": "view",
      "type": "function"
    },
    {
      "inputs": [
        {
          "internalType": "address",
          "name": "_to",
          "type": "address"
        }
      ],
      "name": "claimRewards",
      "outputs": [
        {
          "internalType": "uint256",
          "name": "",
          "type": "uint256"
        }
      ],
      "stateMutability": "nonpayable",
      "type": "function"
    },
    {
      "inputs": [
        {
          "internalType": "bytes32",
          "name": "role",
          "type": "bytes32"
        }
      ],
      "name": "getRoleAdmin",
      "outputs": [
        {
          "internalType": "bytes32",
          "name": "",
          "type": "bytes32"
        }
      ],
      "stateMutability": "view",
      "type": "function"
    },
    {
      "inputs": [
        {
          "internalType": "bytes32",
          "name": "role",
          "type": "bytes32"
        },
        {
          "internalType": "address",
          "name": "account",
          "type": "address"
        }
      ],
      "name": "grantRole",
      "outputs": [],
      "stateMutability": "nonpayable",
      "type": "function"
    },
    {
      "inputs": [
        {
          "internalType": "bytes32",
          "name": "role",
          "type": "bytes32"
        },
        {
          "internalType": "address",
          "name": "account",
          "type": "address"
        }
      ],
      "name": "hasRole",
      "outputs": [
        {
          "internalType": "bool",
          "name": "",
          "type": "bool"
        }
      ],
      "stateMutability": "view",
      "type": "function"
    },
    {
      "inputs": [],
      "name": "initialize",
      "outputs": [],
      "stateMutability": "nonpayable",
      "type": "function"
    },
    {
      "inputs": [],
      "name": "liquidationValue",
      "outputs": [
        {
          "internalType": "uint256",
          "name": "",
          "type": "uint256"
        }
      ],
      "stateMutability": "view",
      "type": "function"
    },
    {
      "inputs": [],
      "name": "lpBusd",
      "outputs": [
        {
          "internalType": "contract IWombatAsset",
          "name": "",
          "type": "address"
        }
      ],
      "stateMutability": "view",
      "type": "function"
    },
    {
      "inputs": [],
      "name": "lpBusdDm",
      "outputs": [
        {
          "internalType": "uint256",
          "name": "",
          "type": "uint256"
        }
      ],
      "stateMutability": "view",
      "type": "function"
    },
    {
      "inputs": [],
      "name": "navSlippageBP",
      "outputs": [
        {
          "internalType": "uint256",
          "name": "",
          "type": "uint256"
        }
      ],
      "stateMutability": "view",
      "type": "function"
    },
    {
      "inputs": [],
      "name": "netAssetValue",
      "outputs": [
        {
          "internalType": "uint256",
          "name": "",
          "type": "uint256"
        }
      ],
      "stateMutability": "view",
      "type": "function"
    },
    {
      "inputs": [],
      "name": "oracleBusd",
      "outputs": [
        {
          "internalType": "contract IPriceFeed",
          "name": "",
          "type": "address"
        }
      ],
      "stateMutability": "view",
      "type": "function"
    },
    {
      "inputs": [],
      "name": "oracleUsdc",
      "outputs": [
        {
          "internalType": "contract IPriceFeed",
          "name": "",
          "type": "address"
        }
      ],
      "stateMutability": "view",
      "type": "function"
    },
    {
      "inputs": [],
      "name": "pancakeRouter",
      "outputs": [
        {
          "internalType": "contract IPancakeRouter02",
          "name": "",
          "type": "address"
        }
      ],
      "stateMutability": "view",
      "type": "function"
    },
    {
      "inputs": [],
      "name": "pool",
      "outputs": [
        {
          "internalType": "address",
          "name": "",
          "type": "address"
        }
      ],
      "stateMutability": "view",
      "type": "function"
    },
    {
      "inputs": [],
      "name": "poolDepositor",
      "outputs": [
        {
          "internalType": "contract IWombexPoolDepositor",
          "name": "",
          "type": "address"
        }
      ],
      "stateMutability": "view",
      "type": "function"
    },
    {
      "inputs": [],
      "name": "portfolioManager",
      "outputs": [
        {
          "internalType": "address",
          "name": "",
          "type": "address"
        }
      ],
      "stateMutability": "view",
      "type": "function"
    },
    {
      "inputs": [],
      "name": "proxiableUUID",
      "outputs": [
        {
          "internalType": "bytes32",
          "name": "",
          "type": "bytes32"
        }
      ],
      "stateMutability": "view",
      "type": "function"
    },
    {
      "inputs": [
        {
          "internalType": "bytes32",
          "name": "role",
          "type": "bytes32"
        },
        {
          "internalType": "address",
          "name": "account",
          "type": "address"
        }
      ],
      "name": "renounceRole",
      "outputs": [],
      "stateMutability": "nonpayable",
      "type": "function"
    },
    {
      "inputs": [
        {
          "internalType": "bytes32",
          "name": "role",
          "type": "bytes32"
        },
        {
          "internalType": "address",
          "name": "account",
          "type": "address"
        }
      ],
      "name": "revokeRole",
      "outputs": [],
      "stateMutability": "nonpayable",
      "type": "function"
    },
    {
      "inputs": [
        {
          "components": [
            {
              "internalType": "address",
              "name": "busd",
              "type": "address"
            },
            {
              "internalType": "address",
              "name": "usdc",
              "type": "address"
            },
            {
              "internalType": "address",
              "name": "wom",
              "type": "address"
            },
            {
              "internalType": "address",
              "name": "wmx",
              "type": "address"
            },
            {
              "internalType": "address",
              "name": "lpBusd",
              "type": "address"
            },
            {
              "internalType": "address",
              "name": "wmxLpBusd",
              "type": "address"
            },
            {
              "internalType": "address",
              "name": "poolDepositor",
              "type": "address"
            },
            {
              "internalType": "address",
              "name": "pool",
              "type": "address"
            },
            {
              "internalType": "address",
              "name": "pancakeRouter",
              "type": "address"
            },
            {
              "internalType": "address",
              "name": "wombatRouter",
              "type": "address"
            },
            {
              "internalType": "address",
              "name": "oracleBusd",
              "type": "address"
            },
            {
              "internalType": "address",
              "name": "oracleUsdc",
              "type": "address"
            },
            {
              "internalType": "address",
              "name": "usdt",
              "type": "address"
            }
          ],
          "internalType": "struct StrategyWombexBusd.StrategyParams",
          "name": "params",
          "type": "tuple"
        }
      ],
      "name": "setParams",
      "outputs": [],
      "stateMutability": "nonpayable",
      "type": "function"
    },
    {
      "inputs": [
        {
          "internalType": "address",
          "name": "_value",
          "type": "address"
        }
      ],
      "name": "setPortfolioManager",
      "outputs": [],
      "stateMutability": "nonpayable",
      "type": "function"
    },
    {
      "inputs": [
        {
          "internalType": "uint256",
          "name": "_swapSlippageBP",
          "type": "uint256"
        },
        {
          "internalType": "uint256",
          "name": "_navSlippageBP",
          "type": "uint256"
        },
        {
          "internalType": "uint256",
          "name": "_stakeSlippageBP",
          "type": "uint256"
        }
      ],
      "name": "setSlippages",
      "outputs": [],
      "stateMutability": "nonpayable",
      "type": "function"
    },
    {
      "inputs": [
        {
          "internalType": "address",
          "name": "_asset",
          "type": "address"
        },
        {
          "internalType": "uint256",
          "name": "_amount",
          "type": "uint256"
        }
      ],
      "name": "stake",
      "outputs": [],
      "stateMutability": "nonpayable",
      "type": "function"
    },
    {
      "inputs": [],
      "name": "stakeSlippageBP",
      "outputs": [
        {
          "internalType": "uint256",
          "name": "",
          "type": "uint256"
        }
      ],
      "stateMutability": "view",
      "type": "function"
    },
    {
      "inputs": [
        {
          "internalType": "bytes4",
          "name": "interfaceId",
          "type": "bytes4"
        }
      ],
      "name": "supportsInterface",
      "outputs": [
        {
          "internalType": "bool",
          "name": "",
          "type": "bool"
        }
      ],
      "stateMutability": "view",
      "type": "function"
    },
    {
      "inputs": [],
      "name": "swapSlippageBP",
      "outputs": [
        {
          "internalType": "uint256",
          "name": "",
          "type": "uint256"
        }
      ],
      "stateMutability": "view",
      "type": "function"
    },
    {
      "inputs": [
        {
          "internalType": "address",
          "name": "_asset",
          "type": "address"
        },
        {
          "internalType": "uint256",
          "name": "_amount",
          "type": "uint256"
        },
        {
          "internalType": "address",
          "name": "_beneficiary",
          "type": "address"
        },
        {
          "internalType": "bool",
          "name": "_targetIsZero",
          "type": "bool"
        }
      ],
      "name": "unstake",
      "outputs": [
        {
          "internalType": "uint256",
          "name": "",
          "type": "uint256"
        }
      ],
      "stateMutability": "nonpayable",
      "type": "function"
    },
    {
      "inputs": [
        {
          "internalType": "address",
          "name": "newImplementation",
          "type": "address"
        }
      ],
      "name": "upgradeTo",
      "outputs": [],
      "stateMutability": "nonpayable",
      "type": "function"
    },
    {
      "inputs": [
        {
          "internalType": "address",
          "name": "newImplementation",
          "type": "address"
        },
        {
          "internalType": "bytes",
          "name": "data",
          "type": "bytes"
        }
      ],
      "name": "upgradeToAndCall",
      "outputs": [],
      "stateMutability": "payable",
      "type": "function"
    },
    {
      "inputs": [],
      "name": "usdc",
      "outputs": [
        {
          "internalType": "contract IERC20",
          "name": "",
          "type": "address"
        }
      ],
      "stateMutability": "view",
      "type": "function"
    },
    {
      "inputs": [],
      "name": "usdcDm",
      "outputs": [
        {
          "internalType": "uint256",
          "name": "",
          "type": "uint256"
        }
      ],
      "stateMutability": "view",
      "type": "function"
    },
    {
      "inputs": [],
      "name": "usdt",
      "outputs": [
        {
          "internalType": "contract IERC20",
          "name": "",
          "type": "address"
        }
      ],
      "stateMutability": "view",
      "type": "function"
    },
    {
      "inputs": [],
      "name": "usdtDm",
      "outputs": [
        {
          "internalType": "uint256",
          "name": "",
          "type": "uint256"
        }
      ],
      "stateMutability": "view",
      "type": "function"
    },
    {
      "inputs": [],
      "name": "wmx",
      "outputs": [
        {
          "internalType": "contract IERC20",
          "name": "",
          "type": "address"
        }
      ],
      "stateMutability": "view",
      "type": "function"
    },
    {
      "inputs": [],
      "name": "wmxLpBusd",
      "outputs": [
        {
          "internalType": "contract IWombexBaseRewardPool",
          "name": "",
          "type": "address"
        }
      ],
      "stateMutability": "view",
      "type": "function"
    },
    {
      "inputs": [],
      "name": "wom",
      "outputs": [
        {
          "internalType": "contract IERC20",
          "name": "",
          "type": "address"
        }
      ],
      "stateMutability": "view",
      "type": "function"
    },
    {
      "inputs": [],
      "name": "wombatRouter",
      "outputs": [
        {
          "internalType": "contract IWombatRouter",
          "name": "",
          "type": "address"
        }
      ],
      "stateMutability": "view",
      "type": "function"
    }
  ],
  "bytecode": "0x60a0604052306080523480156200001557600080fd5b50600054610100900460ff1615808015620000375750600054600160ff909116105b8062000067575062000054306200010860201b620015d61760201c565b15801562000067575060005460ff166001145b6200008f5760405162461bcd60e51b8152600401620000869062000117565b60405180910390fd5b6000805460ff191660011790558015620000b3576000805461ff0019166101001790555b801562000101576000805461ff00191690556040517f7f26b83ff96e1f2b6a682f133852f6798a09c465da95921460cefb384740249890620000f8906001906200018d565b60405180910390a15b506200019d565b6001600160a01b03163b151590565b602080825281016200016a81602e81527f496e697469616c697a61626c653a20636f6e747261637420697320616c72656160208201526d191e481a5b9a5d1a585b1a5e995960921b604082015260600190565b92915050565b600060ff82166200016a565b620001878162000170565b82525050565b602081016200016a82846200017c565b60805161450c620001d56000396000818161083d0152818161087d0152818161091c0152818161095c01526109eb015261450c6000f3fe6080604052600436106102515760003560e01c8063620b75df11610139578063ae30c110116100b6578063c5a6222e1161007a578063c5a6222e146106ca578063d547741f146106eb578063dc19d6431461070b578063df313cc714610722578063ef5cfb8c14610742578063f6f6b8811461076257600080fd5b8063ae30c1101461063b578063bd25c6db1461065b578063bf52e0801461067c578063c21ebd0714610692578063c4e064d1146106b357600080fd5b8063a217fddf116100fd578063a217fddf146105b0578063a3673b38146105c5578063a440b21a146105da578063a66b5713146105fa578063adc9772e1461061b57600080fd5b8063620b75df146105185780637d5f5802146105385780638129fc1c1461055a578063901368701461056f57806391d148541461059057600080fd5b80632f48ab7d116101d25780634f1ef286116101965780634f1ef2861461046457806352d1902d146104775780635ca558f81461048c5780635dbd733a146104a25780635fea9cbb146104d6578063612c87df146104f757600080fd5b80632f48ab7d146103c157806336568abe146103e25780633659cfe6146104025780633ca5b234146104225780633e413bee1461044357600080fd5b80631b1e7ddc116102195780631b1e7ddc146103225780631be43d0514610339578063248a9ca31461035a5780632576e65a1461038a5780632f2ff15d1461039f57600080fd5b806301ffc9a714610256578063083975d41461028c5780630f9033f7146102ba578063119cd879146102de57806316f0115b146102f4575b600080fd5b34801561026257600080fd5b50610276610271366004613409565b610782565b6040516102839190613434565b60405180910390f35b34801561029857600080fd5b5061012f546102ad906001600160a01b031681565b6040516102839190613472565b3480156102c657600080fd5b506102d161013c5481565b6040516102839190613486565b3480156102ea57600080fd5b506102d160fd5481565b34801561030057600080fd5b5061013354610315906001600160a01b031681565b604051610283919061349d565b34801561032e57600080fd5b506102d161013a5481565b34801561034557600080fd5b50610130546102ad906001600160a01b031681565b34801561036657600080fd5b506102d16103753660046134bc565b60009081526065602052604090206001015490565b34801561039657600080fd5b506102d16107b9565b3480156103ab57600080fd5b506103bf6103ba3660046134f1565b6107ca565b005b3480156103cd57600080fd5b5061013d546102ad906001600160a01b031681565b3480156103ee57600080fd5b506103bf6103fd3660046134f1565b6107f4565b34801561040e57600080fd5b506103bf61041d36600461352e565b610833565b34801561042e57600080fd5b5061012d546102ad906001600160a01b031681565b34801561044f57600080fd5b50610136546102ad906001600160a01b031681565b6103bf610472366004613645565b610912565b34801561048357600080fd5b506102d16109de565b34801561049857600080fd5b506102d160fe5481565b3480156104ae57600080fd5b506102d17fd67ad422505496469a1adf6cdf9e5ee92ac5d33992843c9ecc4b2f6d6cde913781565b3480156104e257600080fd5b50610138546102ad906001600160a01b031681565b34801561050357600080fd5b50610137546102ad906001600160a01b031681565b34801561052457600080fd5b5060fb54610315906001600160a01b031681565b34801561054457600080fd5b506102d160008051602061447083398151915281565b34801561056657600080fd5b506103bf610a3b565b34801561057b57600080fd5b50610131546102ad906001600160a01b031681565b34801561059c57600080fd5b506102766105ab3660046134f1565b610b09565b3480156105bc57600080fd5b506102d1600081565b3480156105d157600080fd5b506102d1610b34565b3480156105e657600080fd5b506103bf6105f536600461352e565b610b40565b34801561060657600080fd5b50610139546102ad906001600160a01b031681565b34801561062757600080fd5b506103bf610636366004613693565b610c15565b34801561064757600080fd5b506103bf6106563660046136c6565b610d6c565b34801561066757600080fd5b50610132546102ad906001600160a01b031681565b34801561068857600080fd5b506102d160fc5481565b34801561069e57600080fd5b50610134546102ad906001600160a01b031681565b3480156106bf57600080fd5b506102d16101355481565b3480156106d657600080fd5b5061012e546102ad906001600160a01b031681565b3480156106f757600080fd5b506103bf6107063660046134f1565b610e8e565b34801561071757600080fd5b506102d161013b5481565b34801561072e57600080fd5b506103bf61073d366004613732565b610eb3565b34801561074e57600080fd5b506102d161075d36600461352e565b61138a565b34801561076e57600080fd5b506102d161077d366004613767565b611413565b60006001600160e01b03198216637965db0b60e01b14806107b357506301ffc9a760e01b6001600160e01b03198316145b92915050565b60006107c560006115e5565b905090565b6000828152606560205260409020600101546107e58161184a565b6107ef8383611854565b505050565b6001600160a01b03811633146108255760405162461bcd60e51b815260040161081c9061381a565b60405180910390fd5b61082f82826118da565b5050565b6001600160a01b037f000000000000000000000000000000000000000000000000000000000000000016300361087b5760405162461bcd60e51b815260040161081c90613873565b7f00000000000000000000000000000000000000000000000000000000000000006001600160a01b03166108c4600080516020614490833981519152546001600160a01b031690565b6001600160a01b0316146108ea5760405162461bcd60e51b815260040161081c906138cc565b6108f381611941565b6040805160008082526020820190925261090f9183919061194c565b50565b6001600160a01b037f000000000000000000000000000000000000000000000000000000000000000016300361095a5760405162461bcd60e51b815260040161081c90613873565b7f00000000000000000000000000000000000000000000000000000000000000006001600160a01b03166109a3600080516020614490833981519152546001600160a01b031690565b6001600160a01b0316146109c95760405162461bcd60e51b815260040161081c906138cc565b6109d282611941565b61082f8282600161194c565b6000306001600160a01b037f00000000000000000000000000000000000000000000000000000000000000001614610a285760405162461bcd60e51b815260040161081c90613936565b5060008051602061449083398151915290565b600054610100900460ff1615808015610a5b5750600054600160ff909116105b80610a755750303b158015610a75575060005460ff166001145b610a915760405162461bcd60e51b815260040161081c90613991565b6000805460ff191660011790558015610ab4576000805461ff0019166101001790555b610abc611a2e565b801561090f576000805461ff00191690556040517f7f26b83ff96e1f2b6a682f133852f6798a09c465da95921460cefb384740249890610afe906001906139b5565b60405180910390a150565b60009182526065602090815260408084206001600160a01b0393909316845291905290205460ff1690565b60006107c560016115e5565b610b4b600033610b09565b610b675760405162461bcd60e51b815260040161081c906139f1565b6001600160a01b038116610b8d5760405162461bcd60e51b815260040161081c90613a35565b60fb54610bb290600080516020614470833981519152906001600160a01b0316610e8e565b610bca600080516020614470833981519152826107ca565b60fb80546001600160a01b0319166001600160a01b0383161790556040517ff7b449fcd5cfb7379dcd34cb69428dd9f882033b15be33d83b42d91daa28eeb790610afe90839061349d565b610c2d60008051602061447083398151915233610b09565b610c495760405162461bcd60e51b815260040161081c90613a79565b6000610cb8306001600160a01b031663a3673b386040518163ffffffff1660e01b8152600401602060405180830381865afa158015610c8c573d6000803e3d6000fd5b505050506040513d601f19601f82011682018060405250810190610cb09190613a94565b60fd54611b13565b9050610d3083846001600160a01b03166370a08231306040518263ffffffff1660e01b8152600401610cea919061349d565b602060405180830381865afa158015610d07573d6000803e3d6000fd5b505050506040513d601f19601f82011682018060405250810190610d2b9190613a94565b611b3d565b7f227a473b70d2f893cc7659219575c030a63b5743024fe1e0c1a680e708b1525a82604051610d5f9190613486565b60405180910390a1505050565b610d967fd67ad422505496469a1adf6cdf9e5ee92ac5d33992843c9ecc4b2f6d6cde913733610b09565b80610e2f575060fb54604051632474521560e21b81526001600160a01b03909116906391d1485490610dee907fd67ad422505496469a1adf6cdf9e5ee92ac5d33992843c9ecc4b2f6d6cde9137903390600401613ab5565b602060405180830381865afa158015610e0b573d6000803e3d6000fd5b505050506040513d601f19601f82011682018060405250810190610e2f9190613adb565b610e4b5760405162461bcd60e51b815260040161081c90613b3b565b60fc83905560fd82905560fe8190556040517f116fbf1e97a2be629ad98abfb6c332733c8996c2dfb174dd2efe8440df381d1a90610d5f90859085908590613b4b565b600082815260656020526040902060010154610ea98161184a565b6107ef83836118da565b610ebe600033610b09565b610eda5760405162461bcd60e51b815260040161081c906139f1565b610ee7602082018261352e565b61012d80546001600160a01b0319166001600160a01b0392909216919091179055610f18604082016020830161352e565b61013680546001600160a01b0319166001600160a01b0392909216919091179055610f49606082016040830161352e565b61012e80546001600160a01b0319166001600160a01b0392909216919091179055610f7a608082016060830161352e565b61012f80546001600160a01b0319166001600160a01b0392909216919091179055610fad6101a08201610180830161352e565b61013d80546001600160a01b0319166001600160a01b0392909216919091179055610fde60a082016080830161352e565b61013080546001600160a01b0319166001600160a01b039290921691909117905561100f60c0820160a0830161352e565b61013180546001600160a01b0319166001600160a01b039290921691909117905561104060e0820160c0830161352e565b61013280546001600160a01b0319166001600160a01b0392909216919091179055611072610100820160e0830161352e565b61013380546001600160a01b0319166001600160a01b03929092169190911790556110a56101208201610100830161352e565b61013480546001600160a01b0319166001600160a01b03929092169190911790556110d86101408201610120830161352e565b61013780546001600160a01b0319166001600160a01b039290921691909117905561110b6101608201610140830161352e565b61013980546001600160a01b0319166001600160a01b039290921691909117905561113e6101808201610160830161352e565b61013880546001600160a01b0319166001600160a01b039290921691909117905561116c602082018261352e565b6001600160a01b031663313ce5676040518163ffffffff1660e01b8152600401602060405180830381865afa1580156111a9573d6000803e3d6000fd5b505050506040513d601f19601f820116820180604052508101906111cd9190613b87565b6111d890600a613ccc565b61013b556111ec604082016020830161352e565b6001600160a01b031663313ce5676040518163ffffffff1660e01b8152600401602060405180830381865afa158015611229573d6000803e3d6000fd5b505050506040513d601f19601f8201168201806040525081019061124d9190613b87565b61125890600a613ccc565b61013a5561126e6101a08201610180830161352e565b6001600160a01b031663313ce5676040518163ffffffff1660e01b8152600401602060405180830381865afa1580156112ab573d6000803e3d6000fd5b505050506040513d601f19601f820116820180604052508101906112cf9190613b87565b6112da90600a613ccc565b61013c556112ee60a082016080830161352e565b6001600160a01b031663313ce5676040518163ffffffff1660e01b8152600401602060405180830381865afa15801561132b573d6000803e3d6000fd5b505050506040513d601f19601f8201168201806040525081019061134f9190613b87565b61135a90600a613ccc565b610135556040517fea5646eb3528e525944447a4a97de700dd472298626e5c0481d1c82c3da86ea590600090a150565b60006113a460008051602061447083398151915233610b09565b6113c05760405162461bcd60e51b815260040161081c90613a79565b60006113cb83611d61565b9050801561140b577f3ac0594a85a20354f9dc74f33728416d19ce00d04a406c108cc2dcf2cecea134816040516114029190613486565b60405180910390a15b90505b919050565b600061142d60008051602061447083398151915233610b09565b6114495760405162461bcd60e51b815260040161081c90613a79565b600061148c306001600160a01b031663a3673b386040518163ffffffff1660e01b8152600401602060405180830381865afa158015610c8c573d6000803e3d6000fd5b905060008084156114b3576114a086611d61565b90506114ac8887612127565b91506114e0565b6114be88888861250d565b9150868210156114e05760405162461bcd60e51b815260040161081c90613d27565b60405163a9059cbb60e01b81526001600160a01b0389169063a9059cbb9061150e9089908690600401613d37565b6020604051808303816000875af115801561152d573d6000803e3d6000fd5b505050506040513d601f19601f820116820180604052508101906115519190613adb565b507f9045c2ac9b2026de8075f2701bbdde882cd5e830b3b1ead9a15b22f2b5b937428783604051611583929190613d52565b60405180910390a180156115c9577f3ac0594a85a20354f9dc74f33728416d19ce00d04a406c108cc2dcf2cecea134816040516115c09190613486565b60405180910390a15b509150505b949350505050565b6001600160a01b03163b151590565b610136546040516370a0823160e01b815260009182916001600160a01b03909116906370a082319061161b90309060040161349d565b602060405180830381865afa158015611638573d6000803e3d6000fd5b505050506040513d601f19601f8201168201806040525081019061165c9190613a94565b61012d546040516370a0823160e01b81529192506000916001600160a01b03909116906370a082319061169390309060040161349d565b602060405180830381865afa1580156116b0573d6000803e3d6000fd5b505050506040513d601f19601f820116820180604052508101906116d49190613a94565b610131546040516370a0823160e01b81529192506000916001600160a01b03909116906370a082319061170b90309060040161349d565b602060405180830381865afa158015611728573d6000803e3d6000fd5b505050506040513d601f19601f8201168201806040525081019061174c9190613a94565b905080156117e157610132546101305460405163135dbd1360e01b81526000926001600160a01b039081169263135dbd139261179092909116908690600401613d37565b6040805180830381865afa1580156117ac573d6000803e3d6000fd5b505050506040513d601f19601f820116820180604052508101906117d09190613d60565b5090506117dd8184613d93565b9250505b8115611841578415611807576117f682612870565b6118009084613d93565b9250611841565b6101375461012d5461013d5461013354611834936001600160a01b0390811693811692811691168661297c565b61183e9084613d93565b92505b50909392505050565b61090f8133612ad0565b61185e8282610b09565b61082f5760008281526065602090815260408083206001600160a01b03851684529091529020805460ff191660011790556118963390565b6001600160a01b0316816001600160a01b0316837f2f8788117e7eff1d82e926ec794901d17c78024a50270940304540a733656f0d60405160405180910390a45050565b6118e48282610b09565b1561082f5760008281526065602090815260408083206001600160a01b0385168085529252808320805460ff1916905551339285917ff6391f5c32d9c69d2a47ea670b442974b53935d1edc7fd64eb21e047a839171b9190a45050565b600061082f8161184a565b7f4910fdfa16fed3260ed0e7147f7cc6da11a60208b5b9406d12a635614ffd91435460ff161561197f576107ef83612b29565b826001600160a01b03166352d1902d6040518163ffffffff1660e01b8152600401602060405180830381865afa9250505080156119d9575060408051601f3d908101601f191682019092526119d691810190613a94565b60015b6119f55760405162461bcd60e51b815260040161081c90613df1565b6000805160206144908339815191528114611a225760405162461bcd60e51b815260040161081c90613e47565b506107ef838383612b7f565b600054610100900460ff1615808015611a4e5750600054600160ff909116105b80611a685750303b158015611a68575060005460ff166001145b611a845760405162461bcd60e51b815260040161081c90613991565b6000805460ff191660011790558015611aa7576000805461ff0019166101001790555b611aaf612baa565b611ab7612baa565b611ac2600033611854565b601960fc55602360fd55600460fe55801561090f576000805461ff00191690556040517f7f26b83ff96e1f2b6a682f133852f6798a09c465da95921460cefb384740249890610afe906001906139b5565b6000612710611b228382613e57565b611b2c9085613e6a565b611b369190613e9f565b9392505050565b61012d546001600160a01b03838116911614611b6b5760405162461bcd60e51b815260040161081c90613ee7565b61012d546040516370a0823160e01b81526000916001600160a01b0316906370a0823190611b9d90309060040161349d565b602060405180830381865afa158015611bba573d6000803e3d6000fd5b505050506040513d601f19601f82011682018060405250810190611bde9190613a94565b6101325461013054604051630650739d60e41b81529293506000926001600160a01b039283169263650739d092611c1c929116908690600401613d37565b6040805180830381865afa158015611c38573d6000803e3d6000fd5b505050506040513d601f19601f82011682018060405250810190611c5c9190613d60565b5090506000611c6d8260fe54611b13565b61012d546101325460405163095ea7b360e01b81529293506001600160a01b039182169263095ea7b392611ca79216908790600401613d37565b6020604051808303816000875af1158015611cc6573d6000803e3d6000fd5b505050506040513d601f19601f82011682018060405250810190611cea9190613adb565b506101325461013054604051633f90794960e21b81526001600160a01b039283169263fe41e52492611d289291169087908690600190600401613ef7565b600060405180830381600087803b158015611d4257600080fd5b505af1158015611d56573d6000803e3d6000fd5b505050505050505050565b610131546040516370a0823160e01b815260009182916001600160a01b03909116906370a0823190611d9790309060040161349d565b602060405180830381865afa158015611db4573d6000803e3d6000fd5b505050506040513d601f19601f82011682018060405250810190611dd89190613a94565b90508015611e595761013154604051637050ccd960e01b81526001600160a01b0390911690637050ccd990611e14903090600090600401613f2c565b6020604051808303816000875af1158015611e33573d6000803e3d6000fd5b505050506040513d601f19601f82011682018060405250810190611e579190613adb565b505b61012e546040516370a0823160e01b8152600091829182916001600160a01b0316906370a0823190611e8f90309060040161349d565b602060405180830381865afa158015611eac573d6000803e3d6000fd5b505050506040513d601f19601f82011682018060405250810190611ed09190613a94565b90508015611f66576101345461012e5461012d5461013d54600093611f0a936001600160a01b039182169390821692908216911686612bd3565b90508015611f64576101345461012e5461012d5461013d54611f57936001600160a01b039081169381169281169116866064611f47886063613e6a565b611f519190613e9f565b30612d23565b611f619084613d93565b92505b505b61012f546040516370a0823160e01b81526000916001600160a01b0316906370a0823190611f9890309060040161349d565b602060405180830381865afa158015611fb5573d6000803e3d6000fd5b505050506040513d601f19601f82011682018060405250810190611fd99190613a94565b9050801561205f576101345461012f5461012d5461013d54600093612013936001600160a01b039182169390821692908216911686612bd3565b9050801561205d576101345461012f5461012d5461013d54612050936001600160a01b039081169381169281169116866064611f47886063613e6a565b61205a9085613d93565b93505b505b82156120dd5761013d5460405163a9059cbb60e01b81526001600160a01b039091169063a9059cbb90612098908a908790600401613d37565b6020604051808303816000875af11580156120b7573d6000803e3d6000fd5b505050506040513d601f19601f820116820180604052508101906120db9190613adb565b505b61211c6040518060400160405280601f81526020017f7265776172647320636c61696d65642066726f6d20576f6d6265783a2025730081525084612ef0565b509095945050505050565b610131546040516370a0823160e01b815260009182916001600160a01b03909116906370a082319061215d90309060040161349d565b602060405180830381865afa15801561217a573d6000803e3d6000fd5b505050506040513d601f19601f8201168201806040525081019061219e9190613a94565b9050806000036122225761012d546040516370a0823160e01b81526001600160a01b03909116906370a08231906121d990309060040161349d565b602060405180830381865afa1580156121f6573d6000803e3d6000fd5b505050506040513d601f19601f8201168201806040525081019061221a9190613a94565b9150506107b3565b610132546101305460405163135dbd1360e01b81526000926001600160a01b039081169263135dbd139261225e92909116908690600401613d37565b6040805180830381865afa15801561227a573d6000803e3d6000fd5b505050506040513d601f19601f8201168201806040525081019061229e9190613d60565b50905060006122af8260fe54611b13565b610131546101325460405163095ea7b360e01b81529293506001600160a01b039182169263095ea7b3926122e99216908790600401613d37565b6020604051808303816000875af1158015612308573d6000803e3d6000fd5b505050506040513d601f19601f8201168201806040525081019061232c9190613adb565b5061013254610130546040516316762eed60e01b81526001600160a01b03928316926316762eed9261236992911690879086903090600401613f47565b600060405180830381600087803b15801561238357600080fd5b505af1158015612397573d6000803e3d6000fd5b505061012d546040516370a0823160e01b8152600093506001600160a01b0390911691506370a08231906123cf90309060040161349d565b602060405180830381865afa1580156123ec573d6000803e3d6000fd5b505050506040513d601f19601f820116820180604052508101906124109190613a94565b6101375461012d5461013d5461013354939450600093612443936001600160a01b0390811693811692811691168661297c565b9050801561248f576101375461012d5461013d546101335461248d936001600160a01b0390811693811692811691168661248761247f82612870565b60fc54611b13565b30612f35565b505b61013d546040516370a0823160e01b81526001600160a01b03909116906370a08231906124c090309060040161349d565b602060405180830381865afa1580156124dd573d6000803e3d6000fd5b505050506040513d601f19601f820116820180604052508101906125019190613a94565b98975050505050505050565b61013d546000906001600160a01b0385811691161461253e5760405162461bcd60e51b815260040161081c90613ee7565b6101375461012d5461013d5461013354600093612570936001600160a01b03918216939082169290821691168861297c565b61013254610130546101355460405163135dbd1360e01b815293945087936000936001600160a01b039081169363135dbd13936125b4939290911691600401613d37565b6040805180830381865afa1580156125d0573d6000803e3d6000fd5b505050506040513d601f19601f820116820180604052508101906125f49190613d60565b5090506000816101355461260a8560fe546130c8565b6126149190613e6a565b61261e9190613e9f565b610131546101325460405163095ea7b360e01b81529293506001600160a01b039182169263095ea7b3926126589216908590600401613d37565b6020604051808303816000875af1158015612677573d6000803e3d6000fd5b505050506040513d601f19601f8201168201806040525081019061269b9190613adb565b5061013254610130546040516316762eed60e01b81526001600160a01b03928316926316762eed926126d892911690859088903090600401613f47565b600060405180830381600087803b1580156126f257600080fd5b505af1158015612706573d6000803e3d6000fd5b505061012d546040516370a0823160e01b8152600093506001600160a01b0390911691506370a082319061273e90309060040161349d565b602060405180830381865afa15801561275b573d6000803e3d6000fd5b505050506040513d601f19601f8201168201806040525081019061277f9190613a94565b6101375461012d5461013d54610133549394506000936127b2936001600160a01b0390811693811692811691168661297c565b905080156127f0576101375461012d5461013d54610133546127ee936001600160a01b0390811693811692811691168661248761247f82612870565b505b61013d546040516370a0823160e01b81526001600160a01b03909116906370a082319061282190309060040161349d565b602060405180830381865afa15801561283e573d6000803e3d6000fd5b505050506040513d601f19601f820116820180604052508101906128629190613a94565b9a9950505050505050505050565b60008061013960009054906101000a90046001600160a01b03166001600160a01b03166350d25bcd6040518163ffffffff1660e01b8152600401602060405180830381865afa1580156128c7573d6000803e3d6000fd5b505050506040513d601f19601f820116820180604052508101906128eb9190613a94565b9050600061013860009054906101000a90046001600160a01b03166001600160a01b03166350d25bcd6040518163ffffffff1660e01b8152600401602060405180830381865afa158015612943573d6000803e3d6000fd5b505050506040513d601f19601f820116820180604052508101906129679190613a94565b90506115ce8461013b5461013a5485856130d7565b6040805160028082526060820183526000928392919060208301908036833701905050905085816000815181106129b5576129b5613f7c565b60200260200101906001600160a01b031690816001600160a01b03168152505084816001815181106129e9576129e9613f7c565b6001600160a01b0392909216602092830291909101909101526040805160018082528183019092526000918160200160208202803683370190505090508481600081518110612a3a57612a3a613f7c565b6001600160a01b03928316602091820292909201015260405163b9e598c160e01b81526000918a169063b9e598c190612a7b90869086908a90600401613fef565b600060405180830381865afa158015612a98573d6000803e3d6000fd5b505050506040513d6000823e601f3d908101601f19168201604052612ac091908101906140c6565b5093505050505b95945050505050565b612ada8282610b09565b61082f57612ae78161310c565b612af283602061311e565b604051602001612b0392919061415a565b60408051601f198184030181529082905262461bcd60e51b825261081c916004016141e4565b6001600160a01b0381163b612b505760405162461bcd60e51b815260040161081c9061423f565b60008051602061449083398151915280546001600160a01b0319166001600160a01b0392909216919091179055565b612b888361328a565b600082511180612b955750805b156107ef57612ba483836132ca565b50505050565b600054610100900460ff16612bd15760405162461bcd60e51b815260040161081c90614297565b565b60408051600380825260808201909252600091829190602082016060803683370190505090508581600081518110612c0d57612c0d613f7c565b60200260200101906001600160a01b031690816001600160a01b0316815250508481600181518110612c4157612c41613f7c565b60200260200101906001600160a01b031690816001600160a01b0316815250508381600281518110612c7557612c75613f7c565b6001600160a01b03928316602091820292909201015260405163d06ca61f60e01b815260009189169063d06ca61f90612cb490879086906004016142a7565b600060405180830381865afa158015612cd1573d6000803e3d6000fd5b505050506040513d6000823e601f3d908101601f19168201604052612cf991908101906142c7565b905080600281518110612d0e57612d0e613f7c565b60200260200101519250505095945050505050565b60405163095ea7b360e01b81526000906001600160a01b0388169063095ea7b390612d54908b908890600401613d37565b6020604051808303816000875af1158015612d73573d6000803e3d6000fd5b505050506040513d601f19601f82011682018060405250810190612d979190613adb565b5060408051600380825260808201909252600091602082016060803683370190505090508781600081518110612dcf57612dcf613f7c565b60200260200101906001600160a01b031690816001600160a01b0316815250508681600181518110612e0357612e03613f7c565b60200260200101906001600160a01b031690816001600160a01b0316815250508581600281518110612e3757612e37613f7c565b6001600160a01b0392831660209182029290920101526040516338ed173960e01b81526000918b16906338ed173990612e7c908990899087908a904290600401614302565b6000604051808303816000875af1158015612e9b573d6000803e3d6000fd5b505050506040513d6000823e601f3d908101601f19168201604052612ec391908101906142c7565b905080600281518110612ed857612ed8613f7c565b6020026020010151925050505b979650505050505050565b61082f8282604051602401612f0692919061434b565b60408051601f198184030181529190526020810180516001600160e01b0316632d839cb360e21b1790526132ef565b60405163095ea7b360e01b81526000906001600160a01b0388169063095ea7b390612f66908b908890600401613d37565b6020604051808303816000875af1158015612f85573d6000803e3d6000fd5b505050506040513d601f19601f82011682018060405250810190612fa99190613adb565b506040805160028082526060820183526000926020830190803683370190505090508781600081518110612fdf57612fdf613f7c565b60200260200101906001600160a01b031690816001600160a01b031681525050868160018151811061301357613013613f7c565b6001600160a01b039290921660209283029190910190910152604080516001808252818301909252600091816020016020820280368337019050509050868160008151811061306457613064613f7c565b6001600160a01b03928316602091820292909201015260405163351041e960e21b8152908b169063d44107a4906130a990859085908b908b908b90429060040161436b565b6020604051808303816000875af115801561283e573d6000803e3d6000fd5b6000612710611b228382613d93565b60006130e38286613e6a565b836130ee8689613e6a565b6130f89190613e6a565b6131029190613e9f565b9695505050505050565b60606107b36001600160a01b03831660145b6060600061312d836002613e6a565b613138906002613d93565b67ffffffffffffffff8111156131505761315061354f565b6040519080825280601f01601f19166020018201604052801561317a576020820181803683370190505b509050600360fc1b8160008151811061319557613195613f7c565b60200101906001600160f81b031916908160001a905350600f60fb1b816001815181106131c4576131c4613f7c565b60200101906001600160f81b031916908160001a90535060006131e8846002613e6a565b6131f3906001613d93565b90505b600181111561326b576f181899199a1a9b1b9c1cb0b131b232b360811b85600f166010811061322757613227613f7c565b1a60f81b82828151811061323d5761323d613f7c565b60200101906001600160f81b031916908160001a90535060049490941c93613264816143c6565b90506131f6565b508315611b365760405162461bcd60e51b815260040161081c9061440f565b61329381612b29565b6040516001600160a01b038216907fbc7cd75a20ee27fd9adebab32041f755214dbc6bffa90cc0225b39da2e5c2d3b90600090a250565b6060611b3683836040518060600160405280602781526020016144b060279139613310565b80516a636f6e736f6c652e6c6f67602083016000808483855afa5050505050565b6060600080856001600160a01b03168560405161332d919061441f565b600060405180830381855af49150503d8060008114613368576040519150601f19603f3d011682016040523d82523d6000602084013e61336d565b606091505b509150915061310286838387606083156133b85782516000036133b1576001600160a01b0385163b6133b15760405162461bcd60e51b815260040161081c9061445f565b50816115ce565b6115ce83838151156133cd5781518083602001fd5b8060405162461bcd60e51b815260040161081c91906141e4565b6001600160e01b031981165b811461090f57600080fd5b80356107b3816133e7565b60006020828403121561341e5761341e600080fd5b60006115ce84846133fe565b8015155b82525050565b602081016107b3828461342a565b60006001600160a01b0382166107b3565b60006107b382613442565b60006107b382613453565b61342e8161345e565b602081016107b38284613469565b8061342e565b602081016107b38284613480565b61342e81613442565b602081016107b38284613494565b806133f3565b80356107b3816134ab565b6000602082840312156134d1576134d1600080fd5b60006115ce84846134b1565b6133f381613442565b80356107b3816134dd565b6000806040838503121561350757613507600080fd5b600061351385856134b1565b9250506020613524858286016134e6565b9150509250929050565b60006020828403121561354357613543600080fd5b60006115ce84846134e6565b634e487b7160e01b600052604160045260246000fd5b601f19601f830116810181811067ffffffffffffffff8211171561358b5761358b61354f565b6040525050565b600061359d60405190565b905061140e8282613565565b600067ffffffffffffffff8211156135c3576135c361354f565b601f19601f83011660200192915050565b82818337506000910152565b60006135f36135ee846135a9565b613592565b90508281526020810184848401111561360e5761360e600080fd5b6136198482856135d4565b509392505050565b600082601f83011261363557613635600080fd5b81356115ce8482602086016135e0565b6000806040838503121561365b5761365b600080fd5b600061366785856134e6565b925050602083013567ffffffffffffffff81111561368757613687600080fd5b61352485828601613621565b600080604083850312156136a9576136a9600080fd5b60006136b585856134e6565b9250506020613524858286016134b1565b6000806000606084860312156136de576136de600080fd5b60006136ea86866134b1565b93505060206136fb868287016134b1565b925050604061370c868287016134b1565b9150509250925092565b60006101a0828403121561372c5761372c600080fd5b50919050565b60006101a0828403121561374857613748600080fd5b60006115ce8484613716565b8015156133f3565b80356107b381613754565b6000806000806080858703121561378057613780600080fd5b600061378c87876134e6565b945050602061379d878288016134b1565b93505060406137ae878288016134e6565b92505060606137bf8782880161375c565b91505092959194509250565b602f81526000602082017f416363657373436f6e74726f6c3a2063616e206f6e6c792072656e6f756e636581526e103937b632b9903337b91039b2b63360891b602082015291505b5060400190565b602080825281016107b3816137cb565b602c81526000602082017f46756e6374696f6e206d7573742062652063616c6c6564207468726f7567682081526b19195b1959d85d1958d85b1b60a21b60208201529150613813565b602080825281016107b38161382a565b602c81526000602082017f46756e6374696f6e206d7573742062652063616c6c6564207468726f7567682081526b6163746976652070726f787960a01b60208201529150613813565b602080825281016107b381613883565b603881526000602082017f555550535570677261646561626c653a206d757374206e6f742062652063616c81527f6c6564207468726f7567682064656c656761746563616c6c000000000000000060208201529150613813565b602080825281016107b3816138dc565b602e81526000602082017f496e697469616c697a61626c653a20636f6e747261637420697320616c72656181526d191e481a5b9a5d1a585b1a5e995960921b60208201529150613813565b602080825281016107b381613946565b600060ff82166107b3565b61342e816139a1565b602081016107b382846139ac565b60148152600060208201735265737472696374656420746f2061646d696e7360601b815291505b5060200190565b602080825281016107b3816139c3565b601881526000602082017f5a65726f2061646472657373206e6f7420616c6c6f7765640000000000000000815291506139ea565b602080825281016107b381613a01565b601f81526000602082017f5265737472696374656420746f20504f5254464f4c494f5f4d414e4147455200815291506139ea565b602080825281016107b381613a45565b80516107b3816134ab565b600060208284031215613aa957613aa9600080fd5b60006115ce8484613a89565b60408101613ac38285613480565b611b366020830184613494565b80516107b381613754565b600060208284031215613af057613af0600080fd5b60006115ce8484613ad0565b602281526000602082017f5265737472696374656420746f20504f5254464f4c494f5f4147454e545f524f8152614c4560f01b60208201529150613813565b602080825281016107b381613afc565b60608101613b598286613480565b613b666020830185613480565b6115ce6040830184613480565b60ff81166133f3565b80516107b381613b73565b600060208284031215613b9c57613b9c600080fd5b60006115ce8484613b7c565b634e487b7160e01b600052601160045260246000fd5b80825b6001851115613bfd57808604811115613bdc57613bdc613ba8565b6001851615613bea57908102905b8002613bf68560011c90565b9450613bc1565b94509492505050565b600082613c1557506001611b36565b81613c2257506000611b36565b8160018114613c385760028114613c4257613c6f565b6001915050611b36565b60ff841115613c5357613c53613ba8565b8360020a915084821115613c6957613c69613ba8565b50611b36565b5060208310610133831016604e8410600b8410161715613ca2575081810a83811115613c9d57613c9d613ba8565b611b36565b613caf8484846001613bbe565b92509050818404811115613cc557613cc5613ba8565b0292915050565b600060ff83169250611b366000198484613c06565b602981526000602082017f52657475726e65642076616c7565206c657373207468616e2072657175657374815268195908185b5bdd5b9d60ba1b60208201529150613813565b602080825281016107b381613ce1565b60408101613d458285613494565b611b366020830184613480565b60408101613d458285613480565b60008060408385031215613d7657613d76600080fd5b6000613d828585613a89565b925050602061352485828601613a89565b808201808211156107b3576107b3613ba8565b602e81526000602082017f45524331393637557067726164653a206e657720696d706c656d656e7461746981526d6f6e206973206e6f74205555505360901b60208201529150613813565b602080825281016107b381613da6565b602981526000602082017f45524331393637557067726164653a20756e737570706f727465642070726f788152681a58589b195555525160ba1b60208201529150613813565b602080825281016107b381613e01565b818103818111156107b3576107b3613ba8565b818102808215838204851417613e8257613e82613ba8565b5092915050565b634e487b7160e01b600052601260045260246000fd5b600082613eae57613eae613e89565b500490565b601981526000602082017f536f6d6520746f6b656e206e6f7420636f6d70617469626c6500000000000000815291506139ea565b602080825281016107b381613eb3565b60808101613f058287613494565b613f126020830186613480565b613f1f6040830185613480565b612ac7606083018461342a565b60408101613f3a8285613494565b611b36602083018461342a565b60808101613f558287613494565b613f626020830186613480565b613f6f6040830185613480565b612ac76060830184613494565b634e487b7160e01b600052603260045260246000fd5b6000613f9e8383613494565b505060200190565b6000613fb0825190565b80845260209384019383018060005b83811015613fe4578151613fd38882613f92565b975060208301925050600101613fbf565b509495945050505050565b606080825281016140008186613fa6565b905081810360208301526140148185613fa6565b90506115ce6040830184613480565b600067ffffffffffffffff82111561403d5761403d61354f565b5060209081020190565b60006140556135ee84614023565b8381529050602080820190840283018581111561407457614074600080fd5b835b8181101561409857806140898882613a89565b84525060209283019201614076565b5050509392505050565b600082601f8301126140b6576140b6600080fd5b81516115ce848260208601614047565b600080604083850312156140dc576140dc600080fd5b60006140e88585613a89565b925050602083015167ffffffffffffffff81111561410857614108600080fd5b613524858286016140a2565b60005b8381101561412f578181015183820152602001614117565b50506000910152565b6000614142825190565b614150818560208601614114565b9290920192915050565b7f416363657373436f6e74726f6c3a206163636f756e74200000000000000000008152601701600061418c8285614138565b7001034b99036b4b9b9b4b733903937b6329607d1b815260110191506115ce8284614138565b60006141bc825190565b8084526020840193506141d3818560208601614114565b601f01601f19169290920192915050565b60208082528101611b3681846141b2565b602d81526000602082017f455243313936373a206e657720696d706c656d656e746174696f6e206973206e81526c1bdd08184818dbdb9d1c9858dd609a1b60208201529150613813565b602080825281016107b3816141f5565b602b81526000602082017f496e697469616c697a61626c653a20636f6e7472616374206973206e6f74206981526a6e697469616c697a696e6760a81b60208201529150613813565b602080825281016107b38161424f565b604081016142b58285613480565b81810360208301526115ce8184613fa6565b6000602082840312156142dc576142dc600080fd5b815167ffffffffffffffff8111156142f6576142f6600080fd5b6115ce848285016140a2565b60a081016143108288613480565b61431d6020830187613480565b818103604083015261432f8186613fa6565b905061433e6060830185613494565b6131026080830184613480565b6040808252810161435c81856141b2565b9050611b366020830184613480565b60c0808252810161437c8189613fa6565b905081810360208301526143908188613fa6565b905061439f6040830187613480565b6143ac6060830186613480565b6143b96080830185613494565b612ee560a0830184613480565b6000816143d5576143d5613ba8565b506000190190565b60208082527f537472696e67733a20686578206c656e67746820696e73756666696369656e74910190815260006139ea565b602080825281016107b3816143dd565b6000611b368284614138565b601d81526000602082017f416464726573733a2063616c6c20746f206e6f6e2d636f6e7472616374000000815291506139ea565b602080825281016107b38161442b56fe90c2aa7471c04182221f68e80c07ab1e5946e4c63f8693e14ca40385d529f051360894a13ba1a3210667c828492db98dca3e2076cc3735a920a3ca505d382bbc416464726573733a206c6f772d6c6576656c2064656c65676174652063616c6c206661696c6564a2646970667358221220c2004cefdb76016266ce7c51aa3818dca1dc935639bdc14b1193b23702cbac7664736f6c63430008110033",
  "linkReferences": {},
  "deployedLinkReferences": {}
}