{
  "address": "0x39E29f4FB13AeC505EF32Ee6Ff7cc16e2225B11F",
  "abi": [
    {
      "inputs": [],
      "stateMutability": "nonpayable",
      "type": "constructor"
    },
    {
      "anonymous": false,
      "inputs": [
        {
          "indexed": false,
          "internalType": "address",
          "name": "previousAdmin",
          "type": "address"
        },
        {
          "indexed": false,
          "internalType": "address",
          "name": "newAdmin",
          "type": "address"
        }
      ],
      "name": "AdminChanged",
      "type": "event"
    },
    {
      "anonymous": false,
      "inputs": [
        {
          "indexed": true,
          "internalType": "address",
          "name": "beacon",
          "type": "address"
        }
      ],
      "name": "BeaconUpgraded",
      "type": "event"
    },
    {
      "anonymous": false,
      "inputs": [
        {
          "indexed": false,
          "internalType": "uint8",
          "name": "version",
          "type": "uint8"
        }
      ],
      "name": "Initialized",
      "type": "event"
    },
    {
      "anonymous": false,
      "inputs": [
        {
          "indexed": false,
          "internalType": "address",
          "name": "value",
          "type": "address"
        }
      ],
      "name": "PortfolioManagerUpdated",
      "type": "event"
    },
    {
      "anonymous": false,
      "inputs": [
        {
          "indexed": false,
          "internalType": "uint256",
          "name": "amount",
          "type": "uint256"
        }
      ],
      "name": "Reward",
      "type": "event"
    },
    {
      "anonymous": false,
      "inputs": [
        {
          "indexed": true,
          "internalType": "bytes32",
          "name": "role",
          "type": "bytes32"
        },
        {
          "indexed": true,
          "internalType": "bytes32",
          "name": "previousAdminRole",
          "type": "bytes32"
        },
        {
          "indexed": true,
          "internalType": "bytes32",
          "name": "newAdminRole",
          "type": "bytes32"
        }
      ],
      "name": "RoleAdminChanged",
      "type": "event"
    },
    {
      "anonymous": false,
      "inputs": [
        {
          "indexed": true,
          "internalType": "bytes32",
          "name": "role",
          "type": "bytes32"
        },
        {
          "indexed": true,
          "internalType": "address",
          "name": "account",
          "type": "address"
        },
        {
          "indexed": true,
          "internalType": "address",
          "name": "sender",
          "type": "address"
        }
      ],
      "name": "RoleGranted",
      "type": "event"
    },
    {
      "anonymous": false,
      "inputs": [
        {
          "indexed": true,
          "internalType": "bytes32",
          "name": "role",
          "type": "bytes32"
        },
        {
          "indexed": true,
          "internalType": "address",
          "name": "account",
          "type": "address"
        },
        {
          "indexed": true,
          "internalType": "address",
          "name": "sender",
          "type": "address"
        }
      ],
      "name": "RoleRevoked",
      "type": "event"
    },
    {
      "anonymous": false,
      "inputs": [
        {
          "indexed": false,
          "internalType": "uint256",
          "name": "swapSlippageBP",
          "type": "uint256"
        },
        {
          "indexed": false,
          "internalType": "uint256",
          "name": "navSlippageBP",
          "type": "uint256"
        },
        {
          "indexed": false,
          "internalType": "uint256",
          "name": "stakeSlippageBP",
          "type": "uint256"
        }
      ],
      "name": "SlippagesUpdated",
      "type": "event"
    },
    {
      "anonymous": false,
      "inputs": [
        {
          "indexed": false,
          "internalType": "uint256",
          "name": "amount",
          "type": "uint256"
        }
      ],
      "name": "Stake",
      "type": "event"
    },
    {
      "anonymous": false,
      "inputs": [],
      "name": "StrategyUpdatedParams",
      "type": "event"
    },
    {
      "anonymous": false,
      "inputs": [
        {
          "indexed": false,
          "internalType": "uint256",
          "name": "amount",
          "type": "uint256"
        },
        {
          "indexed": false,
          "internalType": "uint256",
          "name": "amountReceived",
          "type": "uint256"
        }
      ],
      "name": "Unstake",
      "type": "event"
    },
    {
      "anonymous": false,
      "inputs": [
        {
          "indexed": true,
          "internalType": "address",
          "name": "implementation",
          "type": "address"
        }
      ],
      "name": "Upgraded",
      "type": "event"
    },
    {
      "inputs": [],
      "name": "DEFAULT_ADMIN_ROLE",
      "outputs": [
        {
          "internalType": "bytes32",
          "name": "",
          "type": "bytes32"
        }
      ],
      "stateMutability": "view",
      "type": "function"
    },
    {
      "inputs": [],
      "name": "PORTFOLIO_AGENT_ROLE",
      "outputs": [
        {
          "internalType": "bytes32",
          "name": "",
          "type": "bytes32"
        }
      ],
      "stateMutability": "view",
      "type": "function"
    },
    {
      "inputs": [],
      "name": "PORTFOLIO_MANAGER",
      "outputs": [
        {
          "internalType": "bytes32",
          "name": "",
          "type": "bytes32"
        }
      ],
      "stateMutability": "view",
      "type": "function"
    },
    {
      "inputs": [],
      "name": "busd",
      "outputs": [
        {
          "internalType": "contract IERC20",
          "name": "",
          "type": "address"
        }
      ],
      "stateMutability": "view",
      "type": "function"
    },
    {
      "inputs": [],
      "name": "busdDm",
      "outputs": [
        {
          "internalType": "uint256",
          "name": "",
          "type": "uint256"
        }
      ],
      "stateMutability": "view",
      "type": "function"
    },
    {
      "inputs": [
        {
          "internalType": "address",
          "name": "_to",
          "type": "address"
        }
      ],
      "name": "claimRewards",
      "outputs": [
        {
          "internalType": "uint256",
          "name": "",
          "type": "uint256"
        }
      ],
      "stateMutability": "nonpayable",
      "type": "function"
    },
    {
      "inputs": [],
      "name": "gauge",
      "outputs": [
        {
          "internalType": "contract IGaugeV2",
          "name": "",
          "type": "address"
        }
      ],
      "stateMutability": "view",
      "type": "function"
    },
    {
      "inputs": [
        {
          "internalType": "bytes32",
          "name": "role",
          "type": "bytes32"
        }
      ],
      "name": "getRoleAdmin",
      "outputs": [
        {
          "internalType": "bytes32",
          "name": "",
          "type": "bytes32"
        }
      ],
      "stateMutability": "view",
      "type": "function"
    },
    {
      "inputs": [
        {
          "internalType": "bytes32",
          "name": "role",
          "type": "bytes32"
        },
        {
          "internalType": "address",
          "name": "account",
          "type": "address"
        }
      ],
      "name": "grantRole",
      "outputs": [],
      "stateMutability": "nonpayable",
      "type": "function"
    },
    {
      "inputs": [
        {
          "internalType": "bytes32",
          "name": "role",
          "type": "bytes32"
        },
        {
          "internalType": "address",
          "name": "account",
          "type": "address"
        }
      ],
      "name": "hasRole",
      "outputs": [
        {
          "internalType": "bool",
          "name": "",
          "type": "bool"
        }
      ],
      "stateMutability": "view",
      "type": "function"
    },
    {
      "inputs": [],
      "name": "initialize",
      "outputs": [],
      "stateMutability": "nonpayable",
      "type": "function"
    },
    {
      "inputs": [],
      "name": "liquidationValue",
      "outputs": [
        {
          "internalType": "uint256",
          "name": "",
          "type": "uint256"
        }
      ],
      "stateMutability": "view",
      "type": "function"
    },
    {
      "inputs": [],
      "name": "navSlippageBP",
      "outputs": [
        {
          "internalType": "uint256",
          "name": "",
          "type": "uint256"
        }
      ],
      "stateMutability": "view",
      "type": "function"
    },
    {
      "inputs": [],
      "name": "netAssetValue",
      "outputs": [
        {
          "internalType": "uint256",
          "name": "",
          "type": "uint256"
        }
      ],
      "stateMutability": "view",
      "type": "function"
    },
    {
      "inputs": [],
      "name": "oracleBusd",
      "outputs": [
        {
          "internalType": "contract IPriceFeed",
          "name": "",
          "type": "address"
        }
      ],
      "stateMutability": "view",
      "type": "function"
    },
    {
      "inputs": [],
      "name": "oracleUsdc",
      "outputs": [
        {
          "internalType": "contract IPriceFeed",
          "name": "",
          "type": "address"
        }
      ],
      "stateMutability": "view",
      "type": "function"
    },
    {
      "inputs": [],
      "name": "oracleUsdt",
      "outputs": [
        {
          "internalType": "contract IPriceFeed",
          "name": "",
          "type": "address"
        }
      ],
      "stateMutability": "view",
      "type": "function"
    },
    {
      "inputs": [],
      "name": "pair",
      "outputs": [
        {
          "internalType": "contract IPair",
          "name": "",
          "type": "address"
        }
      ],
      "stateMutability": "view",
      "type": "function"
    },
    {
      "inputs": [],
      "name": "portfolioManager",
      "outputs": [
        {
          "internalType": "address",
          "name": "",
          "type": "address"
        }
      ],
      "stateMutability": "view",
      "type": "function"
    },
    {
      "inputs": [],
      "name": "proxiableUUID",
      "outputs": [
        {
          "internalType": "bytes32",
          "name": "",
          "type": "bytes32"
        }
      ],
      "stateMutability": "view",
      "type": "function"
    },
    {
      "inputs": [
        {
          "internalType": "bytes32",
          "name": "role",
          "type": "bytes32"
        },
        {
          "internalType": "address",
          "name": "account",
          "type": "address"
        }
      ],
      "name": "renounceRole",
      "outputs": [],
      "stateMutability": "nonpayable",
      "type": "function"
    },
    {
      "inputs": [
        {
          "internalType": "bytes32",
          "name": "role",
          "type": "bytes32"
        },
        {
          "internalType": "address",
          "name": "account",
          "type": "address"
        }
      ],
      "name": "revokeRole",
      "outputs": [],
      "stateMutability": "nonpayable",
      "type": "function"
    },
    {
      "inputs": [],
      "name": "router",
      "outputs": [
        {
          "internalType": "contract IRouter",
          "name": "",
          "type": "address"
        }
      ],
      "stateMutability": "view",
      "type": "function"
    },
    {
      "inputs": [
        {
          "components": [
            {
              "internalType": "address",
              "name": "busdToken",
              "type": "address"
            },
            {
              "internalType": "address",
              "name": "usdcToken",
              "type": "address"
            },
            {
              "internalType": "address",
              "name": "wUsdr",
              "type": "address"
            },
            {
              "internalType": "address",
              "name": "the",
              "type": "address"
            },
            {
              "internalType": "address",
              "name": "pair",
              "type": "address"
            },
            {
              "internalType": "address",
              "name": "router",
              "type": "address"
            },
            {
              "internalType": "address",
              "name": "gauge",
              "type": "address"
            },
            {
              "internalType": "address",
              "name": "wombatPool",
              "type": "address"
            },
            {
              "internalType": "address",
              "name": "wombatRouter",
              "type": "address"
            },
            {
              "internalType": "address",
              "name": "oracleBusd",
              "type": "address"
            },
            {
              "internalType": "address",
              "name": "oracleUsdc",
              "type": "address"
            },
            {
              "internalType": "address",
              "name": "usdtToken",
              "type": "address"
            },
            {
              "internalType": "address",
              "name": "oracleUsdt",
              "type": "address"
            }
          ],
          "internalType": "struct StrategyThenawUsdrUsdc.StrategyParams",
          "name": "params",
          "type": "tuple"
        }
      ],
      "name": "setParams",
      "outputs": [],
      "stateMutability": "nonpayable",
      "type": "function"
    },
    {
      "inputs": [
        {
          "internalType": "address",
          "name": "_value",
          "type": "address"
        }
      ],
      "name": "setPortfolioManager",
      "outputs": [],
      "stateMutability": "nonpayable",
      "type": "function"
    },
    {
      "inputs": [
        {
          "internalType": "uint256",
          "name": "_swapSlippageBP",
          "type": "uint256"
        },
        {
          "internalType": "uint256",
          "name": "_navSlippageBP",
          "type": "uint256"
        },
        {
          "internalType": "uint256",
          "name": "_stakeSlippageBP",
          "type": "uint256"
        }
      ],
      "name": "setSlippages",
      "outputs": [],
      "stateMutability": "nonpayable",
      "type": "function"
    },
    {
      "inputs": [
        {
          "internalType": "address",
          "name": "_asset",
          "type": "address"
        },
        {
          "internalType": "uint256",
          "name": "_amount",
          "type": "uint256"
        }
      ],
      "name": "stake",
      "outputs": [],
      "stateMutability": "nonpayable",
      "type": "function"
    },
    {
      "inputs": [],
      "name": "stakeSlippageBP",
      "outputs": [
        {
          "internalType": "uint256",
          "name": "",
          "type": "uint256"
        }
      ],
      "stateMutability": "view",
      "type": "function"
    },
    {
      "inputs": [
        {
          "internalType": "bytes4",
          "name": "interfaceId",
          "type": "bytes4"
        }
      ],
      "name": "supportsInterface",
      "outputs": [
        {
          "internalType": "bool",
          "name": "",
          "type": "bool"
        }
      ],
      "stateMutability": "view",
      "type": "function"
    },
    {
      "inputs": [],
      "name": "swapSlippageBP",
      "outputs": [
        {
          "internalType": "uint256",
          "name": "",
          "type": "uint256"
        }
      ],
      "stateMutability": "view",
      "type": "function"
    },
    {
      "inputs": [],
      "name": "the",
      "outputs": [
        {
          "internalType": "contract IERC20",
          "name": "",
          "type": "address"
        }
      ],
      "stateMutability": "view",
      "type": "function"
    },
    {
      "inputs": [
        {
          "internalType": "address",
          "name": "_asset",
          "type": "address"
        },
        {
          "internalType": "uint256",
          "name": "_amount",
          "type": "uint256"
        },
        {
          "internalType": "address",
          "name": "_beneficiary",
          "type": "address"
        },
        {
          "internalType": "bool",
          "name": "_targetIsZero",
          "type": "bool"
        }
      ],
      "name": "unstake",
      "outputs": [
        {
          "internalType": "uint256",
          "name": "",
          "type": "uint256"
        }
      ],
      "stateMutability": "nonpayable",
      "type": "function"
    },
    {
      "inputs": [
        {
          "internalType": "address",
          "name": "newImplementation",
          "type": "address"
        }
      ],
      "name": "upgradeTo",
      "outputs": [],
      "stateMutability": "nonpayable",
      "type": "function"
    },
    {
      "inputs": [
        {
          "internalType": "address",
          "name": "newImplementation",
          "type": "address"
        },
        {
          "internalType": "bytes",
          "name": "data",
          "type": "bytes"
        }
      ],
      "name": "upgradeToAndCall",
      "outputs": [],
      "stateMutability": "payable",
      "type": "function"
    },
    {
      "inputs": [],
      "name": "usdc",
      "outputs": [
        {
          "internalType": "contract IERC20",
          "name": "",
          "type": "address"
        }
      ],
      "stateMutability": "view",
      "type": "function"
    },
    {
      "inputs": [],
      "name": "usdcDm",
      "outputs": [
        {
          "internalType": "uint256",
          "name": "",
          "type": "uint256"
        }
      ],
      "stateMutability": "view",
      "type": "function"
    },
    {
      "inputs": [],
      "name": "usdt",
      "outputs": [
        {
          "internalType": "contract IERC20",
          "name": "",
          "type": "address"
        }
      ],
      "stateMutability": "view",
      "type": "function"
    },
    {
      "inputs": [],
      "name": "usdtDm",
      "outputs": [
        {
          "internalType": "uint256",
          "name": "",
          "type": "uint256"
        }
      ],
      "stateMutability": "view",
      "type": "function"
    },
    {
      "inputs": [],
      "name": "wUsdr",
      "outputs": [
        {
          "internalType": "contract IERC20",
          "name": "",
          "type": "address"
        }
      ],
      "stateMutability": "view",
      "type": "function"
    },
    {
      "inputs": [],
      "name": "wUsdrDm",
      "outputs": [
        {
          "internalType": "uint256",
          "name": "",
          "type": "uint256"
        }
      ],
      "stateMutability": "view",
      "type": "function"
    },
    {
      "inputs": [],
      "name": "wombatPool",
      "outputs": [
        {
          "internalType": "address",
          "name": "",
          "type": "address"
        }
      ],
      "stateMutability": "view",
      "type": "function"
    },
    {
      "inputs": [],
      "name": "wombatRouter",
      "outputs": [
        {
          "internalType": "address",
          "name": "",
          "type": "address"
        }
      ],
      "stateMutability": "view",
      "type": "function"
    }
  ],
  "numDeployments": 5,
  "solcInputHash": "34e03abcdf9cbff860229bd958c7855a",
  "bytecode": "0x60a0604052306080523480156200001557600080fd5b50600054610100900460ff1615808015620000375750600054600160ff909116105b8062000067575062000054306200010860201b620016551760201c565b15801562000067575060005460ff166001145b6200008f5760405162461bcd60e51b8152600401620000869062000117565b60405180910390fd5b6000805460ff191660011790558015620000b3576000805461ff0019166101001790555b801562000101576000805461ff00191690556040517f7f26b83ff96e1f2b6a682f133852f6798a09c465da95921460cefb384740249890620000f8906001906200018d565b60405180910390a15b506200019d565b6001600160a01b03163b151590565b602080825281016200016a81602e81527f496e697469616c697a61626c653a20636f6e747261637420697320616c72656160208201526d191e481a5b9a5d1a585b1a5e995960921b604082015260600190565b92915050565b600060ff82166200016a565b620001878162000170565b82525050565b602081016200016a82846200017c565b608051615c5f620001d56000396000818161083d0152818161087d0152818161091c0152818161095c01526109eb0152615c5f6000f3fe6080604052600436106102515760003560e01c80638129fc1c11610139578063ae30c110116100b6578063ddefa4ab1161007a578063ddefa4ab146106bf578063df313cc7146106e0578063eb23e48314610700578063ef5cfb8c14610721578063f6f6b88114610741578063f887ea401461076157600080fd5b8063ae30c11014610631578063bf52e08014610651578063cc6522c314610667578063d547741f14610688578063dc19d643146106a857600080fd5b8063a66b5713116100fd578063a66b571314610597578063a6f19c84146105b8578063a8a69576146105d9578063a8aa1b31146105f0578063adc9772e1461061157600080fd5b80638129fc1c1461051857806391d148541461052d578063a217fddf1461054d578063a3673b3814610562578063a440b21a1461057757600080fd5b80633659cfe6116101d25780635ca558f8116101965780635ca558f81461044a5780635dbd733a146104605780635fea9cbb14610494578063612c87df146104b5578063620b75df146104d65780637d5f5802146104f657600080fd5b80633659cfe6146103c05780633ca5b234146103e05780633e413bee146104015780634f1ef2861461042257806352d1902d1461043557600080fd5b8063248a9ca311610219578063248a9ca31461030b5780632576e65a1461033b5780632f2ff15d146103505780632f48ab7d1461037257806336568abe146103a057600080fd5b8063012ee9281461025657806301ffc9a71461028d5780630f9033f7146102ba578063119cd879146102de5780631b1e7ddc146102f4575b600080fd5b34801561026257600080fd5b5061013454610277906001600160a01b031681565b60405161028491906148b2565b60405180910390f35b34801561029957600080fd5b506102ad6102a83660046148e2565b610782565b604051610284919061490b565b3480156102c657600080fd5b506102d161013b5481565b604051610284919061491f565b3480156102ea57600080fd5b506102d160fd5481565b34801561030057600080fd5b506102d16101395481565b34801561031757600080fd5b506102d161032636600461493e565b60009081526065602052604090206001015490565b34801561034757600080fd5b506102d16107b9565b34801561035c57600080fd5b5061037061036b366004614973565b6107ca565b005b34801561037e57600080fd5b5061013d54610393906001600160a01b031681565b60405161028491906149f2565b3480156103ac57600080fd5b506103706103bb366004614973565b6107f4565b3480156103cc57600080fd5b506103706103db366004614a00565b610833565b3480156103ec57600080fd5b5061012d54610393906001600160a01b031681565b34801561040d57600080fd5b5061012e54610393906001600160a01b031681565b610370610430366004614b0f565b610912565b34801561044157600080fd5b506102d16109de565b34801561045657600080fd5b506102d160fe5481565b34801561046c57600080fd5b506102d17fd67ad422505496469a1adf6cdf9e5ee92ac5d33992843c9ecc4b2f6d6cde913781565b3480156104a057600080fd5b5061013754610393906001600160a01b031681565b3480156104c157600080fd5b5061013554610277906001600160a01b031681565b3480156104e257600080fd5b5060fb54610277906001600160a01b031681565b34801561050257600080fd5b506102d1600080516020615bc383398151915281565b34801561052457600080fd5b50610370610a3b565b34801561053957600080fd5b506102ad610548366004614973565b610b09565b34801561055957600080fd5b506102d1600081565b34801561056e57600080fd5b506102d1610b34565b34801561058357600080fd5b50610370610592366004614a00565b610b40565b3480156105a357600080fd5b5061013654610393906001600160a01b031681565b3480156105c457600080fd5b5061013354610393906001600160a01b031681565b3480156105e557600080fd5b506102d161013a5481565b3480156105fc57600080fd5b5061013154610393906001600160a01b031681565b34801561061d57600080fd5b5061037061062c366004614b5d565b610c15565b34801561063d57600080fd5b5061037061064c366004614b90565b610d6c565b34801561065d57600080fd5b506102d160fc5481565b34801561067357600080fd5b5061013c54610393906001600160a01b031681565b34801561069457600080fd5b506103706106a3366004614973565b610e8e565b3480156106b457600080fd5b506102d16101385481565b3480156106cb57600080fd5b5061013054610393906001600160a01b031681565b3480156106ec57600080fd5b506103706106fb366004614bfc565b610eb3565b34801561070c57600080fd5b5061012f54610393906001600160a01b031681565b34801561072d57600080fd5b506102d161073c366004614a00565b611388565b34801561074d57600080fd5b506102d161075c366004614c31565b611411565b34801561076d57600080fd5b5061013254610393906001600160a01b031681565b60006001600160e01b03198216637965db0b60e01b14806107b357506301ffc9a760e01b6001600160e01b03198316145b92915050565b60006107c56000611664565b905090565b6000828152606560205260409020600101546107e581611ab8565b6107ef8383611ac2565b505050565b6001600160a01b03811633146108255760405162461bcd60e51b815260040161081c90614ce4565b60405180910390fd5b61082f8282611b48565b5050565b6001600160a01b037f000000000000000000000000000000000000000000000000000000000000000016300361087b5760405162461bcd60e51b815260040161081c90614d3d565b7f00000000000000000000000000000000000000000000000000000000000000006001600160a01b03166108c4600080516020615be3833981519152546001600160a01b031690565b6001600160a01b0316146108ea5760405162461bcd60e51b815260040161081c90614d96565b6108f381611baf565b6040805160008082526020820190925261090f91839190611bba565b50565b6001600160a01b037f000000000000000000000000000000000000000000000000000000000000000016300361095a5760405162461bcd60e51b815260040161081c90614d3d565b7f00000000000000000000000000000000000000000000000000000000000000006001600160a01b03166109a3600080516020615be3833981519152546001600160a01b031690565b6001600160a01b0316146109c95760405162461bcd60e51b815260040161081c90614d96565b6109d282611baf565b61082f82826001611bba565b6000306001600160a01b037f00000000000000000000000000000000000000000000000000000000000000001614610a285760405162461bcd60e51b815260040161081c90614e00565b50600080516020615be383398151915290565b600054610100900460ff1615808015610a5b5750600054600160ff909116105b80610a755750303b158015610a75575060005460ff166001145b610a915760405162461bcd60e51b815260040161081c90614e5b565b6000805460ff191660011790558015610ab4576000805461ff0019166101001790555b610abc611c9c565b801561090f576000805461ff00191690556040517f7f26b83ff96e1f2b6a682f133852f6798a09c465da95921460cefb384740249890610afe90600190614e7f565b60405180910390a150565b60009182526065602090815260408084206001600160a01b0393909316845291905290205460ff1690565b60006107c56001611664565b610b4b600033610b09565b610b675760405162461bcd60e51b815260040161081c90614ebb565b6001600160a01b038116610b8d5760405162461bcd60e51b815260040161081c90614eff565b60fb54610bb290600080516020615bc3833981519152906001600160a01b0316610e8e565b610bca600080516020615bc3833981519152826107ca565b60fb80546001600160a01b0319166001600160a01b0383161790556040517ff7b449fcd5cfb7379dcd34cb69428dd9f882033b15be33d83b42d91daa28eeb790610afe9083906148b2565b610c2d600080516020615bc383398151915233610b09565b610c495760405162461bcd60e51b815260040161081c90614f43565b6000610cb8306001600160a01b031663a3673b386040518163ffffffff1660e01b8152600401602060405180830381865afa158015610c8c573d6000803e3d6000fd5b505050506040513d601f19601f82011682018060405250810190610cb09190614f5e565b60fd54611d81565b9050610d3083846001600160a01b03166370a08231306040518263ffffffff1660e01b8152600401610cea91906148b2565b602060405180830381865afa158015610d07573d6000803e3d6000fd5b505050506040513d601f19601f82011682018060405250810190610d2b9190614f5e565b611dab565b7f227a473b70d2f893cc7659219575c030a63b5743024fe1e0c1a680e708b1525a82604051610d5f919061491f565b60405180910390a1505050565b610d967fd67ad422505496469a1adf6cdf9e5ee92ac5d33992843c9ecc4b2f6d6cde913733610b09565b80610e2f575060fb54604051632474521560e21b81526001600160a01b03909116906391d1485490610dee907fd67ad422505496469a1adf6cdf9e5ee92ac5d33992843c9ecc4b2f6d6cde9137903390600401614f7f565b602060405180830381865afa158015610e0b573d6000803e3d6000fd5b505050506040513d601f19601f82011682018060405250810190610e2f9190614fa5565b610e4b5760405162461bcd60e51b815260040161081c90615005565b60fc83905560fd82905560fe8190556040517f116fbf1e97a2be629ad98abfb6c332733c8996c2dfb174dd2efe8440df381d1a90610d5f90859085908590615015565b600082815260656020526040902060010154610ea981611ab8565b6107ef8383611b48565b610ebe600033610b09565b610eda5760405162461bcd60e51b815260040161081c90614ebb565b610ee76020820182614a00565b61012d80546001600160a01b0319166001600160a01b0392909216919091179055610f186040820160208301614a00565b61012e80546001600160a01b0319166001600160a01b0392909216919091179055610f496060820160408301614a00565b61012f80546001600160a01b0319166001600160a01b0392909216919091179055610f7a6080820160608301614a00565b61013080546001600160a01b0319166001600160a01b0392909216919091179055610fab60a0820160808301614a00565b61013180546001600160a01b0319166001600160a01b0392909216919091179055610fdc60c0820160a08301614a00565b61013280546001600160a01b0319166001600160a01b039290921691909117905561100d60e0820160c08301614a00565b61013380546001600160a01b0319166001600160a01b039290921691909117905561103f610100820160e08301614a00565b61013480546001600160a01b0319166001600160a01b039290921691909117905561107261012082016101008301614a00565b61013580546001600160a01b0319166001600160a01b03929092169190911790556110a561014082016101208301614a00565b61013680546001600160a01b0319166001600160a01b03929092169190911790556110d861016082016101408301614a00565b61013780546001600160a01b0319166001600160a01b039290921691909117905561110b61018082016101608301614a00565b61013d80546001600160a01b0319166001600160a01b039290921691909117905561113e6101a082016101808301614a00565b61013c80546001600160a01b0319166001600160a01b039290921691909117905561116c6020820182614a00565b6001600160a01b031663313ce5676040518163ffffffff1660e01b8152600401602060405180830381865afa1580156111a9573d6000803e3d6000fd5b505050506040513d601f19601f820116820180604052508101906111cd9190615051565b6111d890600a615196565b610138556111ec6040820160208301614a00565b6001600160a01b031663313ce5676040518163ffffffff1660e01b8152600401602060405180830381865afa158015611229573d6000803e3d6000fd5b505050506040513d601f19601f8201168201806040525081019061124d9190615051565b61125890600a615196565b6101395561126c6060820160408301614a00565b6001600160a01b031663313ce5676040518163ffffffff1660e01b8152600401602060405180830381865afa1580156112a9573d6000803e3d6000fd5b505050506040513d601f19601f820116820180604052508101906112cd9190615051565b6112d890600a615196565b61013a556112ec6040820160208301614a00565b6001600160a01b031663313ce5676040518163ffffffff1660e01b8152600401602060405180830381865afa158015611329573d6000803e3d6000fd5b505050506040513d601f19601f8201168201806040525081019061134d9190615051565b61135890600a615196565b61013b556040517fea5646eb3528e525944447a4a97de700dd472298626e5c0481d1c82c3da86ea590600090a150565b60006113a2600080516020615bc383398151915233610b09565b6113be5760405162461bcd60e51b815260040161081c90614f43565b60006113c98361275b565b90508015611409577f3ac0594a85a20354f9dc74f33728416d19ce00d04a406c108cc2dcf2cecea13481604051611400919061491f565b60405180910390a15b90505b919050565b600061142b600080516020615bc383398151915233610b09565b6114475760405162461bcd60e51b815260040161081c90614f43565b600061148a306001600160a01b031663a3673b386040518163ffffffff1660e01b8152600401602060405180830381865afa158015610c8c573d6000803e3d6000fd5b905060008084156114b15761149e8661275b565b90506114aa8887612b8d565b91506114de565b6114bc8888886131da565b9150868210156114de5760405162461bcd60e51b815260040161081c906151f1565b82306001600160a01b031663a3673b386040518163ffffffff1660e01b8152600401602060405180830381865afa15801561151d573d6000803e3d6000fd5b505050506040513d601f19601f820116820180604052508101906115419190614f5e565b101561155f5760405162461bcd60e51b815260040161081c90615235565b60405163a9059cbb60e01b81526001600160a01b0389169063a9059cbb9061158d9089908690600401615245565b6020604051808303816000875af11580156115ac573d6000803e3d6000fd5b505050506040513d601f19601f820116820180604052508101906115d09190614fa5565b507f9045c2ac9b2026de8075f2701bbdde882cd5e830b3b1ead9a15b22f2b5b937428783604051611602929190615260565b60405180910390a18015611648577f3ac0594a85a20354f9dc74f33728416d19ce00d04a406c108cc2dcf2cecea1348160405161163f919061491f565b60405180910390a15b509150505b949350505050565b6001600160a01b03163b151590565b61013d546040516370a0823160e01b815260009182916001600160a01b03909116906370a082319061169a9030906004016148b2565b602060405180830381865afa1580156116b7573d6000803e3d6000fd5b505050506040513d601f19601f820116820180604052508101906116db9190614f5e565b61012e546040516370a0823160e01b81529192506000916001600160a01b03909116906370a08231906117129030906004016148b2565b602060405180830381865afa15801561172f573d6000803e3d6000fd5b505050506040513d601f19601f820116820180604052508101906117539190614f5e565b61012f546040516370a0823160e01b81529192506000916001600160a01b03909116906370a082319061178a9030906004016148b2565b602060405180830381865afa1580156117a7573d6000803e3d6000fd5b505050506040513d601f19601f820116820180604052508101906117cb9190614f5e565b610133546040516370a0823160e01b81529192506000916001600160a01b03909116906370a08231906118029030906004016148b2565b602060405180830381865afa15801561181f573d6000803e3d6000fd5b505050506040513d601f19601f820116820180604052508101906118439190614f5e565b9050801561195d576101325461012e5461012f5461013154604080516309047bdd60e01b8152905160009586956001600160a01b0391821695634386e63c95918316949083169391909216916309047bdd9160048083019260209291908290030181865afa1580156118b9573d6000803e3d6000fd5b505050506040513d601f19601f820116820180604052508101906118dd9190614fa5565b876040518563ffffffff1660e01b81526004016118fd949392919061526e565b6040805180830381865afa158015611919573d6000803e3d6000fd5b505050506040513d601f19601f8201168201806040525081019061193d91906152a3565b909250905061194c82866152d6565b945061195881856152d6565b935050505b82156119db5785156119a6576101395461013b546101375461013c54611995938793909290916001600160a01b0391821691166139d2565b61199f90856152d6565b93506119db565b6101325461012e5461013d546119ce926001600160a01b039081169281169116600187613a22565b6119d890856152d6565b93505b8115611aae576101325461012f5461012e5461013154604080516309047bdd60e01b81529051600095611a74956001600160a01b039182169590821694908216939116916309047bdd916004808201926020929091908290030181865afa158015611a4a573d6000803e3d6000fd5b505050506040513d601f19601f82011682018060405250810190611a6e9190614fa5565b87613a22565b6101325461012e5461013d54929350611aa0926001600160a01b03928316929182169116600185613a22565b611aaa90866152d6565b9450505b5091949350505050565b61090f8133613b9b565b611acc8282610b09565b61082f5760008281526065602090815260408083206001600160a01b03851684529091529020805460ff19166001179055611b043390565b6001600160a01b0316816001600160a01b0316837f2f8788117e7eff1d82e926ec794901d17c78024a50270940304540a733656f0d60405160405180910390a45050565b611b528282610b09565b1561082f5760008281526065602090815260408083206001600160a01b0385168085529252808320805460ff1916905551339285917ff6391f5c32d9c69d2a47ea670b442974b53935d1edc7fd64eb21e047a839171b9190a45050565b600061082f81611ab8565b7f4910fdfa16fed3260ed0e7147f7cc6da11a60208b5b9406d12a635614ffd91435460ff1615611bed576107ef83613bf4565b826001600160a01b03166352d1902d6040518163ffffffff1660e01b8152600401602060405180830381865afa925050508015611c47575060408051601f3d908101601f19168201909252611c4491810190614f5e565b60015b611c635760405162461bcd60e51b815260040161081c90615334565b600080516020615be38339815191528114611c905760405162461bcd60e51b815260040161081c9061538a565b506107ef838383613c4a565b600054610100900460ff1615808015611cbc5750600054600160ff909116105b80611cd65750303b158015611cd6575060005460ff166001145b611cf25760405162461bcd60e51b815260040161081c90614e5b565b6000805460ff191660011790558015611d15576000805461ff0019166101001790555b611d1d613c75565b611d25613c75565b611d30600033611ac2565b601960fc55602360fd55600460fe55801561090f576000805461ff00191690556040517f7f26b83ff96e1f2b6a682f133852f6798a09c465da95921460cefb384740249890610afe90600190614e7f565b6000612710611d90838261539a565b611d9a90856153ad565b611da491906153e2565b9392505050565b61013d546001600160a01b03838116911614611dd95760405162461bcd60e51b815260040161081c90615421565b60008061013160009054906101000a90046001600160a01b03166001600160a01b0316630902f1ac6040518163ffffffff1660e01b8152600401606060405180830381865afa158015611e30573d6000803e3d6000fd5b505050506040513d601f19601f82011682018060405250810190611e549190615431565b5061013d546040516370a0823160e01b81529294509092506000916001600160a01b03909116906370a0823190611e8f9030906004016148b2565b602060405180830381865afa158015611eac573d6000803e3d6000fd5b505050506040513d601f19601f82011682018060405250810190611ed09190614f5e565b61013b546101395461013c5461013754939450600093611f02938693909290916001600160a01b0391821691166139d2565b6101325461013d5461012e54929350611f31926001600160a01b03928316929182169116600186600030613c9e565b5061012e546040516370a0823160e01b81526000916001600160a01b0316906370a0823190611f649030906004016148b2565b602060405180830381865afa158015611f81573d6000803e3d6000fd5b505050506040513d601f19601f82011682018060405250810190611fa59190614f5e565b6101325461012e5461012f5461013154604080516309047bdd60e01b81529051959650600095612041956001600160a01b039081169581169481169316916309047bdd9160048083019260209291908290030181865afa15801561200d573d6000803e3d6000fd5b505050506040513d601f19601f820116820180604052508101906120319190614fa5565b868a8c6101395461013a54613ed2565b6101325461012e5461012f5461013154604080516309047bdd60e01b815290519596506000956120d6956001600160a01b039081169581169481169316916309047bdd9160048083019260209291908290030181865afa1580156120a9573d6000803e3d6000fd5b505050506040513d601f19601f820116820180604052508101906120cd9190614fa5565b86600030613c9e565b61012f546040516370a0823160e01b81529192506000916001600160a01b03909116906370a082319061210d9030906004016148b2565b602060405180830381865afa15801561212a573d6000803e3d6000fd5b505050506040513d601f19601f8201168201806040525081019061214e9190614f5e565b61012e546040516370a0823160e01b81529192506001600160a01b0316906370a08231906121809030906004016148b2565b602060405180830381865afa15801561219d573d6000803e3d6000fd5b505050506040513d601f19601f820116820180604052508101906121c19190614f5e565b61012e546101325460405163095ea7b360e01b81529296506001600160a01b039182169263095ea7b3926121fb9216908890600401615245565b6020604051808303816000875af115801561221a573d6000803e3d6000fd5b505050506040513d601f19601f8201168201806040525081019061223e9190614fa5565b5061012f546101325460405163095ea7b360e01b81526001600160a01b039283169263095ea7b392612277929116908590600401615245565b6020604051808303816000875af1158015612296573d6000803e3d6000fd5b505050506040513d601f19601f820116820180604052508101906122ba9190614fa5565b506101325461012e5461012f5461013154604080516309047bdd60e01b8152905160009561234e956001600160a01b039182169590821694908216939116916309047bdd916004808201926020929091908290030181865afa158015612324573d6000803e3d6000fd5b505050506040513d601f19601f820116820180604052508101906123489190614fa5565b89613a22565b9050818111156124ff576101325461012f5461012e5461013154604080516309047bdd60e01b815290516123e4956001600160a01b039081169581169481169316916309047bdd9160048083019260209291908290030181865afa1580156123ba573d6000803e3d6000fd5b505050506040513d601f19601f820116820180604052508101906123de9190614fa5565b86613a22565b6101325461012e5461012f5461013154604080516309047bdd60e01b815290519596506001600160a01b0394851695635a47ddc3959485169493841693909216916309047bdd916004808201926020929091908290030181865afa158015612450573d6000803e3d6000fd5b505050506040513d601f19601f820116820180604052508101906124749190614fa5565b85876124828860fc54611d81565b61248e8a60fc54611d81565b30426040518a63ffffffff1660e01b81526004016124b499989796959493929190615477565b6060604051808303816000875af11580156124d3573d6000803e3d6000fd5b505050506040513d601f19601f820116820180604052508101906124f79190615431565b5050506125f9565b6101325461012e5461012f5461013154604080516309047bdd60e01b815290516001600160a01b0395861695635a47ddc39581169481169316916309047bdd9160048083019260209291908290030181865afa158015612563573d6000803e3d6000fd5b505050506040513d601f19601f820116820180604052508101906125879190614fa5565b898760008030426040518a63ffffffff1660e01b81526004016125b299989796959493929190615504565b6060604051808303816000875af11580156125d1573d6000803e3d6000fd5b505050506040513d601f19601f820116820180604052508101906125f59190615431565b5050505b610131546040516370a0823160e01b81526000916001600160a01b0316906370a082319061262b9030906004016148b2565b602060405180830381865afa158015612648573d6000803e3d6000fd5b505050506040513d601f19601f8201168201806040525081019061266c9190614f5e565b610131546101335460405163095ea7b360e01b81529293506001600160a01b039182169263095ea7b3926126a69216908590600401615245565b6020604051808303816000875af11580156126c5573d6000803e3d6000fd5b505050506040513d601f19601f820116820180604052508101906126e99190614fa5565b506101335460405163b6b55f2560e01b81526001600160a01b039091169063b6b55f259061271b90849060040161491f565b600060405180830381600087803b15801561273557600080fd5b505af1158015612749573d6000803e3d6000fd5b50505050505050505050505050505050565b610133546040516370a0823160e01b815260009182916001600160a01b03909116906370a08231906127919030906004016148b2565b602060405180830381865afa1580156127ae573d6000803e3d6000fd5b505050506040513d601f19601f820116820180604052508101906127d29190614f5e565b905080156128445761013360009054906101000a90046001600160a01b03166001600160a01b0316633d18b9126040518163ffffffff1660e01b8152600401600060405180830381600087803b15801561282b57600080fd5b505af115801561283f573d6000803e3d6000fd5b505050505b610130546040516370a0823160e01b815260009182916001600160a01b03909116906370a082319061287a9030906004016148b2565b602060405180830381865afa158015612897573d6000803e3d6000fd5b505050506040513d601f19601f820116820180604052508101906128bb9190614f5e565b9050801561292f57610132546101305461013d546000926128ee926001600160a01b039182169290821691168486613a22565b9050801561292d57610132546101305461013d54612920926001600160a01b0390811692811691166000868130613c9e565b61292a90846152d6565b92505b505b61012f546040516370a0823160e01b81526000916001600160a01b0316906370a08231906129619030906004016148b2565b602060405180830381865afa15801561297e573d6000803e3d6000fd5b505050506040513d601f19601f820116820180604052508101906129a29190614f5e565b1115612a3a576101325461012f5461012e546040516370a0823160e01b8152612a38936001600160a01b0390811693811692169060009083906370a08231906129ef9030906004016148b2565b602060405180830381865afa158015612a0c573d6000803e3d6000fd5b505050506040513d601f19601f82011682018060405250810190612a309190614f5e565b600030613c9e565b505b61012e546040516370a0823160e01b81526000916001600160a01b0316906370a0823190612a6c9030906004016148b2565b602060405180830381865afa158015612a89573d6000803e3d6000fd5b505050506040513d601f19601f82011682018060405250810190612aad9190614f5e565b1115612b07576101325461012e5461013d546040516370a0823160e01b8152612afa936001600160a01b0390811693811692169060019083906370a08231906129ef9030906004016148b2565b612b0490836152d6565b91505b8115612b855761013d5460405163a9059cbb60e01b81526001600160a01b039091169063a9059cbb90612b409088908690600401615245565b6020604051808303816000875af1158015612b5f573d6000803e3d6000fd5b505050506040513d601f19601f82011682018060405250810190612b839190614fa5565b505b509392505050565b61013d546000906001600160a01b03848116911614612bbe5760405162461bcd60e51b815260040161081c90615595565b610133546040516370a0823160e01b81526000916001600160a01b0316906370a0823190612bf09030906004016148b2565b602060405180830381865afa158015612c0d573d6000803e3d6000fd5b505050506040513d601f19601f82011682018060405250810190612c319190614f5e565b61013354604051632e1a7d4d60e01b81529192506001600160a01b031690632e1a7d4d90612c6390849060040161491f565b600060405180830381600087803b158015612c7d57600080fd5b505af1158015612c91573d6000803e3d6000fd5b50506101325461012f5461012e5461013154604080516309047bdd60e01b81529051600097508796506001600160a01b0395861695634386e63c9581169481169316916309047bdd9160048083019260209291908290030181865afa158015612cfe573d6000803e3d6000fd5b505050506040513d601f19601f82011682018060405250810190612d229190614fa5565b876040518563ffffffff1660e01b8152600401612d42949392919061526e565b6040805180830381865afa158015612d5e573d6000803e3d6000fd5b505050506040513d601f19601f82011682018060405250810190612d8291906152a3565b610131546101325460405163095ea7b360e01b81529395509193506001600160a01b039081169263095ea7b392612dbf9216908790600401615245565b6020604051808303816000875af1158015612dde573d6000803e3d6000fd5b505050506040513d601f19601f82011682018060405250810190612e029190614fa5565b506101325461012f5461012e5461013154604080516309047bdd60e01b815290516001600160a01b0395861695630dede6c49581169481169316916309047bdd9160048083019260209291908290030181865afa158015612e67573d6000803e3d6000fd5b505050506040513d601f19601f82011682018060405250810190612e8b9190614fa5565b8760008030426040518963ffffffff1660e01b8152600401612eb49897969594939291906155a5565b60408051808303816000875af1158015612ed2573d6000803e3d6000fd5b505050506040513d601f19601f82011682018060405250810190612ef691906152a3565b505061012f546040516370a0823160e01b81526000916001600160a01b0316906370a0823190612f2a9030906004016148b2565b602060405180830381865afa158015612f47573d6000803e3d6000fd5b505050506040513d601f19601f82011682018060405250810190612f6b9190614f5e565b6101325461012f5461012e5461013154604080516309047bdd60e01b81529051959650600095612fd3956001600160a01b039081169581169481169316916309047bdd9160048083019260209291908290030181865afa1580156123ba573d6000803e3d6000fd5b9050801561303f576101325461012f5461012e5461013154604080516309047bdd60e01b8152905161303d956001600160a01b039081169581169481169316916309047bdd9160048083019260209291908290030181865afa1580156120a9573d6000803e3d6000fd5b505b61012e546040516370a0823160e01b81526000916001600160a01b0316906370a08231906130719030906004016148b2565b602060405180830381865afa15801561308e573d6000803e3d6000fd5b505050506040513d601f19601f820116820180604052508101906130b29190614f5e565b6101325461012e5461013d549293506000926130e0926001600160a01b039081169281169116600186613a22565b9050801561315a576101395461013b546101375461013c54600093613117938793919290916001600160a01b0390811691166139d2565b6101325461012e5461013d5460fc54939450613157936001600160a01b039384169392831692909116906001908890613151908890611d81565b30613c9e565b50505b61013d546040516370a0823160e01b81526001600160a01b03909116906370a082319061318b9030906004016148b2565b602060405180830381865afa1580156131a8573d6000803e3d6000fd5b505050506040513d601f19601f820116820180604052508101906131cc9190614f5e565b9a9950505050505050505050565b60008061013160009054906101000a90046001600160a01b03166001600160a01b03166318160ddd6040518163ffffffff1660e01b8152600401602060405180830381865afa158015613231573d6000803e3d6000fd5b505050506040513d601f19601f820116820180604052508101906132559190614f5e565b905060008061013160009054906101000a90046001600160a01b03166001600160a01b0316630902f1ac6040518163ffffffff1660e01b8152600401606060405180830381865afa1580156132ae573d6000803e3d6000fd5b505050506040513d601f19601f820116820180604052508101906132d29190615431565b506101325461012f5461012e5461013154604080516309047bdd60e01b81529051969850949650600095613386956001600160a01b03958616959485169493841693909216916309047bdd9160048083019260209291908290030181865afa158015613342573d6000803e3d6000fd5b505050506040513d601f19601f820116820180604052508101906133669190614fa5565b6133768c6509184e72a0006152d6565b89888a61013a5461013954613f5e565b610133546040516370a0823160e01b81529192506000916001600160a01b03909116906370a08231906133bd9030906004016148b2565b602060405180830381865afa1580156133da573d6000803e3d6000fd5b505050506040513d601f19601f820116820180604052508101906133fe9190614f5e565b90508082111561340c578091505b61013354604051632e1a7d4d60e01b81526001600160a01b0390911690632e1a7d4d9061343d90859060040161491f565b600060405180830381600087803b15801561345757600080fd5b505af115801561346b573d6000803e3d6000fd5b50506101325461012e5461012f5461013154604080516309047bdd60e01b81529051600097508796506001600160a01b0395861695634386e63c9581169481169316916309047bdd9160048083019260209291908290030181865afa1580156134d8573d6000803e3d6000fd5b505050506040513d601f19601f820116820180604052508101906134fc9190614fa5565b886040518563ffffffff1660e01b815260040161351c949392919061526e565b6040805180830381865afa158015613538573d6000803e3d6000fd5b505050506040513d601f19601f8201168201806040525081019061355c91906152a3565b610131546101325460405163095ea7b360e01b81529395509193506001600160a01b039081169263095ea7b3926135999216908890600401615245565b6020604051808303816000875af11580156135b8573d6000803e3d6000fd5b505050506040513d601f19601f820116820180604052508101906135dc9190614fa5565b506101325461012e5461012f5461013154604080516309047bdd60e01b815290516001600160a01b0395861695630dede6c49581169481169316916309047bdd9160048083019260209291908290030181865afa158015613641573d6000803e3d6000fd5b505050506040513d601f19601f820116820180604052508101906136659190614fa5565b886136728860fc54611d81565b61367e8860fc54611d81565b30426040518963ffffffff1660e01b81526004016136a398979695949392919061560f565b60408051808303816000875af11580156136c1573d6000803e3d6000fd5b505050506040513d601f19601f820116820180604052508101906136e591906152a3565b505061012e546040516370a0823160e01b81526000916001600160a01b0316906370a08231906137199030906004016148b2565b602060405180830381865afa158015613736573d6000803e3d6000fd5b505050506040513d601f19601f8201168201806040525081019061375a9190614f5e565b6101325461012e5461013d5460fc54939450613794936001600160a01b039384169392831692909116906001908690613151908290611d81565b5061012f546040516370a0823160e01b81526000916001600160a01b0316906370a08231906137c79030906004016148b2565b602060405180830381865afa1580156137e4573d6000803e3d6000fd5b505050506040513d601f19601f820116820180604052508101906138089190614f5e565b6101325461012f5461012e5461013d5461013154604080516309047bdd60e01b815290519697506000966138a3966001600160a01b039081169681169581169481169316916309047bdd9160048083019260209291908290030181865afa158015613877573d6000803e3d6000fd5b505050506040513d601f19601f8201168201806040525081019061389b9190614fa5565b600188614017565b9050801561394e576101325461012f5461012e5461013d5461013154604080516309047bdd60e01b8152905161394c966001600160a01b039081169681169581169481169316916309047bdd9160048083019260209291908290030181865afa158015613914573d6000803e3d6000fd5b505050506040513d601f19601f820116820180604052508101906139389190614fa5565b6001886139468960b4611d81565b30614216565b505b61013d546040516370a0823160e01b81526001600160a01b03909116906370a082319061397f9030906004016148b2565b602060405180830381865afa15801561399c573d6000803e3d6000fd5b505050506040513d601f19601f820116820180604052508101906139c09190614f5e565b9e9d5050505050505050505050505050565b6000806139de846144a8565b905060006139eb846144a8565b90506139f781886153ad565b82613a02888b6153ad565b613a0c91906153ad565b613a1691906153e2565b98975050505050505050565b604080516001808252818301909252600091829190816020015b6040805160608101825260008082526020808301829052928201528252600019909201910181613a3c5790505090508581600081518110613a7f57613a7f61565f565b6020026020010151600001906001600160a01b031690816001600160a01b0316815250508481600081518110613ab757613ab761565f565b6020026020010151602001906001600160a01b031690816001600160a01b0316815250508381600081518110613aef57613aef61565f565b6020908102919091010151901515604091820152516326207f2d60e21b81526001600160a01b03881690639881fcb490613b2f9086908590600401615709565b600060405180830381865afa158015613b4c573d6000803e3d6000fd5b505050506040513d6000823e601f3d908101601f19168201604052613b7491908101906157cc565b600181518110613b8657613b8661565f565b60200260200101519150505b95945050505050565b613ba58282610b09565b61082f57613bb28161457d565b613bbd83602061458f565b604051602001613bce92919061584d565b60408051601f198184030181529082905262461bcd60e51b825261081c916004016158d7565b6001600160a01b0381163b613c1b5760405162461bcd60e51b815260040161081c90615932565b600080516020615be383398151915280546001600160a01b0319166001600160a01b0392909216919091179055565b613c53836146fb565b600082511180613c605750805b156107ef57613c6f838361473b565b50505050565b600054610100900460ff16613c9c5760405162461bcd60e51b815260040161081c9061598a565b565b60405163095ea7b360e01b81526000906001600160a01b0388169063095ea7b390613ccf908b908890600401615245565b6020604051808303816000875af1158015613cee573d6000803e3d6000fd5b505050506040513d601f19601f82011682018060405250810190613d129190614fa5565b50613d536040518060400160405280601881526020017f7468656e61207377617020696e3a202573206f7574202573000000000000000081525085856147e7565b604080516001808252818301909252600091816020015b6040805160608101825260008082526020808301829052928201528252600019909201910181613d6a5790505090508781600081518110613dad57613dad61565f565b6020026020010151600001906001600160a01b031690816001600160a01b0316815250508681600081518110613de557613de561565f565b6020026020010151602001906001600160a01b031690816001600160a01b0316815250508581600081518110613e1d57613e1d61565f565b602090810291909101015190151560409182015251631e82ecdb60e31b81526001600160a01b038a169063f41766d890613e63908890889086908990429060040161599a565b6000604051808303816000875af1158015613e82573d6000803e3d6000fd5b505050506040513d6000823e601f3d908101601f19168201604052613eaa91908101906157cc565b600181518110613ebc57613ebc61565f565b6020026020010151915050979650505050505050565b60008383613ee084886153ad565b613eea91906153e2565b613ef491906152d6565b613efe85886153ad565b613f0891906153e2565b90506000613f198b8b8b8b86613a22565b90508482613f2783896153ad565b613f3191906153e2565b613f3b91906152d6565b613f4586896153ad565b613f4f91906153e2565b9b9a5050505050505050505050565b6000613f6a83856153ad565b613f7483876153ad565b613f7e91906152d6565b82613f8989896153ad565b613f9391906153ad565b613f9d91906153e2565b9050600086613fac83876153ad565b613fb691906153e2565b90506000613fc78d8c8e8d86613a22565b9050613fd381876153ad565b613fdd83896153ad565b613fe791906152d6565b82613ff28b8b6153ad565b613ffc91906153ad565b61400691906153e2565b9d9c50505050505050505050505050565b60408051600280825260608201909252600091829190816020015b604080516060810182526000808252602080830182905292820152825260001990920191018161403257905050905087816000815181106140755761407561565f565b6020026020010151600001906001600160a01b031690816001600160a01b03168152505086816000815181106140ad576140ad61565f565b6020026020010151602001906001600160a01b031690816001600160a01b03168152505084816000815181106140e5576140e561565f565b60200260200101516040019015159081151581525050868160018151811061410f5761410f61565f565b6020026020010151600001906001600160a01b031690816001600160a01b03168152505085816001815181106141475761414761565f565b6020026020010151602001906001600160a01b031690816001600160a01b031681525050838160018151811061417f5761417f61565f565b6020908102919091010151901515604091820152516326207f2d60e21b81526001600160a01b038a1690639881fcb4906141bf9086908590600401615709565b600060405180830381865afa1580156141dc573d6000803e3d6000fd5b505050506040513d6000823e601f3d908101601f1916820160405261420491908101906157cc565b600281518110613ebc57613ebc61565f565b60405163095ea7b360e01b81526000906001600160a01b038a169063095ea7b390614247908d908890600401615245565b6020604051808303816000875af1158015614266573d6000803e3d6000fd5b505050506040513d601f19601f8201168201806040525081019061428a9190614fa5565b5060408051600280825260608201909252600091816020015b60408051606081018252600080825260208083018290529282015282526000199092019101816142a357905050905089816000815181106142e6576142e661565f565b6020026020010151600001906001600160a01b031690816001600160a01b031681525050888160008151811061431e5761431e61565f565b6020026020010151602001906001600160a01b031690816001600160a01b03168152505086816000815181106143565761435661565f565b6020026020010151604001901515908115158152505088816001815181106143805761438061565f565b6020026020010151600001906001600160a01b031690816001600160a01b03168152505087816001815181106143b8576143b861565f565b6020026020010151602001906001600160a01b031690816001600160a01b03168152505085816001815181106143f0576143f061565f565b602090810291909101015190151560409182015251631e82ecdb60e31b81526001600160a01b038c169063f41766d890614436908890889086908990429060040161599a565b6000604051808303816000875af1158015614455573d6000803e3d6000fd5b505050506040513d6000823e601f3d908101601f1916820160405261447d91908101906157cc565b60028151811061448f5761448f61565f565b60200260200101519150505b9998505050505050505050565b6000806000806000856001600160a01b031663feaf968c6040518163ffffffff1660e01b815260040160a060405180830381865afa1580156144ee573d6000803e3d6000fd5b505050506040513d601f19601f820116820180604052508101906145129190615a0a565b9450945050935093508369ffffffffffffffffffff168169ffffffffffffffffffff1610156145535760405162461bcd60e51b815260040161081c90615aa1565b600082116145735760405162461bcd60e51b815260040161081c90615ada565b5090949350505050565b60606107b36001600160a01b03831660145b6060600061459e8360026153ad565b6145a99060026152d6565b67ffffffffffffffff8111156145c1576145c1614a21565b6040519080825280601f01601f1916602001820160405280156145eb576020820181803683370190505b509050600360fc1b816000815181106146065761460661565f565b60200101906001600160f81b031916908160001a905350600f60fb1b816001815181106146355761463561565f565b60200101906001600160f81b031916908160001a90535060006146598460026153ad565b6146649060016152d6565b90505b60018111156146dc576f181899199a1a9b1b9c1cb0b131b232b360811b85600f16601081106146985761469861565f565b1a60f81b8282815181106146ae576146ae61565f565b60200101906001600160f81b031916908160001a90535060049490941c936146d581615aea565b9050614667565b508315611da45760405162461bcd60e51b815260040161081c90615b33565b61470481613bf4565b6040516001600160a01b038216907fbc7cd75a20ee27fd9adebab32041f755214dbc6bffa90cc0225b39da2e5c2d3b90600090a250565b60606001600160a01b0383163b6147645760405162461bcd60e51b815260040161081c90615b86565b600080846001600160a01b03168460405161477f9190615b96565b600060405180830381855af49150503d80600081146147ba576040519150601f19603f3d011682016040523d82523d6000602084013e6147bf565b606091505b5091509150613b928282604051806060016040528060278152602001615c036027913961482e565b6107ef8383836040516024016147ff93929190615ba2565b60408051601f198184030181529190526020810180516001600160e01b031663ca47c4eb60e01b179052614847565b6060831561483d575081611da4565b611da48383614868565b80516a636f6e736f6c652e6c6f67602083016000808483855afa5050505050565b8151156148785781518083602001fd5b8060405162461bcd60e51b815260040161081c91906158d7565b60006001600160a01b0382166107b3565b6148ac81614892565b82525050565b602081016107b382846148a3565b6001600160e01b031981165b811461090f57600080fd5b80356107b3816148c0565b6000602082840312156148f7576148f7600080fd5b600061164d84846148d7565b8015156148ac565b602081016107b38284614903565b806148ac565b602081016107b38284614919565b806148cc565b80356107b38161492d565b60006020828403121561495357614953600080fd5b600061164d8484614933565b6148cc81614892565b80356107b38161495f565b6000806040838503121561498957614989600080fd5b60006149958585614933565b92505060206149a685828601614968565b9150509250929050565b60006107b36001600160a01b0383166149c7565b90565b6001600160a01b031690565b60006107b3826149b0565b60006107b3826149d3565b6148ac816149de565b602081016107b382846149e9565b600060208284031215614a1557614a15600080fd5b600061164d8484614968565b634e487b7160e01b600052604160045260246000fd5b601f19601f830116810181811067ffffffffffffffff82111715614a5d57614a5d614a21565b6040525050565b6000614a6f60405190565b905061140c8282614a37565b600067ffffffffffffffff821115614a9557614a95614a21565b601f19601f83011660200192915050565b82818337506000910152565b6000614ac5614ac084614a7b565b614a64565b905082815260208101848484011115614ae057614ae0600080fd5b612b85848285614aa6565b600082601f830112614aff57614aff600080fd5b813561164d848260208601614ab2565b60008060408385031215614b2557614b25600080fd5b6000614b318585614968565b925050602083013567ffffffffffffffff811115614b5157614b51600080fd5b6149a685828601614aeb565b60008060408385031215614b7357614b73600080fd5b6000614b7f8585614968565b92505060206149a685828601614933565b600080600060608486031215614ba857614ba8600080fd5b6000614bb48686614933565b9350506020614bc586828701614933565b9250506040614bd686828701614933565b9150509250925092565b60006101a08284031215614bf657614bf6600080fd5b50919050565b60006101a08284031215614c1257614c12600080fd5b600061164d8484614be0565b8015156148cc565b80356107b381614c1e565b60008060008060808587031215614c4a57614c4a600080fd5b6000614c568787614968565b9450506020614c6787828801614933565b9350506040614c7887828801614968565b9250506060614c8987828801614c26565b91505092959194509250565b602f81526000602082017f416363657373436f6e74726f6c3a2063616e206f6e6c792072656e6f756e636581526e103937b632b9903337b91039b2b63360891b602082015291505b5060400190565b602080825281016107b381614c95565b602c81526000602082017f46756e6374696f6e206d7573742062652063616c6c6564207468726f7567682081526b19195b1959d85d1958d85b1b60a21b60208201529150614cdd565b602080825281016107b381614cf4565b602c81526000602082017f46756e6374696f6e206d7573742062652063616c6c6564207468726f7567682081526b6163746976652070726f787960a01b60208201529150614cdd565b602080825281016107b381614d4d565b603881526000602082017f555550535570677261646561626c653a206d757374206e6f742062652063616c81527f6c6564207468726f7567682064656c656761746563616c6c000000000000000060208201529150614cdd565b602080825281016107b381614da6565b602e81526000602082017f496e697469616c697a61626c653a20636f6e747261637420697320616c72656181526d191e481a5b9a5d1a585b1a5e995960921b60208201529150614cdd565b602080825281016107b381614e10565b600060ff82166107b3565b6148ac81614e6b565b602081016107b38284614e76565b60148152600060208201735265737472696374656420746f2061646d696e7360601b815291505b5060200190565b602080825281016107b381614e8d565b601881526000602082017f5a65726f2061646472657373206e6f7420616c6c6f776564000000000000000081529150614eb4565b602080825281016107b381614ecb565b601f81526000602082017f5265737472696374656420746f20504f5254464f4c494f5f4d414e414745520081529150614eb4565b602080825281016107b381614f0f565b80516107b38161492d565b600060208284031215614f7357614f73600080fd5b600061164d8484614f53565b60408101614f8d8285614919565b611da460208301846148a3565b80516107b381614c1e565b600060208284031215614fba57614fba600080fd5b600061164d8484614f9a565b602281526000602082017f5265737472696374656420746f20504f5254464f4c494f5f4147454e545f524f8152614c4560f01b60208201529150614cdd565b602080825281016107b381614fc6565b606081016150238286614919565b6150306020830185614919565b61164d6040830184614919565b60ff81166148cc565b80516107b38161503d565b60006020828403121561506657615066600080fd5b600061164d8484615046565b634e487b7160e01b600052601160045260246000fd5b80825b60018511156150c7578086048111156150a6576150a6615072565b60018516156150b457908102905b80026150c08560011c90565b945061508b565b94509492505050565b6000826150df57506001611da4565b816150ec57506000611da4565b8160018114615102576002811461510c57615139565b6001915050611da4565b60ff84111561511d5761511d615072565b8360020a91508482111561513357615133615072565b50611da4565b5060208310610133831016604e8410600b841016171561516c575081810a8381111561516757615167615072565b611da4565b6151798484846001615088565b9250905081840481111561518f5761518f615072565b0292915050565b600060ff83169250611da460001984846150d0565b602981526000602082017f52657475726e65642076616c7565206c657373207468616e2072657175657374815268195908185b5bdd5b9d60ba1b60208201529150614cdd565b602080825281016107b3816151ab565b601f81526000602082017f5374726174656779204e4156206c657373207468616e2065787065637465640081529150614eb4565b602080825281016107b381615201565b6040810161525382856148a3565b611da46020830184614919565b604081016152538285614919565b6080810161527c82876148a3565b61528960208301866148a3565b6152966040830185614903565b613b926060830184614919565b600080604083850312156152b9576152b9600080fd5b60006152c58585614f53565b92505060206149a685828601614f53565b808201808211156107b3576107b3615072565b602e81526000602082017f45524331393637557067726164653a206e657720696d706c656d656e7461746981526d6f6e206973206e6f74205555505360901b60208201529150614cdd565b602080825281016107b3816152e9565b602981526000602082017f45524331393637557067726164653a20756e737570706f727465642070726f788152681a58589b195555525160ba1b60208201529150614cdd565b602080825281016107b381615344565b818103818111156107b3576107b3615072565b8181028082158382048514176153c5576153c5615072565b5092915050565b634e487b7160e01b600052601260045260246000fd5b6000826153f1576153f16153cc565b500490565b60148152600060208201732737b716b1b7b6b830ba34b13632903a37b5b2b760611b81529150614eb4565b602080825281016107b3816153f6565b60008060006060848603121561544957615449600080fd5b60006154558686614f53565b935050602061546686828701614f53565b9250506040614bd686828701614f53565b6101208101615486828c6148a3565b615493602083018b6148a3565b6154a0604083018a614903565b6154ad6060830189614919565b6154ba6080830188614919565b6154c760a0830187614919565b6154d460c0830186614919565b6154e160e08301856148a3565b6131cc610100830184614919565b60006107b36149c48381565b6148ac816154ef565b6101208101615513828c6148a3565b615520602083018b6148a3565b61552d604083018a614903565b61553a6060830189614919565b6155476080830188614919565b61555460a08301876154fb565b6154d460c08301866154fb565b601981526000602082017f536f6d6520746f6b656e206e6f7420636f6d70617469626c650000000000000081529150614eb4565b602080825281016107b381615561565b61010081016155b4828b6148a3565b6155c1602083018a6148a3565b6155ce6040830189614903565b6155db6060830188614919565b6155e860808301876154fb565b6155f560a08301866154fb565b61560260c08301856148a3565b61449b60e0830184614919565b610100810161561e828b6148a3565b61562b602083018a6148a3565b6156386040830189614903565b6156456060830188614919565b6156526080830187614919565b6155f560a0830186614919565b634e487b7160e01b600052603260045260246000fd5b8051606083019061568684826148a3565b50602082015161569960208501826148a3565b506040820151613c6f6040850182614903565b60006156b88383615675565b505060600190565b60006156ca825190565b80845260209384019383018060005b838110156156fe5781516156ed88826156ac565b9750602083019250506001016156d9565b509495945050505050565b604081016157178285614919565b818103602083015261164d81846156c0565b600067ffffffffffffffff82111561574357615743614a21565b5060209081020190565b600061575b614ac084615729565b8381529050602080820190840283018581111561577a5761577a600080fd5b835b8181101561579e578061578f8882614f53565b8452506020928301920161577c565b5050509392505050565b600082601f8301126157bc576157bc600080fd5b815161164d84826020860161574d565b6000602082840312156157e1576157e1600080fd5b815167ffffffffffffffff8111156157fb576157fb600080fd5b61164d848285016157a8565b60005b8381101561582257818101518382015260200161580a565b50506000910152565b6000615835825190565b615843818560208601615807565b9290920192915050565b7f416363657373436f6e74726f6c3a206163636f756e74200000000000000000008152601701600061587f828561582b565b7001034b99036b4b9b9b4b733903937b6329607d1b8152601101915061164d828461582b565b60006158af825190565b8084526020840193506158c6818560208601615807565b601f01601f19169290920192915050565b60208082528101611da481846158a5565b602d81526000602082017f455243313936373a206e657720696d706c656d656e746174696f6e206973206e81526c1bdd08184818dbdb9d1c9858dd609a1b60208201529150614cdd565b602080825281016107b3816158e8565b602b81526000602082017f496e697469616c697a61626c653a20636f6e7472616374206973206e6f74206981526a6e697469616c697a696e6760a81b60208201529150614cdd565b602080825281016107b381615942565b60a081016159a88288614919565b6159b56020830187614919565b81810360408301526159c781866156c0565b90506159d660608301856148a3565b6159e36080830184614919565b9695505050505050565b69ffffffffffffffffffff81166148cc565b80516107b3816159ed565b600080600080600060a08688031215615a2557615a25600080fd5b6000615a3188886159ff565b9550506020615a4288828901614f53565b9450506040615a5388828901614f53565b9350506060615a6488828901614f53565b9250506080615a75888289016159ff565b9150509295509295909350565b60088152600060208201674f6c64206461746160c01b81529150614eb4565b602080825281016107b381615a82565b6012815260006020820171526f756e64206e6f7420636f6d706c65746560701b81529150614eb4565b602080825281016107b381615ab1565b600081615af957615af9615072565b506000190190565b60208082527f537472696e67733a20686578206c656e67746820696e73756666696369656e7491019081526000614eb4565b602080825281016107b381615b01565b602681526000602082017f416464726573733a2064656c65676174652063616c6c20746f206e6f6e2d636f8152651b9d1c9858dd60d21b60208201529150614cdd565b602080825281016107b381615b43565b6000611da4828461582b565b60608082528101615bb381866158a5565b9050615030602083018561491956fe90c2aa7471c04182221f68e80c07ab1e5946e4c63f8693e14ca40385d529f051360894a13ba1a3210667c828492db98dca3e2076cc3735a920a3ca505d382bbc416464726573733a206c6f772d6c6576656c2064656c65676174652063616c6c206661696c6564a26469706673582212209303374c936cd48c215c2dedacf6a685020753ac1d3a3c71c215049c0fa639d564736f6c63430008110033",
  "implementation": "0xff2e5Ac143A195a389d5C8985b08e183108c51bc",
  "devdoc": {
    "kind": "dev",
    "methods": {
      "constructor": {
        "custom:oz-upgrades-unsafe-allow": "constructor"
      },
      "getRoleAdmin(bytes32)": {
        "details": "Returns the admin role that controls `role`. See {grantRole} and {revokeRole}. To change a role's admin, use {_setRoleAdmin}."
      },
      "grantRole(bytes32,address)": {
        "details": "Grants `role` to `account`. If `account` had not been already granted `role`, emits a {RoleGranted} event. Requirements: - the caller must have ``role``'s admin role. May emit a {RoleGranted} event."
      },
      "hasRole(bytes32,address)": {
        "details": "Returns `true` if `account` has been granted `role`."
      },
      "proxiableUUID()": {
        "details": "Implementation of the ERC1822 {proxiableUUID} function. This returns the storage slot used by the implementation. It is used to validate the implementation's compatibility when performing an upgrade. IMPORTANT: A proxy pointing at a proxiable contract should not be considered proxiable itself, because this risks bricking a proxy that upgrades to it, by delegating to itself until out of gas. Thus it is critical that this function revert if invoked through a proxy. This is guaranteed by the `notDelegated` modifier."
      },
      "renounceRole(bytes32,address)": {
        "details": "Revokes `role` from the calling account. Roles are often managed via {grantRole} and {revokeRole}: this function's purpose is to provide a mechanism for accounts to lose their privileges if they are compromised (such as when a trusted device is misplaced). If the calling account had been revoked `role`, emits a {RoleRevoked} event. Requirements: - the caller must be `account`. May emit a {RoleRevoked} event."
      },
      "revokeRole(bytes32,address)": {
        "details": "Revokes `role` from `account`. If `account` had been granted `role`, emits a {RoleRevoked} event. Requirements: - the caller must have ``role``'s admin role. May emit a {RoleRevoked} event."
      },
      "supportsInterface(bytes4)": {
        "details": "See {IERC165-supportsInterface}."
      },
      "upgradeTo(address)": {
        "details": "Upgrade the implementation of the proxy to `newImplementation`. Calls {_authorizeUpgrade}. Emits an {Upgraded} event."
      },
      "upgradeToAndCall(address,bytes)": {
        "details": "Upgrade the implementation of the proxy to `newImplementation`, and subsequently execute the function call encoded in `data`. Calls {_authorizeUpgrade}. Emits an {Upgraded} event."
      }
    },
    "version": 1
  },
  "userdoc": {
    "kind": "user",
    "methods": {},
    "version": 1
  },
  "storageLayout": {
    "storage": [
      {
        "astId": 804,
        "contract": "contracts/strategies/StrategyThenawUsdrUsdc.sol:StrategyThenawUsdrUsdc",
        "label": "_initialized",
        "offset": 0,
        "slot": "0",
        "type": "t_uint8"
      },
      {
        "astId": 807,
        "contract": "contracts/strategies/StrategyThenawUsdrUsdc.sol:StrategyThenawUsdrUsdc",
        "label": "_initializing",
        "offset": 1,
        "slot": "0",
        "type": "t_bool"
      },
      {
        "astId": 1657,
        "contract": "contracts/strategies/StrategyThenawUsdrUsdc.sol:StrategyThenawUsdrUsdc",
        "label": "__gap",
        "offset": 0,
        "slot": "1",
        "type": "t_array(t_uint256)50_storage"
      },
      {
        "astId": 1936,
        "contract": "contracts/strategies/StrategyThenawUsdrUsdc.sol:StrategyThenawUsdrUsdc",
        "label": "__gap",
        "offset": 0,
        "slot": "51",
        "type": "t_array(t_uint256)50_storage"
      },
      {
        "astId": 39,
        "contract": "contracts/strategies/StrategyThenawUsdrUsdc.sol:StrategyThenawUsdrUsdc",
        "label": "_roles",
        "offset": 0,
        "slot": "101",
        "type": "t_mapping(t_bytes32,t_struct(RoleData)34_storage)"
      },
      {
        "astId": 334,
        "contract": "contracts/strategies/StrategyThenawUsdrUsdc.sol:StrategyThenawUsdrUsdc",
        "label": "__gap",
        "offset": 0,
        "slot": "102",
        "type": "t_array(t_uint256)49_storage"
      },
      {
        "astId": 786,
        "contract": "contracts/strategies/StrategyThenawUsdrUsdc.sol:StrategyThenawUsdrUsdc",
        "label": "__gap",
        "offset": 0,
        "slot": "151",
        "type": "t_array(t_uint256)50_storage"
      },
      {
        "astId": 1101,
        "contract": "contracts/strategies/StrategyThenawUsdrUsdc.sol:StrategyThenawUsdrUsdc",
        "label": "__gap",
        "offset": 0,
        "slot": "201",
        "type": "t_array(t_uint256)50_storage"
      },
      {
        "astId": 6481,
        "contract": "contracts/strategies/StrategyThenawUsdrUsdc.sol:StrategyThenawUsdrUsdc",
        "label": "portfolioManager",
        "offset": 0,
        "slot": "251",
        "type": "t_address"
      },
      {
        "astId": 6483,
        "contract": "contracts/strategies/StrategyThenawUsdrUsdc.sol:StrategyThenawUsdrUsdc",
        "label": "swapSlippageBP",
        "offset": 0,
        "slot": "252",
        "type": "t_uint256"
      },
      {
        "astId": 6485,
        "contract": "contracts/strategies/StrategyThenawUsdrUsdc.sol:StrategyThenawUsdrUsdc",
        "label": "navSlippageBP",
        "offset": 0,
        "slot": "253",
        "type": "t_uint256"
      },
      {
        "astId": 6487,
        "contract": "contracts/strategies/StrategyThenawUsdrUsdc.sol:StrategyThenawUsdrUsdc",
        "label": "stakeSlippageBP",
        "offset": 0,
        "slot": "254",
        "type": "t_uint256"
      },
      {
        "astId": 6863,
        "contract": "contracts/strategies/StrategyThenawUsdrUsdc.sol:StrategyThenawUsdrUsdc",
        "label": "__gap",
        "offset": 0,
        "slot": "255",
        "type": "t_array(t_uint256)46_storage"
      },
      {
        "astId": 13565,
        "contract": "contracts/strategies/StrategyThenawUsdrUsdc.sol:StrategyThenawUsdrUsdc",
        "label": "busd",
        "offset": 0,
        "slot": "301",
        "type": "t_contract(IERC20)2892"
      },
      {
        "astId": 13568,
        "contract": "contracts/strategies/StrategyThenawUsdrUsdc.sol:StrategyThenawUsdrUsdc",
        "label": "usdc",
        "offset": 0,
        "slot": "302",
        "type": "t_contract(IERC20)2892"
      },
      {
        "astId": 13571,
        "contract": "contracts/strategies/StrategyThenawUsdrUsdc.sol:StrategyThenawUsdrUsdc",
        "label": "wUsdr",
        "offset": 0,
        "slot": "303",
        "type": "t_contract(IERC20)2892"
      },
      {
        "astId": 13574,
        "contract": "contracts/strategies/StrategyThenawUsdrUsdc.sol:StrategyThenawUsdrUsdc",
        "label": "the",
        "offset": 0,
        "slot": "304",
        "type": "t_contract(IERC20)2892"
      },
      {
        "astId": 13577,
        "contract": "contracts/strategies/StrategyThenawUsdrUsdc.sol:StrategyThenawUsdrUsdc",
        "label": "pair",
        "offset": 0,
        "slot": "305",
        "type": "t_contract(IPair)8470"
      },
      {
        "astId": 13580,
        "contract": "contracts/strategies/StrategyThenawUsdrUsdc.sol:StrategyThenawUsdrUsdc",
        "label": "router",
        "offset": 0,
        "slot": "306",
        "type": "t_contract(IRouter)8820"
      },
      {
        "astId": 13583,
        "contract": "contracts/strategies/StrategyThenawUsdrUsdc.sol:StrategyThenawUsdrUsdc",
        "label": "gauge",
        "offset": 0,
        "slot": "307",
        "type": "t_contract(IGaugeV2)9007"
      },
      {
        "astId": 13585,
        "contract": "contracts/strategies/StrategyThenawUsdrUsdc.sol:StrategyThenawUsdrUsdc",
        "label": "wombatPool",
        "offset": 0,
        "slot": "308",
        "type": "t_address"
      },
      {
        "astId": 13587,
        "contract": "contracts/strategies/StrategyThenawUsdrUsdc.sol:StrategyThenawUsdrUsdc",
        "label": "wombatRouter",
        "offset": 0,
        "slot": "309",
        "type": "t_address"
      },
      {
        "astId": 13590,
        "contract": "contracts/strategies/StrategyThenawUsdrUsdc.sol:StrategyThenawUsdrUsdc",
        "label": "oracleBusd",
        "offset": 0,
        "slot": "310",
        "type": "t_contract(IPriceFeed)6939"
      },
      {
        "astId": 13593,
        "contract": "contracts/strategies/StrategyThenawUsdrUsdc.sol:StrategyThenawUsdrUsdc",
        "label": "oracleUsdc",
        "offset": 0,
        "slot": "311",
        "type": "t_contract(IPriceFeed)6939"
      },
      {
        "astId": 13595,
        "contract": "contracts/strategies/StrategyThenawUsdrUsdc.sol:StrategyThenawUsdrUsdc",
        "label": "busdDm",
        "offset": 0,
        "slot": "312",
        "type": "t_uint256"
      },
      {
        "astId": 13597,
        "contract": "contracts/strategies/StrategyThenawUsdrUsdc.sol:StrategyThenawUsdrUsdc",
        "label": "usdcDm",
        "offset": 0,
        "slot": "313",
        "type": "t_uint256"
      },
      {
        "astId": 13599,
        "contract": "contracts/strategies/StrategyThenawUsdrUsdc.sol:StrategyThenawUsdrUsdc",
        "label": "wUsdrDm",
        "offset": 0,
        "slot": "314",
        "type": "t_uint256"
      },
      {
        "astId": 13601,
        "contract": "contracts/strategies/StrategyThenawUsdrUsdc.sol:StrategyThenawUsdrUsdc",
        "label": "usdtDm",
        "offset": 0,
        "slot": "315",
        "type": "t_uint256"
      },
      {
        "astId": 13604,
        "contract": "contracts/strategies/StrategyThenawUsdrUsdc.sol:StrategyThenawUsdrUsdc",
        "label": "oracleUsdt",
        "offset": 0,
        "slot": "316",
        "type": "t_contract(IPriceFeed)6939"
      },
      {
        "astId": 13607,
        "contract": "contracts/strategies/StrategyThenawUsdrUsdc.sol:StrategyThenawUsdrUsdc",
        "label": "usdt",
        "offset": 0,
        "slot": "317",
        "type": "t_contract(IERC20)2892"
      }
    ],
    "types": {
      "t_address": {
        "encoding": "inplace",
        "label": "address",
        "numberOfBytes": "20"
      },
      "t_array(t_uint256)46_storage": {
        "base": "t_uint256",
        "encoding": "inplace",
        "label": "uint256[46]",
        "numberOfBytes": "1472"
      },
      "t_array(t_uint256)49_storage": {
        "base": "t_uint256",
        "encoding": "inplace",
        "label": "uint256[49]",
        "numberOfBytes": "1568"
      },
      "t_array(t_uint256)50_storage": {
        "base": "t_uint256",
        "encoding": "inplace",
        "label": "uint256[50]",
        "numberOfBytes": "1600"
      },
      "t_bool": {
        "encoding": "inplace",
        "label": "bool",
        "numberOfBytes": "1"
      },
      "t_bytes32": {
        "encoding": "inplace",
        "label": "bytes32",
        "numberOfBytes": "32"
      },
      "t_contract(IERC20)2892": {
        "encoding": "inplace",
        "label": "contract IERC20",
        "numberOfBytes": "20"
      },
      "t_contract(IGaugeV2)9007": {
        "encoding": "inplace",
        "label": "contract IGaugeV2",
        "numberOfBytes": "20"
      },
      "t_contract(IPair)8470": {
        "encoding": "inplace",
        "label": "contract IPair",
        "numberOfBytes": "20"
      },
      "t_contract(IPriceFeed)6939": {
        "encoding": "inplace",
        "label": "contract IPriceFeed",
        "numberOfBytes": "20"
      },
      "t_contract(IRouter)8820": {
        "encoding": "inplace",
        "label": "contract IRouter",
        "numberOfBytes": "20"
      },
      "t_mapping(t_address,t_bool)": {
        "encoding": "mapping",
        "key": "t_address",
        "label": "mapping(address => bool)",
        "numberOfBytes": "32",
        "value": "t_bool"
      },
      "t_mapping(t_bytes32,t_struct(RoleData)34_storage)": {
        "encoding": "mapping",
        "key": "t_bytes32",
        "label": "mapping(bytes32 => struct AccessControlUpgradeable.RoleData)",
        "numberOfBytes": "32",
        "value": "t_struct(RoleData)34_storage"
      },
      "t_struct(RoleData)34_storage": {
        "encoding": "inplace",
        "label": "struct AccessControlUpgradeable.RoleData",
        "members": [
          {
            "astId": 31,
            "contract": "contracts/strategies/StrategyThenawUsdrUsdc.sol:StrategyThenawUsdrUsdc",
            "label": "members",
            "offset": 0,
            "slot": "0",
            "type": "t_mapping(t_address,t_bool)"
          },
          {
            "astId": 33,
            "contract": "contracts/strategies/StrategyThenawUsdrUsdc.sol:StrategyThenawUsdrUsdc",
            "label": "adminRole",
            "offset": 0,
            "slot": "1",
            "type": "t_bytes32"
          }
        ],
        "numberOfBytes": "64"
      },
      "t_uint256": {
        "encoding": "inplace",
        "label": "uint256",
        "numberOfBytes": "32"
      },
      "t_uint8": {
        "encoding": "inplace",
        "label": "uint8",
        "numberOfBytes": "1"
      }
    }
  }
}