{
  "address": "0xc0d9ab42e6CC8d441775FBD5187235E619Dc65eD",
  "abi": [
    {
      "inputs": [],
      "stateMutability": "nonpayable",
      "type": "constructor"
    },
    {
      "anonymous": false,
      "inputs": [
        {
          "indexed": false,
          "internalType": "address",
          "name": "previousAdmin",
          "type": "address"
        },
        {
          "indexed": false,
          "internalType": "address",
          "name": "newAdmin",
          "type": "address"
        }
      ],
      "name": "AdminChanged",
      "type": "event"
    },
    {
      "anonymous": false,
      "inputs": [
        {
          "indexed": true,
          "internalType": "address",
          "name": "beacon",
          "type": "address"
        }
      ],
      "name": "BeaconUpgraded",
      "type": "event"
    },
    {
      "anonymous": false,
      "inputs": [
        {
          "indexed": false,
          "internalType": "uint8",
          "name": "version",
          "type": "uint8"
        }
      ],
      "name": "Initialized",
      "type": "event"
    },
    {
      "anonymous": false,
      "inputs": [
        {
          "indexed": false,
          "internalType": "address",
          "name": "value",
          "type": "address"
        }
      ],
      "name": "PortfolioManagerUpdated",
      "type": "event"
    },
    {
      "anonymous": false,
      "inputs": [
        {
          "indexed": false,
          "internalType": "uint256",
          "name": "amount",
          "type": "uint256"
        }
      ],
      "name": "Reward",
      "type": "event"
    },
    {
      "anonymous": false,
      "inputs": [
        {
          "indexed": true,
          "internalType": "bytes32",
          "name": "role",
          "type": "bytes32"
        },
        {
          "indexed": true,
          "internalType": "bytes32",
          "name": "previousAdminRole",
          "type": "bytes32"
        },
        {
          "indexed": true,
          "internalType": "bytes32",
          "name": "newAdminRole",
          "type": "bytes32"
        }
      ],
      "name": "RoleAdminChanged",
      "type": "event"
    },
    {
      "anonymous": false,
      "inputs": [
        {
          "indexed": true,
          "internalType": "bytes32",
          "name": "role",
          "type": "bytes32"
        },
        {
          "indexed": true,
          "internalType": "address",
          "name": "account",
          "type": "address"
        },
        {
          "indexed": true,
          "internalType": "address",
          "name": "sender",
          "type": "address"
        }
      ],
      "name": "RoleGranted",
      "type": "event"
    },
    {
      "anonymous": false,
      "inputs": [
        {
          "indexed": true,
          "internalType": "bytes32",
          "name": "role",
          "type": "bytes32"
        },
        {
          "indexed": true,
          "internalType": "address",
          "name": "account",
          "type": "address"
        },
        {
          "indexed": true,
          "internalType": "address",
          "name": "sender",
          "type": "address"
        }
      ],
      "name": "RoleRevoked",
      "type": "event"
    },
    {
      "anonymous": false,
      "inputs": [
        {
          "indexed": false,
          "internalType": "uint256",
          "name": "swapSlippageBP",
          "type": "uint256"
        },
        {
          "indexed": false,
          "internalType": "uint256",
          "name": "navSlippageBP",
          "type": "uint256"
        },
        {
          "indexed": false,
          "internalType": "uint256",
          "name": "stakeSlippageBP",
          "type": "uint256"
        }
      ],
      "name": "SlippagesUpdated",
      "type": "event"
    },
    {
      "anonymous": false,
      "inputs": [
        {
          "indexed": false,
          "internalType": "uint256",
          "name": "amount",
          "type": "uint256"
        }
      ],
      "name": "Stake",
      "type": "event"
    },
    {
      "anonymous": false,
      "inputs": [],
      "name": "StrategyUpdatedParams",
      "type": "event"
    },
    {
      "anonymous": false,
      "inputs": [
        {
          "indexed": false,
          "internalType": "uint256",
          "name": "amount",
          "type": "uint256"
        },
        {
          "indexed": false,
          "internalType": "uint256",
          "name": "amountReceived",
          "type": "uint256"
        }
      ],
      "name": "Unstake",
      "type": "event"
    },
    {
      "anonymous": false,
      "inputs": [
        {
          "indexed": true,
          "internalType": "address",
          "name": "implementation",
          "type": "address"
        }
      ],
      "name": "Upgraded",
      "type": "event"
    },
    {
      "inputs": [],
      "name": "DEFAULT_ADMIN_ROLE",
      "outputs": [
        {
          "internalType": "bytes32",
          "name": "",
          "type": "bytes32"
        }
      ],
      "stateMutability": "view",
      "type": "function"
    },
    {
      "inputs": [],
      "name": "PORTFOLIO_AGENT_ROLE",
      "outputs": [
        {
          "internalType": "bytes32",
          "name": "",
          "type": "bytes32"
        }
      ],
      "stateMutability": "view",
      "type": "function"
    },
    {
      "inputs": [],
      "name": "PORTFOLIO_MANAGER",
      "outputs": [
        {
          "internalType": "bytes32",
          "name": "",
          "type": "bytes32"
        }
      ],
      "stateMutability": "view",
      "type": "function"
    },
    {
      "inputs": [
        {
          "internalType": "address",
          "name": "_to",
          "type": "address"
        }
      ],
      "name": "claimRewards",
      "outputs": [
        {
          "internalType": "uint256",
          "name": "",
          "type": "uint256"
        }
      ],
      "stateMutability": "nonpayable",
      "type": "function"
    },
    {
      "inputs": [
        {
          "internalType": "bytes32",
          "name": "role",
          "type": "bytes32"
        }
      ],
      "name": "getRoleAdmin",
      "outputs": [
        {
          "internalType": "bytes32",
          "name": "",
          "type": "bytes32"
        }
      ],
      "stateMutability": "view",
      "type": "function"
    },
    {
      "inputs": [
        {
          "internalType": "bytes32",
          "name": "role",
          "type": "bytes32"
        },
        {
          "internalType": "address",
          "name": "account",
          "type": "address"
        }
      ],
      "name": "grantRole",
      "outputs": [],
      "stateMutability": "nonpayable",
      "type": "function"
    },
    {
      "inputs": [
        {
          "internalType": "bytes32",
          "name": "role",
          "type": "bytes32"
        },
        {
          "internalType": "address",
          "name": "account",
          "type": "address"
        }
      ],
      "name": "hasRole",
      "outputs": [
        {
          "internalType": "bool",
          "name": "",
          "type": "bool"
        }
      ],
      "stateMutability": "view",
      "type": "function"
    },
    {
      "inputs": [],
      "name": "initialize",
      "outputs": [],
      "stateMutability": "nonpayable",
      "type": "function"
    },
    {
      "inputs": [],
      "name": "liquidationValue",
      "outputs": [
        {
          "internalType": "uint256",
          "name": "",
          "type": "uint256"
        }
      ],
      "stateMutability": "view",
      "type": "function"
    },
    {
      "inputs": [],
      "name": "lpUsdt",
      "outputs": [
        {
          "internalType": "contract IAsset",
          "name": "",
          "type": "address"
        }
      ],
      "stateMutability": "view",
      "type": "function"
    },
    {
      "inputs": [],
      "name": "lpUsdtDm",
      "outputs": [
        {
          "internalType": "uint256",
          "name": "",
          "type": "uint256"
        }
      ],
      "stateMutability": "view",
      "type": "function"
    },
    {
      "inputs": [],
      "name": "navSlippageBP",
      "outputs": [
        {
          "internalType": "uint256",
          "name": "",
          "type": "uint256"
        }
      ],
      "stateMutability": "view",
      "type": "function"
    },
    {
      "inputs": [],
      "name": "netAssetValue",
      "outputs": [
        {
          "internalType": "uint256",
          "name": "",
          "type": "uint256"
        }
      ],
      "stateMutability": "view",
      "type": "function"
    },
    {
      "inputs": [],
      "name": "oracleBusd",
      "outputs": [
        {
          "internalType": "contract IPriceFeed",
          "name": "",
          "type": "address"
        }
      ],
      "stateMutability": "view",
      "type": "function"
    },
    {
      "inputs": [],
      "name": "oracleUsdt",
      "outputs": [
        {
          "internalType": "contract IPriceFeed",
          "name": "",
          "type": "address"
        }
      ],
      "stateMutability": "view",
      "type": "function"
    },
    {
      "inputs": [],
      "name": "pancakeRouter",
      "outputs": [
        {
          "internalType": "contract IPancakeRouter02",
          "name": "",
          "type": "address"
        }
      ],
      "stateMutability": "view",
      "type": "function"
    },
    {
      "inputs": [],
      "name": "pool",
      "outputs": [
        {
          "internalType": "contract IPool",
          "name": "",
          "type": "address"
        }
      ],
      "stateMutability": "view",
      "type": "function"
    },
    {
      "inputs": [],
      "name": "poolDepositor",
      "outputs": [
        {
          "internalType": "contract IPoolDepositor",
          "name": "",
          "type": "address"
        }
      ],
      "stateMutability": "view",
      "type": "function"
    },
    {
      "inputs": [],
      "name": "portfolioManager",
      "outputs": [
        {
          "internalType": "address",
          "name": "",
          "type": "address"
        }
      ],
      "stateMutability": "view",
      "type": "function"
    },
    {
      "inputs": [],
      "name": "proxiableUUID",
      "outputs": [
        {
          "internalType": "bytes32",
          "name": "",
          "type": "bytes32"
        }
      ],
      "stateMutability": "view",
      "type": "function"
    },
    {
      "inputs": [
        {
          "internalType": "bytes32",
          "name": "role",
          "type": "bytes32"
        },
        {
          "internalType": "address",
          "name": "account",
          "type": "address"
        }
      ],
      "name": "renounceRole",
      "outputs": [],
      "stateMutability": "nonpayable",
      "type": "function"
    },
    {
      "inputs": [
        {
          "internalType": "bytes32",
          "name": "role",
          "type": "bytes32"
        },
        {
          "internalType": "address",
          "name": "account",
          "type": "address"
        }
      ],
      "name": "revokeRole",
      "outputs": [],
      "stateMutability": "nonpayable",
      "type": "function"
    },
    {
      "inputs": [
        {
          "components": [
            {
              "internalType": "address",
              "name": "usdt",
              "type": "address"
            },
            {
              "internalType": "address",
              "name": "wom",
              "type": "address"
            },
            {
              "internalType": "address",
              "name": "wmx",
              "type": "address"
            },
            {
              "internalType": "address",
              "name": "lpUsdt",
              "type": "address"
            },
            {
              "internalType": "address",
              "name": "wmxLpUsdt",
              "type": "address"
            },
            {
              "internalType": "address",
              "name": "poolDepositor",
              "type": "address"
            },
            {
              "internalType": "address",
              "name": "pool",
              "type": "address"
            },
            {
              "internalType": "address",
              "name": "pancakeRouter",
              "type": "address"
            },
            {
              "internalType": "address",
              "name": "wombatRouter",
              "type": "address"
            },
            {
              "internalType": "address",
              "name": "oracleUsdt",
              "type": "address"
            }
          ],
          "internalType": "struct StrategyWombexUsdt.StrategyParams",
          "name": "params",
          "type": "tuple"
        }
      ],
      "name": "setParams",
      "outputs": [],
      "stateMutability": "nonpayable",
      "type": "function"
    },
    {
      "inputs": [
        {
          "internalType": "address",
          "name": "_value",
          "type": "address"
        }
      ],
      "name": "setPortfolioManager",
      "outputs": [],
      "stateMutability": "nonpayable",
      "type": "function"
    },
    {
      "inputs": [
        {
          "internalType": "uint256",
          "name": "_swapSlippageBP",
          "type": "uint256"
        },
        {
          "internalType": "uint256",
          "name": "_navSlippageBP",
          "type": "uint256"
        },
        {
          "internalType": "uint256",
          "name": "_stakeSlippageBP",
          "type": "uint256"
        }
      ],
      "name": "setSlippages",
      "outputs": [],
      "stateMutability": "nonpayable",
      "type": "function"
    },
    {
      "inputs": [
        {
          "internalType": "address",
          "name": "_asset",
          "type": "address"
        },
        {
          "internalType": "uint256",
          "name": "_amount",
          "type": "uint256"
        }
      ],
      "name": "stake",
      "outputs": [],
      "stateMutability": "nonpayable",
      "type": "function"
    },
    {
      "inputs": [],
      "name": "stakeSlippageBP",
      "outputs": [
        {
          "internalType": "uint256",
          "name": "",
          "type": "uint256"
        }
      ],
      "stateMutability": "view",
      "type": "function"
    },
    {
      "inputs": [
        {
          "internalType": "bytes4",
          "name": "interfaceId",
          "type": "bytes4"
        }
      ],
      "name": "supportsInterface",
      "outputs": [
        {
          "internalType": "bool",
          "name": "",
          "type": "bool"
        }
      ],
      "stateMutability": "view",
      "type": "function"
    },
    {
      "inputs": [],
      "name": "swapSlippageBP",
      "outputs": [
        {
          "internalType": "uint256",
          "name": "",
          "type": "uint256"
        }
      ],
      "stateMutability": "view",
      "type": "function"
    },
    {
      "inputs": [
        {
          "internalType": "address",
          "name": "_asset",
          "type": "address"
        },
        {
          "internalType": "uint256",
          "name": "_amount",
          "type": "uint256"
        },
        {
          "internalType": "address",
          "name": "_beneficiary",
          "type": "address"
        },
        {
          "internalType": "bool",
          "name": "_targetIsZero",
          "type": "bool"
        }
      ],
      "name": "unstake",
      "outputs": [
        {
          "internalType": "uint256",
          "name": "",
          "type": "uint256"
        }
      ],
      "stateMutability": "nonpayable",
      "type": "function"
    },
    {
      "inputs": [
        {
          "internalType": "address",
          "name": "newImplementation",
          "type": "address"
        }
      ],
      "name": "upgradeTo",
      "outputs": [],
      "stateMutability": "nonpayable",
      "type": "function"
    },
    {
      "inputs": [
        {
          "internalType": "address",
          "name": "newImplementation",
          "type": "address"
        },
        {
          "internalType": "bytes",
          "name": "data",
          "type": "bytes"
        }
      ],
      "name": "upgradeToAndCall",
      "outputs": [],
      "stateMutability": "payable",
      "type": "function"
    },
    {
      "inputs": [],
      "name": "usdt",
      "outputs": [
        {
          "internalType": "contract IERC20",
          "name": "",
          "type": "address"
        }
      ],
      "stateMutability": "view",
      "type": "function"
    },
    {
      "inputs": [],
      "name": "usdtDm",
      "outputs": [
        {
          "internalType": "uint256",
          "name": "",
          "type": "uint256"
        }
      ],
      "stateMutability": "view",
      "type": "function"
    },
    {
      "inputs": [],
      "name": "wmx",
      "outputs": [
        {
          "internalType": "contract IERC20",
          "name": "",
          "type": "address"
        }
      ],
      "stateMutability": "view",
      "type": "function"
    },
    {
      "inputs": [],
      "name": "wmxLpUsdt",
      "outputs": [
        {
          "internalType": "contract IBaseRewardPool",
          "name": "",
          "type": "address"
        }
      ],
      "stateMutability": "view",
      "type": "function"
    },
    {
      "inputs": [],
      "name": "wom",
      "outputs": [
        {
          "internalType": "contract IERC20",
          "name": "",
          "type": "address"
        }
      ],
      "stateMutability": "view",
      "type": "function"
    },
    {
      "inputs": [],
      "name": "wombatRouter",
      "outputs": [
        {
          "internalType": "contract IWombatRouter",
          "name": "",
          "type": "address"
        }
      ],
      "stateMutability": "view",
      "type": "function"
    }
  ],
  "numDeployments": 4,
  "solcInputHash": "34e03abcdf9cbff860229bd958c7855a",
  "bytecode": "0x60a0604052306080523480156200001557600080fd5b50600054610100900460ff1615808015620000375750600054600160ff909116105b8062000067575062000054306200010860201b6200156f1760201c565b15801562000067575060005460ff166001145b6200008f5760405162461bcd60e51b8152600401620000869062000117565b60405180910390fd5b6000805460ff191660011790558015620000b3576000805461ff0019166101001790555b801562000101576000805461ff00191690556040517f7f26b83ff96e1f2b6a682f133852f6798a09c465da95921460cefb384740249890620000f8906001906200018d565b60405180910390a15b506200019d565b6001600160a01b03163b151590565b602080825281016200016a81602e81527f496e697469616c697a61626c653a20636f6e747261637420697320616c72656160208201526d191e481a5b9a5d1a585b1a5e995960921b604082015260600190565b92915050565b600060ff82166200016a565b620001878162000170565b82525050565b602081016200016a82846200017c565b608051613ad6620001d5600039600081816107a1015281816107e101528181610880015281816108c0015261094f0152613ad66000f3fe6080604052600436106102255760003560e01c80638129fc1c11610123578063b57075a5116100ab578063cc6522c31161006f578063cc6522c314610644578063ce83833614610665578063d547741f14610686578063ef5cfb8c146106a6578063f6f6b881146106c657600080fd5b8063b57075a5146105aa578063bd25c6db146105cb578063bf52e080146105ec578063c21ebd0714610602578063c5a6222e1461062357600080fd5b8063a3673b38116100f2578063a3673b3814610514578063a440b21a14610529578063a66b571314610549578063adc9772e1461056a578063ae30c1101461058a57600080fd5b80638129fc1c146104aa57806391d14854146104bf57806392d2918a146104df578063a217fddf146104ff57600080fd5b806334df87e7116101b15780635ca558f8116101755780635ca558f8146103f05780635dbd733a14610406578063612c87df1461043a578063620b75df1461045b5780637d5f58021461048857600080fd5b806334df87e71461037157806336568abe146103885780633659cfe6146103a85780634f1ef286146103c857806352d1902d146103db57600080fd5b806316f0115b116101f857806316f0115b146102c8578063248a9ca3146102e95780632576e65a146103195780632f2ff15d1461032e5780632f48ab7d1461035057600080fd5b806301ffc9a71461022a578063083975d4146102605780630f9033f71461028e578063119cd879146102b2575b600080fd5b34801561023657600080fd5b5061024a610245366004612a4f565b6106e6565b6040516102579190612a7a565b60405180910390f35b34801561026c57600080fd5b5061012f54610281906001600160a01b031681565b6040516102579190612ab8565b34801561029a57600080fd5b506102a56101385481565b6040516102579190612acc565b3480156102be57600080fd5b506102a560fd5481565b3480156102d457600080fd5b5061013354610281906001600160a01b031681565b3480156102f557600080fd5b506102a5610304366004612aeb565b60009081526065602052604090206001015490565b34801561032557600080fd5b506102a561071d565b34801561033a57600080fd5b5061034e610349366004612b20565b61072e565b005b34801561035c57600080fd5b5061012d54610281906001600160a01b031681565b34801561037d57600080fd5b506102a56101395481565b34801561039457600080fd5b5061034e6103a3366004612b20565b610758565b3480156103b457600080fd5b5061034e6103c3366004612b5d565b610797565b61034e6103d6366004612c74565b610876565b3480156103e757600080fd5b506102a5610942565b3480156103fc57600080fd5b506102a560fe5481565b34801561041257600080fd5b506102a57fd67ad422505496469a1adf6cdf9e5ee92ac5d33992843c9ecc4b2f6d6cde913781565b34801561044657600080fd5b5061013554610281906001600160a01b031681565b34801561046757600080fd5b5060fb5461047b906001600160a01b031681565b6040516102579190612ccb565b34801561049457600080fd5b506102a5600080516020613a3a83398151915281565b3480156104b657600080fd5b5061034e61099f565b3480156104cb57600080fd5b5061024a6104da366004612b20565b610a6d565b3480156104eb57600080fd5b5061034e6104fa366004612cf5565b610a98565b34801561050b57600080fd5b506102a5600081565b34801561052057600080fd5b506102a5610f23565b34801561053557600080fd5b5061034e610544366004612b5d565b610f2f565b34801561055557600080fd5b5061013654610281906001600160a01b031681565b34801561057657600080fd5b5061034e610585366004612d17565b611004565b34801561059657600080fd5b5061034e6105a5366004612d4a565b61115b565b3480156105b657600080fd5b5061013154610281906001600160a01b031681565b3480156105d757600080fd5b5061013254610281906001600160a01b031681565b3480156105f857600080fd5b506102a560fc5481565b34801561060e57600080fd5b5061013454610281906001600160a01b031681565b34801561062f57600080fd5b5061012e54610281906001600160a01b031681565b34801561065057600080fd5b5061013754610281906001600160a01b031681565b34801561067157600080fd5b5061013054610281906001600160a01b031681565b34801561069257600080fd5b5061034e6106a1366004612b20565b61127d565b3480156106b257600080fd5b506102a56106c1366004612b5d565b6112a2565b3480156106d257600080fd5b506102a56106e1366004612dad565b61132b565b60006001600160e01b03198216637965db0b60e01b148061071757506301ffc9a760e01b6001600160e01b03198316145b92915050565b6000610729600061157e565b905090565b60008281526065602052604090206001015461074981611709565b6107538383611713565b505050565b6001600160a01b03811633146107895760405162461bcd60e51b815260040161078090612e60565b60405180910390fd5b6107938282611799565b5050565b6001600160a01b037f00000000000000000000000000000000000000000000000000000000000000001630036107df5760405162461bcd60e51b815260040161078090612eb9565b7f00000000000000000000000000000000000000000000000000000000000000006001600160a01b0316610828600080516020613a5a833981519152546001600160a01b031690565b6001600160a01b03161461084e5760405162461bcd60e51b815260040161078090612f12565b61085781611800565b604080516000808252602082019092526108739183919061180b565b50565b6001600160a01b037f00000000000000000000000000000000000000000000000000000000000000001630036108be5760405162461bcd60e51b815260040161078090612eb9565b7f00000000000000000000000000000000000000000000000000000000000000006001600160a01b0316610907600080516020613a5a833981519152546001600160a01b031690565b6001600160a01b03161461092d5760405162461bcd60e51b815260040161078090612f12565b61093682611800565b6107938282600161180b565b6000306001600160a01b037f0000000000000000000000000000000000000000000000000000000000000000161461098c5760405162461bcd60e51b815260040161078090612f7c565b50600080516020613a5a83398151915290565b600054610100900460ff16158080156109bf5750600054600160ff909116105b806109d95750303b1580156109d9575060005460ff166001145b6109f55760405162461bcd60e51b815260040161078090612fd7565b6000805460ff191660011790558015610a18576000805461ff0019166101001790555b610a206118ed565b8015610873576000805461ff00191690556040517f7f26b83ff96e1f2b6a682f133852f6798a09c465da95921460cefb384740249890610a6290600190612ffb565b60405180910390a150565b60009182526065602090815260408084206001600160a01b0393909316845291905290205460ff1690565b610aa3600033610a6d565b610abf5760405162461bcd60e51b815260040161078090613037565b610acc6020820182612b5d565b61012d80546001600160a01b0319166001600160a01b0392909216919091179055610afd6040820160208301612b5d565b61012e80546001600160a01b0319166001600160a01b0392909216919091179055610b2e6060820160408301612b5d565b61012f80546001600160a01b0319166001600160a01b0392909216919091179055610b5f6080820160608301612b5d565b61013080546001600160a01b0319166001600160a01b0392909216919091179055610b9060a0820160808301612b5d565b61013180546001600160a01b0319166001600160a01b0392909216919091179055610bc160c0820160a08301612b5d565b61013280546001600160a01b0319166001600160a01b0392831617905561013054604080516316f0115b60e01b8152905191909216916316f0115b9160048083019260209291908290030181865afa158015610c21573d6000803e3d6000fd5b505050506040513d601f19601f82011682018060405250810190610c459190613052565b61013380546001600160a01b0319166001600160a01b0392909216919091179055610c77610100820160e08301612b5d565b61013480546001600160a01b0319166001600160a01b0392909216919091179055610caa61012082016101008301612b5d565b61013580546001600160a01b0319166001600160a01b0392909216919091179055610cdd61014082016101208301612b5d565b61013780546001600160a01b0319166001600160a01b0392909216919091179055610d0b6020820182612b5d565b6001600160a01b031663313ce5676040518163ffffffff1660e01b8152600401602060405180830381865afa158015610d48573d6000803e3d6000fd5b505050506040513d601f19601f82011682018060405250810190610d6c9190613087565b610d7790600a6131cc565b61013855610d8b6080820160608301612b5d565b6001600160a01b031663313ce5676040518163ffffffff1660e01b8152600401602060405180830381865afa158015610dc8573d6000803e3d6000fd5b505050506040513d601f19601f82011682018060405250810190610dec9190613087565b610df790600a6131cc565b6101395561012d546101325460405163095ea7b360e01b81526001600160a01b039283169263095ea7b392610e3592911690600019906004016131e1565b6020604051808303816000875af1158015610e54573d6000803e3d6000fd5b505050506040513d601f19601f82011682018060405250810190610e789190613207565b50610131546101325460405163095ea7b360e01b81526001600160a01b039283169263095ea7b392610eb392911690600019906004016131e1565b6020604051808303816000875af1158015610ed2573d6000803e3d6000fd5b505050506040513d601f19601f82011682018060405250810190610ef69190613207565b506040517fea5646eb3528e525944447a4a97de700dd472298626e5c0481d1c82c3da86ea590600090a150565b6000610729600161157e565b610f3a600033610a6d565b610f565760405162461bcd60e51b815260040161078090613037565b6001600160a01b038116610f7c5760405162461bcd60e51b81526004016107809061325c565b60fb54610fa190600080516020613a3a833981519152906001600160a01b031661127d565b610fb9600080516020613a3a8339815191528261072e565b60fb80546001600160a01b0319166001600160a01b0383161790556040517ff7b449fcd5cfb7379dcd34cb69428dd9f882033b15be33d83b42d91daa28eeb790610a62908390612ccb565b61101c600080516020613a3a83398151915233610a6d565b6110385760405162461bcd60e51b8152600401610780906132a0565b60006110a7306001600160a01b031663a3673b386040518163ffffffff1660e01b8152600401602060405180830381865afa15801561107b573d6000803e3d6000fd5b505050506040513d601f19601f8201168201806040525081019061109f91906132bb565b60fd546119d2565b905061111f83846001600160a01b03166370a08231306040518263ffffffff1660e01b81526004016110d99190612ccb565b602060405180830381865afa1580156110f6573d6000803e3d6000fd5b505050506040513d601f19601f8201168201806040525081019061111a91906132bb565b6119fc565b7f227a473b70d2f893cc7659219575c030a63b5743024fe1e0c1a680e708b1525a8260405161114e9190612acc565b60405180910390a1505050565b6111857fd67ad422505496469a1adf6cdf9e5ee92ac5d33992843c9ecc4b2f6d6cde913733610a6d565b8061121e575060fb54604051632474521560e21b81526001600160a01b03909116906391d14854906111dd907fd67ad422505496469a1adf6cdf9e5ee92ac5d33992843c9ecc4b2f6d6cde91379033906004016132dc565b602060405180830381865afa1580156111fa573d6000803e3d6000fd5b505050506040513d601f19601f8201168201806040525081019061121e9190613207565b61123a5760405162461bcd60e51b815260040161078090613336565b60fc83905560fd82905560fe8190556040517f116fbf1e97a2be629ad98abfb6c332733c8996c2dfb174dd2efe8440df381d1a9061114e90859085908590613346565b60008281526065602052604090206001015461129881611709565b6107538383611799565b60006112bc600080516020613a3a83398151915233610a6d565b6112d85760405162461bcd60e51b8152600401610780906132a0565b60006112e383611b78565b90508015611323577f3ac0594a85a20354f9dc74f33728416d19ce00d04a406c108cc2dcf2cecea1348160405161131a9190612acc565b60405180910390a15b90505b919050565b6000611345600080516020613a3a83398151915233610a6d565b6113615760405162461bcd60e51b8152600401610780906132a0565b60006113a4306001600160a01b031663a3673b386040518163ffffffff1660e01b8152600401602060405180830381865afa15801561107b573d6000803e3d6000fd5b905060008084156113cb576113b886611b78565b90506113c48887611eee565b91506113f8565b6113d6888888612187565b9150868210156113f85760405162461bcd60e51b8152600401610780906133b4565b82306001600160a01b031663a3673b386040518163ffffffff1660e01b8152600401602060405180830381865afa158015611437573d6000803e3d6000fd5b505050506040513d601f19601f8201168201806040525081019061145b91906132bb565b10156114795760405162461bcd60e51b8152600401610780906133f8565b60405163a9059cbb60e01b81526001600160a01b0389169063a9059cbb906114a790899086906004016131e1565b6020604051808303816000875af11580156114c6573d6000803e3d6000fd5b505050506040513d601f19601f820116820180604052508101906114ea9190613207565b507f9045c2ac9b2026de8075f2701bbdde882cd5e830b3b1ead9a15b22f2b5b93742878360405161151c929190613408565b60405180910390a18015611562577f3ac0594a85a20354f9dc74f33728416d19ce00d04a406c108cc2dcf2cecea134816040516115599190612acc565b60405180910390a15b509150505b949350505050565b6001600160a01b03163b151590565b61012d546040516370a0823160e01b815260009182916001600160a01b03909116906370a08231906115b4903090600401612ccb565b602060405180830381865afa1580156115d1573d6000803e3d6000fd5b505050506040513d601f19601f820116820180604052508101906115f591906132bb565b610131546040516370a0823160e01b81529192506000916001600160a01b03909116906370a082319061162c903090600401612ccb565b602060405180830381865afa158015611649573d6000803e3d6000fd5b505050506040513d601f19601f8201168201806040525081019061166d91906132bb565b9050801561170257610132546101305460405163135dbd1360e01b81526000926001600160a01b039081169263135dbd13926116b1929091169086906004016131e1565b6040805180830381865afa1580156116cd573d6000803e3d6000fd5b505050506040513d601f19601f820116820180604052508101906116f19190613416565b5090506116fe8184613449565b9250505b5092915050565b61087381336123c9565b61171d8282610a6d565b6107935760008281526065602090815260408083206001600160a01b03851684529091529020805460ff191660011790556117553390565b6001600160a01b0316816001600160a01b0316837f2f8788117e7eff1d82e926ec794901d17c78024a50270940304540a733656f0d60405160405180910390a45050565b6117a38282610a6d565b156107935760008281526065602090815260408083206001600160a01b0385168085529252808320805460ff1916905551339285917ff6391f5c32d9c69d2a47ea670b442974b53935d1edc7fd64eb21e047a839171b9190a45050565b600061079381611709565b7f4910fdfa16fed3260ed0e7147f7cc6da11a60208b5b9406d12a635614ffd91435460ff161561183e5761075383612422565b826001600160a01b03166352d1902d6040518163ffffffff1660e01b8152600401602060405180830381865afa925050508015611898575060408051601f3d908101601f19168201909252611895918101906132bb565b60015b6118b45760405162461bcd60e51b8152600401610780906134a7565b600080516020613a5a83398151915281146118e15760405162461bcd60e51b8152600401610780906134fd565b50610753838383612478565b600054610100900460ff161580801561190d5750600054600160ff909116105b806119275750303b158015611927575060005460ff166001145b6119435760405162461bcd60e51b815260040161078090612fd7565b6000805460ff191660011790558015611966576000805461ff0019166101001790555b61196e6124a3565b6119766124a3565b611981600033611713565b601960fc55602360fd55600460fe558015610873576000805461ff00191690556040517f7f26b83ff96e1f2b6a682f133852f6798a09c465da95921460cefb384740249890610a6290600190612ffb565b60006127106119e1838261350d565b6119eb9085613520565b6119f5919061354e565b9392505050565b61012d546040516370a0823160e01b81526000916001600160a01b0316906370a0823190611a2e903090600401612ccb565b602060405180830381865afa158015611a4b573d6000803e3d6000fd5b505050506040513d601f19601f82011682018060405250810190611a6f91906132bb565b6101325461013054604051630650739d60e41b81529293506000926001600160a01b039283169263650739d092611aad9291169086906004016131e1565b6040805180830381865afa158015611ac9573d6000803e3d6000fd5b505050506040513d601f19601f82011682018060405250810190611aed9190613416565b50610132546101305460fe549293506001600160a01b039182169263fe41e52492909116908590611b1f9086906119d2565b60016040518563ffffffff1660e01b8152600401611b409493929190613562565b600060405180830381600087803b158015611b5a57600080fd5b505af1158015611b6e573d6000803e3d6000fd5b5050505050505050565b610131546040516370a0823160e01b815260009182916001600160a01b03909116906370a0823190611bae903090600401612ccb565b602060405180830381865afa158015611bcb573d6000803e3d6000fd5b505050506040513d601f19601f82011682018060405250810190611bef91906132bb565b90508015611c705761013154604051637050ccd960e01b81526001600160a01b0390911690637050ccd990611c2b9030906000906004016135a0565b6020604051808303816000875af1158015611c4a573d6000803e3d6000fd5b505050506040513d601f19601f82011682018060405250810190611c6e9190613207565b505b61012e546040516370a0823160e01b815260009182916001600160a01b03909116906370a0823190611ca6903090600401612ccb565b602060405180830381865afa158015611cc3573d6000803e3d6000fd5b505050506040513d601f19601f82011682018060405250810190611ce791906132bb565b90508015611d75576101345461012e5461012d54600092611d19926001600160a01b03918216929082169116856124cc565b90508015611d73576101345461012e5461012d54600092611d63926001600160a01b03918216929082169116866064611d53886063613520565b611d5d919061354e565b306125e6565b9050611d6f8185613449565b9350505b505b61012f546040516370a0823160e01b81526000916001600160a01b0316906370a0823190611da7903090600401612ccb565b602060405180830381865afa158015611dc4573d6000803e3d6000fd5b505050506040513d601f19601f82011682018060405250810190611de891906132bb565b90508015611e66576101345461012f5461012d54600092611e1a926001600160a01b03918216929082169116856124cc565b90508015611e64576101345461012f5461012d54600092611e54926001600160a01b03918216929082169116866064611d53886063613520565b9050611e608186613449565b9450505b505b8215611ee45761012d5460405163a9059cbb60e01b81526001600160a01b039091169063a9059cbb90611e9f90899087906004016131e1565b6020604051808303816000875af1158015611ebe573d6000803e3d6000fd5b505050506040513d601f19601f82011682018060405250810190611ee29190613207565b505b5090949350505050565b61012d546000906001600160a01b03848116911614611f1f5760405162461bcd60e51b8152600401610780906135ef565b610131546040516370a0823160e01b81526000916001600160a01b0316906370a0823190611f51903090600401612ccb565b602060405180830381865afa158015611f6e573d6000803e3d6000fd5b505050506040513d601f19601f82011682018060405250810190611f9291906132bb565b9050801561211557610132546101305460405163135dbd1360e01b81526000926001600160a01b039081169263135dbd1392611fd6929091169086906004016131e1565b6040805180830381865afa158015611ff2573d6000803e3d6000fd5b505050506040513d601f19601f820116820180604052508101906120169190613416565b50610131546101325460405163095ea7b360e01b81529293506001600160a01b039182169263095ea7b39261205192169086906004016131e1565b6020604051808303816000875af1158015612070573d6000803e3d6000fd5b505050506040513d601f19601f820116820180604052508101906120949190613207565b50610132546101305460fe546001600160a01b03928316926316762eed92169085906120c19086906119d2565b306040518563ffffffff1660e01b81526004016120e194939291906135ff565b600060405180830381600087803b1580156120fb57600080fd5b505af115801561210f573d6000803e3d6000fd5b50505050505b61012d546040516370a0823160e01b81526001600160a01b03909116906370a0823190612146903090600401612ccb565b602060405180830381865afa158015612163573d6000803e3d6000fd5b505050506040513d601f19601f8201168201806040525081019061156791906132bb565b61012d546000906001600160a01b038581169116146121b85760405162461bcd60e51b8152600401610780906135ef565b61013254610130546101395460405163135dbd1360e01b81526000936001600160a01b039081169363135dbd13936121f79392909116916004016131e1565b6040805180830381865afa158015612213573d6000803e3d6000fd5b505050506040513d601f19601f820116820180604052508101906122379190613416565b5090506000816101395461224d8760fe5461277b565b6122579190613520565b612261919061354e565b610131546101325460405163095ea7b360e01b81529293506001600160a01b039182169263095ea7b39261229b92169085906004016131e1565b6020604051808303816000875af11580156122ba573d6000803e3d6000fd5b505050506040513d601f19601f820116820180604052508101906122de9190613207565b5061013254610130546040516316762eed60e01b81526001600160a01b03928316926316762eed9261231b9291169085908a9030906004016135ff565b600060405180830381600087803b15801561233557600080fd5b505af1158015612349573d6000803e3d6000fd5b505061012d546040516370a0823160e01b81526001600160a01b0390911692506370a08231915061237e903090600401612ccb565b602060405180830381865afa15801561239b573d6000803e3d6000fd5b505050506040513d601f19601f820116820180604052508101906123bf91906132bb565b9695505050505050565b6123d38282610a6d565b610793576123e08161278a565b6123eb83602061279c565b6040516020016123fc92919061367a565b60408051601f198184030181529082905262461bcd60e51b825261078091600401613704565b6001600160a01b0381163b6124495760405162461bcd60e51b81526004016107809061375f565b600080516020613a5a83398151915280546001600160a01b0319166001600160a01b0392909216919091179055565b61248183612908565b60008251118061248e5750805b156107535761249d8383612948565b50505050565b600054610100900460ff166124ca5760405162461bcd60e51b8152600401610780906137b7565b565b604080516002808252606082018352600092839291906020830190803683370190505090508481600081518110612505576125056137c7565b60200260200101906001600160a01b031690816001600160a01b0316815250508381600181518110612539576125396137c7565b6001600160a01b03928316602091820292909201015260405163d06ca61f60e01b815260009188169063d06ca61f90612578908790869060040161383a565b600060405180830381865afa158015612595573d6000803e3d6000fd5b505050506040513d6000823e601f3d908101601f191682016040526125bd91908101906138fd565b9050806001815181106125d2576125d26137c7565b602002602001015192505050949350505050565b60405163095ea7b360e01b81526000906001600160a01b0387169063095ea7b390612617908a9088906004016131e1565b6020604051808303816000875af1158015612636573d6000803e3d6000fd5b505050506040513d601f19601f8201168201806040525081019061265a9190613207565b506040805160028082526060820183526000926020830190803683370190505090508681600081518110612690576126906137c7565b60200260200101906001600160a01b031690816001600160a01b03168152505085816001815181106126c4576126c46137c7565b6001600160a01b0392831660209182029290920101526040516338ed173960e01b81526000918a16906338ed173990612709908990899087908a904290600401613938565b6000604051808303816000875af1158015612728573d6000803e3d6000fd5b505050506040513d6000823e601f3d908101601f1916820160405261275091908101906138fd565b905080600181518110612765576127656137c7565b6020026020010151925050509695505050505050565b60006127106119e18382613449565b60606107176001600160a01b03831660145b606060006127ab836002613520565b6127b6906002613449565b67ffffffffffffffff8111156127ce576127ce612b7e565b6040519080825280601f01601f1916602001820160405280156127f8576020820181803683370190505b509050600360fc1b81600081518110612813576128136137c7565b60200101906001600160f81b031916908160001a905350600f60fb1b81600181518110612842576128426137c7565b60200101906001600160f81b031916908160001a9053506000612866846002613520565b612871906001613449565b90505b60018111156128e9576f181899199a1a9b1b9c1cb0b131b232b360811b85600f16601081106128a5576128a56137c7565b1a60f81b8282815181106128bb576128bb6137c7565b60200101906001600160f81b031916908160001a90535060049490941c936128e281613981565b9050612874565b5083156119f55760405162461bcd60e51b8152600401610780906139ca565b61291181612422565b6040516001600160a01b038216907fbc7cd75a20ee27fd9adebab32041f755214dbc6bffa90cc0225b39da2e5c2d3b90600090a250565b60606001600160a01b0383163b6129715760405162461bcd60e51b815260040161078090613a1d565b600080846001600160a01b03168460405161298c9190613a2d565b600060405180830381855af49150503d80600081146129c7576040519150601f19603f3d011682016040523d82523d6000602084013e6129cc565b606091505b50915091506116fe8282604051806060016040528060278152602001613a7a60279139606083156129fe5750816119f5565b6119f58383815115612a135781518083602001fd5b8060405162461bcd60e51b81526004016107809190613704565b6001600160e01b031981165b811461087357600080fd5b803561071781612a2d565b600060208284031215612a6457612a64600080fd5b60006115678484612a44565b8015155b82525050565b602081016107178284612a70565b60006001600160a01b038216610717565b600061071782612a88565b600061071782612a99565b612a7481612aa4565b602081016107178284612aaf565b80612a74565b602081016107178284612ac6565b80612a39565b803561071781612ada565b600060208284031215612b0057612b00600080fd5b60006115678484612ae0565b612a3981612a88565b803561071781612b0c565b60008060408385031215612b3657612b36600080fd5b6000612b428585612ae0565b9250506020612b5385828601612b15565b9150509250929050565b600060208284031215612b7257612b72600080fd5b60006115678484612b15565b634e487b7160e01b600052604160045260246000fd5b601f19601f830116810181811067ffffffffffffffff82111715612bba57612bba612b7e565b6040525050565b6000612bcc60405190565b90506113268282612b94565b600067ffffffffffffffff821115612bf257612bf2612b7e565b601f19601f83011660200192915050565b82818337506000910152565b6000612c22612c1d84612bd8565b612bc1565b905082815260208101848484011115612c3d57612c3d600080fd5b612c48848285612c03565b509392505050565b600082601f830112612c6457612c64600080fd5b8135611567848260208601612c0f565b60008060408385031215612c8a57612c8a600080fd5b6000612c968585612b15565b925050602083013567ffffffffffffffff811115612cb657612cb6600080fd5b612b5385828601612c50565b612a7481612a88565b602081016107178284612cc2565b60006101408284031215612cef57612cef600080fd5b50919050565b60006101408284031215612d0b57612d0b600080fd5b60006115678484612cd9565b60008060408385031215612d2d57612d2d600080fd5b6000612d398585612b15565b9250506020612b5385828601612ae0565b600080600060608486031215612d6257612d62600080fd5b6000612d6e8686612ae0565b9350506020612d7f86828701612ae0565b9250506040612d9086828701612ae0565b9150509250925092565b801515612a39565b803561071781612d9a565b60008060008060808587031215612dc657612dc6600080fd5b6000612dd28787612b15565b9450506020612de387828801612ae0565b9350506040612df487828801612b15565b9250506060612e0587828801612da2565b91505092959194509250565b602f81526000602082017f416363657373436f6e74726f6c3a2063616e206f6e6c792072656e6f756e636581526e103937b632b9903337b91039b2b63360891b602082015291505b5060400190565b6020808252810161071781612e11565b602c81526000602082017f46756e6374696f6e206d7573742062652063616c6c6564207468726f7567682081526b19195b1959d85d1958d85b1b60a21b60208201529150612e59565b6020808252810161071781612e70565b602c81526000602082017f46756e6374696f6e206d7573742062652063616c6c6564207468726f7567682081526b6163746976652070726f787960a01b60208201529150612e59565b6020808252810161071781612ec9565b603881526000602082017f555550535570677261646561626c653a206d757374206e6f742062652063616c81527f6c6564207468726f7567682064656c656761746563616c6c000000000000000060208201529150612e59565b6020808252810161071781612f22565b602e81526000602082017f496e697469616c697a61626c653a20636f6e747261637420697320616c72656181526d191e481a5b9a5d1a585b1a5e995960921b60208201529150612e59565b6020808252810161071781612f8c565b600060ff8216610717565b612a7481612fe7565b602081016107178284612ff2565b60148152600060208201735265737472696374656420746f2061646d696e7360601b815291505b5060200190565b6020808252810161071781613009565b805161071781612b0c565b60006020828403121561306757613067600080fd5b60006115678484613047565b60ff8116612a39565b805161071781613073565b60006020828403121561309c5761309c600080fd5b6000611567848461307c565b634e487b7160e01b600052601160045260246000fd5b80825b60018511156130fd578086048111156130dc576130dc6130a8565b60018516156130ea57908102905b80026130f68560011c90565b94506130c1565b94509492505050565b600082613115575060016119f5565b81613122575060006119f5565b816001811461313857600281146131425761316f565b60019150506119f5565b60ff841115613153576131536130a8565b8360020a915084821115613169576131696130a8565b506119f5565b5060208310610133831016604e8410600b84101617156131a2575081810a8381111561319d5761319d6130a8565b6119f5565b6131af84848460016130be565b925090508184048111156131c5576131c56130a8565b0292915050565b600060ff831692506119f56000198484613106565b604081016131ef8285612cc2565b6119f56020830184612ac6565b805161071781612d9a565b60006020828403121561321c5761321c600080fd5b600061156784846131fc565b601881526000602082017f5a65726f2061646472657373206e6f7420616c6c6f776564000000000000000081529150613030565b6020808252810161071781613228565b601f81526000602082017f5265737472696374656420746f20504f5254464f4c494f5f4d414e414745520081529150613030565b602080825281016107178161326c565b805161071781612ada565b6000602082840312156132d0576132d0600080fd5b600061156784846132b0565b604081016132ea8285612ac6565b6119f56020830184612cc2565b602281526000602082017f5265737472696374656420746f20504f5254464f4c494f5f4147454e545f524f8152614c4560f01b60208201529150612e59565b60208082528101610717816132f7565b606081016133548286612ac6565b6133616020830185612ac6565b6115676040830184612ac6565b602981526000602082017f52657475726e65642076616c7565206c657373207468616e2072657175657374815268195908185b5bdd5b9d60ba1b60208201529150612e59565b602080825281016107178161336e565b601f81526000602082017f5374726174656779204e4156206c657373207468616e2065787065637465640081529150613030565b60208082528101610717816133c4565b604081016131ef8285612ac6565b6000806040838503121561342c5761342c600080fd5b600061343885856132b0565b9250506020612b53858286016132b0565b80820180821115610717576107176130a8565b602e81526000602082017f45524331393637557067726164653a206e657720696d706c656d656e7461746981526d6f6e206973206e6f74205555505360901b60208201529150612e59565b602080825281016107178161345c565b602981526000602082017f45524331393637557067726164653a20756e737570706f727465642070726f788152681a58589b195555525160ba1b60208201529150612e59565b60208082528101610717816134b7565b81810381811115610717576107176130a8565b818102808215838204851417611702576117026130a8565b634e487b7160e01b600052601260045260246000fd5b60008261355d5761355d613538565b500490565b608081016135708287612cc2565b61357d6020830186612ac6565b61358a6040830185612ac6565b6135976060830184612a70565b95945050505050565b604081016135ae8285612cc2565b6119f56020830184612a70565b601981526000602082017f536f6d6520746f6b656e206e6f7420636f6d70617469626c650000000000000081529150613030565b60208082528101610717816135bb565b6080810161360d8287612cc2565b61361a6020830186612ac6565b6136276040830185612ac6565b6135976060830184612cc2565b60005b8381101561364f578181015183820152602001613637565b50506000910152565b6000613662825190565b613670818560208601613634565b9290920192915050565b7f416363657373436f6e74726f6c3a206163636f756e7420000000000000000000815260170160006136ac8285613658565b7001034b99036b4b9b9b4b733903937b6329607d1b815260110191506115678284613658565b60006136dc825190565b8084526020840193506136f3818560208601613634565b601f01601f19169290920192915050565b602080825281016119f581846136d2565b602d81526000602082017f455243313936373a206e657720696d706c656d656e746174696f6e206973206e81526c1bdd08184818dbdb9d1c9858dd609a1b60208201529150612e59565b6020808252810161071781613715565b602b81526000602082017f496e697469616c697a61626c653a20636f6e7472616374206973206e6f74206981526a6e697469616c697a696e6760a81b60208201529150612e59565b602080825281016107178161376f565b634e487b7160e01b600052603260045260246000fd5b60006137e98383612cc2565b505060200190565b60006137fb825190565b80845260209384019383018060005b8381101561382f57815161381e88826137dd565b97506020830192505060010161380a565b509495945050505050565b604081016138488285612ac6565b818103602083015261156781846137f1565b600067ffffffffffffffff82111561387457613874612b7e565b5060209081020190565b600061388c612c1d8461385a565b838152905060208082019084028301858111156138ab576138ab600080fd5b835b818110156138cf57806138c088826132b0565b845250602092830192016138ad565b5050509392505050565b600082601f8301126138ed576138ed600080fd5b815161156784826020860161387e565b60006020828403121561391257613912600080fd5b815167ffffffffffffffff81111561392c5761392c600080fd5b611567848285016138d9565b60a081016139468288612ac6565b6139536020830187612ac6565b818103604083015261396581866137f1565b90506139746060830185612cc2565b6123bf6080830184612ac6565b600081613990576139906130a8565b506000190190565b60208082527f537472696e67733a20686578206c656e67746820696e73756666696369656e7491019081526000613030565b6020808252810161071781613998565b602681526000602082017f416464726573733a2064656c65676174652063616c6c20746f206e6f6e2d636f8152651b9d1c9858dd60d21b60208201529150612e59565b60208082528101610717816139da565b60006119f5828461365856fe90c2aa7471c04182221f68e80c07ab1e5946e4c63f8693e14ca40385d529f051360894a13ba1a3210667c828492db98dca3e2076cc3735a920a3ca505d382bbc416464726573733a206c6f772d6c6576656c2064656c65676174652063616c6c206661696c6564a264697066735822122026236bba13622c3b166578554a1e8c14a3c209d0804b1e114081251d70de285c64736f6c63430008110033",
  "implementation": "0x76F046da4d9cb4e7d0e10bF9C461d6A81a21614e",
  "devdoc": {
    "kind": "dev",
    "methods": {
      "constructor": {
        "custom:oz-upgrades-unsafe-allow": "constructor"
      },
      "getRoleAdmin(bytes32)": {
        "details": "Returns the admin role that controls `role`. See {grantRole} and {revokeRole}. To change a role's admin, use {_setRoleAdmin}."
      },
      "grantRole(bytes32,address)": {
        "details": "Grants `role` to `account`. If `account` had not been already granted `role`, emits a {RoleGranted} event. Requirements: - the caller must have ``role``'s admin role. May emit a {RoleGranted} event."
      },
      "hasRole(bytes32,address)": {
        "details": "Returns `true` if `account` has been granted `role`."
      },
      "proxiableUUID()": {
        "details": "Implementation of the ERC1822 {proxiableUUID} function. This returns the storage slot used by the implementation. It is used to validate the implementation's compatibility when performing an upgrade. IMPORTANT: A proxy pointing at a proxiable contract should not be considered proxiable itself, because this risks bricking a proxy that upgrades to it, by delegating to itself until out of gas. Thus it is critical that this function revert if invoked through a proxy. This is guaranteed by the `notDelegated` modifier."
      },
      "renounceRole(bytes32,address)": {
        "details": "Revokes `role` from the calling account. Roles are often managed via {grantRole} and {revokeRole}: this function's purpose is to provide a mechanism for accounts to lose their privileges if they are compromised (such as when a trusted device is misplaced). If the calling account had been revoked `role`, emits a {RoleRevoked} event. Requirements: - the caller must be `account`. May emit a {RoleRevoked} event."
      },
      "revokeRole(bytes32,address)": {
        "details": "Revokes `role` from `account`. If `account` had been granted `role`, emits a {RoleRevoked} event. Requirements: - the caller must have ``role``'s admin role. May emit a {RoleRevoked} event."
      },
      "supportsInterface(bytes4)": {
        "details": "See {IERC165-supportsInterface}."
      },
      "upgradeTo(address)": {
        "details": "Upgrade the implementation of the proxy to `newImplementation`. Calls {_authorizeUpgrade}. Emits an {Upgraded} event."
      },
      "upgradeToAndCall(address,bytes)": {
        "details": "Upgrade the implementation of the proxy to `newImplementation`, and subsequently execute the function call encoded in `data`. Calls {_authorizeUpgrade}. Emits an {Upgraded} event."
      }
    },
    "version": 1
  },
  "userdoc": {
    "kind": "user",
    "methods": {},
    "version": 1
  },
  "storageLayout": {
    "storage": [
      {
        "astId": 804,
        "contract": "contracts/strategies/StrategyWombexUsdt.sol:StrategyWombexUsdt",
        "label": "_initialized",
        "offset": 0,
        "slot": "0",
        "type": "t_uint8"
      },
      {
        "astId": 807,
        "contract": "contracts/strategies/StrategyWombexUsdt.sol:StrategyWombexUsdt",
        "label": "_initializing",
        "offset": 1,
        "slot": "0",
        "type": "t_bool"
      },
      {
        "astId": 1657,
        "contract": "contracts/strategies/StrategyWombexUsdt.sol:StrategyWombexUsdt",
        "label": "__gap",
        "offset": 0,
        "slot": "1",
        "type": "t_array(t_uint256)50_storage"
      },
      {
        "astId": 1936,
        "contract": "contracts/strategies/StrategyWombexUsdt.sol:StrategyWombexUsdt",
        "label": "__gap",
        "offset": 0,
        "slot": "51",
        "type": "t_array(t_uint256)50_storage"
      },
      {
        "astId": 39,
        "contract": "contracts/strategies/StrategyWombexUsdt.sol:StrategyWombexUsdt",
        "label": "_roles",
        "offset": 0,
        "slot": "101",
        "type": "t_mapping(t_bytes32,t_struct(RoleData)34_storage)"
      },
      {
        "astId": 334,
        "contract": "contracts/strategies/StrategyWombexUsdt.sol:StrategyWombexUsdt",
        "label": "__gap",
        "offset": 0,
        "slot": "102",
        "type": "t_array(t_uint256)49_storage"
      },
      {
        "astId": 786,
        "contract": "contracts/strategies/StrategyWombexUsdt.sol:StrategyWombexUsdt",
        "label": "__gap",
        "offset": 0,
        "slot": "151",
        "type": "t_array(t_uint256)50_storage"
      },
      {
        "astId": 1101,
        "contract": "contracts/strategies/StrategyWombexUsdt.sol:StrategyWombexUsdt",
        "label": "__gap",
        "offset": 0,
        "slot": "201",
        "type": "t_array(t_uint256)50_storage"
      },
      {
        "astId": 6481,
        "contract": "contracts/strategies/StrategyWombexUsdt.sol:StrategyWombexUsdt",
        "label": "portfolioManager",
        "offset": 0,
        "slot": "251",
        "type": "t_address"
      },
      {
        "astId": 6483,
        "contract": "contracts/strategies/StrategyWombexUsdt.sol:StrategyWombexUsdt",
        "label": "swapSlippageBP",
        "offset": 0,
        "slot": "252",
        "type": "t_uint256"
      },
      {
        "astId": 6485,
        "contract": "contracts/strategies/StrategyWombexUsdt.sol:StrategyWombexUsdt",
        "label": "navSlippageBP",
        "offset": 0,
        "slot": "253",
        "type": "t_uint256"
      },
      {
        "astId": 6487,
        "contract": "contracts/strategies/StrategyWombexUsdt.sol:StrategyWombexUsdt",
        "label": "stakeSlippageBP",
        "offset": 0,
        "slot": "254",
        "type": "t_uint256"
      },
      {
        "astId": 6863,
        "contract": "contracts/strategies/StrategyWombexUsdt.sol:StrategyWombexUsdt",
        "label": "__gap",
        "offset": 0,
        "slot": "255",
        "type": "t_array(t_uint256)46_storage"
      },
      {
        "astId": 16423,
        "contract": "contracts/strategies/StrategyWombexUsdt.sol:StrategyWombexUsdt",
        "label": "usdt",
        "offset": 0,
        "slot": "301",
        "type": "t_contract(IERC20)2892"
      },
      {
        "astId": 16426,
        "contract": "contracts/strategies/StrategyWombexUsdt.sol:StrategyWombexUsdt",
        "label": "wom",
        "offset": 0,
        "slot": "302",
        "type": "t_contract(IERC20)2892"
      },
      {
        "astId": 16429,
        "contract": "contracts/strategies/StrategyWombexUsdt.sol:StrategyWombexUsdt",
        "label": "wmx",
        "offset": 0,
        "slot": "303",
        "type": "t_contract(IERC20)2892"
      },
      {
        "astId": 16432,
        "contract": "contracts/strategies/StrategyWombexUsdt.sol:StrategyWombexUsdt",
        "label": "lpUsdt",
        "offset": 0,
        "slot": "304",
        "type": "t_contract(IAsset)11078"
      },
      {
        "astId": 16435,
        "contract": "contracts/strategies/StrategyWombexUsdt.sol:StrategyWombexUsdt",
        "label": "wmxLpUsdt",
        "offset": 0,
        "slot": "305",
        "type": "t_contract(IBaseRewardPool)11335"
      },
      {
        "astId": 16438,
        "contract": "contracts/strategies/StrategyWombexUsdt.sol:StrategyWombexUsdt",
        "label": "poolDepositor",
        "offset": 0,
        "slot": "306",
        "type": "t_contract(IPoolDepositor)11380"
      },
      {
        "astId": 16441,
        "contract": "contracts/strategies/StrategyWombexUsdt.sol:StrategyWombexUsdt",
        "label": "pool",
        "offset": 0,
        "slot": "307",
        "type": "t_contract(IPool)11510"
      },
      {
        "astId": 16444,
        "contract": "contracts/strategies/StrategyWombexUsdt.sol:StrategyWombexUsdt",
        "label": "pancakeRouter",
        "offset": 0,
        "slot": "308",
        "type": "t_contract(IPancakeRouter02)8151"
      },
      {
        "astId": 16447,
        "contract": "contracts/strategies/StrategyWombexUsdt.sol:StrategyWombexUsdt",
        "label": "wombatRouter",
        "offset": 0,
        "slot": "309",
        "type": "t_contract(IWombatRouter)10358"
      },
      {
        "astId": 16450,
        "contract": "contracts/strategies/StrategyWombexUsdt.sol:StrategyWombexUsdt",
        "label": "oracleBusd",
        "offset": 0,
        "slot": "310",
        "type": "t_contract(IPriceFeed)6939"
      },
      {
        "astId": 16453,
        "contract": "contracts/strategies/StrategyWombexUsdt.sol:StrategyWombexUsdt",
        "label": "oracleUsdt",
        "offset": 0,
        "slot": "311",
        "type": "t_contract(IPriceFeed)6939"
      },
      {
        "astId": 16455,
        "contract": "contracts/strategies/StrategyWombexUsdt.sol:StrategyWombexUsdt",
        "label": "usdtDm",
        "offset": 0,
        "slot": "312",
        "type": "t_uint256"
      },
      {
        "astId": 16457,
        "contract": "contracts/strategies/StrategyWombexUsdt.sol:StrategyWombexUsdt",
        "label": "lpUsdtDm",
        "offset": 0,
        "slot": "313",
        "type": "t_uint256"
      }
    ],
    "types": {
      "t_address": {
        "encoding": "inplace",
        "label": "address",
        "numberOfBytes": "20"
      },
      "t_array(t_uint256)46_storage": {
        "base": "t_uint256",
        "encoding": "inplace",
        "label": "uint256[46]",
        "numberOfBytes": "1472"
      },
      "t_array(t_uint256)49_storage": {
        "base": "t_uint256",
        "encoding": "inplace",
        "label": "uint256[49]",
        "numberOfBytes": "1568"
      },
      "t_array(t_uint256)50_storage": {
        "base": "t_uint256",
        "encoding": "inplace",
        "label": "uint256[50]",
        "numberOfBytes": "1600"
      },
      "t_bool": {
        "encoding": "inplace",
        "label": "bool",
        "numberOfBytes": "1"
      },
      "t_bytes32": {
        "encoding": "inplace",
        "label": "bytes32",
        "numberOfBytes": "32"
      },
      "t_contract(IAsset)11078": {
        "encoding": "inplace",
        "label": "contract IAsset",
        "numberOfBytes": "20"
      },
      "t_contract(IBaseRewardPool)11335": {
        "encoding": "inplace",
        "label": "contract IBaseRewardPool",
        "numberOfBytes": "20"
      },
      "t_contract(IERC20)2892": {
        "encoding": "inplace",
        "label": "contract IERC20",
        "numberOfBytes": "20"
      },
      "t_contract(IPancakeRouter02)8151": {
        "encoding": "inplace",
        "label": "contract IPancakeRouter02",
        "numberOfBytes": "20"
      },
      "t_contract(IPool)11510": {
        "encoding": "inplace",
        "label": "contract IPool",
        "numberOfBytes": "20"
      },
      "t_contract(IPoolDepositor)11380": {
        "encoding": "inplace",
        "label": "contract IPoolDepositor",
        "numberOfBytes": "20"
      },
      "t_contract(IPriceFeed)6939": {
        "encoding": "inplace",
        "label": "contract IPriceFeed",
        "numberOfBytes": "20"
      },
      "t_contract(IWombatRouter)10358": {
        "encoding": "inplace",
        "label": "contract IWombatRouter",
        "numberOfBytes": "20"
      },
      "t_mapping(t_address,t_bool)": {
        "encoding": "mapping",
        "key": "t_address",
        "label": "mapping(address => bool)",
        "numberOfBytes": "32",
        "value": "t_bool"
      },
      "t_mapping(t_bytes32,t_struct(RoleData)34_storage)": {
        "encoding": "mapping",
        "key": "t_bytes32",
        "label": "mapping(bytes32 => struct AccessControlUpgradeable.RoleData)",
        "numberOfBytes": "32",
        "value": "t_struct(RoleData)34_storage"
      },
      "t_struct(RoleData)34_storage": {
        "encoding": "inplace",
        "label": "struct AccessControlUpgradeable.RoleData",
        "members": [
          {
            "astId": 31,
            "contract": "contracts/strategies/StrategyWombexUsdt.sol:StrategyWombexUsdt",
            "label": "members",
            "offset": 0,
            "slot": "0",
            "type": "t_mapping(t_address,t_bool)"
          },
          {
            "astId": 33,
            "contract": "contracts/strategies/StrategyWombexUsdt.sol:StrategyWombexUsdt",
            "label": "adminRole",
            "offset": 0,
            "slot": "1",
            "type": "t_bytes32"
          }
        ],
        "numberOfBytes": "64"
      },
      "t_uint256": {
        "encoding": "inplace",
        "label": "uint256",
        "numberOfBytes": "32"
      },
      "t_uint8": {
        "encoding": "inplace",
        "label": "uint8",
        "numberOfBytes": "1"
      }
    }
  }
}