{
  "address": "0x5Ee314a2Ec4657edF2f1A4Eaf9230187613CE356",
  "abi": [
    {
      "inputs": [],
      "stateMutability": "nonpayable",
      "type": "constructor"
    },
    {
      "anonymous": false,
      "inputs": [
        {
          "indexed": false,
          "internalType": "address",
          "name": "previousAdmin",
          "type": "address"
        },
        {
          "indexed": false,
          "internalType": "address",
          "name": "newAdmin",
          "type": "address"
        }
      ],
      "name": "AdminChanged",
      "type": "event"
    },
    {
      "anonymous": false,
      "inputs": [
        {
          "indexed": false,
          "internalType": "address",
          "name": "value",
          "type": "address"
        }
      ],
      "name": "AssetUpdated",
      "type": "event"
    },
    {
      "anonymous": false,
      "inputs": [],
      "name": "Balance",
      "type": "event"
    },
    {
      "anonymous": false,
      "inputs": [
        {
          "indexed": true,
          "internalType": "address",
          "name": "beacon",
          "type": "address"
        }
      ],
      "name": "BeaconUpgraded",
      "type": "event"
    },
    {
      "anonymous": false,
      "inputs": [
        {
          "indexed": false,
          "internalType": "address",
          "name": "value",
          "type": "address"
        }
      ],
      "name": "CashStrategyAlreadySet",
      "type": "event"
    },
    {
      "anonymous": false,
      "inputs": [
        {
          "indexed": false,
          "internalType": "uint256",
          "name": "value",
          "type": "uint256"
        }
      ],
      "name": "CashStrategyRestaked",
      "type": "event"
    },
    {
      "anonymous": false,
      "inputs": [
        {
          "indexed": false,
          "internalType": "address",
          "name": "value",
          "type": "address"
        }
      ],
      "name": "CashStrategyUpdated",
      "type": "event"
    },
    {
      "anonymous": false,
      "inputs": [
        {
          "indexed": false,
          "internalType": "uint256",
          "name": "amount",
          "type": "uint256"
        },
        {
          "indexed": false,
          "internalType": "address",
          "name": "from",
          "type": "address"
        },
        {
          "indexed": false,
          "internalType": "address",
          "name": "to",
          "type": "address"
        }
      ],
      "name": "Exchanged",
      "type": "event"
    },
    {
      "anonymous": false,
      "inputs": [
        {
          "indexed": false,
          "internalType": "address",
          "name": "value",
          "type": "address"
        }
      ],
      "name": "ExchangerUpdated",
      "type": "event"
    },
    {
      "anonymous": false,
      "inputs": [
        {
          "indexed": false,
          "internalType": "uint8",
          "name": "version",
          "type": "uint8"
        }
      ],
      "name": "Initialized",
      "type": "event"
    },
    {
      "anonymous": false,
      "inputs": [
        {
          "indexed": false,
          "internalType": "address",
          "name": "value",
          "type": "address"
        }
      ],
      "name": "Mark2MarketUpdated",
      "type": "event"
    },
    {
      "anonymous": false,
      "inputs": [
        {
          "indexed": true,
          "internalType": "bytes32",
          "name": "role",
          "type": "bytes32"
        },
        {
          "indexed": true,
          "internalType": "bytes32",
          "name": "previousAdminRole",
          "type": "bytes32"
        },
        {
          "indexed": true,
          "internalType": "bytes32",
          "name": "newAdminRole",
          "type": "bytes32"
        }
      ],
      "name": "RoleAdminChanged",
      "type": "event"
    },
    {
      "anonymous": false,
      "inputs": [
        {
          "indexed": true,
          "internalType": "bytes32",
          "name": "role",
          "type": "bytes32"
        },
        {
          "indexed": true,
          "internalType": "address",
          "name": "account",
          "type": "address"
        },
        {
          "indexed": true,
          "internalType": "address",
          "name": "sender",
          "type": "address"
        }
      ],
      "name": "RoleGranted",
      "type": "event"
    },
    {
      "anonymous": false,
      "inputs": [
        {
          "indexed": true,
          "internalType": "bytes32",
          "name": "role",
          "type": "bytes32"
        },
        {
          "indexed": true,
          "internalType": "address",
          "name": "account",
          "type": "address"
        },
        {
          "indexed": true,
          "internalType": "address",
          "name": "sender",
          "type": "address"
        }
      ],
      "name": "RoleRevoked",
      "type": "event"
    },
    {
      "anonymous": false,
      "inputs": [
        {
          "indexed": false,
          "internalType": "uint256",
          "name": "index",
          "type": "uint256"
        },
        {
          "indexed": false,
          "internalType": "address",
          "name": "strategy",
          "type": "address"
        },
        {
          "indexed": false,
          "internalType": "uint256",
          "name": "minWeight",
          "type": "uint256"
        },
        {
          "indexed": false,
          "internalType": "uint256",
          "name": "targetWeight",
          "type": "uint256"
        },
        {
          "indexed": false,
          "internalType": "uint256",
          "name": "maxWeight",
          "type": "uint256"
        },
        {
          "indexed": false,
          "internalType": "uint256",
          "name": "riskFactor",
          "type": "uint256"
        },
        {
          "indexed": false,
          "internalType": "bool",
          "name": "enabled",
          "type": "bool"
        },
        {
          "indexed": false,
          "internalType": "bool",
          "name": "enabledReward",
          "type": "bool"
        }
      ],
      "name": "StrategyWeightUpdated",
      "type": "event"
    },
    {
      "anonymous": false,
      "inputs": [
        {
          "indexed": false,
          "internalType": "uint256",
          "name": "value",
          "type": "uint256"
        }
      ],
      "name": "TotalRiskFactorUpdated",
      "type": "event"
    },
    {
      "anonymous": false,
      "inputs": [
        {
          "indexed": true,
          "internalType": "address",
          "name": "implementation",
          "type": "address"
        }
      ],
      "name": "Upgraded",
      "type": "event"
    },
    {
      "inputs": [],
      "name": "DEFAULT_ADMIN_ROLE",
      "outputs": [
        {
          "internalType": "bytes32",
          "name": "",
          "type": "bytes32"
        }
      ],
      "stateMutability": "view",
      "type": "function"
    },
    {
      "inputs": [],
      "name": "EXCHANGER",
      "outputs": [
        {
          "internalType": "bytes32",
          "name": "",
          "type": "bytes32"
        }
      ],
      "stateMutability": "view",
      "type": "function"
    },
    {
      "inputs": [],
      "name": "PORTFOLIO_AGENT_ROLE",
      "outputs": [
        {
          "internalType": "bytes32",
          "name": "",
          "type": "bytes32"
        }
      ],
      "stateMutability": "view",
      "type": "function"
    },
    {
      "inputs": [],
      "name": "TOTAL_WEIGHT",
      "outputs": [
        {
          "internalType": "uint256",
          "name": "",
          "type": "uint256"
        }
      ],
      "stateMutability": "view",
      "type": "function"
    },
    {
      "inputs": [
        {
          "internalType": "address",
          "name": "_strategy",
          "type": "address"
        }
      ],
      "name": "addStrategy",
      "outputs": [],
      "stateMutability": "nonpayable",
      "type": "function"
    },
    {
      "inputs": [],
      "name": "balance",
      "outputs": [],
      "stateMutability": "nonpayable",
      "type": "function"
    },
    {
      "inputs": [],
      "name": "cashStrategy",
      "outputs": [
        {
          "internalType": "contract IStrategy",
          "name": "",
          "type": "address"
        }
      ],
      "stateMutability": "view",
      "type": "function"
    },
    {
      "inputs": [],
      "name": "claimAndBalance",
      "outputs": [],
      "stateMutability": "nonpayable",
      "type": "function"
    },
    {
      "inputs": [],
      "name": "deposit",
      "outputs": [],
      "stateMutability": "nonpayable",
      "type": "function"
    },
    {
      "inputs": [],
      "name": "exchanger",
      "outputs": [
        {
          "internalType": "address",
          "name": "",
          "type": "address"
        }
      ],
      "stateMutability": "view",
      "type": "function"
    },
    {
      "inputs": [],
      "name": "getAllStrategyWeights",
      "outputs": [
        {
          "components": [
            {
              "internalType": "address",
              "name": "strategy",
              "type": "address"
            },
            {
              "internalType": "uint256",
              "name": "minWeight",
              "type": "uint256"
            },
            {
              "internalType": "uint256",
              "name": "targetWeight",
              "type": "uint256"
            },
            {
              "internalType": "uint256",
              "name": "maxWeight",
              "type": "uint256"
            },
            {
              "internalType": "uint256",
              "name": "riskFactor",
              "type": "uint256"
            },
            {
              "internalType": "bool",
              "name": "enabled",
              "type": "bool"
            },
            {
              "internalType": "bool",
              "name": "enabledReward",
              "type": "bool"
            }
          ],
          "internalType": "struct IPortfolioManager.StrategyWeight[]",
          "name": "",
          "type": "tuple[]"
        }
      ],
      "stateMutability": "view",
      "type": "function"
    },
    {
      "inputs": [
        {
          "internalType": "bytes32",
          "name": "role",
          "type": "bytes32"
        }
      ],
      "name": "getRoleAdmin",
      "outputs": [
        {
          "internalType": "bytes32",
          "name": "",
          "type": "bytes32"
        }
      ],
      "stateMutability": "view",
      "type": "function"
    },
    {
      "inputs": [
        {
          "internalType": "address",
          "name": "strategy",
          "type": "address"
        }
      ],
      "name": "getStrategyWeight",
      "outputs": [
        {
          "components": [
            {
              "internalType": "address",
              "name": "strategy",
              "type": "address"
            },
            {
              "internalType": "uint256",
              "name": "minWeight",
              "type": "uint256"
            },
            {
              "internalType": "uint256",
              "name": "targetWeight",
              "type": "uint256"
            },
            {
              "internalType": "uint256",
              "name": "maxWeight",
              "type": "uint256"
            },
            {
              "internalType": "uint256",
              "name": "riskFactor",
              "type": "uint256"
            },
            {
              "internalType": "bool",
              "name": "enabled",
              "type": "bool"
            },
            {
              "internalType": "bool",
              "name": "enabledReward",
              "type": "bool"
            }
          ],
          "internalType": "struct IPortfolioManager.StrategyWeight",
          "name": "",
          "type": "tuple"
        }
      ],
      "stateMutability": "view",
      "type": "function"
    },
    {
      "inputs": [],
      "name": "getTotalRiskFactor",
      "outputs": [
        {
          "internalType": "uint256",
          "name": "",
          "type": "uint256"
        }
      ],
      "stateMutability": "view",
      "type": "function"
    },
    {
      "inputs": [
        {
          "internalType": "bytes32",
          "name": "role",
          "type": "bytes32"
        },
        {
          "internalType": "address",
          "name": "account",
          "type": "address"
        }
      ],
      "name": "grantRole",
      "outputs": [],
      "stateMutability": "nonpayable",
      "type": "function"
    },
    {
      "inputs": [
        {
          "internalType": "bytes32",
          "name": "role",
          "type": "bytes32"
        },
        {
          "internalType": "address",
          "name": "account",
          "type": "address"
        }
      ],
      "name": "hasRole",
      "outputs": [
        {
          "internalType": "bool",
          "name": "",
          "type": "bool"
        }
      ],
      "stateMutability": "view",
      "type": "function"
    },
    {
      "inputs": [],
      "name": "initialize",
      "outputs": [],
      "stateMutability": "nonpayable",
      "type": "function"
    },
    {
      "inputs": [],
      "name": "m2m",
      "outputs": [
        {
          "internalType": "contract IMark2Market",
          "name": "",
          "type": "address"
        }
      ],
      "stateMutability": "view",
      "type": "function"
    },
    {
      "inputs": [],
      "name": "proxiableUUID",
      "outputs": [
        {
          "internalType": "bytes32",
          "name": "",
          "type": "bytes32"
        }
      ],
      "stateMutability": "view",
      "type": "function"
    },
    {
      "inputs": [
        {
          "internalType": "address",
          "name": "_strategy",
          "type": "address"
        }
      ],
      "name": "removeStrategy",
      "outputs": [],
      "stateMutability": "nonpayable",
      "type": "function"
    },
    {
      "inputs": [
        {
          "internalType": "bytes32",
          "name": "role",
          "type": "bytes32"
        },
        {
          "internalType": "address",
          "name": "account",
          "type": "address"
        }
      ],
      "name": "renounceRole",
      "outputs": [],
      "stateMutability": "nonpayable",
      "type": "function"
    },
    {
      "inputs": [
        {
          "internalType": "bytes32",
          "name": "role",
          "type": "bytes32"
        },
        {
          "internalType": "address",
          "name": "account",
          "type": "address"
        }
      ],
      "name": "revokeRole",
      "outputs": [],
      "stateMutability": "nonpayable",
      "type": "function"
    },
    {
      "inputs": [
        {
          "internalType": "address",
          "name": "_asset",
          "type": "address"
        }
      ],
      "name": "setAsset",
      "outputs": [],
      "stateMutability": "nonpayable",
      "type": "function"
    },
    {
      "inputs": [
        {
          "internalType": "address",
          "name": "_cashStrategy",
          "type": "address"
        }
      ],
      "name": "setCashStrategy",
      "outputs": [],
      "stateMutability": "nonpayable",
      "type": "function"
    },
    {
      "inputs": [
        {
          "internalType": "address",
          "name": "_exchanger",
          "type": "address"
        }
      ],
      "name": "setExchanger",
      "outputs": [],
      "stateMutability": "nonpayable",
      "type": "function"
    },
    {
      "inputs": [
        {
          "internalType": "address",
          "name": "_m2m",
          "type": "address"
        }
      ],
      "name": "setMark2Market",
      "outputs": [],
      "stateMutability": "nonpayable",
      "type": "function"
    },
    {
      "inputs": [
        {
          "components": [
            {
              "internalType": "address",
              "name": "strategy",
              "type": "address"
            },
            {
              "internalType": "uint256",
              "name": "minWeight",
              "type": "uint256"
            },
            {
              "internalType": "uint256",
              "name": "targetWeight",
              "type": "uint256"
            },
            {
              "internalType": "uint256",
              "name": "maxWeight",
              "type": "uint256"
            },
            {
              "internalType": "uint256",
              "name": "riskFactor",
              "type": "uint256"
            },
            {
              "internalType": "bool",
              "name": "enabled",
              "type": "bool"
            },
            {
              "internalType": "bool",
              "name": "enabledReward",
              "type": "bool"
            }
          ],
          "internalType": "struct IPortfolioManager.StrategyWeight[]",
          "name": "_strategyWeights",
          "type": "tuple[]"
        }
      ],
      "name": "setStrategyWeights",
      "outputs": [],
      "stateMutability": "nonpayable",
      "type": "function"
    },
    {
      "inputs": [
        {
          "internalType": "address",
          "name": "",
          "type": "address"
        }
      ],
      "name": "strategyWeightPositions",
      "outputs": [
        {
          "internalType": "uint256",
          "name": "",
          "type": "uint256"
        }
      ],
      "stateMutability": "view",
      "type": "function"
    },
    {
      "inputs": [
        {
          "internalType": "uint256",
          "name": "",
          "type": "uint256"
        }
      ],
      "name": "strategyWeights",
      "outputs": [
        {
          "internalType": "address",
          "name": "strategy",
          "type": "address"
        },
        {
          "internalType": "uint256",
          "name": "minWeight",
          "type": "uint256"
        },
        {
          "internalType": "uint256",
          "name": "targetWeight",
          "type": "uint256"
        },
        {
          "internalType": "uint256",
          "name": "maxWeight",
          "type": "uint256"
        },
        {
          "internalType": "uint256",
          "name": "riskFactor",
          "type": "uint256"
        },
        {
          "internalType": "bool",
          "name": "enabled",
          "type": "bool"
        },
        {
          "internalType": "bool",
          "name": "enabledReward",
          "type": "bool"
        }
      ],
      "stateMutability": "view",
      "type": "function"
    },
    {
      "inputs": [
        {
          "internalType": "bytes4",
          "name": "interfaceId",
          "type": "bytes4"
        }
      ],
      "name": "supportsInterface",
      "outputs": [
        {
          "internalType": "bool",
          "name": "",
          "type": "bool"
        }
      ],
      "stateMutability": "view",
      "type": "function"
    },
    {
      "inputs": [],
      "name": "totalRiskFactor",
      "outputs": [
        {
          "internalType": "uint256",
          "name": "",
          "type": "uint256"
        }
      ],
      "stateMutability": "view",
      "type": "function"
    },
    {
      "inputs": [
        {
          "internalType": "address",
          "name": "newImplementation",
          "type": "address"
        }
      ],
      "name": "upgradeTo",
      "outputs": [],
      "stateMutability": "nonpayable",
      "type": "function"
    },
    {
      "inputs": [
        {
          "internalType": "address",
          "name": "newImplementation",
          "type": "address"
        },
        {
          "internalType": "bytes",
          "name": "data",
          "type": "bytes"
        }
      ],
      "name": "upgradeToAndCall",
      "outputs": [],
      "stateMutability": "payable",
      "type": "function"
    },
    {
      "inputs": [
        {
          "internalType": "uint256",
          "name": "_amount",
          "type": "uint256"
        }
      ],
      "name": "withdraw",
      "outputs": [
        {
          "internalType": "uint256",
          "name": "",
          "type": "uint256"
        }
      ],
      "stateMutability": "nonpayable",
      "type": "function"
    }
  ],
  "numDeployments": 2,
  "solcInputHash": "1f3773eaa0df40900baf23958259d87e",
  "bytecode": "0x60a0604052306080523480156200001557600080fd5b50600054610100900460ff1615808015620000375750600054600160ff909116105b8062000067575062000054306200010860201b620022561760201c565b15801562000067575060005460ff166001145b6200008f5760405162461bcd60e51b8152600401620000869062000117565b60405180910390fd5b6000805460ff191660011790558015620000b3576000805461ff0019166101001790555b801562000101576000805461ff00191690556040517f7f26b83ff96e1f2b6a682f133852f6798a09c465da95921460cefb384740249890620000f8906001906200018d565b60405180910390a15b506200019d565b6001600160a01b03163b151590565b602080825281016200016a81602e81527f496e697469616c697a61626c653a20636f6e747261637420697320616c72656160208201526d191e481a5b9a5d1a585b1a5e995960921b604082015260600190565b92915050565b600060ff82166200016a565b620001878162000170565b82525050565b602081016200016a82846200017c565b60805161479a620001d560003960008181610f9c01528181610fdc0152818161111f0152818161115f01526111ee015261479a6000f3fe6080604052600436106101f95760003560e01c80635dbd733a1161010d578063b69ef8a8116100a0578063d0e30db01161006f578063d0e30db0146105da578063d547741f146105ef578063da909b091461060f578063ed2a2f9d1461062f578063f281d4381461064657600080fd5b8063b69ef8a81461056e578063bd0f105314610583578063c6bbf4cb146105a5578063d0d552dd146105ba57600080fd5b806391d14854116100dc57806391d14854146105025780639b1dcfec14610522578063a217fddf14610542578063acffa9331461055757600080fd5b80635dbd733a1461045957806375e8bdfa1461048d5780638129fc1c146104ba5780638e6c8ab3146104cf57600080fd5b806336568abe116101905780634953bd071161015f5780634953bd07146103ce5780634d12fca4146103e45780634f1ef2861461041157806352d1902d1461042457806359d57c1a1461043957600080fd5b806336568abe1461034d5780633659cfe61461036d578063370447711461038d5780633d92c38b146103ad57600080fd5b8063248a9ca3116101cc578063248a9ca3146102a357806329cb1bee146102e05780632e1a7d4d1461030d5780632f2ff15d1461032d57600080fd5b806301ffc9a7146101fe57806306e7392414610234578063175188e814610261578063223e547914610283575b600080fd5b34801561020a57600080fd5b5061021e6102193660046134f1565b610668565b60405161022b919061351c565b60405180910390f35b34801561024057600080fd5b5061025461024f36600461354f565b61069f565b60405161022b9190613602565b34801561026d57600080fd5b5061028161027c36600461354f565b6107de565b005b34801561028f57600080fd5b5061028161029e36600461354f565b610b5f565b3480156102af57600080fd5b506102d36102be366004613621565b60009081526065602052604090206001015490565b60405161022b9190613642565b3480156102ec57600080fd5b5060ff54610300906001600160a01b031681565b60405161022b9190613692565b34801561031957600080fd5b506102d3610328366004613621565b610c78565b34801561033957600080fd5b506102816103483660046136a0565b610f32565b34801561035957600080fd5b506102816103683660046136a0565b610f5c565b34801561037957600080fd5b5061028161038836600461354f565b610f92565b34801561039957600080fd5b506102816103a836600461354f565b611071565b3480156103b957600080fd5b5061010054610300906001600160a01b031681565b3480156103da57600080fd5b50610101546102d3565b3480156103f057600080fd5b5060fb54610404906001600160a01b031681565b60405161022b91906136dd565b61028161041f3660046137e1565b611115565b34801561043057600080fd5b506102d36111e1565b34801561044557600080fd5b5061028161045436600461354f565b61123e565b34801561046557600080fd5b506102d37fd67ad422505496469a1adf6cdf9e5ee92ac5d33992843c9ecc4b2f6d6cde913781565b34801561049957600080fd5b506102d36104a836600461354f565b60fd6020526000908152604090205481565b3480156104c657600080fd5b50610281611557565b3480156104db57600080fd5b506104ef6104ea366004613621565b61162d565b60405161022b979695949392919061382f565b34801561050e57600080fd5b5061021e61051d3660046136a0565b611689565b34801561052e57600080fd5b5061028161053d3660046138e9565b6116b4565b34801561054e57600080fd5b506102d3600081565b34801561056357600080fd5b506102d36101015481565b34801561057a57600080fd5b50610281611b37565b34801561058f57600080fd5b506102d36000805160206146d083398151915281565b3480156105b157600080fd5b50610281611bb0565b3480156105c657600080fd5b506102816105d536600461354f565b611bf6565b3480156105e657600080fd5b50610281611c8e565b3480156105fb57600080fd5b5061028161060a3660046136a0565b6120a9565b34801561061b57600080fd5b5061028161062a36600461354f565b6120ce565b34801561063b57600080fd5b506102d3620186a081565b34801561065257600080fd5b5061065b6121a3565b60405161022b919061398e565b60006001600160e01b03198216637965db0b60e01b148061069957506301ffc9a760e01b6001600160e01b03198316145b92915050565b6106ec6040518060e0016040528060006001600160a01b03168152602001600081526020016000815260200160008152602001600081526020016000151581526020016000151581525090565b60fe546000036107175760405162461bcd60e51b815260040161070e906139cb565b60405180910390fd5b6001600160a01b038216600090815260fd602052604081205460fe80549091908110610745576107456139db565b60009182526020918290206040805160e081018252600690930290910180546001600160a01b0390811680855260018301549585019590955260028201549284019290925260038101546060840152600481015460808401526005015460ff808216151560a085015261010090910416151560c08301529092508416146106995760405162461bcd60e51b815260040161070e906139cb565b6107e9600033611689565b6108055760405162461bcd60e51b815260040161070e90613a1c565b6001600160a01b038116600090815260fd602052604081205460fe805491929183908110610835576108356139db565b60009182526020918290206040805160e081018252600690930290910180546001600160a01b0390811680855260018301549585019590955260028201549284019290925260038101546060840152600481015460808401526005015460ff808216151560a085015261010090910416151560c08301529092508416146108ce5760405162461bcd60e51b815260040161070e90613a60565b6040810151156108f05760405162461bcd60e51b815260040161070e90613aa4565b80600001516001600160a01b031663a3673b386040518163ffffffff1660e01b8152600401602060405180830381865afa158015610932573d6000803e3d6000fd5b505050506040513d601f19601f820116820180604052508101906109569190613abf565b156109735760405162461bcd60e51b815260040161070e90613b0d565b815b60fe5461098490600190613b33565b811015610ae157600060fe61099a836001613b46565b815481106109aa576109aa6139db565b60009182526020918290206040805160e081018252600690930290910180546001600160a01b03168352600181015493830193909352600283015490820152600382015460608201526004820154608082015260059091015460ff808216151560a084015261010090910416151560c082015260fe8054919250829184908110610a3657610a366139db565b6000918252602080832084516006939093020180546001600160a01b0319166001600160a01b039384161781558482015160018201556040808601516002830155606086015160038301556080860151600483015560a08601516005909201805460c09097015161ffff1990971692151561ff0019169290921761010096151596909602959095179055935116815260fd909252902081905580610ad981613b59565b915050610975565b5060fe805480610af357610af3613b73565b6000828152602080822060066000199094019384020180546001600160a01b031916815560018101839055600281018390556003810183905560048101839055600501805461ffff19169055919092556001600160a01b0394909416815260fd90935250506040812055565b610b6a600033611689565b610b865760405162461bcd60e51b815260040161070e90613a1c565b60005b60fe5460ff82161015610bff57816001600160a01b031660fe8260ff1681548110610bb657610bb66139db565b60009182526020909120600690910201546001600160a01b031603610bed5760405162461bcd60e51b815260040161070e90613bb6565b80610bf781613bc6565b915050610b89565b506040805160e0810182526001600160a01b0383168152600060208201819052918101829052606081018290526080810182905260a0810182905260c0810182905260fe5490919015610c51575060fe545b610c5b8282612265565b90516001600160a01b0316600090815260fd602052604090205550565b6000610c926000805160206146d083398151915233611689565b610cae5760405162461bcd60e51b815260040161070e90613c10565b60ff546001600160a01b0316610cd65760405162461bcd60e51b815260040161070e90613c54565b60ff54604080516312bb732d60e11b815290516000926001600160a01b031691632576e65a9160048083019260209291908290030181865afa158015610d20573d6000803e3d6000fd5b505050506040513d601f19601f82011682018060405250810190610d449190613abf565b905082811115610dd25760ff5460fc5460405163f6f6b88160e01b81526001600160a01b039283169263f6f6b88192610d899291169087903090600090600401613c64565b6020604051808303816000875af1158015610da8573d6000803e3d6000fd5b505050506040513d601f19601f82011682018060405250810190610dcc9190613abf565b50610de8565b60fc54610de8906001600160a01b0316846123cc565b60fc546040516370a0823160e01b81526000916001600160a01b0316906370a0823190610e199030906004016136dd565b602060405180830381865afa158015610e36573d6000803e3d6000fd5b505050506040513d601f19601f82011682018060405250810190610e5a9190613abf565b905083811015610ead57610e6d81612cad565b610e7685612cad565b604051602001610e87929190613cdf565b60408051601f198184030181529082905262461bcd60e51b825261070e91600401613d7d565b60fc5460fb5460405163a9059cbb60e01b81526001600160a01b039283169263a9059cbb92610ee3929116908890600401613d8e565b6020604051808303816000875af1158015610f02573d6000803e3d6000fd5b505050506040513d601f19601f82011682018060405250810190610f269190613dbc565b5083925050505b919050565b600082815260656020526040902060010154610f4d81612db6565b610f578383612dc0565b505050565b6001600160a01b0381163314610f845760405162461bcd60e51b815260040161070e90613e2c565b610f8e8282612e46565b5050565b6001600160a01b037f0000000000000000000000000000000000000000000000000000000000000000163003610fda5760405162461bcd60e51b815260040161070e90613e85565b7f00000000000000000000000000000000000000000000000000000000000000006001600160a01b03166110236000805160206146f0833981519152546001600160a01b031690565b6001600160a01b0316146110495760405162461bcd60e51b815260040161070e90613ede565b61105281612ead565b6040805160008082526020820190925261106e91839190612eb8565b50565b61107c600033611689565b6110985760405162461bcd60e51b815260040161070e90613a1c565b6001600160a01b0381166110be5760405162461bcd60e51b815260040161070e90613f22565b61010080546001600160a01b0319166001600160a01b0383161790556040517f2387291c358bb5414b9fdcdfeb40efddb696908065a6533e47bf60b395f7dcfd9061110a9083906136dd565b60405180910390a150565b6001600160a01b037f000000000000000000000000000000000000000000000000000000000000000016300361115d5760405162461bcd60e51b815260040161070e90613e85565b7f00000000000000000000000000000000000000000000000000000000000000006001600160a01b03166111a66000805160206146f0833981519152546001600160a01b031690565b6001600160a01b0316146111cc5760405162461bcd60e51b815260040161070e90613ede565b6111d582612ead565b610f8e82826001612eb8565b6000306001600160a01b037f0000000000000000000000000000000000000000000000000000000000000000161461122b5760405162461bcd60e51b815260040161070e90613f8c565b506000805160206146f083398151915290565b611249600033611689565b6112655760405162461bcd60e51b815260040161070e90613a1c565b6001600160a01b03811661128b5760405162461bcd60e51b815260040161070e90613f22565b60ff546001600160a01b03908116908216036112d0577f47ffb57d9975263bcf9c547a81d76b51e81fd87f6a69b8189e744921dda0005c8160405161110a91906136dd565b60ff546001600160a01b0316158015906113655760ff5460fc5460405163f6f6b88160e01b81526001600160a01b039283169263f6f6b88192611320929116906000903090600190600401613fb1565b6020604051808303816000875af115801561133f573d6000803e3d6000fd5b505050506040513d601f19601f820116820180604052508101906113639190613abf565b505b60ff80546001600160a01b0319166001600160a01b038416179055801561151c5760fc546040516370a0823160e01b81526000916001600160a01b0316906370a08231906113b79030906004016136dd565b602060405180830381865afa1580156113d4573d6000803e3d6000fd5b505050506040513d601f19601f820116820180604052508101906113f89190613abf565b9050801561151a5760fc5460ff5460405163a9059cbb60e01b81526001600160a01b039283169263a9059cbb92611436929116908590600401613d8e565b6020604051808303816000875af1158015611455573d6000803e3d6000fd5b505050506040513d601f19601f820116820180604052508101906114799190613dbc565b5060ff5460fc546040516356e4bb9760e11b81526001600160a01b039283169263adc9772e926114b0929116908590600401613d8e565b600060405180830381600087803b1580156114ca57600080fd5b505af11580156114de573d6000803e3d6000fd5b505050507f0eab4ceb0e0bf74211211d85efd51fec6d84d5ce7719dd107af8818194bcd97f816040516115119190613642565b60405180910390a15b505b7fd82ec5aca3f5d594d6f9a7d8a97e332f1e6319efddf9b0bf445d87348ac4b0e38260405161154b91906136dd565b60405180910390a15050565b600054610100900460ff16158080156115775750600054600160ff909116105b806115915750303b158015611591575060005460ff166001145b6115ad5760405162461bcd60e51b815260040161070e90614017565b6000805460ff1916600117905580156115d0576000805461ff0019166101001790555b6115d8612f9a565b6115e0612f9a565b6115eb600033612dc0565b801561106e576000805461ff00191690556040517f7f26b83ff96e1f2b6a682f133852f6798a09c465da95921460cefb38474024989061110a9060019061403b565b60fe818154811061163d57600080fd5b60009182526020909120600690910201805460018201546002830154600384015460048501546005909501546001600160a01b0390941695509193909260ff8082169161010090041687565b60009182526065602090815260408084206001600160a01b0393909316845291905290205460ff1690565b6116de7fd67ad422505496469a1adf6cdf9e5ee92ac5d33992843c9ecc4b2f6d6cde913733611689565b6116fa5760405162461bcd60e51b815260040161070e9061407d565b6117386040518060400160405280601d81526020017f706f7274666f6c696f2073657420737472617465677920776569676874000000815250612fc1565b60fe5481146117595760405162461bcd60e51b815260040161070e906140c1565b60fe54600090819067ffffffffffffffff811115611779576117796136eb565b6040519080825280602002602001820160405280156117a2578160200160208202803683370190505b5090506000805b60ff8116851115611acf57600086868360ff168181106117cb576117cb6139db565b905060e002018036038101906117e1919061418a565b80516001600160a01b0316600090815260fd602052604090205490915061180781613004565b848181518110611819576118196139db565b6020026020010151151560011515036118445760405162461bcd60e51b815260040161070e906141d6565b600060fe8281548110611859576118596139db565b60009182526020918290206040805160e081018252600690930290910180546001600160a01b0390811680855260018301549585019590955260028201549284019290925260038101546060840152600481015460808401526005015460ff808216151560a085015261010090910416151560c0830152855191935016146118f35760405162461bcd60e51b815260040161070e9061421a565b82604001518360200151111561191b5760405162461bcd60e51b815260040161070e90614273565b8260600151836040015111156119435760405162461bcd60e51b815260040161070e906142cc565b60408301516119529088613b46565b96508260fe8381548110611968576119686139db565b600091825260209182902083516006929092020180546001600160a01b0319166001600160a01b039092169190911781559082015160018083019190915560408301516002830155606083015160038301556080830151600483015560a08301516005909201805460c09094015161ffff1990941692151561ff00191692909217610100931515939093029290921790558651879084908110611a0d57611a0d6139db565b6020026020010190151590811515815250506103e8836040015160648560800151611a3891906142f2565b611a429190614306565b611a4c91906142f2565b611a569086613b46565b94507fc7d6a10819f5d6f3fd2acf9d38519fb9ca604adcf565d719841b60c161c6730182846000015185602001518660400151876060015188608001518960a001518a60c00151604051611ab1989796959493929190614325565b60405180910390a15050508080611ac790613bc6565b9150506117a9565b50620186a08314611af25760405162461bcd60e51b815260040161070e906143e2565b6101018190556040517fe2ee1ef0b4d76337ccec0a920efb7ded63e020263ae1dc0a23754194693d626990611b28908390613642565b60405180910390a15050505050565b611b617fd67ad422505496469a1adf6cdf9e5ee92ac5d33992843c9ecc4b2f6d6cde913733611689565b611b7d5760405162461bcd60e51b815260040161070e9061407d565b611b85613047565b6040517f0ef67887023bd7b8411cf35c89d19498bc1c980684932ef5f5b0559bfac80d9a90600090a1565b611bc86000805160206146d083398151915233611689565b611be45760405162461bcd60e51b815260040161070e90613c10565b611bec613052565b611bf4613047565b565b611c01600033611689565b611c1d5760405162461bcd60e51b815260040161070e90613a1c565b6001600160a01b038116611c435760405162461bcd60e51b815260040161070e90613f22565b60fc80546001600160a01b0319166001600160a01b0383161790556040517f80758ef37af3558d372b5a6b2d6906a49e09a13921e7de88ad18525a6f6d5a9a9061110a9083906136dd565b611ca66000805160206146d083398151915233611689565b611cc25760405162461bcd60e51b815260040161070e90613c10565b60ff546001600160a01b0316611cea5760405162461bcd60e51b815260040161070e90613c54565b611d286040518060400160405280601981526020017f706f7274666f6c696f206d616e61676572206465706f73697400000000000000815250612fc1565b60fc546040516370a0823160e01b81526000916001600160a01b0316906370a0823190611d599030906004016136dd565b602060405180830381865afa158015611d76573d6000803e3d6000fd5b505050506040513d601f19601f82011682018060405250810190611d9a9190613abf565b9050611da581613004565b80600003611dce5761106e6040518060600160405280602e8152602001614737602e9139612fc1565b806000805b60fe5460ff82161015611ef35760fe8160ff1681548110611df657611df66139db565b600091825260209091206005600690920201015460ff1615611ee15760fe8160ff1681548110611e2857611e286139db565b6000918252602091829020600690910201546040805163146ce76760e31b815290516001600160a01b039092169263a3673b38926004808401938290030181865afa158015611e7b573d6000803e3d6000fd5b505050506040513d601f19601f82011682018060405250810190611e9f9190613abf565b611ea99084613b46565b925060fe8160ff1681548110611ec157611ec16139db565b90600052602060002090600602016002015482611ede9190613b46565b91505b80611eeb81613bc6565b915050611dd3565b5060ff546040805163146ce76760e31b815290516000926001600160a01b03169163a3673b389160048083019260209291908290030181865afa158015611f3e573d6000803e3d6000fd5b505050506040513d601f19601f82011682018060405250810190611f629190613abf565b60ff54909150600090611f7d906001600160a01b031661069f565b9050600083826060015186611f929190614306565b611f9c91906142f2565b905080611fa98785613b46565b10156120995760fc5460ff5460405163a9059cbb60e01b81526001600160a01b039283169263a9059cbb92611fe5929116908a90600401613d8e565b6020604051808303816000875af1158015612004573d6000803e3d6000fd5b505050506040513d601f19601f820116820180604052508101906120289190613dbc565b5060ff5460fc546040516356e4bb9760e11b81526001600160a01b039283169263adc9772e9261205f929116908a90600401613d8e565b600060405180830381600087803b15801561207957600080fd5b505af115801561208d573d6000803e3d6000fd5b50505050505050505050565b6120a1613047565b505050505050565b6000828152606560205260409020600101546120c481612db6565b610f578383612e46565b6120d9600033611689565b6120f55760405162461bcd60e51b815260040161070e90613a1c565b6001600160a01b03811661211b5760405162461bcd60e51b815260040161070e90613f22565b60fb54612140906000805160206146d0833981519152906001600160a01b03166120a9565b6121586000805160206146d083398151915282610f32565b60fb80546001600160a01b0319166001600160a01b0383161790556040517f1af34e943bb581f62718acd39caf1a640e9ff89789a197745e259d1f40cd9bd69061110a9083906136dd565b606060fe805480602002602001604051908101604052809291908181526020016000905b8282101561224d5760008481526020908190206040805160e0810182526006860290920180546001600160a01b031683526001808201548486015260028201549284019290925260038101546060840152600481015460808401526005015460ff808216151560a085015261010090910416151560c083015290835290920191016121c7565b50505050905090565b6001600160a01b03163b151590565b60fe5480158061227e57508161227c600183613b33565b105b156122cb57600061228f8284613b33565b61229a906001613b46565b905060005b818160ff1610156122c85760fe80546001018155600052806122c081613bc6565b91505061229f565b50505b8260fe83815481106122df576122df6139db565b6000918252602091829020835160069092020180546001600160a01b039092166001600160a01b031990921691909117815582820151600182015560408084015160028301556060808501516003840155608080860151600485015560a0808701516005909501805460c09889015115156101000261ff00199715159790971661ffff19909116179590951790945588519489015189840151928a0151918a0151948a0151968a015193517fc7d6a10819f5d6f3fd2acf9d38519fb9ca604adcf565d719841b60c161c67301976123bf978b979096939594939092614325565b60405180910390a1505050565b600061245061010060009054906101000a90046001600160a01b03166001600160a01b031663890a8c4f6040518163ffffffff1660e01b8152600401602060405180830381865afa158015612425573d6000803e3d6000fd5b505050506040513d601f19601f820116820180604052508101906124499190613abf565b605061311f565b905061245c8282613b33565b905061248f6040518060400160405280601081526020016f1b5a5b881b985d88195e1c1958dd195960821b815250612fc1565b61249881613004565b60006124a26121a3565b60fc546040516370a0823160e01b81529192506000916001600160a01b03909116906370a08231906124d89030906004016136dd565b602060405180830381865afa1580156124f5573d6000803e3d6000fd5b505050506040513d601f19601f820116820180604052508101906125199190613abf565b90506000805b83518160ff1610156126f657838160ff1681518110612540576125406139db565b602002602001015160a00151156126e457838160ff1681518110612566576125666139db565b60200260200101516040015160000361262757838160ff168151811061258e5761258e6139db565b60209081029190910101515160fc5460405163f6f6b88160e01b81526001600160a01b039283169263f6f6b881926125d3929116906000903090600190600401613fb1565b6020604051808303816000875af11580156125f2573d6000803e3d6000fd5b505050506040513d601f19601f820116820180604052508101906126169190613abf565b6126209084613b46565b92506126e4565b838160ff168151811061263c5761263c6139db565b6020026020010151600001516001600160a01b031663a3673b386040518163ffffffff1660e01b8152600401602060405180830381865afa158015612685573d6000803e3d6000fd5b505050506040513d601f19601f820116820180604052508101906126a99190613abf565b6126b39084613b46565b9250838160ff16815181106126ca576126ca6139db565b602002602001015160400151826126e19190613b46565b91505b806126ee81613bc6565b91505061251f565b5060fc546001600160a01b039081169087160361273a578482101561272d5760405162461bcd60e51b815260040161070e9061443c565b6127378583613b33565b91505b6000835167ffffffffffffffff811115612756576127566136eb565b6040519080825280602002602001820160405280156127a157816020015b60408051606081018252600080825260208083018290529282015282526000199092019101816127745790505b5090506000805b85518160ff161015612a2457858160ff16815181106127c9576127c96139db565b602002602001015160a0015115612a12576000868260ff16815181106127f1576127f16139db565b60200260200101516040015160000361280c57506000612846565b84878360ff1681518110612822576128226139db565b602002602001015160400151876128399190614306565b61284391906142f2565b90505b6000878360ff168151811061285d5761285d6139db565b6020026020010151600001516001600160a01b031663a3673b386040518163ffffffff1660e01b8152600401602060405180830381865afa1580156128a6573d6000803e3d6000fd5b505050506040513d601f19601f820116820180604052508101906128ca9190613abf565b90508082036128da575050612a12565b8082101561298e57878360ff16815181106128f7576128f76139db565b60209081029190910101515160fc546001600160a01b039182169163f6f6b88191166129238585613b33565b3060006040518563ffffffff1660e01b81526004016129459493929190613c64565b6020604051808303816000875af1158015612964573d6000803e3d6000fd5b505050506040513d601f19601f820116820180604052508101906129889190613abf565b50612a0f565b6040518060600160405280600115158152602001898560ff16815181106129b7576129b76139db565b6020026020010151600001516001600160a01b0316815260200182846129dd9190613b33565b815250858560ff16815181106129f5576129f56139db565b60200260200101819052508380612a0b90613bc6565b9450505b50505b80612a1c81613bc6565b9150506127a8565b5060005b8160ff168160ff161015612bf7576000838260ff1681518110612a4d57612a4d6139db565b60200260200101516020015190506000848360ff1681518110612a7257612a726139db565b602090810291909101015160409081015160fc5491516370a0823160e01b81529092506000916001600160a01b0316906370a0823190612ab69030906004016136dd565b602060405180830381865afa158015612ad3573d6000803e3d6000fd5b505050506040513d601f19601f82011682018060405250810190612af79190613abf565b905081811015612b05578091505b60fc5460405163a9059cbb60e01b81526001600160a01b039091169063a9059cbb90612b379086908690600401613d8e565b6020604051808303816000875af1158015612b56573d6000803e3d6000fd5b505050506040513d601f19601f82011682018060405250810190612b7a9190613dbc565b5060fc546040516356e4bb9760e11b81526001600160a01b038581169263adc9772e92612baf92909116908690600401613d8e565b600060405180830381600087803b158015612bc957600080fd5b505af1158015612bdd573d6000803e3d6000fd5b505050505050508080612bef90613bc6565b915050612a28565b50612c256040518060400160405280600c81526020016b746f74616c2061737365747360a01b815250612fc1565b612c2e86613004565b610100546040805163890a8c4f60e01b81529051612ca3926001600160a01b03169163890a8c4f9160048083019260209291908290030181865afa158015612c7a573d6000803e3d6000fd5b505050506040513d601f19601f82011682018060405250810190612c9e9190613abf565b613004565b5050505050505050565b606081600003612cd45750506040805180820190915260018152600360fc1b602082015290565b8160005b8115612cfe5780612ce881613b59565b9150612cf79050600a836142f2565b9150612cd8565b60008167ffffffffffffffff811115612d1957612d196136eb565b6040519080825280601f01601f191660200182016040528015612d43576020820181803683370190505b5090505b8415612dae57612d58600183613b33565b9150612d65600a8661444c565b612d70906030613b46565b60f81b818381518110612d8557612d856139db565b60200101906001600160f81b031916908160001a905350612da7600a866142f2565b9450612d47565b949350505050565b61106e8133613149565b612dca8282611689565b610f8e5760008281526065602090815260408083206001600160a01b03851684529091529020805460ff19166001179055612e023390565b6001600160a01b0316816001600160a01b0316837f2f8788117e7eff1d82e926ec794901d17c78024a50270940304540a733656f0d60405160405180910390a45050565b612e508282611689565b15610f8e5760008281526065602090815260408083206001600160a01b0385168085529252808320805460ff1916905551339285917ff6391f5c32d9c69d2a47ea670b442974b53935d1edc7fd64eb21e047a839171b9190a45050565b6000610f8e81612db6565b7f4910fdfa16fed3260ed0e7147f7cc6da11a60208b5b9406d12a635614ffd91435460ff1615612eeb57610f578361317c565b826001600160a01b03166352d1902d6040518163ffffffff1660e01b8152600401602060405180830381865afa925050508015612f45575060408051601f3d908101601f19168201909252612f4291810190613abf565b60015b612f615760405162461bcd60e51b815260040161070e906144ab565b6000805160206146f08339815191528114612f8e5760405162461bcd60e51b815260040161070e90614501565b50610f578383836131d2565b600054610100900460ff16611bf45760405162461bcd60e51b815260040161070e90614559565b61106e81604051602401612fd59190613d7d565b60408051601f198184030181529190526020810180516001600160e01b031663104c13eb60e21b1790526131fd565b61106e816040516024016130189190613642565b60408051601f198184030181529190526020810180516001600160e01b031663f82c50f160e01b1790526131fd565b611bf46000806123cc565b600061305c6121a3565b905060005b81518160ff161015610f8e576000828260ff1681518110613084576130846139db565b602002602001015190508060c001511561310c578051604051633bd73ee360e21b81526001600160a01b039091169063ef5cfb8c906130c79030906004016136dd565b6020604051808303816000875af11580156130e6573d6000803e3d6000fd5b505050506040513d601f19601f8201168201806040525081019061310a9190613abf565b505b508061311781613bc6565b915050613061565b600061271061312e8382613b33565b6131389085614306565b61314291906142f2565b9392505050565b6131538282611689565b610f8e576131608161321e565b61316b836020613230565b604051602001610e87929190614569565b6001600160a01b0381163b6131a35760405162461bcd60e51b815260040161070e90614607565b6000805160206146f083398151915280546001600160a01b0319166001600160a01b0392909216919091179055565b6131db8361339c565b6000825111806131e85750805b15610f57576131f783836133dc565b50505050565b80516a636f6e736f6c652e6c6f67602083016000808483855afa5050505050565b60606106996001600160a01b03831660145b6060600061323f836002614306565b61324a906002613b46565b67ffffffffffffffff811115613262576132626136eb565b6040519080825280601f01601f19166020018201604052801561328c576020820181803683370190505b509050600360fc1b816000815181106132a7576132a76139db565b60200101906001600160f81b031916908160001a905350600f60fb1b816001815181106132d6576132d66139db565b60200101906001600160f81b031916908160001a90535060006132fa846002614306565b613305906001613b46565b90505b600181111561337d576f181899199a1a9b1b9c1cb0b131b232b360811b85600f1660108110613339576133396139db565b1a60f81b82828151811061334f5761334f6139db565b60200101906001600160f81b031916908160001a90535060049490941c9361337681614617565b9050613308565b5083156131425760405162461bcd60e51b815260040161070e90614660565b6133a58161317c565b6040516001600160a01b038216907fbc7cd75a20ee27fd9adebab32041f755214dbc6bffa90cc0225b39da2e5c2d3b90600090a250565b60606001600160a01b0383163b6134055760405162461bcd60e51b815260040161070e906146b3565b600080846001600160a01b03168460405161342091906146c3565b600060405180830381855af49150503d806000811461345b576040519150601f19603f3d011682016040523d82523d6000602084013e613460565b606091505b5091509150613488828260405180606001604052806027815260200161471060279139613491565b95945050505050565b606083156134a0575081613142565b61314283838151156134b55781518083602001fd5b8060405162461bcd60e51b815260040161070e9190613d7d565b6001600160e01b031981165b811461106e57600080fd5b8035610699816134cf565b60006020828403121561350657613506600080fd5b6000612dae84846134e6565b8015155b82525050565b602081016106998284613512565b60006001600160a01b038216610699565b6134db8161352a565b80356106998161353b565b60006020828403121561356457613564600080fd5b6000612dae8484613544565b6135168161352a565b80613516565b805160e08301906135908482613570565b5060208201516135a36020850182613579565b5060408201516135b66040850182613579565b5060608201516135c96060850182613579565b5060808201516135dc6080850182613579565b5060a08201516135ef60a0850182613512565b5060c08201516131f760c0850182613512565b60e08101610699828461357f565b806134db565b803561069981613610565b60006020828403121561363657613636600080fd5b6000612dae8484613616565b602081016106998284613579565b60006106996001600160a01b038316613667565b90565b6001600160a01b031690565b600061069982613650565b600061069982613673565b6135168161367e565b602081016106998284613689565b600080604083850312156136b6576136b6600080fd5b60006136c28585613616565b92505060206136d385828601613544565b9150509250929050565b602081016106998284613570565b634e487b7160e01b600052604160045260246000fd5b601f19601f830116810181811067ffffffffffffffff82111715613727576137276136eb565b6040525050565b600061373960405190565b9050610f2d8282613701565b600067ffffffffffffffff82111561375f5761375f6136eb565b601f19601f83011660200192915050565b82818337506000910152565b600061378f61378a84613745565b61372e565b9050828152602081018484840111156137aa576137aa600080fd5b6137b5848285613770565b509392505050565b600082601f8301126137d1576137d1600080fd5b8135612dae84826020860161377c565b600080604083850312156137f7576137f7600080fd5b60006138038585613544565b925050602083013567ffffffffffffffff81111561382357613823600080fd5b6136d3858286016137bd565b60e0810161383d828a613570565b61384a6020830189613579565b6138576040830188613579565b6138646060830187613579565b6138716080830186613579565b61387e60a0830185613512565b61388b60c0830184613512565b98975050505050505050565b60008083601f8401126138ac576138ac600080fd5b50813567ffffffffffffffff8111156138c7576138c7600080fd5b6020830191508360e08202830111156138e2576138e2600080fd5b9250929050565b600080602083850312156138ff576138ff600080fd5b823567ffffffffffffffff81111561391957613919600080fd5b61392585828601613897565b92509250509250929050565b600061393d838361357f565b505060e00190565b600061394f825190565b80845260209384019383018060005b838110156139835781516139728882613931565b97506020830192505060010161395e565b509495945050505050565b602080825281016131428184613945565b601281526000602082017114dd1c985d1959de481b9bdd08199bdd5b9960721b815291505b5060200190565b602080825281016106998161399f565b634e487b7160e01b600052603260045260246000fd5b60148152600060208201735265737472696374656420746f2061646d696e7360601b815291506139c4565b60208082528101610699816139f1565b601b81526000602082017f41646472657373207374726174656779206e6f7420657175616c730000000000815291506139c4565b6020808252810161069981613a2c565b601781526000602082017f54617267657420776569676874206d7573742062652030000000000000000000815291506139c4565b6020808252810161069981613a70565b805161069981613610565b600060208284031215613ad457613ad4600080fd5b6000612dae8484613ab4565b601681526000602082017505374726174656779206e6176206d75737420626520360541b815291506139c4565b6020808252810161069981613ae0565b634e487b7160e01b600052601160045260246000fd5b8181038181111561069957610699613b1d565b8082018082111561069957610699613b1d565b60006000198203613b6c57613b6c613b1d565b5060010190565b634e487b7160e01b600052603160045260246000fd5b601681526000602082017514dd1c985d1959de48185b1c9958591e48195e1a5cdd60521b815291506139c4565b6020808252810161069981613b89565b60ff16600060fe198201613b6c57613b6c613b1d565b601b81526000602082017f43616c6c6572206973206e6f74207468652045584348414e4745520000000000815291506139c4565b6020808252810161069981613bdc565b601981526000602082017f43617368207374726174656779206e6f74207365742079657400000000000000815291506139c4565b6020808252810161069981613c20565b60808101613c728287613570565b613c7f6020830186613579565b613c8c6040830185613570565b6134886060830184613512565b60005b83811015613cb4578181015183820152602001613c9c565b50506000910152565b6000613cc7825190565b613cd5818560208601613c99565b9290920192915050565b7f496e20706f7274666f6c696f4d616e61676572206e6f7420656e6f7567682066815274037b9103a3930b739b332b9102fb0b6b7bab73a1d1605d1b60208201526035016000613d2f8285613cbd565b620101e160ed1b81529150600382015b9150612dae8284613cbd565b6000613d55825190565b808452602084019350613d6c818560208601613c99565b601f01601f19169290920192915050565b602080825281016131428184613d4b565b60408101613d9c8285613570565b6131426020830184613579565b8015156134db565b805161069981613da9565b600060208284031215613dd157613dd1600080fd5b6000612dae8484613db1565b602f81526000602082017f416363657373436f6e74726f6c3a2063616e206f6e6c792072656e6f756e636581526e103937b632b9903337b91039b2b63360891b602082015291505b5060400190565b6020808252810161069981613ddd565b602c81526000602082017f46756e6374696f6e206d7573742062652063616c6c6564207468726f7567682081526b19195b1959d85d1958d85b1b60a21b60208201529150613e25565b6020808252810161069981613e3c565b602c81526000602082017f46756e6374696f6e206d7573742062652063616c6c6564207468726f7567682081526b6163746976652070726f787960a01b60208201529150613e25565b6020808252810161069981613e95565b601881526000602082017f5a65726f2061646472657373206e6f7420616c6c6f7765640000000000000000815291506139c4565b6020808252810161069981613eee565b603881526000602082017f555550535570677261646561626c653a206d757374206e6f742062652063616c81527f6c6564207468726f7567682064656c656761746563616c6c000000000000000060208201529150613e25565b6020808252810161069981613f32565b60006106996136648381565b61351681613f9c565b60808101613fbf8287613570565b613c7f6020830186613fa8565b602e81526000602082017f496e697469616c697a61626c653a20636f6e747261637420697320616c72656181526d191e481a5b9a5d1a585b1a5e995960921b60208201529150613e25565b6020808252810161069981613fcc565b600060ff8216610699565b61351681614027565b602081016106998284614032565b601d81526000602082017f5265737472696374656420746f20506f7274666f6c696f204167656e74000000815291506139c4565b6020808252810161069981614049565b601a81526000602082017f57726f6e67206e756d626572206f662073747261746567696573000000000000815291506139c4565b602080825281016106998161408d565b803561069981613da9565b600060e082840312156140f1576140f1600080fd5b6140fb60e061372e565b905060006141098484613544565b825250602061411a84848301613616565b602083015250604061412e84828501613616565b604083015250606061414284828501613616565b606083015250608061415684828501613616565b60808301525060a061416a848285016140d1565b60a08301525060c061417e848285016140d1565b60c08301525092915050565b600060e0828403121561419f5761419f600080fd5b6000612dae84846140dc565b601481526000602082017314dd1c985d1959de481dd85cc81d5c19185d195960621b815291506139c4565b60208082528101610699816141ab565b601881526000602082017f496e636f727265637420737472617465677920696e6465780000000000000000815291506139c4565b60208082528101610699816141e6565b602c81526000602082017f6d696e5765696768742073686f756c646e277420686967686572207468616e2081526b1d185c99d95d15d95a59da1d60a21b60208201529150613e25565b602080825281016106998161422a565b602c81526000602082017f7461726765745765696768742073686f756c646e27742068696768657220746881526b185b881b585e15d95a59da1d60a21b60208201529150613e25565b6020808252810161069981614283565b634e487b7160e01b600052601260045260246000fd5b600082614301576143016142dc565b500490565b81810280821583820485141761431e5761431e613b1d565b5092915050565b6101008101614334828b613579565b614341602083018a613570565b61434e6040830189613579565b61435b6060830188613579565b6143686080830187613579565b61437560a0830186613579565b61438260c0830185613512565b61438f60e0830184613512565b9998505050505050505050565b602981526000602082017f546f74616c207461726765742073686f756c6420657175616c20746f20544f54815268105317d5d15251d21560ba1b60208201529150613e25565b602080825281016106998161439c565b602d81526000602082017f547279696e67207769746864726177206d6f7265207468616e206c697175696481526c69747920617661696c61626c6560981b60208201529150613e25565b60208082528101610699816143f2565b60008261445b5761445b6142dc565b500690565b602e81526000602082017f45524331393637557067726164653a206e657720696d706c656d656e7461746981526d6f6e206973206e6f74205555505360901b60208201529150613e25565b6020808252810161069981614460565b602981526000602082017f45524331393637557067726164653a20756e737570706f727465642070726f788152681a58589b195555525160ba1b60208201529150613e25565b60208082528101610699816144bb565b602b81526000602082017f496e697469616c697a61626c653a20636f6e7472616374206973206e6f74206981526a6e697469616c697a696e6760a81b60208201529150613e25565b6020808252810161069981614511565b7f416363657373436f6e74726f6c3a206163636f756e74200000000000000000008152601701600061459b8285613cbd565b7001034b99036b4b9b9b4b733903937b6329607d1b8152915060118201613d3f565b602d81526000602082017f455243313936373a206e657720696d706c656d656e746174696f6e206973206e81526c1bdd08184818dbdb9d1c9858dd609a1b60208201529150613e25565b60208082528101610699816145bd565b60008161462657614626613b1d565b506000190190565b60208082527f537472696e67733a20686578206c656e67746820696e73756666696369656e74910190815260006139c4565b602080825281016106998161462e565b602681526000602082017f416464726573733a2064656c65676174652063616c6c20746f206e6f6e2d636f8152651b9d1c9858dd60d21b60208201529150613e25565b6020808252810161069981614670565b60006131428284613cbd56fe3eb675f159e6ca6cf5de6bfbbc8c4521cfd428f5e9166e51094d5898504caf2d360894a13ba1a3210667c828492db98dca3e2076cc3735a920a3ca505d382bbc416464726573733a206c6f772d6c6576656c2064656c65676174652063616c6c206661696c65646e6f20706d20617373657462616c616e63652e202072657475726e696e672066726f6d20706d206465706f736974a2646970667358221220e9f0065cf2fc7b79bc36cc59a2eda7e2ff3128b5d7171ac4b314ecde5fbda95864736f6c63430008110033",
  "implementation": "0xb172c23EF532d8B5cE96A1c978f93679D54Bb583",
  "devdoc": {
    "kind": "dev",
    "methods": {
      "constructor": {
        "custom:oz-upgrades-unsafe-allow": "constructor"
      },
      "getRoleAdmin(bytes32)": {
        "details": "Returns the admin role that controls `role`. See {grantRole} and {revokeRole}. To change a role's admin, use {_setRoleAdmin}."
      },
      "grantRole(bytes32,address)": {
        "details": "Grants `role` to `account`. If `account` had not been already granted `role`, emits a {RoleGranted} event. Requirements: - the caller must have ``role``'s admin role. May emit a {RoleGranted} event."
      },
      "hasRole(bytes32,address)": {
        "details": "Returns `true` if `account` has been granted `role`."
      },
      "proxiableUUID()": {
        "details": "Implementation of the ERC1822 {proxiableUUID} function. This returns the storage slot used by the implementation. It is used to validate the implementation's compatibility when performing an upgrade. IMPORTANT: A proxy pointing at a proxiable contract should not be considered proxiable itself, because this risks bricking a proxy that upgrades to it, by delegating to itself until out of gas. Thus it is critical that this function revert if invoked through a proxy. This is guaranteed by the `notDelegated` modifier."
      },
      "renounceRole(bytes32,address)": {
        "details": "Revokes `role` from the calling account. Roles are often managed via {grantRole} and {revokeRole}: this function's purpose is to provide a mechanism for accounts to lose their privileges if they are compromised (such as when a trusted device is misplaced). If the calling account had been revoked `role`, emits a {RoleRevoked} event. Requirements: - the caller must be `account`. May emit a {RoleRevoked} event."
      },
      "revokeRole(bytes32,address)": {
        "details": "Revokes `role` from `account`. If `account` had been granted `role`, emits a {RoleRevoked} event. Requirements: - the caller must have ``role``'s admin role. May emit a {RoleRevoked} event."
      },
      "supportsInterface(bytes4)": {
        "details": "See {IERC165-supportsInterface}."
      },
      "upgradeTo(address)": {
        "details": "Upgrade the implementation of the proxy to `newImplementation`. Calls {_authorizeUpgrade}. Emits an {Upgraded} event."
      },
      "upgradeToAndCall(address,bytes)": {
        "details": "Upgrade the implementation of the proxy to `newImplementation`, and subsequently execute the function call encoded in `data`. Calls {_authorizeUpgrade}. Emits an {Upgraded} event."
      }
    },
    "version": 1
  },
  "userdoc": {
    "kind": "user",
    "methods": {},
    "version": 1
  },
  "storageLayout": {
    "storage": [
      {
        "astId": 804,
        "contract": "contracts/PortfolioManager.sol:PortfolioManager",
        "label": "_initialized",
        "offset": 0,
        "slot": "0",
        "type": "t_uint8"
      },
      {
        "astId": 807,
        "contract": "contracts/PortfolioManager.sol:PortfolioManager",
        "label": "_initializing",
        "offset": 1,
        "slot": "0",
        "type": "t_bool"
      },
      {
        "astId": 1427,
        "contract": "contracts/PortfolioManager.sol:PortfolioManager",
        "label": "__gap",
        "offset": 0,
        "slot": "1",
        "type": "t_array(t_uint256)50_storage"
      },
      {
        "astId": 1706,
        "contract": "contracts/PortfolioManager.sol:PortfolioManager",
        "label": "__gap",
        "offset": 0,
        "slot": "51",
        "type": "t_array(t_uint256)50_storage"
      },
      {
        "astId": 39,
        "contract": "contracts/PortfolioManager.sol:PortfolioManager",
        "label": "_roles",
        "offset": 0,
        "slot": "101",
        "type": "t_mapping(t_bytes32,t_struct(RoleData)34_storage)"
      },
      {
        "astId": 334,
        "contract": "contracts/PortfolioManager.sol:PortfolioManager",
        "label": "__gap",
        "offset": 0,
        "slot": "102",
        "type": "t_array(t_uint256)49_storage"
      },
      {
        "astId": 786,
        "contract": "contracts/PortfolioManager.sol:PortfolioManager",
        "label": "__gap",
        "offset": 0,
        "slot": "151",
        "type": "t_array(t_uint256)50_storage"
      },
      {
        "astId": 1101,
        "contract": "contracts/PortfolioManager.sol:PortfolioManager",
        "label": "__gap",
        "offset": 0,
        "slot": "201",
        "type": "t_array(t_uint256)50_storage"
      },
      {
        "astId": 2900,
        "contract": "contracts/PortfolioManager.sol:PortfolioManager",
        "label": "exchanger",
        "offset": 0,
        "slot": "251",
        "type": "t_address"
      },
      {
        "astId": 2903,
        "contract": "contracts/PortfolioManager.sol:PortfolioManager",
        "label": "asset",
        "offset": 0,
        "slot": "252",
        "type": "t_contract(IERC20)2662"
      },
      {
        "astId": 2907,
        "contract": "contracts/PortfolioManager.sol:PortfolioManager",
        "label": "strategyWeightPositions",
        "offset": 0,
        "slot": "253",
        "type": "t_mapping(t_address,t_uint256)"
      },
      {
        "astId": 2911,
        "contract": "contracts/PortfolioManager.sol:PortfolioManager",
        "label": "strategyWeights",
        "offset": 0,
        "slot": "254",
        "type": "t_array(t_struct(StrategyWeight)4487_storage)dyn_storage"
      },
      {
        "astId": 2914,
        "contract": "contracts/PortfolioManager.sol:PortfolioManager",
        "label": "cashStrategy",
        "offset": 0,
        "slot": "255",
        "type": "t_contract(IStrategy)4591"
      },
      {
        "astId": 2917,
        "contract": "contracts/PortfolioManager.sol:PortfolioManager",
        "label": "m2m",
        "offset": 0,
        "slot": "256",
        "type": "t_contract(IMark2Market)4462"
      },
      {
        "astId": 2919,
        "contract": "contracts/PortfolioManager.sol:PortfolioManager",
        "label": "totalRiskFactor",
        "offset": 0,
        "slot": "257",
        "type": "t_uint256"
      }
    ],
    "types": {
      "t_address": {
        "encoding": "inplace",
        "label": "address",
        "numberOfBytes": "20"
      },
      "t_array(t_struct(StrategyWeight)4487_storage)dyn_storage": {
        "base": "t_struct(StrategyWeight)4487_storage",
        "encoding": "dynamic_array",
        "label": "struct IPortfolioManager.StrategyWeight[]",
        "numberOfBytes": "32"
      },
      "t_array(t_uint256)49_storage": {
        "base": "t_uint256",
        "encoding": "inplace",
        "label": "uint256[49]",
        "numberOfBytes": "1568"
      },
      "t_array(t_uint256)50_storage": {
        "base": "t_uint256",
        "encoding": "inplace",
        "label": "uint256[50]",
        "numberOfBytes": "1600"
      },
      "t_bool": {
        "encoding": "inplace",
        "label": "bool",
        "numberOfBytes": "1"
      },
      "t_bytes32": {
        "encoding": "inplace",
        "label": "bytes32",
        "numberOfBytes": "32"
      },
      "t_contract(IERC20)2662": {
        "encoding": "inplace",
        "label": "contract IERC20",
        "numberOfBytes": "20"
      },
      "t_contract(IMark2Market)4462": {
        "encoding": "inplace",
        "label": "contract IMark2Market",
        "numberOfBytes": "20"
      },
      "t_contract(IStrategy)4591": {
        "encoding": "inplace",
        "label": "contract IStrategy",
        "numberOfBytes": "20"
      },
      "t_mapping(t_address,t_bool)": {
        "encoding": "mapping",
        "key": "t_address",
        "label": "mapping(address => bool)",
        "numberOfBytes": "32",
        "value": "t_bool"
      },
      "t_mapping(t_address,t_uint256)": {
        "encoding": "mapping",
        "key": "t_address",
        "label": "mapping(address => uint256)",
        "numberOfBytes": "32",
        "value": "t_uint256"
      },
      "t_mapping(t_bytes32,t_struct(RoleData)34_storage)": {
        "encoding": "mapping",
        "key": "t_bytes32",
        "label": "mapping(bytes32 => struct AccessControlUpgradeable.RoleData)",
        "numberOfBytes": "32",
        "value": "t_struct(RoleData)34_storage"
      },
      "t_struct(RoleData)34_storage": {
        "encoding": "inplace",
        "label": "struct AccessControlUpgradeable.RoleData",
        "members": [
          {
            "astId": 31,
            "contract": "contracts/PortfolioManager.sol:PortfolioManager",
            "label": "members",
            "offset": 0,
            "slot": "0",
            "type": "t_mapping(t_address,t_bool)"
          },
          {
            "astId": 33,
            "contract": "contracts/PortfolioManager.sol:PortfolioManager",
            "label": "adminRole",
            "offset": 0,
            "slot": "1",
            "type": "t_bytes32"
          }
        ],
        "numberOfBytes": "64"
      },
      "t_struct(StrategyWeight)4487_storage": {
        "encoding": "inplace",
        "label": "struct IPortfolioManager.StrategyWeight",
        "members": [
          {
            "astId": 4474,
            "contract": "contracts/PortfolioManager.sol:PortfolioManager",
            "label": "strategy",
            "offset": 0,
            "slot": "0",
            "type": "t_address"
          },
          {
            "astId": 4476,
            "contract": "contracts/PortfolioManager.sol:PortfolioManager",
            "label": "minWeight",
            "offset": 0,
            "slot": "1",
            "type": "t_uint256"
          },
          {
            "astId": 4478,
            "contract": "contracts/PortfolioManager.sol:PortfolioManager",
            "label": "targetWeight",
            "offset": 0,
            "slot": "2",
            "type": "t_uint256"
          },
          {
            "astId": 4480,
            "contract": "contracts/PortfolioManager.sol:PortfolioManager",
            "label": "maxWeight",
            "offset": 0,
            "slot": "3",
            "type": "t_uint256"
          },
          {
            "astId": 4482,
            "contract": "contracts/PortfolioManager.sol:PortfolioManager",
            "label": "riskFactor",
            "offset": 0,
            "slot": "4",
            "type": "t_uint256"
          },
          {
            "astId": 4484,
            "contract": "contracts/PortfolioManager.sol:PortfolioManager",
            "label": "enabled",
            "offset": 0,
            "slot": "5",
            "type": "t_bool"
          },
          {
            "astId": 4486,
            "contract": "contracts/PortfolioManager.sol:PortfolioManager",
            "label": "enabledReward",
            "offset": 1,
            "slot": "5",
            "type": "t_bool"
          }
        ],
        "numberOfBytes": "192"
      },
      "t_uint256": {
        "encoding": "inplace",
        "label": "uint256",
        "numberOfBytes": "32"
      },
      "t_uint8": {
        "encoding": "inplace",
        "label": "uint8",
        "numberOfBytes": "1"
      }
    }
  }
}