{
  "address": "0x4B84c0A2d62d19A66F674610E9A96eaA3b8f2F98",
  "abi": [
    {
      "inputs": [],
      "stateMutability": "nonpayable",
      "type": "constructor"
    },
    {
      "anonymous": false,
      "inputs": [
        {
          "indexed": false,
          "internalType": "address",
          "name": "previousAdmin",
          "type": "address"
        },
        {
          "indexed": false,
          "internalType": "address",
          "name": "newAdmin",
          "type": "address"
        }
      ],
      "name": "AdminChanged",
      "type": "event"
    },
    {
      "anonymous": false,
      "inputs": [
        {
          "indexed": true,
          "internalType": "address",
          "name": "owner",
          "type": "address"
        },
        {
          "indexed": true,
          "internalType": "address",
          "name": "spender",
          "type": "address"
        },
        {
          "indexed": false,
          "internalType": "uint256",
          "name": "value",
          "type": "uint256"
        }
      ],
      "name": "Approval",
      "type": "event"
    },
    {
      "anonymous": false,
      "inputs": [
        {
          "indexed": true,
          "internalType": "address",
          "name": "beacon",
          "type": "address"
        }
      ],
      "name": "BeaconUpgraded",
      "type": "event"
    },
    {
      "anonymous": false,
      "inputs": [
        {
          "indexed": false,
          "internalType": "address",
          "name": "exchanger",
          "type": "address"
        }
      ],
      "name": "ExchangerUpdated",
      "type": "event"
    },
    {
      "anonymous": false,
      "inputs": [
        {
          "indexed": false,
          "internalType": "uint8",
          "name": "version",
          "type": "uint8"
        }
      ],
      "name": "Initialized",
      "type": "event"
    },
    {
      "anonymous": false,
      "inputs": [
        {
          "indexed": false,
          "internalType": "uint256",
          "name": "changeTime",
          "type": "uint256"
        },
        {
          "indexed": false,
          "internalType": "uint256",
          "name": "liquidityIndex",
          "type": "uint256"
        }
      ],
      "name": "LiquidityIndexUpdated",
      "type": "event"
    },
    {
      "anonymous": false,
      "inputs": [
        {
          "indexed": true,
          "internalType": "bytes32",
          "name": "role",
          "type": "bytes32"
        },
        {
          "indexed": true,
          "internalType": "bytes32",
          "name": "previousAdminRole",
          "type": "bytes32"
        },
        {
          "indexed": true,
          "internalType": "bytes32",
          "name": "newAdminRole",
          "type": "bytes32"
        }
      ],
      "name": "RoleAdminChanged",
      "type": "event"
    },
    {
      "anonymous": false,
      "inputs": [
        {
          "indexed": true,
          "internalType": "bytes32",
          "name": "role",
          "type": "bytes32"
        },
        {
          "indexed": true,
          "internalType": "address",
          "name": "account",
          "type": "address"
        },
        {
          "indexed": true,
          "internalType": "address",
          "name": "sender",
          "type": "address"
        }
      ],
      "name": "RoleGranted",
      "type": "event"
    },
    {
      "anonymous": false,
      "inputs": [
        {
          "indexed": true,
          "internalType": "bytes32",
          "name": "role",
          "type": "bytes32"
        },
        {
          "indexed": true,
          "internalType": "address",
          "name": "account",
          "type": "address"
        },
        {
          "indexed": true,
          "internalType": "address",
          "name": "sender",
          "type": "address"
        }
      ],
      "name": "RoleRevoked",
      "type": "event"
    },
    {
      "anonymous": false,
      "inputs": [
        {
          "indexed": true,
          "internalType": "address",
          "name": "from",
          "type": "address"
        },
        {
          "indexed": true,
          "internalType": "address",
          "name": "to",
          "type": "address"
        },
        {
          "indexed": false,
          "internalType": "uint256",
          "name": "value",
          "type": "uint256"
        }
      ],
      "name": "Transfer",
      "type": "event"
    },
    {
      "anonymous": false,
      "inputs": [
        {
          "indexed": true,
          "internalType": "address",
          "name": "implementation",
          "type": "address"
        }
      ],
      "name": "Upgraded",
      "type": "event"
    },
    {
      "inputs": [],
      "name": "DEFAULT_ADMIN_ROLE",
      "outputs": [
        {
          "internalType": "bytes32",
          "name": "",
          "type": "bytes32"
        }
      ],
      "stateMutability": "view",
      "type": "function"
    },
    {
      "inputs": [],
      "name": "EXCHANGER",
      "outputs": [
        {
          "internalType": "bytes32",
          "name": "",
          "type": "bytes32"
        }
      ],
      "stateMutability": "view",
      "type": "function"
    },
    {
      "inputs": [],
      "name": "MAX_UINT_VALUE",
      "outputs": [
        {
          "internalType": "uint256",
          "name": "",
          "type": "uint256"
        }
      ],
      "stateMutability": "view",
      "type": "function"
    },
    {
      "inputs": [
        {
          "internalType": "address",
          "name": "owner",
          "type": "address"
        },
        {
          "internalType": "address",
          "name": "spender",
          "type": "address"
        }
      ],
      "name": "allowance",
      "outputs": [
        {
          "internalType": "uint256",
          "name": "",
          "type": "uint256"
        }
      ],
      "stateMutability": "view",
      "type": "function"
    },
    {
      "inputs": [
        {
          "internalType": "address",
          "name": "spender",
          "type": "address"
        },
        {
          "internalType": "uint256",
          "name": "amount",
          "type": "uint256"
        }
      ],
      "name": "approve",
      "outputs": [
        {
          "internalType": "bool",
          "name": "",
          "type": "bool"
        }
      ],
      "stateMutability": "nonpayable",
      "type": "function"
    },
    {
      "inputs": [
        {
          "internalType": "address",
          "name": "user",
          "type": "address"
        }
      ],
      "name": "balanceOf",
      "outputs": [
        {
          "internalType": "uint256",
          "name": "",
          "type": "uint256"
        }
      ],
      "stateMutability": "view",
      "type": "function"
    },
    {
      "inputs": [
        {
          "internalType": "address",
          "name": "_sender",
          "type": "address"
        },
        {
          "internalType": "uint256",
          "name": "_amount",
          "type": "uint256"
        }
      ],
      "name": "burn",
      "outputs": [],
      "stateMutability": "nonpayable",
      "type": "function"
    },
    {
      "inputs": [],
      "name": "decimals",
      "outputs": [
        {
          "internalType": "uint8",
          "name": "",
          "type": "uint8"
        }
      ],
      "stateMutability": "view",
      "type": "function"
    },
    {
      "inputs": [
        {
          "internalType": "address",
          "name": "spender",
          "type": "address"
        },
        {
          "internalType": "uint256",
          "name": "subtractedValue",
          "type": "uint256"
        }
      ],
      "name": "decreaseAllowance",
      "outputs": [
        {
          "internalType": "bool",
          "name": "",
          "type": "bool"
        }
      ],
      "stateMutability": "nonpayable",
      "type": "function"
    },
    {
      "inputs": [],
      "name": "exchange",
      "outputs": [
        {
          "internalType": "address",
          "name": "",
          "type": "address"
        }
      ],
      "stateMutability": "view",
      "type": "function"
    },
    {
      "inputs": [
        {
          "internalType": "bytes32",
          "name": "role",
          "type": "bytes32"
        }
      ],
      "name": "getRoleAdmin",
      "outputs": [
        {
          "internalType": "bytes32",
          "name": "",
          "type": "bytes32"
        }
      ],
      "stateMutability": "view",
      "type": "function"
    },
    {
      "inputs": [
        {
          "internalType": "bytes32",
          "name": "role",
          "type": "bytes32"
        },
        {
          "internalType": "address",
          "name": "account",
          "type": "address"
        }
      ],
      "name": "grantRole",
      "outputs": [],
      "stateMutability": "nonpayable",
      "type": "function"
    },
    {
      "inputs": [
        {
          "internalType": "bytes32",
          "name": "role",
          "type": "bytes32"
        },
        {
          "internalType": "address",
          "name": "account",
          "type": "address"
        }
      ],
      "name": "hasRole",
      "outputs": [
        {
          "internalType": "bool",
          "name": "",
          "type": "bool"
        }
      ],
      "stateMutability": "view",
      "type": "function"
    },
    {
      "inputs": [
        {
          "internalType": "address",
          "name": "spender",
          "type": "address"
        },
        {
          "internalType": "uint256",
          "name": "addedValue",
          "type": "uint256"
        }
      ],
      "name": "increaseAllowance",
      "outputs": [
        {
          "internalType": "bool",
          "name": "",
          "type": "bool"
        }
      ],
      "stateMutability": "nonpayable",
      "type": "function"
    },
    {
      "inputs": [
        {
          "internalType": "string",
          "name": "name",
          "type": "string"
        },
        {
          "internalType": "string",
          "name": "symbol",
          "type": "string"
        },
        {
          "internalType": "uint8",
          "name": "decimals",
          "type": "uint8"
        }
      ],
      "name": "initialize",
      "outputs": [],
      "stateMutability": "nonpayable",
      "type": "function"
    },
    {
      "inputs": [],
      "name": "liquidityIndex",
      "outputs": [
        {
          "internalType": "uint256",
          "name": "",
          "type": "uint256"
        }
      ],
      "stateMutability": "view",
      "type": "function"
    },
    {
      "inputs": [],
      "name": "liquidityIndexChangeTime",
      "outputs": [
        {
          "internalType": "uint256",
          "name": "",
          "type": "uint256"
        }
      ],
      "stateMutability": "view",
      "type": "function"
    },
    {
      "inputs": [],
      "name": "liquidityIndexDenominator",
      "outputs": [
        {
          "internalType": "uint256",
          "name": "",
          "type": "uint256"
        }
      ],
      "stateMutability": "view",
      "type": "function"
    },
    {
      "inputs": [
        {
          "internalType": "address",
          "name": "_sender",
          "type": "address"
        },
        {
          "internalType": "uint256",
          "name": "_amount",
          "type": "uint256"
        }
      ],
      "name": "mint",
      "outputs": [],
      "stateMutability": "nonpayable",
      "type": "function"
    },
    {
      "inputs": [],
      "name": "name",
      "outputs": [
        {
          "internalType": "string",
          "name": "",
          "type": "string"
        }
      ],
      "stateMutability": "view",
      "type": "function"
    },
    {
      "inputs": [
        {
          "internalType": "uint256",
          "name": "index",
          "type": "uint256"
        }
      ],
      "name": "ownerAt",
      "outputs": [
        {
          "internalType": "address",
          "name": "",
          "type": "address"
        }
      ],
      "stateMutability": "view",
      "type": "function"
    },
    {
      "inputs": [
        {
          "internalType": "uint256",
          "name": "index",
          "type": "uint256"
        }
      ],
      "name": "ownerBalanceAt",
      "outputs": [
        {
          "internalType": "uint256",
          "name": "",
          "type": "uint256"
        }
      ],
      "stateMutability": "view",
      "type": "function"
    },
    {
      "inputs": [],
      "name": "ownerLength",
      "outputs": [
        {
          "internalType": "uint256",
          "name": "",
          "type": "uint256"
        }
      ],
      "stateMutability": "view",
      "type": "function"
    },
    {
      "inputs": [],
      "name": "proxiableUUID",
      "outputs": [
        {
          "internalType": "bytes32",
          "name": "",
          "type": "bytes32"
        }
      ],
      "stateMutability": "view",
      "type": "function"
    },
    {
      "inputs": [
        {
          "internalType": "bytes32",
          "name": "role",
          "type": "bytes32"
        },
        {
          "internalType": "address",
          "name": "account",
          "type": "address"
        }
      ],
      "name": "renounceRole",
      "outputs": [],
      "stateMutability": "nonpayable",
      "type": "function"
    },
    {
      "inputs": [
        {
          "internalType": "bytes32",
          "name": "role",
          "type": "bytes32"
        },
        {
          "internalType": "address",
          "name": "account",
          "type": "address"
        }
      ],
      "name": "revokeRole",
      "outputs": [],
      "stateMutability": "nonpayable",
      "type": "function"
    },
    {
      "inputs": [
        {
          "internalType": "address",
          "name": "user",
          "type": "address"
        }
      ],
      "name": "scaledBalanceOf",
      "outputs": [
        {
          "internalType": "uint256",
          "name": "",
          "type": "uint256"
        }
      ],
      "stateMutability": "view",
      "type": "function"
    },
    {
      "inputs": [],
      "name": "scaledTotalSupply",
      "outputs": [
        {
          "internalType": "uint256",
          "name": "",
          "type": "uint256"
        }
      ],
      "stateMutability": "view",
      "type": "function"
    },
    {
      "inputs": [
        {
          "internalType": "uint8",
          "name": "decimals",
          "type": "uint8"
        }
      ],
      "name": "setDecimals",
      "outputs": [],
      "stateMutability": "nonpayable",
      "type": "function"
    },
    {
      "inputs": [
        {
          "internalType": "address",
          "name": "_exchanger",
          "type": "address"
        }
      ],
      "name": "setExchanger",
      "outputs": [],
      "stateMutability": "nonpayable",
      "type": "function"
    },
    {
      "inputs": [
        {
          "internalType": "uint256",
          "name": "_liquidityIndex",
          "type": "uint256"
        }
      ],
      "name": "setLiquidityIndex",
      "outputs": [],
      "stateMutability": "nonpayable",
      "type": "function"
    },
    {
      "inputs": [
        {
          "internalType": "bytes4",
          "name": "interfaceId",
          "type": "bytes4"
        }
      ],
      "name": "supportsInterface",
      "outputs": [
        {
          "internalType": "bool",
          "name": "",
          "type": "bool"
        }
      ],
      "stateMutability": "view",
      "type": "function"
    },
    {
      "inputs": [],
      "name": "symbol",
      "outputs": [
        {
          "internalType": "string",
          "name": "",
          "type": "string"
        }
      ],
      "stateMutability": "view",
      "type": "function"
    },
    {
      "inputs": [],
      "name": "totalBurn",
      "outputs": [
        {
          "internalType": "uint256",
          "name": "",
          "type": "uint256"
        }
      ],
      "stateMutability": "view",
      "type": "function"
    },
    {
      "inputs": [],
      "name": "totalMint",
      "outputs": [
        {
          "internalType": "uint256",
          "name": "",
          "type": "uint256"
        }
      ],
      "stateMutability": "view",
      "type": "function"
    },
    {
      "inputs": [],
      "name": "totalSupply",
      "outputs": [
        {
          "internalType": "uint256",
          "name": "",
          "type": "uint256"
        }
      ],
      "stateMutability": "view",
      "type": "function"
    },
    {
      "inputs": [
        {
          "internalType": "address",
          "name": "recipient",
          "type": "address"
        },
        {
          "internalType": "uint256",
          "name": "amount",
          "type": "uint256"
        }
      ],
      "name": "transfer",
      "outputs": [
        {
          "internalType": "bool",
          "name": "",
          "type": "bool"
        }
      ],
      "stateMutability": "nonpayable",
      "type": "function"
    },
    {
      "inputs": [
        {
          "internalType": "address",
          "name": "sender",
          "type": "address"
        },
        {
          "internalType": "address",
          "name": "recipient",
          "type": "address"
        },
        {
          "internalType": "uint256",
          "name": "amount",
          "type": "uint256"
        }
      ],
      "name": "transferFrom",
      "outputs": [
        {
          "internalType": "bool",
          "name": "",
          "type": "bool"
        }
      ],
      "stateMutability": "nonpayable",
      "type": "function"
    },
    {
      "inputs": [
        {
          "internalType": "address",
          "name": "newImplementation",
          "type": "address"
        }
      ],
      "name": "upgradeTo",
      "outputs": [],
      "stateMutability": "nonpayable",
      "type": "function"
    },
    {
      "inputs": [
        {
          "internalType": "address",
          "name": "newImplementation",
          "type": "address"
        },
        {
          "internalType": "bytes",
          "name": "data",
          "type": "bytes"
        }
      ],
      "name": "upgradeToAndCall",
      "outputs": [],
      "stateMutability": "payable",
      "type": "function"
    }
  ],
  "numDeployments": 5,
  "solcInputHash": "08b1cb9e5b4d0df05b6139e32d7d991d",
  "bytecode": "0x60a0604052306080523480156200001557600080fd5b50600054610100900460ff1615808015620000375750600054600160ff909116105b8062000067575062000054306200010860201b620013f21760201c565b15801562000067575060005460ff166001145b6200008f5760405162461bcd60e51b8152600401620000869062000117565b60405180910390fd5b6000805460ff191660011790558015620000b3576000805461ff0019166101001790555b801562000101576000805461ff00191690556040517f7f26b83ff96e1f2b6a682f133852f6798a09c465da95921460cefb384740249890620000f8906001906200018d565b60405180910390a15b506200019d565b6001600160a01b03163b151590565b602080825281016200016a81602e81527f496e697469616c697a61626c653a20636f6e747261637420697320616c72656160208201526d191e481a5b9a5d1a585b1a5e995960921b604082015260600190565b92915050565b600060ff82166200016a565b620001878162000170565b82525050565b602081016200016a82846200017c565b6080516131b5620001d560003960008181610b8a01528181610bca01528181610dab01528181610deb0152610e7a01526131b56000f3fe60806040526004361061023a5760003560e01c806370a082311161012e578063b2be2591116100ab578063d2f7265a1161006f578063d2f7265a14610667578063d547741f14610688578063da909b09146106a8578063dd62ed3e146106c8578063fb24974a146106e857600080fd5b8063b2be2591146105d7578063bbf44f33146105f7578063bd0f10531461060e578063cb45d0e714610630578063ce6df7be1461064757600080fd5b80639dc29fac116100f25780639dc29fac1461054d578063a217fddf1461056d578063a457c2d714610582578063a9059cbb146105a2578063b1bf962d146105c257600080fd5b806370a08231146104c15780637a1395aa146104e157806384f1abca1461050157806391d148541461051857806395d89b411461053857600080fd5b80632f2ff15d116101bc5780633c9f861d116101805780633c9f861d1461044f57806340c10f19146104645780634f1ef2861461048457806352d1902d1461049757806359a7715a146104ac57600080fd5b80632f2ff15d146103ad578063313ce567146103cd57806336568abe146103ef5780633659cfe61461040f578063395093511461042f57600080fd5b806318160ddd1161020357806318160ddd146102fb5780631da24f3e1461031057806323b872dd146103305780632435987914610350578063248a9ca31461037d57600080fd5b80623660881461023f57806301ffc9a71461026a57806306fdde0314610297578063095ea7b3146102b95780631624f6c6146102d9575b600080fd5b34801561024b57600080fd5b506102546106fe565b6040516102619190612024565b60405180910390f35b34801561027657600080fd5b5061028a610285366004612054565b610710565b604051610261919061207d565b3480156102a357600080fd5b506102ac610747565b60405161026191906120e1565b3480156102c557600080fd5b5061028a6102d4366004612128565b6107d9565b3480156102e557600080fd5b506102f96102f43660046121cb565b610845565b005b34801561030757600080fd5b50610254610989565b34801561031c57600080fd5b5061025461032b36600461225a565b6109b3565b34801561033c57600080fd5b5061028a61034b36600461227b565b6109d1565b34801561035c57600080fd5b5061037061036b3660046122cb565b610ae4565b60405161026191906122f5565b34801561038957600080fd5b506102546103983660046122cb565b60009081526065602052604090206001015490565b3480156103b957600080fd5b506102f96103c8366004612303565b610af2565b3480156103d957600080fd5b506103e2610b1c565b604051610261919061233f565b3480156103fb57600080fd5b506102f961040a366004612303565b610b4a565b34801561041b57600080fd5b506102f961042a36600461225a565b610b80565b34801561043b57600080fd5b5061028a61044a366004612128565b610c5f565b34801561045b57600080fd5b50610254610cc0565b34801561047057600080fd5b506102f961047f366004612128565b610ced565b6102f9610492366004612448565b610da1565b3480156104a357600080fd5b50610254610e6d565b3480156104b857600080fd5b50610254610eca565b3480156104cd57600080fd5b506102546104dc36600461225a565b610ee6565b3480156104ed57600080fd5b506102f96104fc366004612496565b610f2a565b34801561050d57600080fd5b506102546101045481565b34801561052457600080fd5b5061028a610533366004612303565b610f9d565b34801561054457600080fd5b506102ac610fc8565b34801561055957600080fd5b506102f9610568366004612128565b610fd7565b34801561057957600080fd5b50610254600081565b34801561058e57600080fd5b5061028a61059d366004612128565b6110ad565b3480156105ae57600080fd5b5061028a6105bd366004612128565b61116a565b3480156105ce57600080fd5b5060fd54610254565b3480156105e357600080fd5b506102f96105f23660046122cb565b611204565b34801561060357600080fd5b506102546101035481565b34801561061a57600080fd5b506102546000805160206130f983398151915281565b34801561063c57600080fd5b506102546101025481565b34801561065357600080fd5b506102546106623660046122cb565b6112a0565b34801561067357600080fd5b5061013954610370906001600160a01b031681565b34801561069457600080fd5b506102f96106a3366004612303565b6112b1565b3480156106b457600080fd5b506102f96106c336600461225a565b6112d6565b3480156106d457600080fd5b506102546106e33660046124b7565b611399565b3480156106f457600080fd5b5061025460001981565b600061070b610105611401565b905090565b60006001600160e01b03198216637965db0b60e01b148061074157506301ffc9a760e01b6001600160e01b03198316145b92915050565b606060fe8054610756906124ef565b80601f0160208091040260200160405190810160405280929190818152602001828054610782906124ef565b80156107cf5780601f106107a4576101008083540402835291602001916107cf565b820191906000526020600020905b8154815290600101906020018083116107b257829003601f168201915b5050505050905090565b600080633b9aca00610103546000196107f29190612547565b6107fc9190612547565b83111561080c5750600019610830565b6108158361140b565b905061082d610103548261144a90919063ffffffff16565b90505b61083b3385836114f9565b5060019392505050565b600054610100900460ff16158080156108655750600054600160ff909116105b8061087f5750303b15801561087f575060005460ff166001145b6108a45760405162461bcd60e51b815260040161089b906125a9565b60405180910390fd5b6000805460ff1916600117905580156108c7576000805461ff0019166101001790555b6108cf6115a0565b60fe6108dc868883612659565b5060ff6108ea848683612659565b506108f36115a0565b6108fb6115a0565b6109066000336115c9565b6b033b2e3c9fd0803ce800000061010381905561010455610139805460ff60a01b1916600160a01b60ff8516021790558015610981576000805461ff00191690556040517f7f26b83ff96e1f2b6a682f133852f6798a09c465da95921460cefb38474024989061097890600190612731565b60405180910390a15b505050505050565b60fd54610103546000919082906109a190839061164f565b90506109ac816116ec565b9250505090565b6001600160a01b038116600090815260fb6020526040812054610741565b6000806109dd85610ee6565b8303610a0257506001600160a01b038416600090815260fb6020526040902054610a26565b610a0b8361140b565b9050610a23610103548261144a90919063ffffffff16565b90505b610a3185858361173c565b6000610a3d8633611399565b8403610a4a575080610a70565b506001600160a01b038516600090815260fc602090815260408083203384529091529020545b81811015610a905760405162461bcd60e51b815260040161089b9061278b565b610a9d86338484036114f9565b846001600160a01b0316866001600160a01b031660008051602061316083398151915286604051610ace9190612024565b60405180910390a36001925050505b9392505050565b60006107416101058361180f565b600082815260656020526040902060010154610b0d8161181b565b610b1783836115c9565b505050565b61013954600090600160a01b900460ff1615610b44575061013954600160a01b900460ff1690565b50601290565b6001600160a01b0381163314610b725760405162461bcd60e51b815260040161089b906127e7565b610b7c8282611825565b5050565b6001600160a01b037f0000000000000000000000000000000000000000000000000000000000000000163003610bc85760405162461bcd60e51b815260040161089b90612840565b7f00000000000000000000000000000000000000000000000000000000000000006001600160a01b0316610c11600080516020613119833981519152546001600160a01b031690565b6001600160a01b031614610c375760405162461bcd60e51b815260040161089b90612899565b610c408161188c565b60408051600080825260208201909252610c5c91839190611897565b50565b600080610c6b8361140b565b9050610c83610103548261144a90919063ffffffff16565b33600081815260fc602090815260408083206001600160a01b038a16845290915290205491925061083b918690610cbb9085906128a9565b6114f9565b600080610cdc610103546101015461164f90919063ffffffff16565b9050610ce7816116ec565b91505090565b610d056000805160206130f983398151915233610f9d565b610d215760405162461bcd60e51b815260040161089b906128f3565b6000610d2c8261140b565b9050610d44610103548261144a90919063ffffffff16565b9050610d508382611979565b806101006000828254610d6391906128a9565b90915550506040516001600160a01b0384169060009060008051602061316083398151915290610d94908690612024565b60405180910390a3505050565b6001600160a01b037f0000000000000000000000000000000000000000000000000000000000000000163003610de95760405162461bcd60e51b815260040161089b90612840565b7f00000000000000000000000000000000000000000000000000000000000000006001600160a01b0316610e32600080516020613119833981519152546001600160a01b031690565b6001600160a01b031614610e585760405162461bcd60e51b815260040161089b90612899565b610e618261188c565b610b7c82826001611897565b6000306001600160a01b037f00000000000000000000000000000000000000000000000000000000000000001614610eb75760405162461bcd60e51b815260040161089b9061295d565b5060008051602061311983398151915290565b600080610cdc610103546101005461164f90919063ffffffff16565b6001600160a01b038116600090815260fb60205260408120546000610f17610103548361164f90919063ffffffff16565b9050610f22816116ec565b949350505050565b610f35600033610f9d565b610f515760405162461bcd60e51b815260040161089b90612998565b61013954600160a01b900460ff1615610f7c5760405162461bcd60e51b815260040161089b906129d3565b610139805460ff909216600160a01b0260ff60a01b19909216919091179055565b60009182526065602090815260408084206001600160a01b0393909316845291905290205460ff1690565b606060ff8054610756906124ef565b610fef6000805160206130f983398151915233610f9d565b61100b5760405162461bcd60e51b815260040161089b906128f3565b600061101683610ee6565b820361103b57506001600160a01b038216600090815260fb602052604090205461105f565b6110448261140b565b905061105c610103548261144a90919063ffffffff16565b90505b61106983826119f0565b80610101600082825461107c91906128a9565b90915550506040516000906001600160a01b0385169060008051602061316083398151915290610d94908690612024565b6000806110ba3385611399565b83036110ea575033600090815260fc602090815260408083206001600160a01b038716845290915290205461110e565b6110f38361140b565b905061110b610103548261144a90919063ffffffff16565b90505b33600090815260fc602090815260408083206001600160a01b0388168452909152902054818110156111525760405162461bcd60e51b815260040161089b90612a25565b61115f33868484036114f9565b506001949350505050565b60008061117633610ee6565b8303611192575033600090815260fb60205260409020546111b6565b61119b8361140b565b90506111b3610103548261144a90919063ffffffff16565b90505b6111c133858361173c565b6001600160a01b038416336001600160a01b0316600080516020613160833981519152856040516111f29190612024565b60405180910390a35060019392505050565b61121c6000805160206130f983398151915233610f9d565b6112385760405162461bcd60e51b815260040161089b906128f3565b600081116112585760405162461bcd60e51b815260040161089b90612a67565b610103819055426101028190556040517f0e4040116352d1db096d8c6873996691dc7c5fe194f0a5094f63e55f28372e1191611295918490612a77565b60405180910390a150565b60006107416104dc6101058461180f565b6000828152606560205260409020600101546112cc8161181b565b610b178383611825565b6112e1600033610f9d565b6112fd5760405162461bcd60e51b815260040161089b90612998565b610139546001600160a01b0316156113355761013954611335906000805160206130f9833981519152906001600160a01b03166112b1565b61134d6000805160206130f983398151915282610af2565b61013980546001600160a01b0319166001600160a01b0383161790556040517f1af34e943bb581f62718acd39caf1a640e9ff89789a197745e259d1f40cd9bd6906112959083906122f5565b6001600160a01b03828116600090815260fc60209081526040808320938516835292905290812054610103546113d190600019612547565b8111156113e357600019915050610741565b61010354610f1790829061164f565b6001600160a01b03163b151590565b6000610741825490565b60008061141c633b9aca0084612a92565b90508261142d633b9aca0083612547565b146107415760405162461bcd60e51b815260040161089b90612aea565b60008160000361146c5760405162461bcd60e51b815260040161089b90612b2e565b8260000361147c57506000610741565b6000611489600284612547565b90506b033b2e3c9fd0803ce80000006114a482600019612b3e565b6114ae9190612547565b8411156114cd5760405162461bcd60e51b815260040161089b90612aea565b82816114e56b033b2e3c9fd0803ce800000087612a92565b6114ef91906128a9565b610f229190612547565b6001600160a01b03831661151f5760405162461bcd60e51b815260040161089b90612b92565b6001600160a01b0382166115455760405162461bcd60e51b815260040161089b90612be1565b6001600160a01b03808416600081815260fc602090815260408083209487168084529490915290819020849055517f8c5be1e5ebec7d5bd14f71427d1e84f3dd0314c0f7b2291e5b200ac8c7c3b92590610d94908590612024565b600054610100900460ff166115c75760405162461bcd60e51b815260040161089b90612c39565b565b6115d38282610f9d565b610b7c5760008281526065602090815260408083206001600160a01b03851684529091529020805460ff1916600117905561160b3390565b6001600160a01b0316816001600160a01b0316837f2f8788117e7eff1d82e926ec794901d17c78024a50270940304540a733656f0d60405160405180910390a45050565b600082158061165c575081155b1561166957506000610741565b8161168160026b033b2e3c9fd0803ce8000000612547565b61168d90600019612b3e565b6116979190612547565b8311156116b65760405162461bcd60e51b815260040161089b90612aea565b6b033b2e3c9fd0803ce80000006116ce600282612547565b6116d88486612a92565b6116e291906128a9565b610add9190612547565b6000806116fe6002633b9aca00612547565b9050600061170c84836128a9565b90508181101561172e5760405162461bcd60e51b815260040161089b90612c7d565b610f22633b9aca0082612547565b6001600160a01b0383166117625760405162461bcd60e51b815260040161089b90612ccf565b6001600160a01b0382166117885760405162461bcd60e51b815260040161089b90612d1f565b6001600160a01b038316600090815260fb6020526040902054818110156117c15760405162461bcd60e51b815260040161089b90612d72565b6001600160a01b03808516600090815260fb60205260408082208585039055918516815290812080548492906117f89084906128a9565b909155506118099050848484611a8c565b50505050565b6000610add8383611afa565b610c5c8133611b24565b61182f8282610f9d565b15610b7c5760008281526065602090815260408083206001600160a01b0385168085529252808320805460ff1916905551339285917ff6391f5c32d9c69d2a47ea670b442974b53935d1edc7fd64eb21e047a839171b9190a45050565b6000610b7c8161181b565b7f4910fdfa16fed3260ed0e7147f7cc6da11a60208b5b9406d12a635614ffd91435460ff16156118ca57610b1783611b7d565b826001600160a01b03166352d1902d6040518163ffffffff1660e01b8152600401602060405180830381865afa925050508015611924575060408051601f3d908101601f1916820190925261192191810190612d8d565b60015b6119405760405162461bcd60e51b815260040161089b90612df9565b600080516020613119833981519152811461196d5760405162461bcd60e51b815260040161089b90612e4f565b50610b17838383611bd3565b6001600160a01b03821661199f5760405162461bcd60e51b815260040161089b90612e93565b8060fd60008282546119b191906128a9565b90915550506001600160a01b038216600090815260fb6020526040812080548392906119de9084906128a9565b90915550610b7c905060008383611a8c565b6001600160a01b038216611a165760405162461bcd60e51b815260040161089b90612ee1565b6001600160a01b038216600090815260fb602052604090205481811015611a4f5760405162461bcd60e51b815260040161089b90612f30565b6001600160a01b038316600090815260fb60205260408120838303905560fd8054849290611a7e908490612b3e565b90915550610b179050836000845b6001600160a01b038316611aa65761180961010583611bf8565b6001600160a01b038216611ad057611abd83610ee6565b600003610b175761180961010584611c0d565b611ad983610ee6565b600003611aee57611aec61010584611c0d565b505b61180961010583611bf8565b6000826000018281548110611b1157611b11612f40565b9060005260206000200154905092915050565b611b2e8282610f9d565b610b7c57611b3b81611c22565b611b46836020611c34565b604051602001611b57929190612f78565b60408051601f198184030181529082905262461bcd60e51b825261089b916004016120e1565b6001600160a01b0381163b611ba45760405162461bcd60e51b815260040161089b9061301a565b60008051602061311983398151915280546001600160a01b0319166001600160a01b0392909216919091179055565b611bdc83611da0565b600082511180611be95750805b15610b17576118098383611de0565b6000610add836001600160a01b038416611e95565b6000610add836001600160a01b038416611ee4565b60606107416001600160a01b03831660145b60606000611c43836002612a92565b611c4e9060026128a9565b67ffffffffffffffff811115611c6657611c6661234d565b6040519080825280601f01601f191660200182016040528015611c90576020820181803683370190505b509050600360fc1b81600081518110611cab57611cab612f40565b60200101906001600160f81b031916908160001a905350600f60fb1b81600181518110611cda57611cda612f40565b60200101906001600160f81b031916908160001a9053506000611cfe846002612a92565b611d099060016128a9565b90505b6001811115611d81576f181899199a1a9b1b9c1cb0b131b232b360811b85600f1660108110611d3d57611d3d612f40565b1a60f81b828281518110611d5357611d53612f40565b60200101906001600160f81b031916908160001a90535060049490941c93611d7a8161302a565b9050611d0c565b508315610add5760405162461bcd60e51b815260040161089b90613073565b611da981611b7d565b6040516001600160a01b038216907fbc7cd75a20ee27fd9adebab32041f755214dbc6bffa90cc0225b39da2e5c2d3b90600090a250565b60606001600160a01b0383163b611e095760405162461bcd60e51b815260040161089b906130c6565b600080846001600160a01b031684604051611e2491906130d6565b600060405180830381855af49150503d8060008114611e5f576040519150601f19603f3d011682016040523d82523d6000602084013e611e64565b606091505b5091509150611e8c828260405180606001604052806027815260200161313960279139611fde565b95945050505050565b6000818152600183016020526040812054611edc57508154600181810184556000848152602080822090930184905584548482528286019093526040902091909155610741565b506000610741565b60008181526001830160205260408120548015611fcd576000611f08600183612b3e565b8554909150600090611f1c90600190612b3e565b9050818114611f81576000866000018281548110611f3c57611f3c612f40565b9060005260206000200154905080876000018481548110611f5f57611f5f612f40565b6000918252602080832090910192909255918252600188019052604090208390555b8554869080611f9257611f926130e2565b600190038181906000526020600020016000905590558560010160008681526020019081526020016000206000905560019350505050610741565b6000915050610741565b5092915050565b60608315611fed575081610add565b610add83838151156120025781518083602001fd5b8060405162461bcd60e51b815260040161089b91906120e1565b805b82525050565b60208101610741828461201c565b6001600160e01b031981165b8114610c5c57600080fd5b803561074181612032565b60006020828403121561206957612069600080fd5b6000610f228484612049565b80151561201e565b602081016107418284612075565b60005b838110156120a657818101518382015260200161208e565b50506000910152565b60006120b9825190565b8084526020840193506120d081856020860161208b565b601f01601f19169290920192915050565b60208082528101610add81846120af565b60006001600160a01b038216610741565b61203e816120f2565b803561074181612103565b8061203e565b803561074181612117565b6000806040838503121561213e5761213e600080fd5b600061214a858561210c565b925050602061215b8582860161211d565b9150509250929050565b60008083601f84011261217a5761217a600080fd5b50813567ffffffffffffffff81111561219557612195600080fd5b6020830191508360018202830111156121b0576121b0600080fd5b9250929050565b60ff811661203e565b8035610741816121b7565b6000806000806000606086880312156121e6576121e6600080fd5b853567ffffffffffffffff81111561220057612200600080fd5b61220c88828901612165565b9550955050602086013567ffffffffffffffff81111561222e5761222e600080fd5b61223a88828901612165565b9350935050604061224d888289016121c0565b9150509295509295909350565b60006020828403121561226f5761226f600080fd5b6000610f22848461210c565b60008060006060848603121561229357612293600080fd5b600061229f868661210c565b93505060206122b08682870161210c565b92505060406122c18682870161211d565b9150509250925092565b6000602082840312156122e0576122e0600080fd5b6000610f22848461211d565b61201e816120f2565b6020810161074182846122ec565b6000806040838503121561231957612319600080fd5b6000612325858561211d565b925050602061215b8582860161210c565b60ff811661201e565b602081016107418284612336565b634e487b7160e01b600052604160045260246000fd5b601f19601f830116810181811067ffffffffffffffff821117156123895761238961234d565b6040525050565b600061239b60405190565b90506123a78282612363565b919050565b600067ffffffffffffffff8211156123c6576123c661234d565b601f19601f83011660200192915050565b82818337506000910152565b60006123f66123f1846123ac565b612390565b90508281526020810184848401111561241157612411600080fd5b61241c8482856123d7565b509392505050565b600082601f83011261243857612438600080fd5b8135610f228482602086016123e3565b6000806040838503121561245e5761245e600080fd5b600061246a858561210c565b925050602083013567ffffffffffffffff81111561248a5761248a600080fd5b61215b85828601612424565b6000602082840312156124ab576124ab600080fd5b6000610f2284846121c0565b600080604083850312156124cd576124cd600080fd5b6000612325858561210c565b634e487b7160e01b600052602260045260246000fd5b60028104600182168061250357607f821691505b602082108103612515576125156124d9565b50919050565b634e487b7160e01b600052601260045260246000fd5b634e487b7160e01b600052601160045260246000fd5b6000826125565761255661251b565b500490565b602e81526000602082017f496e697469616c697a61626c653a20636f6e747261637420697320616c72656181526d191e481a5b9a5d1a585b1a5e995960921b602082015291505b5060400190565b602080825281016107418161255b565b60006107416125c58381565b90565b6125d1836125b9565b81546008840282811b60001990911b908116901990911617825550505050565b6000610b178184846125c8565b81811015610b7c576126116000826125f1565b6001016125fe565b601f821115610b17576000818152602090206020601f850104810160208510156126405750805b6126526020601f8601048301826125fe565b5050505050565b8267ffffffffffffffff8111156126725761267261234d565b61267c82546124ef565b612687828285612619565b6000601f8311600181146126bb57600084156126a35750858201355b600019600886021c1981166002860217865550612714565b600085815260208120601f198616915b828110156126eb57888501358255602094850194600190920191016126cb565b8683101561270757600019601f88166008021c19858a01351682555b6001600288020188555050505b50505050505050565b600060ff8216610741565b61201e8161271d565b602081016107418284612728565b602f81526000602082017f557364506c7573546f6b656e3a207472616e7366657220616d6f756e7420657881526e636565647320616c6c6f77616e636560881b602082015291506125a2565b602080825281016107418161273f565b602f81526000602082017f416363657373436f6e74726f6c3a2063616e206f6e6c792072656e6f756e636581526e103937b632b9903337b91039b2b63360891b602082015291506125a2565b602080825281016107418161279b565b602c81526000602082017f46756e6374696f6e206d7573742062652063616c6c6564207468726f7567682081526b19195b1959d85d1958d85b1b60a21b602082015291506125a2565b60208082528101610741816127f7565b602c81526000602082017f46756e6374696f6e206d7573742062652063616c6c6564207468726f7567682081526b6163746976652070726f787960a01b602082015291506125a2565b6020808252810161074181612850565b8082018082111561074157610741612531565b601b81526000602082017f43616c6c6572206973206e6f74207468652045584348414e4745520000000000815291505b5060200190565b60208082528101610741816128bc565b603881526000602082017f555550535570677261646561626c653a206d757374206e6f742062652063616c81527f6c6564207468726f7567682064656c656761746563616c6c0000000000000000602082015291506125a2565b6020808252810161074181612903565b60148152600060208201735265737472696374656420746f2061646d696e7360601b815291506128ec565b602080825281016107418161296d565b6014815260006020820173111958da5b585b1cc8185b1c9958591e481cd95d60621b815291506128ec565b60208082528101610741816129a8565b602581526000602082017f45524332303a2064656372656173656420616c6c6f77616e63652062656c6f77815264207a65726f60d81b602082015291506125a2565b60208082528101610741816129e3565b60208082527f5a65726f206c697175696469747920696e646578206e6f7420616c6c6f776564910190815260006128ec565b6020808252810161074181612a35565b60408101612a85828561201c565b610add602083018461201c565b818102808215838204851417611fd757611fd7612531565b602381526000602082017f4572726f72732e4d4154485f4d554c5449504c49434154494f4e5f4f564552468152624c4f5760e81b602082015291506125a2565b6020808252810161074181612aaa565b601c81526000602082017f4572726f72732e4d4154485f4449564953494f4e5f42595f5a45524f00000000815291506128ec565b6020808252810161074181612afa565b8181038181111561074157610741612531565b602481526000602082017f45524332303a20617070726f76652066726f6d20746865207a65726f206164648152637265737360e01b602082015291506125a2565b6020808252810161074181612b51565b602281526000602082017f45524332303a20617070726f766520746f20746865207a65726f206164647265815261737360f01b602082015291506125a2565b6020808252810161074181612ba2565b602b81526000602082017f496e697469616c697a61626c653a20636f6e7472616374206973206e6f74206981526a6e697469616c697a696e6760a81b602082015291506125a2565b6020808252810161074181612bf1565b601d81526000602082017f4572726f72732e4d4154485f4144444954494f4e5f4f564552464c4f57000000815291506128ec565b6020808252810161074181612c49565b602581526000602082017f45524332303a207472616e736665722066726f6d20746865207a65726f206164815264647265737360d81b602082015291506125a2565b6020808252810161074181612c8d565b602381526000602082017f45524332303a207472616e7366657220746f20746865207a65726f206164647281526265737360e81b602082015291506125a2565b6020808252810161074181612cdf565b602681526000602082017f45524332303a207472616e7366657220616d6f756e7420657863656564732062815265616c616e636560d01b602082015291506125a2565b6020808252810161074181612d2f565b805161074181612117565b600060208284031215612da257612da2600080fd5b6000610f228484612d82565b602e81526000602082017f45524331393637557067726164653a206e657720696d706c656d656e7461746981526d6f6e206973206e6f74205555505360901b602082015291506125a2565b6020808252810161074181612dae565b602981526000602082017f45524331393637557067726164653a20756e737570706f727465642070726f788152681a58589b195555525160ba1b602082015291506125a2565b6020808252810161074181612e09565b601f81526000602082017f45524332303a206d696e7420746f20746865207a65726f206164647265737300815291506128ec565b6020808252810161074181612e5f565b602181526000602082017f45524332303a206275726e2066726f6d20746865207a65726f206164647265738152607360f81b602082015291506125a2565b6020808252810161074181612ea3565b602281526000602082017f45524332303a206275726e20616d6f756e7420657863656564732062616c616e815261636560f01b602082015291506125a2565b6020808252810161074181612ef1565b634e487b7160e01b600052603260045260246000fd5b6000612f60825190565b612f6e81856020860161208b565b9290920192915050565b7f416363657373436f6e74726f6c3a206163636f756e742000000000000000000081526017016000612faa8285612f56565b7001034b99036b4b9b9b4b733903937b6329607d1b81526011019150610f228284612f56565b602d81526000602082017f455243313936373a206e657720696d706c656d656e746174696f6e206973206e81526c1bdd08184818dbdb9d1c9858dd609a1b602082015291506125a2565b6020808252810161074181612fd0565b60008161303957613039612531565b506000190190565b60208082527f537472696e67733a20686578206c656e67746820696e73756666696369656e74910190815260006128ec565b6020808252810161074181613041565b602681526000602082017f416464726573733a2064656c65676174652063616c6c20746f206e6f6e2d636f8152651b9d1c9858dd60d21b602082015291506125a2565b6020808252810161074181613083565b6000610add8284612f56565b634e487b7160e01b600052603160045260246000fdfe3eb675f159e6ca6cf5de6bfbbc8c4521cfd428f5e9166e51094d5898504caf2d360894a13ba1a3210667c828492db98dca3e2076cc3735a920a3ca505d382bbc416464726573733a206c6f772d6c6576656c2064656c65676174652063616c6c206661696c6564ddf252ad1be2c89b69c2b068fc378daa952ba7f163c4a11628f55a4df523b3efa26469706673582212202fed4f5c51d1194945b119f95b08cb435f8ec27e19abfee0175e9bf4a640654f64736f6c63430008110033",
  "implementation": "0x9d112e7A919994ca865585e1426468363B284e21",
  "devdoc": {
    "kind": "dev",
    "methods": {
      "allowance(address,address)": {
        "details": "See {IERC20-allowance}."
      },
      "approve(address,uint256)": {
        "details": "See {IERC20-approve}."
      },
      "balanceOf(address)": {
        "details": "Calculates the balance of the user: principal balance + interest generated by the principal",
        "params": {
          "user": "The user whose balance is calculated"
        },
        "returns": {
          "_0": "The balance of the user*"
        }
      },
      "constructor": {
        "custom:oz-upgrades-unsafe-allow": "constructor"
      },
      "decimals()": {
        "details": "Returns the number of decimals used to get its user representation. For example, if `decimals` equals `2`, a balance of `505` tokens should be displayed to a user as `5.05` (`505 / 10 ** 2`). Tokens usually opt for a value of 18, imitating the relationship between Ether and Wei. This is the value {ERC20} uses, unless this function is overridden; NOTE: This information is only used for _display_ purposes: it in no way affects any of the arithmetic of the contract, including {IERC20-balanceOf} and {IERC20-transfer}."
      },
      "decreaseAllowance(address,uint256)": {
        "details": "Atomically decreases the allowance granted to `spender` by the caller. This is an alternative to {approve} that can be used as a mitigation for problems described in {IERC20-approve}. Emits an {Approval} event indicating the updated allowance. Requirements: - `spender` cannot be the zero address. - `spender` must have allowance for the caller of at least `subtractedValue`."
      },
      "getRoleAdmin(bytes32)": {
        "details": "Returns the admin role that controls `role`. See {grantRole} and {revokeRole}. To change a role's admin, use {_setRoleAdmin}."
      },
      "grantRole(bytes32,address)": {
        "details": "Grants `role` to `account`. If `account` had not been already granted `role`, emits a {RoleGranted} event. Requirements: - the caller must have ``role``'s admin role. May emit a {RoleGranted} event."
      },
      "hasRole(bytes32,address)": {
        "details": "Returns `true` if `account` has been granted `role`."
      },
      "increaseAllowance(address,uint256)": {
        "details": "Atomically increases the allowance granted to `spender` by the caller. This is an alternative to {approve} that can be used as a mitigation for problems described in {IERC20-approve}. Emits an {Approval} event indicating the updated allowance. Requirements: - `spender` cannot be the zero address."
      },
      "name()": {
        "details": "Returns the name of the token."
      },
      "proxiableUUID()": {
        "details": "Implementation of the ERC1822 {proxiableUUID} function. This returns the storage slot used by the implementation. It is used to validate the implementation's compatibility when performing an upgrade. IMPORTANT: A proxy pointing at a proxiable contract should not be considered proxiable itself, because this risks bricking a proxy that upgrades to it, by delegating to itself until out of gas. Thus it is critical that this function revert if invoked through a proxy. This is guaranteed by the `notDelegated` modifier."
      },
      "renounceRole(bytes32,address)": {
        "details": "Revokes `role` from the calling account. Roles are often managed via {grantRole} and {revokeRole}: this function's purpose is to provide a mechanism for accounts to lose their privileges if they are compromised (such as when a trusted device is misplaced). If the calling account had been revoked `role`, emits a {RoleRevoked} event. Requirements: - the caller must be `account`. May emit a {RoleRevoked} event."
      },
      "revokeRole(bytes32,address)": {
        "details": "Revokes `role` from `account`. If `account` had been granted `role`, emits a {RoleRevoked} event. Requirements: - the caller must have ``role``'s admin role. May emit a {RoleRevoked} event."
      },
      "scaledBalanceOf(address)": {
        "details": "Returns the scaled balance of the user. The scaled balance is the sum of all the updated stored balance divided by the reserve's liquidity index at the moment of the update",
        "params": {
          "user": "The user whose balance is calculated"
        },
        "returns": {
          "_0": "The scaled balance of the user*"
        }
      },
      "scaledTotalSupply()": {
        "details": "Returns the scaled total supply of the variable debt token",
        "returns": {
          "_0": "the scaled total supply*"
        }
      },
      "supportsInterface(bytes4)": {
        "details": "See {IERC165-supportsInterface}."
      },
      "symbol()": {
        "details": "Returns the symbol of the token, usually a shorter version of the name."
      },
      "totalSupply()": {
        "details": "calculates the total supply of the specific aToken since the balance of every single user increases over time, the total supply does that too.",
        "returns": {
          "_0": "the current total supply*"
        }
      },
      "transfer(address,uint256)": {
        "details": "See {IERC20-transfer}."
      },
      "upgradeTo(address)": {
        "details": "Upgrade the implementation of the proxy to `newImplementation`. Calls {_authorizeUpgrade}. Emits an {Upgraded} event."
      },
      "upgradeToAndCall(address,bytes)": {
        "details": "Upgrade the implementation of the proxy to `newImplementation`, and subsequently execute the function call encoded in `data`. Calls {_authorizeUpgrade}. Emits an {Upgraded} event."
      }
    },
    "version": 1
  },
  "userdoc": {
    "kind": "user",
    "methods": {
      "setDecimals(uint8)": {
        "notice": "Support method for old version tokens which not has field _decimals at deploy"
      }
    },
    "version": 1
  },
  "storageLayout": {
    "storage": [
      {
        "astId": 804,
        "contract": "contracts/TestToken.sol:TestToken",
        "label": "_initialized",
        "offset": 0,
        "slot": "0",
        "type": "t_uint8"
      },
      {
        "astId": 807,
        "contract": "contracts/TestToken.sol:TestToken",
        "label": "_initializing",
        "offset": 1,
        "slot": "0",
        "type": "t_bool"
      },
      {
        "astId": 1657,
        "contract": "contracts/TestToken.sol:TestToken",
        "label": "__gap",
        "offset": 0,
        "slot": "1",
        "type": "t_array(t_uint256)50_storage"
      },
      {
        "astId": 1936,
        "contract": "contracts/TestToken.sol:TestToken",
        "label": "__gap",
        "offset": 0,
        "slot": "51",
        "type": "t_array(t_uint256)50_storage"
      },
      {
        "astId": 39,
        "contract": "contracts/TestToken.sol:TestToken",
        "label": "_roles",
        "offset": 0,
        "slot": "101",
        "type": "t_mapping(t_bytes32,t_struct(RoleData)34_storage)"
      },
      {
        "astId": 334,
        "contract": "contracts/TestToken.sol:TestToken",
        "label": "__gap",
        "offset": 0,
        "slot": "102",
        "type": "t_array(t_uint256)49_storage"
      },
      {
        "astId": 786,
        "contract": "contracts/TestToken.sol:TestToken",
        "label": "__gap",
        "offset": 0,
        "slot": "151",
        "type": "t_array(t_uint256)50_storage"
      },
      {
        "astId": 1101,
        "contract": "contracts/TestToken.sol:TestToken",
        "label": "__gap",
        "offset": 0,
        "slot": "201",
        "type": "t_array(t_uint256)50_storage"
      },
      {
        "astId": 8334,
        "contract": "contracts/TestToken.sol:TestToken",
        "label": "_balances",
        "offset": 0,
        "slot": "251",
        "type": "t_mapping(t_address,t_uint256)"
      },
      {
        "astId": 8340,
        "contract": "contracts/TestToken.sol:TestToken",
        "label": "_allowances",
        "offset": 0,
        "slot": "252",
        "type": "t_mapping(t_address,t_mapping(t_address,t_uint256))"
      },
      {
        "astId": 8342,
        "contract": "contracts/TestToken.sol:TestToken",
        "label": "_totalSupply",
        "offset": 0,
        "slot": "253",
        "type": "t_uint256"
      },
      {
        "astId": 8344,
        "contract": "contracts/TestToken.sol:TestToken",
        "label": "_name",
        "offset": 0,
        "slot": "254",
        "type": "t_string_storage"
      },
      {
        "astId": 8346,
        "contract": "contracts/TestToken.sol:TestToken",
        "label": "_symbol",
        "offset": 0,
        "slot": "255",
        "type": "t_string_storage"
      },
      {
        "astId": 8353,
        "contract": "contracts/TestToken.sol:TestToken",
        "label": "_totalMint",
        "offset": 0,
        "slot": "256",
        "type": "t_uint256"
      },
      {
        "astId": 8355,
        "contract": "contracts/TestToken.sol:TestToken",
        "label": "_totalBurn",
        "offset": 0,
        "slot": "257",
        "type": "t_uint256"
      },
      {
        "astId": 8357,
        "contract": "contracts/TestToken.sol:TestToken",
        "label": "liquidityIndexChangeTime",
        "offset": 0,
        "slot": "258",
        "type": "t_uint256"
      },
      {
        "astId": 8359,
        "contract": "contracts/TestToken.sol:TestToken",
        "label": "liquidityIndex",
        "offset": 0,
        "slot": "259",
        "type": "t_uint256"
      },
      {
        "astId": 8361,
        "contract": "contracts/TestToken.sol:TestToken",
        "label": "liquidityIndexDenominator",
        "offset": 0,
        "slot": "260",
        "type": "t_uint256"
      },
      {
        "astId": 8364,
        "contract": "contracts/TestToken.sol:TestToken",
        "label": "_owners",
        "offset": 0,
        "slot": "261",
        "type": "t_struct(AddressSet)4120_storage"
      },
      {
        "astId": 8368,
        "contract": "contracts/TestToken.sol:TestToken",
        "label": "__gap",
        "offset": 0,
        "slot": "263",
        "type": "t_array(t_uint256)50_storage"
      },
      {
        "astId": 8370,
        "contract": "contracts/TestToken.sol:TestToken",
        "label": "exchange",
        "offset": 0,
        "slot": "313",
        "type": "t_address"
      },
      {
        "astId": 8372,
        "contract": "contracts/TestToken.sol:TestToken",
        "label": "_decimals",
        "offset": 20,
        "slot": "313",
        "type": "t_uint8"
      }
    ],
    "types": {
      "t_address": {
        "encoding": "inplace",
        "label": "address",
        "numberOfBytes": "20"
      },
      "t_array(t_bytes32)dyn_storage": {
        "base": "t_bytes32",
        "encoding": "dynamic_array",
        "label": "bytes32[]",
        "numberOfBytes": "32"
      },
      "t_array(t_uint256)49_storage": {
        "base": "t_uint256",
        "encoding": "inplace",
        "label": "uint256[49]",
        "numberOfBytes": "1568"
      },
      "t_array(t_uint256)50_storage": {
        "base": "t_uint256",
        "encoding": "inplace",
        "label": "uint256[50]",
        "numberOfBytes": "1600"
      },
      "t_bool": {
        "encoding": "inplace",
        "label": "bool",
        "numberOfBytes": "1"
      },
      "t_bytes32": {
        "encoding": "inplace",
        "label": "bytes32",
        "numberOfBytes": "32"
      },
      "t_mapping(t_address,t_bool)": {
        "encoding": "mapping",
        "key": "t_address",
        "label": "mapping(address => bool)",
        "numberOfBytes": "32",
        "value": "t_bool"
      },
      "t_mapping(t_address,t_mapping(t_address,t_uint256))": {
        "encoding": "mapping",
        "key": "t_address",
        "label": "mapping(address => mapping(address => uint256))",
        "numberOfBytes": "32",
        "value": "t_mapping(t_address,t_uint256)"
      },
      "t_mapping(t_address,t_uint256)": {
        "encoding": "mapping",
        "key": "t_address",
        "label": "mapping(address => uint256)",
        "numberOfBytes": "32",
        "value": "t_uint256"
      },
      "t_mapping(t_bytes32,t_struct(RoleData)34_storage)": {
        "encoding": "mapping",
        "key": "t_bytes32",
        "label": "mapping(bytes32 => struct AccessControlUpgradeable.RoleData)",
        "numberOfBytes": "32",
        "value": "t_struct(RoleData)34_storage"
      },
      "t_mapping(t_bytes32,t_uint256)": {
        "encoding": "mapping",
        "key": "t_bytes32",
        "label": "mapping(bytes32 => uint256)",
        "numberOfBytes": "32",
        "value": "t_uint256"
      },
      "t_string_storage": {
        "encoding": "bytes",
        "label": "string",
        "numberOfBytes": "32"
      },
      "t_struct(AddressSet)4120_storage": {
        "encoding": "inplace",
        "label": "struct EnumerableSet.AddressSet",
        "members": [
          {
            "astId": 4119,
            "contract": "contracts/TestToken.sol:TestToken",
            "label": "_inner",
            "offset": 0,
            "slot": "0",
            "type": "t_struct(Set)3819_storage"
          }
        ],
        "numberOfBytes": "64"
      },
      "t_struct(RoleData)34_storage": {
        "encoding": "inplace",
        "label": "struct AccessControlUpgradeable.RoleData",
        "members": [
          {
            "astId": 31,
            "contract": "contracts/TestToken.sol:TestToken",
            "label": "members",
            "offset": 0,
            "slot": "0",
            "type": "t_mapping(t_address,t_bool)"
          },
          {
            "astId": 33,
            "contract": "contracts/TestToken.sol:TestToken",
            "label": "adminRole",
            "offset": 0,
            "slot": "1",
            "type": "t_bytes32"
          }
        ],
        "numberOfBytes": "64"
      },
      "t_struct(Set)3819_storage": {
        "encoding": "inplace",
        "label": "struct EnumerableSet.Set",
        "members": [
          {
            "astId": 3814,
            "contract": "contracts/TestToken.sol:TestToken",
            "label": "_values",
            "offset": 0,
            "slot": "0",
            "type": "t_array(t_bytes32)dyn_storage"
          },
          {
            "astId": 3818,
            "contract": "contracts/TestToken.sol:TestToken",
            "label": "_indexes",
            "offset": 0,
            "slot": "1",
            "type": "t_mapping(t_bytes32,t_uint256)"
          }
        ],
        "numberOfBytes": "64"
      },
      "t_uint256": {
        "encoding": "inplace",
        "label": "uint256",
        "numberOfBytes": "32"
      },
      "t_uint8": {
        "encoding": "inplace",
        "label": "uint8",
        "numberOfBytes": "1"
      }
    }
  }
}